{
  "_format": "hh-sol-artifact-1",
  "contractName": "BridgeReceiver",
  "sourceName": "src/avalanche/BridgeReceiver.sol",
  "abi": [
    {
      "inputs": [
        {
          "internalType": "address",
          "name": "initialOwner",
          "type": "address"
        },
        {
          "internalType": "address",
          "name": "_loanNFT",
          "type": "address"
        },
        {
          "internalType": "address",
          "name": "_paymentDistributor",
          "type": "address"
        },
        {
          "internalType": "address[]",
          "name": "_initialValidators",
          "type": "address[]"
        },
        {
          "internalType": "uint256",
          "name": "_requiredSignatures",
          "type": "uint256"
        }
      ],
      "stateMutability": "nonpayable",
      "type": "constructor"
    },
    {
      "inputs": [
        {
          "internalType": "address",
          "name": "owner",
          "type": "address"
        }
      ],
      "name": "OwnableInvalidOwner",
      "type": "error"
    },
    {
      "inputs": [
        {
          "internalType": "address",
          "name": "account",
          "type": "address"
        }
      ],
      "name": "OwnableUnauthorizedAccount",
      "type": "error"
    },
    {
      "anonymous": false,
      "inputs": [
        {
          "indexed": true,
          "internalType": "string",
          "name": "loanId",
          "type": "string"
        },
        {
          "indexed": true,
          "internalType": "uint256",
          "name": "tokenId",
          "type": "uint256"
        },
        {
          "indexed": true,
          "internalType": "address",
          "name": "lender",
          "type": "address"
        },
        {
          "indexed": false,
          "internalType": "uint256",
          "name": "timestamp",
          "type": "uint256"
        }
      ],
      "name": "LoanMinted",
      "type": "event"
    },
    {
      "anonymous": false,
      "inputs": [
        {
          "indexed": true,
          "internalType": "string",
          "name": "loanId",
          "type": "string"
        },
        {
          "indexed": true,
          "internalType": "uint256",
          "name": "tokenId",
          "type": "uint256"
        },
        {
          "indexed": false,
          "internalType": "uint256",
          "name": "timestamp",
          "type": "uint256"
        }
      ],
      "name": "LoanNFTBurned",
      "type": "event"
    },
    {
      "anonymous": false,
      "inputs": [
        {
          "indexed": true,
          "internalType": "string",
          "name": "loanId",
          "type": "string"
        },
        {
          "indexed": true,
          "internalType": "uint256",
          "name": "tokenId",
          "type": "uint256"
        },
        {
          "indexed": false,
          "internalType": "uint256",
          "name": "timestamp",
          "type": "uint256"
        }
      ],
      "name": "LoanPaidOff",
      "type": "event"
    },
    {
      "anonymous": false,
      "inputs": [
        {
          "indexed": true,
          "internalType": "string",
          "name": "loanId",
          "type": "string"
        },
        {
          "indexed": true,
          "internalType": "uint256",
          "name": "tokenId",
          "type": "uint256"
        },
        {
          "indexed": false,
          "internalType": "uint256",
          "name": "timestamp",
          "type": "uint256"
        }
      ],
      "name": "LoanUnlocked",
      "type": "event"
    },
    {
      "anonymous": false,
      "inputs": [
        {
          "indexed": true,
          "internalType": "string",
          "name": "loanId",
          "type": "string"
        },
        {
          "indexed": true,
          "internalType": "uint256",
          "name": "tokenId",
          "type": "uint256"
        },
        {
          "indexed": false,
          "internalType": "uint256",
          "name": "timestamp",
          "type": "uint256"
        }
      ],
      "name": "MetadataUpdated",
      "type": "event"
    },
    {
      "anonymous": false,
      "inputs": [
        {
          "indexed": true,
          "internalType": "address",
          "name": "previousOwner",
          "type": "address"
        },
        {
          "indexed": true,
          "internalType": "address",
          "name": "newOwner",
          "type": "address"
        }
      ],
      "name": "OwnershipTransferred",
      "type": "event"
    },
    {
      "anonymous": false,
      "inputs": [
        {
          "indexed": true,
          "internalType": "string",
          "name": "loanId",
          "type": "string"
        },
        {
          "indexed": true,
          "internalType": "uint256",
          "name": "tokenId",
          "type": "uint256"
        },
        {
          "indexed": false,
          "internalType": "uint256",
          "name": "amount",
          "type": "uint256"
        },
        {
          "indexed": false,
          "internalType": "uint256",
          "name": "timestamp",
          "type": "uint256"
        }
      ],
      "name": "PaymentProcessed",
      "type": "event"
    },
    {
      "anonymous": false,
      "inputs": [
        {
          "indexed": true,
          "internalType": "string",
          "name": "loanId",
          "type": "string"
        },
        {
          "indexed": true,
          "internalType": "uint256",
          "name": "tokenId",
          "type": "uint256"
        },
        {
          "indexed": false,
          "internalType": "uint256",
          "name": "timestamp",
          "type": "uint256"
        }
      ],
      "name": "TokenIdNeedsSyncToBesu",
      "type": "event"
    },
    {
      "inputs": [
        {
          "internalType": "address",
          "name": "validator",
          "type": "address"
        }
      ],
      "name": "addValidator",
      "outputs": [],
      "stateMutability": "nonpayable",
      "type": "function"
    },
    {
      "inputs": [
        {
          "internalType": "string",
          "name": "",
          "type": "string"
        }
      ],
      "name": "approvedInBesu",
      "outputs": [
        {
          "internalType": "bool",
          "name": "",
          "type": "bool"
        }
      ],
      "stateMutability": "view",
      "type": "function"
    },
    {
      "inputs": [],
      "name": "getValidators",
      "outputs": [
        {
          "internalType": "address[]",
          "name": "",
          "type": "address[]"
        }
      ],
      "stateMutability": "view",
      "type": "function"
    },
    {
      "inputs": [
        {
          "internalType": "string",
          "name": "loanId",
          "type": "string"
        }
      ],
      "name": "isLoanApprovedInBesu",
      "outputs": [
        {
          "internalType": "bool",
          "name": "",
          "type": "bool"
        }
      ],
      "stateMutability": "view",
      "type": "function"
    },
    {
      "inputs": [
        {
          "internalType": "bytes32",
          "name": "messageHash",
          "type": "bytes32"
        }
      ],
      "name": "isMessageProcessed",
      "outputs": [
        {
          "internalType": "bool",
          "name": "",
          "type": "bool"
        }
      ],
      "stateMutability": "view",
      "type": "function"
    },
    {
      "inputs": [
        {
          "internalType": "address",
          "name": "addr",
          "type": "address"
        }
      ],
      "name": "isValidator",
      "outputs": [
        {
          "internalType": "bool",
          "name": "",
          "type": "bool"
        }
      ],
      "stateMutability": "view",
      "type": "function"
    },
    {
      "inputs": [],
      "name": "loanNFT",
      "outputs": [
        {
          "internalType": "contract ILoanNFT",
          "name": "",
          "type": "address"
        }
      ],
      "stateMutability": "view",
      "type": "function"
    },
    {
      "inputs": [
        {
          "internalType": "string",
          "name": "loanId",
          "type": "string"
        },
        {
          "internalType": "uint256",
          "name": "timestamp",
          "type": "uint256"
        },
        {
          "internalType": "uint256",
          "name": "nonce",
          "type": "uint256"
        },
        {
          "internalType": "bytes[]",
          "name": "signatures",
          "type": "bytes[]"
        }
      ],
      "name": "markLoanApprovedInBesu",
      "outputs": [
        {
          "internalType": "bool",
          "name": "",
          "type": "bool"
        }
      ],
      "stateMutability": "nonpayable",
      "type": "function"
    },
    {
      "inputs": [
        {
          "internalType": "string",
          "name": "loanId",
          "type": "string"
        },
        {
          "internalType": "uint256",
          "name": "timestamp",
          "type": "uint256"
        },
        {
          "internalType": "uint256",
          "name": "nonce",
          "type": "uint256"
        },
        {
          "internalType": "bytes[]",
          "name": "signatures",
          "type": "bytes[]"
        }
      ],
      "name": "markLoanCancelledInBesu",
      "outputs": [
        {
          "internalType": "bool",
          "name": "",
          "type": "bool"
        }
      ],
      "stateMutability": "nonpayable",
      "type": "function"
    },
    {
      "inputs": [],
      "name": "marketplace",
      "outputs": [
        {
          "internalType": "address",
          "name": "",
          "type": "address"
        }
      ],
      "stateMutability": "view",
      "type": "function"
    },
    {
      "inputs": [],
      "name": "owner",
      "outputs": [
        {
          "internalType": "address",
          "name": "",
          "type": "address"
        }
      ],
      "stateMutability": "view",
      "type": "function"
    },
    {
      "inputs": [],
      "name": "paymentDistributor",
      "outputs": [
        {
          "internalType": "contract IPaymentDistributor",
          "name": "",
          "type": "address"
        }
      ],
      "stateMutability": "view",
      "type": "function"
    },
    {
      "inputs": [
        {
          "internalType": "string",
          "name": "loanId",
          "type": "string"
        },
        {
          "internalType": "uint256",
          "name": "timestamp",
          "type": "uint256"
        },
        {
          "internalType": "uint256",
          "name": "nonce",
          "type": "uint256"
        },
        {
          "internalType": "bytes[]",
          "name": "signatures",
          "type": "bytes[]"
        }
      ],
      "name": "processBurnRequest",
      "outputs": [
        {
          "internalType": "bool",
          "name": "",
          "type": "bool"
        }
      ],
      "stateMutability": "nonpayable",
      "type": "function"
    },
    {
      "inputs": [
        {
          "internalType": "string",
          "name": "loanId",
          "type": "string"
        },
        {
          "internalType": "uint256",
          "name": "timestamp",
          "type": "uint256"
        },
        {
          "internalType": "uint256",
          "name": "nonce",
          "type": "uint256"
        },
        {
          "internalType": "bytes[]",
          "name": "signatures",
          "type": "bytes[]"
        }
      ],
      "name": "processEmergencyUnlock",
      "outputs": [
        {
          "internalType": "bool",
          "name": "",
          "type": "bool"
        }
      ],
      "stateMutability": "nonpayable",
      "type": "function"
    },
    {
      "inputs": [
        {
          "internalType": "string",
          "name": "loanId",
          "type": "string"
        },
        {
          "internalType": "address",
          "name": "lenderAddress",
          "type": "address"
        },
        {
          "internalType": "uint256",
          "name": "originalBalance",
          "type": "uint256"
        },
        {
          "internalType": "uint256",
          "name": "currentBalance",
          "type": "uint256"
        },
        {
          "internalType": "uint256",
          "name": "noteRate",
          "type": "uint256"
        },
        {
          "internalType": "uint256",
          "name": "lenderOwnerPct",
          "type": "uint256"
        },
        {
          "internalType": "string",
          "name": "status",
          "type": "string"
        },
        {
          "internalType": "string",
          "name": "location",
          "type": "string"
        },
        {
          "internalType": "uint256",
          "name": "timestamp",
          "type": "uint256"
        },
        {
          "internalType": "uint256",
          "name": "nonce",
          "type": "uint256"
        },
        {
          "internalType": "bytes[]",
          "name": "signatures",
          "type": "bytes[]"
        }
      ],
      "name": "processLoanApproval",
      "outputs": [
        {
          "internalType": "uint256",
          "name": "",
          "type": "uint256"
        }
      ],
      "stateMutability": "nonpayable",
      "type": "function"
    },
    {
      "inputs": [
        {
          "internalType": "string",
          "name": "loanId",
          "type": "string"
        },
        {
          "internalType": "uint256",
          "name": "timestamp",
          "type": "uint256"
        },
        {
          "internalType": "uint256",
          "name": "nonce",
          "type": "uint256"
        },
        {
          "internalType": "bytes[]",
          "name": "signatures",
          "type": "bytes[]"
        }
      ],
      "name": "processLoanPaidOff",
      "outputs": [
        {
          "internalType": "bool",
          "name": "",
          "type": "bool"
        }
      ],
      "stateMutability": "nonpayable",
      "type": "function"
    },
    {
      "inputs": [
        {
          "internalType": "string",
          "name": "loanId",
          "type": "string"
        },
        {
          "internalType": "uint256",
          "name": "timestamp",
          "type": "uint256"
        },
        {
          "internalType": "uint256",
          "name": "nonce",
          "type": "uint256"
        },
        {
          "internalType": "bytes[]",
          "name": "signatures",
          "type": "bytes[]"
        }
      ],
      "name": "processLoanUnlocked",
      "outputs": [
        {
          "internalType": "bool",
          "name": "",
          "type": "bool"
        }
      ],
      "stateMutability": "nonpayable",
      "type": "function"
    },
    {
      "inputs": [
        {
          "internalType": "string",
          "name": "loanId",
          "type": "string"
        },
        {
          "internalType": "uint256",
          "name": "newBalance",
          "type": "uint256"
        },
        {
          "internalType": "string",
          "name": "newStatus",
          "type": "string"
        },
        {
          "internalType": "uint256",
          "name": "timestamp",
          "type": "uint256"
        },
        {
          "internalType": "uint256",
          "name": "nonce",
          "type": "uint256"
        },
        {
          "internalType": "bytes[]",
          "name": "signatures",
          "type": "bytes[]"
        }
      ],
      "name": "processMetadataUpdate",
      "outputs": [
        {
          "internalType": "bool",
          "name": "",
          "type": "bool"
        }
      ],
      "stateMutability": "nonpayable",
      "type": "function"
    },
    {
      "inputs": [
        {
          "internalType": "string",
          "name": "loanId",
          "type": "string"
        },
        {
          "internalType": "uint256",
          "name": "amount",
          "type": "uint256"
        },
        {
          "internalType": "uint256",
          "name": "timestamp",
          "type": "uint256"
        },
        {
          "internalType": "uint256",
          "name": "nonce",
          "type": "uint256"
        },
        {
          "internalType": "bytes[]",
          "name": "signatures",
          "type": "bytes[]"
        }
      ],
      "name": "processPayment",
      "outputs": [
        {
          "internalType": "bool",
          "name": "",
          "type": "bool"
        }
      ],
      "stateMutability": "nonpayable",
      "type": "function"
    },
    {
      "inputs": [
        {
          "internalType": "bytes32",
          "name": "",
          "type": "bytes32"
        }
      ],
      "name": "processedMessages",
      "outputs": [
        {
          "internalType": "bool",
          "name": "",
          "type": "bool"
        }
      ],
      "stateMutability": "view",
      "type": "function"
    },
    {
      "inputs": [
        {
          "internalType": "bytes32",
          "name": "messageHash",
          "type": "bytes32"
        },
        {
          "internalType": "bytes",
          "name": "signature",
          "type": "bytes"
        }
      ],
      "name": "recoverSigner",
      "outputs": [
        {
          "internalType": "address",
          "name": "",
          "type": "address"
        }
      ],
      "stateMutability": "pure",
      "type": "function"
    },
    {
      "inputs": [
        {
          "internalType": "address",
          "name": "validator",
          "type": "address"
        }
      ],
      "name": "removeValidator",
      "outputs": [],
      "stateMutability": "nonpayable",
      "type": "function"
    },
    {
      "inputs": [],
      "name": "renounceOwnership",
      "outputs": [],
      "stateMutability": "nonpayable",
      "type": "function"
    },
    {
      "inputs": [],
      "name": "requiredSignatures",
      "outputs": [
        {
          "internalType": "uint256",
          "name": "",
          "type": "uint256"
        }
      ],
      "stateMutability": "view",
      "type": "function"
    },
    {
      "inputs": [
        {
          "internalType": "address",
          "name": "_loanNFT",
          "type": "address"
        }
      ],
      "name": "setLoanNFT",
      "outputs": [],
      "stateMutability": "nonpayable",
      "type": "function"
    },
    {
      "inputs": [
        {
          "internalType": "address",
          "name": "_marketplace",
          "type": "address"
        }
      ],
      "name": "setMarketplace",
      "outputs": [],
      "stateMutability": "nonpayable",
      "type": "function"
    },
    {
      "inputs": [
        {
          "internalType": "address",
          "name": "_distributor",
          "type": "address"
        }
      ],
      "name": "setPaymentDistributor",
      "outputs": [],
      "stateMutability": "nonpayable",
      "type": "function"
    },
    {
      "inputs": [
        {
          "internalType": "uint256",
          "name": "newThreshold",
          "type": "uint256"
        }
      ],
      "name": "setRequiredSignatures",
      "outputs": [],
      "stateMutability": "nonpayable",
      "type": "function"
    },
    {
      "inputs": [
        {
          "internalType": "address",
          "name": "newOwner",
          "type": "address"
        }
      ],
      "name": "transferOwnership",
      "outputs": [],
      "stateMutability": "nonpayable",
      "type": "function"
    },
    {
      "inputs": [
        {
          "internalType": "uint256",
          "name": "",
          "type": "uint256"
        }
      ],
      "name": "validatorList",
      "outputs": [
        {
          "internalType": "address",
          "name": "",
          "type": "address"
        }
      ],
      "stateMutability": "view",
      "type": "function"
    },
    {
      "inputs": [
        {
          "internalType": "address",
          "name": "",
          "type": "address"
        }
      ],
      "name": "validators",
      "outputs": [
        {
          "internalType": "bool",
          "name": "",
          "type": "bool"
        }
      ],
      "stateMutability": "view",
      "type": "function"
    },
    {
      "inputs": [
        {
          "internalType": "bytes32",
          "name": "messageHash",
          "type": "bytes32"
        },
        {
          "internalType": "bytes[]",
          "name": "signatures",
          "type": "bytes[]"
        }
      ],
      "name": "verifyMessage",
      "outputs": [
        {
          "internalType": "bool",
          "name": "",
          "type": "bool"
        }
      ],
      "stateMutability": "view",
      "type": "function"
    }
  ],
  "bytecode": "0x60406080815234620003fc57620025ea803803806200001e8162000417565b92833981019060a081830312620003fc576200003a816200043d565b916020926200004b8484016200043d565b91620000598685016200043d565b606085015190956001600160401b03959091868111620003fc5781019280601f85011215620003fc57835196871162000401576005938760051b908480620000a381850162000417565b809b81520192820101928311620003fc5784809101915b838310620003e1575050505060800151956001600160a01b03938416938415620003c957600080546001600160a01b0319808216881783558b51989097929492849283167f8be0079c531659141344cd1fd0a4f28419497f9722a3daafe3b4186f6b6457e08780a316968715620003955750811696871562000351578051156200031b57881515806200030f575b15620002d75760019998978a978789541617885586600254161760025582995b62000181575b88886006555161216c90816200047e8239f35b80518a1015620002d15781620001988b8362000452565b511615620002995781620001ad8b8362000452565b511683526004998a855260ff8a85205416620002565782620001d0828462000452565b511684528a8552898420805460ff19168917905582620001f1828462000452565b51168654680100000000000000008110156200024357898101808955811015620002305787865286862001805489169091179055870199508662000168565b634e487b7160e01b865260328d52602486fd5b634e487b7160e01b865260418d52602486fd5b895162461bcd60e51b8152808c01869052601360248201527f4475706c69636174652076616c696461746f72000000000000000000000000006044820152606490fd5b885162461bcd60e51b815260048101859052601160248201527024b73b30b634b2103b30b634b230ba37b960791b6044820152606490fd5b6200016e565b895162461bcd60e51b8152600481018590526011602482015270125b9d985b1a59081d1a1c995cda1bdb19607a1b6044820152606490fd5b50805189111562000148565b895162461bcd60e51b815260048101859052600f60248201526e4e6565642076616c696461746f727360881b6044820152606490fd5b895162461bcd60e51b815260048101859052601a60248201527f496e76616c6964205061796d656e744469737472696275746f720000000000006044820152606490fd5b62461bcd60e51b815260048101859052600f60248201526e125b9d985b1a5908131bd85b939195608a1b6044820152606490fd5b8851631e4fbdf760e01b815260006004820152602490fd5b8190620003ee846200043d565b8152019101908490620000ba565b600080fd5b634e487b7160e01b600052604160045260246000fd5b6040519190601f01601f191682016001600160401b038111838210176200040157604052565b51906001600160a01b0382168203620003fc57565b8051821015620004675760209160051b010190565b634e487b7160e01b600052603260045260246000fdfe6080604052600436101561001257600080fd5b60003560e01c80631bd31ef61461020d57806329c5a8761461020857806334a411771461020357806340a141ff146101fe5780634c518bac146101c75780634d238c8e146101f95780635b9579c4146101f4578063715018a6146101ef57806373ad6c2d146101ea5780637d2b9cc0146101e557806385884565146101e057806386b39bce146101db57806388ba16ab146101d65780638d068043146101d15780638da5cb5b146101cc5780638fba1831146101c757806397aba7f9146101c257806397b1a672146101bd5780639f4a7142146101b8578063aad9e185146101b3578063abc8c7af146101ae578063b048e056146101a9578063b7ab4db5146101a4578063bb4c6ace1461019f578063bfabf2da1461019a578063cd3f3c4314610195578063cda6526d14610190578063ecc26aee1461018b578063f2fde38b14610186578063fa52c7d81461017c578063fa668725146101815763facd743b1461017c57600080fd5b6112fa565b611339565b61126a565b6111dc565b6111b3565b6110f6565b611079565b611032565b610f89565b610f40565b610ee1565b610e96565b610e4b565b610c9d565b610c4e565b6107b2565b610c25565b610c07565b61020d565b610bc7565b610b19565b610a72565b610a27565b6109db565b610893565b6107fa565b610661565b61060c565b6103ce565b3461023e57602036600319011261023e576004356000526007602052602060ff604060002054166040519015158152f35b600080fd5b634e487b7160e01b600052604160045260246000fd5b6001600160401b03811161026c57604052565b610243565b601f909101601f19168101906001600160401b0382119082101761026c57604052565b81601f8201121561023e578035906001600160401b03821161026c57604051926102c8601f8401601f191660200185610271565b8284526020838301011161023e57816000926020809301838601378301015290565b6001600160401b03811161026c5760051b60200190565b81601f8201121561023e5780359160209161031b846102ea565b936103296040519586610271565b808552838086019160051b8301019280841161023e57848301915b8483106103545750505050505090565b82356001600160401b03811161023e57869161037584848094890101610294565b815201920191610344565b608060031982011261023e576001600160401b039060043582811161023e57816103ac91600401610294565b92602435926044359260643591821161023e576103cb91600401610301565b90565b3461023e576104896102586104ac61049f61048f6103eb36610380565b9392969161045661045161040e8a60409c958d5192839187602084019485611477565b0391610422601f1993848101835282610271565b519020906104478d51918261043b6020820195866114ae565b03908101835282610271565b5190209687611a6a565b6114dc565b61048361047e61047a610473886000526007602052604060002090565b5460ff1690565b1590565b61151d565b42611587565b10611594565b6000526007602052604060002090565b805460ff19166001179055565b6104bf6104ba600154610600565b610600565b82516319eba01560e31b815291602083806104dd8460048301611606565b0381855afa9283156105bf576000936105c4575b506104fd831515611623565b813b1561023e57600084518093633fc2686960e21b825281838161054e896004830160a0918152600060208201526060604082015260086060820152672830b4b21027b33360c11b60808201520190565b03925af19182156105bf57610568926105a6575b50611664565b82514281527fb65f2e46565c3b8eabc8703933629b049d8ab239125e0c4dde27854a9d0d77bf9080602081015b0390a35160018152602090f35b0390f35b806105b36105b992610259565b806105f5565b38610562565b611617565b6105e791935060203d6020116105ee575b6105df8183610271565b8101906115d2565b91386104f1565b503d6105d5565b600091031261023e57565b6001600160a01b031690565b3461023e57600036600319011261023e576001546040516001600160a01b039091168152602090f35b600435906001600160a01b038216820361023e57565b602435906001600160a01b038216820361023e57565b3461023e57602036600319011261023e5761067a610635565b6106826120d3565b6001600160a01b038181166000818152600460205260409020549192916106ab9060ff16611684565b6106db6106d16005936106cc6106c2600554611573565b60065411156116c2565b6112e0565b805460ff19169055565b60005b82548082101561076757828561070b6106f685610f20565b905460039190911b1c6001600160a01b031690565b161461071a57506001016106de565b61075f945061073b91935061074192506107366106f691611573565b610f20565b91610f20565b90919060018060a01b038084549260031b9316831b921b1916179055565b610767611706565b005b60005b83811061077c5750506000910152565b818101518382015260200161076c565b60206107a5918160405193828580945193849201610769565b8101600881520301902090565b3461023e57602036600319011261023e576004356001600160401b03811161023e5760ff6107ee6107e96020933690600401610294565b61078c565b54166040519015158152f35b3461023e57602036600319011261023e57610813610635565b61081b6120d3565b6001600160a01b03811661083081151561175e565b600052600460205260ff6040600020541661085a578061085561049f610767936112e0565b61179c565b60405162461bcd60e51b815260206004820152601160248201527020b63932b0b23c903b30b634b230ba37b960791b6044820152606490fd5b3461023e576104896102586108d361049f61048f6108b036610380565b9392969161045661045161040e8a60409c958d51928391876020840194856117ee565b6108e16104ba600154610600565b82516319eba01560e31b815291602083806108ff8460048301611606565b0381855afa9283156105bf576000936109ba575b5061091f831515611623565b813b1561023e57600084518093633fc2686960e21b8252818381610970896004830160a091815260006020820152606060408201526008606082015267155b9b1bd8dad95960c21b60808201520190565b03925af19182156105bf57610989926105a65750611664565b82514281527fd69a3b593b29f590f1e4f80795d05399d49b300394d7b48eedc449026cb216f4908060208101610595565b6109d491935060203d6020116105ee576105df8183610271565b9138610913565b3461023e57600080600319360112610a24576109f56120d3565b80546001600160a01b03198116825581906001600160a01b03166000805160206121208339815191528280a380f35b80fd5b3461023e57602036600319011261023e57610a40610635565b610a486120d3565b6001600160a01b0316610a5c81151561175e565b600380546001600160a01b031916919091179055005b3461023e57602036600319011261023e57600435610a8e6120d3565b8015610adc576005548111610aa257600655005b60405162461bcd60e51b81526020600482015260126024820152710a8d0e4cae6d0ded8c840e8dede40d0d2ced60731b6044820152606490fd5b60405162461bcd60e51b815260206004820152601560248201527405468726573686f6c64206d757374206265203e203605c1b6044820152606490fd5b3461023e57610bbb61049f6104516107e961049f61045661048f610258610489610b4236610380565b969192809a91610b95606860405180936020820195671054141493d5915160c21b8752610b79815180926020602887019101610769565b8201908960288301526048820152036048810184520182610271565b51902060405161044781610bad6020820194856114ae565b03601f198101835282610271565b60405160018152602090f35b3461023e576104896102586108d361049f61048f610be436610380565b9392969161045661045161040e8a60409c958d5192839187602084019485611815565b3461023e57600036600319011261023e576020600654604051908152f35b3461023e57600036600319011261023e576000546040516001600160a01b039091168152602090f35b3461023e57604036600319011261023e576024356001600160401b03811161023e57610c8b610c836020923690600401610294565b6004356118ae565b6040516001600160a01b039091168152f35b3461023e5760a036600319011261023e576001600160401b0360043581811161023e57610cce903690600401610294565b6024359160443560843591821161023e5761049f610d4f9161048f610258610489610cfe89973690600401610301565b936104566104518a610d2661044760409e8f9384519384918960208401946064359286611994565b0392610d3a601f1994858101835282610271565b5190209251918261043b6020820195866114ae565b610d5d6104ba600154610600565b916020845180946319eba01560e31b82528180610d7d8660048301611606565b03915afa9283156105bf57600093610e2a575b50610d9c831515611623565b610daa6104ba600254610600565b803b1561023e578451631fde780560e01b81526004810185905260248101849052906000908290604490829084905af180156105bf577f5f6b374a1ee52061eaf49a202db87a381913e45bf87161d06b46a0974afaff879261059592610e14926105a65750611664565b8551938452426020850152929081906040820190565b610e4491935060203d6020116105ee576105df8183610271565b9138610d90565b3461023e57602036600319011261023e57610e64610635565b610e6c6120d3565b6001600160a01b0316610e8081151561175e565b600180546001600160a01b031916919091179055005b3461023e57602036600319011261023e57610eaf610635565b610eb76120d3565b6001600160a01b0316610ecb81151561175e565b600280546001600160a01b031916919091179055005b3461023e57600036600319011261023e576003546040516001600160a01b039091168152602090f35b634e487b7160e01b600052603260045260246000fd5b600554811015610f3b57600560005260206000200190600090565b610f0a565b3461023e57602036600319011261023e5760043560055481101561023e57600560005260008051602061210083398151915201546040516001600160a01b039091168152602090f35b3461023e57600080600319360112610a2457604051809160055490818352602080930180926005835284832090835b8181106110155750505084610fce910385610271565b60405193838594850191818652518092526040850193925b828110610ff557505050500390f35b83516001600160a01b031685528695509381019392810192600101610fe6565b82546001600160a01b031684529286019260019283019201610fb8565b3461023e57604036600319011261023e576024356001600160401b03811161023e5761106f6110676020923690600401610301565b600435611a6a565b6040519015158152f35b3461023e57610bbb6106d16104516107e961049f61045661048f6102586104896110a236610380565b969192809a91610b956069604051809360208201956810d05390d15313115160ba1b87526110da815180926020602987019101610769565b8201908960298301526049820152036049810184520182610271565b3461023e5761016036600319011261023e576001600160401b0360043581811161023e57611128903690600401610294565b9061113161064b565b60c43582811161023e57611149903690600401610294565b9060e43583811161023e57611162903690600401610294565b936101443593841161023e576105a2946111836111a3953690600401610301565b936101243593610104359360a43591608435916064359160443591611cab565b6040519081529081906020820190565b3461023e57600036600319011261023e576002546040516001600160a01b039091168152602090f35b3461023e5760c036600319011261023e576001600160401b0360043581811161023e5761120d903690600401610294565b9060443581811161023e57611226903690600401610294565b9160a43591821161023e576105a292611246611258933690600401610301565b91608435916064359160243590611f1c565b60405190151581529081906020820190565b3461023e57602036600319011261023e57611283610635565b61128b6120d3565b6001600160a01b0390811680156112c757600080546001600160a01b03198116831782559092166000805160206121208339815191528380a380f35b604051631e4fbdf760e01b815260006004820152602490fd5b6001600160a01b0316600090815260046020526040902090565b3461023e57602036600319011261023e576001600160a01b0361131b610635565b166000526004602052602060ff604060002054166040519015158152f35b3461023e5761048961025861137961049f61048f61135636610380565b9392969161045661045161040e8a60409c958d5192839187602084019485612062565b6113876104ba600154610600565b82516319eba01560e31b815291602083806113a58460048301611606565b0381855afa9283156105bf57600093611456575b506113c5831515612095565b813b1561023e576000845180936394cf1fb160e01b82528183816113ec8760048301611606565b03925af19182156105bf5761141292611443575b5061140d6106d18261078c565b611664565b82514281527fda9bed044096bb6e5507a7cf22eccbcc0df5e33825b2098e364bb7db781c805e908060208101610595565b806105b361145092610259565b38611400565b61147091935060203d6020116105ee576105df8183610271565b91386113b9565b9060489391672820a4a22fa7a32360c11b815261149e825180936020600885019101610769565b0191600883015260288201520190565b603c917b0ca2ba3432b932bab69029b4b3b732b21026b2b9b9b0b3b29d05199960211b8252601c8201520190565b156114e357565b60405162461bcd60e51b8152602060048201526012602482015271496e76616c6964207369676e61747572657360701b6044820152606490fd5b1561152457565b60405162461bcd60e51b8152602060048201526011602482015270105b1c9958591e481c1c9bd8d95cdcd959607a1b6044820152606490fd5b634e487b7160e01b600052601160045260246000fd5b60001981019190821161158257565b61155d565b9190820391821161158257565b1561159b57565b60405162461bcd60e51b815260206004820152600f60248201526e13595cdcd859d9481d1bdbc81bdb19608a1b6044820152606490fd5b9081602091031261023e575190565b906020916115fa81518092818552858086019101610769565b601f01601f1916010190565b9060206103cb9281815201906115e1565b6040513d6000823e3d90fd5b1561162a57565b60405162461bcd60e51b8152602060048201526012602482015271131bd85b881b9bdd081d1bdad95b9a5e995960721b6044820152606490fd5b61167c90602060405192828480945193849201610769565b810103902090565b1561168b57565b60405162461bcd60e51b815260206004820152600f60248201526e2737ba1030903b30b634b230ba37b960891b6044820152606490fd5b156116c957565b60405162461bcd60e51b815260206004820152601560248201527415dbdd5b1908189c99585ac81d1a1c995cda1bdb19605a1b6044820152606490fd5b6005548015611748576000198181019180831015610f3b576005600081905291016000805160206121008339815191520180546001600160a01b031916905555565b634e487b7160e01b600052603160045260246000fd5b1561176557565b60405162461bcd60e51b815260206004820152600f60248201526e496e76616c6964206164647265737360881b6044820152606490fd5b600554600160401b81101561026c576001810180600555811015610f3b5760056000526000805160206121008339815191520180546001600160a01b0319166001600160a01b03909216919091179055565b90604893916715539313d0d2d15160c21b815261149e825180936020600885019101610769565b90605093916f454d455247454e43595f554e4c4f434b60801b8152611844825180936020601085019101610769565b0191601083015260308201520190565b60ff601b9116019060ff821161158257565b1561186d57565b60405162461bcd60e51b8152602060048201526019602482015278496e76616c6964207369676e617475726520762076616c756560381b6044820152606490fd5b6041825103611954576020916000918291848101519260606040830151920151901a92601b841061193d575b9061191e916118f860ff8616601b8114908115611932575b50611866565b604051948594859094939260ff6060936080840197845216602083015260408201520152565b838052039060015afa156105bf5760005190565b601c915014386118f2565b929061194b61191e92611854565b939091506118da565b60405162461bcd60e51b8152602060048201526018602482015277092dcecc2d8d2c840e6d2cedcc2e8eae4ca40d8cadccee8d60431b6044820152606490fd5b90606794929391661410565351539560ca1b81526119bc825180936020600785019101610769565b01926007840152602783015260478201520190565b156119d857565b60405162461bcd60e51b81526020600482015260156024820152744e6f7420656e6f756768207369676e61747572657360581b6044820152606490fd5b90611a1f826102ea565b611a2c6040519182610271565b8281528092611a3d601f19916102ea565b0190602036910137565b8051821015610f3b5760209160051b010190565b60001981146115825760010190565b9190805191611a7e600654809410156119d1565b611a888251611a15565b91600091825b8251811015611b5757611aab611aa48285611a47565b51886118ae565b611aba61047a610473836112e0565b611b4e5760006001600160a01b038216815b878110611b17575b505015611ae7575b506001905b01611a8e565b84611b0b611b1092611afc600195988a611a47565b6001600160a01b039091169052565b611a5b565b9390611adc565b81611b356104ba611b28848d611a47565b516001600160a01b031690565b14611b4257600101611acc565b50505060013880611ad4565b50600190611ae1565b509450509050101590565b9060d89a9897969492959391631352539560e21b8152611b8c825180936020600485019101610769565b019460018060601b03199060601b1660048601526018850152603884015260588301526078820152611bc8825180936020609885019101610769565b01611bdd825180936020609885019101610769565b0191609883015260b88201520190565b15611bf457565b60405162461bcd60e51b815260206004820152602a60248201527f4c6f616e206e6f7420617070726f766564206f72207761732063616e63656c6c604482015269656420696e204265737560b01b6064820152608490fd5b9692936103cb98969294611c6c611c9d9793610100808c528b01906115e1565b6001600160a01b0390961660208a015260408901526060880152608087015260a086015284820360c08601526115e1565b9160e08184039101526115e1565b9691939961049f611d3b91611d276102586104898f9d879f8c9f8f60209f9a908d9f918f92611d679f958f8f908991611cf894610451996104569b6040519a6020998c9a8b019b8c611b62565b0391611d0c601f1993848101835282610271565b5190209061044760405191602061043b8491820195866114ae565b61048f611d366104738c61078c565b611bed565b611d496104ba600154610600565b976040519a8b96879663e7754d1160e01b88528c8b60048a01611c4c565b0381600080965af19384156105bf578294611e8b575b50908391611d8c600354610600565b6001600160a01b039290838116611e00575b5050611dee8184611dbd60008051602061214083398151915294611664565b6040514281527ff09996b9b0eb4e6c1e6f21b808fb119c4169312f15e667f35b9900530712a53b90602090a3611664565b6040514281529490921693602090a490565b90919350611e126104ba600154610600565b90813b15611e8757604051637282294360e11b8152600481018890526001600160a01b0391909116602482015291908290604490829084905af180156105bf57859360008051602061214083398151915292611dee92611e74575b5091611d9e565b806105b3611e8192610259565b38611e6d565b8280fd5b611ea69192945060203d6020116105ee576105df8183610271565b929038611d7d565b906066959392916555504441544560d01b8152611ed5825180936020600685019101610769565b01906006820152611ef0825180936020602685019101610769565b0191602683015260468201520190565b6103cb93926060928252602082015281604082015201906115e1565b929461048f6102586104898598610456610451611f7d988a89611f4f61049f9b9e87604051958694602086019687611eae565b0391611f63601f1993848101835282610271565b51902090610447604051918261043b6020820195866114ae565b611f8b6104ba600154610600565b91604051936319eba01560e31b855260208580611fab8660048301611606565b0381875afa9485156105bf57600095612041575b50611fcb851515611623565b833b1561023e57611ff79360009283604051809781958294633fc2686960e21b84528b60048501611f00565b03925af19182156105bf57612010926105a65750611664565b6040514281527fff1488042f54db04cb79ce08410ecdcbead34276b0e11b2ccb7074918799146390602090a3600190565b61205b91955060203d6020116105ee576105df8183610271565b9338611fbf565b906044939163212aa92760e11b8152612085825180936020600485019101610769565b0191600483015260248201520190565b1561209c57565b60405162461bcd60e51b815260206004820152600f60248201526e131bd85b881b9bdd081b5a5b9d1959608a1b6044820152606490fd5b6000546001600160a01b031633036120e757565b60405163118cdaa760e01b8152336004820152602490fdfe036b6384b5eca791c62761152d0c79bb0604c104a5fb6f4eb0703f3154bb3db08be0079c531659141344cd1fd0a4f28419497f9722a3daafe3b4186f6b6457e0dca3630c28a9da1477fb823057d822d0e3ddb8834c928726d348e8fb3544a647a164736f6c6343000818000a",
  "linkReferences": {},
  "deployedLinkReferences": {}
}