{
  "_format": "hh-sol-artifact-1",
  "contractName": "BridgeReceiver",
  "sourceName": "src/avalanche/BridgeReceiver.sol",
  "abi": [
    {
      "inputs": [
        {
          "internalType": "address",
          "name": "initialOwner",
          "type": "address"
        },
        {
          "internalType": "address",
          "name": "_loanNFT",
          "type": "address"
        },
        {
          "internalType": "address",
          "name": "_paymentDistributor",
          "type": "address"
        },
        {
          "internalType": "address[]",
          "name": "_initialValidators",
          "type": "address[]"
        },
        {
          "internalType": "uint256",
          "name": "_requiredSignatures",
          "type": "uint256"
        }
      ],
      "stateMutability": "nonpayable",
      "type": "constructor"
    },
    {
      "inputs": [
        {
          "internalType": "address",
          "name": "owner",
          "type": "address"
        }
      ],
      "name": "OwnableInvalidOwner",
      "type": "error"
    },
    {
      "inputs": [
        {
          "internalType": "address",
          "name": "account",
          "type": "address"
        }
      ],
      "name": "OwnableUnauthorizedAccount",
      "type": "error"
    },
    {
      "anonymous": false,
      "inputs": [
        {
          "indexed": true,
          "internalType": "string",
          "name": "loanId",
          "type": "string"
        },
        {
          "indexed": true,
          "internalType": "uint256",
          "name": "tokenId",
          "type": "uint256"
        },
        {
          "indexed": true,
          "internalType": "address",
          "name": "lender",
          "type": "address"
        },
        {
          "indexed": false,
          "internalType": "uint256",
          "name": "timestamp",
          "type": "uint256"
        }
      ],
      "name": "LoanMinted",
      "type": "event"
    },
    {
      "anonymous": false,
      "inputs": [
        {
          "indexed": true,
          "internalType": "string",
          "name": "loanId",
          "type": "string"
        },
        {
          "indexed": true,
          "internalType": "uint256",
          "name": "tokenId",
          "type": "uint256"
        },
        {
          "indexed": false,
          "internalType": "uint256",
          "name": "timestamp",
          "type": "uint256"
        }
      ],
      "name": "LoanNFTBurned",
      "type": "event"
    },
    {
      "anonymous": false,
      "inputs": [
        {
          "indexed": true,
          "internalType": "string",
          "name": "loanId",
          "type": "string"
        },
        {
          "indexed": true,
          "internalType": "uint256",
          "name": "tokenId",
          "type": "uint256"
        },
        {
          "indexed": false,
          "internalType": "uint256",
          "name": "timestamp",
          "type": "uint256"
        }
      ],
      "name": "LoanPaidOff",
      "type": "event"
    },
    {
      "anonymous": false,
      "inputs": [
        {
          "indexed": true,
          "internalType": "string",
          "name": "loanId",
          "type": "string"
        },
        {
          "indexed": true,
          "internalType": "uint256",
          "name": "tokenId",
          "type": "uint256"
        },
        {
          "indexed": false,
          "internalType": "uint256",
          "name": "timestamp",
          "type": "uint256"
        }
      ],
      "name": "LoanUnlocked",
      "type": "event"
    },
    {
      "anonymous": false,
      "inputs": [
        {
          "indexed": true,
          "internalType": "string",
          "name": "loanId",
          "type": "string"
        },
        {
          "indexed": true,
          "internalType": "uint256",
          "name": "tokenId",
          "type": "uint256"
        },
        {
          "indexed": false,
          "internalType": "uint256",
          "name": "timestamp",
          "type": "uint256"
        }
      ],
      "name": "MetadataUpdated",
      "type": "event"
    },
    {
      "anonymous": false,
      "inputs": [
        {
          "indexed": true,
          "internalType": "address",
          "name": "previousOwner",
          "type": "address"
        },
        {
          "indexed": true,
          "internalType": "address",
          "name": "newOwner",
          "type": "address"
        }
      ],
      "name": "OwnershipTransferred",
      "type": "event"
    },
    {
      "anonymous": false,
      "inputs": [
        {
          "indexed": true,
          "internalType": "string",
          "name": "loanId",
          "type": "string"
        },
        {
          "indexed": true,
          "internalType": "uint256",
          "name": "tokenId",
          "type": "uint256"
        },
        {
          "indexed": false,
          "internalType": "uint256",
          "name": "amount",
          "type": "uint256"
        },
        {
          "indexed": false,
          "internalType": "uint256",
          "name": "timestamp",
          "type": "uint256"
        }
      ],
      "name": "PaymentProcessed",
      "type": "event"
    },
    {
      "anonymous": false,
      "inputs": [
        {
          "indexed": true,
          "internalType": "string",
          "name": "loanId",
          "type": "string"
        },
        {
          "indexed": true,
          "internalType": "uint256",
          "name": "tokenId",
          "type": "uint256"
        },
        {
          "indexed": false,
          "internalType": "uint256",
          "name": "timestamp",
          "type": "uint256"
        }
      ],
      "name": "TokenIdNeedsSyncToBesu",
      "type": "event"
    },
    {
      "inputs": [
        {
          "internalType": "address",
          "name": "validator",
          "type": "address"
        }
      ],
      "name": "addValidator",
      "outputs": [],
      "stateMutability": "nonpayable",
      "type": "function"
    },
    {
      "inputs": [
        {
          "internalType": "string",
          "name": "",
          "type": "string"
        }
      ],
      "name": "approvedInBesu",
      "outputs": [
        {
          "internalType": "bool",
          "name": "",
          "type": "bool"
        }
      ],
      "stateMutability": "view",
      "type": "function"
    },
    {
      "inputs": [],
      "name": "getValidators",
      "outputs": [
        {
          "internalType": "address[]",
          "name": "",
          "type": "address[]"
        }
      ],
      "stateMutability": "view",
      "type": "function"
    },
    {
      "inputs": [
        {
          "internalType": "string",
          "name": "loanId",
          "type": "string"
        }
      ],
      "name": "isLoanApprovedInBesu",
      "outputs": [
        {
          "internalType": "bool",
          "name": "",
          "type": "bool"
        }
      ],
      "stateMutability": "view",
      "type": "function"
    },
    {
      "inputs": [
        {
          "internalType": "bytes32",
          "name": "messageHash",
          "type": "bytes32"
        }
      ],
      "name": "isMessageProcessed",
      "outputs": [
        {
          "internalType": "bool",
          "name": "",
          "type": "bool"
        }
      ],
      "stateMutability": "view",
      "type": "function"
    },
    {
      "inputs": [
        {
          "internalType": "address",
          "name": "addr",
          "type": "address"
        }
      ],
      "name": "isValidator",
      "outputs": [
        {
          "internalType": "bool",
          "name": "",
          "type": "bool"
        }
      ],
      "stateMutability": "view",
      "type": "function"
    },
    {
      "inputs": [],
      "name": "loanNFT",
      "outputs": [
        {
          "internalType": "contract ILoanNFT",
          "name": "",
          "type": "address"
        }
      ],
      "stateMutability": "view",
      "type": "function"
    },
    {
      "inputs": [
        {
          "internalType": "string",
          "name": "loanId",
          "type": "string"
        },
        {
          "internalType": "uint256",
          "name": "timestamp",
          "type": "uint256"
        },
        {
          "internalType": "uint256",
          "name": "nonce",
          "type": "uint256"
        },
        {
          "internalType": "bytes[]",
          "name": "signatures",
          "type": "bytes[]"
        }
      ],
      "name": "markLoanApprovedInBesu",
      "outputs": [
        {
          "internalType": "bool",
          "name": "",
          "type": "bool"
        }
      ],
      "stateMutability": "nonpayable",
      "type": "function"
    },
    {
      "inputs": [
        {
          "internalType": "string",
          "name": "loanId",
          "type": "string"
        },
        {
          "internalType": "uint256",
          "name": "timestamp",
          "type": "uint256"
        },
        {
          "internalType": "uint256",
          "name": "nonce",
          "type": "uint256"
        },
        {
          "internalType": "bytes[]",
          "name": "signatures",
          "type": "bytes[]"
        }
      ],
      "name": "markLoanCancelledInBesu",
      "outputs": [
        {
          "internalType": "bool",
          "name": "",
          "type": "bool"
        }
      ],
      "stateMutability": "nonpayable",
      "type": "function"
    },
    {
      "inputs": [],
      "name": "owner",
      "outputs": [
        {
          "internalType": "address",
          "name": "",
          "type": "address"
        }
      ],
      "stateMutability": "view",
      "type": "function"
    },
    {
      "inputs": [],
      "name": "paymentDistributor",
      "outputs": [
        {
          "internalType": "contract IPaymentDistributor",
          "name": "",
          "type": "address"
        }
      ],
      "stateMutability": "view",
      "type": "function"
    },
    {
      "inputs": [
        {
          "internalType": "string",
          "name": "loanId",
          "type": "string"
        },
        {
          "internalType": "uint256",
          "name": "timestamp",
          "type": "uint256"
        },
        {
          "internalType": "uint256",
          "name": "nonce",
          "type": "uint256"
        },
        {
          "internalType": "bytes[]",
          "name": "signatures",
          "type": "bytes[]"
        }
      ],
      "name": "processBurnRequest",
      "outputs": [
        {
          "internalType": "bool",
          "name": "",
          "type": "bool"
        }
      ],
      "stateMutability": "nonpayable",
      "type": "function"
    },
    {
      "inputs": [
        {
          "internalType": "string",
          "name": "loanId",
          "type": "string"
        },
        {
          "internalType": "uint256",
          "name": "timestamp",
          "type": "uint256"
        },
        {
          "internalType": "uint256",
          "name": "nonce",
          "type": "uint256"
        },
        {
          "internalType": "bytes[]",
          "name": "signatures",
          "type": "bytes[]"
        }
      ],
      "name": "processEmergencyUnlock",
      "outputs": [
        {
          "internalType": "bool",
          "name": "",
          "type": "bool"
        }
      ],
      "stateMutability": "nonpayable",
      "type": "function"
    },
    {
      "inputs": [
        {
          "internalType": "string",
          "name": "loanId",
          "type": "string"
        },
        {
          "internalType": "address",
          "name": "lenderAddress",
          "type": "address"
        },
        {
          "internalType": "uint256",
          "name": "originalBalance",
          "type": "uint256"
        },
        {
          "internalType": "uint256",
          "name": "currentBalance",
          "type": "uint256"
        },
        {
          "internalType": "uint256",
          "name": "noteRate",
          "type": "uint256"
        },
        {
          "internalType": "uint256",
          "name": "lenderOwnerPct",
          "type": "uint256"
        },
        {
          "internalType": "string",
          "name": "status",
          "type": "string"
        },
        {
          "internalType": "string",
          "name": "location",
          "type": "string"
        },
        {
          "internalType": "uint256",
          "name": "timestamp",
          "type": "uint256"
        },
        {
          "internalType": "uint256",
          "name": "nonce",
          "type": "uint256"
        },
        {
          "internalType": "bytes[]",
          "name": "signatures",
          "type": "bytes[]"
        }
      ],
      "name": "processLoanApproval",
      "outputs": [
        {
          "internalType": "uint256",
          "name": "",
          "type": "uint256"
        }
      ],
      "stateMutability": "nonpayable",
      "type": "function"
    },
    {
      "inputs": [
        {
          "internalType": "string",
          "name": "loanId",
          "type": "string"
        },
        {
          "internalType": "uint256",
          "name": "timestamp",
          "type": "uint256"
        },
        {
          "internalType": "uint256",
          "name": "nonce",
          "type": "uint256"
        },
        {
          "internalType": "bytes[]",
          "name": "signatures",
          "type": "bytes[]"
        }
      ],
      "name": "processLoanPaidOff",
      "outputs": [
        {
          "internalType": "bool",
          "name": "",
          "type": "bool"
        }
      ],
      "stateMutability": "nonpayable",
      "type": "function"
    },
    {
      "inputs": [
        {
          "internalType": "string",
          "name": "loanId",
          "type": "string"
        },
        {
          "internalType": "uint256",
          "name": "timestamp",
          "type": "uint256"
        },
        {
          "internalType": "uint256",
          "name": "nonce",
          "type": "uint256"
        },
        {
          "internalType": "bytes[]",
          "name": "signatures",
          "type": "bytes[]"
        }
      ],
      "name": "processLoanUnlocked",
      "outputs": [
        {
          "internalType": "bool",
          "name": "",
          "type": "bool"
        }
      ],
      "stateMutability": "nonpayable",
      "type": "function"
    },
    {
      "inputs": [
        {
          "internalType": "string",
          "name": "loanId",
          "type": "string"
        },
        {
          "internalType": "uint256",
          "name": "newBalance",
          "type": "uint256"
        },
        {
          "internalType": "string",
          "name": "newStatus",
          "type": "string"
        },
        {
          "internalType": "uint256",
          "name": "timestamp",
          "type": "uint256"
        },
        {
          "internalType": "uint256",
          "name": "nonce",
          "type": "uint256"
        },
        {
          "internalType": "bytes[]",
          "name": "signatures",
          "type": "bytes[]"
        }
      ],
      "name": "processMetadataUpdate",
      "outputs": [
        {
          "internalType": "bool",
          "name": "",
          "type": "bool"
        }
      ],
      "stateMutability": "nonpayable",
      "type": "function"
    },
    {
      "inputs": [
        {
          "internalType": "string",
          "name": "loanId",
          "type": "string"
        },
        {
          "internalType": "uint256",
          "name": "amount",
          "type": "uint256"
        },
        {
          "internalType": "uint256",
          "name": "timestamp",
          "type": "uint256"
        },
        {
          "internalType": "uint256",
          "name": "nonce",
          "type": "uint256"
        },
        {
          "internalType": "bytes[]",
          "name": "signatures",
          "type": "bytes[]"
        }
      ],
      "name": "processPayment",
      "outputs": [
        {
          "internalType": "bool",
          "name": "",
          "type": "bool"
        }
      ],
      "stateMutability": "nonpayable",
      "type": "function"
    },
    {
      "inputs": [
        {
          "internalType": "bytes32",
          "name": "",
          "type": "bytes32"
        }
      ],
      "name": "processedMessages",
      "outputs": [
        {
          "internalType": "bool",
          "name": "",
          "type": "bool"
        }
      ],
      "stateMutability": "view",
      "type": "function"
    },
    {
      "inputs": [
        {
          "internalType": "bytes32",
          "name": "messageHash",
          "type": "bytes32"
        },
        {
          "internalType": "bytes",
          "name": "signature",
          "type": "bytes"
        }
      ],
      "name": "recoverSigner",
      "outputs": [
        {
          "internalType": "address",
          "name": "",
          "type": "address"
        }
      ],
      "stateMutability": "pure",
      "type": "function"
    },
    {
      "inputs": [
        {
          "internalType": "address",
          "name": "validator",
          "type": "address"
        }
      ],
      "name": "removeValidator",
      "outputs": [],
      "stateMutability": "nonpayable",
      "type": "function"
    },
    {
      "inputs": [],
      "name": "renounceOwnership",
      "outputs": [],
      "stateMutability": "nonpayable",
      "type": "function"
    },
    {
      "inputs": [],
      "name": "requiredSignatures",
      "outputs": [
        {
          "internalType": "uint256",
          "name": "",
          "type": "uint256"
        }
      ],
      "stateMutability": "view",
      "type": "function"
    },
    {
      "inputs": [
        {
          "internalType": "address",
          "name": "_loanNFT",
          "type": "address"
        }
      ],
      "name": "setLoanNFT",
      "outputs": [],
      "stateMutability": "nonpayable",
      "type": "function"
    },
    {
      "inputs": [
        {
          "internalType": "address",
          "name": "_distributor",
          "type": "address"
        }
      ],
      "name": "setPaymentDistributor",
      "outputs": [],
      "stateMutability": "nonpayable",
      "type": "function"
    },
    {
      "inputs": [
        {
          "internalType": "uint256",
          "name": "newThreshold",
          "type": "uint256"
        }
      ],
      "name": "setRequiredSignatures",
      "outputs": [],
      "stateMutability": "nonpayable",
      "type": "function"
    },
    {
      "inputs": [
        {
          "internalType": "address",
          "name": "newOwner",
          "type": "address"
        }
      ],
      "name": "transferOwnership",
      "outputs": [],
      "stateMutability": "nonpayable",
      "type": "function"
    },
    {
      "inputs": [
        {
          "internalType": "uint256",
          "name": "",
          "type": "uint256"
        }
      ],
      "name": "validatorList",
      "outputs": [
        {
          "internalType": "address",
          "name": "",
          "type": "address"
        }
      ],
      "stateMutability": "view",
      "type": "function"
    },
    {
      "inputs": [
        {
          "internalType": "address",
          "name": "",
          "type": "address"
        }
      ],
      "name": "validators",
      "outputs": [
        {
          "internalType": "bool",
          "name": "",
          "type": "bool"
        }
      ],
      "stateMutability": "view",
      "type": "function"
    },
    {
      "inputs": [
        {
          "internalType": "bytes32",
          "name": "messageHash",
          "type": "bytes32"
        },
        {
          "internalType": "bytes[]",
          "name": "signatures",
          "type": "bytes[]"
        }
      ],
      "name": "verifyMessage",
      "outputs": [
        {
          "internalType": "bool",
          "name": "",
          "type": "bool"
        }
      ],
      "stateMutability": "view",
      "type": "function"
    }
  ],
  "bytecode": "0x60406080815234620003fc57620024a5803803806200001e8162000417565b928339810160a082820312620003fc5762000039826200043d565b602090620000498285016200043d565b91620000578686016200043d565b606086015190956001600160401b03959091868111620003fc57820181601f82011215620003fc57805196871162000401578660051b9084806200009d81850162000417565b809a81520192820101928311620003fc5784809101915b838310620003e1575050505060800151946001600160a01b03928316928315620003c957600080546001600160a01b0319808216871783558a51979096929492849283167f8be0079c531659141344cd1fd0a4f28419497f9722a3daafe3b4186f6b6457e08780a316958615620003955750811695861562000351578051156200031b57871515806200030f575b15620002d757600198979689968688541617875585600254161760025582985b6200017b575b87876005555161202790816200047e8239f35b8051891015620002d15781620001928a8362000452565b511615620002995781620001a78a8362000452565b51168352600380855260ff8985205416620002555782620001c98b8462000452565b511684528452878320805460ff19168717905581620001e98a8362000452565b5116986004998a54680100000000000000008110156200024257888101808d558110156200022f579a8552858520909a0180548716909a17909955978501978562000162565b634e487b7160e01b865260328c52602486fd5b634e487b7160e01b865260418c52602486fd5b885162461bcd60e51b815260048101869052601360248201527f4475706c69636174652076616c696461746f72000000000000000000000000006044820152606490fd5b875162461bcd60e51b815260048101859052601160248201527024b73b30b634b2103b30b634b230ba37b960791b6044820152606490fd5b62000168565b885162461bcd60e51b8152600481018590526011602482015270125b9d985b1a59081d1a1c995cda1bdb19607a1b6044820152606490fd5b50805188111562000142565b885162461bcd60e51b815260048101859052600f60248201526e4e6565642076616c696461746f727360881b6044820152606490fd5b885162461bcd60e51b815260048101859052601a60248201527f496e76616c6964205061796d656e744469737472696275746f720000000000006044820152606490fd5b62461bcd60e51b815260048101859052600f60248201526e125b9d985b1a5908131bd85b939195608a1b6044820152606490fd5b8751631e4fbdf760e01b815260006004820152602490fd5b8190620003ee846200043d565b8152019101908490620000b4565b600080fd5b634e487b7160e01b600052604160045260246000fd5b6040519190601f01601f191682016001600160401b038111838210176200040157604052565b51906001600160a01b0382168203620003fc57565b8051821015620004675760209160051b010190565b634e487b7160e01b600052603260045260246000fdfe6080604052600436101561001257600080fd5b60003560e01c80631bd31ef6146101ed57806329c5a876146101e857806334a41177146101e357806340a141ff146101de5780634c518bac146101ac5780634d238c8e146101d95780635b9579c4146101d4578063715018a6146101cf5780637d2b9cc0146101ca57806385884565146101c557806386b39bce146101c057806388ba16ab146101bb5780638d068043146101b65780638da5cb5b146101b15780638fba1831146101ac57806397aba7f9146101a757806397b1a672146101a25780639f4a71421461019d578063aad9e18514610198578063b048e05614610193578063b7ab4db51461018e578063bb4c6ace14610189578063bfabf2da14610184578063cd3f3c431461017f578063cda6526d1461017a578063ecc26aee14610175578063f2fde38b14610170578063fa52c7d814610166578063fa6687251461016b5763facd743b1461016657600080fd5b611266565b6112a5565b6111d6565b611148565b61111f565b611062565b610fe5565b610f9e565b610ef5565b610eac565b610e2b565b610de0565b610c32565b610be3565b610792565b610bba565b610b9c565b6101ed565b610b5c565b610aae565b610a07565b6109bb565b610873565b6107da565b610641565b6105ec565b6103ae565b3461021e57602036600319011261021e576004356000526006602052602060ff604060002054166040519015158152f35b600080fd5b634e487b7160e01b600052604160045260246000fd5b6001600160401b03811161024c57604052565b610223565b601f909101601f19168101906001600160401b0382119082101761024c57604052565b81601f8201121561021e578035906001600160401b03821161024c57604051926102a8601f8401601f191660200185610251565b8284526020838301011161021e57816000926020809301838601378301015290565b6001600160401b03811161024c5760051b60200190565b81601f8201121561021e578035916020916102fb846102ca565b936103096040519586610251565b808552838086019160051b8301019280841161021e57848301915b8483106103345750505050505090565b82356001600160401b03811161021e57869161035584848094890101610274565b815201920191610324565b608060031982011261021e576001600160401b039060043582811161021e578161038c91600401610274565b92602435926044359260643591821161021e576103ab916004016102e1565b90565b3461021e5761046961025861048c61047f61046f6103cb36610360565b939296916104366104316103ee8a60409c958d51928391876020840194856113e3565b0391610402601f1993848101835282610251565b519020906104278d51918261041b60208201958661141a565b03908101835282610251565b51902096876119d6565b611448565b61046361045e61045a610453886000526006602052604060002090565b5460ff1690565b1590565b611489565b426114f3565b10611500565b6000526006602052604060002090565b805460ff19166001179055565b61049f61049a6001546105e0565b6105e0565b82516319eba01560e31b815291602083806104bd8460048301611572565b0381855afa92831561059f576000936105a4575b506104dd83151561158f565b813b1561021e57600084518093633fc2686960e21b825281838161052e896004830160a0918152600060208201526060604082015260086060820152672830b4b21027b33360c11b60808201520190565b03925af191821561059f5761054892610586575b506115d0565b82514281527fb65f2e46565c3b8eabc8703933629b049d8ab239125e0c4dde27854a9d0d77bf9080602081015b0390a35160018152602090f35b0390f35b8061059361059992610239565b806105d5565b38610542565b611583565b6105c791935060203d6020116105ce575b6105bf8183610251565b81019061153e565b91386104d1565b503d6105b5565b600091031261021e57565b6001600160a01b031690565b3461021e57600036600319011261021e576001546040516001600160a01b039091168152602090f35b600435906001600160a01b038216820361021e57565b602435906001600160a01b038216820361021e57565b3461021e57602036600319011261021e5761065a610615565b610662611fae565b6001600160a01b0381811660008181526003602052604090205491929161068b9060ff166115f0565b6106bb6106b16004936106ac6106a26004546114df565b600554111561162e565b61124c565b805460ff19169055565b60005b8254808210156107475782856106eb6106d685610e8c565b905460039190911b1c6001600160a01b031690565b16146106fa57506001016106be565b61073f945061071b91935061072192506107166106d6916114df565b610e8c565b91610e8c565b90919060018060a01b038084549260031b9316831b921b1916179055565b610747611672565b005b60005b83811061075c5750506000910152565b818101518382015260200161074c565b6020610785918160405193828580945193849201610749565b8101600781520301902090565b3461021e57602036600319011261021e576004356001600160401b03811161021e5760ff6107ce6107c96020933690600401610274565b61076c565b54166040519015158152f35b3461021e57602036600319011261021e576107f3610615565b6107fb611fae565b6001600160a01b0381166108108115156116ca565b600052600360205260ff6040600020541661083a578061083561047f6107479361124c565b611708565b60405162461bcd60e51b815260206004820152601160248201527020b63932b0b23c903b30b634b230ba37b960791b6044820152606490fd5b3461021e576104696102586108b361047f61046f61089036610360565b939296916104366104316103ee8a60409c958d519283918760208401948561175a565b6108c161049a6001546105e0565b82516319eba01560e31b815291602083806108df8460048301611572565b0381855afa92831561059f5760009361099a575b506108ff83151561158f565b813b1561021e57600084518093633fc2686960e21b8252818381610950896004830160a091815260006020820152606060408201526008606082015267155b9b1bd8dad95960c21b60808201520190565b03925af191821561059f576109699261058657506115d0565b82514281527fd69a3b593b29f590f1e4f80795d05399d49b300394d7b48eedc449026cb216f4908060208101610575565b6109b491935060203d6020116105ce576105bf8183610251565b91386108f3565b3461021e57600080600319360112610a04576109d5611fae565b80546001600160a01b03198116825581906001600160a01b0316600080516020611fdb8339815191528280a380f35b80fd5b3461021e57602036600319011261021e57600435610a23611fae565b8015610a71576004548111610a3757600555005b60405162461bcd60e51b81526020600482015260126024820152710a8d0e4cae6d0ded8c840e8dede40d0d2ced60731b6044820152606490fd5b60405162461bcd60e51b815260206004820152601560248201527405468726573686f6c64206d757374206265203e203605c1b6044820152606490fd5b3461021e57610b5061047f6104316107c961047f61043661046f610258610469610ad736610360565b969192809a91610b2a606860405180936020820195671054141493d5915160c21b8752610b0e815180926020602887019101610749565b8201908960288301526048820152036048810184520182610251565b51902060405161042781610b4260208201948561141a565b03601f198101835282610251565b60405160018152602090f35b3461021e576104696102586108b361047f61046f610b7936610360565b939296916104366104316103ee8a60409c958d5192839187602084019485611781565b3461021e57600036600319011261021e576020600554604051908152f35b3461021e57600036600319011261021e576000546040516001600160a01b039091168152602090f35b3461021e57604036600319011261021e576024356001600160401b03811161021e57610c20610c186020923690600401610274565b60043561181a565b6040516001600160a01b039091168152f35b3461021e5760a036600319011261021e576001600160401b0360043581811161021e57610c63903690600401610274565b6024359160443560843591821161021e5761047f610ce49161046f610258610469610c93899736906004016102e1565b936104366104318a610cbb61042760409e8f9384519384918960208401946064359286611900565b0392610ccf601f1994858101835282610251565b5190209251918261041b60208201958661141a565b610cf261049a6001546105e0565b916020845180946319eba01560e31b82528180610d128660048301611572565b03915afa92831561059f57600093610dbf575b50610d3183151561158f565b610d3f61049a6002546105e0565b803b1561021e578451631fde780560e01b81526004810185905260248101849052906000908290604490829084905af1801561059f577f5f6b374a1ee52061eaf49a202db87a381913e45bf87161d06b46a0974afaff879261057592610da99261058657506115d0565b8551938452426020850152929081906040820190565b610dd991935060203d6020116105ce576105bf8183610251565b9138610d25565b3461021e57602036600319011261021e57610df9610615565b610e01611fae565b6001600160a01b0316610e158115156116ca565b600180546001600160a01b031916919091179055005b3461021e57602036600319011261021e57610e44610615565b610e4c611fae565b6001600160a01b0316610e608115156116ca565b600280546001600160a01b031916919091179055005b634e487b7160e01b600052603260045260246000fd5b600454811015610ea757600460005260206000200190600090565b610e76565b3461021e57602036600319011261021e5760043560045481101561021e576004600052600080516020611ffb83398151915201546040516001600160a01b039091168152602090f35b3461021e57600080600319360112610a0457604051809160045490818352602080930180926004835284832090835b818110610f815750505084610f3a910385610251565b60405193838594850191818652518092526040850193925b828110610f6157505050500390f35b83516001600160a01b031685528695509381019392810192600101610f52565b82546001600160a01b031684529286019260019283019201610f24565b3461021e57604036600319011261021e576024356001600160401b03811161021e57610fdb610fd360209236906004016102e1565b6004356119d6565b6040519015158152f35b3461021e57610b506106b16104316107c961047f61043661046f61025861046961100e36610360565b969192809a91610b2a6069604051809360208201956810d05390d15313115160ba1b8752611046815180926020602987019101610749565b8201908960298301526049820152036049810184520182610251565b3461021e5761016036600319011261021e576001600160401b0360043581811161021e57611094903690600401610274565b9061109d61062b565b60c43582811161021e576110b5903690600401610274565b9060e43583811161021e576110ce903690600401610274565b936101443593841161021e57610582946110ef61110f9536906004016102e1565b936101243593610104359360a43591608435916064359160443591611c17565b6040519081529081906020820190565b3461021e57600036600319011261021e576002546040516001600160a01b039091168152602090f35b3461021e5760c036600319011261021e576001600160401b0360043581811161021e57611179903690600401610274565b9060443581811161021e57611192903690600401610274565b9160a43591821161021e57610582926111b26111c49336906004016102e1565b91608435916064359160243590611df7565b60405190151581529081906020820190565b3461021e57602036600319011261021e576111ef610615565b6111f7611fae565b6001600160a01b03908116801561123357600080546001600160a01b0319811683178255909216600080516020611fdb8339815191528380a380f35b604051631e4fbdf760e01b815260006004820152602490fd5b6001600160a01b0316600090815260036020526040902090565b3461021e57602036600319011261021e576001600160a01b03611287610615565b166000526003602052602060ff604060002054166040519015158152f35b3461021e576104696102586112e561047f61046f6112c236610360565b939296916104366104316103ee8a60409c958d5192839187602084019485611f3d565b6112f361049a6001546105e0565b82516319eba01560e31b815291602083806113118460048301611572565b0381855afa92831561059f576000936113c2575b50611331831515611f70565b813b1561021e576000845180936394cf1fb160e01b82528183816113588760048301611572565b03925af191821561059f5761137e926113af575b506113796106b18261076c565b6115d0565b82514281527fda9bed044096bb6e5507a7cf22eccbcc0df5e33825b2098e364bb7db781c805e908060208101610575565b806105936113bc92610239565b3861136c565b6113dc91935060203d6020116105ce576105bf8183610251565b9138611325565b9060489391672820a4a22fa7a32360c11b815261140a825180936020600885019101610749565b0191600883015260288201520190565b603c917b0ca2ba3432b932bab69029b4b3b732b21026b2b9b9b0b3b29d05199960211b8252601c8201520190565b1561144f57565b60405162461bcd60e51b8152602060048201526012602482015271496e76616c6964207369676e61747572657360701b6044820152606490fd5b1561149057565b60405162461bcd60e51b8152602060048201526011602482015270105b1c9958591e481c1c9bd8d95cdcd959607a1b6044820152606490fd5b634e487b7160e01b600052601160045260246000fd5b6000198101919082116114ee57565b6114c9565b919082039182116114ee57565b1561150757565b60405162461bcd60e51b815260206004820152600f60248201526e13595cdcd859d9481d1bdbc81bdb19608a1b6044820152606490fd5b9081602091031261021e575190565b9060209161156681518092818552858086019101610749565b601f01601f1916010190565b9060206103ab92818152019061154d565b6040513d6000823e3d90fd5b1561159657565b60405162461bcd60e51b8152602060048201526012602482015271131bd85b881b9bdd081d1bdad95b9a5e995960721b6044820152606490fd5b6115e890602060405192828480945193849201610749565b810103902090565b156115f757565b60405162461bcd60e51b815260206004820152600f60248201526e2737ba1030903b30b634b230ba37b960891b6044820152606490fd5b1561163557565b60405162461bcd60e51b815260206004820152601560248201527415dbdd5b1908189c99585ac81d1a1c995cda1bdb19605a1b6044820152606490fd5b60045480156116b4576000198181019180831015610ea757600460008190529101600080516020611ffb8339815191520180546001600160a01b031916905555565b634e487b7160e01b600052603160045260246000fd5b156116d157565b60405162461bcd60e51b815260206004820152600f60248201526e496e76616c6964206164647265737360881b6044820152606490fd5b600454600160401b81101561024c576001810180600455811015610ea7576004600052600080516020611ffb8339815191520180546001600160a01b0319166001600160a01b03909216919091179055565b90604893916715539313d0d2d15160c21b815261140a825180936020600885019101610749565b90605093916f454d455247454e43595f554e4c4f434b60801b81526117b0825180936020601085019101610749565b0191601083015260308201520190565b60ff601b9116019060ff82116114ee57565b156117d957565b60405162461bcd60e51b8152602060048201526019602482015278496e76616c6964207369676e617475726520762076616c756560381b6044820152606490fd5b60418251036118c0576020916000918291848101519260606040830151920151901a92601b84106118a9575b9061188a9161186460ff8616601b811490811561189e575b506117d2565b604051948594859094939260ff6060936080840197845216602083015260408201520152565b838052039060015afa1561059f5760005190565b601c9150143861185e565b92906118b761188a926117c0565b93909150611846565b60405162461bcd60e51b8152602060048201526018602482015277092dcecc2d8d2c840e6d2cedcc2e8eae4ca40d8cadccee8d60431b6044820152606490fd5b90606794929391661410565351539560ca1b8152611928825180936020600785019101610749565b01926007840152602783015260478201520190565b1561194457565b60405162461bcd60e51b81526020600482015260156024820152744e6f7420656e6f756768207369676e61747572657360581b6044820152606490fd5b9061198b826102ca565b6119986040519182610251565b82815280926119a9601f19916102ca565b0190602036910137565b8051821015610ea75760209160051b010190565b60001981146114ee5760010190565b91908051916119ea6005548094101561193d565b6119f48251611981565b91600091825b8251811015611ac357611a17611a1082856119b3565b518861181a565b611a2661045a6104538361124c565b611aba5760006001600160a01b038216815b878110611a83575b505015611a53575b506001905b016119fa565b84611a77611a7c92611a68600195988a6119b3565b6001600160a01b039091169052565b6119c7565b9390611a48565b81611aa161049a611a94848d6119b3565b516001600160a01b031690565b14611aae57600101611a38565b50505060013880611a40565b50600190611a4d565b509450509050101590565b9060d89a9897969492959391631352539560e21b8152611af8825180936020600485019101610749565b019460018060601b03199060601b1660048601526018850152603884015260588301526078820152611b34825180936020609885019101610749565b01611b49825180936020609885019101610749565b0191609883015260b88201520190565b15611b6057565b60405162461bcd60e51b815260206004820152602a60248201527f4c6f616e206e6f7420617070726f766564206f72207761732063616e63656c6c604482015269656420696e204265737560b01b6064820152608490fd5b9692936103ab98969294611bd8611c099793610100808c528b019061154d565b6001600160a01b0390961660208a015260408901526060880152608087015260a086015284820360c086015261154d565b9160e081840391015261154d565b97968686611caa61047f879e611c96879f8f999d60209f8f8e9f8c9f9160009f8f909e611cd69f8f98876102589a6104699a610431986104369a611c67966040519a6020998c9a8b019b8c611ace565b0391611c7b601f1993848101835282610251565b5190209061042760405191602061041b84918201958661141a565b61046f611ca56104538a61076c565b611b59565b611cb861049a6001546105e0565b976040519d8e9a8b998a9863e7754d1160e01b8a5260048a01611bb8565b03925af192831561059f57600093611d66575b50611d2a8184611cf981946115d0565b6040514281527ff09996b9b0eb4e6c1e6f21b808fb119c4169312f15e667f35b9900530712a53b90602090a36115d0565b6040514281526001600160a01b0393909316927fdca3630c28a9da1477fb823057d822d0e3ddb8834c928726d348e8fb3544a64790602090a490565b611d2a9350611d839060203d6020116105ce576105bf8183610251565b92611ce9565b906066959392916555504441544560d01b8152611db0825180936020600685019101610749565b01906006820152611dcb825180936020602685019101610749565b0191602683015260468201520190565b6103ab939260609282526020820152816040820152019061154d565b929461046f6102586104698598610436610431611e58988a89611e2a61047f9b9e87604051958694602086019687611d89565b0391611e3e601f1993848101835282610251565b51902090610427604051918261041b60208201958661141a565b611e6661049a6001546105e0565b91604051936319eba01560e31b855260208580611e868660048301611572565b0381875afa94851561059f57600095611f1c575b50611ea685151561158f565b833b1561021e57611ed29360009283604051809781958294633fc2686960e21b84528b60048501611ddb565b03925af191821561059f57611eeb9261058657506115d0565b6040514281527fff1488042f54db04cb79ce08410ecdcbead34276b0e11b2ccb7074918799146390602090a3600190565b611f3691955060203d6020116105ce576105bf8183610251565b9338611e9a565b906044939163212aa92760e11b8152611f60825180936020600485019101610749565b0191600483015260248201520190565b15611f7757565b60405162461bcd60e51b815260206004820152600f60248201526e131bd85b881b9bdd081b5a5b9d1959608a1b6044820152606490fd5b6000546001600160a01b03163303611fc257565b60405163118cdaa760e01b8152336004820152602490fdfe8be0079c531659141344cd1fd0a4f28419497f9722a3daafe3b4186f6b6457e08a35acfbc15ff81a39ae7d344fd709f28e8600b4aa8c65c6b64bfe7fe36bd19ba164736f6c6343000818000a",
  "linkReferences": {},
  "deployedLinkReferences": {}
}