{
  "_format": "hh-sol-artifact-1",
  "contractName": "BridgeReceiver",
  "sourceName": "src/avalanche/BridgeReceiver.sol",
  "abi": [
    {
      "inputs": [
        {
          "internalType": "address",
          "name": "initialOwner",
          "type": "address"
        },
        {
          "internalType": "address",
          "name": "_loanNFT",
          "type": "address"
        },
        {
          "internalType": "address",
          "name": "_paymentDistributor",
          "type": "address"
        },
        {
          "internalType": "address[]",
          "name": "_initialValidators",
          "type": "address[]"
        },
        {
          "internalType": "uint256",
          "name": "_requiredSignatures",
          "type": "uint256"
        }
      ],
      "stateMutability": "nonpayable",
      "type": "constructor"
    },
    {
      "inputs": [
        {
          "internalType": "address",
          "name": "owner",
          "type": "address"
        }
      ],
      "name": "OwnableInvalidOwner",
      "type": "error"
    },
    {
      "inputs": [
        {
          "internalType": "address",
          "name": "account",
          "type": "address"
        }
      ],
      "name": "OwnableUnauthorizedAccount",
      "type": "error"
    },
    {
      "anonymous": false,
      "inputs": [
        {
          "indexed": true,
          "internalType": "string",
          "name": "loanId",
          "type": "string"
        },
        {
          "indexed": true,
          "internalType": "uint256",
          "name": "tokenId",
          "type": "uint256"
        },
        {
          "indexed": true,
          "internalType": "address",
          "name": "lender",
          "type": "address"
        },
        {
          "indexed": false,
          "internalType": "uint256",
          "name": "timestamp",
          "type": "uint256"
        }
      ],
      "name": "LoanMinted",
      "type": "event"
    },
    {
      "anonymous": false,
      "inputs": [
        {
          "indexed": true,
          "internalType": "string",
          "name": "loanId",
          "type": "string"
        },
        {
          "indexed": true,
          "internalType": "uint256",
          "name": "tokenId",
          "type": "uint256"
        },
        {
          "indexed": false,
          "internalType": "uint256",
          "name": "timestamp",
          "type": "uint256"
        }
      ],
      "name": "LoanNFTBurned",
      "type": "event"
    },
    {
      "anonymous": false,
      "inputs": [
        {
          "indexed": true,
          "internalType": "string",
          "name": "loanId",
          "type": "string"
        },
        {
          "indexed": true,
          "internalType": "uint256",
          "name": "tokenId",
          "type": "uint256"
        },
        {
          "indexed": false,
          "internalType": "uint256",
          "name": "timestamp",
          "type": "uint256"
        }
      ],
      "name": "LoanPaidOff",
      "type": "event"
    },
    {
      "anonymous": false,
      "inputs": [
        {
          "indexed": true,
          "internalType": "string",
          "name": "loanId",
          "type": "string"
        },
        {
          "indexed": true,
          "internalType": "uint256",
          "name": "tokenId",
          "type": "uint256"
        },
        {
          "indexed": false,
          "internalType": "uint256",
          "name": "timestamp",
          "type": "uint256"
        }
      ],
      "name": "LoanUnlocked",
      "type": "event"
    },
    {
      "anonymous": false,
      "inputs": [
        {
          "indexed": true,
          "internalType": "string",
          "name": "loanId",
          "type": "string"
        },
        {
          "indexed": true,
          "internalType": "uint256",
          "name": "tokenId",
          "type": "uint256"
        },
        {
          "indexed": false,
          "internalType": "uint256",
          "name": "timestamp",
          "type": "uint256"
        }
      ],
      "name": "MetadataUpdated",
      "type": "event"
    },
    {
      "anonymous": false,
      "inputs": [
        {
          "indexed": true,
          "internalType": "address",
          "name": "previousOwner",
          "type": "address"
        },
        {
          "indexed": true,
          "internalType": "address",
          "name": "newOwner",
          "type": "address"
        }
      ],
      "name": "OwnershipTransferred",
      "type": "event"
    },
    {
      "anonymous": false,
      "inputs": [
        {
          "indexed": true,
          "internalType": "string",
          "name": "loanId",
          "type": "string"
        },
        {
          "indexed": true,
          "internalType": "uint256",
          "name": "tokenId",
          "type": "uint256"
        },
        {
          "indexed": false,
          "internalType": "uint256",
          "name": "amount",
          "type": "uint256"
        },
        {
          "indexed": false,
          "internalType": "uint256",
          "name": "timestamp",
          "type": "uint256"
        }
      ],
      "name": "PaymentProcessed",
      "type": "event"
    },
    {
      "anonymous": false,
      "inputs": [
        {
          "indexed": true,
          "internalType": "string",
          "name": "loanId",
          "type": "string"
        },
        {
          "indexed": true,
          "internalType": "uint256",
          "name": "tokenId",
          "type": "uint256"
        },
        {
          "indexed": false,
          "internalType": "uint256",
          "name": "timestamp",
          "type": "uint256"
        }
      ],
      "name": "TokenIdNeedsSyncToBesu",
      "type": "event"
    },
    {
      "inputs": [
        {
          "internalType": "address",
          "name": "validator",
          "type": "address"
        }
      ],
      "name": "addValidator",
      "outputs": [],
      "stateMutability": "nonpayable",
      "type": "function"
    },
    {
      "inputs": [
        {
          "internalType": "string",
          "name": "",
          "type": "string"
        }
      ],
      "name": "approvedInBesu",
      "outputs": [
        {
          "internalType": "bool",
          "name": "",
          "type": "bool"
        }
      ],
      "stateMutability": "view",
      "type": "function"
    },
    {
      "inputs": [],
      "name": "getValidators",
      "outputs": [
        {
          "internalType": "address[]",
          "name": "",
          "type": "address[]"
        }
      ],
      "stateMutability": "view",
      "type": "function"
    },
    {
      "inputs": [
        {
          "internalType": "string",
          "name": "loanId",
          "type": "string"
        }
      ],
      "name": "isLoanApprovedInBesu",
      "outputs": [
        {
          "internalType": "bool",
          "name": "",
          "type": "bool"
        }
      ],
      "stateMutability": "view",
      "type": "function"
    },
    {
      "inputs": [
        {
          "internalType": "bytes32",
          "name": "messageHash",
          "type": "bytes32"
        }
      ],
      "name": "isMessageProcessed",
      "outputs": [
        {
          "internalType": "bool",
          "name": "",
          "type": "bool"
        }
      ],
      "stateMutability": "view",
      "type": "function"
    },
    {
      "inputs": [
        {
          "internalType": "address",
          "name": "addr",
          "type": "address"
        }
      ],
      "name": "isValidator",
      "outputs": [
        {
          "internalType": "bool",
          "name": "",
          "type": "bool"
        }
      ],
      "stateMutability": "view",
      "type": "function"
    },
    {
      "inputs": [],
      "name": "loanNFT",
      "outputs": [
        {
          "internalType": "contract ILoanNFT",
          "name": "",
          "type": "address"
        }
      ],
      "stateMutability": "view",
      "type": "function"
    },
    {
      "inputs": [
        {
          "internalType": "string",
          "name": "loanId",
          "type": "string"
        },
        {
          "internalType": "uint256",
          "name": "timestamp",
          "type": "uint256"
        },
        {
          "internalType": "uint256",
          "name": "nonce",
          "type": "uint256"
        },
        {
          "internalType": "bytes[]",
          "name": "signatures",
          "type": "bytes[]"
        }
      ],
      "name": "markLoanApprovedInBesu",
      "outputs": [
        {
          "internalType": "bool",
          "name": "",
          "type": "bool"
        }
      ],
      "stateMutability": "nonpayable",
      "type": "function"
    },
    {
      "inputs": [
        {
          "internalType": "string",
          "name": "loanId",
          "type": "string"
        },
        {
          "internalType": "uint256",
          "name": "timestamp",
          "type": "uint256"
        },
        {
          "internalType": "uint256",
          "name": "nonce",
          "type": "uint256"
        },
        {
          "internalType": "bytes[]",
          "name": "signatures",
          "type": "bytes[]"
        }
      ],
      "name": "markLoanCancelledInBesu",
      "outputs": [
        {
          "internalType": "bool",
          "name": "",
          "type": "bool"
        }
      ],
      "stateMutability": "nonpayable",
      "type": "function"
    },
    {
      "inputs": [],
      "name": "owner",
      "outputs": [
        {
          "internalType": "address",
          "name": "",
          "type": "address"
        }
      ],
      "stateMutability": "view",
      "type": "function"
    },
    {
      "inputs": [],
      "name": "paymentDistributor",
      "outputs": [
        {
          "internalType": "contract IPaymentDistributor",
          "name": "",
          "type": "address"
        }
      ],
      "stateMutability": "view",
      "type": "function"
    },
    {
      "inputs": [
        {
          "internalType": "string",
          "name": "loanId",
          "type": "string"
        },
        {
          "internalType": "uint256",
          "name": "timestamp",
          "type": "uint256"
        },
        {
          "internalType": "uint256",
          "name": "nonce",
          "type": "uint256"
        },
        {
          "internalType": "bytes[]",
          "name": "signatures",
          "type": "bytes[]"
        }
      ],
      "name": "processBurnRequest",
      "outputs": [
        {
          "internalType": "bool",
          "name": "",
          "type": "bool"
        }
      ],
      "stateMutability": "nonpayable",
      "type": "function"
    },
    {
      "inputs": [
        {
          "internalType": "string",
          "name": "loanId",
          "type": "string"
        },
        {
          "internalType": "uint256",
          "name": "timestamp",
          "type": "uint256"
        },
        {
          "internalType": "uint256",
          "name": "nonce",
          "type": "uint256"
        },
        {
          "internalType": "bytes[]",
          "name": "signatures",
          "type": "bytes[]"
        }
      ],
      "name": "processEmergencyUnlock",
      "outputs": [
        {
          "internalType": "bool",
          "name": "",
          "type": "bool"
        }
      ],
      "stateMutability": "nonpayable",
      "type": "function"
    },
    {
      "inputs": [
        {
          "internalType": "string",
          "name": "loanId",
          "type": "string"
        },
        {
          "internalType": "address",
          "name": "lenderAddress",
          "type": "address"
        },
        {
          "internalType": "uint256",
          "name": "originalBalance",
          "type": "uint256"
        },
        {
          "internalType": "uint256",
          "name": "currentBalance",
          "type": "uint256"
        },
        {
          "internalType": "uint256",
          "name": "noteRate",
          "type": "uint256"
        },
        {
          "internalType": "uint256",
          "name": "lenderOwnerPct",
          "type": "uint256"
        },
        {
          "internalType": "string",
          "name": "status",
          "type": "string"
        },
        {
          "internalType": "string",
          "name": "location",
          "type": "string"
        },
        {
          "internalType": "uint256",
          "name": "timestamp",
          "type": "uint256"
        },
        {
          "internalType": "uint256",
          "name": "nonce",
          "type": "uint256"
        },
        {
          "internalType": "bytes[]",
          "name": "signatures",
          "type": "bytes[]"
        }
      ],
      "name": "processLoanApproval",
      "outputs": [
        {
          "internalType": "uint256",
          "name": "",
          "type": "uint256"
        }
      ],
      "stateMutability": "nonpayable",
      "type": "function"
    },
    {
      "inputs": [
        {
          "internalType": "string",
          "name": "loanId",
          "type": "string"
        },
        {
          "internalType": "uint256",
          "name": "timestamp",
          "type": "uint256"
        },
        {
          "internalType": "uint256",
          "name": "nonce",
          "type": "uint256"
        },
        {
          "internalType": "bytes[]",
          "name": "signatures",
          "type": "bytes[]"
        }
      ],
      "name": "processLoanPaidOff",
      "outputs": [
        {
          "internalType": "bool",
          "name": "",
          "type": "bool"
        }
      ],
      "stateMutability": "nonpayable",
      "type": "function"
    },
    {
      "inputs": [
        {
          "internalType": "string",
          "name": "loanId",
          "type": "string"
        },
        {
          "internalType": "uint256",
          "name": "timestamp",
          "type": "uint256"
        },
        {
          "internalType": "uint256",
          "name": "nonce",
          "type": "uint256"
        },
        {
          "internalType": "bytes[]",
          "name": "signatures",
          "type": "bytes[]"
        }
      ],
      "name": "processLoanUnlocked",
      "outputs": [
        {
          "internalType": "bool",
          "name": "",
          "type": "bool"
        }
      ],
      "stateMutability": "nonpayable",
      "type": "function"
    },
    {
      "inputs": [
        {
          "internalType": "string",
          "name": "loanId",
          "type": "string"
        },
        {
          "internalType": "uint256",
          "name": "newBalance",
          "type": "uint256"
        },
        {
          "internalType": "string",
          "name": "newStatus",
          "type": "string"
        },
        {
          "internalType": "uint256",
          "name": "timestamp",
          "type": "uint256"
        },
        {
          "internalType": "uint256",
          "name": "nonce",
          "type": "uint256"
        },
        {
          "internalType": "bytes[]",
          "name": "signatures",
          "type": "bytes[]"
        }
      ],
      "name": "processMetadataUpdate",
      "outputs": [
        {
          "internalType": "bool",
          "name": "",
          "type": "bool"
        }
      ],
      "stateMutability": "nonpayable",
      "type": "function"
    },
    {
      "inputs": [
        {
          "internalType": "string",
          "name": "loanId",
          "type": "string"
        },
        {
          "internalType": "uint256",
          "name": "amount",
          "type": "uint256"
        },
        {
          "internalType": "uint256",
          "name": "timestamp",
          "type": "uint256"
        },
        {
          "internalType": "uint256",
          "name": "nonce",
          "type": "uint256"
        },
        {
          "internalType": "bytes[]",
          "name": "signatures",
          "type": "bytes[]"
        }
      ],
      "name": "processPayment",
      "outputs": [
        {
          "internalType": "bool",
          "name": "",
          "type": "bool"
        }
      ],
      "stateMutability": "nonpayable",
      "type": "function"
    },
    {
      "inputs": [
        {
          "internalType": "bytes32",
          "name": "",
          "type": "bytes32"
        }
      ],
      "name": "processedMessages",
      "outputs": [
        {
          "internalType": "bool",
          "name": "",
          "type": "bool"
        }
      ],
      "stateMutability": "view",
      "type": "function"
    },
    {
      "inputs": [
        {
          "internalType": "bytes32",
          "name": "messageHash",
          "type": "bytes32"
        },
        {
          "internalType": "bytes",
          "name": "signature",
          "type": "bytes"
        }
      ],
      "name": "recoverSigner",
      "outputs": [
        {
          "internalType": "address",
          "name": "",
          "type": "address"
        }
      ],
      "stateMutability": "pure",
      "type": "function"
    },
    {
      "inputs": [
        {
          "internalType": "address",
          "name": "validator",
          "type": "address"
        }
      ],
      "name": "removeValidator",
      "outputs": [],
      "stateMutability": "nonpayable",
      "type": "function"
    },
    {
      "inputs": [],
      "name": "renounceOwnership",
      "outputs": [],
      "stateMutability": "nonpayable",
      "type": "function"
    },
    {
      "inputs": [],
      "name": "requiredSignatures",
      "outputs": [
        {
          "internalType": "uint256",
          "name": "",
          "type": "uint256"
        }
      ],
      "stateMutability": "view",
      "type": "function"
    },
    {
      "inputs": [
        {
          "internalType": "address",
          "name": "_loanNFT",
          "type": "address"
        }
      ],
      "name": "setLoanNFT",
      "outputs": [],
      "stateMutability": "nonpayable",
      "type": "function"
    },
    {
      "inputs": [
        {
          "internalType": "address",
          "name": "_distributor",
          "type": "address"
        }
      ],
      "name": "setPaymentDistributor",
      "outputs": [],
      "stateMutability": "nonpayable",
      "type": "function"
    },
    {
      "inputs": [
        {
          "internalType": "uint256",
          "name": "newThreshold",
          "type": "uint256"
        }
      ],
      "name": "setRequiredSignatures",
      "outputs": [],
      "stateMutability": "nonpayable",
      "type": "function"
    },
    {
      "inputs": [
        {
          "internalType": "address",
          "name": "newOwner",
          "type": "address"
        }
      ],
      "name": "transferOwnership",
      "outputs": [],
      "stateMutability": "nonpayable",
      "type": "function"
    },
    {
      "inputs": [
        {
          "internalType": "uint256",
          "name": "",
          "type": "uint256"
        }
      ],
      "name": "validatorList",
      "outputs": [
        {
          "internalType": "address",
          "name": "",
          "type": "address"
        }
      ],
      "stateMutability": "view",
      "type": "function"
    },
    {
      "inputs": [
        {
          "internalType": "address",
          "name": "",
          "type": "address"
        }
      ],
      "name": "validators",
      "outputs": [
        {
          "internalType": "bool",
          "name": "",
          "type": "bool"
        }
      ],
      "stateMutability": "view",
      "type": "function"
    },
    {
      "inputs": [
        {
          "internalType": "bytes32",
          "name": "messageHash",
          "type": "bytes32"
        },
        {
          "internalType": "bytes[]",
          "name": "signatures",
          "type": "bytes[]"
        }
      ],
      "name": "verifyMessage",
      "outputs": [
        {
          "internalType": "bool",
          "name": "",
          "type": "bool"
        }
      ],
      "stateMutability": "view",
      "type": "function"
    }
  ],
  "bytecode": "0x60406080815234620003fc57620024fd803803806200001e8162000417565b928339810160a082820312620003fc5762000039826200043d565b602090620000498285016200043d565b91620000578686016200043d565b606086015190956001600160401b03959091868111620003fc57820181601f82011215620003fc57805196871162000401578660051b9084806200009d81850162000417565b809a81520192820101928311620003fc5784809101915b838310620003e1575050505060800151946001600160a01b03928316928315620003c957600080546001600160a01b0319808216871783558a51979096929492849283167f8be0079c531659141344cd1fd0a4f28419497f9722a3daafe3b4186f6b6457e08780a316958615620003955750811695861562000351578051156200031b57871515806200030f575b15620002d757600198979689968688541617875585600254161760025582985b6200017b575b87876005555161207f90816200047e8239f35b8051891015620002d15781620001928a8362000452565b511615620002995781620001a78a8362000452565b51168352600380855260ff8985205416620002555782620001c98b8462000452565b511684528452878320805460ff19168717905581620001e98a8362000452565b5116986004998a54680100000000000000008110156200024257888101808d558110156200022f579a8552858520909a0180548716909a17909955978501978562000162565b634e487b7160e01b865260328c52602486fd5b634e487b7160e01b865260418c52602486fd5b885162461bcd60e51b815260048101869052601360248201527f4475706c69636174652076616c696461746f72000000000000000000000000006044820152606490fd5b875162461bcd60e51b815260048101859052601160248201527024b73b30b634b2103b30b634b230ba37b960791b6044820152606490fd5b62000168565b885162461bcd60e51b8152600481018590526011602482015270125b9d985b1a59081d1a1c995cda1bdb19607a1b6044820152606490fd5b50805188111562000142565b885162461bcd60e51b815260048101859052600f60248201526e4e6565642076616c696461746f727360881b6044820152606490fd5b885162461bcd60e51b815260048101859052601a60248201527f496e76616c6964205061796d656e744469737472696275746f720000000000006044820152606490fd5b62461bcd60e51b815260048101859052600f60248201526e125b9d985b1a5908131bd85b939195608a1b6044820152606490fd5b8751631e4fbdf760e01b815260006004820152602490fd5b8190620003ee846200043d565b8152019101908490620000b4565b600080fd5b634e487b7160e01b600052604160045260246000fd5b6040519190601f01601f191682016001600160401b038111838210176200040157604052565b51906001600160a01b0382168203620003fc57565b8051821015620004675760209160051b010190565b634e487b7160e01b600052603260045260246000fdfe6080604052600436101561001257600080fd5b60003560e01c80631bd31ef6146101ed57806329c5a876146101e857806334a41177146101e357806340a141ff146101de5780634c518bac146101ac5780634d238c8e146101d95780635b9579c4146101d4578063715018a6146101cf5780637d2b9cc0146101ca57806385884565146101c557806386b39bce146101c057806388ba16ab146101bb5780638d068043146101b65780638da5cb5b146101b15780638fba1831146101ac57806397aba7f9146101a757806397b1a672146101a25780639f4a71421461019d578063aad9e18514610198578063b048e05614610193578063b7ab4db51461018e578063bb4c6ace14610189578063bfabf2da14610184578063cd3f3c431461017f578063cda6526d1461017a578063ecc26aee14610175578063f2fde38b14610170578063fa52c7d814610166578063fa6687251461016b5763facd743b1461016657600080fd5b6112ac565b6112eb565b611224565b611196565b61116d565b6110b0565b611033565b610fec565b610f43565b610efa565b610e79565b610e2e565b610c72565b610c23565b6107a3565b610bfa565b610bdc565b6101ed565b610b9c565b610aee565b610a47565b6109e9565b61089a565b6107eb565b61063d565b6105e8565b6103ac565b3461021e57602036600319011261021e576004356000526006602052602060ff604060002054166040519015158152f35b600080fd5b634e487b7160e01b600052604160045260246000fd5b6001600160401b03811161024c57604052565b610223565b90601f801991011681019081106001600160401b0382111761024c57604052565b81601f8201121561021e578035906001600160401b03821161024c57604051926102a6601f8401601f191660200185610251565b8284526020838301011161021e57816000926020809301838601378301015290565b6001600160401b03811161024c5760051b60200190565b81601f8201121561021e578035916020916102f9846102c8565b936103076040519586610251565b808552838086019160051b8301019280841161021e57848301915b8483106103325750505050505090565b82356001600160401b03811161021e57869161035384848094890101610272565b815201920191610322565b608060031982011261021e576001600160401b039060043582811161021e578161038a91600401610272565b92602435926044359260643591821161021e576103a9916004016102df565b90565b3461021e5761046761025861048a61047d61046d6103c93661035e565b9392969161043461042f6103ec8a60409c958d5192839187602084019485611430565b0391610400601f1993848101835282610251565b519020906104258d519182610419602082019586611467565b03908101835282610251565b5190209687611a24565b611496565b61046161045c610458610451886000526006602052604060002090565b5460ff1690565b1590565b6114d7565b42611541565b1061154e565b6000526006602052604060002090565b805460ff19166001179055565b6001546104a7906001600160a01b03165b6001600160a01b031690565b82516319eba01560e31b815291602083806104c584600483016115c0565b0381855afa9283156105a7576000936105ac575b506104e58315156115dd565b813b1561021e57600084518093633fc2686960e21b8252818381610536896004830160a0918152600060208201526060604082015260086060820152672830b4b21027b33360c11b60808201520190565b03925af19182156105a7576105509261058e575b5061161e565b82514281527fb65f2e46565c3b8eabc8703933629b049d8ab239125e0c4dde27854a9d0d77bf9080602081015b0390a35160018152602090f35b0390f35b8061059b6105a192610239565b806105dd565b3861054a565b6115d1565b6105cf91935060203d6020116105d6575b6105c78183610251565b81019061158c565b91386104d9565b503d6105bd565b600091031261021e57565b3461021e57600036600319011261021e576001546040516001600160a01b039091168152602090f35b600435906001600160a01b038216820361021e57565b602435906001600160a01b038216820361021e57565b3461021e57602036600319011261021e57610656610611565b61065e612026565b6001600160a01b038181166000818152600360205260409020549192916106879060ff1661163e565b6106cc6106c26004936106a861069e60045461152d565b600554111561167c565b6001600160a01b0316600090815260036020526040902090565b805460ff19169055565b60005b8254808210156107585782856106fc6106e785610eda565b905460039190911b1c6001600160a01b031690565b161461070b57506001016106cf565b610750945061072c91935061073292506107276106e79161152d565b610eda565b91610eda565b90919060018060a01b038084549260031b9316831b921b1916179055565b6107586116c0565b005b60005b83811061076d5750506000910152565b818101518382015260200161075d565b602061079691816040519382858094519384920161075a565b8101600781520301902090565b3461021e57602036600319011261021e576004356001600160401b03811161021e5760ff6107df6107da6020933690600401610272565b61077d565b54166040519015158152f35b3461021e57602036600319011261021e57610804610611565b61080c612026565b6001600160a01b038116610821811515611718565b600052600360205260ff60406000205416610861576001600160a01b0381166000908152600360205260409020610758919061085c9061047d565b611756565b60405162461bcd60e51b815260206004820152601160248201527020b63932b0b23c903b30b634b230ba37b960791b6044820152606490fd5b3461021e576104676102586108da61047d61046d6108b73661035e565b9392969161043461042f6103ec8a60409c958d51928391876020840194856117a8565b6001546108ef906001600160a01b031661049b565b82516319eba01560e31b8152916020838061090d84600483016115c0565b0381855afa9283156105a7576000936109c8575b5061092d8315156115dd565b813b1561021e57600084518093633fc2686960e21b825281838161097e896004830160a091815260006020820152606060408201526008606082015267155b9b1bd8dad95960c21b60808201520190565b03925af19182156105a7576109979261058e575061161e565b82514281527fd69a3b593b29f590f1e4f80795d05399d49b300394d7b48eedc449026cb216f490806020810161057d565b6109e291935060203d6020116105d6576105c78183610251565b9138610921565b3461021e57600080600319360112610a4457610a03612026565b80546001600160a01b03198116825581906001600160a01b03167f8be0079c531659141344cd1fd0a4f28419497f9722a3daafe3b4186f6b6457e08280a380f35b80fd5b3461021e57602036600319011261021e57600435610a63612026565b8015610ab1576004548111610a7757600555005b60405162461bcd60e51b81526020600482015260126024820152710a8d0e4cae6d0ded8c840e8dede40d0d2ced60731b6044820152606490fd5b60405162461bcd60e51b815260206004820152601560248201527405468726573686f6c64206d757374206265203e203605c1b6044820152606490fd5b3461021e57610b9061047d61042f6107da61047d61043461046d610258610467610b173661035e565b969192809a91610b6a606860405180936020820195671054141493d5915160c21b8752610b4e81518092602060288701910161075a565b8201908960288301526048820152036048810184520182610251565b51902060405161042581610b82602082019485611467565b03601f198101835282610251565b60405160018152602090f35b3461021e576104676102586108da61047d61046d610bb93661035e565b9392969161043461042f6103ec8a60409c958d51928391876020840194856117cf565b3461021e57600036600319011261021e576020600554604051908152f35b3461021e57600036600319011261021e576000546040516001600160a01b039091168152602090f35b3461021e57604036600319011261021e576024356001600160401b03811161021e57610c60610c586020923690600401610272565b600435611868565b6040516001600160a01b039091168152f35b3461021e5760a036600319011261021e576001600160401b0360043581811161021e57610ca3903690600401610272565b6024359160443560843591821161021e5761047d610d249161046d610258610467610cd3899736906004016102df565b9361043461042f8a610cfb61042560409e8f938451938491896020840194606435928661194e565b0392610d0f601f1994858101835282610251565b51902092519182610419602082019586611467565b600154610d39906001600160a01b031661049b565b916020845180946319eba01560e31b82528180610d5986600483016115c0565b03915afa9283156105a757600093610e0d575b50610d788315156115dd565b600254610d8d906001600160a01b031661049b565b803b1561021e578451631fde780560e01b81526004810185905260248101849052906000908290604490829084905af180156105a7577f5f6b374a1ee52061eaf49a202db87a381913e45bf87161d06b46a0974afaff879261057d92610df79261058e575061161e565b8551938452426020850152929081906040820190565b610e2791935060203d6020116105d6576105c78183610251565b9138610d6c565b3461021e57602036600319011261021e57610e47610611565b610e4f612026565b6001600160a01b0316610e63811515611718565b600180546001600160a01b031916919091179055005b3461021e57602036600319011261021e57610e92610611565b610e9a612026565b6001600160a01b0316610eae811515611718565b600280546001600160a01b031916919091179055005b634e487b7160e01b600052603260045260246000fd5b600454811015610ef557600460005260206000200190600090565b610ec4565b3461021e57602036600319011261021e5760043560045481101561021e57600460005260008051602061205383398151915201546040516001600160a01b039091168152602090f35b3461021e57600080600319360112610a4457604051809160045490818352602080930180926004835284832090835b818110610fcf5750505084610f88910385610251565b60405193838594850191818652518092526040850193925b828110610faf57505050500390f35b83516001600160a01b031685528695509381019392810192600101610fa0565b82546001600160a01b031684529286019260019283019201610f72565b3461021e57604036600319011261021e576024356001600160401b03811161021e5761102961102160209236906004016102df565b600435611a24565b6040519015158152f35b3461021e57610b906106c261042f6107da61047d61043461046d61025861046761105c3661035e565b969192809a91610b6a6069604051809360208201956810d05390d15313115160ba1b875261109481518092602060298701910161075a565b8201908960298301526049820152036049810184520182610251565b3461021e5761016036600319011261021e576001600160401b0360043581811161021e576110e2903690600401610272565b906110eb610627565b60c43582811161021e57611103903690600401610272565b9060e43583811161021e5761111c903690600401610272565b936101443593841161021e5761058a9461113d61115d9536906004016102df565b936101243593610104359360a43591608435916064359160443591611c81565b6040519081529081906020820190565b3461021e57600036600319011261021e576002546040516001600160a01b039091168152602090f35b3461021e5760c036600319011261021e576001600160401b0360043581811161021e576111c7903690600401610272565b9060443581811161021e576111e0903690600401610272565b9160a43591821161021e5761058a926112006112129336906004016102df565b91608435916064359160243590611e68565b60405190151581529081906020820190565b3461021e57602036600319011261021e5761123d610611565b611245612026565b6001600160a01b03908116801561129357600080546001600160a01b03198116831782559092167f8be0079c531659141344cd1fd0a4f28419497f9722a3daafe3b4186f6b6457e08380a380f35b604051631e4fbdf760e01b815260006004820152602490fd5b3461021e57602036600319011261021e576001600160a01b036112cd610611565b166000526003602052602060ff604060002054166040519015158152f35b3461021e5761046761025861132b61047d61046d6113083661035e565b9392969161043461042f6103ec8a60409c958d5192839187602084019485611fb5565b600154611340906001600160a01b031661049b565b82516319eba01560e31b8152916020838061135e84600483016115c0565b0381855afa9283156105a75760009361140f575b5061137e831515611fe8565b813b1561021e576000845180936394cf1fb160e01b82528183816113a587600483016115c0565b03925af19182156105a7576113cb926113fc575b506113c66106c28261077d565b61161e565b82514281527fda9bed044096bb6e5507a7cf22eccbcc0df5e33825b2098e364bb7db781c805e90806020810161057d565b8061059b61140992610239565b386113b9565b61142991935060203d6020116105d6576105c78183610251565b9138611372565b9060489391672820a4a22fa7a32360c11b815261145782518093602060088501910161075a565b0191600883015260288201520190565b603c917f19457468657265756d205369676e6564204d6573736167653a0a3332000000008252601c8201520190565b1561149d57565b60405162461bcd60e51b8152602060048201526012602482015271496e76616c6964207369676e61747572657360701b6044820152606490fd5b156114de57565b60405162461bcd60e51b8152602060048201526011602482015270105b1c9958591e481c1c9bd8d95cdcd959607a1b6044820152606490fd5b634e487b7160e01b600052601160045260246000fd5b60001981019190821161153c57565b611517565b9190820391821161153c57565b1561155557565b60405162461bcd60e51b815260206004820152600f60248201526e13595cdcd859d9481d1bdbc81bdb19608a1b6044820152606490fd5b9081602091031261021e575190565b906020916115b48151809281855285808601910161075a565b601f01601f1916010190565b9060206103a992818152019061159b565b6040513d6000823e3d90fd5b156115e457565b60405162461bcd60e51b8152602060048201526012602482015271131bd85b881b9bdd081d1bdad95b9a5e995960721b6044820152606490fd5b6116369060206040519282848094519384920161075a565b810103902090565b1561164557565b60405162461bcd60e51b815260206004820152600f60248201526e2737ba1030903b30b634b230ba37b960891b6044820152606490fd5b1561168357565b60405162461bcd60e51b815260206004820152601560248201527415dbdd5b1908189c99585ac81d1a1c995cda1bdb19605a1b6044820152606490fd5b6004548015611702576000198181019180831015610ef5576004600081905291016000805160206120538339815191520180546001600160a01b031916905555565b634e487b7160e01b600052603160045260246000fd5b1561171f57565b60405162461bcd60e51b815260206004820152600f60248201526e496e76616c6964206164647265737360881b6044820152606490fd5b600454600160401b81101561024c576001810180600455811015610ef55760046000526000805160206120538339815191520180546001600160a01b0319166001600160a01b03909216919091179055565b90604893916715539313d0d2d15160c21b815261145782518093602060088501910161075a565b90605093916f454d455247454e43595f554e4c4f434b60801b81526117fe82518093602060108501910161075a565b0191601083015260308201520190565b60ff601b9116019060ff821161153c57565b1561182757565b60405162461bcd60e51b8152602060048201526019602482015278496e76616c6964207369676e617475726520762076616c756560381b6044820152606490fd5b604182510361190e576020916000918291848101519260606040830151920151901a92601b84106118f7575b906118d8916118b260ff8616601b81149081156118ec575b50611820565b604051948594859094939260ff6060936080840197845216602083015260408201520152565b838052039060015afa156105a75760005190565b601c915014386118ac565b92906119056118d89261180e565b93909150611894565b60405162461bcd60e51b8152602060048201526018602482015277092dcecc2d8d2c840e6d2cedcc2e8eae4ca40d8cadccee8d60431b6044820152606490fd5b90606794929391661410565351539560ca1b815261197682518093602060078501910161075a565b01926007840152602783015260478201520190565b1561199257565b60405162461bcd60e51b81526020600482015260156024820152744e6f7420656e6f756768207369676e61747572657360581b6044820152606490fd5b906119d9826102c8565b6119e66040519182610251565b82815280926119f7601f19916102c8565b0190602036910137565b8051821015610ef55760209160051b010190565b600019811461153c5760010190565b9190805191611a386005548094101561198b565b611a4282516119cf565b91600091825b8251811015611b2757611a65611a5e8285611a01565b5188611868565b6001600160a01b0381166000908152600360205260409020611a8a9061045890610451565b611b1e5760006001600160a01b038216815b878110611ae7575b505015611ab7575b506001905b01611a48565b84611adb611ae092611acc600195988a611a01565b6001600160a01b039091169052565b611a15565b9390611aac565b81611b0561049b611af8848d611a01565b516001600160a01b031690565b14611b1257600101611a9c565b50505060013880611aa4565b50600190611ab1565b509450509050101590565b9060d89a9897969492959391631352539560e21b8152611b5c82518093602060048501910161075a565b01946bffffffffffffffffffffffff199060601b1660048601526018850152603884015260588301526078820152611b9e82518093602060988501910161075a565b01611bb382518093602060988501910161075a565b0191609883015260b88201520190565b15611bca57565b60405162461bcd60e51b815260206004820152602a60248201527f4c6f616e206e6f7420617070726f766564206f72207761732063616e63656c6c604482015269656420696e204265737560b01b6064820152608490fd5b9692936103a998969294611c42611c739793610100808c528b019061159b565b6001600160a01b0390961660208a015260408901526060880152608087015260a086015284820360c086015261159b565b9160e081840391015261159b565b97968686611d1461047d879e611d00879f8f999d60209f8f8e9f8c9f9160009f8f909e611d479f8f98876102589a6104679a61042f986104349a611cd1966040519a6020998c9a8b019b8c611b32565b0391611ce5601f1993848101835282610251565b51902090610425604051916020610419849182019586611467565b61046d611d0f6104518a61077d565b611bc3565b600154611d29906001600160a01b031661049b565b976040519d8e9a8b998a9863e7754d1160e01b8a5260048a01611c22565b03925af19283156105a757600093611dd7575b50611d9b8184611d6a819461161e565b6040514281527ff09996b9b0eb4e6c1e6f21b808fb119c4169312f15e667f35b9900530712a53b90602090a361161e565b6040514281526001600160a01b0393909316927fdca3630c28a9da1477fb823057d822d0e3ddb8834c928726d348e8fb3544a64790602090a490565b611d9b9350611df49060203d6020116105d6576105c78183610251565b92611d5a565b906066959392916555504441544560d01b8152611e2182518093602060068501910161075a565b01906006820152611e3c82518093602060268501910161075a565b0191602683015260468201520190565b6103a9939260609282526020820152816040820152019061159b565b929461046d610258610467859861043461042f611ec9988a89611e9b61047d9b9e87604051958694602086019687611dfa565b0391611eaf601f1993848101835282610251565b519020906104256040519182610419602082019586611467565b600154611ede906001600160a01b031661049b565b91604051936319eba01560e31b855260208580611efe86600483016115c0565b0381875afa9485156105a757600095611f94575b50611f1e8515156115dd565b833b1561021e57611f4a9360009283604051809781958294633fc2686960e21b84528b60048501611e4c565b03925af19182156105a757611f639261058e575061161e565b6040514281527fff1488042f54db04cb79ce08410ecdcbead34276b0e11b2ccb7074918799146390602090a3600190565b611fae91955060203d6020116105d6576105c78183610251565b9338611f12565b906044939163212aa92760e11b8152611fd882518093602060048501910161075a565b0191600483015260248201520190565b15611fef57565b60405162461bcd60e51b815260206004820152600f60248201526e131bd85b881b9bdd081b5a5b9d1959608a1b6044820152606490fd5b6000546001600160a01b0316330361203a57565b60405163118cdaa760e01b8152336004820152602490fdfe8a35acfbc15ff81a39ae7d344fd709f28e8600b4aa8c65c6b64bfe7fe36bd19ba164736f6c6343000818000a",
  "linkReferences": {},
  "deployedLinkReferences": {}
}