{
  "_format": "hh-sol-artifact-1",
  "contractName": "LoanMarketplace",
  "sourceName": "src/avalanche/LoanMarketplace.sol",
  "abi": [
    {
      "inputs": [
        {
          "internalType": "address",
          "name": "initialOwner",
          "type": "address"
        },
        {
          "internalType": "address",
          "name": "_loanNFT",
          "type": "address"
        },
        {
          "internalType": "address",
          "name": "_paymentToken",
          "type": "address"
        },
        {
          "internalType": "address",
          "name": "_feeRecipient",
          "type": "address"
        }
      ],
      "stateMutability": "nonpayable",
      "type": "constructor"
    },
    {
      "inputs": [
        {
          "internalType": "address",
          "name": "owner",
          "type": "address"
        }
      ],
      "name": "OwnableInvalidOwner",
      "type": "error"
    },
    {
      "inputs": [
        {
          "internalType": "address",
          "name": "account",
          "type": "address"
        }
      ],
      "name": "OwnableUnauthorizedAccount",
      "type": "error"
    },
    {
      "inputs": [],
      "name": "ReentrancyGuardReentrantCall",
      "type": "error"
    },
    {
      "anonymous": false,
      "inputs": [
        {
          "indexed": true,
          "internalType": "uint256",
          "name": "tokenId",
          "type": "uint256"
        },
        {
          "indexed": true,
          "internalType": "address",
          "name": "seller",
          "type": "address"
        },
        {
          "indexed": false,
          "internalType": "uint256",
          "name": "timestamp",
          "type": "uint256"
        }
      ],
      "name": "ListingCancelled",
      "type": "event"
    },
    {
      "anonymous": false,
      "inputs": [
        {
          "indexed": true,
          "internalType": "uint256",
          "name": "tokenId",
          "type": "uint256"
        },
        {
          "indexed": false,
          "internalType": "uint256",
          "name": "oldPrice",
          "type": "uint256"
        },
        {
          "indexed": false,
          "internalType": "uint256",
          "name": "newPrice",
          "type": "uint256"
        },
        {
          "indexed": false,
          "internalType": "uint256",
          "name": "timestamp",
          "type": "uint256"
        }
      ],
      "name": "ListingPriceUpdated",
      "type": "event"
    },
    {
      "anonymous": false,
      "inputs": [
        {
          "indexed": true,
          "internalType": "uint256",
          "name": "tokenId",
          "type": "uint256"
        },
        {
          "indexed": true,
          "internalType": "address",
          "name": "seller",
          "type": "address"
        },
        {
          "indexed": false,
          "internalType": "uint256",
          "name": "price",
          "type": "uint256"
        },
        {
          "indexed": false,
          "internalType": "uint256",
          "name": "timestamp",
          "type": "uint256"
        }
      ],
      "name": "LoanListed",
      "type": "event"
    },
    {
      "anonymous": false,
      "inputs": [
        {
          "indexed": true,
          "internalType": "uint256",
          "name": "tokenId",
          "type": "uint256"
        },
        {
          "indexed": true,
          "internalType": "address",
          "name": "seller",
          "type": "address"
        },
        {
          "indexed": true,
          "internalType": "address",
          "name": "buyer",
          "type": "address"
        },
        {
          "indexed": false,
          "internalType": "uint256",
          "name": "price",
          "type": "uint256"
        },
        {
          "indexed": false,
          "internalType": "uint256",
          "name": "fee",
          "type": "uint256"
        },
        {
          "indexed": false,
          "internalType": "uint256",
          "name": "timestamp",
          "type": "uint256"
        }
      ],
      "name": "LoanSold",
      "type": "event"
    },
    {
      "anonymous": false,
      "inputs": [
        {
          "indexed": false,
          "internalType": "uint256",
          "name": "oldFee",
          "type": "uint256"
        },
        {
          "indexed": false,
          "internalType": "uint256",
          "name": "newFee",
          "type": "uint256"
        },
        {
          "indexed": false,
          "internalType": "uint256",
          "name": "timestamp",
          "type": "uint256"
        }
      ],
      "name": "MarketplaceFeeUpdated",
      "type": "event"
    },
    {
      "anonymous": false,
      "inputs": [
        {
          "indexed": true,
          "internalType": "address",
          "name": "previousOwner",
          "type": "address"
        },
        {
          "indexed": true,
          "internalType": "address",
          "name": "newOwner",
          "type": "address"
        }
      ],
      "name": "OwnershipTransferred",
      "type": "event"
    },
    {
      "inputs": [],
      "name": "MAX_FEE",
      "outputs": [
        {
          "internalType": "uint256",
          "name": "",
          "type": "uint256"
        }
      ],
      "stateMutability": "view",
      "type": "function"
    },
    {
      "inputs": [
        {
          "internalType": "uint256",
          "name": "tokenId",
          "type": "uint256"
        }
      ],
      "name": "buyLoan",
      "outputs": [],
      "stateMutability": "nonpayable",
      "type": "function"
    },
    {
      "inputs": [
        {
          "internalType": "uint256",
          "name": "price",
          "type": "uint256"
        }
      ],
      "name": "calculateFee",
      "outputs": [
        {
          "internalType": "uint256",
          "name": "",
          "type": "uint256"
        }
      ],
      "stateMutability": "view",
      "type": "function"
    },
    {
      "inputs": [
        {
          "internalType": "uint256",
          "name": "tokenId",
          "type": "uint256"
        }
      ],
      "name": "canBeListed",
      "outputs": [
        {
          "internalType": "bool",
          "name": "",
          "type": "bool"
        }
      ],
      "stateMutability": "view",
      "type": "function"
    },
    {
      "inputs": [
        {
          "internalType": "uint256",
          "name": "tokenId",
          "type": "uint256"
        }
      ],
      "name": "cancelListing",
      "outputs": [],
      "stateMutability": "nonpayable",
      "type": "function"
    },
    {
      "inputs": [
        {
          "internalType": "uint256",
          "name": "tokenId",
          "type": "uint256"
        }
      ],
      "name": "emergencyCancelListing",
      "outputs": [],
      "stateMutability": "nonpayable",
      "type": "function"
    },
    {
      "inputs": [
        {
          "internalType": "uint256[]",
          "name": "tokenIds",
          "type": "uint256[]"
        }
      ],
      "name": "emergencyCancelMultiple",
      "outputs": [],
      "stateMutability": "nonpayable",
      "type": "function"
    },
    {
      "inputs": [
        {
          "internalType": "address",
          "name": "token",
          "type": "address"
        },
        {
          "internalType": "uint256",
          "name": "amount",
          "type": "uint256"
        }
      ],
      "name": "emergencyWithdraw",
      "outputs": [],
      "stateMutability": "nonpayable",
      "type": "function"
    },
    {
      "inputs": [],
      "name": "feeRecipient",
      "outputs": [
        {
          "internalType": "address",
          "name": "",
          "type": "address"
        }
      ],
      "stateMutability": "view",
      "type": "function"
    },
    {
      "inputs": [
        {
          "internalType": "uint256",
          "name": "tokenId",
          "type": "uint256"
        }
      ],
      "name": "getInvalidReason",
      "outputs": [
        {
          "internalType": "string",
          "name": "",
          "type": "string"
        }
      ],
      "stateMutability": "view",
      "type": "function"
    },
    {
      "inputs": [
        {
          "internalType": "uint256",
          "name": "tokenId",
          "type": "uint256"
        }
      ],
      "name": "getListing",
      "outputs": [
        {
          "components": [
            {
              "internalType": "address",
              "name": "seller",
              "type": "address"
            },
            {
              "internalType": "uint256",
              "name": "price",
              "type": "uint256"
            },
            {
              "internalType": "bool",
              "name": "isActive",
              "type": "bool"
            },
            {
              "internalType": "uint256",
              "name": "listedAt",
              "type": "uint256"
            }
          ],
          "internalType": "struct LoanMarketplace.Listing",
          "name": "",
          "type": "tuple"
        }
      ],
      "stateMutability": "view",
      "type": "function"
    },
    {
      "inputs": [
        {
          "internalType": "uint256",
          "name": "tokenId",
          "type": "uint256"
        }
      ],
      "name": "getListingPrice",
      "outputs": [
        {
          "internalType": "uint256",
          "name": "",
          "type": "uint256"
        }
      ],
      "stateMutability": "view",
      "type": "function"
    },
    {
      "inputs": [
        {
          "internalType": "uint256",
          "name": "price",
          "type": "uint256"
        }
      ],
      "name": "getSellerAmount",
      "outputs": [
        {
          "internalType": "uint256",
          "name": "",
          "type": "uint256"
        }
      ],
      "stateMutability": "view",
      "type": "function"
    },
    {
      "inputs": [
        {
          "internalType": "uint256",
          "name": "tokenId",
          "type": "uint256"
        }
      ],
      "name": "isListed",
      "outputs": [
        {
          "internalType": "bool",
          "name": "",
          "type": "bool"
        }
      ],
      "stateMutability": "view",
      "type": "function"
    },
    {
      "inputs": [
        {
          "internalType": "uint256",
          "name": "tokenId",
          "type": "uint256"
        },
        {
          "internalType": "uint256",
          "name": "price",
          "type": "uint256"
        }
      ],
      "name": "listForSale",
      "outputs": [],
      "stateMutability": "nonpayable",
      "type": "function"
    },
    {
      "inputs": [
        {
          "internalType": "uint256",
          "name": "tokenId",
          "type": "uint256"
        },
        {
          "internalType": "uint256",
          "name": "price",
          "type": "uint256"
        },
        {
          "internalType": "address",
          "name": "seller",
          "type": "address"
        }
      ],
      "name": "listForSaleByRelayer",
      "outputs": [],
      "stateMutability": "nonpayable",
      "type": "function"
    },
    {
      "inputs": [
        {
          "internalType": "uint256",
          "name": "",
          "type": "uint256"
        }
      ],
      "name": "listings",
      "outputs": [
        {
          "internalType": "address",
          "name": "seller",
          "type": "address"
        },
        {
          "internalType": "uint256",
          "name": "price",
          "type": "uint256"
        },
        {
          "internalType": "bool",
          "name": "isActive",
          "type": "bool"
        },
        {
          "internalType": "uint256",
          "name": "listedAt",
          "type": "uint256"
        }
      ],
      "stateMutability": "view",
      "type": "function"
    },
    {
      "inputs": [],
      "name": "loanNFT",
      "outputs": [
        {
          "internalType": "contract ILoanNFT",
          "name": "",
          "type": "address"
        }
      ],
      "stateMutability": "view",
      "type": "function"
    },
    {
      "inputs": [],
      "name": "marketplaceFee",
      "outputs": [
        {
          "internalType": "uint256",
          "name": "",
          "type": "uint256"
        }
      ],
      "stateMutability": "view",
      "type": "function"
    },
    {
      "inputs": [],
      "name": "owner",
      "outputs": [
        {
          "internalType": "address",
          "name": "",
          "type": "address"
        }
      ],
      "stateMutability": "view",
      "type": "function"
    },
    {
      "inputs": [],
      "name": "paymentToken",
      "outputs": [
        {
          "internalType": "contract IERC20",
          "name": "",
          "type": "address"
        }
      ],
      "stateMutability": "view",
      "type": "function"
    },
    {
      "inputs": [],
      "name": "relayer",
      "outputs": [
        {
          "internalType": "address",
          "name": "",
          "type": "address"
        }
      ],
      "stateMutability": "view",
      "type": "function"
    },
    {
      "inputs": [],
      "name": "renounceOwnership",
      "outputs": [],
      "stateMutability": "nonpayable",
      "type": "function"
    },
    {
      "inputs": [
        {
          "internalType": "address",
          "name": "newRecipient",
          "type": "address"
        }
      ],
      "name": "setFeeRecipient",
      "outputs": [],
      "stateMutability": "nonpayable",
      "type": "function"
    },
    {
      "inputs": [
        {
          "internalType": "address",
          "name": "_loanNFT",
          "type": "address"
        }
      ],
      "name": "setLoanNFT",
      "outputs": [],
      "stateMutability": "nonpayable",
      "type": "function"
    },
    {
      "inputs": [
        {
          "internalType": "uint256",
          "name": "newFee",
          "type": "uint256"
        }
      ],
      "name": "setMarketplaceFee",
      "outputs": [],
      "stateMutability": "nonpayable",
      "type": "function"
    },
    {
      "inputs": [
        {
          "internalType": "address",
          "name": "_token",
          "type": "address"
        }
      ],
      "name": "setPaymentToken",
      "outputs": [],
      "stateMutability": "nonpayable",
      "type": "function"
    },
    {
      "inputs": [
        {
          "internalType": "address",
          "name": "_relayer",
          "type": "address"
        }
      ],
      "name": "setRelayer",
      "outputs": [],
      "stateMutability": "nonpayable",
      "type": "function"
    },
    {
      "inputs": [],
      "name": "totalSales",
      "outputs": [
        {
          "internalType": "uint256",
          "name": "",
          "type": "uint256"
        }
      ],
      "stateMutability": "view",
      "type": "function"
    },
    {
      "inputs": [],
      "name": "totalVolume",
      "outputs": [
        {
          "internalType": "uint256",
          "name": "",
          "type": "uint256"
        }
      ],
      "stateMutability": "view",
      "type": "function"
    },
    {
      "inputs": [
        {
          "internalType": "address",
          "name": "newOwner",
          "type": "address"
        }
      ],
      "name": "transferOwnership",
      "outputs": [],
      "stateMutability": "nonpayable",
      "type": "function"
    },
    {
      "inputs": [
        {
          "internalType": "uint256",
          "name": "tokenId",
          "type": "uint256"
        },
        {
          "internalType": "uint256",
          "name": "newPrice",
          "type": "uint256"
        }
      ],
      "name": "updateListingPrice",
      "outputs": [],
      "stateMutability": "nonpayable",
      "type": "function"
    }
  ],
  "bytecode": "0x6080346200020257601f62001ee838819003918201601f191683019291906001600160401b0384118385101762000207578160809284926040968752833981010312620002025762000051816200021d565b9062000060602082016200021d565b916200007c6060620000748685016200021d565b93016200021d565b6001600160a01b03918216929091908315620001ea57816000549560018060a01b031995808789161760005582895198167f8be0079c531659141344cd1fd0a4f28419497f9722a3daafe3b4186f6b6457e0600080a36001805560fa60045516948515620001a8575081169182156200016457169283156200012057826002541617600255816003541617600355600554161760055551611cb59081620002338239f35b845162461bcd60e51b815260206004820152601560248201527f496e76616c69642066656520726563697069656e7400000000000000000000006044820152606490fd5b855162461bcd60e51b815260206004820152601560248201527f496e76616c696420746f6b656e206164647265737300000000000000000000006044820152606490fd5b62461bcd60e51b815260206004820152601360248201527f496e76616c6964204e46542061646472657373000000000000000000000000006044820152606490fd5b8551631e4fbdf760e01b815260006004820152602490fd5b600080fd5b634e487b7160e01b600052604160045260246000fd5b51906001600160a01b0382168203620002025756fe6080604081815260048036101561001557600080fd5b600092833560e01c908163107a274a1461151e575080632782f98e146112e95780633013ce29146112c0578063305a67a8146111ca57806334a41177146111a1578063469048401461117857806354d3d34d1461107a5780635f81a57c1461105b5780636548e9bc1461100e5780636605ff6614610fef5780636a16696414610fd25780636a326ab114610f85578063715018a614610f3d5780638406c07914610f145780638da5cb5b14610eec5780639407ea9814610e4c57806395ccea6714610d7f57806399a5d74714610d5f5780639f4a714214610d12578063bc063e1a14610cf5578063c460494314610c2c578063c56370e914610bbc578063c5bdd9bb14610b6e578063ccd89401146106c5578063d6077fbf14610682578063dc14795d14610651578063de74e57b146105fb578063e74b981b146105ae578063e80d7fec14610257578063f1c88b4b1461022b578063f2fde38b146101b55763fcce48831461018357600080fd5b346101b15760203660031901126101b15760028260209460ff93358152600786522001541690519015158152f35b8280fd5b50346101b15760203660031901126101b1576101cf6115b9565b906101d8611c1c565b6001600160a01b039182169283156102155750506000548260018060a01b031982161760005516600080516020611c69833981519152600080a380f35b51631e4fbdf760e01b8152908101849052602490fd5b509134610254576020366003190112610254575061024b60209235611b2f565b90519015158152f35b80fd5b50346101b157610266366115d4565b929091610271611b96565b61027c84151561167c565b60025482516331a9108f60e11b81528083018590526020926001600160a01b0392909160249184169085818481855afa9081156104cd578a91610591575b50843391160361055d57868952600785526102de60ff6002888c20015416156116db565b855163604ed12b60e01b815283810188905289818481855afa9081156104cd5790610310918b9161053b575b50611bb9565b156104d757855163020604bf60e21b815283810188905285818481855afa9081156104cd579086918b916104a0575b5085163014918215610432575b5050156103e25750509082916003600080516020611c898339815191529451916103758361160d565b3383526103ca848401898152868501906001825260608601934285528a8d5260078852888d2096511660018060a01b0319875416178655516001860155511515600285019060ff801983541691151516179055565b51910155815194855242908501523393a36001805580f35b845162461bcd60e51b81529182018490526025908201527f4d61726b6574706c616365206e6f7420617070726f76656420666f72207468696044820152641cc813919560da1b6064820152608490fd5b875163e985e9c560e01b8152338682015230858201529250829060449082905afa908115610496578991610469575b50843861034c565b6104899150853d871161048f575b6104818183611659565b8101906118ee565b38610461565b503d610477565b86513d8b823e3d90fd5b6104c09150823d84116104c6575b6104b88183611659565b8101906116bc565b3861033f565b503d6104ae565b87513d8c823e3d90fd5b855162461bcd60e51b81528084018690526039818401527f4c6f616e2063616e6e6f74206265206c6973746564202870616964206f66662c60448201527820666f7265636c6f7365642c206f7220756e6c6f636b65642960381b6064820152608490fd5b61055791503d808d833e61054f8183611659565b81019061176c565b3861030a565b855162461bcd60e51b8152808401869052600f818401526e2737ba103a37b5b2b71037bbb732b960891b6044820152606490fd5b6105a89150863d88116104c6576104b88183611659565b386102ba565b8334610254576020366003190112610254576105c86115b9565b6105d0611c1c565b6001600160a01b03166105e481151561189a565b600580546001600160a01b03191691909117905580f35b50346101b15760203660031901126101b157608092829135815260076020522060018060a01b0381541691600182015491600360ff60028301541691015492825194855260208501521515908301526060820152f35b509134610254576020366003190112610254575061067b6020923561067581611906565b90611b00565b9051908152f35b50346101b15760203660031901126101b1578160209360019235808252600786526106b560ff600285852001541661183b565b8152600785522001549051908152f35b5090346101b15760209182600319360112610b6a578035906106e5611b96565b818552600784528285209083516106fb8161160d565b60018060a01b0391828454168252600184015493878301948552600360ff600283015416159182158986015201546060840152610b3857828251163314610afc5760025486516331a9108f60e11b81528281018790526024959185169089818881855afa9081156109d1578b91610adf575b508580865116911603610aa15789869189519283809263604ed12b60e01b82528b888301525afa90811561092b57906107ac918b9161053b5750611bb9565b15610a3f5751936107bc85611906565b976107c78987611b00565b878b52600782526002898c200160ff1981541690558a82610809886003541689895116948d519485809481936323b872dd60e01b998a84528d33908501611b0d565b03925af1908115610a35578c91610a18575b50156109db578a8a8a9281610939575b505050505083600254168985855116823b1561093557610864928991838c51809681958294632142170760e11b845233908c8501611b0d565b03925af1801561092b576108ff575b5060085460001981146108ed57600101600855600954918583018093116108dc575050917fed1204cf140d05d4f199b0b430250983e30b85144a375fc008b49290b2b34cc693916108d2936009555116945191829133974291846118d8565b0390a46001805580f35b634e487b7160e01b8a526011905288fd5b50634e487b7160e01b89526011825288fd5b9098906001600160401b0381116109195787529738610873565b5060418992634e487b7160e01b835252fd5b88513d8c823e3d90fd5b5080fd5b61095e9385938a60035416928b600554169251968795869485938452338d8501611b0d565b03925af19081156109d1578b916109b4575b501561097f57878a8a8361082b565b875162461bcd60e51b81529283015260129082015271119959481c185e5b595b9d0819985a5b195960721b6044820152606490fd5b6109cb9150823d841161048f576104818183611659565b38610970565b89513d8d823e3d90fd5b885162461bcd60e51b81528085018390526018818501527714185e5b595b9d081d1bc81cd95b1b195c8819985a5b195960421b6044820152606490fd5b610a2f9150833d851161048f576104818183611659565b3861081b565b8a513d8e823e3d90fd5b865162461bcd60e51b81528083018990526037818701527f4c6f616e2063616e6e6f7420626520736f6c64202870616964206f66662c20666044820152766f7265636c6f7365642c206f7220756e6c6f636b65642960481b6064820152608490fd5b875162461bcd60e51b81528084018a90526019818801527814d95b1b195c881b9bc81b1bdb99d95c881bdddb9cc8139195603a1b6044820152606490fd5b610af691508a3d8c116104c6576104b88183611659565b3861076d565b855162461bcd60e51b8152908101879052601660248201527543616e6e6f7420627579206f776e206c697374696e6760501b6044820152606490fd5b855162461bcd60e51b8152908101879052600c60248201526b4e6f7420666f722073616c6560a01b6044820152606490fd5b8380fd5b5082346102545760203660031901126102545750610b8c90356119a6565b908051809260208252610bae81518092816020860152602086860191016115ea565b601f01601f19168101030190f35b50346101b15760203660031901126101b15735610bd7611c1c565b8083526007602052610bf160ff600284862001541661183b565b8083526007602052600080516020611c49833981519152602083852093600260018060a01b03865416950160ff19815416905551428152a380f35b5090346101b157610c3c366115d4565b9092610c46611b96565b838552600760205282852090610c6260ff60028401541661183b565b81546001600160a01b03163303610cc5575090610cbb60017fa353b0f8bf69b8530691fd6506a1df95517036cfcd1ac2a82a1219e6b10f8d159493610ca884151561167c565b01928284549455519283924291846118d8565b0390a26001805580f35b606490602085519162461bcd60e51b8352820152600a6024820152692737ba1039b2b63632b960b11b6044820152fd5b505034610935578160031936011261093557602090516103e88152f35b833461025457602036600319011261025457610d2c6115b9565b610d34611c1c565b6001600160a01b0316610d4881151561189a565b600280546001600160a01b03191691909117905580f35b509134610254576020366003190112610254575061067b60209235611906565b5090346101b157806003193601126101b157610d996115b9565b610da1611c1c565b8354825163a9059cbb60e01b81526001600160a01b0391821685820152602480359082015291602091839160449183918991165af1908115610e42578491610e23575b5015610dee578280f35b906020606492519162461bcd60e51b8352820152600f60248201526e15da5d1a191c985dc819985a5b1959608a1b6044820152fd5b610e3c915060203d60201161048f576104818183611659565b38610de4565b82513d86823e3d90fd5b50829034610935576020366003190112610935578035610e6a611c1c565b6103e88111610eb057610eaa7fcddce7ef430c4766c1f253a66171f8fd727b7db83a665a26261bd1aa9afbcbe393948284549455519283924291846118d8565b0390a180f35b835162461bcd60e51b8152602081840152601660248201527546656520746f6f206869676820286d6178203130252960501b6044820152606490fd5b505034610935578160031936011261093557905490516001600160a01b039091168152602090f35b50503461093557816003193601126109355760065490516001600160a01b039091168152602090f35b8334610254578060031936011261025457610f56611c1c565b80546001600160a01b03198116825581906001600160a01b0316600080516020611c698339815191528280a380f35b833461025457602036600319011261025457610f9f6115b9565b610fa7611c1c565b6001600160a01b0316610fbb81151561189a565b600380546001600160a01b03191691909117905580f35b50346101b157826003193601126101b15760209250549051908152f35b5050346109355781600319360112610935576020906008549051908152f35b8334610254576020366003190112610254576110286115b9565b611030611c1c565b6001600160a01b031661104481151561189a565b600680546001600160a01b03191691909117905580f35b5050346109355781600319360112610935576020906009549051908152f35b50346101b1576020916020600319360112610b6a576001600160401b0391803590838211611174573660238301121561117457810135928311611170576024810190602436918560051b010111611170576110d3611c1c565b845b8381106110e0578580f35b806110ee6001928685611874565b3587526007808752600260ff81878b2001541661110e575b5050016110d5565b611119838887611874565b358952818852838060a01b03868a20541691611136848988611874565b358a52885285892001805460ff19169055611152828786611874565b35600080516020611c49833981519152888751428152a33880611106565b8480fd5b8580fd5b50503461093557816003193601126109355760055490516001600160a01b039091168152602090f35b50503461093557816003193601126109355760025490516001600160a01b039091168152602090f35b50346101b157602080600319360112610b6a578135916111e8611b96565b82855260078252838520908451906111ff8261160d565b61123760018060a01b0393848154168452600181015486850152600360ff600283015416151591828a8701520154606085015261183b565b82825116331480156112b4575b15611280575090600080516020611c4983398151915292918487526007835260028688200160ff19815416905551169351428152a36001805580f35b855162461bcd60e51b8152908101849052600e60248201526d139bdd08185d5d1a1bdc9a5e995960921b6044820152606490fd5b50828754163314611244565b50503461093557816003193601126109355760035490516001600160a01b039091168152602090f35b5090346101b15760603660031901126101b1576001600160a01b036044358181169380359392602480359390929087900361151a57816006541633036114ea57611331611b96565b61133c84151561167c565b60025485516331a9108f60e11b81528281018890526020949184169085818481855afa9081156114e0578a9186918d916114c3575b50160361148e578982918982526007875261139560ff60028b8520015416156116db565b88519283809263604ed12b60e01b82528c888301525afa9081156104cd57906113c4918b9161053b5750611bb9565b1561145757505090839291600388611441600080516020611c898339815191529751936113f08561160d565b8a855285850187815288860191600183528960608801954287528d815260078a522096511660018060a01b0319875416178655516001860155511515600285019060ff801983541691151516179055565b5191015582519182524290820152a36001805580f35b855162461bcd60e51b815291820184905260129082015271496e76616c6964206c6f616e20737461746560701b6044820152606490fd5b865162461bcd60e51b81528084018690526010818401526f29b2b63632b9103737ba1037bbb732b960811b6044820152606490fd5b6114da9150883d8a116104c6576104b88183611659565b38611371565b88513d8d823e3d90fd5b606490600b84602088519362461bcd60e51b85528401528201526a2737ba103932b630bcb2b960a91b6044820152fd5b8780fd5b905034610b6a576020366003190112610b6a579282918160608661154360809861160d565b82815282602082015282868201520152358152600760205220908051906115698261160d565b60018060a01b03835416928383526001810154602084019081526060600360ff60028501541693858701941515855201549401938452825194855251602085015251151590830152516060820152f35b600435906001600160a01b03821682036115cf57565b600080fd5b60409060031901126115cf576004359060243590565b60005b8381106115fd5750506000910152565b81810151838201526020016115ed565b608081019081106001600160401b0382111761162857604052565b634e487b7160e01b600052604160045260246000fd5b604081019081106001600160401b0382111761162857604052565b601f909101601f19168101906001600160401b0382119082101761162857604052565b1561168357565b60405162461bcd60e51b815260206004820152601160248201527005072696365206d757374206265203e203607c1b6044820152606490fd5b908160209103126115cf57516001600160a01b03811681036115cf5790565b156116e257565b60405162461bcd60e51b815260206004820152600e60248201526d105b1c9958591e481b1a5cdd195960921b6044820152606490fd5b81601f820112156115cf5780516001600160401b038111611628576040519261174b601f8301601f191660200185611659565b818452602082840101116115cf5761176991602080850191016115ea565b90565b6020818303126115cf5780516001600160401b03918282116115cf5701906101209283838203126115cf57604051938401848110838211176116285760405282518281116115cf57816117c0918501611718565b84526020830151602085015260408301516040850152606083015160608501526080830151608085015260a08301518281116115cf5781611802918501611718565b60a085015260c08301519182116115cf5761181e918301611718565b60c083015260e081015160e0830152610100809101519082015290565b1561184257565b60405162461bcd60e51b815260206004820152600a602482015269139bdd081b1a5cdd195960b21b6044820152606490fd5b91908110156118845760051b0190565b634e487b7160e01b600052603260045260246000fd5b156118a157565b60405162461bcd60e51b815260206004820152600f60248201526e496e76616c6964206164647265737360881b6044820152606490fd5b6040919493926060820195825260208201520152565b908160209103126115cf575180151581036115cf5790565b6004549081810291818304149015171561192257612710900490565b634e487b7160e01b600052601160045260246000fd5b604051906119458261163e565b60088252672830b4b21027b33360c11b6020830152565b604051906119698261163e565b600a825269119bdc9958db1bdcd95960b21b6020830152565b6040519061198f8261163e565b6008825267155b9b1bd8dad95960c21b6020830152565b60018060a01b03600254166000604092602484518094819363604ed12b60e01b835260048301525afa60009181611ae3575b50611a0c5750516119e88161163e565b6014815273151bdad95b88191bd95cc81b9bdd08195e1a5cdd60621b602082015290565b8181015115611abc5760a00151908151602080930120611a2a611938565b8381519101208114611ab157611a3e61195c565b8381519101208114611aa657611a52611982565b83815191012014611a7c576415985b1a5960da1b905191611a728361163e565b6005835282015290565b6f556e6c6f636b656420696e204265737560801b905191611a9c8361163e565b6010835282015290565b50505061176961195c565b505050611769611938565b5051611ac78161163e565b600c81526b5a65726f2062616c616e636560a01b602082015290565b611af99192503d806000833e61054f8183611659565b90386119d8565b9190820391821161192257565b6001600160a01b03918216815291166020820152604081019190915260600190565b60025460405163604ed12b60e01b81526004810192909252600090829060249082906001600160a01b03165afa60009181611b79575b50611b705750600090565b61176990611bb9565b611b8f9192503d806000833e61054f8183611659565b9038611b65565b600260015414611ba7576002600155565b604051633ee5aeb560e01b8152600490fd5b604081015115611c165760a0015160208151910120611bd6611938565b602081519101208114611c1657611beb61195c565b602081519101208114611c1657611c00611982565b6020815191012014611c1157600190565b600090565b50600090565b6000546001600160a01b03163303611c3057565b60405163118cdaa760e01b8152336004820152602490fdfeffadd0f4e7d64abb82ef3d770cd739a881c221c0b5b162238659e6567216abe28be0079c531659141344cd1fd0a4f28419497f9722a3daafe3b4186f6b6457e003fb2513f7ac5da5496f5721a0c6d9bc184373cbe902b09cf167f02460897969a164736f6c6343000818000a",
  "linkReferences": {},
  "deployedLinkReferences": {}
}