{
  "_format": "hh-sol-artifact-1",
  "contractName": "LoanRegistry",
  "sourceName": "src/LoanRegistry.sol",
  "abi": [
    {
      "inputs": [
        {
          "internalType": "address",
          "name": "initialOwner",
          "type": "address"
        },
        {
          "internalType": "address",
          "name": "userRegistryAddress",
          "type": "address"
        }
      ],
      "stateMutability": "nonpayable",
      "type": "constructor"
    },
    {
      "inputs": [
        {
          "internalType": "address",
          "name": "owner",
          "type": "address"
        }
      ],
      "name": "OwnableInvalidOwner",
      "type": "error"
    },
    {
      "inputs": [
        {
          "internalType": "address",
          "name": "account",
          "type": "address"
        }
      ],
      "name": "OwnableUnauthorizedAccount",
      "type": "error"
    },
    {
      "anonymous": false,
      "inputs": [
        {
          "indexed": true,
          "internalType": "string",
          "name": "loanId",
          "type": "string"
        },
        {
          "indexed": false,
          "internalType": "uint256",
          "name": "tokenId",
          "type": "uint256"
        },
        {
          "indexed": false,
          "internalType": "uint256",
          "name": "timestamp",
          "type": "uint256"
        }
      ],
      "name": "AvalancheTokenIdSet",
      "type": "event"
    },
    {
      "anonymous": false,
      "inputs": [
        {
          "indexed": true,
          "internalType": "string",
          "name": "loanId",
          "type": "string"
        },
        {
          "indexed": false,
          "internalType": "bytes32",
          "name": "txId",
          "type": "bytes32"
        },
        {
          "indexed": false,
          "internalType": "uint256",
          "name": "timestamp",
          "type": "uint256"
        }
      ],
      "name": "LoanCreated",
      "type": "event"
    },
    {
      "anonymous": false,
      "inputs": [
        {
          "indexed": true,
          "internalType": "string",
          "name": "loanId",
          "type": "string"
        },
        {
          "indexed": false,
          "internalType": "bytes32",
          "name": "txId",
          "type": "bytes32"
        }
      ],
      "name": "LoanDeleted",
      "type": "event"
    },
    {
      "anonymous": false,
      "inputs": [
        {
          "indexed": true,
          "internalType": "string",
          "name": "loanId",
          "type": "string"
        },
        {
          "indexed": false,
          "internalType": "uint256",
          "name": "timestamp",
          "type": "uint256"
        }
      ],
      "name": "LoanLocked",
      "type": "event"
    },
    {
      "anonymous": false,
      "inputs": [
        {
          "indexed": true,
          "internalType": "string",
          "name": "loanId",
          "type": "string"
        },
        {
          "indexed": false,
          "internalType": "uint256",
          "name": "timestamp",
          "type": "uint256"
        }
      ],
      "name": "LoanUnlocked",
      "type": "event"
    },
    {
      "anonymous": false,
      "inputs": [
        {
          "indexed": true,
          "internalType": "string",
          "name": "loanId",
          "type": "string"
        },
        {
          "indexed": false,
          "internalType": "bytes32",
          "name": "txId",
          "type": "bytes32"
        },
        {
          "indexed": false,
          "internalType": "uint256",
          "name": "changeCount",
          "type": "uint256"
        }
      ],
      "name": "LoanUpdated",
      "type": "event"
    },
    {
      "anonymous": false,
      "inputs": [
        {
          "indexed": true,
          "internalType": "string",
          "name": "loanId",
          "type": "string"
        },
        {
          "indexed": false,
          "internalType": "uint256",
          "name": "newBalance",
          "type": "uint256"
        },
        {
          "indexed": false,
          "internalType": "string",
          "name": "newStatus",
          "type": "string"
        },
        {
          "indexed": false,
          "internalType": "uint256",
          "name": "timestamp",
          "type": "uint256"
        }
      ],
      "name": "LockedLoanUpdated",
      "type": "event"
    },
    {
      "anonymous": false,
      "inputs": [
        {
          "indexed": true,
          "internalType": "address",
          "name": "previousOwner",
          "type": "address"
        },
        {
          "indexed": true,
          "internalType": "address",
          "name": "newOwner",
          "type": "address"
        }
      ],
      "name": "OwnershipTransferred",
      "type": "event"
    },
    {
      "inputs": [
        {
          "internalType": "string",
          "name": "lenderUid",
          "type": "string"
        }
      ],
      "name": "countLoansByLenderUid",
      "outputs": [
        {
          "internalType": "uint256",
          "name": "",
          "type": "uint256"
        }
      ],
      "stateMutability": "view",
      "type": "function"
    },
    {
      "inputs": [
        {
          "internalType": "string",
          "name": "_LoanUid",
          "type": "string"
        },
        {
          "internalType": "string",
          "name": "_Account",
          "type": "string"
        },
        {
          "internalType": "string",
          "name": "_LenderUid",
          "type": "string"
        },
        {
          "internalType": "uint256",
          "name": "_OriginalBalance",
          "type": "uint256"
        },
        {
          "internalType": "uint256",
          "name": "_CurrentBalance",
          "type": "uint256"
        },
        {
          "internalType": "uint256",
          "name": "_VendorFeePct",
          "type": "uint256"
        },
        {
          "internalType": "uint256",
          "name": "_NoteRate",
          "type": "uint256"
        },
        {
          "internalType": "uint256",
          "name": "_SoldRate",
          "type": "uint256"
        },
        {
          "internalType": "uint256",
          "name": "_CalcInterestRate",
          "type": "uint256"
        },
        {
          "internalType": "string",
          "name": "_CoBorrower",
          "type": "string"
        },
        {
          "internalType": "uint256",
          "name": "_ActiveDefaultInterestRate",
          "type": "uint256"
        },
        {
          "internalType": "uint256",
          "name": "_ReserveBalanceRestricted",
          "type": "uint256"
        },
        {
          "internalType": "uint256",
          "name": "_DefaultInterestRate",
          "type": "uint256"
        },
        {
          "internalType": "uint256",
          "name": "_DeferredPrinBal",
          "type": "uint256"
        },
        {
          "internalType": "uint256",
          "name": "_DeferredUnpaidInt",
          "type": "uint256"
        },
        {
          "internalType": "uint256",
          "name": "_DeferredLateCharges",
          "type": "uint256"
        },
        {
          "internalType": "uint256",
          "name": "_DeferredUnpaidCharges",
          "type": "uint256"
        },
        {
          "internalType": "uint256",
          "name": "_MaximumDraw",
          "type": "uint256"
        },
        {
          "internalType": "string",
          "name": "_CloseDate",
          "type": "string"
        },
        {
          "internalType": "string",
          "name": "_DrawStatus",
          "type": "string"
        },
        {
          "internalType": "string",
          "name": "_LenderFundDate",
          "type": "string"
        },
        {
          "internalType": "uint256",
          "name": "_LenderOwnerPct",
          "type": "uint256"
        },
        {
          "internalType": "string",
          "name": "_LenderName",
          "type": "string"
        },
        {
          "internalType": "string",
          "name": "_LenderAccount",
          "type": "string"
        },
        {
          "internalType": "bool",
          "name": "_IsForeclosure",
          "type": "bool"
        },
        {
          "internalType": "string",
          "name": "_Status",
          "type": "string"
        },
        {
          "internalType": "string",
          "name": "_PaidOffDate",
          "type": "string"
        },
        {
          "internalType": "string",
          "name": "_PaidToDate",
          "type": "string"
        },
        {
          "internalType": "string",
          "name": "_MaturityDate",
          "type": "string"
        },
        {
          "internalType": "string",
          "name": "_NextDueDate",
          "type": "string"
        },
        {
          "internalType": "string",
          "name": "_City",
          "type": "string"
        },
        {
          "internalType": "string",
          "name": "_State",
          "type": "string"
        },
        {
          "internalType": "string",
          "name": "_PropertyZip",
          "type": "string"
        }
      ],
      "name": "createLoan",
      "outputs": [
        {
          "internalType": "bytes32",
          "name": "",
          "type": "bytes32"
        },
        {
          "internalType": "string",
          "name": "",
          "type": "string"
        }
      ],
      "stateMutability": "nonpayable",
      "type": "function"
    },
    {
      "inputs": [
        {
          "internalType": "string",
          "name": "loanId",
          "type": "string"
        }
      ],
      "name": "deleteLoan",
      "outputs": [
        {
          "internalType": "bytes32",
          "name": "",
          "type": "bytes32"
        }
      ],
      "stateMutability": "nonpayable",
      "type": "function"
    },
    {
      "inputs": [
        {
          "internalType": "string",
          "name": "loanUid",
          "type": "string"
        }
      ],
      "name": "findLoanByLoanUid",
      "outputs": [
        {
          "components": [
            {
              "internalType": "string",
              "name": "ID",
              "type": "string"
            },
            {
              "internalType": "string",
              "name": "LoanUid",
              "type": "string"
            },
            {
              "internalType": "string",
              "name": "Account",
              "type": "string"
            },
            {
              "internalType": "string",
              "name": "LenderUid",
              "type": "string"
            },
            {
              "internalType": "uint256",
              "name": "OriginalBalance",
              "type": "uint256"
            },
            {
              "internalType": "uint256",
              "name": "CurrentBalance",
              "type": "uint256"
            },
            {
              "internalType": "uint256",
              "name": "VendorFeePct",
              "type": "uint256"
            },
            {
              "internalType": "uint256",
              "name": "NoteRate",
              "type": "uint256"
            },
            {
              "internalType": "uint256",
              "name": "SoldRate",
              "type": "uint256"
            },
            {
              "internalType": "uint256",
              "name": "CalcInterestRate",
              "type": "uint256"
            },
            {
              "internalType": "string",
              "name": "CoBorrower",
              "type": "string"
            },
            {
              "internalType": "uint256",
              "name": "ActiveDefaultInterestRate",
              "type": "uint256"
            },
            {
              "internalType": "uint256",
              "name": "ReserveBalanceRestricted",
              "type": "uint256"
            },
            {
              "internalType": "uint256",
              "name": "DefaultInterestRate",
              "type": "uint256"
            },
            {
              "internalType": "uint256",
              "name": "DeferredPrinBal",
              "type": "uint256"
            },
            {
              "internalType": "uint256",
              "name": "DeferredUnpaidInt",
              "type": "uint256"
            },
            {
              "internalType": "uint256",
              "name": "DeferredLateCharges",
              "type": "uint256"
            },
            {
              "internalType": "uint256",
              "name": "DeferredUnpaidCharges",
              "type": "uint256"
            },
            {
              "internalType": "uint256",
              "name": "MaximumDraw",
              "type": "uint256"
            },
            {
              "internalType": "string",
              "name": "CloseDate",
              "type": "string"
            },
            {
              "internalType": "string",
              "name": "DrawStatus",
              "type": "string"
            },
            {
              "internalType": "string",
              "name": "LenderFundDate",
              "type": "string"
            },
            {
              "internalType": "uint256",
              "name": "LenderOwnerPct",
              "type": "uint256"
            },
            {
              "internalType": "string",
              "name": "LenderName",
              "type": "string"
            },
            {
              "internalType": "string",
              "name": "LenderAccount",
              "type": "string"
            },
            {
              "internalType": "bool",
              "name": "IsForeclosure",
              "type": "bool"
            },
            {
              "internalType": "string",
              "name": "Status",
              "type": "string"
            },
            {
              "internalType": "string",
              "name": "PaidOffDate",
              "type": "string"
            },
            {
              "internalType": "string",
              "name": "PaidToDate",
              "type": "string"
            },
            {
              "internalType": "string",
              "name": "MaturityDate",
              "type": "string"
            },
            {
              "internalType": "string",
              "name": "NextDueDate",
              "type": "string"
            },
            {
              "internalType": "string",
              "name": "City",
              "type": "string"
            },
            {
              "internalType": "string",
              "name": "State",
              "type": "string"
            },
            {
              "internalType": "string",
              "name": "PropertyZip",
              "type": "string"
            },
            {
              "internalType": "bytes32",
              "name": "TxId",
              "type": "bytes32"
            },
            {
              "internalType": "uint256",
              "name": "BLOCKAUDITCreationAt",
              "type": "uint256"
            },
            {
              "internalType": "uint256",
              "name": "BLOCKAUDITUpdatedAt",
              "type": "uint256"
            },
            {
              "internalType": "bool",
              "name": "exists",
              "type": "bool"
            },
            {
              "internalType": "uint256",
              "name": "avalancheTokenId",
              "type": "uint256"
            },
            {
              "internalType": "uint256",
              "name": "lastSyncTimestamp",
              "type": "uint256"
            },
            {
              "internalType": "bool",
              "name": "isLocked",
              "type": "bool"
            }
          ],
          "internalType": "struct LoanRegistry.Loan",
          "name": "",
          "type": "tuple"
        }
      ],
      "stateMutability": "view",
      "type": "function"
    },
    {
      "inputs": [
        {
          "internalType": "string",
          "name": "lenderUid",
          "type": "string"
        }
      ],
      "name": "findLoansByLenderUid",
      "outputs": [
        {
          "components": [
            {
              "internalType": "string",
              "name": "ID",
              "type": "string"
            },
            {
              "internalType": "string",
              "name": "LoanUid",
              "type": "string"
            },
            {
              "internalType": "string",
              "name": "Account",
              "type": "string"
            },
            {
              "internalType": "string",
              "name": "LenderUid",
              "type": "string"
            },
            {
              "internalType": "uint256",
              "name": "OriginalBalance",
              "type": "uint256"
            },
            {
              "internalType": "uint256",
              "name": "CurrentBalance",
              "type": "uint256"
            },
            {
              "internalType": "uint256",
              "name": "VendorFeePct",
              "type": "uint256"
            },
            {
              "internalType": "uint256",
              "name": "NoteRate",
              "type": "uint256"
            },
            {
              "internalType": "uint256",
              "name": "SoldRate",
              "type": "uint256"
            },
            {
              "internalType": "uint256",
              "name": "CalcInterestRate",
              "type": "uint256"
            },
            {
              "internalType": "string",
              "name": "CoBorrower",
              "type": "string"
            },
            {
              "internalType": "uint256",
              "name": "ActiveDefaultInterestRate",
              "type": "uint256"
            },
            {
              "internalType": "uint256",
              "name": "ReserveBalanceRestricted",
              "type": "uint256"
            },
            {
              "internalType": "uint256",
              "name": "DefaultInterestRate",
              "type": "uint256"
            },
            {
              "internalType": "uint256",
              "name": "DeferredPrinBal",
              "type": "uint256"
            },
            {
              "internalType": "uint256",
              "name": "DeferredUnpaidInt",
              "type": "uint256"
            },
            {
              "internalType": "uint256",
              "name": "DeferredLateCharges",
              "type": "uint256"
            },
            {
              "internalType": "uint256",
              "name": "DeferredUnpaidCharges",
              "type": "uint256"
            },
            {
              "internalType": "uint256",
              "name": "MaximumDraw",
              "type": "uint256"
            },
            {
              "internalType": "string",
              "name": "CloseDate",
              "type": "string"
            },
            {
              "internalType": "string",
              "name": "DrawStatus",
              "type": "string"
            },
            {
              "internalType": "string",
              "name": "LenderFundDate",
              "type": "string"
            },
            {
              "internalType": "uint256",
              "name": "LenderOwnerPct",
              "type": "uint256"
            },
            {
              "internalType": "string",
              "name": "LenderName",
              "type": "string"
            },
            {
              "internalType": "string",
              "name": "LenderAccount",
              "type": "string"
            },
            {
              "internalType": "bool",
              "name": "IsForeclosure",
              "type": "bool"
            },
            {
              "internalType": "string",
              "name": "Status",
              "type": "string"
            },
            {
              "internalType": "string",
              "name": "PaidOffDate",
              "type": "string"
            },
            {
              "internalType": "string",
              "name": "PaidToDate",
              "type": "string"
            },
            {
              "internalType": "string",
              "name": "MaturityDate",
              "type": "string"
            },
            {
              "internalType": "string",
              "name": "NextDueDate",
              "type": "string"
            },
            {
              "internalType": "string",
              "name": "City",
              "type": "string"
            },
            {
              "internalType": "string",
              "name": "State",
              "type": "string"
            },
            {
              "internalType": "string",
              "name": "PropertyZip",
              "type": "string"
            },
            {
              "internalType": "bytes32",
              "name": "TxId",
              "type": "bytes32"
            },
            {
              "internalType": "uint256",
              "name": "BLOCKAUDITCreationAt",
              "type": "uint256"
            },
            {
              "internalType": "uint256",
              "name": "BLOCKAUDITUpdatedAt",
              "type": "uint256"
            },
            {
              "internalType": "bool",
              "name": "exists",
              "type": "bool"
            },
            {
              "internalType": "uint256",
              "name": "avalancheTokenId",
              "type": "uint256"
            },
            {
              "internalType": "uint256",
              "name": "lastSyncTimestamp",
              "type": "uint256"
            },
            {
              "internalType": "bool",
              "name": "isLocked",
              "type": "bool"
            }
          ],
          "internalType": "struct LoanRegistry.Loan[]",
          "name": "",
          "type": "tuple[]"
        }
      ],
      "stateMutability": "view",
      "type": "function"
    },
    {
      "inputs": [
        {
          "internalType": "string",
          "name": "lenderUid",
          "type": "string"
        },
        {
          "internalType": "string",
          "name": "loanUid",
          "type": "string"
        }
      ],
      "name": "generateLoanId",
      "outputs": [
        {
          "internalType": "string",
          "name": "",
          "type": "string"
        }
      ],
      "stateMutability": "pure",
      "type": "function"
    },
    {
      "inputs": [
        {
          "internalType": "bytes32",
          "name": "txId",
          "type": "bytes32"
        }
      ],
      "name": "getActivityChanges",
      "outputs": [
        {
          "components": [
            {
              "internalType": "string",
              "name": "PropertyName",
              "type": "string"
            },
            {
              "internalType": "string",
              "name": "OldValue",
              "type": "string"
            },
            {
              "internalType": "string",
              "name": "NewValue",
              "type": "string"
            }
          ],
          "internalType": "struct LoanRegistry.Change[]",
          "name": "",
          "type": "tuple[]"
        }
      ],
      "stateMutability": "view",
      "type": "function"
    },
    {
      "inputs": [],
      "name": "getAllLoanIds",
      "outputs": [
        {
          "internalType": "string[]",
          "name": "",
          "type": "string[]"
        }
      ],
      "stateMutability": "view",
      "type": "function"
    },
    {
      "inputs": [
        {
          "internalType": "string",
          "name": "loanId",
          "type": "string"
        }
      ],
      "name": "getAvalancheTokenId",
      "outputs": [
        {
          "internalType": "uint256",
          "name": "",
          "type": "uint256"
        }
      ],
      "stateMutability": "view",
      "type": "function"
    },
    {
      "inputs": [
        {
          "internalType": "string",
          "name": "loanId",
          "type": "string"
        }
      ],
      "name": "getCurrentTransactionByLoan",
      "outputs": [
        {
          "internalType": "bytes32",
          "name": "",
          "type": "bytes32"
        }
      ],
      "stateMutability": "view",
      "type": "function"
    },
    {
      "inputs": [
        {
          "internalType": "string",
          "name": "lenderUid",
          "type": "string"
        },
        {
          "internalType": "string",
          "name": "loanUid",
          "type": "string"
        }
      ],
      "name": "getLoanByLenderAndUid",
      "outputs": [
        {
          "components": [
            {
              "internalType": "string",
              "name": "ID",
              "type": "string"
            },
            {
              "internalType": "string",
              "name": "LoanUid",
              "type": "string"
            },
            {
              "internalType": "string",
              "name": "Account",
              "type": "string"
            },
            {
              "internalType": "string",
              "name": "LenderUid",
              "type": "string"
            },
            {
              "internalType": "uint256",
              "name": "OriginalBalance",
              "type": "uint256"
            },
            {
              "internalType": "uint256",
              "name": "CurrentBalance",
              "type": "uint256"
            },
            {
              "internalType": "uint256",
              "name": "VendorFeePct",
              "type": "uint256"
            },
            {
              "internalType": "uint256",
              "name": "NoteRate",
              "type": "uint256"
            },
            {
              "internalType": "uint256",
              "name": "SoldRate",
              "type": "uint256"
            },
            {
              "internalType": "uint256",
              "name": "CalcInterestRate",
              "type": "uint256"
            },
            {
              "internalType": "string",
              "name": "CoBorrower",
              "type": "string"
            },
            {
              "internalType": "uint256",
              "name": "ActiveDefaultInterestRate",
              "type": "uint256"
            },
            {
              "internalType": "uint256",
              "name": "ReserveBalanceRestricted",
              "type": "uint256"
            },
            {
              "internalType": "uint256",
              "name": "DefaultInterestRate",
              "type": "uint256"
            },
            {
              "internalType": "uint256",
              "name": "DeferredPrinBal",
              "type": "uint256"
            },
            {
              "internalType": "uint256",
              "name": "DeferredUnpaidInt",
              "type": "uint256"
            },
            {
              "internalType": "uint256",
              "name": "DeferredLateCharges",
              "type": "uint256"
            },
            {
              "internalType": "uint256",
              "name": "DeferredUnpaidCharges",
              "type": "uint256"
            },
            {
              "internalType": "uint256",
              "name": "MaximumDraw",
              "type": "uint256"
            },
            {
              "internalType": "string",
              "name": "CloseDate",
              "type": "string"
            },
            {
              "internalType": "string",
              "name": "DrawStatus",
              "type": "string"
            },
            {
              "internalType": "string",
              "name": "LenderFundDate",
              "type": "string"
            },
            {
              "internalType": "uint256",
              "name": "LenderOwnerPct",
              "type": "uint256"
            },
            {
              "internalType": "string",
              "name": "LenderName",
              "type": "string"
            },
            {
              "internalType": "string",
              "name": "LenderAccount",
              "type": "string"
            },
            {
              "internalType": "bool",
              "name": "IsForeclosure",
              "type": "bool"
            },
            {
              "internalType": "string",
              "name": "Status",
              "type": "string"
            },
            {
              "internalType": "string",
              "name": "PaidOffDate",
              "type": "string"
            },
            {
              "internalType": "string",
              "name": "PaidToDate",
              "type": "string"
            },
            {
              "internalType": "string",
              "name": "MaturityDate",
              "type": "string"
            },
            {
              "internalType": "string",
              "name": "NextDueDate",
              "type": "string"
            },
            {
              "internalType": "string",
              "name": "City",
              "type": "string"
            },
            {
              "internalType": "string",
              "name": "State",
              "type": "string"
            },
            {
              "internalType": "string",
              "name": "PropertyZip",
              "type": "string"
            },
            {
              "internalType": "bytes32",
              "name": "TxId",
              "type": "bytes32"
            },
            {
              "internalType": "uint256",
              "name": "BLOCKAUDITCreationAt",
              "type": "uint256"
            },
            {
              "internalType": "uint256",
              "name": "BLOCKAUDITUpdatedAt",
              "type": "uint256"
            },
            {
              "internalType": "bool",
              "name": "exists",
              "type": "bool"
            },
            {
              "internalType": "uint256",
              "name": "avalancheTokenId",
              "type": "uint256"
            },
            {
              "internalType": "uint256",
              "name": "lastSyncTimestamp",
              "type": "uint256"
            },
            {
              "internalType": "bool",
              "name": "isLocked",
              "type": "bool"
            }
          ],
          "internalType": "struct LoanRegistry.Loan",
          "name": "",
          "type": "tuple"
        }
      ],
      "stateMutability": "view",
      "type": "function"
    },
    {
      "inputs": [
        {
          "internalType": "bytes32",
          "name": "txId",
          "type": "bytes32"
        }
      ],
      "name": "getLoanByTxId",
      "outputs": [
        {
          "components": [
            {
              "internalType": "string",
              "name": "ID",
              "type": "string"
            },
            {
              "internalType": "string",
              "name": "LoanUid",
              "type": "string"
            },
            {
              "internalType": "string",
              "name": "Account",
              "type": "string"
            },
            {
              "internalType": "string",
              "name": "LenderUid",
              "type": "string"
            },
            {
              "internalType": "uint256",
              "name": "OriginalBalance",
              "type": "uint256"
            },
            {
              "internalType": "uint256",
              "name": "CurrentBalance",
              "type": "uint256"
            },
            {
              "internalType": "uint256",
              "name": "VendorFeePct",
              "type": "uint256"
            },
            {
              "internalType": "uint256",
              "name": "NoteRate",
              "type": "uint256"
            },
            {
              "internalType": "uint256",
              "name": "SoldRate",
              "type": "uint256"
            },
            {
              "internalType": "uint256",
              "name": "CalcInterestRate",
              "type": "uint256"
            },
            {
              "internalType": "string",
              "name": "CoBorrower",
              "type": "string"
            },
            {
              "internalType": "uint256",
              "name": "ActiveDefaultInterestRate",
              "type": "uint256"
            },
            {
              "internalType": "uint256",
              "name": "ReserveBalanceRestricted",
              "type": "uint256"
            },
            {
              "internalType": "uint256",
              "name": "DefaultInterestRate",
              "type": "uint256"
            },
            {
              "internalType": "uint256",
              "name": "DeferredPrinBal",
              "type": "uint256"
            },
            {
              "internalType": "uint256",
              "name": "DeferredUnpaidInt",
              "type": "uint256"
            },
            {
              "internalType": "uint256",
              "name": "DeferredLateCharges",
              "type": "uint256"
            },
            {
              "internalType": "uint256",
              "name": "DeferredUnpaidCharges",
              "type": "uint256"
            },
            {
              "internalType": "uint256",
              "name": "MaximumDraw",
              "type": "uint256"
            },
            {
              "internalType": "string",
              "name": "CloseDate",
              "type": "string"
            },
            {
              "internalType": "string",
              "name": "DrawStatus",
              "type": "string"
            },
            {
              "internalType": "string",
              "name": "LenderFundDate",
              "type": "string"
            },
            {
              "internalType": "uint256",
              "name": "LenderOwnerPct",
              "type": "uint256"
            },
            {
              "internalType": "string",
              "name": "LenderName",
              "type": "string"
            },
            {
              "internalType": "string",
              "name": "LenderAccount",
              "type": "string"
            },
            {
              "internalType": "bool",
              "name": "IsForeclosure",
              "type": "bool"
            },
            {
              "internalType": "string",
              "name": "Status",
              "type": "string"
            },
            {
              "internalType": "string",
              "name": "PaidOffDate",
              "type": "string"
            },
            {
              "internalType": "string",
              "name": "PaidToDate",
              "type": "string"
            },
            {
              "internalType": "string",
              "name": "MaturityDate",
              "type": "string"
            },
            {
              "internalType": "string",
              "name": "NextDueDate",
              "type": "string"
            },
            {
              "internalType": "string",
              "name": "City",
              "type": "string"
            },
            {
              "internalType": "string",
              "name": "State",
              "type": "string"
            },
            {
              "internalType": "string",
              "name": "PropertyZip",
              "type": "string"
            },
            {
              "internalType": "bytes32",
              "name": "TxId",
              "type": "bytes32"
            },
            {
              "internalType": "uint256",
              "name": "BLOCKAUDITCreationAt",
              "type": "uint256"
            },
            {
              "internalType": "uint256",
              "name": "BLOCKAUDITUpdatedAt",
              "type": "uint256"
            },
            {
              "internalType": "bool",
              "name": "exists",
              "type": "bool"
            },
            {
              "internalType": "uint256",
              "name": "avalancheTokenId",
              "type": "uint256"
            },
            {
              "internalType": "uint256",
              "name": "lastSyncTimestamp",
              "type": "uint256"
            },
            {
              "internalType": "bool",
              "name": "isLocked",
              "type": "bool"
            }
          ],
          "internalType": "struct LoanRegistry.Loan",
          "name": "loan",
          "type": "tuple"
        },
        {
          "components": [
            {
              "internalType": "string",
              "name": "PropertyName",
              "type": "string"
            },
            {
              "internalType": "string",
              "name": "OldValue",
              "type": "string"
            },
            {
              "internalType": "string",
              "name": "NewValue",
              "type": "string"
            }
          ],
          "internalType": "struct LoanRegistry.Change[]",
          "name": "changes",
          "type": "tuple[]"
        }
      ],
      "stateMutability": "view",
      "type": "function"
    },
    {
      "inputs": [
        {
          "internalType": "string",
          "name": "loanId",
          "type": "string"
        }
      ],
      "name": "getLoanHistory",
      "outputs": [
        {
          "components": [
            {
              "internalType": "bytes32",
              "name": "TxId",
              "type": "bytes32"
            },
            {
              "internalType": "uint256",
              "name": "Timestamp",
              "type": "uint256"
            },
            {
              "internalType": "bool",
              "name": "IsDelete",
              "type": "bool"
            }
          ],
          "internalType": "struct LoanRegistry.LoanHistoryEntry[]",
          "name": "",
          "type": "tuple[]"
        }
      ],
      "stateMutability": "view",
      "type": "function"
    },
    {
      "inputs": [
        {
          "internalType": "string",
          "name": "loanId",
          "type": "string"
        }
      ],
      "name": "getLoanHistoryWithChanges",
      "outputs": [
        {
          "internalType": "bytes32[]",
          "name": "txIds",
          "type": "bytes32[]"
        },
        {
          "internalType": "uint256[]",
          "name": "timestamps",
          "type": "uint256[]"
        },
        {
          "internalType": "bool[]",
          "name": "isDeletes",
          "type": "bool[]"
        },
        {
          "internalType": "uint256[]",
          "name": "changeCounts",
          "type": "uint256[]"
        }
      ],
      "stateMutability": "view",
      "type": "function"
    },
    {
      "inputs": [],
      "name": "getTotalLoansCount",
      "outputs": [
        {
          "internalType": "uint256",
          "name": "",
          "type": "uint256"
        }
      ],
      "stateMutability": "view",
      "type": "function"
    },
    {
      "inputs": [
        {
          "internalType": "string",
          "name": "loanId",
          "type": "string"
        }
      ],
      "name": "isLoanLocked",
      "outputs": [
        {
          "internalType": "bool",
          "name": "",
          "type": "bool"
        }
      ],
      "stateMutability": "view",
      "type": "function"
    },
    {
      "inputs": [
        {
          "internalType": "string",
          "name": "loanId",
          "type": "string"
        }
      ],
      "name": "isLoanTokenized",
      "outputs": [
        {
          "internalType": "bool",
          "name": "",
          "type": "bool"
        }
      ],
      "stateMutability": "view",
      "type": "function"
    },
    {
      "inputs": [
        {
          "internalType": "string",
          "name": "loanId",
          "type": "string"
        }
      ],
      "name": "loanExists",
      "outputs": [
        {
          "internalType": "bool",
          "name": "",
          "type": "bool"
        }
      ],
      "stateMutability": "view",
      "type": "function"
    },
    {
      "inputs": [
        {
          "internalType": "string",
          "name": "lenderUid",
          "type": "string"
        },
        {
          "internalType": "string",
          "name": "loanUid",
          "type": "string"
        }
      ],
      "name": "loanExistsByLenderAndUid",
      "outputs": [
        {
          "internalType": "bool",
          "name": "",
          "type": "bool"
        }
      ],
      "stateMutability": "view",
      "type": "function"
    },
    {
      "inputs": [
        {
          "internalType": "string",
          "name": "loanId",
          "type": "string"
        }
      ],
      "name": "lockLoan",
      "outputs": [
        {
          "internalType": "bool",
          "name": "",
          "type": "bool"
        }
      ],
      "stateMutability": "nonpayable",
      "type": "function"
    },
    {
      "inputs": [],
      "name": "marketplaceBridge",
      "outputs": [
        {
          "internalType": "address",
          "name": "",
          "type": "address"
        }
      ],
      "stateMutability": "view",
      "type": "function"
    },
    {
      "inputs": [],
      "name": "owner",
      "outputs": [
        {
          "internalType": "address",
          "name": "",
          "type": "address"
        }
      ],
      "stateMutability": "view",
      "type": "function"
    },
    {
      "inputs": [],
      "name": "queryAllLoans",
      "outputs": [
        {
          "components": [
            {
              "internalType": "string",
              "name": "ID",
              "type": "string"
            },
            {
              "internalType": "string",
              "name": "LoanUid",
              "type": "string"
            },
            {
              "internalType": "string",
              "name": "Account",
              "type": "string"
            },
            {
              "internalType": "string",
              "name": "LenderUid",
              "type": "string"
            },
            {
              "internalType": "uint256",
              "name": "OriginalBalance",
              "type": "uint256"
            },
            {
              "internalType": "uint256",
              "name": "CurrentBalance",
              "type": "uint256"
            },
            {
              "internalType": "uint256",
              "name": "VendorFeePct",
              "type": "uint256"
            },
            {
              "internalType": "uint256",
              "name": "NoteRate",
              "type": "uint256"
            },
            {
              "internalType": "uint256",
              "name": "SoldRate",
              "type": "uint256"
            },
            {
              "internalType": "uint256",
              "name": "CalcInterestRate",
              "type": "uint256"
            },
            {
              "internalType": "string",
              "name": "CoBorrower",
              "type": "string"
            },
            {
              "internalType": "uint256",
              "name": "ActiveDefaultInterestRate",
              "type": "uint256"
            },
            {
              "internalType": "uint256",
              "name": "ReserveBalanceRestricted",
              "type": "uint256"
            },
            {
              "internalType": "uint256",
              "name": "DefaultInterestRate",
              "type": "uint256"
            },
            {
              "internalType": "uint256",
              "name": "DeferredPrinBal",
              "type": "uint256"
            },
            {
              "internalType": "uint256",
              "name": "DeferredUnpaidInt",
              "type": "uint256"
            },
            {
              "internalType": "uint256",
              "name": "DeferredLateCharges",
              "type": "uint256"
            },
            {
              "internalType": "uint256",
              "name": "DeferredUnpaidCharges",
              "type": "uint256"
            },
            {
              "internalType": "uint256",
              "name": "MaximumDraw",
              "type": "uint256"
            },
            {
              "internalType": "string",
              "name": "CloseDate",
              "type": "string"
            },
            {
              "internalType": "string",
              "name": "DrawStatus",
              "type": "string"
            },
            {
              "internalType": "string",
              "name": "LenderFundDate",
              "type": "string"
            },
            {
              "internalType": "uint256",
              "name": "LenderOwnerPct",
              "type": "uint256"
            },
            {
              "internalType": "string",
              "name": "LenderName",
              "type": "string"
            },
            {
              "internalType": "string",
              "name": "LenderAccount",
              "type": "string"
            },
            {
              "internalType": "bool",
              "name": "IsForeclosure",
              "type": "bool"
            },
            {
              "internalType": "string",
              "name": "Status",
              "type": "string"
            },
            {
              "internalType": "string",
              "name": "PaidOffDate",
              "type": "string"
            },
            {
              "internalType": "string",
              "name": "PaidToDate",
              "type": "string"
            },
            {
              "internalType": "string",
              "name": "MaturityDate",
              "type": "string"
            },
            {
              "internalType": "string",
              "name": "NextDueDate",
              "type": "string"
            },
            {
              "internalType": "string",
              "name": "City",
              "type": "string"
            },
            {
              "internalType": "string",
              "name": "State",
              "type": "string"
            },
            {
              "internalType": "string",
              "name": "PropertyZip",
              "type": "string"
            },
            {
              "internalType": "bytes32",
              "name": "TxId",
              "type": "bytes32"
            },
            {
              "internalType": "uint256",
              "name": "BLOCKAUDITCreationAt",
              "type": "uint256"
            },
            {
              "internalType": "uint256",
              "name": "BLOCKAUDITUpdatedAt",
              "type": "uint256"
            },
            {
              "internalType": "bool",
              "name": "exists",
              "type": "bool"
            },
            {
              "internalType": "uint256",
              "name": "avalancheTokenId",
              "type": "uint256"
            },
            {
              "internalType": "uint256",
              "name": "lastSyncTimestamp",
              "type": "uint256"
            },
            {
              "internalType": "bool",
              "name": "isLocked",
              "type": "bool"
            }
          ],
          "internalType": "struct LoanRegistry.Loan[]",
          "name": "",
          "type": "tuple[]"
        }
      ],
      "stateMutability": "view",
      "type": "function"
    },
    {
      "inputs": [
        {
          "internalType": "uint256",
          "name": "offset",
          "type": "uint256"
        },
        {
          "internalType": "uint256",
          "name": "limit",
          "type": "uint256"
        }
      ],
      "name": "queryLoansPaginated",
      "outputs": [
        {
          "components": [
            {
              "internalType": "string",
              "name": "ID",
              "type": "string"
            },
            {
              "internalType": "string",
              "name": "LoanUid",
              "type": "string"
            },
            {
              "internalType": "string",
              "name": "Account",
              "type": "string"
            },
            {
              "internalType": "string",
              "name": "LenderUid",
              "type": "string"
            },
            {
              "internalType": "uint256",
              "name": "OriginalBalance",
              "type": "uint256"
            },
            {
              "internalType": "uint256",
              "name": "CurrentBalance",
              "type": "uint256"
            },
            {
              "internalType": "uint256",
              "name": "VendorFeePct",
              "type": "uint256"
            },
            {
              "internalType": "uint256",
              "name": "NoteRate",
              "type": "uint256"
            },
            {
              "internalType": "uint256",
              "name": "SoldRate",
              "type": "uint256"
            },
            {
              "internalType": "uint256",
              "name": "CalcInterestRate",
              "type": "uint256"
            },
            {
              "internalType": "string",
              "name": "CoBorrower",
              "type": "string"
            },
            {
              "internalType": "uint256",
              "name": "ActiveDefaultInterestRate",
              "type": "uint256"
            },
            {
              "internalType": "uint256",
              "name": "ReserveBalanceRestricted",
              "type": "uint256"
            },
            {
              "internalType": "uint256",
              "name": "DefaultInterestRate",
              "type": "uint256"
            },
            {
              "internalType": "uint256",
              "name": "DeferredPrinBal",
              "type": "uint256"
            },
            {
              "internalType": "uint256",
              "name": "DeferredUnpaidInt",
              "type": "uint256"
            },
            {
              "internalType": "uint256",
              "name": "DeferredLateCharges",
              "type": "uint256"
            },
            {
              "internalType": "uint256",
              "name": "DeferredUnpaidCharges",
              "type": "uint256"
            },
            {
              "internalType": "uint256",
              "name": "MaximumDraw",
              "type": "uint256"
            },
            {
              "internalType": "string",
              "name": "CloseDate",
              "type": "string"
            },
            {
              "internalType": "string",
              "name": "DrawStatus",
              "type": "string"
            },
            {
              "internalType": "string",
              "name": "LenderFundDate",
              "type": "string"
            },
            {
              "internalType": "uint256",
              "name": "LenderOwnerPct",
              "type": "uint256"
            },
            {
              "internalType": "string",
              "name": "LenderName",
              "type": "string"
            },
            {
              "internalType": "string",
              "name": "LenderAccount",
              "type": "string"
            },
            {
              "internalType": "bool",
              "name": "IsForeclosure",
              "type": "bool"
            },
            {
              "internalType": "string",
              "name": "Status",
              "type": "string"
            },
            {
              "internalType": "string",
              "name": "PaidOffDate",
              "type": "string"
            },
            {
              "internalType": "string",
              "name": "PaidToDate",
              "type": "string"
            },
            {
              "internalType": "string",
              "name": "MaturityDate",
              "type": "string"
            },
            {
              "internalType": "string",
              "name": "NextDueDate",
              "type": "string"
            },
            {
              "internalType": "string",
              "name": "City",
              "type": "string"
            },
            {
              "internalType": "string",
              "name": "State",
              "type": "string"
            },
            {
              "internalType": "string",
              "name": "PropertyZip",
              "type": "string"
            },
            {
              "internalType": "bytes32",
              "name": "TxId",
              "type": "bytes32"
            },
            {
              "internalType": "uint256",
              "name": "BLOCKAUDITCreationAt",
              "type": "uint256"
            },
            {
              "internalType": "uint256",
              "name": "BLOCKAUDITUpdatedAt",
              "type": "uint256"
            },
            {
              "internalType": "bool",
              "name": "exists",
              "type": "bool"
            },
            {
              "internalType": "uint256",
              "name": "avalancheTokenId",
              "type": "uint256"
            },
            {
              "internalType": "uint256",
              "name": "lastSyncTimestamp",
              "type": "uint256"
            },
            {
              "internalType": "bool",
              "name": "isLocked",
              "type": "bool"
            }
          ],
          "internalType": "struct LoanRegistry.Loan[]",
          "name": "loans_",
          "type": "tuple[]"
        },
        {
          "internalType": "uint256",
          "name": "total",
          "type": "uint256"
        },
        {
          "internalType": "uint256",
          "name": "returned",
          "type": "uint256"
        }
      ],
      "stateMutability": "view",
      "type": "function"
    },
    {
      "inputs": [
        {
          "internalType": "string",
          "name": "loanId",
          "type": "string"
        }
      ],
      "name": "readLoan",
      "outputs": [
        {
          "components": [
            {
              "internalType": "string",
              "name": "ID",
              "type": "string"
            },
            {
              "internalType": "string",
              "name": "LoanUid",
              "type": "string"
            },
            {
              "internalType": "string",
              "name": "Account",
              "type": "string"
            },
            {
              "internalType": "string",
              "name": "LenderUid",
              "type": "string"
            },
            {
              "internalType": "uint256",
              "name": "OriginalBalance",
              "type": "uint256"
            },
            {
              "internalType": "uint256",
              "name": "CurrentBalance",
              "type": "uint256"
            },
            {
              "internalType": "uint256",
              "name": "VendorFeePct",
              "type": "uint256"
            },
            {
              "internalType": "uint256",
              "name": "NoteRate",
              "type": "uint256"
            },
            {
              "internalType": "uint256",
              "name": "SoldRate",
              "type": "uint256"
            },
            {
              "internalType": "uint256",
              "name": "CalcInterestRate",
              "type": "uint256"
            },
            {
              "internalType": "string",
              "name": "CoBorrower",
              "type": "string"
            },
            {
              "internalType": "uint256",
              "name": "ActiveDefaultInterestRate",
              "type": "uint256"
            },
            {
              "internalType": "uint256",
              "name": "ReserveBalanceRestricted",
              "type": "uint256"
            },
            {
              "internalType": "uint256",
              "name": "DefaultInterestRate",
              "type": "uint256"
            },
            {
              "internalType": "uint256",
              "name": "DeferredPrinBal",
              "type": "uint256"
            },
            {
              "internalType": "uint256",
              "name": "DeferredUnpaidInt",
              "type": "uint256"
            },
            {
              "internalType": "uint256",
              "name": "DeferredLateCharges",
              "type": "uint256"
            },
            {
              "internalType": "uint256",
              "name": "DeferredUnpaidCharges",
              "type": "uint256"
            },
            {
              "internalType": "uint256",
              "name": "MaximumDraw",
              "type": "uint256"
            },
            {
              "internalType": "string",
              "name": "CloseDate",
              "type": "string"
            },
            {
              "internalType": "string",
              "name": "DrawStatus",
              "type": "string"
            },
            {
              "internalType": "string",
              "name": "LenderFundDate",
              "type": "string"
            },
            {
              "internalType": "uint256",
              "name": "LenderOwnerPct",
              "type": "uint256"
            },
            {
              "internalType": "string",
              "name": "LenderName",
              "type": "string"
            },
            {
              "internalType": "string",
              "name": "LenderAccount",
              "type": "string"
            },
            {
              "internalType": "bool",
              "name": "IsForeclosure",
              "type": "bool"
            },
            {
              "internalType": "string",
              "name": "Status",
              "type": "string"
            },
            {
              "internalType": "string",
              "name": "PaidOffDate",
              "type": "string"
            },
            {
              "internalType": "string",
              "name": "PaidToDate",
              "type": "string"
            },
            {
              "internalType": "string",
              "name": "MaturityDate",
              "type": "string"
            },
            {
              "internalType": "string",
              "name": "NextDueDate",
              "type": "string"
            },
            {
              "internalType": "string",
              "name": "City",
              "type": "string"
            },
            {
              "internalType": "string",
              "name": "State",
              "type": "string"
            },
            {
              "internalType": "string",
              "name": "PropertyZip",
              "type": "string"
            },
            {
              "internalType": "bytes32",
              "name": "TxId",
              "type": "bytes32"
            },
            {
              "internalType": "uint256",
              "name": "BLOCKAUDITCreationAt",
              "type": "uint256"
            },
            {
              "internalType": "uint256",
              "name": "BLOCKAUDITUpdatedAt",
              "type": "uint256"
            },
            {
              "internalType": "bool",
              "name": "exists",
              "type": "bool"
            },
            {
              "internalType": "uint256",
              "name": "avalancheTokenId",
              "type": "uint256"
            },
            {
              "internalType": "uint256",
              "name": "lastSyncTimestamp",
              "type": "uint256"
            },
            {
              "internalType": "bool",
              "name": "isLocked",
              "type": "bool"
            }
          ],
          "internalType": "struct LoanRegistry.Loan",
          "name": "",
          "type": "tuple"
        }
      ],
      "stateMutability": "view",
      "type": "function"
    },
    {
      "inputs": [],
      "name": "renounceOwnership",
      "outputs": [],
      "stateMutability": "nonpayable",
      "type": "function"
    },
    {
      "inputs": [
        {
          "internalType": "string",
          "name": "loanId",
          "type": "string"
        },
        {
          "internalType": "uint256",
          "name": "tokenId",
          "type": "uint256"
        }
      ],
      "name": "setAvalancheTokenId",
      "outputs": [
        {
          "internalType": "bool",
          "name": "",
          "type": "bool"
        }
      ],
      "stateMutability": "nonpayable",
      "type": "function"
    },
    {
      "inputs": [
        {
          "internalType": "address",
          "name": "_bridge",
          "type": "address"
        }
      ],
      "name": "setMarketplaceBridge",
      "outputs": [],
      "stateMutability": "nonpayable",
      "type": "function"
    },
    {
      "inputs": [
        {
          "internalType": "address",
          "name": "newOwner",
          "type": "address"
        }
      ],
      "name": "transferOwnership",
      "outputs": [],
      "stateMutability": "nonpayable",
      "type": "function"
    },
    {
      "inputs": [
        {
          "internalType": "string",
          "name": "loanId",
          "type": "string"
        }
      ],
      "name": "unlockLoan",
      "outputs": [
        {
          "internalType": "bool",
          "name": "",
          "type": "bool"
        }
      ],
      "stateMutability": "nonpayable",
      "type": "function"
    },
    {
      "inputs": [
        {
          "internalType": "string",
          "name": "loanId",
          "type": "string"
        },
        {
          "components": [
            {
              "internalType": "bool",
              "name": "updateCurrentBalance",
              "type": "bool"
            },
            {
              "internalType": "uint256",
              "name": "CurrentBalance",
              "type": "uint256"
            },
            {
              "internalType": "bool",
              "name": "updateNoteRate",
              "type": "bool"
            },
            {
              "internalType": "uint256",
              "name": "NoteRate",
              "type": "uint256"
            },
            {
              "internalType": "bool",
              "name": "updateStatus",
              "type": "bool"
            },
            {
              "internalType": "string",
              "name": "Status",
              "type": "string"
            },
            {
              "internalType": "bool",
              "name": "updateNextDueDate",
              "type": "bool"
            },
            {
              "internalType": "string",
              "name": "NextDueDate",
              "type": "string"
            },
            {
              "internalType": "bool",
              "name": "updatePaidToDate",
              "type": "bool"
            },
            {
              "internalType": "string",
              "name": "PaidToDate",
              "type": "string"
            },
            {
              "internalType": "bool",
              "name": "updatePaidOffDate",
              "type": "bool"
            },
            {
              "internalType": "string",
              "name": "PaidOffDate",
              "type": "string"
            },
            {
              "internalType": "bool",
              "name": "updateDeferredUnpaidInt",
              "type": "bool"
            },
            {
              "internalType": "uint256",
              "name": "DeferredUnpaidInt",
              "type": "uint256"
            },
            {
              "internalType": "bool",
              "name": "updateDeferredLateCharges",
              "type": "bool"
            },
            {
              "internalType": "uint256",
              "name": "DeferredLateCharges",
              "type": "uint256"
            },
            {
              "internalType": "bool",
              "name": "updateDeferredUnpaidCharges",
              "type": "bool"
            },
            {
              "internalType": "uint256",
              "name": "DeferredUnpaidCharges",
              "type": "uint256"
            },
            {
              "internalType": "bool",
              "name": "updateLenderOwnerPct",
              "type": "bool"
            },
            {
              "internalType": "uint256",
              "name": "LenderOwnerPct",
              "type": "uint256"
            },
            {
              "internalType": "bool",
              "name": "updateIsForeclosure",
              "type": "bool"
            },
            {
              "internalType": "bool",
              "name": "IsForeclosure",
              "type": "bool"
            },
            {
              "internalType": "bool",
              "name": "updateCoBorrower",
              "type": "bool"
            },
            {
              "internalType": "string",
              "name": "CoBorrower",
              "type": "string"
            },
            {
              "internalType": "bool",
              "name": "updateLenderName",
              "type": "bool"
            },
            {
              "internalType": "string",
              "name": "LenderName",
              "type": "string"
            },
            {
              "internalType": "bool",
              "name": "updateCity",
              "type": "bool"
            },
            {
              "internalType": "string",
              "name": "City",
              "type": "string"
            },
            {
              "internalType": "bool",
              "name": "updateState",
              "type": "bool"
            },
            {
              "internalType": "string",
              "name": "State",
              "type": "string"
            },
            {
              "internalType": "bool",
              "name": "updatePropertyZip",
              "type": "bool"
            },
            {
              "internalType": "string",
              "name": "PropertyZip",
              "type": "string"
            }
          ],
          "internalType": "struct LoanRegistry.LoanUpdateFields",
          "name": "fields",
          "type": "tuple"
        }
      ],
      "name": "updateLoanPartial",
      "outputs": [
        {
          "internalType": "bytes32",
          "name": "",
          "type": "bytes32"
        }
      ],
      "stateMutability": "nonpayable",
      "type": "function"
    },
    {
      "inputs": [
        {
          "internalType": "string",
          "name": "loanId",
          "type": "string"
        },
        {
          "internalType": "uint256",
          "name": "newBalance",
          "type": "uint256"
        },
        {
          "internalType": "string",
          "name": "newStatus",
          "type": "string"
        },
        {
          "internalType": "string",
          "name": "newPaidToDate",
          "type": "string"
        }
      ],
      "name": "updateLockedLoan",
      "outputs": [
        {
          "internalType": "bytes32",
          "name": "",
          "type": "bytes32"
        }
      ],
      "stateMutability": "nonpayable",
      "type": "function"
    },
    {
      "inputs": [
        {
          "internalType": "string",
          "name": "loanId",
          "type": "string"
        }
      ],
      "name": "updateSyncTimestamp",
      "outputs": [
        {
          "internalType": "bool",
          "name": "",
          "type": "bool"
        }
      ],
      "stateMutability": "nonpayable",
      "type": "function"
    },
    {
      "inputs": [],
      "name": "userRegistry",
      "outputs": [
        {
          "internalType": "contract UserRegistry",
          "name": "",
          "type": "address"
        }
      ],
      "stateMutability": "view",
      "type": "function"
    }
  ],
  "bytecode": "0x6080346200012b57601f62005afc38819003918201601f19168301916001600160401b03831184841017620001305780849260409485528339810103126200012b576200005a6020620000528362000146565b920162000146565b906001600160a01b0390811690811562000112576000549260018060a01b03199280848616176000558260405195167f8be0079c531659141344cd1fd0a4f28419497f9722a3daafe3b4186f6b6457e0600080a316918215620000d0575060015416176001556040516159a090816200015c8239f35b62461bcd60e51b815260206004820152601d60248201527f55736572526567697374727920616464726573732072657175697265640000006044820152606490fd5b604051631e4fbdf760e01b815260006004820152602490fd5b600080fd5b634e487b7160e01b600052604160045260246000fd5b51906001600160a01b03821682036200012b5756fe6102e0604052600436101561001357600080fd5b60003560e01c80630994247b1461398157806317afe1f214612d155780632afd311714612cce5780632b33d5e314612a2c5780632fe82e941461296f57806343af231d14612644578063441d503214611ae95780634dae3ab7146118975780635c1bf8651461173c5780635c3c3fcf146115fe5780635c7460d6146115d5578063638ee9bc146114ed5780636a6137b11461148f5780636d047cc614611430578063715018a6146113d757806375fed82c1461128757806380695be814611244578063807c19931461121257806384f38df4146111c65780638694056d14610cfc5780638da5cb5b14610cd35780639226eaa514610c4b578063af1f6af014610b05578063bcb197c914610acb578063ce89c08814610a7a578063cfcdd80614610a2c578063db272c7a14610996578063dd92ab4a14610764578063def0619314610681578063e01a9aea14610658578063e56904f4146105b1578063ece49dfe146103a8578063ee4b25bc146102205763f2fde38b1461019357600080fd5b3461021b57602036600319011261021b576004356001600160a01b038181169182900361021b576101c2615967565b8115610202576000548260018060a01b0319821617600055167f8be0079c531659141344cd1fd0a4f28419497f9722a3daafe3b4186f6b6457e0600080a3005b604051631e4fbdf760e01b815260006004820152602490fd5b600080fd5b3461021b5760208060031936011261021b576004356001600160401b03811161021b5781610255610268923690600401613a52565b8160405193828580945193849201613adf565b8101600881520301902090815461027e816149b7565b9261028c6040519485613a16565b8184526000908152828120838086015b84841061037b5786826000805b83518110156102ed5760ff60256102c96102c384886149ce565b516142d4565b0154166102d9575b6001016102a9565b906102e5600191614d2b565b9190506102d1565b506102f790614d3a565b6000805b84518110156103645760ff60256103156102c384896149ce565b015416610325575b6001016102fb565b9061035c60019161034161033c6102c3868a6149ce565b6143ca565b61034b82876149ce565b5261035681866149ce565b50614d2b565b91905061031d565b6040518481528061037781870186613e95565b0390f35b6001918291604051610398816103918189614334565b0382613a16565b815201920192019190849061029c565b3461021b57604036600319011261021b576004356001600160401b03811161021b576103d8903690600401613a52565b6024356103f060018060a01b03600254163314614f3e565b60405191805161042360ff602560209687818188019661041181838a613adf565b81016003815203019020015416614d8a565b60ff602860405186818651610439818389613adf565b810160038152030190200154161561057057821561053857602660405185818551610465818388613adf565b8101600381520301902001546104fc576104e77fd9af9fe87cb0da3dea36fcb8d50a76961a23460b2422995a935515422b1fb05e926104d1602760409487602687518b8188516104b6818389613adf565b81016003815203019020015585519283918551928391613adf565b820191600383528881429403019020015561483c565b9281519081524285820152a260405160018152f35b60405162461bcd60e51b8152600481018590526014602482015273151bdad95b88125108185b1c9958591e481cd95d60621b6044820152606490fd5b60405162461bcd60e51b815260048101859052601060248201526f125b9d985b1a59081d1bdad95b88125160821b6044820152606490fd5b60405162461bcd60e51b8152600481018590526019602482015278131bd85b881b5d5cdd081899481b1bd8dad95908199a5c9cdd603a1b6044820152606490fd5b3461021b5760208060031936011261021b576004356001600160401b03811161021b57610634826105e9610643933690600401613a52565b6105f1614891565b506040519061062360ff602583519486818187019761061181838b613adf565b81016003815203019020015416614eaa565b604051938492839251928391613adf565b810160038152030190206143ca565b90610377604051928284938452830190613b34565b3461021b57600036600319011261021b576002546040516001600160a01b039091168152602090f35b3461021b5760208060031936011261021b576004356001600160401b03811161021b57816102556106b6923690600401613a52565b810160088152030190209081546106cc816149b7565b926106da6040519485613a16565b8184526000908152828120838086015b84841061073e5786826000805b83518110156107355760ff60256107116102c384886149ce565b015416610721575b6001016106f7565b9061072d600191614d2b565b919050610719565b50604051908152f35b6001918291604051610754816103918189614334565b81520192019201919084906106ea565b3461021b5760208060031936011261021b576004356001600160401b03811161021b57610795903690600401613a52565b6107aa60018060a01b03600254163314614f3e565b6040516107c860ff602584519386818188019661041181838a613adf565b60ff6028604051858186516107de818389613adf565b8101600381520301902001541661096057600560405184818551610803818388613adf565b8101600381520301902001541561092057610391610845601a6040518681875161082e81838a613adf565b810160038152030190200160405192838092614334565b83815191012060088460405161085a816139fb565b82815201672830b4b21027b33360c11b815220146108db5790602861088e846108a994604051809381928751928391613adf565b8101600381520301902001600160ff1982541617905561483c565b7f91e865b9cff59eb189ba2a164ccb791dfa436f57ed08bc3c7c65d87c27089f2c82604051428152a260405160018152f35b60405162461bcd60e51b815260048101849052601d60248201527f43616e6e6f7420746f6b656e697a652070616964206f6666206c6f616e0000006044820152606490fd5b60405162461bcd60e51b815260048101849052601860248201527704c6f616e2062616c616e6365206d757374206265203e20360441b6044820152606490fd5b60405162461bcd60e51b815260048101849052600e60248201526d105b1c9958591e481b1bd8dad95960921b6044820152606490fd5b3461021b57602036600319011261021b576004356001600160401b03811161021b576109c6903690600401613a52565b6109db60018060a01b03600254163314614f3e565b6027604051916109fd60ff60258351956020818187019861041181838c613adf565b610a0f60405193849251928391613adf565b820191600383526020814294030190200155602060405160018152f35b3461021b57602036600319011261021b576004356001600160401b03811161021b576026610a64602061025581943690600401613a52565b8101600381520301902001541515604051908152f35b3461021b57602036600319011261021b576004356001600160401b03811161021b5760ff6028610ab4602061025581953690600401613a52565b810160038152030190200154166040519015158152f35b3461021b57602036600319011261021b576004356001600160401b03811161021b5760ff6025610ab4602061025581953690600401613a52565b3461021b5760208060031936011261021b576004356001600160401b03811161021b57610b36903690600401613a52565b610b4b60018060a01b03600254163314614f3e565b604051610b6960ff602584519386818188019661041181838a613adf565b60ff602860405185818651610b7f818389613adf565b8101600381520301902001541615610c19579060006026610bd685610be795602860405183818951610bb2818388613adf565b810160038152030190200160ff198154169055604051809381928851928391613adf565b81016003815203019020015561483c565b7f504665dddc6b716d04c8637579fed49725dfe039561c404f9fa0fac218e2b43a82604051428152a260405160018152f35b60405162461bcd60e51b815260048101849052600a602482015269139bdd081b1bd8dad95960b21b6044820152606490fd5b3461021b57602036600319011261021b576004356001600160a01b0381169081900361021b57610c79615967565b8015610c9557600280546001600160a01b031916919091179055005b60405162461bcd60e51b8152602060048201526016602482015275496e76616c696420627269646765206164647265737360501b6044820152606490fd5b3461021b57600036600319011261021b576000546040516001600160a01b039091168152602090f35b3461021b5760208060031936011261021b576004356001600160401b03811161021b57610d2d903690600401613a52565b6000549091906001600160a01b03908116330361110c575b5060405191805190610d7a60ff602585840194610d63818988613adf565b87019686816003998a815203019020015416614d8a565b60ff602860405185818551610d9081838a613adf565b8101898152030190200154166110cb57602660405184818451610db4818389613adf565b81018881520301902001546110865760405183810190428252436040820152610e086066828551610de981606084018a613adf565b81016544454c45544560d01b6060820152036046810184520182613a16565b51902091610e2f60405185818551610e21818388613adf565b8101898152030190206143ca565b83600052600685526060604060002091858355600192610e5286600183016146f7565b8842910155868082015180519081611014575b5050500151838151611004575b5050806000905b610f21575b505090610ed583610ec686610ef09560258a8360405180928a51610ea3818489613adf565b8201908152030190200160ff198154169055604051809381928851928391613adf565b8101600781520301902061485c565b82600052600a8452610eeb8160406000206146f7565b61483c565b7f1f4b13e4dd15d25a92f66856e750d208468c8c7ce52eb2a6e880e95650ce41a783604051848152a2604051908152f35b600b805480831015610ffd57610391610f49610f3c856147c6565b5060405192838092614334565b8881519101208651862014610f62575050810181610e79565b909193959697925060001993848201918211610fe757610f8e610f87610f94936147c6565b50916147c6565b906158a5565b8054928315610fd157610ef09560258894610ec6948b94610ed5980190610fc3610fbd836147c6565b90614ef0565b559950509350959450610e7e565b634e487b7160e01b600052603160045260246000fd5b634e487b7160e01b600052601160045260246000fd5b5050610e7e565b61100d916158b4565b8683610e72565b8161102784936040518096819501613adf565b8101600981520301902061103b81546142fa565b9081611049575b8891610e65565b81601f600093116001146110615750555b8880611042565b90808391825261107f601f8c8420940160051c840160018501614699565b555561105a565b60405162461bcd60e51b815260048101849052601c60248201527f43616e6e6f742064656c65746520746f6b656e697a6564206c6f616e000000006044820152606490fd5b60405162461bcd60e51b815260048101849052601960248201527821b0b73737ba103232b632ba32903637b1b5b2b2103637b0b760391b6044820152606490fd5b60006024916001541660405192838092636f77926b60e01b82523360048301525afa9081156111ba5761117a91606091600091611197575b5061115460c082015115156141f3565b0151828151910120611164614231565b8381519101208114908115611180575b50614276565b82610d45565b905061118a614255565b8381519101201484611174565b6111b491503d806000833e6111ac8183613a16565b81019061410d565b85611144565b6040513d6000823e3d90fd5b3461021b57602036600319011261021b576004356001600160401b03811161021b5760266111fe602061025581943690600401613a52565b810160038152030190200154604051908152f35b3461021b57602060ff602561123761123261122c36613a99565b90613f78565b6142d4565b0154166040519015158152f35b3461021b57602036600319011261021b57600435600052600660205261037761127360026040600020016149e2565b604051918291602083526020830190613dd1565b3461021b57604036600319011261021b57600435600b548082101561139b57602435820190818311610fe757808211611393575b6000835b83811061135f57506112d081614d3a565b926000945b8181106113065750506112f79350604051938493606085526060850190613e95565b91602084015260408301520390f35b60ff602561131c611316846147c6565b50614c97565b01541661132c575b6001016112d5565b9461135760019161134261033c6113168a6147c6565b61134c82896149ce565b5261035681886149ce565b959050611324565b60ff602561136f611316846147c6565b01541661137f575b6001016112bf565b9061138b600191614d2b565b919050611377565b9050806112bb565b60405162461bcd60e51b81526020600482015260146024820152734f6666736574206f7574206f6620626f756e647360601b6044820152606490fd5b3461021b57600036600319011261021b576113f0615967565b600080546001600160a01b0319811682556001600160a01b03167f8be0079c531659141344cd1fd0a4f28419497f9722a3daafe3b4186f6b6457e08280a3005b3461021b57600036600319011261021b57600080600b54905b81811061145b57602083604051908152f35b60ff602561146b611316846147c6565b01541661147b575b600101611449565b91611487600191614d2b565b929050611473565b3461021b576103776114d961063460206114ba6114ab36613a99565b906114b4614891565b50613f78565b6040519061062360ff602583519486818187019761061181838b613adf565b604051918291602083526020830190613b34565b3461021b5760208060031936011261021b576004356001600160401b03811161021b5781610255611522923690600401613a52565b81016007815203019020604051808284829454938481520190600052846000209260005b868282106115bf578461155b81860382613a16565b8051156115825780516000198101908111610fe757611579916149ce565b51604051908152f35b60405162461bcd60e51b8152600481018390526015602482015274139bc81d1c985b9cd858dd1a5bdb9cc8199bdd5b99605a1b6044820152606490fd5b8554845260019586019587955093019201611546565b3461021b57600036600319011261021b576001546040516001600160a01b039091168152602090f35b3461021b5760208060031936011261021b576004356001600160401b03811161021b5761166b61165583611639610391943690600401613a52565b611641614891565b508160405193828580945193849201613adf565b8101600981520301902060405192838092614334565b8051156116f7576040519060ff602582519385818186019661168e81838a613adf565b81016003815203019020015416156116ba57826106439261063492604051938492839251928391613adf565b60405162461bcd60e51b8152600481018490526015602482015274131bd85b881a185cc81899595b8819195b195d1959605a1b6044820152606490fd5b60405162461bcd60e51b815260048101839052601f60248201527f4e6f206c6f616e20666f756e6420776974682074686973204c6f616e556964006044820152606490fd5b3461021b57600036600319011261021b57600b546000805b828110611863575061177e611768826149b7565b916117766040519384613a16565b8083526149b7565b60209290601f19018360005b828110611854575050506000805b828110611801575050506040519082820192808352815180945260408301938160408260051b8601019301916000955b8287106117d55785850386f35b9091929382806117f1600193603f198a82030186528851613b02565b96019201960195929190926117c8565b60ff6025611811611316846147c6565b015416611821575b600101611798565b9061184c600191610391611837610f3c866147c6565b61184182886149ce565b5261035681876149ce565b919050611819565b6060858201830152810161178a565b60ff6025611873611316846147c6565b015416611883575b600101611754565b9061188f600191614d2b565b91905061187b565b3461021b5760208060031936011261021b576004356001600160401b03811161021b576118c8903690600401613a52565b6118d481511515614c26565b6040518151908381818501936118eb818387613adf565b8101600781520301902090604051808386829554938481520190600052866000209260005b88828210611ad35750505061192792500383613a16565b81519161194c611936846149b7565b936119446040519586613a16565b8085526149b7565b601f19018560005b828110611aa85750505060005b8151811015611a555761197481836149ce565b516000526006865260406000209060405161198e816139c5565b825481526040516119a6816103918160018801614334565b888201526119b6600284016149e2565b60408201526060600380940154910190815260ff60256119f18a886119db878a6149ce565b519551978c604051948593849251928391613adf565b8201908152030190200154161580611a3d575b60019360405192611a14846139e0565b83528983015215156040820152611a2b82876149ce565b52611a3681866149ce565b5001611961565b508351600019810193908411610fe757928214611a04565b604080518781528551818901819052868901928201908960005b828110611a7c5784840385f35b855180518552808301518584015260409081015115159085015294810194606090930192600101611a6f565b604051611ab4816139e0565b6000815260008382015260006040820152828288010152018690611954565b8554845260019586019588955093019201611910565b3461021b5760031960403682011261021b576004356001600160401b03811161021b57611b1a903690600401613a52565b906001600160401b036024351161021b5761040080916024353603011261021b576040519081018181106001600160401b0382111761262e57604052611b64602435600401613b27565b81526024803501356020820152611b7f604460243501613b27565b6040820152606460243501356060820152611b9e608460243501613b27565b608082015260a460243501356001600160401b03811161021b57611bca90600436916024350101613a52565b60a0820152611bdd60c460243501613b27565b60c082015260e460243501356001600160401b03811161021b57611c0990600436916024350101613a52565b60e0820152611c1d61010460243501613b27565b61010082015261012460243501356001600160401b03811161021b57611c4b90600436916024350101613a52565b610120820152611c6061014460243501613b27565b61014082015261016460243501356001600160401b03811161021b57611c8e90600436916024350101613a52565b610160820152611ca361018460243501613b27565b6101808201526101a460243501356101a0820152611cc66101c460243501613b27565b6101c08201526101e460243501356101e0820152611ce961020460243501613b27565b6102008201526102246024350135610220820152611d0c61024460243501613b27565b6102408201526102646024350135610260820152611d2f61028460243501613b27565b610280820152611d446102a460243501613b27565b6102a0820152611d596102c460243501613b27565b6102c08201526001600160401b036102e460243501351161021b57611d8a366024356102e481013501600401613a52565b6102e0820152611d9f61030460243501613b27565b6103008201526001600160401b0361032460243501351161021b57611dd03660243561032481013501600401613a52565b610320820152611de561034460243501613b27565b6103408201526001600160401b0361036460243501351161021b57611e163660243561036481013501600401613a52565b610360820152611e2b61038460243501613b27565b6103808201526001600160401b036103a460243501351161021b57611e5c366024356103a481013501600401613a52565b6103a0820152611e716103c460243501613b27565b6103c08201526001600160401b036103e460243501351161021b57611ea2366024356103e481013501600401613a52565b6103e08201526000546001600160a01b0316330361257d575b611eeb60ff60256040516020818751611ed78183858c01613adf565b600381830152810103019020015416614d8a565b60ff60286040516020818651611f048183858b01613adf565b8101600381520301902001541661253c576020917fd438615c2b2269e4b0b8b81dc5b2176a47eb3bc844a50b4324243114e303a6246040612198600261215c6121628451898101904282524387820152611f97606e828b611f7081516020928193606086019101613adf565b81016d5041525449414c5f55504441544560901b606082015203604e810184520182613a16565b51902097611fb386518b81816106348d83815193849201613adf565b86518b8181611fc88d83815193849201613adf565b8101600381520301902091805161252e575b8781015161251f575b6080810151612509575b60c08101516124f3575b6101008101516124dc575b6101408101516124c5575b6101808101516124b5575b6101c08101516124a5575b610200810151612495575b610240810151612485575b610280810151612460575b6102c0810151612449575b610300810151612432575b61034081015161241b575b610380810151612405575b6103c08101516123ed575b50612132896024840142815560228501908d82556120f68f61209c42614f94565b946120e660218f518098856120ba8184019687815193849201613adf565b8201605f60f81b878201526120d782518093898785019101613adf565b01036001810189520187613a16565b8d51809381928851928391613adf565b81016005815203019020908682036121ac575b5050506121238d8c818c5193828580945193849201613adf565b8101600481520301902061480f565b8960005260068b52866000209384928b84556121518b600186016146f7565b4260038501556143ca565b906150ed565b61217b8785518a8181610ec68c83815193849201613adf565b86600052600a885261219086856000206146f7565b01549361483c565b9281519085825286820152a2604051908152f35b6123e5926121ba8884614dcc565b6121ca6001890160018501614dcc565b6121d88b89018c8501614dcc565b6121e86003890160038501614dcc565b600488015460048401556005880154600584015560068801546006840155600788015460078401556008880154600884015560098801546009840155612234600a8901600a8501614dcc565b600b880154600b840155600c880154600c840155600d880154600d840155600e880154600e840155600f880154600f8401556010880154601084015560118801546011840155601288015460128401556122946013890160138501614dcc565b6122a46014890160148501614dcc565b6122b46015890160158501614dcc565b601688015460168401556122ce6017890160178501614dcc565b6122de6018890160188501614dcc565b6122fe60ff60198a015416601985019060ff801983541691151516179055565b61230e601a8901601a8501614dcc565b61231e601b8901601b8501614dcc565b61232e601c8901601c8501614dcc565b61233e601d8901601d8501614dcc565b61234e601e8901601e8501614dcc565b61235e601f8901601f8501614dcc565b602061236f90890160208501614dcc565b61237f6021890160218501614dcc565b546022830155602387015460238301555460248201556123b560ff602588015416602583019060ff801983541691151516179055565b6026860154602682015560278601546027820155602860ff818801541691019060ff801983541691151516179055565b8d8080612109565b6103e06123ff910151602184016146f7565b8b61207b565b6124166103a08201518d85016146f7565b612070565b61242d610360820151601f85016146f7565b612065565b612444610320820151601785016146f7565b61205a565b61245b6102e0820151600a85016146f7565b61204f565b6124806102a08201511515601985019060ff801983541691151516179055565b612044565b6102608101516016840155612039565b610220810151601184015561202e565b6101e08101516010840155612023565b6101a0810151600f840155612018565b6124d7610160820151601b85016146f7565b61200d565b6124ee610120820151601c85016146f7565b612002565b61250460e0820151601e85016146f7565b611ff7565b61251a60a0820151601a85016146f7565b611fed565b60608101516007840155611fe3565b8b8101516005840155611fda565b60405162461bcd60e51b815260206004820152601960248201527821b0b73737ba103ab83230ba32903637b1b5b2b2103637b0b760391b6044820152606490fd5b600154604051636f77926b60e01b815233600482015290600090829060249082906001600160a01b03165afa9081156111ba576125f691606091600091612613575b506125cf60c082015115156141f3565b0151602081519101206125e0614231565b6020815191012081149081156125fb5750614276565b611ebb565b9050612605614255565b602081519101201484611174565b61262891503d806000833e6111ac8183613a16565b856125bf565b634e487b7160e01b600052604160045260246000fd5b3461021b57608036600319011261021b576001600160401b0360043581811161021b57612675903690600401613a52565b906024359060443581811161021b57612692903690600401613a52565b9060643590811161021b576126ab903690600401613a52565b6000549093906001600160a01b0390811633036128c7575b50604051938151906126e660ff602560209889818189019761041181838b613adf565b60ff6028604051888187516126fc81838a613adf565b810160038152030190200154161561288a57602660405187818651612722818389613adf565b81016003815203019020015415612850577f1becde7ac0817e1e5bf0e4139dedb647c095a15357ced8b7f0977267d9530c7b9261280d6127f4610ec689899896612823966022604051848101904282524360408201526127b4606d828c5161278e81606084018b613adf565b81016c4c4f434b45445f55504441544560981b606082015203604d810184520182613a16565b5190209c8d96879360405187818d516127ce81838c613adf565b810160038152030190209260058401556127eb8d601a85016146f7565b601c83016146f7565b4260248201550155604051809381928851928391613adf565b85600052600a8752610eeb8160406000206146f7565b9261283f60405192839283526060888401526060830190613b02565b4260408301520390a2604051908152f35b60405162461bcd60e51b8152600481018790526012602482015271139195081b9bdd081b5a5b9d1959081e595d60721b6044820152606490fd5b60405162461bcd60e51b81526004810187905260156024820152744f6e6c7920666f72206c6f636b6564206c6f616e7360581b6044820152606490fd5b60006024916001541660405192838092636f77926b60e01b82523360048301525afa9081156111ba5761293691606091600091612954575b5061290f60c082015115156141f3565b015160208151910120612920614231565b60208151910120811490811561293c5750614276565b846126c3565b9050612946614255565b602081519101201486611174565b61296991503d806000833e6111ac8183613a16565b876128ff565b3461021b57600036600319011261021b57600b546000805b8281106129f8575061299890614d3a565b906000805b8281106129ba576040516020808252819061037790820187613e95565b60ff60256129ca611316846147c6565b0154166129da575b60010161299d565b906129f060019161183761033c611316866147c6565b9190506129d2565b60ff6025612a08611316846147c6565b015416612a18575b600101612987565b90612a24600191614d2b565b919050612a10565b3461021b5760208060031936011261021b576004356001600160401b03811161021b57612a5d903690600401613a52565b90612a6a82511515614c26565b604051825190828181860193612a81818387613adf565b81016007815203019020604051808285829454938481520190600052856000209260005b87828210612cb857505050612abc92500382613a16565b805193612ae1612acb866149b7565b95612ad96040519788613a16565b8087526149b7565b85850194601f1994918501368737612af98451614c65565b92845193612b09612acb866149b7565b8584019701368837612b1b8651614c65565b9660005b8a8851821015612c1a579060ff6025612bc9888a8d96612b3f87896149ce565b516000526006835260406000209060405190612b5a826139c5565b82548252604051612b72816103918160018801614334565b85830152612bab89612ba481612b8a600288016149e2565b9d604087019e8f52606060038099015497019687526149ce565b51926149ce565b5251612bb7888c6149ce565b52604051809481938d51928391613adf565b8201908152030190200154161580612c02575b91600192612bea838b6149ce565b90151590525151612bfb828c6149ce565b5201612b1f565b508851600019810192908311610fe757918114612bdc565b858491848c8b8f6040519687956080870190608088525180915260a08701929060005b818110612ca15750505081612c59918789940384890152613e61565b918583036040870152519182815201929460005b828110612c8857858061037787878382036060850152613e61565b8651151585529581019587955093810193600101612c6d565b825185528a98509389019391890191600101612c3d565b8554845260019586019587955093019201612aa5565b3461021b57602036600319011261021b57612d07610377612cf0600435614a83565b604092919251938493604085526040850190613b34565b908382036020850152613dd1565b3461021b5761042036600319011261021b576001600160401b0360043581811161021b57612d47903690600401613a52565b6102605260243581811161021b57612d63903690600401613a52565b6101e05260443581811161021b57612d7f903690600401613a52565b610280526101243581811161021b57612d9c903690600401613a52565b6101a0526102443581811161021b57612db9903690600401613a52565b610200526102643581811161021b57612dd6903690600401613a52565b610220526102843581811161021b57612df3903690600401613a52565b906102c43581811161021b57612e0d903690600401613a52565b6102a0526102e43581811161021b57612e2a903690600401613a52565b61030435801515810361021b576103243583811161021b57612e50903690600401613a52565b6102c0526103443583811161021b57612e6d903690600401613a52565b6103643584811161021b57612e86903690600401613a52565b916103843585811161021b57612ea0903690600401613a52565b936103a43586811161021b57612eba903690600401613a52565b956103c43581811161021b57612ed4903690600401613a52565b610120526103e43581811161021b57612ef1903690600401613a52565b61014052610404351161021b57612f0e3661040435600401613a52565b610160526000546001600160a01b031633036138d0575b612f3461028051511515613ef2565b612f4361026051511515613f36565b612f536102605161028051613f78565b6102405260ff60256040516020816102405151612f768183856102405101613adf565b600381830152810103019020015416613849575b6040516020810190428252436040820152612fd36074826102405151612fba816060840160206102405101613adf565b81013360601b6060820152036054810184520182613a16565b51902096426101805260ff60256040516020816102405151612ffb8183856102405101613adf565b810160038152030190200154166101c0526101c051613817575b61303360405160208161024051516106348183856102405101613adf565b61010052600060e0526101c0511561380d576104c061010051015160e0525b600060c0526101c05115613803576104e061010051015160c0525b600060a0526101c051156137f957610500610100510151151560a0525b60405160805261309b6080516139a9565b610240516080515261026051602060805101526101e05160406080510152610280516060608051015260643560808051015260843560a0608051015260a43560c0608051015260c43560e0608051015260e43561010060805101526101043561012060805101526101a0516101406080510152610144356101606080510152610164356101806080510152610184356101a060805101526101a4356101c060805101526101c4356101e060805101526101e43561020060805101526102043561022060805101526102243561024060805101526102005161026060805101526102205161028060805101526102a060805101526102a4356102c060805101526102a0516102e060805101526103006080510152151561032060805101526102c0516103406080510152610360608051015261038060805101526103a060805101526103c06080510152610120516103e0608051015261014051610400608051015261016051610420608051015280610440608051015261018051610460608051015242610480608051015260016104a0608051015260e0516104c0608051015260c0516104e0608051015260a0511515610500608051015261359361325f42614f94565b6135786132c76020604051936132b660218684810193610240515161328a8187896102405101613adf565b8201605f60f81b878201526132a782518093898785019101613adf565b01036001810188520186613a16565b604051809381928751928391613adf565b810160058152030190206132de60805151826146f7565b6132f160206080510151600183016146f7565b61330460406080510151600283016146f7565b61331760606080510151600383016146f7565b6080805190810151600483015560a0810151600583015560c0810151600683015560e0810151600783015561010081015160088301556101208101516009830155610140015161336a90600a83016146f7565b608051610160810151600b830155610180810151600c8301556101a0810151600d8301556101c0810151600e8301556101e0810151600f83015561020081015160108301556102208101516011830155610240810151601283015561026001516133d790601383016146f7565b6133eb6102806080510151601483016146f7565b6133ff6102a06080510151601583016146f7565b6102c0608051015160168201556134206102e06080510151601783016146f7565b6134346103006080510151601883016146f7565b61345661032060805101511515601983019060ff801983541691151516179055565b61346a6103406080510151601a83016146f7565b61347e6103606080510151601b83016146f7565b6134926103806080510151601c83016146f7565b6134a66103a06080510151601d83016146f7565b6134ba6103c06080510151601e83016146f7565b6134ce6103e06080510151601f83016146f7565b6134e26104006080510151602083016146f7565b6134f66104206080510151602183016146f7565b61044060805101516022820155610460608051015160238201556104806080510151602482015561353f6104a060805101511515602583019060ff801983541691151516179055565b6104c0608051015160268201556104e06080510151602782015560286105006080510151151591019060ff801983541691151516179055565b60405160208161024051516121238183856102405101613adf565b80600052600660205260406000208181556135b461024051600183016146f7565b4260038201556101c0511561371357806135d6600292608051610100516150ed565b6060610100510151805160208201209061028051519160206102805101928320036136c9575b505001547fd438615c2b2269e4b0b8b81dc5b2176a47eb3bc844a50b4324243114e303a624604061362f6102405161483c565b928151908582526020820152a25b613672604051602081610240515161365b8183856102405101613adf565b810160038152030190206132de60805151826146f7565b613691816040516020816102405151610ec68183856102405101613adf565b80600052600a6020526136ab6102405160406000206146f7565b60405190815260406020820152806103776040820161024051613b02565b610240516136d6916158b4565b61028051519081156135fc57816136f461370c936040518094613adf565b8101906008825260208161024051930301902061480f565b83806135fc565b50600b54600160401b81101561262e578060016137339201600b556147c6565b6137e35761024051613744916146f7565b6102805151806137c4575b50613784604051610260515161376c818360206102605101613adf565b810190600982526020816102405193030190206146f7565b6137906102405161483c565b7f0f96b08e6339be5808b5f29f8e7c0ee9ab0060847835221b46a5434fa8676e5c60408051848152426020820152a261363d565b6137dd90604051906136f4818360206102805101613adf565b8161374f565b634e487b7160e01b600052600060045260246000fd5b600060a05261308a565b600060c05261306d565b600060e052613052565b602360405160208161024051516138348183856102405101613adf565b81016003815203019020015461018052613015565b60ff602860405160208161024051516138688183856102405101613adf565b8101600381520301902001541615612f8a5760405162461bcd60e51b815260206004820152602860248201527f43616e6e6f7420757064617465206c6f636b6564206c6f616e2076696120637260448201526732b0ba32a637b0b760c11b6064820152608490fd5b600154604051636f77926b60e01b815233600482015290600090829060249082906001600160a01b03165afa9081156111ba5761394991606091600091613966575b5061392260c082015115156141f3565b015160208151910120613933614231565b60208151910120811490811561394e5750614276565b612f25565b9050613958614255565b602081519101201489611174565b61397b91503d806000833e6111ac8183613a16565b8a613912565b3461021b5761037761399561122c36613a99565b604051918291602083526020830190613b02565b61052081019081106001600160401b0382111761262e57604052565b608081019081106001600160401b0382111761262e57604052565b606081019081106001600160401b0382111761262e57604052565b604081019081106001600160401b0382111761262e57604052565b90601f801991011681019081106001600160401b0382111761262e57604052565b6001600160401b03811161262e57601f01601f191660200190565b81601f8201121561021b57803590613a6982613a37565b92613a776040519485613a16565b8284526020838301011161021b57816000926020809301838601378301015290565b90604060031983011261021b576001600160401b0360043581811161021b5783613ac591600401613a52565b9260243591821161021b57613adc91600401613a52565b90565b60005b838110613af25750506000910152565b8181015183820152602001613ae2565b90602091613b1b81518092818552858086019101613adf565b601f01601f1916010190565b3590811515820361021b57565b90613d7d613d69613d55613d41613d2d613d19613d05613cf1613cd0613cbc613c9b613c868c8e613c72613c06613bb4613ba2613b90613b7e610520875190808a52890190613b02565b602087015188820360208a0152613b02565b60408601518782036040890152613b02565b60608501518682036060880152613b02565b6080840151608086015260a084015160a086015260c084015160c086015260e084015160e086015261010080850151908601526101208085015190860152610140808501519086830390870152613b02565b610160808401519085015261018080840151908501526101a080840151908501526101c080840151908501526101e08084015190850152610200808401519085015261022080840151908501526102408084015190850152610260808401519085830390860152613b02565b916102808092015191818403910152613b02565b8d8d6102a08092015191818403910152613b02565b8c6102c080910151908d01528c8c6102e08092015191818403910152613b02565b610300808d0151908c8303908d0152613b02565b610320808c01511515908b0152610340808c0151908b8303908c0152613b02565b610360808b0151908a8303908b0152613b02565b610380808a015190898303908a0152613b02565b6103a0808901519088830390890152613b02565b6103c0808801519087830390880152613b02565b6103e0808701519086830390870152613b02565b610400808601519085830390860152613b02565b610420808501519084830390850152613b02565b916104408082015190830152610460808201519083015261048080820151908301526104a0808201511515908301526104c080820151908301526104e0808201519083015261050080910151151591015290565b908082519081815260208091019281808460051b8301019501936000915b848310613dff5750505050505090565b9091929394958480613e51600193601f198682030187528a51613e3e613e2e6060835190808652850190613b02565b8583015184820387860152613b02565b9160408092015191818403910152613b02565b9801930193019194939290613def565b90815180825260208080930193019160005b828110613e81575050505090565b835185529381019392810192600101613e73565b90808251908181526020809101926020808460051b8301019501936000915b848310613ec45750505050505090565b9091929394958480613ee2600193601f198682030187528a51613b34565b9801930193019194939290613eb4565b15613ef957565b60405162461bcd60e51b815260206004820152601560248201527413195b99195c955a59081a5cc81c995c5d5a5c9959605a1b6044820152606490fd5b15613f3d57565b60405162461bcd60e51b8152602060048201526013602482015272131bd85b955a59081a5cc81c995c5d5a5c9959606a1b6044820152606490fd5b613fd391613f8882511515613ef2565b613f9481511515613f36565b604051928391602094859182613fb38184019788815193849201613adf565b8201613fc782518093868085019101613adf565b01038084520182613a16565b5190209060405190613fe4826139fb565b601082526f181899199a1a9b1b9c1cb0b131b232b360811b818301526040519261400d846139e0565b604084526040368386013760005b828110614029575050505090565b600f82821a60046001600160f81b03198061404884841c86168a614f83565b51169360019386851b95878704600214881517156140b65761407b92919060001a614073888e614f83565b531689614f83565b51169183018093116140a157509061409a6001939260001a9188614f83565b530161401b565b601190634e487b7160e01b6000525260246000fd5b601185634e487b7160e01b6000525260246000fd5b81601f8201121561021b5780516140e181613a37565b926140ef6040519485613a16565b8184526020828401011161021b57613adc9160208085019101613adf565b60208183031261021b5780516001600160401b039182821161021b57019060e08284031261021b576040519260e084018481108382111761262e57604052825182811161021b57816141609185016140cb565b8452602083015182811161021b578161417a9185016140cb565b6020850152604083015182811161021b57816141979185016140cb565b6040850152606083015191821161021b576141b39183016140cb565b60608301526080810151906001600160a01b038216820361021b5760c091608084015260a081015160a08401520151801515810361021b5760c082015290565b156141fa57565b60405162461bcd60e51b815260206004820152600f60248201526e55736572206e6f742061637469766560881b6044820152606490fd5b6040519061423e826139fb565b600882526737b832b930ba37b960c11b6020830152565b60405190614262826139fb565b600582526430b236b4b760d91b6020830152565b1561427d57565b60405162461bcd60e51b815260206004820152602960248201527f4e6f7420617574686f72697a65643a206d757374206265206f70657261746f726044820152681037b91030b236b4b760b91b6064820152608490fd5b60206142ed918160405193828580945193849201613adf565b8101600381520301902090565b90600182811c9216801561432a575b602083101461431457565b634e487b7160e01b600052602260045260246000fd5b91607f1691614309565b805460009392614343826142fa565b918282526020936001916001811690816000146143ab575060011461436a575b5050505050565b90939495506000929192528360002092846000945b83861061439757505050500101903880808080614363565b80548587018301529401938590820161437f565b60ff19168685015250505090151560051b010191503880808080614363565b9060409161050060ff60288551936143e1856139a9565b849680516143f3816103918186614334565b86528051614408816103918160018701614334565b60208701528051614420816103918160028701614334565b818701528051614437816103918160038701614334565b606087015260048201546080870152600582015460a0870152600682015460c0870152600782015460e087015260088201546101008701526009820154610120870152805161448d8161039181600a8701614334565b610140870152600b820154610160870152600c820154610180870152600d8201546101a0870152600e8201546101c0870152600f8201546101e087015260108201546102008701526011820154610220870152601282015461024087015280516144fe816103918160138701614334565b6102608701528051614517816103918160148701614334565b6102808701528051614530816103918160158701614334565b6102a087015260168201546102c08701528051614554816103918160178701614334565b6102e0870152805161456d816103918160188701614334565b61030087015283601983015416151561032087015280516145958161039181601a8701614334565b61034087015280516145ae8161039181601b8701614334565b61036087015280516145c78161039181601c8701614334565b61038087015280516145e08161039181601d8701614334565b6103a087015280516145f98161039181601e8701614334565b6103c087015280516146128161039181601f8701614334565b6103e0870152805161462b816103918160208701614334565b61040087015251614643816103918160218601614334565b6104208601526022810154610440860152602381015461046086015260248101546104808601528260258201541615156104a086015260268101546104c086015260278101546104e08601520154161515910152565b8181106146a4575050565b60008155600101614699565b9190601f81116146bf57505050565b6146eb926000526020600020906020601f840160051c830193106146ed575b601f0160051c0190614699565b565b90915081906146de565b91909182516001600160401b03811161262e5761471e8161471884546142fa565b846146b0565b602080601f831160011461476157508190614752939495600092614756575b50508160011b916000199060031b1c19161790565b9055565b01519050388061473d565b90601f19831695846000526020600020926000905b8882106147ae57505083600195969710614795575b505050811b019055565b015160001960f88460031b161c1916905538808061478b565b80600185968294968601518155019501930190614776565b600b548110156147e157600b60005260206000200190600090565b634e487b7160e01b600052603260045260246000fd5b80548210156147e15760005260206000200190600090565b8054600160401b81101561262e5761482c916001820181556147f7565b9190916137e3576146eb916146f7565b61485490602060405192828480945193849201613adf565b810103902090565b8054600160401b81101561262e57614879916001820181556147f7565b819291549060031b91821b91600019901b1916179055565b6040519061489e826139a9565b8161050060609182815282602082015282604082015282808201526000928360808301528360a08301528360c08301528360e08301528361010083015283610120830152806101408301528361016083015283610180830152836101a0830152836101c0830152836101e08301528361020083015283610220830152836102408301528061026083015280610280830152806102a0830152836102c0830152806102e08301528061030083015283610320830152806103408301528061036083015280610380830152806103a0830152806103c0830152806103e083015280610400830152610420820152826104408201528261046082015282610480820152826104a0820152826104c0820152826104e08201520152565b6001600160401b03811161262e5760051b60200190565b80518210156147e15760209160051b010190565b9081546149ee816149b7565b926040936149fe85519182613a16565b82815280946020809201926000526020600020906000935b858510614a2557505050505050565b6003846001928451614a36816139e0565b8551614a4681610391818b614334565b81528551614a5a8161039181898c01614334565b838201528551614a71816103918160028c01614334565b86820152815201930194019391614a16565b614a8b614891565b50600090808252602092600a84526040610391614aaf828620835192838092614334565b805115614bea5785614acd9181845193828580945193849201613adf565b81016004815203019020938454614ae3816149b7565b95614af084519788613a16565b81875282528682208290888089015b848410614bc5575050505050805b8551811015614b7657614b49614b3a88614b27848a6149ce565b5181875193828580945193849201613adf565b810160058152030190206143ca565b8561044082015114614b5e5750600101614b0d565b96600294965060069150613adc9583525220016149e2565b825162461bcd60e51b815260048101889052602260248201527f4c6f616e207374617465206e6f7420666f756e6420666f722074686973205478604482015261125960f21b6064820152608490fd5b60019182918851614bda816103918189614334565b8152019201920191908990614aff565b815162461bcd60e51b8152600481018790526015602482015274151c985b9cd858dd1a5bdb881b9bdd08199bdd5b99605a1b6044820152606490fd5b15614c2d57565b60405162461bcd60e51b815260206004820152601060248201526f131bd85b881251081c995c5d5a5c995960821b6044820152606490fd5b90614c6f826149b7565b614c7c6040519182613a16565b8281528092614c8d601f19916149b7565b0190602036910137565b604051908160008254614ca9816142fa565b93600191808316908115614d0f5750600114614cd1575b505060209250600381520301902090565b9091506000526020906020600020906000915b858310614cfb575050505060209181013880614cc0565b805487840152869450918301918101614ce4565b92505050602093915060ff191682528015150281013880614cc0565b6000198114610fe75760010190565b90614d44826149b7565b614d516040519182613a16565b8281528092614d62601f19916149b7565b019060005b828110614d7357505050565b602090614d7e614891565b82828501015201614d67565b15614d9157565b60405162461bcd60e51b8152602060048201526013602482015272131bd85b88191bd95cc81b9bdd08195e1a5cdd606a1b6044820152606490fd5b90808214614ea657614dde81546142fa565b906001600160401b03821161262e57614e0182614dfb85546142fa565b856146b0565b600090601f8311600114614e3c57614752929160009183614e315750508160011b916000199060031b1c19161790565b01549050388061473d565b815260208082208483528183209291601f1985169083905b828210614e8d575050908460019594939210614e7457505050811b019055565b015460001960f88460031b161c1916905538808061478b565b8495819295850154815560018091019601940190614e54565b5050565b15614eb157565b60405162461bcd60e51b8152602060048201526017602482015276151a19481b1bd85b88191bd95cc81b9bdd08195e1a5cdd604a1b6044820152606490fd5b906137e357614eff81546142fa565b9081614f09575050565b81601f60009311600114614f1b575055565b908083918252614f3a601f60208420940160051c840160018501614699565b5555565b15614f4557565b60405162461bcd60e51b81526020600482015260166024820152754f6e6c79204d61726b6574706c61636542726964676560501b6044820152606490fd5b9081518110156147e1570160200190565b80156150355780816000925b615021575080614faf83613a37565b92614fbd6040519485613a16565b808452601f19614fcc82613a37565b01366020860137905b614fde57505090565b6000198101908111610fe7578091600a9160308383068101809111610fe75760f81b6001600160f81b03191660001a906150189086614f83565b53049081614fd5565b9161502d600a91614d2b565b920480614fa0565b50604051615042816139fb565b60018152600360fc1b602082015290565b908154600160401b81101561262e57600181018084558110156147e15760406002916146eb9460005260036020600020910201926150928151856146f7565b6150a36020820151600186016146f7565b015191016146f7565b604051906150b9826139fb565b600582526466616c736560d81b6020830152565b604051906150da826139fb565b60048252637472756560e01b6020830152565b9060a082015160a0820180518203615846575b5050608082015160808201805182036157e6575b505060e082015160e082018051820361578d575b50506101008083015190820180518203615734575b50506101e080830151908201805182036156d2575b50506102c0808301519082018051820361566c575b505061034091828101519283519360209485820120918401519182518684012003615622575b5050606081015180518482012090606084015191825186840120036155d5575b50506103c080820151805185820120918401519182518684012003615586575b505061038080820151805185820120918401519182518684012003615538575b5050610360808201518051858201209184015191825186840120036154e9575b50506101408082015180518582012091840151918251868401200361549b575b50506102e08082015180518086830120928501519283518785012014159081615491575b50615443575b50506103e0808201518051858201209184015191825186840120036153fb575b5050610400808201518051858201209184015191825186840120036153b2575b505061042080820151805185820120918401519182518684012003615363575b50506103208091015115159101928351151582036152d6575b50505050565b61533e9360029215615355576152ea6150cd565b905b5115615347576152fa6150cd565b905b60405194615309866139e0565b604051615315816139fb565b600d81526c4973466f7265636c6f7375726560981b828201528652850152604084015201615053565b388080806152d0565b61534f6150ac565b906152fc565b61535d6150ac565b906152ec565b6153ab9160405191615374836139e0565b604051615380816139fb565b600b81526a050726f70657274795a69760ac1b88820152835286830152604082015260028601615053565b38806152b7565b6153f491604051916153c3836139e0565b6040516153cf816139fb565b6005815264537461746560d81b88820152835286830152604082015260028601615053565b3880615297565b61543c916040519161540c836139e0565b604051615418816139fb565b60048152634369747960e01b88820152835286830152604082015260028601615053565b3880615277565b61548a9160405191615454836139e0565b604051615460816139fb565b600a8152694c656e6465724e616d6560b01b88820152835286830152604082015260028601615053565b3880615257565b9050151538615251565b6154e291604051916154ac836139e0565b6040516154b8816139fb565b600a81526921b7a137b93937bbb2b960b11b88820152835286830152604082015260028601615053565b388061522d565b61553191604051916154fa836139e0565b604051615506816139fb565b600b81526a506169644f66664461746560a81b88820152835286830152604082015260028601615053565b388061520d565b61557f9160405191615549836139e0565b604051615555816139fb565b600a81526950616964546f4461746560b01b88820152835286830152604082015260028601615053565b38806151ed565b6155ce9160405191615597836139e0565b6040516155a3816139fb565b600b81526a4e6578744475654461746560a81b88820152835286830152604082015260028601615053565b38806151cd565b61561b91604051916155e6836139e0565b6040516155f2816139fb565b600981526813195b99195c955a5960ba1b88820152835286830152604082015260028601615053565b38806151ad565b6156659160405191615633836139e0565b60405161563f816139fb565b600681526553746174757360d01b88820152835286830152604082015260028601615053565b388061518d565b61568261567b6156cb93614f94565b9151614f94565b6040519161568f836139e0565b60405161569b816139fb565b600e81526d13195b99195c93dddb995c9418dd60921b602082015283526020830152604082015260028501615053565b3880615167565b6156e161567b61572d93614f94565b604051916156ee836139e0565b6040516156fa816139fb565b6011815270111959995c9c9959155b9c185a59125b9d607a1b602082015283526020830152604082015260028501615053565b3880615152565b61574361567b61578693614f94565b60405191615750836139e0565b60405161575c816139fb565b6008815267536f6c645261746560c01b602082015283526020830152604082015260028501615053565b388061513d565b61579c61567b6157df93614f94565b604051916157a9836139e0565b6040516157b5816139fb565b60088152674e6f74655261746560c01b602082015283526020830152604082015260028501615053565b3880615128565b6157f561567b61583f93614f94565b60405191615802836139e0565b60405161580e816139fb565b600f81526e4f726967696e616c42616c616e636560881b602082015283526020830152604082015260028501615053565b3880615114565b61585561567b61589e93614f94565b60405191615862836139e0565b60405161586e816139fb565b600e81526d43757272656e7442616c616e636560901b602082015283526020830152604082015260028501615053565b3880615100565b91906137e3576146eb91614dcc565b6040805160208184516158cb818385809901613adf565b810160088152030190209160005b83548082101561595f576103916158ff6158f384886147f7565b50865192838092614334565b8381519101208651848801201461591957506001016158d9565b92509293505060001991828201918211610fe757610f8e61593d61594593866147f7565b5091856147f7565b81548015610fd157019061595c610fbd83836147f7565b55565b505050505050565b6000546001600160a01b0316330361597b57565b60405163118cdaa760e01b8152336004820152602490fdfea164736f6c6343000818000a",
  "linkReferences": {},
  "deployedLinkReferences": {}
}