{
  "_format": "hh-sol-artifact-1",
  "contractName": "LoanMarketplace",
  "sourceName": "src/avalanche/LoanMarketplace.sol",
  "abi": [
    {
      "inputs": [
        {
          "internalType": "address",
          "name": "initialOwner",
          "type": "address"
        },
        {
          "internalType": "address",
          "name": "_loanNFT",
          "type": "address"
        },
        {
          "internalType": "address",
          "name": "_paymentToken",
          "type": "address"
        },
        {
          "internalType": "address",
          "name": "_feeRecipient",
          "type": "address"
        }
      ],
      "stateMutability": "nonpayable",
      "type": "constructor"
    },
    {
      "inputs": [
        {
          "internalType": "address",
          "name": "owner",
          "type": "address"
        }
      ],
      "name": "OwnableInvalidOwner",
      "type": "error"
    },
    {
      "inputs": [
        {
          "internalType": "address",
          "name": "account",
          "type": "address"
        }
      ],
      "name": "OwnableUnauthorizedAccount",
      "type": "error"
    },
    {
      "inputs": [],
      "name": "ReentrancyGuardReentrantCall",
      "type": "error"
    },
    {
      "anonymous": false,
      "inputs": [
        {
          "indexed": true,
          "internalType": "uint256",
          "name": "tokenId",
          "type": "uint256"
        },
        {
          "indexed": true,
          "internalType": "address",
          "name": "seller",
          "type": "address"
        },
        {
          "indexed": false,
          "internalType": "uint256",
          "name": "timestamp",
          "type": "uint256"
        }
      ],
      "name": "ListingCancelled",
      "type": "event"
    },
    {
      "anonymous": false,
      "inputs": [
        {
          "indexed": true,
          "internalType": "uint256",
          "name": "tokenId",
          "type": "uint256"
        },
        {
          "indexed": false,
          "internalType": "uint256",
          "name": "oldPrice",
          "type": "uint256"
        },
        {
          "indexed": false,
          "internalType": "uint256",
          "name": "newPrice",
          "type": "uint256"
        },
        {
          "indexed": false,
          "internalType": "uint256",
          "name": "timestamp",
          "type": "uint256"
        }
      ],
      "name": "ListingPriceUpdated",
      "type": "event"
    },
    {
      "anonymous": false,
      "inputs": [
        {
          "indexed": true,
          "internalType": "uint256",
          "name": "tokenId",
          "type": "uint256"
        },
        {
          "indexed": true,
          "internalType": "address",
          "name": "seller",
          "type": "address"
        },
        {
          "indexed": false,
          "internalType": "uint256",
          "name": "price",
          "type": "uint256"
        },
        {
          "indexed": false,
          "internalType": "uint256",
          "name": "timestamp",
          "type": "uint256"
        }
      ],
      "name": "LoanListed",
      "type": "event"
    },
    {
      "anonymous": false,
      "inputs": [
        {
          "indexed": true,
          "internalType": "uint256",
          "name": "tokenId",
          "type": "uint256"
        },
        {
          "indexed": true,
          "internalType": "address",
          "name": "seller",
          "type": "address"
        },
        {
          "indexed": true,
          "internalType": "address",
          "name": "buyer",
          "type": "address"
        },
        {
          "indexed": false,
          "internalType": "uint256",
          "name": "price",
          "type": "uint256"
        },
        {
          "indexed": false,
          "internalType": "uint256",
          "name": "fee",
          "type": "uint256"
        },
        {
          "indexed": false,
          "internalType": "uint256",
          "name": "timestamp",
          "type": "uint256"
        }
      ],
      "name": "LoanSold",
      "type": "event"
    },
    {
      "anonymous": false,
      "inputs": [
        {
          "indexed": false,
          "internalType": "uint256",
          "name": "oldFee",
          "type": "uint256"
        },
        {
          "indexed": false,
          "internalType": "uint256",
          "name": "newFee",
          "type": "uint256"
        },
        {
          "indexed": false,
          "internalType": "uint256",
          "name": "timestamp",
          "type": "uint256"
        }
      ],
      "name": "MarketplaceFeeUpdated",
      "type": "event"
    },
    {
      "anonymous": false,
      "inputs": [
        {
          "indexed": true,
          "internalType": "address",
          "name": "previousOwner",
          "type": "address"
        },
        {
          "indexed": true,
          "internalType": "address",
          "name": "newOwner",
          "type": "address"
        }
      ],
      "name": "OwnershipTransferred",
      "type": "event"
    },
    {
      "inputs": [],
      "name": "MAX_FEE",
      "outputs": [
        {
          "internalType": "uint256",
          "name": "",
          "type": "uint256"
        }
      ],
      "stateMutability": "view",
      "type": "function"
    },
    {
      "inputs": [
        {
          "internalType": "uint256",
          "name": "tokenId",
          "type": "uint256"
        }
      ],
      "name": "buyLoan",
      "outputs": [],
      "stateMutability": "nonpayable",
      "type": "function"
    },
    {
      "inputs": [
        {
          "internalType": "uint256",
          "name": "price",
          "type": "uint256"
        }
      ],
      "name": "calculateFee",
      "outputs": [
        {
          "internalType": "uint256",
          "name": "",
          "type": "uint256"
        }
      ],
      "stateMutability": "view",
      "type": "function"
    },
    {
      "inputs": [
        {
          "internalType": "uint256",
          "name": "tokenId",
          "type": "uint256"
        }
      ],
      "name": "canBeListed",
      "outputs": [
        {
          "internalType": "bool",
          "name": "",
          "type": "bool"
        }
      ],
      "stateMutability": "view",
      "type": "function"
    },
    {
      "inputs": [
        {
          "internalType": "uint256",
          "name": "tokenId",
          "type": "uint256"
        }
      ],
      "name": "cancelListing",
      "outputs": [],
      "stateMutability": "nonpayable",
      "type": "function"
    },
    {
      "inputs": [
        {
          "internalType": "uint256",
          "name": "tokenId",
          "type": "uint256"
        }
      ],
      "name": "emergencyCancelListing",
      "outputs": [],
      "stateMutability": "nonpayable",
      "type": "function"
    },
    {
      "inputs": [
        {
          "internalType": "uint256[]",
          "name": "tokenIds",
          "type": "uint256[]"
        }
      ],
      "name": "emergencyCancelMultiple",
      "outputs": [],
      "stateMutability": "nonpayable",
      "type": "function"
    },
    {
      "inputs": [
        {
          "internalType": "address",
          "name": "token",
          "type": "address"
        },
        {
          "internalType": "uint256",
          "name": "amount",
          "type": "uint256"
        }
      ],
      "name": "emergencyWithdraw",
      "outputs": [],
      "stateMutability": "nonpayable",
      "type": "function"
    },
    {
      "inputs": [],
      "name": "feeRecipient",
      "outputs": [
        {
          "internalType": "address",
          "name": "",
          "type": "address"
        }
      ],
      "stateMutability": "view",
      "type": "function"
    },
    {
      "inputs": [
        {
          "internalType": "uint256",
          "name": "tokenId",
          "type": "uint256"
        }
      ],
      "name": "getInvalidReason",
      "outputs": [
        {
          "internalType": "string",
          "name": "",
          "type": "string"
        }
      ],
      "stateMutability": "view",
      "type": "function"
    },
    {
      "inputs": [
        {
          "internalType": "uint256",
          "name": "tokenId",
          "type": "uint256"
        }
      ],
      "name": "getListing",
      "outputs": [
        {
          "components": [
            {
              "internalType": "address",
              "name": "seller",
              "type": "address"
            },
            {
              "internalType": "uint256",
              "name": "price",
              "type": "uint256"
            },
            {
              "internalType": "bool",
              "name": "isActive",
              "type": "bool"
            },
            {
              "internalType": "uint256",
              "name": "listedAt",
              "type": "uint256"
            }
          ],
          "internalType": "struct LoanMarketplace.Listing",
          "name": "",
          "type": "tuple"
        }
      ],
      "stateMutability": "view",
      "type": "function"
    },
    {
      "inputs": [
        {
          "internalType": "uint256",
          "name": "tokenId",
          "type": "uint256"
        }
      ],
      "name": "getListingPrice",
      "outputs": [
        {
          "internalType": "uint256",
          "name": "",
          "type": "uint256"
        }
      ],
      "stateMutability": "view",
      "type": "function"
    },
    {
      "inputs": [
        {
          "internalType": "uint256",
          "name": "price",
          "type": "uint256"
        }
      ],
      "name": "getSellerAmount",
      "outputs": [
        {
          "internalType": "uint256",
          "name": "",
          "type": "uint256"
        }
      ],
      "stateMutability": "view",
      "type": "function"
    },
    {
      "inputs": [
        {
          "internalType": "uint256",
          "name": "tokenId",
          "type": "uint256"
        }
      ],
      "name": "isListed",
      "outputs": [
        {
          "internalType": "bool",
          "name": "",
          "type": "bool"
        }
      ],
      "stateMutability": "view",
      "type": "function"
    },
    {
      "inputs": [
        {
          "internalType": "uint256",
          "name": "tokenId",
          "type": "uint256"
        },
        {
          "internalType": "uint256",
          "name": "price",
          "type": "uint256"
        }
      ],
      "name": "listForSale",
      "outputs": [],
      "stateMutability": "nonpayable",
      "type": "function"
    },
    {
      "inputs": [
        {
          "internalType": "uint256",
          "name": "",
          "type": "uint256"
        }
      ],
      "name": "listings",
      "outputs": [
        {
          "internalType": "address",
          "name": "seller",
          "type": "address"
        },
        {
          "internalType": "uint256",
          "name": "price",
          "type": "uint256"
        },
        {
          "internalType": "bool",
          "name": "isActive",
          "type": "bool"
        },
        {
          "internalType": "uint256",
          "name": "listedAt",
          "type": "uint256"
        }
      ],
      "stateMutability": "view",
      "type": "function"
    },
    {
      "inputs": [],
      "name": "loanNFT",
      "outputs": [
        {
          "internalType": "contract ILoanNFT",
          "name": "",
          "type": "address"
        }
      ],
      "stateMutability": "view",
      "type": "function"
    },
    {
      "inputs": [],
      "name": "marketplaceFee",
      "outputs": [
        {
          "internalType": "uint256",
          "name": "",
          "type": "uint256"
        }
      ],
      "stateMutability": "view",
      "type": "function"
    },
    {
      "inputs": [],
      "name": "owner",
      "outputs": [
        {
          "internalType": "address",
          "name": "",
          "type": "address"
        }
      ],
      "stateMutability": "view",
      "type": "function"
    },
    {
      "inputs": [],
      "name": "paymentToken",
      "outputs": [
        {
          "internalType": "contract IERC20",
          "name": "",
          "type": "address"
        }
      ],
      "stateMutability": "view",
      "type": "function"
    },
    {
      "inputs": [],
      "name": "renounceOwnership",
      "outputs": [],
      "stateMutability": "nonpayable",
      "type": "function"
    },
    {
      "inputs": [
        {
          "internalType": "address",
          "name": "newRecipient",
          "type": "address"
        }
      ],
      "name": "setFeeRecipient",
      "outputs": [],
      "stateMutability": "nonpayable",
      "type": "function"
    },
    {
      "inputs": [
        {
          "internalType": "address",
          "name": "_loanNFT",
          "type": "address"
        }
      ],
      "name": "setLoanNFT",
      "outputs": [],
      "stateMutability": "nonpayable",
      "type": "function"
    },
    {
      "inputs": [
        {
          "internalType": "uint256",
          "name": "newFee",
          "type": "uint256"
        }
      ],
      "name": "setMarketplaceFee",
      "outputs": [],
      "stateMutability": "nonpayable",
      "type": "function"
    },
    {
      "inputs": [
        {
          "internalType": "address",
          "name": "_token",
          "type": "address"
        }
      ],
      "name": "setPaymentToken",
      "outputs": [],
      "stateMutability": "nonpayable",
      "type": "function"
    },
    {
      "inputs": [],
      "name": "totalSales",
      "outputs": [
        {
          "internalType": "uint256",
          "name": "",
          "type": "uint256"
        }
      ],
      "stateMutability": "view",
      "type": "function"
    },
    {
      "inputs": [],
      "name": "totalVolume",
      "outputs": [
        {
          "internalType": "uint256",
          "name": "",
          "type": "uint256"
        }
      ],
      "stateMutability": "view",
      "type": "function"
    },
    {
      "inputs": [
        {
          "internalType": "address",
          "name": "newOwner",
          "type": "address"
        }
      ],
      "name": "transferOwnership",
      "outputs": [],
      "stateMutability": "nonpayable",
      "type": "function"
    },
    {
      "inputs": [
        {
          "internalType": "uint256",
          "name": "tokenId",
          "type": "uint256"
        },
        {
          "internalType": "uint256",
          "name": "newPrice",
          "type": "uint256"
        }
      ],
      "name": "updateListingPrice",
      "outputs": [],
      "stateMutability": "nonpayable",
      "type": "function"
    }
  ],
  "bytecode": "0x6080346200020257601f62001bfd38819003918201601f191683019291906001600160401b0384118385101762000207578160809284926040968752833981010312620002025762000051816200021d565b9062000060602082016200021d565b916200007c6060620000748685016200021d565b93016200021d565b6001600160a01b03918216929091908315620001ea57816000549560018060a01b031995808789161760005582895198167f8be0079c531659141344cd1fd0a4f28419497f9722a3daafe3b4186f6b6457e0600080a36001805560fa60045516948515620001a85750811691821562000164571692831562000120578260025416176002558160035416176003556005541617600555516119ca9081620002338239f35b845162461bcd60e51b815260206004820152601560248201527f496e76616c69642066656520726563697069656e7400000000000000000000006044820152606490fd5b855162461bcd60e51b815260206004820152601560248201527f496e76616c696420746f6b656e206164647265737300000000000000000000006044820152606490fd5b62461bcd60e51b815260206004820152601360248201527f496e76616c6964204e46542061646472657373000000000000000000000000006044820152606490fd5b8551631e4fbdf760e01b815260006004820152602490fd5b600080fd5b634e487b7160e01b600052604160045260246000fd5b51906001600160a01b0382168203620002025756fe6080604081815260048036101561001557600080fd5b600092833560e01c908163107a274a146112c8575080633013ce291461129f578063305a67a8146111a957806334a4117714611180578063469048401461115757806354d3d34d1461105a5780635f81a57c1461103b5780636605ff661461101c5780636a16696414610fff5780636a326ab114610fb2578063715018a614610f585780638da5cb5b14610f305780639407ea9814610e8a57806395ccea6714610dbd57806399a5d74714610d9d5780639f4a714214610d50578063bc063e1a14610d33578063c460494314610c5a578063c56370e914610bea578063c5bdd9bb14610b9c578063ccd89401146106ef578063d6077fbf146106ac578063dc14795d1461067b578063de74e57b14610625578063e74b981b146105d8578063e80d7fec14610248578063f1c88b4b1461021c578063f2fde38b146101945763fcce48831461016257600080fd5b346101905760203660031901126101905760028260209460ff93358152600686522001541690519015158152f35b8280fd5b5034610190576020366003190112610190576101ae611363565b906101b761190e565b6001600160a01b039182169283156102065750506000548260018060a01b0319821617600055167f8be0079c531659141344cd1fd0a4f28419497f9722a3daafe3b4186f6b6457e0600080a380f35b51631e4fbdf760e01b8152908101849052602490fd5b509134610245576020366003190112610245575061023c60209235611884565b90519015158152f35b80fd5b5034610190576102573661137e565b9290916102626118eb565b61026d84151561150b565b60025482516331a9108f60e11b81528083018590526020926001600160a01b0392909160249184169085818481855afa9081156104c4578a916105bb575b508433911603610587578689526006855260ff6002878b2001541661055457855163604ed12b60e01b815283810188905289818481855afa9081156104c457906102fc918b91610532575b5061193a565b156104ce57855163020604bf60e21b815283810188905285818481855afa9081156104c4579086918b91610497575b5085163014918215610429575b5050156103d957505090829160037f03fb2513f7ac5da5496f5721a0c6d9bc184373cbe902b09cf167f02460897969945191610373836113b7565b33835283830188815285840190600182526060850192428452898c5260068752878c2095511660018060a01b0319865416178555516001850155600284019051151560ff8019835416911617905551910155815194855242908501523393a36001805580f35b845162461bcd60e51b81529182018490526025908201527f4d61726b6574706c616365206e6f7420617070726f76656420666f72207468696044820152641cc813919560da1b6064820152608490fd5b875163e985e9c560e01b8152338682015230858201529250829060449082905afa90811561048d578991610460575b508438610338565b6104809150853d8711610486575b6104788183611403565b8101906114c1565b38610458565b503d61046e565b86513d8b823e3d90fd5b6104b79150823d84116104bd575b6104af8183611403565b810190611836565b3861032b565b503d6104a5565b87513d8c823e3d90fd5b855162461bcd60e51b81528084018690526039818401527f4c6f616e2063616e6e6f74206265206c6973746564202870616964206f66662c60448201527820666f7265636c6f7365642c206f7220756e6c6f636b65642960381b6064820152608490fd5b61054e91503d808d833e6105468183611403565b81019061159f565b386102f6565b855162461bcd60e51b8152808401869052600e818401526d105b1c9958591e481b1a5cdd195960921b6044820152606490fd5b855162461bcd60e51b8152808401869052600f818401526e2737ba103a37b5b2b71037bbb732b960891b6044820152606490fd5b6105d29150863d88116104bd576104af8183611403565b386102ab565b8334610245576020366003190112610245576105f2611363565b6105fa61190e565b6001600160a01b031661060e811515611483565b600580546001600160a01b03191691909117905580f35b503461019057602036600319011261019057608092829135815260066020522060018060a01b0381541691600182015491600360ff60028301541691015492825194855260208501521515908301526060820152f35b50913461024557602036600319011261024557506106a56020923561069f816114d9565b90611855565b9051908152f35b5034610190576020366003190112610190578160209360019235808252600686526106df60ff6002858520015416611424565b8152600685522001549051908152f35b5090346101905760209182600319360112610b985780359061070f6118eb565b81855260068452828520908351610725816113b7565b60018060a01b0391828454168252600184015493878301948552600360ff600283015416159182158986015201546060840152610b6657828251163314610b2a5760025486516331a9108f60e11b81528281018790526024959185169089818881855afa9081156109ff578b91610b0d575b508580865116911603610acf5789869189519283809263604ed12b60e01b82528b888301525afa90811561095957906107d6918b91610532575061193a565b15610a6d5751936107e6856114d9565b976107f18987611855565b878b52600682526002898c200160ff1981541690558a82610833886003541689895116948d519485809481936323b872dd60e01b998a84528d33908501611862565b03925af1908115610a63578c91610a46575b5015610a09578a8a8a9281610967575b505050505083600254168985855116823b156109635761088e928991838c51809681958294632142170760e11b845233908c8501611862565b03925af180156109595761092d575b50600754600019811461091b576001016007556008549185830180931161090a57505060085551935191825260208201949094524260408201523393909216917fed1204cf140d05d4f199b0b430250983e30b85144a375fc008b49290b2b34cc690606090a46001805580f35b634e487b7160e01b8a526011905288fd5b50634e487b7160e01b89526011825288fd5b6001600160401b03819a929a11610947578752973861089d565b5060418992634e487b7160e01b835252fd5b88513d8c823e3d90fd5b5080fd5b61098c9385938a60035416928b600554169251968795869485938452338d8501611862565b03925af19081156109ff578b916109e2575b50156109ad57878a8a83610855565b875162461bcd60e51b81529283015260129082015271119959481c185e5b595b9d0819985a5b195960721b6044820152606490fd5b6109f99150823d8411610486576104788183611403565b3861099e565b89513d8d823e3d90fd5b885162461bcd60e51b81528085018390526018818501527714185e5b595b9d081d1bc81cd95b1b195c8819985a5b195960421b6044820152606490fd5b610a5d9150833d8511610486576104788183611403565b38610845565b8a513d8e823e3d90fd5b865162461bcd60e51b81528083018990526037818701527f4c6f616e2063616e6e6f7420626520736f6c64202870616964206f66662c20666044820152766f7265636c6f7365642c206f7220756e6c6f636b65642960481b6064820152608490fd5b875162461bcd60e51b81528084018a90526019818801527814d95b1b195c881b9bc81b1bdb99d95c881bdddb9cc8139195603a1b6044820152606490fd5b610b2491508a3d8c116104bd576104af8183611403565b38610797565b855162461bcd60e51b8152908101879052601660248201527543616e6e6f7420627579206f776e206c697374696e6760501b6044820152606490fd5b855162461bcd60e51b8152908101879052600c60248201526b4e6f7420666f722073616c6560a01b6044820152606490fd5b8380fd5b5082346102455760203660031901126102455750610bba90356116dc565b908051809260208252610bdc8151809281602086015260208686019101611394565b601f01601f19168101030190f35b50346101905760203660031901126101905735610c0561190e565b8083526006602052610c1f60ff6002848620015416611424565b808352600660205260008051602061199e833981519152602083852093600260018060a01b03865416950160ff19815416905551428152a380f35b50903461019057610c6a3661137e565b9092610c746118eb565b838552600660205282852090610c9060ff600284015416611424565b81546001600160a01b03163303610d03575090610cf960017fa353b0f8bf69b8530691fd6506a1df95517036cfcd1ac2a82a1219e6b10f8d159493610cd684151561150b565b018054908390559251928352602083019190915242604083015281906060820190565b0390a26001805580f35b606490602085519162461bcd60e51b8352820152600a6024820152692737ba1039b2b63632b960b11b6044820152fd5b505034610963578160031936011261096357602090516103e88152f35b833461024557602036600319011261024557610d6a611363565b610d7261190e565b6001600160a01b0316610d86811515611483565b600280546001600160a01b03191691909117905580f35b50913461024557602036600319011261024557506106a5602092356114d9565b509034610190578060031936011261019057610dd7611363565b610ddf61190e565b8354825163a9059cbb60e01b81526001600160a01b0391821685820152602480359082015291602091839160449183918991165af1908115610e80578491610e61575b5015610e2c578280f35b906020606492519162461bcd60e51b8352820152600f60248201526e15da5d1a191c985dc819985a5b1959608a1b6044820152fd5b610e7a915060203d602011610486576104788183611403565b38610e22565b82513d86823e3d90fd5b50829034610963576020366003190112610963578035610ea861190e565b6103e88111610ef45781549181905592519081526020810192909252426040830152907fcddce7ef430c4766c1f253a66171f8fd727b7db83a665a26261bd1aa9afbcbe390606090a180f35b835162461bcd60e51b8152602081840152601660248201527546656520746f6f206869676820286d6178203130252960501b6044820152606490fd5b505034610963578160031936011261096357905490516001600160a01b039091168152602090f35b8334610245578060031936011261024557610f7161190e565b80546001600160a01b03198116825581906001600160a01b03167f8be0079c531659141344cd1fd0a4f28419497f9722a3daafe3b4186f6b6457e08280a380f35b833461024557602036600319011261024557610fcc611363565b610fd461190e565b6001600160a01b0316610fe8811515611483565b600380546001600160a01b03191691909117905580f35b503461019057826003193601126101905760209250549051908152f35b5050346109635781600319360112610963576020906007549051908152f35b5050346109635781600319360112610963576020906008549051908152f35b5034610190576020916020600319360112610b985781356001600160401b039283821161115357366023830112156111535781013592831161114f576024810190602436918560051b01011161114f576110b261190e565b845b8381106110bf578580f35b806110cd600192868561145d565b3587526006808752600260ff81878b200154166110ed575b5050016110b4565b6110f883888761145d565b358952818852838060a01b03868a2054169161111584898861145d565b358a52885285892001805460ff1916905561113182878661145d565b3560008051602061199e833981519152888751428152a338806110e5565b8480fd5b8580fd5b50503461096357816003193601126109635760055490516001600160a01b039091168152602090f35b50503461096357816003193601126109635760025490516001600160a01b039091168152602090f35b503461019057602080600319360112610b98578135916111c76118eb565b82855260068252838520908451906111de826113b7565b61121660018060a01b0393848154168452600181015486850152600360ff600283015416151591828a87015201546060850152611424565b8282511633148015611293575b1561125f57509060008051602061199e83398151915292918487526006835260028688200160ff19815416905551169351428152a36001805580f35b855162461bcd60e51b8152908101849052600e60248201526d139bdd08185d5d1a1bdc9a5e995960921b6044820152606490fd5b50828754163314611223565b50503461096357816003193601126109635760035490516001600160a01b039091168152602090f35b905034610b98576020366003190112610b9857928291816060866112ed6080986113b7565b8281528260208201528286820152015235815260066020522090805190611313826113b7565b60018060a01b03835416928383526001810154602084019081526060600360ff60028501541693858701941515855201549401938452825194855251602085015251151590830152516060820152f35b600435906001600160a01b038216820361137957565b600080fd5b6040906003190112611379576004359060243590565b60005b8381106113a75750506000910152565b8181015183820152602001611397565b608081019081106001600160401b038211176113d257604052565b634e487b7160e01b600052604160045260246000fd5b604081019081106001600160401b038211176113d257604052565b90601f801991011681019081106001600160401b038211176113d257604052565b1561142b57565b60405162461bcd60e51b815260206004820152600a602482015269139bdd081b1a5cdd195960b21b6044820152606490fd5b919081101561146d5760051b0190565b634e487b7160e01b600052603260045260246000fd5b1561148a57565b60405162461bcd60e51b815260206004820152600f60248201526e496e76616c6964206164647265737360881b6044820152606490fd5b90816020910312611379575180151581036113795790565b600454908181029181830414901517156114f557612710900490565b634e487b7160e01b600052601160045260246000fd5b1561151257565b60405162461bcd60e51b815260206004820152601160248201527005072696365206d757374206265203e203607c1b6044820152606490fd5b81601f820112156113795780516001600160401b0381116113d2576040519261157e601f8301601f191660200185611403565b818452602082840101116113795761159c9160208085019101611394565b90565b6020818303126113795780516001600160401b039182821161137957019061012092838382031261137957604051938401848110838211176113d257604052825182811161137957816115f391850161154b565b84526020830151602085015260408301516040850152606083015160608501526080830151608085015260a0830151828111611379578161163591850161154b565b60a085015260c08301519182116113795761165191830161154b565b60c083015260e081015160e0830152610100809101519082015290565b6040519061167b826113e8565b60088252672830b4b21027b33360c11b6020830152565b6040519061169f826113e8565b600a825269119bdc9958db1bdcd95960b21b6020830152565b604051906116c5826113e8565b6008825267155b9b1bd8dad95960c21b6020830152565b60018060a01b03600254166000604092602484518094819363604ed12b60e01b835260048301525afa60009181611819575b5061174257505161171e816113e8565b6014815273151bdad95b88191bd95cc81b9bdd08195e1a5cdd60621b602082015290565b81810151156117f25760a0015190815160208093012061176061166e565b83815191012081146117e757611774611692565b83815191012081146117dc576117886116b8565b838151910120146117b2576415985b1a5960da1b9051916117a8836113e8565b6005835282015290565b6f556e6c6f636b656420696e204265737560801b9051916117d2836113e8565b6010835282015290565b50505061159c611692565b50505061159c61166e565b50516117fd816113e8565b600c81526b5a65726f2062616c616e636560a01b602082015290565b61182f9192503d806000833e6105468183611403565b903861170e565b9081602091031261137957516001600160a01b03811681036113795790565b919082039182116114f557565b6001600160a01b03918216815291166020820152604081019190915260600190565b60025460405163604ed12b60e01b81526004810192909252600090829060249082906001600160a01b03165afa600091816118ce575b506118c55750600090565b61159c9061193a565b6118e49192503d806000833e6105468183611403565b90386118ba565b6002600154146118fc576002600155565b604051633ee5aeb560e01b8152600490fd5b6000546001600160a01b0316330361192257565b60405163118cdaa760e01b8152336004820152602490fd5b6040810151156119975760a001516020815191012061195761166e565b6020815191012081146119975761196c611692565b602081519101208114611997576119816116b8565b602081519101201461199257600190565b600090565b5060009056feffadd0f4e7d64abb82ef3d770cd739a881c221c0b5b162238659e6567216abe2a164736f6c6343000818000a",
  "linkReferences": {},
  "deployedLinkReferences": {}
}