{
  "_format": "hh-sol-artifact-1",
  "contractName": "LoanMarketplace",
  "sourceName": "src/avalanche/LoanMarketplace.sol",
  "abi": [
    {
      "inputs": [
        {
          "internalType": "address",
          "name": "initialOwner",
          "type": "address"
        },
        {
          "internalType": "address",
          "name": "_loanNFT",
          "type": "address"
        },
        {
          "internalType": "address",
          "name": "_paymentToken",
          "type": "address"
        },
        {
          "internalType": "address",
          "name": "_feeRecipient",
          "type": "address"
        }
      ],
      "stateMutability": "nonpayable",
      "type": "constructor"
    },
    {
      "inputs": [
        {
          "internalType": "address",
          "name": "owner",
          "type": "address"
        }
      ],
      "name": "OwnableInvalidOwner",
      "type": "error"
    },
    {
      "inputs": [
        {
          "internalType": "address",
          "name": "account",
          "type": "address"
        }
      ],
      "name": "OwnableUnauthorizedAccount",
      "type": "error"
    },
    {
      "inputs": [],
      "name": "ReentrancyGuardReentrantCall",
      "type": "error"
    },
    {
      "anonymous": false,
      "inputs": [
        {
          "indexed": true,
          "internalType": "uint256",
          "name": "tokenId",
          "type": "uint256"
        },
        {
          "indexed": true,
          "internalType": "address",
          "name": "seller",
          "type": "address"
        },
        {
          "indexed": false,
          "internalType": "uint256",
          "name": "timestamp",
          "type": "uint256"
        }
      ],
      "name": "ListingCancelled",
      "type": "event"
    },
    {
      "anonymous": false,
      "inputs": [
        {
          "indexed": true,
          "internalType": "uint256",
          "name": "tokenId",
          "type": "uint256"
        },
        {
          "indexed": false,
          "internalType": "uint256",
          "name": "oldPrice",
          "type": "uint256"
        },
        {
          "indexed": false,
          "internalType": "uint256",
          "name": "newPrice",
          "type": "uint256"
        },
        {
          "indexed": false,
          "internalType": "uint256",
          "name": "timestamp",
          "type": "uint256"
        }
      ],
      "name": "ListingPriceUpdated",
      "type": "event"
    },
    {
      "anonymous": false,
      "inputs": [
        {
          "indexed": true,
          "internalType": "uint256",
          "name": "tokenId",
          "type": "uint256"
        },
        {
          "indexed": true,
          "internalType": "address",
          "name": "seller",
          "type": "address"
        },
        {
          "indexed": false,
          "internalType": "uint256",
          "name": "price",
          "type": "uint256"
        },
        {
          "indexed": false,
          "internalType": "uint256",
          "name": "timestamp",
          "type": "uint256"
        }
      ],
      "name": "LoanListed",
      "type": "event"
    },
    {
      "anonymous": false,
      "inputs": [
        {
          "indexed": true,
          "internalType": "uint256",
          "name": "tokenId",
          "type": "uint256"
        },
        {
          "indexed": true,
          "internalType": "address",
          "name": "seller",
          "type": "address"
        },
        {
          "indexed": true,
          "internalType": "address",
          "name": "buyer",
          "type": "address"
        },
        {
          "indexed": false,
          "internalType": "uint256",
          "name": "price",
          "type": "uint256"
        },
        {
          "indexed": false,
          "internalType": "uint256",
          "name": "fee",
          "type": "uint256"
        },
        {
          "indexed": false,
          "internalType": "uint256",
          "name": "timestamp",
          "type": "uint256"
        }
      ],
      "name": "LoanSold",
      "type": "event"
    },
    {
      "anonymous": false,
      "inputs": [
        {
          "indexed": false,
          "internalType": "uint256",
          "name": "oldFee",
          "type": "uint256"
        },
        {
          "indexed": false,
          "internalType": "uint256",
          "name": "newFee",
          "type": "uint256"
        },
        {
          "indexed": false,
          "internalType": "uint256",
          "name": "timestamp",
          "type": "uint256"
        }
      ],
      "name": "MarketplaceFeeUpdated",
      "type": "event"
    },
    {
      "anonymous": false,
      "inputs": [
        {
          "indexed": true,
          "internalType": "address",
          "name": "previousOwner",
          "type": "address"
        },
        {
          "indexed": true,
          "internalType": "address",
          "name": "newOwner",
          "type": "address"
        }
      ],
      "name": "OwnershipTransferred",
      "type": "event"
    },
    {
      "inputs": [],
      "name": "MAX_FEE",
      "outputs": [
        {
          "internalType": "uint256",
          "name": "",
          "type": "uint256"
        }
      ],
      "stateMutability": "view",
      "type": "function"
    },
    {
      "inputs": [
        {
          "internalType": "uint256",
          "name": "tokenId",
          "type": "uint256"
        }
      ],
      "name": "buyLoan",
      "outputs": [],
      "stateMutability": "nonpayable",
      "type": "function"
    },
    {
      "inputs": [
        {
          "internalType": "uint256",
          "name": "price",
          "type": "uint256"
        }
      ],
      "name": "calculateFee",
      "outputs": [
        {
          "internalType": "uint256",
          "name": "",
          "type": "uint256"
        }
      ],
      "stateMutability": "view",
      "type": "function"
    },
    {
      "inputs": [
        {
          "internalType": "uint256",
          "name": "tokenId",
          "type": "uint256"
        }
      ],
      "name": "canBeListed",
      "outputs": [
        {
          "internalType": "bool",
          "name": "",
          "type": "bool"
        }
      ],
      "stateMutability": "view",
      "type": "function"
    },
    {
      "inputs": [
        {
          "internalType": "uint256",
          "name": "tokenId",
          "type": "uint256"
        }
      ],
      "name": "cancelListing",
      "outputs": [],
      "stateMutability": "nonpayable",
      "type": "function"
    },
    {
      "inputs": [
        {
          "internalType": "uint256",
          "name": "tokenId",
          "type": "uint256"
        }
      ],
      "name": "emergencyCancelListing",
      "outputs": [],
      "stateMutability": "nonpayable",
      "type": "function"
    },
    {
      "inputs": [
        {
          "internalType": "uint256[]",
          "name": "tokenIds",
          "type": "uint256[]"
        }
      ],
      "name": "emergencyCancelMultiple",
      "outputs": [],
      "stateMutability": "nonpayable",
      "type": "function"
    },
    {
      "inputs": [
        {
          "internalType": "address",
          "name": "token",
          "type": "address"
        },
        {
          "internalType": "uint256",
          "name": "amount",
          "type": "uint256"
        }
      ],
      "name": "emergencyWithdraw",
      "outputs": [],
      "stateMutability": "nonpayable",
      "type": "function"
    },
    {
      "inputs": [],
      "name": "feeRecipient",
      "outputs": [
        {
          "internalType": "address",
          "name": "",
          "type": "address"
        }
      ],
      "stateMutability": "view",
      "type": "function"
    },
    {
      "inputs": [
        {
          "internalType": "uint256",
          "name": "tokenId",
          "type": "uint256"
        }
      ],
      "name": "getInvalidReason",
      "outputs": [
        {
          "internalType": "string",
          "name": "",
          "type": "string"
        }
      ],
      "stateMutability": "view",
      "type": "function"
    },
    {
      "inputs": [
        {
          "internalType": "uint256",
          "name": "tokenId",
          "type": "uint256"
        }
      ],
      "name": "getListing",
      "outputs": [
        {
          "components": [
            {
              "internalType": "address",
              "name": "seller",
              "type": "address"
            },
            {
              "internalType": "uint256",
              "name": "price",
              "type": "uint256"
            },
            {
              "internalType": "bool",
              "name": "isActive",
              "type": "bool"
            },
            {
              "internalType": "uint256",
              "name": "listedAt",
              "type": "uint256"
            }
          ],
          "internalType": "struct LoanMarketplace.Listing",
          "name": "",
          "type": "tuple"
        }
      ],
      "stateMutability": "view",
      "type": "function"
    },
    {
      "inputs": [
        {
          "internalType": "uint256",
          "name": "tokenId",
          "type": "uint256"
        }
      ],
      "name": "getListingPrice",
      "outputs": [
        {
          "internalType": "uint256",
          "name": "",
          "type": "uint256"
        }
      ],
      "stateMutability": "view",
      "type": "function"
    },
    {
      "inputs": [
        {
          "internalType": "uint256",
          "name": "price",
          "type": "uint256"
        }
      ],
      "name": "getSellerAmount",
      "outputs": [
        {
          "internalType": "uint256",
          "name": "",
          "type": "uint256"
        }
      ],
      "stateMutability": "view",
      "type": "function"
    },
    {
      "inputs": [
        {
          "internalType": "uint256",
          "name": "tokenId",
          "type": "uint256"
        }
      ],
      "name": "isListed",
      "outputs": [
        {
          "internalType": "bool",
          "name": "",
          "type": "bool"
        }
      ],
      "stateMutability": "view",
      "type": "function"
    },
    {
      "inputs": [
        {
          "internalType": "uint256",
          "name": "tokenId",
          "type": "uint256"
        },
        {
          "internalType": "uint256",
          "name": "price",
          "type": "uint256"
        }
      ],
      "name": "listForSale",
      "outputs": [],
      "stateMutability": "nonpayable",
      "type": "function"
    },
    {
      "inputs": [
        {
          "internalType": "uint256",
          "name": "",
          "type": "uint256"
        }
      ],
      "name": "listings",
      "outputs": [
        {
          "internalType": "address",
          "name": "seller",
          "type": "address"
        },
        {
          "internalType": "uint256",
          "name": "price",
          "type": "uint256"
        },
        {
          "internalType": "bool",
          "name": "isActive",
          "type": "bool"
        },
        {
          "internalType": "uint256",
          "name": "listedAt",
          "type": "uint256"
        }
      ],
      "stateMutability": "view",
      "type": "function"
    },
    {
      "inputs": [],
      "name": "loanNFT",
      "outputs": [
        {
          "internalType": "contract ILoanNFT",
          "name": "",
          "type": "address"
        }
      ],
      "stateMutability": "view",
      "type": "function"
    },
    {
      "inputs": [],
      "name": "marketplaceFee",
      "outputs": [
        {
          "internalType": "uint256",
          "name": "",
          "type": "uint256"
        }
      ],
      "stateMutability": "view",
      "type": "function"
    },
    {
      "inputs": [],
      "name": "owner",
      "outputs": [
        {
          "internalType": "address",
          "name": "",
          "type": "address"
        }
      ],
      "stateMutability": "view",
      "type": "function"
    },
    {
      "inputs": [],
      "name": "paymentToken",
      "outputs": [
        {
          "internalType": "contract IERC20",
          "name": "",
          "type": "address"
        }
      ],
      "stateMutability": "view",
      "type": "function"
    },
    {
      "inputs": [],
      "name": "renounceOwnership",
      "outputs": [],
      "stateMutability": "nonpayable",
      "type": "function"
    },
    {
      "inputs": [
        {
          "internalType": "address",
          "name": "newRecipient",
          "type": "address"
        }
      ],
      "name": "setFeeRecipient",
      "outputs": [],
      "stateMutability": "nonpayable",
      "type": "function"
    },
    {
      "inputs": [
        {
          "internalType": "address",
          "name": "_loanNFT",
          "type": "address"
        }
      ],
      "name": "setLoanNFT",
      "outputs": [],
      "stateMutability": "nonpayable",
      "type": "function"
    },
    {
      "inputs": [
        {
          "internalType": "uint256",
          "name": "newFee",
          "type": "uint256"
        }
      ],
      "name": "setMarketplaceFee",
      "outputs": [],
      "stateMutability": "nonpayable",
      "type": "function"
    },
    {
      "inputs": [
        {
          "internalType": "address",
          "name": "_token",
          "type": "address"
        }
      ],
      "name": "setPaymentToken",
      "outputs": [],
      "stateMutability": "nonpayable",
      "type": "function"
    },
    {
      "inputs": [],
      "name": "totalSales",
      "outputs": [
        {
          "internalType": "uint256",
          "name": "",
          "type": "uint256"
        }
      ],
      "stateMutability": "view",
      "type": "function"
    },
    {
      "inputs": [],
      "name": "totalVolume",
      "outputs": [
        {
          "internalType": "uint256",
          "name": "",
          "type": "uint256"
        }
      ],
      "stateMutability": "view",
      "type": "function"
    },
    {
      "inputs": [
        {
          "internalType": "address",
          "name": "newOwner",
          "type": "address"
        }
      ],
      "name": "transferOwnership",
      "outputs": [],
      "stateMutability": "nonpayable",
      "type": "function"
    },
    {
      "inputs": [
        {
          "internalType": "uint256",
          "name": "tokenId",
          "type": "uint256"
        },
        {
          "internalType": "uint256",
          "name": "newPrice",
          "type": "uint256"
        }
      ],
      "name": "updateListingPrice",
      "outputs": [],
      "stateMutability": "nonpayable",
      "type": "function"
    }
  ],
  "bytecode": "0x6080346200020257601f62001bf838819003918201601f191683019291906001600160401b0384118385101762000207578160809284926040968752833981010312620002025762000051816200021d565b9062000060602082016200021d565b916200007c6060620000748685016200021d565b93016200021d565b6001600160a01b03918216929091908315620001ea57816000549560018060a01b031995808789161760005582895198167f8be0079c531659141344cd1fd0a4f28419497f9722a3daafe3b4186f6b6457e0600080a36001805560fa60045516948515620001a85750811691821562000164571692831562000120578260025416176002558160035416176003556005541617600555516119c59081620002338239f35b845162461bcd60e51b815260206004820152601560248201527f496e76616c69642066656520726563697069656e7400000000000000000000006044820152606490fd5b855162461bcd60e51b815260206004820152601560248201527f496e76616c696420746f6b656e206164647265737300000000000000000000006044820152606490fd5b62461bcd60e51b815260206004820152601360248201527f496e76616c6964204e46542061646472657373000000000000000000000000006044820152606490fd5b8551631e4fbdf760e01b815260006004820152602490fd5b600080fd5b634e487b7160e01b600052604160045260246000fd5b51906001600160a01b0382168203620002025756fe6080604081815260048036101561001557600080fd5b600092833560e01c908163107a274a1461128b575080633013ce2914611262578063305a67a81461116c57806334a4117714611143578063469048401461111a57806354d3d34d1461101c5780635f81a57c14610ffd5780636605ff6614610fde5780636a16696414610fc15780636a326ab114610f74578063715018a614610f2c5780638da5cb5b14610f045780639407ea9814610e6457806395ccea6714610d9757806399a5d74714610d775780639f4a714214610d2a578063bc063e1a14610d0d578063c460494314610c44578063c56370e914610bd4578063c5bdd9bb14610b86578063ccd89401146106dd578063d6077fbf1461069a578063dc14795d14610669578063de74e57b14610613578063e74b981b146105c6578063e80d7fec14610236578063f1c88b4b1461020a578063f2fde38b146101945763fcce48831461016257600080fd5b346101905760203660031901126101905760028260209460ff93358152600686522001541690519015158152f35b8280fd5b5034610190576020366003190112610190576101ae611326565b906101b76118e9565b6001600160a01b039182169283156101f45750506000548260018060a01b031982161760005516600080516020611999833981519152600080a380f35b51631e4fbdf760e01b8152908101849052602490fd5b509134610233576020366003190112610233575061022a6020923561185f565b90519015158152f35b80fd5b50346101905761024536611341565b9290916102506118c6565b61025b8415156114e6565b60025482516331a9108f60e11b81528083018590526020926001600160a01b0392909160249184169085818481855afa9081156104b2578a916105a9575b508433911603610575578689526006855260ff6002878b2001541661054257855163604ed12b60e01b815283810188905289818481855afa9081156104b257906102ea918b91610520575b50611915565b156104bc57855163020604bf60e21b815283810188905285818481855afa9081156104b2579086918b91610485575b5085163014918215610417575b5050156103c757505090829160037f03fb2513f7ac5da5496f5721a0c6d9bc184373cbe902b09cf167f024608979699451916103618361137a565b33835283830188815285840190600182526060850192428452898c5260068752878c2095511660018060a01b0319865416178555516001850155600284019051151560ff8019835416911617905551910155815194855242908501523393a36001805580f35b845162461bcd60e51b81529182018490526025908201527f4d61726b6574706c616365206e6f7420617070726f76656420666f72207468696044820152641cc813919560da1b6064820152608490fd5b875163e985e9c560e01b8152338682015230858201529250829060449082905afa90811561047b57899161044e575b508438610326565b61046e9150853d8711610474575b61046681836113c6565b81019061149c565b38610446565b503d61045c565b86513d8b823e3d90fd5b6104a59150823d84116104ab575b61049d81836113c6565b810190611811565b38610319565b503d610493565b87513d8c823e3d90fd5b855162461bcd60e51b81528084018690526039818401527f4c6f616e2063616e6e6f74206265206c6973746564202870616964206f66662c60448201527820666f7265636c6f7365642c206f7220756e6c6f636b65642960381b6064820152608490fd5b61053c91503d808d833e61053481836113c6565b81019061157a565b386102e4565b855162461bcd60e51b8152808401869052600e818401526d105b1c9958591e481b1a5cdd195960921b6044820152606490fd5b855162461bcd60e51b8152808401869052600f818401526e2737ba103a37b5b2b71037bbb732b960891b6044820152606490fd5b6105c09150863d88116104ab5761049d81836113c6565b38610299565b8334610233576020366003190112610233576105e0611326565b6105e86118e9565b6001600160a01b03166105fc811515611448565b600580546001600160a01b03191691909117905580f35b503461019057602036600319011261019057608092829135815260066020522060018060a01b0381541691600182015491600360ff60028301541691015492825194855260208501521515908301526060820152f35b50913461023357602036600319011261023357506106936020923561068d816114b4565b90611830565b9051908152f35b5034610190576020366003190112610190578160209360019235808252600686526106cd60ff60028585200154166113e9565b8152600685522001549051908152f35b5090346101905760209182600319360112610b82578035906106fd6118c6565b818552600684528285209083516107138161137a565b60018060a01b0391828454168252600184015493878301948552600360ff600283015416159182158986015201546060840152610b5057828251163314610b145760025486516331a9108f60e11b81528281018790526024959185169089818881855afa9081156109e9578b91610af7575b508580865116911603610ab95789869189519283809263604ed12b60e01b82528b888301525afa90811561094357906107c4918b916105205750611915565b15610a575751936107d4856114b4565b976107df8987611830565b878b52600682526002898c200160ff1981541690558a82610821886003541689895116948d519485809481936323b872dd60e01b998a84528d3390850161183d565b03925af1908115610a4d578c91610a30575b50156109f3578a8a8a9281610951575b505050505083600254168985855116823b1561094d5761087c928991838c51809681958294632142170760e11b845233908c850161183d565b03925af1801561094357610917575b50600754600019811461090557600101600755600854918583018093116108f4575050917fed1204cf140d05d4f199b0b430250983e30b85144a375fc008b49290b2b34cc693916108ea93600855511694519182913397429184611486565b0390a46001805580f35b634e487b7160e01b8a526011905288fd5b50634e487b7160e01b89526011825288fd5b9098906001600160401b038111610931578752973861088b565b5060418992634e487b7160e01b835252fd5b88513d8c823e3d90fd5b5080fd5b6109769385938a60035416928b600554169251968795869485938452338d850161183d565b03925af19081156109e9578b916109cc575b501561099757878a8a83610843565b875162461bcd60e51b81529283015260129082015271119959481c185e5b595b9d0819985a5b195960721b6044820152606490fd5b6109e39150823d84116104745761046681836113c6565b38610988565b89513d8d823e3d90fd5b885162461bcd60e51b81528085018390526018818501527714185e5b595b9d081d1bc81cd95b1b195c8819985a5b195960421b6044820152606490fd5b610a479150833d85116104745761046681836113c6565b38610833565b8a513d8e823e3d90fd5b865162461bcd60e51b81528083018990526037818701527f4c6f616e2063616e6e6f7420626520736f6c64202870616964206f66662c20666044820152766f7265636c6f7365642c206f7220756e6c6f636b65642960481b6064820152608490fd5b875162461bcd60e51b81528084018a90526019818801527814d95b1b195c881b9bc81b1bdb99d95c881bdddb9cc8139195603a1b6044820152606490fd5b610b0e91508a3d8c116104ab5761049d81836113c6565b38610785565b855162461bcd60e51b8152908101879052601660248201527543616e6e6f7420627579206f776e206c697374696e6760501b6044820152606490fd5b855162461bcd60e51b8152908101879052600c60248201526b4e6f7420666f722073616c6560a01b6044820152606490fd5b8380fd5b5082346102335760203660031901126102335750610ba490356116b7565b908051809260208252610bc68151809281602086015260208686019101611357565b601f01601f19168101030190f35b50346101905760203660031901126101905735610bef6118e9565b8083526006602052610c0960ff60028486200154166113e9565b8083526006602052600080516020611979833981519152602083852093600260018060a01b03865416950160ff19815416905551428152a380f35b50903461019057610c5436611341565b9092610c5e6118c6565b838552600660205282852090610c7a60ff6002840154166113e9565b81546001600160a01b03163303610cdd575090610cd360017fa353b0f8bf69b8530691fd6506a1df95517036cfcd1ac2a82a1219e6b10f8d159493610cc08415156114e6565b0192828454945551928392429184611486565b0390a26001805580f35b606490602085519162461bcd60e51b8352820152600a6024820152692737ba1039b2b63632b960b11b6044820152fd5b50503461094d578160031936011261094d57602090516103e88152f35b833461023357602036600319011261023357610d44611326565b610d4c6118e9565b6001600160a01b0316610d60811515611448565b600280546001600160a01b03191691909117905580f35b5091346102335760203660031901126102335750610693602092356114b4565b509034610190578060031936011261019057610db1611326565b610db96118e9565b8354825163a9059cbb60e01b81526001600160a01b0391821685820152602480359082015291602091839160449183918991165af1908115610e5a578491610e3b575b5015610e06578280f35b906020606492519162461bcd60e51b8352820152600f60248201526e15da5d1a191c985dc819985a5b1959608a1b6044820152fd5b610e54915060203d6020116104745761046681836113c6565b38610dfc565b82513d86823e3d90fd5b5082903461094d57602036600319011261094d578035610e826118e9565b6103e88111610ec857610ec27fcddce7ef430c4766c1f253a66171f8fd727b7db83a665a26261bd1aa9afbcbe39394828454945551928392429184611486565b0390a180f35b835162461bcd60e51b8152602081840152601660248201527546656520746f6f206869676820286d6178203130252960501b6044820152606490fd5b50503461094d578160031936011261094d57905490516001600160a01b039091168152602090f35b8334610233578060031936011261023357610f456118e9565b80546001600160a01b03198116825581906001600160a01b03166000805160206119998339815191528280a380f35b833461023357602036600319011261023357610f8e611326565b610f966118e9565b6001600160a01b0316610faa811515611448565b600380546001600160a01b03191691909117905580f35b503461019057826003193601126101905760209250549051908152f35b50503461094d578160031936011261094d576020906007549051908152f35b50503461094d578160031936011261094d576020906008549051908152f35b5034610190576020916020600319360112610b82576001600160401b0391803590838211611116573660238301121561111657810135928311611112576024810190602436918560051b010111611112576110756118e9565b845b838110611082578580f35b806110906001928685611422565b3587526006808752600260ff81878b200154166110b0575b505001611077565b6110bb838887611422565b358952818852838060a01b03868a205416916110d8848988611422565b358a52885285892001805460ff191690556110f4828786611422565b35600080516020611979833981519152888751428152a338806110a8565b8480fd5b8580fd5b50503461094d578160031936011261094d5760055490516001600160a01b039091168152602090f35b50503461094d578160031936011261094d5760025490516001600160a01b039091168152602090f35b503461019057602080600319360112610b825781359161118a6118c6565b82855260068252838520908451906111a18261137a565b6111d960018060a01b0393848154168452600181015486850152600360ff600283015416151591828a870152015460608501526113e9565b8282511633148015611256575b1561122257509060008051602061197983398151915292918487526006835260028688200160ff19815416905551169351428152a36001805580f35b855162461bcd60e51b8152908101849052600e60248201526d139bdd08185d5d1a1bdc9a5e995960921b6044820152606490fd5b508287541633146111e6565b50503461094d578160031936011261094d5760035490516001600160a01b039091168152602090f35b905034610b82576020366003190112610b8257928291816060866112b060809861137a565b82815282602082015282868201520152358152600660205220908051906112d68261137a565b60018060a01b03835416928383526001810154602084019081526060600360ff60028501541693858701941515855201549401938452825194855251602085015251151590830152516060820152f35b600435906001600160a01b038216820361133c57565b600080fd5b604090600319011261133c576004359060243590565b60005b83811061136a5750506000910152565b818101518382015260200161135a565b608081019081106001600160401b0382111761139557604052565b634e487b7160e01b600052604160045260246000fd5b604081019081106001600160401b0382111761139557604052565b601f909101601f19168101906001600160401b0382119082101761139557604052565b156113f057565b60405162461bcd60e51b815260206004820152600a602482015269139bdd081b1a5cdd195960b21b6044820152606490fd5b91908110156114325760051b0190565b634e487b7160e01b600052603260045260246000fd5b1561144f57565b60405162461bcd60e51b815260206004820152600f60248201526e496e76616c6964206164647265737360881b6044820152606490fd5b6040919493926060820195825260208201520152565b9081602091031261133c5751801515810361133c5790565b600454908181029181830414901517156114d057612710900490565b634e487b7160e01b600052601160045260246000fd5b156114ed57565b60405162461bcd60e51b815260206004820152601160248201527005072696365206d757374206265203e203607c1b6044820152606490fd5b81601f8201121561133c5780516001600160401b0381116113955760405192611559601f8301601f1916602001856113c6565b8184526020828401011161133c576115779160208085019101611357565b90565b60208183031261133c5780516001600160401b039182821161133c57019061012092838382031261133c576040519384018481108382111761139557604052825182811161133c57816115ce918501611526565b84526020830151602085015260408301516040850152606083015160608501526080830151608085015260a083015182811161133c5781611610918501611526565b60a085015260c083015191821161133c5761162c918301611526565b60c083015260e081015160e0830152610100809101519082015290565b60405190611656826113ab565b60088252672830b4b21027b33360c11b6020830152565b6040519061167a826113ab565b600a825269119bdc9958db1bdcd95960b21b6020830152565b604051906116a0826113ab565b6008825267155b9b1bd8dad95960c21b6020830152565b60018060a01b03600254166000604092602484518094819363604ed12b60e01b835260048301525afa600091816117f4575b5061171d5750516116f9816113ab565b6014815273151bdad95b88191bd95cc81b9bdd08195e1a5cdd60621b602082015290565b81810151156117cd5760a0015190815160208093012061173b611649565b83815191012081146117c25761174f61166d565b83815191012081146117b757611763611693565b8381519101201461178d576415985b1a5960da1b905191611783836113ab565b6005835282015290565b6f556e6c6f636b656420696e204265737560801b9051916117ad836113ab565b6010835282015290565b50505061157761166d565b505050611577611649565b50516117d8816113ab565b600c81526b5a65726f2062616c616e636560a01b602082015290565b61180a9192503d806000833e61053481836113c6565b90386116e9565b9081602091031261133c57516001600160a01b038116810361133c5790565b919082039182116114d057565b6001600160a01b03918216815291166020820152604081019190915260600190565b60025460405163604ed12b60e01b81526004810192909252600090829060249082906001600160a01b03165afa600091816118a9575b506118a05750600090565b61157790611915565b6118bf9192503d806000833e61053481836113c6565b9038611895565b6002600154146118d7576002600155565b604051633ee5aeb560e01b8152600490fd5b6000546001600160a01b031633036118fd57565b60405163118cdaa760e01b8152336004820152602490fd5b6040810151156119725760a0015160208151910120611932611649565b6020815191012081146119725761194761166d565b6020815191012081146119725761195c611693565b602081519101201461196d57600190565b600090565b5060009056feffadd0f4e7d64abb82ef3d770cd739a881c221c0b5b162238659e6567216abe28be0079c531659141344cd1fd0a4f28419497f9722a3daafe3b4186f6b6457e0a164736f6c6343000818000a",
  "linkReferences": {},
  "deployedLinkReferences": {}
}