{
  "_format": "hh-sol-artifact-1",
  "contractName": "LoanRegistry",
  "sourceName": "src/LoanRegistry.sol",
  "abi": [
    {
      "inputs": [],
      "stateMutability": "nonpayable",
      "type": "constructor"
    },
    {
      "inputs": [
        {
          "internalType": "address",
          "name": "target",
          "type": "address"
        }
      ],
      "name": "AddressEmptyCode",
      "type": "error"
    },
    {
      "inputs": [
        {
          "internalType": "address",
          "name": "implementation",
          "type": "address"
        }
      ],
      "name": "ERC1967InvalidImplementation",
      "type": "error"
    },
    {
      "inputs": [],
      "name": "ERC1967NonPayable",
      "type": "error"
    },
    {
      "inputs": [],
      "name": "FailedCall",
      "type": "error"
    },
    {
      "inputs": [],
      "name": "InvalidInitialization",
      "type": "error"
    },
    {
      "inputs": [],
      "name": "NotInitializing",
      "type": "error"
    },
    {
      "inputs": [
        {
          "internalType": "address",
          "name": "owner",
          "type": "address"
        }
      ],
      "name": "OwnableInvalidOwner",
      "type": "error"
    },
    {
      "inputs": [
        {
          "internalType": "address",
          "name": "account",
          "type": "address"
        }
      ],
      "name": "OwnableUnauthorizedAccount",
      "type": "error"
    },
    {
      "inputs": [],
      "name": "UUPSUnauthorizedCallContext",
      "type": "error"
    },
    {
      "inputs": [
        {
          "internalType": "bytes32",
          "name": "slot",
          "type": "bytes32"
        }
      ],
      "name": "UUPSUnsupportedProxiableUUID",
      "type": "error"
    },
    {
      "anonymous": false,
      "inputs": [
        {
          "indexed": true,
          "internalType": "string",
          "name": "loanId",
          "type": "string"
        },
        {
          "indexed": false,
          "internalType": "uint256",
          "name": "tokenId",
          "type": "uint256"
        },
        {
          "indexed": false,
          "internalType": "uint256",
          "name": "timestamp",
          "type": "uint256"
        }
      ],
      "name": "AvalancheTokenIdSet",
      "type": "event"
    },
    {
      "anonymous": false,
      "inputs": [
        {
          "indexed": false,
          "internalType": "uint64",
          "name": "version",
          "type": "uint64"
        }
      ],
      "name": "Initialized",
      "type": "event"
    },
    {
      "anonymous": false,
      "inputs": [
        {
          "indexed": true,
          "internalType": "string",
          "name": "loanId",
          "type": "string"
        },
        {
          "indexed": false,
          "internalType": "bytes32",
          "name": "txId",
          "type": "bytes32"
        },
        {
          "indexed": false,
          "internalType": "uint256",
          "name": "timestamp",
          "type": "uint256"
        }
      ],
      "name": "LoanCreated",
      "type": "event"
    },
    {
      "anonymous": false,
      "inputs": [
        {
          "indexed": true,
          "internalType": "string",
          "name": "loanId",
          "type": "string"
        },
        {
          "indexed": false,
          "internalType": "bytes32",
          "name": "txId",
          "type": "bytes32"
        }
      ],
      "name": "LoanDeleted",
      "type": "event"
    },
    {
      "anonymous": false,
      "inputs": [
        {
          "indexed": true,
          "internalType": "string",
          "name": "loanId",
          "type": "string"
        },
        {
          "indexed": false,
          "internalType": "uint256",
          "name": "timestamp",
          "type": "uint256"
        }
      ],
      "name": "LoanLocked",
      "type": "event"
    },
    {
      "anonymous": false,
      "inputs": [
        {
          "indexed": true,
          "internalType": "string",
          "name": "loanId",
          "type": "string"
        },
        {
          "indexed": false,
          "internalType": "uint256",
          "name": "timestamp",
          "type": "uint256"
        }
      ],
      "name": "LoanUnlocked",
      "type": "event"
    },
    {
      "anonymous": false,
      "inputs": [
        {
          "indexed": true,
          "internalType": "string",
          "name": "loanId",
          "type": "string"
        },
        {
          "indexed": false,
          "internalType": "bytes32",
          "name": "txId",
          "type": "bytes32"
        },
        {
          "indexed": false,
          "internalType": "uint256",
          "name": "changeCount",
          "type": "uint256"
        }
      ],
      "name": "LoanUpdated",
      "type": "event"
    },
    {
      "anonymous": false,
      "inputs": [
        {
          "indexed": true,
          "internalType": "string",
          "name": "loanId",
          "type": "string"
        },
        {
          "indexed": false,
          "internalType": "uint256",
          "name": "newBalance",
          "type": "uint256"
        },
        {
          "indexed": false,
          "internalType": "string",
          "name": "newStatus",
          "type": "string"
        },
        {
          "indexed": false,
          "internalType": "uint256",
          "name": "timestamp",
          "type": "uint256"
        }
      ],
      "name": "LockedLoanUpdated",
      "type": "event"
    },
    {
      "anonymous": false,
      "inputs": [
        {
          "indexed": true,
          "internalType": "address",
          "name": "previousOwner",
          "type": "address"
        },
        {
          "indexed": true,
          "internalType": "address",
          "name": "newOwner",
          "type": "address"
        }
      ],
      "name": "OwnershipTransferred",
      "type": "event"
    },
    {
      "anonymous": false,
      "inputs": [
        {
          "indexed": true,
          "internalType": "address",
          "name": "implementation",
          "type": "address"
        }
      ],
      "name": "Upgraded",
      "type": "event"
    },
    {
      "inputs": [],
      "name": "UPGRADE_INTERFACE_VERSION",
      "outputs": [
        {
          "internalType": "string",
          "name": "",
          "type": "string"
        }
      ],
      "stateMutability": "view",
      "type": "function"
    },
    {
      "inputs": [
        {
          "internalType": "string",
          "name": "lenderUid",
          "type": "string"
        }
      ],
      "name": "countLoansByLenderUid",
      "outputs": [
        {
          "internalType": "uint256",
          "name": "",
          "type": "uint256"
        }
      ],
      "stateMutability": "view",
      "type": "function"
    },
    {
      "inputs": [
        {
          "internalType": "string",
          "name": "_LoanUid",
          "type": "string"
        },
        {
          "internalType": "string",
          "name": "_Account",
          "type": "string"
        },
        {
          "internalType": "string",
          "name": "_LenderUid",
          "type": "string"
        },
        {
          "internalType": "uint256",
          "name": "_OriginalBalance",
          "type": "uint256"
        },
        {
          "internalType": "uint256",
          "name": "_CurrentBalance",
          "type": "uint256"
        },
        {
          "internalType": "uint256",
          "name": "_VendorFeePct",
          "type": "uint256"
        },
        {
          "internalType": "uint256",
          "name": "_NoteRate",
          "type": "uint256"
        },
        {
          "internalType": "uint256",
          "name": "_SoldRate",
          "type": "uint256"
        },
        {
          "internalType": "uint256",
          "name": "_CalcInterestRate",
          "type": "uint256"
        },
        {
          "internalType": "string",
          "name": "_CoBorrower",
          "type": "string"
        },
        {
          "internalType": "uint256",
          "name": "_ActiveDefaultInterestRate",
          "type": "uint256"
        },
        {
          "internalType": "uint256",
          "name": "_ReserveBalanceRestricted",
          "type": "uint256"
        },
        {
          "internalType": "uint256",
          "name": "_DefaultInterestRate",
          "type": "uint256"
        },
        {
          "internalType": "uint256",
          "name": "_DeferredPrinBal",
          "type": "uint256"
        },
        {
          "internalType": "uint256",
          "name": "_DeferredUnpaidInt",
          "type": "uint256"
        },
        {
          "internalType": "uint256",
          "name": "_DeferredLateCharges",
          "type": "uint256"
        },
        {
          "internalType": "uint256",
          "name": "_DeferredUnpaidCharges",
          "type": "uint256"
        },
        {
          "internalType": "uint256",
          "name": "_MaximumDraw",
          "type": "uint256"
        },
        {
          "internalType": "string",
          "name": "_CloseDate",
          "type": "string"
        },
        {
          "internalType": "string",
          "name": "_DrawStatus",
          "type": "string"
        },
        {
          "internalType": "string",
          "name": "_LenderFundDate",
          "type": "string"
        },
        {
          "internalType": "uint256",
          "name": "_LenderOwnerPct",
          "type": "uint256"
        },
        {
          "internalType": "string",
          "name": "_LenderName",
          "type": "string"
        },
        {
          "internalType": "string",
          "name": "_LenderAccount",
          "type": "string"
        },
        {
          "internalType": "bool",
          "name": "_IsForeclosure",
          "type": "bool"
        },
        {
          "internalType": "string",
          "name": "_Status",
          "type": "string"
        },
        {
          "internalType": "string",
          "name": "_PaidOffDate",
          "type": "string"
        },
        {
          "internalType": "string",
          "name": "_PaidToDate",
          "type": "string"
        },
        {
          "internalType": "string",
          "name": "_MaturityDate",
          "type": "string"
        },
        {
          "internalType": "string",
          "name": "_NextDueDate",
          "type": "string"
        },
        {
          "internalType": "string",
          "name": "_City",
          "type": "string"
        },
        {
          "internalType": "string",
          "name": "_State",
          "type": "string"
        },
        {
          "internalType": "string",
          "name": "_PropertyZip",
          "type": "string"
        }
      ],
      "name": "createLoan",
      "outputs": [
        {
          "internalType": "bytes32",
          "name": "",
          "type": "bytes32"
        },
        {
          "internalType": "string",
          "name": "",
          "type": "string"
        }
      ],
      "stateMutability": "nonpayable",
      "type": "function"
    },
    {
      "inputs": [
        {
          "internalType": "string",
          "name": "loanId",
          "type": "string"
        }
      ],
      "name": "deleteLoan",
      "outputs": [
        {
          "internalType": "bytes32",
          "name": "",
          "type": "bytes32"
        }
      ],
      "stateMutability": "nonpayable",
      "type": "function"
    },
    {
      "inputs": [
        {
          "internalType": "string",
          "name": "loanUid",
          "type": "string"
        }
      ],
      "name": "findLoanByLoanUid",
      "outputs": [
        {
          "components": [
            {
              "internalType": "string",
              "name": "ID",
              "type": "string"
            },
            {
              "internalType": "string",
              "name": "LoanUid",
              "type": "string"
            },
            {
              "internalType": "string",
              "name": "Account",
              "type": "string"
            },
            {
              "internalType": "string",
              "name": "LenderUid",
              "type": "string"
            },
            {
              "internalType": "uint256",
              "name": "OriginalBalance",
              "type": "uint256"
            },
            {
              "internalType": "uint256",
              "name": "CurrentBalance",
              "type": "uint256"
            },
            {
              "internalType": "uint256",
              "name": "VendorFeePct",
              "type": "uint256"
            },
            {
              "internalType": "uint256",
              "name": "NoteRate",
              "type": "uint256"
            },
            {
              "internalType": "uint256",
              "name": "SoldRate",
              "type": "uint256"
            },
            {
              "internalType": "uint256",
              "name": "CalcInterestRate",
              "type": "uint256"
            },
            {
              "internalType": "string",
              "name": "CoBorrower",
              "type": "string"
            },
            {
              "internalType": "uint256",
              "name": "ActiveDefaultInterestRate",
              "type": "uint256"
            },
            {
              "internalType": "uint256",
              "name": "ReserveBalanceRestricted",
              "type": "uint256"
            },
            {
              "internalType": "uint256",
              "name": "DefaultInterestRate",
              "type": "uint256"
            },
            {
              "internalType": "uint256",
              "name": "DeferredPrinBal",
              "type": "uint256"
            },
            {
              "internalType": "uint256",
              "name": "DeferredUnpaidInt",
              "type": "uint256"
            },
            {
              "internalType": "uint256",
              "name": "DeferredLateCharges",
              "type": "uint256"
            },
            {
              "internalType": "uint256",
              "name": "DeferredUnpaidCharges",
              "type": "uint256"
            },
            {
              "internalType": "uint256",
              "name": "MaximumDraw",
              "type": "uint256"
            },
            {
              "internalType": "string",
              "name": "CloseDate",
              "type": "string"
            },
            {
              "internalType": "string",
              "name": "DrawStatus",
              "type": "string"
            },
            {
              "internalType": "string",
              "name": "LenderFundDate",
              "type": "string"
            },
            {
              "internalType": "uint256",
              "name": "LenderOwnerPct",
              "type": "uint256"
            },
            {
              "internalType": "string",
              "name": "LenderName",
              "type": "string"
            },
            {
              "internalType": "string",
              "name": "LenderAccount",
              "type": "string"
            },
            {
              "internalType": "bool",
              "name": "IsForeclosure",
              "type": "bool"
            },
            {
              "internalType": "string",
              "name": "Status",
              "type": "string"
            },
            {
              "internalType": "string",
              "name": "PaidOffDate",
              "type": "string"
            },
            {
              "internalType": "string",
              "name": "PaidToDate",
              "type": "string"
            },
            {
              "internalType": "string",
              "name": "MaturityDate",
              "type": "string"
            },
            {
              "internalType": "string",
              "name": "NextDueDate",
              "type": "string"
            },
            {
              "internalType": "string",
              "name": "City",
              "type": "string"
            },
            {
              "internalType": "string",
              "name": "State",
              "type": "string"
            },
            {
              "internalType": "string",
              "name": "PropertyZip",
              "type": "string"
            },
            {
              "internalType": "bytes32",
              "name": "TxId",
              "type": "bytes32"
            },
            {
              "internalType": "uint256",
              "name": "BLOCKAUDITCreationAt",
              "type": "uint256"
            },
            {
              "internalType": "uint256",
              "name": "BLOCKAUDITUpdatedAt",
              "type": "uint256"
            },
            {
              "internalType": "bool",
              "name": "exists",
              "type": "bool"
            },
            {
              "internalType": "uint256",
              "name": "avalancheTokenId",
              "type": "uint256"
            },
            {
              "internalType": "uint256",
              "name": "lastSyncTimestamp",
              "type": "uint256"
            },
            {
              "internalType": "bool",
              "name": "isLocked",
              "type": "bool"
            }
          ],
          "internalType": "struct LoanRegistry.Loan",
          "name": "",
          "type": "tuple"
        }
      ],
      "stateMutability": "view",
      "type": "function"
    },
    {
      "inputs": [
        {
          "internalType": "string",
          "name": "lenderUid",
          "type": "string"
        }
      ],
      "name": "findLoansByLenderUid",
      "outputs": [
        {
          "components": [
            {
              "internalType": "string",
              "name": "ID",
              "type": "string"
            },
            {
              "internalType": "string",
              "name": "LoanUid",
              "type": "string"
            },
            {
              "internalType": "string",
              "name": "Account",
              "type": "string"
            },
            {
              "internalType": "string",
              "name": "LenderUid",
              "type": "string"
            },
            {
              "internalType": "uint256",
              "name": "OriginalBalance",
              "type": "uint256"
            },
            {
              "internalType": "uint256",
              "name": "CurrentBalance",
              "type": "uint256"
            },
            {
              "internalType": "uint256",
              "name": "VendorFeePct",
              "type": "uint256"
            },
            {
              "internalType": "uint256",
              "name": "NoteRate",
              "type": "uint256"
            },
            {
              "internalType": "uint256",
              "name": "SoldRate",
              "type": "uint256"
            },
            {
              "internalType": "uint256",
              "name": "CalcInterestRate",
              "type": "uint256"
            },
            {
              "internalType": "string",
              "name": "CoBorrower",
              "type": "string"
            },
            {
              "internalType": "uint256",
              "name": "ActiveDefaultInterestRate",
              "type": "uint256"
            },
            {
              "internalType": "uint256",
              "name": "ReserveBalanceRestricted",
              "type": "uint256"
            },
            {
              "internalType": "uint256",
              "name": "DefaultInterestRate",
              "type": "uint256"
            },
            {
              "internalType": "uint256",
              "name": "DeferredPrinBal",
              "type": "uint256"
            },
            {
              "internalType": "uint256",
              "name": "DeferredUnpaidInt",
              "type": "uint256"
            },
            {
              "internalType": "uint256",
              "name": "DeferredLateCharges",
              "type": "uint256"
            },
            {
              "internalType": "uint256",
              "name": "DeferredUnpaidCharges",
              "type": "uint256"
            },
            {
              "internalType": "uint256",
              "name": "MaximumDraw",
              "type": "uint256"
            },
            {
              "internalType": "string",
              "name": "CloseDate",
              "type": "string"
            },
            {
              "internalType": "string",
              "name": "DrawStatus",
              "type": "string"
            },
            {
              "internalType": "string",
              "name": "LenderFundDate",
              "type": "string"
            },
            {
              "internalType": "uint256",
              "name": "LenderOwnerPct",
              "type": "uint256"
            },
            {
              "internalType": "string",
              "name": "LenderName",
              "type": "string"
            },
            {
              "internalType": "string",
              "name": "LenderAccount",
              "type": "string"
            },
            {
              "internalType": "bool",
              "name": "IsForeclosure",
              "type": "bool"
            },
            {
              "internalType": "string",
              "name": "Status",
              "type": "string"
            },
            {
              "internalType": "string",
              "name": "PaidOffDate",
              "type": "string"
            },
            {
              "internalType": "string",
              "name": "PaidToDate",
              "type": "string"
            },
            {
              "internalType": "string",
              "name": "MaturityDate",
              "type": "string"
            },
            {
              "internalType": "string",
              "name": "NextDueDate",
              "type": "string"
            },
            {
              "internalType": "string",
              "name": "City",
              "type": "string"
            },
            {
              "internalType": "string",
              "name": "State",
              "type": "string"
            },
            {
              "internalType": "string",
              "name": "PropertyZip",
              "type": "string"
            },
            {
              "internalType": "bytes32",
              "name": "TxId",
              "type": "bytes32"
            },
            {
              "internalType": "uint256",
              "name": "BLOCKAUDITCreationAt",
              "type": "uint256"
            },
            {
              "internalType": "uint256",
              "name": "BLOCKAUDITUpdatedAt",
              "type": "uint256"
            },
            {
              "internalType": "bool",
              "name": "exists",
              "type": "bool"
            },
            {
              "internalType": "uint256",
              "name": "avalancheTokenId",
              "type": "uint256"
            },
            {
              "internalType": "uint256",
              "name": "lastSyncTimestamp",
              "type": "uint256"
            },
            {
              "internalType": "bool",
              "name": "isLocked",
              "type": "bool"
            }
          ],
          "internalType": "struct LoanRegistry.Loan[]",
          "name": "",
          "type": "tuple[]"
        }
      ],
      "stateMutability": "view",
      "type": "function"
    },
    {
      "inputs": [
        {
          "internalType": "string",
          "name": "lenderUid",
          "type": "string"
        },
        {
          "internalType": "string",
          "name": "loanUid",
          "type": "string"
        }
      ],
      "name": "generateLoanId",
      "outputs": [
        {
          "internalType": "string",
          "name": "",
          "type": "string"
        }
      ],
      "stateMutability": "pure",
      "type": "function"
    },
    {
      "inputs": [
        {
          "internalType": "bytes32",
          "name": "txId",
          "type": "bytes32"
        }
      ],
      "name": "getActivityChanges",
      "outputs": [
        {
          "components": [
            {
              "internalType": "string",
              "name": "PropertyName",
              "type": "string"
            },
            {
              "internalType": "string",
              "name": "OldValue",
              "type": "string"
            },
            {
              "internalType": "string",
              "name": "NewValue",
              "type": "string"
            }
          ],
          "internalType": "struct LoanRegistry.Change[]",
          "name": "",
          "type": "tuple[]"
        }
      ],
      "stateMutability": "view",
      "type": "function"
    },
    {
      "inputs": [],
      "name": "getAllLoanIds",
      "outputs": [
        {
          "internalType": "string[]",
          "name": "",
          "type": "string[]"
        }
      ],
      "stateMutability": "view",
      "type": "function"
    },
    {
      "inputs": [
        {
          "internalType": "string",
          "name": "loanId",
          "type": "string"
        }
      ],
      "name": "getAvalancheTokenId",
      "outputs": [
        {
          "internalType": "uint256",
          "name": "",
          "type": "uint256"
        }
      ],
      "stateMutability": "view",
      "type": "function"
    },
    {
      "inputs": [
        {
          "internalType": "string",
          "name": "loanId",
          "type": "string"
        }
      ],
      "name": "getCurrentTransactionByLoan",
      "outputs": [
        {
          "internalType": "bytes32",
          "name": "",
          "type": "bytes32"
        }
      ],
      "stateMutability": "view",
      "type": "function"
    },
    {
      "inputs": [
        {
          "internalType": "string",
          "name": "lenderUid",
          "type": "string"
        },
        {
          "internalType": "string",
          "name": "loanUid",
          "type": "string"
        }
      ],
      "name": "getLoanByLenderAndUid",
      "outputs": [
        {
          "components": [
            {
              "internalType": "string",
              "name": "ID",
              "type": "string"
            },
            {
              "internalType": "string",
              "name": "LoanUid",
              "type": "string"
            },
            {
              "internalType": "string",
              "name": "Account",
              "type": "string"
            },
            {
              "internalType": "string",
              "name": "LenderUid",
              "type": "string"
            },
            {
              "internalType": "uint256",
              "name": "OriginalBalance",
              "type": "uint256"
            },
            {
              "internalType": "uint256",
              "name": "CurrentBalance",
              "type": "uint256"
            },
            {
              "internalType": "uint256",
              "name": "VendorFeePct",
              "type": "uint256"
            },
            {
              "internalType": "uint256",
              "name": "NoteRate",
              "type": "uint256"
            },
            {
              "internalType": "uint256",
              "name": "SoldRate",
              "type": "uint256"
            },
            {
              "internalType": "uint256",
              "name": "CalcInterestRate",
              "type": "uint256"
            },
            {
              "internalType": "string",
              "name": "CoBorrower",
              "type": "string"
            },
            {
              "internalType": "uint256",
              "name": "ActiveDefaultInterestRate",
              "type": "uint256"
            },
            {
              "internalType": "uint256",
              "name": "ReserveBalanceRestricted",
              "type": "uint256"
            },
            {
              "internalType": "uint256",
              "name": "DefaultInterestRate",
              "type": "uint256"
            },
            {
              "internalType": "uint256",
              "name": "DeferredPrinBal",
              "type": "uint256"
            },
            {
              "internalType": "uint256",
              "name": "DeferredUnpaidInt",
              "type": "uint256"
            },
            {
              "internalType": "uint256",
              "name": "DeferredLateCharges",
              "type": "uint256"
            },
            {
              "internalType": "uint256",
              "name": "DeferredUnpaidCharges",
              "type": "uint256"
            },
            {
              "internalType": "uint256",
              "name": "MaximumDraw",
              "type": "uint256"
            },
            {
              "internalType": "string",
              "name": "CloseDate",
              "type": "string"
            },
            {
              "internalType": "string",
              "name": "DrawStatus",
              "type": "string"
            },
            {
              "internalType": "string",
              "name": "LenderFundDate",
              "type": "string"
            },
            {
              "internalType": "uint256",
              "name": "LenderOwnerPct",
              "type": "uint256"
            },
            {
              "internalType": "string",
              "name": "LenderName",
              "type": "string"
            },
            {
              "internalType": "string",
              "name": "LenderAccount",
              "type": "string"
            },
            {
              "internalType": "bool",
              "name": "IsForeclosure",
              "type": "bool"
            },
            {
              "internalType": "string",
              "name": "Status",
              "type": "string"
            },
            {
              "internalType": "string",
              "name": "PaidOffDate",
              "type": "string"
            },
            {
              "internalType": "string",
              "name": "PaidToDate",
              "type": "string"
            },
            {
              "internalType": "string",
              "name": "MaturityDate",
              "type": "string"
            },
            {
              "internalType": "string",
              "name": "NextDueDate",
              "type": "string"
            },
            {
              "internalType": "string",
              "name": "City",
              "type": "string"
            },
            {
              "internalType": "string",
              "name": "State",
              "type": "string"
            },
            {
              "internalType": "string",
              "name": "PropertyZip",
              "type": "string"
            },
            {
              "internalType": "bytes32",
              "name": "TxId",
              "type": "bytes32"
            },
            {
              "internalType": "uint256",
              "name": "BLOCKAUDITCreationAt",
              "type": "uint256"
            },
            {
              "internalType": "uint256",
              "name": "BLOCKAUDITUpdatedAt",
              "type": "uint256"
            },
            {
              "internalType": "bool",
              "name": "exists",
              "type": "bool"
            },
            {
              "internalType": "uint256",
              "name": "avalancheTokenId",
              "type": "uint256"
            },
            {
              "internalType": "uint256",
              "name": "lastSyncTimestamp",
              "type": "uint256"
            },
            {
              "internalType": "bool",
              "name": "isLocked",
              "type": "bool"
            }
          ],
          "internalType": "struct LoanRegistry.Loan",
          "name": "",
          "type": "tuple"
        }
      ],
      "stateMutability": "view",
      "type": "function"
    },
    {
      "inputs": [
        {
          "internalType": "bytes32",
          "name": "txId",
          "type": "bytes32"
        }
      ],
      "name": "getLoanByTxId",
      "outputs": [
        {
          "components": [
            {
              "internalType": "string",
              "name": "ID",
              "type": "string"
            },
            {
              "internalType": "string",
              "name": "LoanUid",
              "type": "string"
            },
            {
              "internalType": "string",
              "name": "Account",
              "type": "string"
            },
            {
              "internalType": "string",
              "name": "LenderUid",
              "type": "string"
            },
            {
              "internalType": "uint256",
              "name": "OriginalBalance",
              "type": "uint256"
            },
            {
              "internalType": "uint256",
              "name": "CurrentBalance",
              "type": "uint256"
            },
            {
              "internalType": "uint256",
              "name": "VendorFeePct",
              "type": "uint256"
            },
            {
              "internalType": "uint256",
              "name": "NoteRate",
              "type": "uint256"
            },
            {
              "internalType": "uint256",
              "name": "SoldRate",
              "type": "uint256"
            },
            {
              "internalType": "uint256",
              "name": "CalcInterestRate",
              "type": "uint256"
            },
            {
              "internalType": "string",
              "name": "CoBorrower",
              "type": "string"
            },
            {
              "internalType": "uint256",
              "name": "ActiveDefaultInterestRate",
              "type": "uint256"
            },
            {
              "internalType": "uint256",
              "name": "ReserveBalanceRestricted",
              "type": "uint256"
            },
            {
              "internalType": "uint256",
              "name": "DefaultInterestRate",
              "type": "uint256"
            },
            {
              "internalType": "uint256",
              "name": "DeferredPrinBal",
              "type": "uint256"
            },
            {
              "internalType": "uint256",
              "name": "DeferredUnpaidInt",
              "type": "uint256"
            },
            {
              "internalType": "uint256",
              "name": "DeferredLateCharges",
              "type": "uint256"
            },
            {
              "internalType": "uint256",
              "name": "DeferredUnpaidCharges",
              "type": "uint256"
            },
            {
              "internalType": "uint256",
              "name": "MaximumDraw",
              "type": "uint256"
            },
            {
              "internalType": "string",
              "name": "CloseDate",
              "type": "string"
            },
            {
              "internalType": "string",
              "name": "DrawStatus",
              "type": "string"
            },
            {
              "internalType": "string",
              "name": "LenderFundDate",
              "type": "string"
            },
            {
              "internalType": "uint256",
              "name": "LenderOwnerPct",
              "type": "uint256"
            },
            {
              "internalType": "string",
              "name": "LenderName",
              "type": "string"
            },
            {
              "internalType": "string",
              "name": "LenderAccount",
              "type": "string"
            },
            {
              "internalType": "bool",
              "name": "IsForeclosure",
              "type": "bool"
            },
            {
              "internalType": "string",
              "name": "Status",
              "type": "string"
            },
            {
              "internalType": "string",
              "name": "PaidOffDate",
              "type": "string"
            },
            {
              "internalType": "string",
              "name": "PaidToDate",
              "type": "string"
            },
            {
              "internalType": "string",
              "name": "MaturityDate",
              "type": "string"
            },
            {
              "internalType": "string",
              "name": "NextDueDate",
              "type": "string"
            },
            {
              "internalType": "string",
              "name": "City",
              "type": "string"
            },
            {
              "internalType": "string",
              "name": "State",
              "type": "string"
            },
            {
              "internalType": "string",
              "name": "PropertyZip",
              "type": "string"
            },
            {
              "internalType": "bytes32",
              "name": "TxId",
              "type": "bytes32"
            },
            {
              "internalType": "uint256",
              "name": "BLOCKAUDITCreationAt",
              "type": "uint256"
            },
            {
              "internalType": "uint256",
              "name": "BLOCKAUDITUpdatedAt",
              "type": "uint256"
            },
            {
              "internalType": "bool",
              "name": "exists",
              "type": "bool"
            },
            {
              "internalType": "uint256",
              "name": "avalancheTokenId",
              "type": "uint256"
            },
            {
              "internalType": "uint256",
              "name": "lastSyncTimestamp",
              "type": "uint256"
            },
            {
              "internalType": "bool",
              "name": "isLocked",
              "type": "bool"
            }
          ],
          "internalType": "struct LoanRegistry.Loan",
          "name": "loan",
          "type": "tuple"
        },
        {
          "components": [
            {
              "internalType": "string",
              "name": "PropertyName",
              "type": "string"
            },
            {
              "internalType": "string",
              "name": "OldValue",
              "type": "string"
            },
            {
              "internalType": "string",
              "name": "NewValue",
              "type": "string"
            }
          ],
          "internalType": "struct LoanRegistry.Change[]",
          "name": "changes",
          "type": "tuple[]"
        }
      ],
      "stateMutability": "view",
      "type": "function"
    },
    {
      "inputs": [
        {
          "internalType": "string",
          "name": "loanId",
          "type": "string"
        }
      ],
      "name": "getLoanHistory",
      "outputs": [
        {
          "components": [
            {
              "internalType": "bytes32",
              "name": "TxId",
              "type": "bytes32"
            },
            {
              "internalType": "uint256",
              "name": "Timestamp",
              "type": "uint256"
            },
            {
              "internalType": "bool",
              "name": "IsDelete",
              "type": "bool"
            }
          ],
          "internalType": "struct LoanRegistry.LoanHistoryEntry[]",
          "name": "",
          "type": "tuple[]"
        }
      ],
      "stateMutability": "view",
      "type": "function"
    },
    {
      "inputs": [
        {
          "internalType": "string",
          "name": "loanId",
          "type": "string"
        }
      ],
      "name": "getLoanHistoryWithChanges",
      "outputs": [
        {
          "internalType": "bytes32[]",
          "name": "txIds",
          "type": "bytes32[]"
        },
        {
          "internalType": "uint256[]",
          "name": "timestamps",
          "type": "uint256[]"
        },
        {
          "internalType": "bool[]",
          "name": "isDeletes",
          "type": "bool[]"
        },
        {
          "internalType": "uint256[]",
          "name": "changeCounts",
          "type": "uint256[]"
        }
      ],
      "stateMutability": "view",
      "type": "function"
    },
    {
      "inputs": [],
      "name": "getTotalLoansCount",
      "outputs": [
        {
          "internalType": "uint256",
          "name": "",
          "type": "uint256"
        }
      ],
      "stateMutability": "view",
      "type": "function"
    },
    {
      "inputs": [
        {
          "internalType": "address",
          "name": "initialOwner",
          "type": "address"
        },
        {
          "internalType": "address",
          "name": "userRegistryAddress",
          "type": "address"
        }
      ],
      "name": "initialize",
      "outputs": [],
      "stateMutability": "nonpayable",
      "type": "function"
    },
    {
      "inputs": [
        {
          "internalType": "string",
          "name": "loanId",
          "type": "string"
        }
      ],
      "name": "isLoanLocked",
      "outputs": [
        {
          "internalType": "bool",
          "name": "",
          "type": "bool"
        }
      ],
      "stateMutability": "view",
      "type": "function"
    },
    {
      "inputs": [
        {
          "internalType": "string",
          "name": "loanId",
          "type": "string"
        }
      ],
      "name": "isLoanTokenized",
      "outputs": [
        {
          "internalType": "bool",
          "name": "",
          "type": "bool"
        }
      ],
      "stateMutability": "view",
      "type": "function"
    },
    {
      "inputs": [
        {
          "internalType": "string",
          "name": "loanId",
          "type": "string"
        }
      ],
      "name": "loanExists",
      "outputs": [
        {
          "internalType": "bool",
          "name": "",
          "type": "bool"
        }
      ],
      "stateMutability": "view",
      "type": "function"
    },
    {
      "inputs": [
        {
          "internalType": "string",
          "name": "lenderUid",
          "type": "string"
        },
        {
          "internalType": "string",
          "name": "loanUid",
          "type": "string"
        }
      ],
      "name": "loanExistsByLenderAndUid",
      "outputs": [
        {
          "internalType": "bool",
          "name": "",
          "type": "bool"
        }
      ],
      "stateMutability": "view",
      "type": "function"
    },
    {
      "inputs": [
        {
          "internalType": "string",
          "name": "loanId",
          "type": "string"
        }
      ],
      "name": "lockLoan",
      "outputs": [
        {
          "internalType": "bool",
          "name": "",
          "type": "bool"
        }
      ],
      "stateMutability": "nonpayable",
      "type": "function"
    },
    {
      "inputs": [],
      "name": "marketplaceBridge",
      "outputs": [
        {
          "internalType": "address",
          "name": "",
          "type": "address"
        }
      ],
      "stateMutability": "view",
      "type": "function"
    },
    {
      "inputs": [],
      "name": "owner",
      "outputs": [
        {
          "internalType": "address",
          "name": "",
          "type": "address"
        }
      ],
      "stateMutability": "view",
      "type": "function"
    },
    {
      "inputs": [],
      "name": "proxiableUUID",
      "outputs": [
        {
          "internalType": "bytes32",
          "name": "",
          "type": "bytes32"
        }
      ],
      "stateMutability": "view",
      "type": "function"
    },
    {
      "inputs": [],
      "name": "queryAllLoans",
      "outputs": [
        {
          "components": [
            {
              "internalType": "string",
              "name": "ID",
              "type": "string"
            },
            {
              "internalType": "string",
              "name": "LoanUid",
              "type": "string"
            },
            {
              "internalType": "string",
              "name": "Account",
              "type": "string"
            },
            {
              "internalType": "string",
              "name": "LenderUid",
              "type": "string"
            },
            {
              "internalType": "uint256",
              "name": "OriginalBalance",
              "type": "uint256"
            },
            {
              "internalType": "uint256",
              "name": "CurrentBalance",
              "type": "uint256"
            },
            {
              "internalType": "uint256",
              "name": "VendorFeePct",
              "type": "uint256"
            },
            {
              "internalType": "uint256",
              "name": "NoteRate",
              "type": "uint256"
            },
            {
              "internalType": "uint256",
              "name": "SoldRate",
              "type": "uint256"
            },
            {
              "internalType": "uint256",
              "name": "CalcInterestRate",
              "type": "uint256"
            },
            {
              "internalType": "string",
              "name": "CoBorrower",
              "type": "string"
            },
            {
              "internalType": "uint256",
              "name": "ActiveDefaultInterestRate",
              "type": "uint256"
            },
            {
              "internalType": "uint256",
              "name": "ReserveBalanceRestricted",
              "type": "uint256"
            },
            {
              "internalType": "uint256",
              "name": "DefaultInterestRate",
              "type": "uint256"
            },
            {
              "internalType": "uint256",
              "name": "DeferredPrinBal",
              "type": "uint256"
            },
            {
              "internalType": "uint256",
              "name": "DeferredUnpaidInt",
              "type": "uint256"
            },
            {
              "internalType": "uint256",
              "name": "DeferredLateCharges",
              "type": "uint256"
            },
            {
              "internalType": "uint256",
              "name": "DeferredUnpaidCharges",
              "type": "uint256"
            },
            {
              "internalType": "uint256",
              "name": "MaximumDraw",
              "type": "uint256"
            },
            {
              "internalType": "string",
              "name": "CloseDate",
              "type": "string"
            },
            {
              "internalType": "string",
              "name": "DrawStatus",
              "type": "string"
            },
            {
              "internalType": "string",
              "name": "LenderFundDate",
              "type": "string"
            },
            {
              "internalType": "uint256",
              "name": "LenderOwnerPct",
              "type": "uint256"
            },
            {
              "internalType": "string",
              "name": "LenderName",
              "type": "string"
            },
            {
              "internalType": "string",
              "name": "LenderAccount",
              "type": "string"
            },
            {
              "internalType": "bool",
              "name": "IsForeclosure",
              "type": "bool"
            },
            {
              "internalType": "string",
              "name": "Status",
              "type": "string"
            },
            {
              "internalType": "string",
              "name": "PaidOffDate",
              "type": "string"
            },
            {
              "internalType": "string",
              "name": "PaidToDate",
              "type": "string"
            },
            {
              "internalType": "string",
              "name": "MaturityDate",
              "type": "string"
            },
            {
              "internalType": "string",
              "name": "NextDueDate",
              "type": "string"
            },
            {
              "internalType": "string",
              "name": "City",
              "type": "string"
            },
            {
              "internalType": "string",
              "name": "State",
              "type": "string"
            },
            {
              "internalType": "string",
              "name": "PropertyZip",
              "type": "string"
            },
            {
              "internalType": "bytes32",
              "name": "TxId",
              "type": "bytes32"
            },
            {
              "internalType": "uint256",
              "name": "BLOCKAUDITCreationAt",
              "type": "uint256"
            },
            {
              "internalType": "uint256",
              "name": "BLOCKAUDITUpdatedAt",
              "type": "uint256"
            },
            {
              "internalType": "bool",
              "name": "exists",
              "type": "bool"
            },
            {
              "internalType": "uint256",
              "name": "avalancheTokenId",
              "type": "uint256"
            },
            {
              "internalType": "uint256",
              "name": "lastSyncTimestamp",
              "type": "uint256"
            },
            {
              "internalType": "bool",
              "name": "isLocked",
              "type": "bool"
            }
          ],
          "internalType": "struct LoanRegistry.Loan[]",
          "name": "",
          "type": "tuple[]"
        }
      ],
      "stateMutability": "view",
      "type": "function"
    },
    {
      "inputs": [
        {
          "internalType": "uint256",
          "name": "offset",
          "type": "uint256"
        },
        {
          "internalType": "uint256",
          "name": "limit",
          "type": "uint256"
        }
      ],
      "name": "queryLoansPaginated",
      "outputs": [
        {
          "components": [
            {
              "internalType": "string",
              "name": "ID",
              "type": "string"
            },
            {
              "internalType": "string",
              "name": "LoanUid",
              "type": "string"
            },
            {
              "internalType": "string",
              "name": "Account",
              "type": "string"
            },
            {
              "internalType": "string",
              "name": "LenderUid",
              "type": "string"
            },
            {
              "internalType": "uint256",
              "name": "OriginalBalance",
              "type": "uint256"
            },
            {
              "internalType": "uint256",
              "name": "CurrentBalance",
              "type": "uint256"
            },
            {
              "internalType": "uint256",
              "name": "VendorFeePct",
              "type": "uint256"
            },
            {
              "internalType": "uint256",
              "name": "NoteRate",
              "type": "uint256"
            },
            {
              "internalType": "uint256",
              "name": "SoldRate",
              "type": "uint256"
            },
            {
              "internalType": "uint256",
              "name": "CalcInterestRate",
              "type": "uint256"
            },
            {
              "internalType": "string",
              "name": "CoBorrower",
              "type": "string"
            },
            {
              "internalType": "uint256",
              "name": "ActiveDefaultInterestRate",
              "type": "uint256"
            },
            {
              "internalType": "uint256",
              "name": "ReserveBalanceRestricted",
              "type": "uint256"
            },
            {
              "internalType": "uint256",
              "name": "DefaultInterestRate",
              "type": "uint256"
            },
            {
              "internalType": "uint256",
              "name": "DeferredPrinBal",
              "type": "uint256"
            },
            {
              "internalType": "uint256",
              "name": "DeferredUnpaidInt",
              "type": "uint256"
            },
            {
              "internalType": "uint256",
              "name": "DeferredLateCharges",
              "type": "uint256"
            },
            {
              "internalType": "uint256",
              "name": "DeferredUnpaidCharges",
              "type": "uint256"
            },
            {
              "internalType": "uint256",
              "name": "MaximumDraw",
              "type": "uint256"
            },
            {
              "internalType": "string",
              "name": "CloseDate",
              "type": "string"
            },
            {
              "internalType": "string",
              "name": "DrawStatus",
              "type": "string"
            },
            {
              "internalType": "string",
              "name": "LenderFundDate",
              "type": "string"
            },
            {
              "internalType": "uint256",
              "name": "LenderOwnerPct",
              "type": "uint256"
            },
            {
              "internalType": "string",
              "name": "LenderName",
              "type": "string"
            },
            {
              "internalType": "string",
              "name": "LenderAccount",
              "type": "string"
            },
            {
              "internalType": "bool",
              "name": "IsForeclosure",
              "type": "bool"
            },
            {
              "internalType": "string",
              "name": "Status",
              "type": "string"
            },
            {
              "internalType": "string",
              "name": "PaidOffDate",
              "type": "string"
            },
            {
              "internalType": "string",
              "name": "PaidToDate",
              "type": "string"
            },
            {
              "internalType": "string",
              "name": "MaturityDate",
              "type": "string"
            },
            {
              "internalType": "string",
              "name": "NextDueDate",
              "type": "string"
            },
            {
              "internalType": "string",
              "name": "City",
              "type": "string"
            },
            {
              "internalType": "string",
              "name": "State",
              "type": "string"
            },
            {
              "internalType": "string",
              "name": "PropertyZip",
              "type": "string"
            },
            {
              "internalType": "bytes32",
              "name": "TxId",
              "type": "bytes32"
            },
            {
              "internalType": "uint256",
              "name": "BLOCKAUDITCreationAt",
              "type": "uint256"
            },
            {
              "internalType": "uint256",
              "name": "BLOCKAUDITUpdatedAt",
              "type": "uint256"
            },
            {
              "internalType": "bool",
              "name": "exists",
              "type": "bool"
            },
            {
              "internalType": "uint256",
              "name": "avalancheTokenId",
              "type": "uint256"
            },
            {
              "internalType": "uint256",
              "name": "lastSyncTimestamp",
              "type": "uint256"
            },
            {
              "internalType": "bool",
              "name": "isLocked",
              "type": "bool"
            }
          ],
          "internalType": "struct LoanRegistry.Loan[]",
          "name": "loans_",
          "type": "tuple[]"
        },
        {
          "internalType": "uint256",
          "name": "total",
          "type": "uint256"
        },
        {
          "internalType": "uint256",
          "name": "returned",
          "type": "uint256"
        }
      ],
      "stateMutability": "view",
      "type": "function"
    },
    {
      "inputs": [
        {
          "internalType": "string",
          "name": "loanId",
          "type": "string"
        }
      ],
      "name": "readLoan",
      "outputs": [
        {
          "components": [
            {
              "internalType": "string",
              "name": "ID",
              "type": "string"
            },
            {
              "internalType": "string",
              "name": "LoanUid",
              "type": "string"
            },
            {
              "internalType": "string",
              "name": "Account",
              "type": "string"
            },
            {
              "internalType": "string",
              "name": "LenderUid",
              "type": "string"
            },
            {
              "internalType": "uint256",
              "name": "OriginalBalance",
              "type": "uint256"
            },
            {
              "internalType": "uint256",
              "name": "CurrentBalance",
              "type": "uint256"
            },
            {
              "internalType": "uint256",
              "name": "VendorFeePct",
              "type": "uint256"
            },
            {
              "internalType": "uint256",
              "name": "NoteRate",
              "type": "uint256"
            },
            {
              "internalType": "uint256",
              "name": "SoldRate",
              "type": "uint256"
            },
            {
              "internalType": "uint256",
              "name": "CalcInterestRate",
              "type": "uint256"
            },
            {
              "internalType": "string",
              "name": "CoBorrower",
              "type": "string"
            },
            {
              "internalType": "uint256",
              "name": "ActiveDefaultInterestRate",
              "type": "uint256"
            },
            {
              "internalType": "uint256",
              "name": "ReserveBalanceRestricted",
              "type": "uint256"
            },
            {
              "internalType": "uint256",
              "name": "DefaultInterestRate",
              "type": "uint256"
            },
            {
              "internalType": "uint256",
              "name": "DeferredPrinBal",
              "type": "uint256"
            },
            {
              "internalType": "uint256",
              "name": "DeferredUnpaidInt",
              "type": "uint256"
            },
            {
              "internalType": "uint256",
              "name": "DeferredLateCharges",
              "type": "uint256"
            },
            {
              "internalType": "uint256",
              "name": "DeferredUnpaidCharges",
              "type": "uint256"
            },
            {
              "internalType": "uint256",
              "name": "MaximumDraw",
              "type": "uint256"
            },
            {
              "internalType": "string",
              "name": "CloseDate",
              "type": "string"
            },
            {
              "internalType": "string",
              "name": "DrawStatus",
              "type": "string"
            },
            {
              "internalType": "string",
              "name": "LenderFundDate",
              "type": "string"
            },
            {
              "internalType": "uint256",
              "name": "LenderOwnerPct",
              "type": "uint256"
            },
            {
              "internalType": "string",
              "name": "LenderName",
              "type": "string"
            },
            {
              "internalType": "string",
              "name": "LenderAccount",
              "type": "string"
            },
            {
              "internalType": "bool",
              "name": "IsForeclosure",
              "type": "bool"
            },
            {
              "internalType": "string",
              "name": "Status",
              "type": "string"
            },
            {
              "internalType": "string",
              "name": "PaidOffDate",
              "type": "string"
            },
            {
              "internalType": "string",
              "name": "PaidToDate",
              "type": "string"
            },
            {
              "internalType": "string",
              "name": "MaturityDate",
              "type": "string"
            },
            {
              "internalType": "string",
              "name": "NextDueDate",
              "type": "string"
            },
            {
              "internalType": "string",
              "name": "City",
              "type": "string"
            },
            {
              "internalType": "string",
              "name": "State",
              "type": "string"
            },
            {
              "internalType": "string",
              "name": "PropertyZip",
              "type": "string"
            },
            {
              "internalType": "bytes32",
              "name": "TxId",
              "type": "bytes32"
            },
            {
              "internalType": "uint256",
              "name": "BLOCKAUDITCreationAt",
              "type": "uint256"
            },
            {
              "internalType": "uint256",
              "name": "BLOCKAUDITUpdatedAt",
              "type": "uint256"
            },
            {
              "internalType": "bool",
              "name": "exists",
              "type": "bool"
            },
            {
              "internalType": "uint256",
              "name": "avalancheTokenId",
              "type": "uint256"
            },
            {
              "internalType": "uint256",
              "name": "lastSyncTimestamp",
              "type": "uint256"
            },
            {
              "internalType": "bool",
              "name": "isLocked",
              "type": "bool"
            }
          ],
          "internalType": "struct LoanRegistry.Loan",
          "name": "",
          "type": "tuple"
        }
      ],
      "stateMutability": "view",
      "type": "function"
    },
    {
      "inputs": [],
      "name": "renounceOwnership",
      "outputs": [],
      "stateMutability": "nonpayable",
      "type": "function"
    },
    {
      "inputs": [
        {
          "internalType": "string",
          "name": "loanId",
          "type": "string"
        },
        {
          "internalType": "uint256",
          "name": "tokenId",
          "type": "uint256"
        }
      ],
      "name": "setAvalancheTokenId",
      "outputs": [
        {
          "internalType": "bool",
          "name": "",
          "type": "bool"
        }
      ],
      "stateMutability": "nonpayable",
      "type": "function"
    },
    {
      "inputs": [
        {
          "internalType": "address",
          "name": "_bridge",
          "type": "address"
        }
      ],
      "name": "setMarketplaceBridge",
      "outputs": [],
      "stateMutability": "nonpayable",
      "type": "function"
    },
    {
      "inputs": [
        {
          "internalType": "address",
          "name": "newOwner",
          "type": "address"
        }
      ],
      "name": "transferOwnership",
      "outputs": [],
      "stateMutability": "nonpayable",
      "type": "function"
    },
    {
      "inputs": [
        {
          "internalType": "string",
          "name": "loanId",
          "type": "string"
        }
      ],
      "name": "unlockLoan",
      "outputs": [
        {
          "internalType": "bool",
          "name": "",
          "type": "bool"
        }
      ],
      "stateMutability": "nonpayable",
      "type": "function"
    },
    {
      "inputs": [
        {
          "internalType": "string",
          "name": "loanId",
          "type": "string"
        },
        {
          "components": [
            {
              "internalType": "bool",
              "name": "updateCurrentBalance",
              "type": "bool"
            },
            {
              "internalType": "uint256",
              "name": "CurrentBalance",
              "type": "uint256"
            },
            {
              "internalType": "bool",
              "name": "updateNoteRate",
              "type": "bool"
            },
            {
              "internalType": "uint256",
              "name": "NoteRate",
              "type": "uint256"
            },
            {
              "internalType": "bool",
              "name": "updateStatus",
              "type": "bool"
            },
            {
              "internalType": "string",
              "name": "Status",
              "type": "string"
            },
            {
              "internalType": "bool",
              "name": "updateNextDueDate",
              "type": "bool"
            },
            {
              "internalType": "string",
              "name": "NextDueDate",
              "type": "string"
            },
            {
              "internalType": "bool",
              "name": "updatePaidToDate",
              "type": "bool"
            },
            {
              "internalType": "string",
              "name": "PaidToDate",
              "type": "string"
            },
            {
              "internalType": "bool",
              "name": "updatePaidOffDate",
              "type": "bool"
            },
            {
              "internalType": "string",
              "name": "PaidOffDate",
              "type": "string"
            },
            {
              "internalType": "bool",
              "name": "updateDeferredUnpaidInt",
              "type": "bool"
            },
            {
              "internalType": "uint256",
              "name": "DeferredUnpaidInt",
              "type": "uint256"
            },
            {
              "internalType": "bool",
              "name": "updateDeferredLateCharges",
              "type": "bool"
            },
            {
              "internalType": "uint256",
              "name": "DeferredLateCharges",
              "type": "uint256"
            },
            {
              "internalType": "bool",
              "name": "updateDeferredUnpaidCharges",
              "type": "bool"
            },
            {
              "internalType": "uint256",
              "name": "DeferredUnpaidCharges",
              "type": "uint256"
            },
            {
              "internalType": "bool",
              "name": "updateLenderOwnerPct",
              "type": "bool"
            },
            {
              "internalType": "uint256",
              "name": "LenderOwnerPct",
              "type": "uint256"
            },
            {
              "internalType": "bool",
              "name": "updateIsForeclosure",
              "type": "bool"
            },
            {
              "internalType": "bool",
              "name": "IsForeclosure",
              "type": "bool"
            },
            {
              "internalType": "bool",
              "name": "updateCoBorrower",
              "type": "bool"
            },
            {
              "internalType": "string",
              "name": "CoBorrower",
              "type": "string"
            },
            {
              "internalType": "bool",
              "name": "updateLenderName",
              "type": "bool"
            },
            {
              "internalType": "string",
              "name": "LenderName",
              "type": "string"
            },
            {
              "internalType": "bool",
              "name": "updateCity",
              "type": "bool"
            },
            {
              "internalType": "string",
              "name": "City",
              "type": "string"
            },
            {
              "internalType": "bool",
              "name": "updateState",
              "type": "bool"
            },
            {
              "internalType": "string",
              "name": "State",
              "type": "string"
            },
            {
              "internalType": "bool",
              "name": "updatePropertyZip",
              "type": "bool"
            },
            {
              "internalType": "string",
              "name": "PropertyZip",
              "type": "string"
            }
          ],
          "internalType": "struct LoanRegistry.LoanUpdateFields",
          "name": "fields",
          "type": "tuple"
        }
      ],
      "name": "updateLoanPartial",
      "outputs": [
        {
          "internalType": "bytes32",
          "name": "",
          "type": "bytes32"
        }
      ],
      "stateMutability": "nonpayable",
      "type": "function"
    },
    {
      "inputs": [
        {
          "internalType": "string",
          "name": "loanId",
          "type": "string"
        },
        {
          "internalType": "uint256",
          "name": "newBalance",
          "type": "uint256"
        },
        {
          "internalType": "string",
          "name": "newStatus",
          "type": "string"
        },
        {
          "internalType": "string",
          "name": "newPaidToDate",
          "type": "string"
        }
      ],
      "name": "updateLockedLoan",
      "outputs": [
        {
          "internalType": "bytes32",
          "name": "",
          "type": "bytes32"
        }
      ],
      "stateMutability": "nonpayable",
      "type": "function"
    },
    {
      "inputs": [
        {
          "internalType": "string",
          "name": "loanId",
          "type": "string"
        }
      ],
      "name": "updateSyncTimestamp",
      "outputs": [
        {
          "internalType": "bool",
          "name": "",
          "type": "bool"
        }
      ],
      "stateMutability": "nonpayable",
      "type": "function"
    },
    {
      "inputs": [
        {
          "internalType": "address",
          "name": "newImplementation",
          "type": "address"
        },
        {
          "internalType": "bytes",
          "name": "data",
          "type": "bytes"
        }
      ],
      "name": "upgradeToAndCall",
      "outputs": [],
      "stateMutability": "payable",
      "type": "function"
    },
    {
      "inputs": [],
      "name": "userRegistry",
      "outputs": [
        {
          "internalType": "contract UserRegistry",
          "name": "",
          "type": "address"
        }
      ],
      "stateMutability": "view",
      "type": "function"
    },
    {
      "inputs": [],
      "name": "version",
      "outputs": [
        {
          "internalType": "string",
          "name": "",
          "type": "string"
        }
      ],
      "stateMutability": "pure",
      "type": "function"
    }
  ],
  "bytecode": "0x60a08060405234620000d157306080527ff0c57e16840df040f15088dc2f81fe391c3923bec73e23a9662efc9c229c6a009081549060ff8260401c16620000c257506001600160401b036002600160401b0319828216016200007c575b604051615fe19081620000d782396080518181816118e7015261198e0152f35b6001600160401b031990911681179091556040519081527fc7f505b2f371ae2175ee4913f4499e1f2633a7b5936321eed1cdaeb6115181d290602090a13880806200005c565b63f92ee8a960e01b8152600490fd5b600080fdfe6102e0604052600436101561001357600080fd5b60003560e01c80630994247b14613ded57806317afe1f2146131445780632afd3117146130fd5780632b33d5e314612e545780632fe82e9414612d9757806343af231d14612a5f578063441d503214611f2d578063485cc95514611d9b5780634dae3ab714611b495780634f1ef2861461193f57806352d1902d146118d457806354fd4d501461188e5780635c1bf865146117335780635c3c3fcf146115f55780635c7460d6146115cc578063638ee9bc146114e45780636a6137b1146114865780636d047cc614611427578063715018a6146113cf57806375fed82c1461127f57806380695be81461123c578063807c19931461120a57806384f38df4146111be5780638694056d14610d255780638da5cb5b14610cef5780639226eaa514610c6b578063ad3cb1cc14610c25578063af1f6af014610adf578063bcb197c914610aa5578063ce89c08814610a54578063cfcdd80614610a06578063db272c7a14610970578063dd92ab4a1461073e578063def061931461065b578063e01a9aea14610632578063e56904f41461058b578063ece49dfe14610382578063ee4b25bc146101fa5763f2fde38b146101ca57600080fd5b346101f55760203660031901126101f5576101f36101e661436b565b6101ee615e69565b615423565b005b600080fd5b346101f5576020806003193601126101f5576004356001600160401b0381116101f5578161022f610242923690600401613ef7565b8160405193828580945193849201613f58565b8101600781520301902090815461025881614e57565b926102666040519485613e82565b8184526000908152828120838086015b8484106103555786826000805b83518110156102c75760ff60256102a361029d8488614e6e565b51614763565b0154166102b3575b600101610283565b906102bf6001916151cb565b9190506102ab565b506102d1906151da565b6000805b845181101561033e5760ff60256102ef61029d8489614e6e565b0154166102ff575b6001016102d5565b9061033660019161031b61031661029d868a614e6e565b614859565b6103258287614e6e565b526103308186614e6e565b506151cb565b9190506102f7565b604051848152806103518187018661430e565b0390f35b60019182916040516103728161036b81896147c3565b0382613e82565b8152019201920191908490610276565b346101f55760403660031901126101f5576004356001600160401b0381116101f5576103b2903690600401613ef7565b6024356103ca60018060a01b036001541633146153de565b6040519180516103fd60ff60256020968781818801966103eb81838a613f58565b8101600281520301902001541661522a565b60ff602860405186818651610413818389613f58565b810160028152030190200154161561054a5782156105125760266040518581855161043f818388613f58565b8101600281520301902001546104d6576104c17fd9af9fe87cb0da3dea36fcb8d50a76961a23460b2422995a935515422b1fb05e926104ab602760409487602687518b818851610490818389613f58565b81016002815203019020015585519283918551928391613f58565b8201916002835288814294030190200155614cdc565b9281519081524285820152a260405160018152f35b60405162461bcd60e51b8152600481018590526014602482015273151bdad95b88125108185b1c9958591e481cd95d60621b6044820152606490fd5b60405162461bcd60e51b815260048101859052601060248201526f125b9d985b1a59081d1bdad95b88125160821b6044820152606490fd5b60405162461bcd60e51b8152600481018590526019602482015278131bd85b881b5d5cdd081899481b1bd8dad95908199a5c9cdd603a1b6044820152606490fd5b346101f5576020806003193601126101f5576004356001600160401b0381116101f55761060e826105c361061d933690600401613ef7565b6105cb614d31565b50604051906105fd60ff60258351948681818701976105eb81838b613f58565b8101600281520301902001541661534a565b604051938492839251928391613f58565b81016002815203019020614859565b90610351604051928284938452830190613fad565b346101f55760003660031901126101f5576001546040516001600160a01b039091168152602090f35b346101f5576020806003193601126101f5576004356001600160401b0381116101f5578161022f610690923690600401613ef7565b810160078152030190209081546106a681614e57565b926106b46040519485613e82565b8184526000908152828120838086015b8484106107185786826000805b835181101561070f5760ff60256106eb61029d8488614e6e565b0154166106fb575b6001016106d1565b906107076001916151cb565b9190506106f3565b50604051908152f35b600191829160405161072e8161036b81896147c3565b81520192019201919084906106c4565b346101f5576020806003193601126101f5576004356001600160401b0381116101f55761076f903690600401613ef7565b61078460018060a01b036001541633146153de565b6040516107a260ff60258451938681818801966103eb81838a613f58565b60ff6028604051858186516107b8818389613f58565b8101600281520301902001541661093a576005604051848185516107dd818388613f58565b810160028152030190200154156108fa5761036b61081f601a6040518681875161080881838a613f58565b8101600281520301902001604051928380926147c3565b83815191012060088460405161083481613e67565b82815201672830b4b21027b33360c11b815220146108b5579060286108688461088394604051809381928751928391613f58565b8101600281520301902001600160ff19825416179055614cdc565b7f91e865b9cff59eb189ba2a164ccb791dfa436f57ed08bc3c7c65d87c27089f2c82604051428152a260405160018152f35b60405162461bcd60e51b815260048101849052601d60248201527f43616e6e6f7420746f6b656e697a652070616964206f6666206c6f616e0000006044820152606490fd5b60405162461bcd60e51b815260048101849052601860248201527704c6f616e2062616c616e6365206d757374206265203e20360441b6044820152606490fd5b60405162461bcd60e51b815260048101849052600e60248201526d105b1c9958591e481b1bd8dad95960921b6044820152606490fd5b346101f55760203660031901126101f5576004356001600160401b0381116101f5576109a0903690600401613ef7565b6109b560018060a01b036001541633146153de565b6027604051916109d760ff6025835195602081818701986103eb81838c613f58565b6109e960405193849251928391613f58565b820191600283526020814294030190200155602060405160018152f35b346101f55760203660031901126101f5576004356001600160401b0381116101f5576026610a3e602061022f81943690600401613ef7565b8101600281520301902001541515604051908152f35b346101f55760203660031901126101f5576004356001600160401b0381116101f55760ff6028610a8e602061022f81953690600401613ef7565b810160028152030190200154166040519015158152f35b346101f55760203660031901126101f5576004356001600160401b0381116101f55760ff6025610a8e602061022f81953690600401613ef7565b346101f5576020806003193601126101f5576004356001600160401b0381116101f557610b10903690600401613ef7565b610b2560018060a01b036001541633146153de565b604051610b4360ff60258451938681818801966103eb81838a613f58565b60ff602860405185818651610b59818389613f58565b8101600281520301902001541615610bf3579060006026610bb085610bc195602860405183818951610b8c818388613f58565b810160028152030190200160ff198154169055604051809381928851928391613f58565b810160028152030190200155614cdc565b7f504665dddc6b716d04c8637579fed49725dfe039561c404f9fa0fac218e2b43a82604051428152a260405160018152f35b60405162461bcd60e51b815260048101849052600a602482015269139bdd081b1bd8dad95960b21b6044820152606490fd5b346101f55760003660031901126101f557610351604051610c4581613e67565b60058152640352e302e360dc1b6020820152604051918291602083526020830190613f7b565b346101f55760203660031901126101f557610c8461436b565b610c8c615e69565b6001600160a01b03168015610cb157600180546001600160a01b031916919091179055005b60405162461bcd60e51b8152602060048201526016602482015275496e76616c696420627269646765206164647265737360501b6044820152606490fd5b346101f55760003660031901126101f557600080516020615f35833981519152546040516001600160a01b039091168152602090f35b346101f5576020806003193601126101f5576004356001600160401b0381116101f557610d56903690600401613ef7565b600080516020615f35833981519152546001600160a01b039081163303611104575b5060405190610d9860ff60258351948681818701976103eb81838b613f58565b60ff602860405185818551610dae81838a613f58565b810160028152030190200154166110c357602660405184818451610dd3818389613f58565b81016002815203019020015461107f5760405183810190428252436040820152610e286066828551610e0981606084018a613f58565b81016544454c45544560d01b6060820152036046810184520182613e82565b51902091610e416040518581855161060e818388613f58565b83600052600585526060604060002091858355600192610e648660018301614b86565b60034291015586808201518051908161100d575b5050500151838151610ffd575b50508392918186926000915b610f13575b505092610eb8610ec792610ee295602560405183818951610b8c818388613f58565b81016006815203019020614cfc565b8260005260098452610edd816040600020614b86565b614cdc565b7f1f4b13e4dd15d25a92f66856e750d208468c8c7ce52eb2a6e880e95650ce41a783604051848152a2604051908152f35b9192509350600a8054868882881015610ff357505061036b610f44610f3788614c66565b50604051928380926147c3565b8881519101208551852014610f6457508594879392908101915080610e91565b90915060001994858201918211610fdd57610f8b610f84610f9193614c66565b5091614c66565b90615da7565b8054938415610fc75786610ec7938793610eb893610ee2980190610fbd610fb783614c66565b90615390565b5592955092610e96565b634e487b7160e01b600052603160045260246000fd5b634e487b7160e01b600052601160045260246000fd5b9493509550610e96565b61100691615db6565b8583610e85565b8161102084936040518096819501613f58565b810160088152030190206110348154614789565b9081611042575b8891610e78565b81601f6000931160011461105a5750555b878061103b565b908083918252611078601f8c8420940160051c840160018501614b28565b5555611053565b60405162461bcd60e51b815260048101849052601c60248201527b21b0b73737ba103232b632ba32903a37b5b2b734bd32b2103637b0b760211b6044820152606490fd5b60405162461bcd60e51b815260048101849052601960248201527821b0b73737ba103232b632ba32903637b1b5b2b2103637b0b760391b6044820152606490fd5b60008054604051636f77926b60e01b81523360048201529283916024918391165afa9081156111b2576111729160609160009161118f575b5061114c60c08201511515614682565b015183815191012061115c6146c0565b8481519101208114908115611178575b50614705565b82610d78565b90506111826146e4565b848151910120148461116c565b6111ac91503d806000833e6111a48183613e82565b81019061459c565b8561113c565b6040513d6000823e3d90fd5b346101f55760203660031901126101f5576004356001600160401b0381116101f55760266111f6602061022f81943690600401613ef7565b810160028152030190200154604051908152f35b346101f557602060ff602561122f61122a61122436613f15565b90614407565b614763565b0154166040519015158152f35b346101f55760203660031901126101f557600435600052600560205261035161126b6002604060002001614e82565b60405191829160208352602083019061424a565b346101f55760403660031901126101f557600435600a548082101561139357602435820190818311610fdd5780821161138b575b6000835b83811061135757506112c8816151da565b926000945b8181106112fe5750506112ef935060405193849360608552606085019061430e565b91602084015260408301520390f35b60ff602561131461130e84614c66565b50615137565b015416611324575b6001016112cd565b9461134f60019161133a61031661130e8a614c66565b6113448289614e6e565b526103308188614e6e565b95905061131c565b60ff602561136761130e84614c66565b015416611377575b6001016112b7565b906113836001916151cb565b91905061136f565b9050806112b3565b60405162461bcd60e51b81526020600482015260146024820152734f6666736574206f7574206f6620626f756e647360601b6044820152606490fd5b346101f55760003660031901126101f5576113e8615e69565b600080516020615f3583398151915280546001600160a01b031981169091556000906001600160a01b0316600080516020615f758339815191528280a3005b346101f55760003660031901126101f557600080600a54905b81811061145257602083604051908152f35b60ff602561146261130e84614c66565b015416611472575b600101611440565b9161147e6001916151cb565b92905061146a565b346101f5576103516114d061060e60206114b16114a236613f15565b906114ab614d31565b50614407565b604051906105fd60ff60258351948681818701976105eb81838b613f58565b604051918291602083526020830190613fad565b346101f5576020806003193601126101f5576004356001600160401b0381116101f5578161022f611519923690600401613ef7565b81016006815203019020604051808284829454938481520190600052846000209260005b868282106115b6578461155281860382613e82565b8051156115795780516000198101908111610fdd5761157091614e6e565b51604051908152f35b60405162461bcd60e51b8152600481018390526015602482015274139bc81d1c985b9cd858dd1a5bdb9cc8199bdd5b99605a1b6044820152606490fd5b855484526001958601958795509301920161153d565b346101f55760003660031901126101f5576000546040516001600160a01b039091168152602090f35b346101f5576020806003193601126101f5576004356001600160401b0381116101f55761166261164c8361163061036b943690600401613ef7565b611638614d31565b508160405193828580945193849201613f58565b81016008815203019020604051928380926147c3565b8051156116ee576040519060ff602582519385818186019661168581838a613f58565b81016002815203019020015416156116b1578261061d9261060e92604051938492839251928391613f58565b60405162461bcd60e51b8152600481018490526015602482015274131bd85b881a185cc81899595b8819195b195d1959605a1b6044820152606490fd5b60405162461bcd60e51b815260048101839052601f60248201527f4e6f206c6f616e20666f756e6420776974682074686973204c6f616e556964006044820152606490fd5b346101f55760003660031901126101f557600a546000805b82811061185a575061177561175f82614e57565b9161176d6040519384613e82565b808352614e57565b60209290601f19018360005b82811061184b575050506000805b8281106117f8575050506040519082820192808352815180945260408301938160408260051b8601019301916000955b8287106117cc5785850386f35b9091929382806117e8600193603f198a82030186528851613f7b565b96019201960195929190926117bf565b60ff602561180861130e84614c66565b015416611818575b60010161178f565b9061184360019161036b61182e610f3786614c66565b6118388288614e6e565b526103308187614e6e565b919050611810565b60608582018301528101611781565b60ff602561186a61130e84614c66565b01541661187a575b60010161174b565b906118866001916151cb565b919050611872565b346101f55760003660031901126101f5576103516040516118ae81613e67565b60058152640312e302e360dc1b6020820152604051918291602083526020830190613f7b565b346101f55760003660031901126101f5577f00000000000000000000000000000000000000000000000000000000000000006001600160a01b0316300361192d576020604051600080516020615f558339815191528152f35b60405163703e46dd60e11b8152600490fd5b60403660031901126101f55761195361436b565b6024356001600160401b0381116101f557366023820112156101f557611983903690602481600401359101613ec0565b906001600160a01b037f00000000000000000000000000000000000000000000000000000000000000008116308114908115611b2d575b5061192d576119c7615e69565b6040516352d1902d60e01b8152908216916020918281600481875afa60009181611afe575b50611a0a57604051634c9c8ce360e01b815260048101859052602490fd5b928493600080516020615f5583398151915290818103611ae65750823b15611acd5780546001600160a01b03191682179055604051907fbc7cd75a20ee27fd9adebab32041f755214dbc6bffa90cc0225b39da2e5c2d3b600080a2835115611ab3575060008084846101f396519101845af4903d15611aaa573d611a8d81613ea5565b90611a9b6040519283613e82565b8152600081943d92013e615ed1565b60609250615ed1565b9250505034611abe57005b63b398979f60e01b8152600490fd5b604051634c9c8ce360e01b815260048101839052602490fd5b60249060405190632a87526960e21b82526004820152fd5b9091508381813d8311611b26575b611b168183613e82565b810103126101f5575190866119ec565b503d611b0c565b905081600080516020615f5583398151915254161415846119ba565b346101f5576020806003193601126101f5576004356001600160401b0381116101f557611b7a903690600401613ef7565b611b86815115156150c6565b604051815190838181850193611b9d818387613f58565b8101600681520301902090604051808386829554938481520190600052866000209260005b88828210611d8557505050611bd992500383613e82565b815191611bfe611be884614e57565b93611bf66040519586613e82565b808552614e57565b601f19018560005b828110611d5a5750505060005b8151811015611d0757611c268183614e6e565b5160005260058652604060002090604051611c4081613e31565b82548152604051611c588161036b81600188016147c3565b8882015260606003600294611c6e868201614e82565b60408501520154910190815260ff6025611ca38a88611c8d878a614e6e565b519551978c604051948593849251928391613f58565b8201908152030190200154161580611cef575b60019360405192611cc684613e4c565b83528983015215156040820152611cdd8287614e6e565b52611ce88186614e6e565b5001611c13565b508351600019810193908411610fdd57928214611cb6565b604080518781528551818901819052868901928201908960005b828110611d2e5784840385f35b855180518552808301518584015260409081015115159085015294810194606090930192600101611d21565b604051611d6681613e4c565b6000815260008382015260006040820152828288010152018690611c06565b8554845260019586019588955093019201611bc2565b346101f55760403660031901126101f557611db461436b565b6024356001600160a01b03811691908290036101f557600080516020615fb583398151915280549092604082901c60ff16159290916001600160401b03811680159081611f25575b6001149081611f1b575b159081611f12575b50611f00576001600160401b03198116600117855583611ee5575b508115611ea057611e4490611e3c615ea2565b6101ee615ea2565b611e4c615ea2565b600080546001600160a01b031916919091179055611e6657005b805460ff60401b19169055604051600181527fc7f505b2f371ae2175ee4913f4499e1f2633a7b5936321eed1cdaeb6115181d290602090a1005b60405162461bcd60e51b815260206004820152601d60248201527f55736572526567697374727920616464726573732072657175697265640000006044820152606490fd5b6001600160481b0319166001600160401b0117845584611e29565b60405163f92ee8a960e01b8152600490fd5b90501586611e0e565b303b159150611e06565b859150611dfc565b346101f5576003196040368201126101f5576004356001600160401b0381116101f557611f5e903690600401613ef7565b906001600160401b03602435116101f5576104008091602435360301126101f5576040519081016001600160401b03811182821017612a4957604052611fa8602435600401613fa0565b81526024803501356020820152611fc3604460243501613fa0565b6040820152606460243501356060820152611fe2608460243501613fa0565b608082015260243560a401356001600160401b0381116101f55761200e90600436916024350101613ef7565b60a082015261202160c460243501613fa0565b60c082015260243560e401356001600160401b0381116101f55761204d90600436916024350101613ef7565b60e082015261206161010460243501613fa0565b61010082015260243561012401356001600160401b0381116101f55761208f90600436916024350101613ef7565b6101208201526120a461014460243501613fa0565b61014082015260243561016401356001600160401b0381116101f5576120d290600436916024350101613ef7565b6101608201526120e761018460243501613fa0565b6101808201526101a460243501356101a082015261210a6101c460243501613fa0565b6101c08201526101e460243501356101e082015261212d61020460243501613fa0565b610200820152610224602435013561022082015261215061024460243501613fa0565b610240820152610264602435013561026082015261217361028460243501613fa0565b6102808201526121886102a460243501613fa0565b6102a082015261219d6102c460243501613fa0565b6102c08201526001600160401b036024356102e40135116101f5576121ce366024356102e481013501600401613ef7565b6102e08201526121e361030460243501613fa0565b6103008201526001600160401b036024356103240135116101f5576122143660243561032481013501600401613ef7565b61032082015261222961034460243501613fa0565b6103408201526001600160401b036024356103640135116101f55761225a3660243561036481013501600401613ef7565b61036082015261226f61038460243501613fa0565b6103808201526001600160401b036024356103a40135116101f5576122a0366024356103a481013501600401613ef7565b6103a08201526122b56103c460243501613fa0565b6103c08201526001600160401b036024356103e40135116101f5576122e6366024356103e481013501600401613ef7565b6103e0820152600080516020615f35833981519152546001600160a01b03163303612999575b61233c60ff602560405160208187516123288183858c01613f58565b60028183015281010301902001541661522a565b60ff602860405160208186516123558183858b01613f58565b8101600281520301902001541661295857602091600080516020615f9583398151915260406125e460026125a86125ae84518981019042825243878201526123d6606e828b6123af81516020928193606086019101613f58565b81016d5041525449414c5f55504441544560901b606082015203604e810184520182613e82565b5190209761240086518b81816123f28d83815193849201613f58565b810188815203019020614859565b86518b81816124158d83815193849201613f58565b81018881520301902091805161294a575b8781015161293b575b6080810151612925575b60c081015161290f575b6101008101516128f8575b6101408101516128e1575b6101808101516128d1575b6101c08101516128c1575b6102008101516128b1575b6102408101516128a1575b610280810151612888575b6102c0810151612871575b61030081015161285a575b610340810151612843575b61038081015161282d575b6103c0810151612815575b5061257e896024840142815560228501908d82556125428f6124e842615496565b9461253260218f518098856125068184019687815193849201613f58565b8201605f60f81b8782015261252382518093898785019101613f58565b01036001810189520187613e82565b8d51809381928851928391613f58565b81016004815203019020908682036125f8575b50505061256f8d8c818c5193828580945193849201613f58565b81016003815203019020614caf565b8960005260058b52866000209384928b845561259d8b60018601614b86565b426003850155614859565b906155ef565b6125c78785518a8181610eb88c83815193849201613f58565b86600052600988526125dc8685600020614b86565b015493614cdc565b9281519085825286820152a2604051908152f35b61280d92612606888461526c565b612616600189016001850161526c565b6126248b89018c850161526c565b612634600389016003850161526c565b600488015460048401556005880154600584015560068801546006840155600788015460078401556008880154600884015560098801546009840155612680600a8901600a850161526c565b600b880154600b840155600c880154600c840155600d880154600d840155600e880154600e840155600f880154600f8401556010880154601084015560118801546011840155601288015460128401556126e0601389016013850161526c565b6126f0601489016014850161526c565b612700601589016015850161526c565b6016880154601684015561271a601789016017850161526c565b61272a601889016018850161526c565b61273e60ff60198a01541660198501614c55565b61274e601a8901601a850161526c565b61275e601b8901601b850161526c565b61276e601c8901601c850161526c565b61277e601d8901601d850161526c565b61278e601e8901601e850161526c565b61279e601f8901601f850161526c565b60206127af9089016020850161526c565b6127bf602189016021850161526c565b546022830155602387015460238301555460248201556127e960ff60258801541660258301614c55565b6026860154602682015560278601546027820155602860ff81880154169101614c55565b8d8080612555565b6103e061282791015160218401614b86565b8b6124c7565b61283e6103a08201518d8501614b86565b6124bc565b612855610360820151601f8501614b86565b6124b1565b61286c61032082015160178501614b86565b6124a6565b6128836102e0820151600a8501614b86565b61249b565b61289c6102a0820151151560198501614c55565b612490565b6102608101516016840155612485565b610220810151601184015561247a565b6101e0810151601084015561246f565b6101a0810151600f840155612464565b6128f3610160820151601b8501614b86565b612459565b61290a610120820151601c8501614b86565b61244e565b61292060e0820151601e8501614b86565b612443565b61293660a0820151601a8501614b86565b612439565b6060810151600784015561242f565b8b8101516005840155612426565b60405162461bcd60e51b815260206004820152601960248201527821b0b73737ba103ab83230ba32903637b1b5b2b2103637b0b760391b6044820152606490fd5b60008054604051636f77926b60e01b81523360048201529190829060249082906001600160a01b03165afa9081156111b257612a1191606091600091612a2e575b506129ea60c08201511515614682565b0151602081519101206129fb6146c0565b602081519101208114908115612a165750614705565b61230c565b9050612a206146e4565b60208151910120148461116c565b612a4391503d806000833e6111a48183613e82565b856129da565b634e487b7160e01b600052604160045260246000fd5b346101f55760803660031901126101f5576001600160401b036004358181116101f557612a90903690600401613ef7565b90602435906044358181116101f557612aad903690600401613ef7565b906064359081116101f557612ac6903690600401613ef7565b600080516020615f35833981519152549093906001600160a01b039081163303612cef575b5060405193815190612b0e60ff60256020988981818901976103eb81838b613f58565b60ff602860405188818751612b2481838a613f58565b8101600281520301902001541615612cb257602660405187818651612b4a818389613f58565b81016002815203019020015415612c78577f1becde7ac0817e1e5bf0e4139dedb647c095a15357ced8b7f0977267d9530c7b92612c35612c1c610eb889899896612c4b96602260405184810190428252436040820152612bdc606d828c51612bb681606084018b613f58565b81016c4c4f434b45445f55504441544560981b606082015203604d810184520182613e82565b5190209c8d96879360405187818d51612bf681838c613f58565b81016002815203019020926005840155612c138d601a8501614b86565b601c8301614b86565b4260248201550155604051809381928851928391613f58565b8560005260098752610edd816040600020614b86565b92612c6760405192839283526060888401526060830190613f7b565b4260408301520390a2604051908152f35b60405162461bcd60e51b8152600481018790526012602482015271139195081b9bdd081b5a5b9d1959081e595d60721b6044820152606490fd5b60405162461bcd60e51b81526004810187905260156024820152744f6e6c7920666f72206c6f636b6564206c6f616e7360581b6044820152606490fd5b60008054604051636f77926b60e01b81523360048201529283916024918391165afa9081156111b257612d5e91606091600091612d7c575b50612d3760c08201511515614682565b015160208151910120612d486146c0565b602081519101208114908115612d645750614705565b84612aeb565b9050612d6e6146e4565b60208151910120148661116c565b612d9191503d806000833e6111a48183613e82565b87612d27565b346101f55760003660031901126101f557600a546000805b828110612e205750612dc0906151da565b906000805b828110612de257604051602080825281906103519082018761430e565b60ff6025612df261130e84614c66565b015416612e02575b600101612dc5565b90612e1860019161182e61031661130e86614c66565b919050612dfa565b60ff6025612e3061130e84614c66565b015416612e40575b600101612daf565b90612e4c6001916151cb565b919050612e38565b346101f5576020806003193601126101f5576004356001600160401b0381116101f557612e85903690600401613ef7565b90612e92825115156150c6565b604051825190828181860193612ea9818387613f58565b81016006815203019020604051808285829454938481520190600052856000209260005b878282106130e757505050612ee492500382613e82565b8051612ef261175f82614e57565b81850194601f1994918501368737612f0a8451615105565b96845193612f30612f1a86614e57565b95612f286040519788613e82565b808752614e57565b8584019701368837612f428651615105565b9660005b875181101561304857612f598189614e6e565b5160005260058552604060002090604051612f7381613e31565b8254815260405180612f8881600187016147c3565b03612f939082613e82565b87820152818d6002928c83858801612faa90614e82565b97604084019889526003015492606001928352612fc691614e6e565b51612fd1848a614e6e565b525191612fdd91614e6e565b52866040518092818b8a518092612ff392613f58565b8201908152030190206025015460ff161580613030575b91600192613018838b614e6e565b90151590525151613029828c614e6e565b5201612f46565b508851600019810192908311610fdd5791811461300a565b508991849189888c6040519687956080870190608088525180915260a08701929060005b8181106130d057505050816130889187899403848901526142da565b918583036040870152519182815201929460005b8281106130b7578580610351878783820360608501526142da565b865115158552958101958795509381019360010161309c565b825185528a9850938901939189019160010161306c565b8554845260019586019587955093019201612ecd565b346101f55760203660031901126101f55761313661035161311f600435614f23565b604092919251938493604085526040850190613fad565b90838203602085015261424a565b346101f5576104203660031901126101f5576004356001600160401b0381116101f557613175903690600401613ef7565b610260526024356001600160401b0381116101f557613198903690600401613ef7565b6101e0526044356001600160401b0381116101f5576131bb903690600401613ef7565b61028052610124356001600160401b0381116101f5576131df903690600401613ef7565b6101a052610244356001600160401b0381116101f557613203903690600401613ef7565b61020052610264356001600160401b0381116101f557613227903690600401613ef7565b61022052610284356001600160401b0381116101f55761324b903690600401613ef7565b6102c4356001600160401b0381116101f55761326b903690600401613ef7565b6102a0526102e4356001600160401b0381116101f55761328f903690600401613ef7565b6103043580151581036101f557610324356001600160401b0381116101f5576132bc903690600401613ef7565b6102c052610344356001600160401b0381116101f5576132e0903690600401613ef7565b6001600160401b0361036435116101f5576133013661036435600401613ef7565b90610384356001600160401b0381116101f557613322903690600401613ef7565b926103a4356001600160401b0381116101f557613343903690600401613ef7565b946001600160401b036103c435116101f557613365366103c435600401613ef7565b610120526103e4356001600160401b0381116101f557613389903690600401613ef7565b61014052610404356001600160401b0381116101f5576133ad903690600401613ef7565b61016052600080516020615f35833981519152546001600160a01b03163303613d3d575b6133e061028051511515614381565b6133ef610260515115156143c5565b6133ff6102605161028051614407565b6102405260ff602560405160208161024051516134228183856102405101613f58565b600281830152810103019020015416613cb6575b604051602081019042825243604082015261347f6074826102405151613466816060840160206102405101613f58565b81013360601b6060820152036054810184520182613e82565b51902096426101805260ff602560405160208161024051516134a78183856102405101613f58565b810160028152030190200154166101c0526101c051613c84575b6134df604051602081610240515161060e8183856102405101613f58565b61010052600060e0526101c05115613c7a576104c061010051015160e0525b600060c0526101c05115613c70576104e061010051015160c0525b600060a0526101c05115613c6657610500610100510151151560a0525b604051608052613547608051613e15565b610240516080515261026051602060805101526101e05160406080510152610280516060608051015260643560808051015260843560a0608051015260a43560c0608051015260c43560e0608051015260e43561010060805101526101043561012060805101526101a0516101406080510152610144356101606080510152610164356101806080510152610184356101a060805101526101a4356101c060805101526101c4356101e060805101526101e43561020060805101526102043561022060805101526102243561024060805101526102005161026060805101526102205161028060805101526102a060805101526102a4356102c060805101526102a0516102e060805101526103006080510152151561032060805101526102c0516103406080510152610360608051015261038060805101526103a060805101526103c06080510152610120516103e0608051015261014051610400608051015261016051610420608051015280610440608051015261018051610460608051015242610480608051015260016104a0608051015260e0516104c0608051015260c0516104e0608051015260a05115156105006080510152613a1261370b42615496565b6139f76137736020604051936137626021868481019361024051516137368187896102405101613f58565b8201605f60f81b8782015261375382518093898785019101613f58565b01036001810188520186613e82565b604051809381928751928391613f58565b8101600481520301902061378a6080515182614b86565b61379d6020608051015160018301614b86565b6137b06040608051015160028301614b86565b6137c36060608051015160038301614b86565b6080805190810151600483015560a0810151600583015560c0810151600683015560e0810151600783015561010081015160088301556101208101516009830155610140015161381690600a8301614b86565b608051610160810151600b830155610180810151600c8301556101a0810151600d8301556101c0810151600e8301556101e0810151600f83015561020081015160108301556102208101516011830155610240810151601283015561026001516138839060138301614b86565b613897610280608051015160148301614b86565b6138ab6102a0608051015160158301614b86565b6102c0608051015160168201556138cc6102e0608051015160178301614b86565b6138e0610300608051015160188301614b86565b6138f66103206080510151151560198301614c55565b61390a6103406080510151601a8301614b86565b61391e6103606080510151601b8301614b86565b6139326103806080510151601c8301614b86565b6139466103a06080510151601d8301614b86565b61395a6103c06080510151601e8301614b86565b61396e6103e06080510151601f8301614b86565b613982610400608051015160208301614b86565b613996610420608051015160218301614b86565b6080516104408101516022830155610460810151602383015561048081015160248301556104a001516139ce90151560258301614c55565b6080516104c081015160268301556104e081015160278301556105000151151590602801614c55565b604051602081610240515161256f8183856102405101613f58565b8060005260056020526040600020818155613a336102405160018301614b86565b4260038201556101c05115613b805780613a55600292608051610100516155ef565b606061010051015180516020820120906102805151916020610280510192832003613b36575b50500154600080516020615f958339815191526040613a9c61024051614cdc565b928151908582526020820152a25b613adf6040516020816102405151613ac88183856102405101613f58565b8101600281520301902061378a6080515182614b86565b613afe816040516020816102405151610eb88183856102405101613f58565b806000526009602052613b18610240516040600020614b86565b60405190815260406020820152806103516040820161024051613f7b565b61024051613b4391615db6565b6102805151908115613a7b5781613b61613b79936040518094613f58565b81019060078252602081610240519303019020614caf565b8380613a7b565b50600a54600160401b811015612a4957806001613ba09201600a55614c66565b613c505761024051613bb191614b86565b610280515180613c31575b50613bf16040516102605151613bd9818360206102605101613f58565b81019060088252602081610240519303019020614b86565b613bfd61024051614cdc565b7f0f96b08e6339be5808b5f29f8e7c0ee9ab0060847835221b46a5434fa8676e5c60408051848152426020820152a2613aaa565b613c4a9060405190613b61818360206102805101613f58565b81613bbc565b634e487b7160e01b600052600060045260246000fd5b600060a052613536565b600060c052613519565b600060e0526134fe565b60236040516020816102405151613ca18183856102405101613f58565b810160028152030190200154610180526134c1565b60ff60286040516020816102405151613cd58183856102405101613f58565b81016002815203019020015416156134365760405162461bcd60e51b815260206004820152602860248201527f43616e6e6f7420757064617465206c6f636b6564206c6f616e2076696120637260448201526732b0ba32a637b0b760c11b6064820152608490fd5b60008054604051636f77926b60e01b81523360048201529190829060249082906001600160a01b03165afa9081156111b257613db591606091600091613dd2575b50613d8e60c08201511515614682565b015160208151910120613d9f6146c0565b602081519101208114908115613dba5750614705565b6133d1565b9050613dc46146e4565b60208151910120148961116c565b613de791503d806000833e6111a48183613e82565b8a613d7e565b346101f557610351613e0161122436613f15565b604051918291602083526020830190613f7b565b61052081019081106001600160401b03821117612a4957604052565b608081019081106001600160401b03821117612a4957604052565b606081019081106001600160401b03821117612a4957604052565b604081019081106001600160401b03821117612a4957604052565b601f909101601f19168101906001600160401b03821190821017612a4957604052565b6001600160401b038111612a4957601f01601f191660200190565b929192613ecc82613ea5565b91613eda6040519384613e82565b8294818452818301116101f5578281602093846000960137010152565b9080601f830112156101f557816020613f1293359101613ec0565b90565b9060406003198301126101f5576001600160401b036004358181116101f55783613f4191600401613ef7565b926024359182116101f557613f1291600401613ef7565b60005b838110613f6b5750506000910152565b8181015183820152602001613f5b565b90602091613f9481518092818552858086019101613f58565b601f01601f1916010190565b359081151582036101f557565b906141f66141e26141ce6141ba6141a661419261417e61416a6141496141356141146140ff8c8e6140eb61407f61402d61401b614009613ff7610520875190808a52890190613f7b565b602087015188820360208a0152613f7b565b60408601518782036040890152613f7b565b60608501518682036060880152613f7b565b6080840151608086015260a084015160a086015260c084015160c086015260e084015160e086015261010080850151908601526101208085015190860152610140808501519086830390870152613f7b565b610160808401519085015261018080840151908501526101a080840151908501526101c080840151908501526101e08084015190850152610200808401519085015261022080840151908501526102408084015190850152610260808401519085830390860152613f7b565b916102808092015191818403910152613f7b565b8d8d6102a08092015191818403910152613f7b565b8c6102c080910151908d01528c8c6102e08092015191818403910152613f7b565b610300808d0151908c8303908d0152613f7b565b610320808c01511515908b0152610340808c0151908b8303908c0152613f7b565b610360808b0151908a8303908b0152613f7b565b610380808a015190898303908a0152613f7b565b6103a0808901519088830390890152613f7b565b6103c0808801519087830390880152613f7b565b6103e0808701519086830390870152613f7b565b610400808601519085830390860152613f7b565b610420808501519084830390850152613f7b565b916104408082015190830152610460808201519083015261048080820151908301526104a0808201511515908301526104c080820151908301526104e0808201519083015261050080910151151591015290565b908082519081815260208091019281808460051b8301019501936000915b8483106142785750505050505090565b90919293949584806142ca600193601f198682030187528a516142b76142a76060835190808652850190613f7b565b8583015184820387860152613f7b565b9160408092015191818403910152613f7b565b9801930193019194939290614268565b90815180825260208080930193019160005b8281106142fa575050505090565b8351855293810193928101926001016142ec565b90808251908181526020809101926020808460051b8301019501936000915b84831061433d5750505050505090565b909192939495848061435b600193601f198682030187528a51613fad565b980193019301919493929061432d565b600435906001600160a01b03821682036101f557565b1561438857565b60405162461bcd60e51b815260206004820152601560248201527413195b99195c955a59081a5cc81c995c5d5a5c9959605a1b6044820152606490fd5b156143cc57565b60405162461bcd60e51b8152602060048201526013602482015272131bd85b955a59081a5cc81c995c5d5a5c9959606a1b6044820152606490fd5b6144629161441782511515614381565b614423815115156143c5565b6040519283916020948591826144428184019788815193849201613f58565b820161445682518093868085019101613f58565b01038084520182613e82565b519020906040519061447382613e67565b601082526f181899199a1a9b1b9c1cb0b131b232b360811b818301526040519261449c84613e4c565b604084526040368386013760005b8281106144b8575050505090565b600f82821a60046001600160f81b0319806144d784841c86168a615485565b51169360019386851b95878704600214881517156145455761450a92919060001a614502888e615485565b531689615485565b51169183018093116145305750906145296001939260001a9188615485565b53016144aa565b601190634e487b7160e01b6000525260246000fd5b601185634e487b7160e01b6000525260246000fd5b81601f820112156101f557805161457081613ea5565b9261457e6040519485613e82565b818452602082840101116101f557613f129160208085019101613f58565b6020818303126101f55780516001600160401b03918282116101f557019060e0828403126101f5576040519260e0840184811083821117612a495760405282518281116101f557816145ef91850161455a565b845260208301518281116101f5578161460991850161455a565b602085015260408301518281116101f5578161462691850161455a565b604085015260608301519182116101f55761464291830161455a565b60608301526080810151906001600160a01b03821682036101f55760c091608084015260a081015160a0840152015180151581036101f55760c082015290565b1561468957565b60405162461bcd60e51b815260206004820152600f60248201526e55736572206e6f742061637469766560881b6044820152606490fd5b604051906146cd82613e67565b600882526737b832b930ba37b960c11b6020830152565b604051906146f182613e67565b600582526430b236b4b760d91b6020830152565b1561470c57565b60405162461bcd60e51b815260206004820152602960248201527f4e6f7420617574686f72697a65643a206d757374206265206f70657261746f726044820152681037b91030b236b4b760b91b6064820152608490fd5b602061477c918160405193828580945193849201613f58565b8101600281520301902090565b90600182811c921680156147b9575b60208310146147a357565b634e487b7160e01b600052602260045260246000fd5b91607f1691614798565b8054600093926147d282614789565b9182825260209360019160018116908160001461483a57506001146147f9575b5050505050565b90939495506000929192528360002092846000945b838610614826575050505001019038808080806147f2565b80548587018301529401938590820161480e565b60ff19168685015250505090151560051b0101915038808080806147f2565b9060409161050060ff602885519361487085613e15565b849680516148828161036b81866147c3565b865280516148978161036b81600187016147c3565b602087015280516148af8161036b81600287016147c3565b8187015280516148c68161036b81600387016147c3565b606087015260048201546080870152600582015460a0870152600682015460c0870152600782015460e087015260088201546101008701526009820154610120870152805161491c8161036b81600a87016147c3565b610140870152600b820154610160870152600c820154610180870152600d8201546101a0870152600e8201546101c0870152600f8201546101e0870152601082015461020087015260118201546102208701526012820154610240870152805161498d8161036b81601387016147c3565b61026087015280516149a68161036b81601487016147c3565b61028087015280516149bf8161036b81601587016147c3565b6102a087015260168201546102c087015280516149e38161036b81601787016147c3565b6102e087015280516149fc8161036b81601887016147c3565b6103008701528360198301541615156103208701528051614a248161036b81601a87016147c3565b6103408701528051614a3d8161036b81601b87016147c3565b6103608701528051614a568161036b81601c87016147c3565b6103808701528051614a6f8161036b81601d87016147c3565b6103a08701528051614a888161036b81601e87016147c3565b6103c08701528051614aa18161036b81601f87016147c3565b6103e08701528051614aba8161036b81602087016147c3565b61040087015251614ad28161036b81602186016147c3565b6104208601526022810154610440860152602381015461046086015260248101546104808601528260258201541615156104a086015260268101546104c086015260278101546104e08601520154161515910152565b818110614b33575050565b60008155600101614b28565b9190601f8111614b4e57505050565b614b7a926000526020600020906020601f840160051c83019310614b7c575b601f0160051c0190614b28565b565b9091508190614b6d565b81519192916001600160401b038111612a4957614bad81614ba78454614789565b84614b3f565b602080601f8311600114614bf057508190614be1939495600092614be5575b50508160011b916000199060031b1c19161790565b9055565b015190503880614bcc565b90601f19831695846000526020600020926000905b888210614c3d57505083600195969710614c24575b505050811b019055565b015160001960f88460031b161c19169055388080614c1a565b80600185968294968601518155019501930190614c05565b9060ff801983541691151516179055565b600a54811015614c8157600a60005260206000200190600090565b634e487b7160e01b600052603260045260246000fd5b8054821015614c815760005260206000200190600090565b8054600160401b811015612a4957614ccc91600182018155614c97565b919091613c5057614b7a91614b86565b614cf490602060405192828480945193849201613f58565b810103902090565b8054600160401b811015612a4957614d1991600182018155614c97565b819291549060031b91821b91600019901b1916179055565b60405190614d3e82613e15565b8161050060609182815282602082015282604082015282808201526000928360808301528360a08301528360c08301528360e08301528361010083015283610120830152806101408301528361016083015283610180830152836101a0830152836101c0830152836101e08301528361020083015283610220830152836102408301528061026083015280610280830152806102a0830152836102c0830152806102e08301528061030083015283610320830152806103408301528061036083015280610380830152806103a0830152806103c0830152806103e083015280610400830152610420820152826104408201528261046082015282610480820152826104a0820152826104c0820152826104e08201520152565b6001600160401b038111612a495760051b60200190565b8051821015614c815760209160051b010190565b908154614e8e81614e57565b92604093614e9e85519182613e82565b82815280946020809201926000526020600020906000935b858510614ec557505050505050565b6003846001928451614ed681613e4c565b8551614ee68161036b818b6147c3565b81528551614efa8161036b81898c016147c3565b838201528551614f118161036b8160028c016147c3565b86820152815201930194019391614eb6565b614f2b614d31565b5060009080825260209260098452604061036b614f4f8286208351928380926147c3565b80511561508a5785614f6d9181845193828580945193849201613f58565b81016003815203019020938454614f8381614e57565b95614f9084519788613e82565b81875282528682208290888089015b848410615065575050505050805b855181101561501657614fe9614fda88614fc7848a614e6e565b5181875193828580945193849201613f58565b81016004815203019020614859565b8561044082015114614ffe5750600101614fad565b96600294965060059150613f12958352522001614e82565b825162461bcd60e51b815260048101889052602260248201527f4c6f616e207374617465206e6f7420666f756e6420666f722074686973205478604482015261125960f21b6064820152608490fd5b6001918291885161507a8161036b81896147c3565b8152019201920191908990614f9f565b815162461bcd60e51b8152600481018790526015602482015274151c985b9cd858dd1a5bdb881b9bdd08199bdd5b99605a1b6044820152606490fd5b156150cd57565b60405162461bcd60e51b815260206004820152601060248201526f131bd85b881251081c995c5d5a5c995960821b6044820152606490fd5b9061510f82614e57565b61511c6040519182613e82565b828152809261512d601f1991614e57565b0190602036910137565b60405190816000825461514981614789565b936001918083169081156151af5750600114615171575b505060209250600281520301902090565b9091506000526020906020600020906000915b85831061519b575050505060209181013880615160565b805487840152869450918301918101615184565b92505050602093915060ff191682528015150281013880615160565b6000198114610fdd5760010190565b906151e482614e57565b6151f16040519182613e82565b8281528092615202601f1991614e57565b019060005b82811061521357505050565b60209061521e614d31565b82828501015201615207565b1561523157565b60405162461bcd60e51b8152602060048201526013602482015272131bd85b88191bd95cc81b9bdd08195e1a5cdd606a1b6044820152606490fd5b908082146153465761527e8154614789565b906001600160401b038211612a49576152a18261529b8554614789565b85614b3f565b600090601f83116001146152dc57614be19291600091836152d15750508160011b916000199060031b1c19161790565b015490503880614bcc565b815260208082208483528183209291601f1985169083905b82821061532d57505090846001959493921061531457505050811b019055565b015460001960f88460031b161c19169055388080614c1a565b84958192958501548155600180910196019401906152f4565b5050565b1561535157565b60405162461bcd60e51b8152602060048201526017602482015276151a19481b1bd85b88191bd95cc81b9bdd08195e1a5cdd604a1b6044820152606490fd5b90613c505761539f8154614789565b90816153a9575050565b81601f600093116001146153bb575055565b9080839182526153da601f60208420940160051c840160018501614b28565b5555565b156153e557565b60405162461bcd60e51b81526020600482015260166024820152754f6e6c79204d61726b6574706c61636542726964676560501b6044820152606490fd5b6001600160a01b0390811690811561546c57600080516020615f3583398151915280546001600160a01b03198116841790915516600080516020615f75833981519152600080a3565b604051631e4fbdf760e01b815260006004820152602490fd5b908151811015614c81570160200190565b80156155375780816000925b6155235750806154b183613ea5565b926154bf6040519485613e82565b808452601f196154ce82613ea5565b01366020860137905b6154e057505090565b6000198101908111610fdd578091600a9160308383068101809111610fdd5760f81b6001600160f81b03191660001a9061551a9086615485565b530490816154d7565b9161552f600a916151cb565b9204806154a2565b5060405161554481613e67565b60018152600360fc1b602082015290565b908154600160401b811015612a495760018101808455811015614c81576040600291614b7a946000526003602060002091020192615594815185614b86565b6155a5602082015160018601614b86565b01519101614b86565b604051906155bb82613e67565b600582526466616c736560d81b6020830152565b604051906155dc82613e67565b60048252637472756560e01b6020830152565b9060a082015160a0820180518203615d48575b505060808201516080820180518203615ce8575b505060e082015160e0820180518203615c8f575b50506101008083015190820180518203615c36575b50506101e08083015190820180518203615bd4575b50506102c08083015190820180518203615b6e575b505061034091828101519283519360209485820120918401519182518684012003615b24575b505060608101518051848201209060608401519182518684012003615ad7575b50506103c080820151805185820120918401519182518684012003615a88575b505061038080820151805185820120918401519182518684012003615a3a575b5050610360808201518051858201209184015191825186840120036159eb575b50506101408082015180518582012091840151918251868401200361599d575b50506102e08082015180518086830120928501519283518785012014159081615993575b50615945575b50506103e0808201518051858201209184015191825186840120036158fd575b5050610400808201518051858201209184015191825186840120036158b4575b505061042080820151805185820120918401519182518684012003615865575b50506103208091015115159101928351151582036157d8575b50505050565b6158409360029215615857576157ec6155cf565b905b5115615849576157fc6155cf565b905b6040519461580b86613e4c565b60405161581781613e67565b600d81526c4973466f7265636c6f7375726560981b828201528652850152604084015201615555565b388080806157d2565b6158516155ae565b906157fe565b61585f6155ae565b906157ee565b6158ad916040519161587683613e4c565b60405161588281613e67565b600b81526a050726f70657274795a69760ac1b88820152835286830152604082015260028601615555565b38806157b9565b6158f691604051916158c583613e4c565b6040516158d181613e67565b6005815264537461746560d81b88820152835286830152604082015260028601615555565b3880615799565b61593e916040519161590e83613e4c565b60405161591a81613e67565b60048152634369747960e01b88820152835286830152604082015260028601615555565b3880615779565b61598c916040519161595683613e4c565b60405161596281613e67565b600a8152694c656e6465724e616d6560b01b88820152835286830152604082015260028601615555565b3880615759565b9050151538615753565b6159e491604051916159ae83613e4c565b6040516159ba81613e67565b600a81526921b7a137b93937bbb2b960b11b88820152835286830152604082015260028601615555565b388061572f565b615a3391604051916159fc83613e4c565b604051615a0881613e67565b600b81526a506169644f66664461746560a81b88820152835286830152604082015260028601615555565b388061570f565b615a819160405191615a4b83613e4c565b604051615a5781613e67565b600a81526950616964546f4461746560b01b88820152835286830152604082015260028601615555565b38806156ef565b615ad09160405191615a9983613e4c565b604051615aa581613e67565b600b81526a4e6578744475654461746560a81b88820152835286830152604082015260028601615555565b38806156cf565b615b1d9160405191615ae883613e4c565b604051615af481613e67565b600981526813195b99195c955a5960ba1b88820152835286830152604082015260028601615555565b38806156af565b615b679160405191615b3583613e4c565b604051615b4181613e67565b600681526553746174757360d01b88820152835286830152604082015260028601615555565b388061568f565b615b84615b7d615bcd93615496565b9151615496565b60405191615b9183613e4c565b604051615b9d81613e67565b600e81526d13195b99195c93dddb995c9418dd60921b602082015283526020830152604082015260028501615555565b3880615669565b615be3615b7d615c2f93615496565b60405191615bf083613e4c565b604051615bfc81613e67565b6011815270111959995c9c9959155b9c185a59125b9d607a1b602082015283526020830152604082015260028501615555565b3880615654565b615c45615b7d615c8893615496565b60405191615c5283613e4c565b604051615c5e81613e67565b6008815267536f6c645261746560c01b602082015283526020830152604082015260028501615555565b388061563f565b615c9e615b7d615ce193615496565b60405191615cab83613e4c565b604051615cb781613e67565b60088152674e6f74655261746560c01b602082015283526020830152604082015260028501615555565b388061562a565b615cf7615b7d615d4193615496565b60405191615d0483613e4c565b604051615d1081613e67565b600f81526e4f726967696e616c42616c616e636560881b602082015283526020830152604082015260028501615555565b3880615616565b615d57615b7d615da093615496565b60405191615d6483613e4c565b604051615d7081613e67565b600e81526d43757272656e7442616c616e636560901b602082015283526020830152604082015260028501615555565b3880615602565b9190613c5057614b7a9161526c565b604080516020818451615dcd818385809901613f58565b810160078152030190209160005b835480821015615e615761036b615e01615df58488614c97565b508651928380926147c3565b83815191012086518488012014615e1b5750600101615ddb565b92509293505060001991828201918211610fdd57610f8b615e3f615e479386614c97565b509185614c97565b81548015610fc7570190615e5e610fb78383614c97565b55565b505050505050565b600080516020615f35833981519152546001600160a01b03163303615e8a57565b60405163118cdaa760e01b8152336004820152602490fd5b60ff600080516020615fb58339815191525460401c1615615ebf57565b604051631afcd79f60e31b8152600490fd5b90615ef85750805115615ee657602081519101fd5b60405163d6bda27560e01b8152600490fd5b81511580615f2b575b615f09575090565b604051639996b31560e01b81526001600160a01b039091166004820152602490fd5b50803b15615f0156fe9016d09d72d40fdae2fd8ceac6b6234c7706214fd39c1cd1e609a0528c199300360894a13ba1a3210667c828492db98dca3e2076cc3735a920a3ca505d382bbc8be0079c531659141344cd1fd0a4f28419497f9722a3daafe3b4186f6b6457e0d438615c2b2269e4b0b8b81dc5b2176a47eb3bc844a50b4324243114e303a624f0c57e16840df040f15088dc2f81fe391c3923bec73e23a9662efc9c229c6a00a164736f6c6343000818000a",
  "linkReferences": {},
  "deployedLinkReferences": {}
}