{
  "_format": "hh-sol-artifact-1",
  "contractName": "LoanNFT",
  "sourceName": "src/avalanche/LoanNFT.sol",
  "abi": [
    {
      "inputs": [
        {
          "internalType": "address",
          "name": "initialOwner",
          "type": "address"
        }
      ],
      "stateMutability": "nonpayable",
      "type": "constructor"
    },
    {
      "inputs": [
        {
          "internalType": "address",
          "name": "sender",
          "type": "address"
        },
        {
          "internalType": "uint256",
          "name": "tokenId",
          "type": "uint256"
        },
        {
          "internalType": "address",
          "name": "owner",
          "type": "address"
        }
      ],
      "name": "ERC721IncorrectOwner",
      "type": "error"
    },
    {
      "inputs": [
        {
          "internalType": "address",
          "name": "operator",
          "type": "address"
        },
        {
          "internalType": "uint256",
          "name": "tokenId",
          "type": "uint256"
        }
      ],
      "name": "ERC721InsufficientApproval",
      "type": "error"
    },
    {
      "inputs": [
        {
          "internalType": "address",
          "name": "approver",
          "type": "address"
        }
      ],
      "name": "ERC721InvalidApprover",
      "type": "error"
    },
    {
      "inputs": [
        {
          "internalType": "address",
          "name": "operator",
          "type": "address"
        }
      ],
      "name": "ERC721InvalidOperator",
      "type": "error"
    },
    {
      "inputs": [
        {
          "internalType": "address",
          "name": "owner",
          "type": "address"
        }
      ],
      "name": "ERC721InvalidOwner",
      "type": "error"
    },
    {
      "inputs": [
        {
          "internalType": "address",
          "name": "receiver",
          "type": "address"
        }
      ],
      "name": "ERC721InvalidReceiver",
      "type": "error"
    },
    {
      "inputs": [
        {
          "internalType": "address",
          "name": "sender",
          "type": "address"
        }
      ],
      "name": "ERC721InvalidSender",
      "type": "error"
    },
    {
      "inputs": [
        {
          "internalType": "uint256",
          "name": "tokenId",
          "type": "uint256"
        }
      ],
      "name": "ERC721NonexistentToken",
      "type": "error"
    },
    {
      "inputs": [
        {
          "internalType": "address",
          "name": "owner",
          "type": "address"
        }
      ],
      "name": "OwnableInvalidOwner",
      "type": "error"
    },
    {
      "inputs": [
        {
          "internalType": "address",
          "name": "account",
          "type": "address"
        }
      ],
      "name": "OwnableUnauthorizedAccount",
      "type": "error"
    },
    {
      "anonymous": false,
      "inputs": [
        {
          "indexed": true,
          "internalType": "address",
          "name": "owner",
          "type": "address"
        },
        {
          "indexed": true,
          "internalType": "address",
          "name": "approved",
          "type": "address"
        },
        {
          "indexed": true,
          "internalType": "uint256",
          "name": "tokenId",
          "type": "uint256"
        }
      ],
      "name": "Approval",
      "type": "event"
    },
    {
      "anonymous": false,
      "inputs": [
        {
          "indexed": true,
          "internalType": "address",
          "name": "owner",
          "type": "address"
        },
        {
          "indexed": true,
          "internalType": "address",
          "name": "operator",
          "type": "address"
        },
        {
          "indexed": false,
          "internalType": "bool",
          "name": "approved",
          "type": "bool"
        }
      ],
      "name": "ApprovalForAll",
      "type": "event"
    },
    {
      "anonymous": false,
      "inputs": [
        {
          "indexed": true,
          "internalType": "uint256",
          "name": "tokenId",
          "type": "uint256"
        },
        {
          "indexed": false,
          "internalType": "string",
          "name": "loanId",
          "type": "string"
        },
        {
          "indexed": true,
          "internalType": "address",
          "name": "owner",
          "type": "address"
        },
        {
          "indexed": false,
          "internalType": "uint256",
          "name": "timestamp",
          "type": "uint256"
        }
      ],
      "name": "LoanNFTBurned",
      "type": "event"
    },
    {
      "anonymous": false,
      "inputs": [
        {
          "indexed": true,
          "internalType": "uint256",
          "name": "tokenId",
          "type": "uint256"
        },
        {
          "indexed": false,
          "internalType": "string",
          "name": "loanId",
          "type": "string"
        },
        {
          "indexed": true,
          "internalType": "address",
          "name": "lender",
          "type": "address"
        },
        {
          "indexed": false,
          "internalType": "uint256",
          "name": "originalBalance",
          "type": "uint256"
        },
        {
          "indexed": false,
          "internalType": "uint256",
          "name": "currentBalance",
          "type": "uint256"
        },
        {
          "indexed": false,
          "internalType": "uint256",
          "name": "timestamp",
          "type": "uint256"
        }
      ],
      "name": "LoanNFTMinted",
      "type": "event"
    },
    {
      "anonymous": false,
      "inputs": [
        {
          "indexed": true,
          "internalType": "uint256",
          "name": "tokenId",
          "type": "uint256"
        },
        {
          "indexed": false,
          "internalType": "string",
          "name": "loanId",
          "type": "string"
        },
        {
          "indexed": false,
          "internalType": "uint256",
          "name": "newBalance",
          "type": "uint256"
        },
        {
          "indexed": false,
          "internalType": "string",
          "name": "newStatus",
          "type": "string"
        },
        {
          "indexed": false,
          "internalType": "uint256",
          "name": "timestamp",
          "type": "uint256"
        }
      ],
      "name": "MetadataUpdated",
      "type": "event"
    },
    {
      "anonymous": false,
      "inputs": [
        {
          "indexed": true,
          "internalType": "address",
          "name": "previousOwner",
          "type": "address"
        },
        {
          "indexed": true,
          "internalType": "address",
          "name": "newOwner",
          "type": "address"
        }
      ],
      "name": "OwnershipTransferred",
      "type": "event"
    },
    {
      "anonymous": false,
      "inputs": [
        {
          "indexed": true,
          "internalType": "address",
          "name": "from",
          "type": "address"
        },
        {
          "indexed": true,
          "internalType": "address",
          "name": "to",
          "type": "address"
        },
        {
          "indexed": true,
          "internalType": "uint256",
          "name": "tokenId",
          "type": "uint256"
        }
      ],
      "name": "Transfer",
      "type": "event"
    },
    {
      "inputs": [
        {
          "internalType": "address",
          "name": "to",
          "type": "address"
        },
        {
          "internalType": "uint256",
          "name": "tokenId",
          "type": "uint256"
        }
      ],
      "name": "approve",
      "outputs": [],
      "stateMutability": "nonpayable",
      "type": "function"
    },
    {
      "inputs": [
        {
          "internalType": "address",
          "name": "owner",
          "type": "address"
        }
      ],
      "name": "balanceOf",
      "outputs": [
        {
          "internalType": "uint256",
          "name": "",
          "type": "uint256"
        }
      ],
      "stateMutability": "view",
      "type": "function"
    },
    {
      "inputs": [],
      "name": "bridgeReceiver",
      "outputs": [
        {
          "internalType": "address",
          "name": "",
          "type": "address"
        }
      ],
      "stateMutability": "view",
      "type": "function"
    },
    {
      "inputs": [
        {
          "internalType": "uint256",
          "name": "tokenId",
          "type": "uint256"
        }
      ],
      "name": "burn",
      "outputs": [],
      "stateMutability": "nonpayable",
      "type": "function"
    },
    {
      "inputs": [
        {
          "internalType": "string",
          "name": "loanId",
          "type": "string"
        }
      ],
      "name": "burnByLoanId",
      "outputs": [],
      "stateMutability": "nonpayable",
      "type": "function"
    },
    {
      "inputs": [
        {
          "internalType": "string",
          "name": "loanId",
          "type": "string"
        }
      ],
      "name": "canMint",
      "outputs": [
        {
          "internalType": "bool",
          "name": "",
          "type": "bool"
        }
      ],
      "stateMutability": "view",
      "type": "function"
    },
    {
      "inputs": [
        {
          "internalType": "uint256",
          "name": "tokenId",
          "type": "uint256"
        }
      ],
      "name": "exists",
      "outputs": [
        {
          "internalType": "bool",
          "name": "",
          "type": "bool"
        }
      ],
      "stateMutability": "view",
      "type": "function"
    },
    {
      "inputs": [
        {
          "internalType": "uint256",
          "name": "tokenId",
          "type": "uint256"
        }
      ],
      "name": "getApproved",
      "outputs": [
        {
          "internalType": "address",
          "name": "",
          "type": "address"
        }
      ],
      "stateMutability": "view",
      "type": "function"
    },
    {
      "inputs": [
        {
          "internalType": "string",
          "name": "loanId",
          "type": "string"
        }
      ],
      "name": "getCurrentBalance",
      "outputs": [
        {
          "internalType": "uint256",
          "name": "",
          "type": "uint256"
        }
      ],
      "stateMutability": "view",
      "type": "function"
    },
    {
      "inputs": [
        {
          "internalType": "uint256",
          "name": "tokenId",
          "type": "uint256"
        }
      ],
      "name": "getLoanMetadata",
      "outputs": [
        {
          "components": [
            {
              "internalType": "string",
              "name": "loanId",
              "type": "string"
            },
            {
              "internalType": "uint256",
              "name": "originalBalance",
              "type": "uint256"
            },
            {
              "internalType": "uint256",
              "name": "currentBalance",
              "type": "uint256"
            },
            {
              "internalType": "uint256",
              "name": "noteRate",
              "type": "uint256"
            },
            {
              "internalType": "uint256",
              "name": "lenderOwnerPct",
              "type": "uint256"
            },
            {
              "internalType": "string",
              "name": "status",
              "type": "string"
            },
            {
              "internalType": "string",
              "name": "location",
              "type": "string"
            },
            {
              "internalType": "uint256",
              "name": "mintedAt",
              "type": "uint256"
            },
            {
              "internalType": "uint256",
              "name": "lastUpdated",
              "type": "uint256"
            }
          ],
          "internalType": "struct LoanNFT.LoanMetadata",
          "name": "",
          "type": "tuple"
        }
      ],
      "stateMutability": "view",
      "type": "function"
    },
    {
      "inputs": [
        {
          "internalType": "string",
          "name": "loanId",
          "type": "string"
        }
      ],
      "name": "getMintCount",
      "outputs": [
        {
          "internalType": "uint256",
          "name": "",
          "type": "uint256"
        }
      ],
      "stateMutability": "view",
      "type": "function"
    },
    {
      "inputs": [
        {
          "internalType": "string",
          "name": "loanId",
          "type": "string"
        }
      ],
      "name": "getOriginalBalance",
      "outputs": [
        {
          "internalType": "uint256",
          "name": "",
          "type": "uint256"
        }
      ],
      "stateMutability": "view",
      "type": "function"
    },
    {
      "inputs": [],
      "name": "getTotalMinted",
      "outputs": [
        {
          "internalType": "uint256",
          "name": "",
          "type": "uint256"
        }
      ],
      "stateMutability": "view",
      "type": "function"
    },
    {
      "inputs": [
        {
          "internalType": "address",
          "name": "owner",
          "type": "address"
        },
        {
          "internalType": "address",
          "name": "operator",
          "type": "address"
        }
      ],
      "name": "isApprovedForAll",
      "outputs": [
        {
          "internalType": "bool",
          "name": "",
          "type": "bool"
        }
      ],
      "stateMutability": "view",
      "type": "function"
    },
    {
      "inputs": [
        {
          "internalType": "string",
          "name": "",
          "type": "string"
        }
      ],
      "name": "isCurrentlyMinted",
      "outputs": [
        {
          "internalType": "bool",
          "name": "",
          "type": "bool"
        }
      ],
      "stateMutability": "view",
      "type": "function"
    },
    {
      "inputs": [
        {
          "internalType": "string",
          "name": "loanId",
          "type": "string"
        }
      ],
      "name": "isLoanMinted",
      "outputs": [
        {
          "internalType": "bool",
          "name": "",
          "type": "bool"
        }
      ],
      "stateMutability": "view",
      "type": "function"
    },
    {
      "inputs": [
        {
          "internalType": "string",
          "name": "",
          "type": "string"
        }
      ],
      "name": "loanIdToTokenId",
      "outputs": [
        {
          "internalType": "uint256",
          "name": "",
          "type": "uint256"
        }
      ],
      "stateMutability": "view",
      "type": "function"
    },
    {
      "inputs": [
        {
          "internalType": "uint256",
          "name": "",
          "type": "uint256"
        }
      ],
      "name": "loanMetadata",
      "outputs": [
        {
          "internalType": "string",
          "name": "loanId",
          "type": "string"
        },
        {
          "internalType": "uint256",
          "name": "originalBalance",
          "type": "uint256"
        },
        {
          "internalType": "uint256",
          "name": "currentBalance",
          "type": "uint256"
        },
        {
          "internalType": "uint256",
          "name": "noteRate",
          "type": "uint256"
        },
        {
          "internalType": "uint256",
          "name": "lenderOwnerPct",
          "type": "uint256"
        },
        {
          "internalType": "string",
          "name": "status",
          "type": "string"
        },
        {
          "internalType": "string",
          "name": "location",
          "type": "string"
        },
        {
          "internalType": "uint256",
          "name": "mintedAt",
          "type": "uint256"
        },
        {
          "internalType": "uint256",
          "name": "lastUpdated",
          "type": "uint256"
        }
      ],
      "stateMutability": "view",
      "type": "function"
    },
    {
      "inputs": [
        {
          "internalType": "string",
          "name": "loanId",
          "type": "string"
        },
        {
          "internalType": "address",
          "name": "lenderAddress",
          "type": "address"
        },
        {
          "internalType": "uint256",
          "name": "originalBalance",
          "type": "uint256"
        },
        {
          "internalType": "uint256",
          "name": "currentBalance",
          "type": "uint256"
        },
        {
          "internalType": "uint256",
          "name": "noteRate",
          "type": "uint256"
        },
        {
          "internalType": "uint256",
          "name": "lenderOwnerPct",
          "type": "uint256"
        },
        {
          "internalType": "string",
          "name": "status",
          "type": "string"
        },
        {
          "internalType": "string",
          "name": "location",
          "type": "string"
        }
      ],
      "name": "mint",
      "outputs": [
        {
          "internalType": "uint256",
          "name": "",
          "type": "uint256"
        }
      ],
      "stateMutability": "nonpayable",
      "type": "function"
    },
    {
      "inputs": [],
      "name": "name",
      "outputs": [
        {
          "internalType": "string",
          "name": "",
          "type": "string"
        }
      ],
      "stateMutability": "view",
      "type": "function"
    },
    {
      "inputs": [],
      "name": "owner",
      "outputs": [
        {
          "internalType": "address",
          "name": "",
          "type": "address"
        }
      ],
      "stateMutability": "view",
      "type": "function"
    },
    {
      "inputs": [
        {
          "internalType": "uint256",
          "name": "tokenId",
          "type": "uint256"
        }
      ],
      "name": "ownerOf",
      "outputs": [
        {
          "internalType": "address",
          "name": "",
          "type": "address"
        }
      ],
      "stateMutability": "view",
      "type": "function"
    },
    {
      "inputs": [],
      "name": "renounceOwnership",
      "outputs": [],
      "stateMutability": "nonpayable",
      "type": "function"
    },
    {
      "inputs": [
        {
          "internalType": "address",
          "name": "from",
          "type": "address"
        },
        {
          "internalType": "address",
          "name": "to",
          "type": "address"
        },
        {
          "internalType": "uint256",
          "name": "tokenId",
          "type": "uint256"
        }
      ],
      "name": "safeTransferFrom",
      "outputs": [],
      "stateMutability": "nonpayable",
      "type": "function"
    },
    {
      "inputs": [
        {
          "internalType": "address",
          "name": "from",
          "type": "address"
        },
        {
          "internalType": "address",
          "name": "to",
          "type": "address"
        },
        {
          "internalType": "uint256",
          "name": "tokenId",
          "type": "uint256"
        },
        {
          "internalType": "bytes",
          "name": "data",
          "type": "bytes"
        }
      ],
      "name": "safeTransferFrom",
      "outputs": [],
      "stateMutability": "nonpayable",
      "type": "function"
    },
    {
      "inputs": [
        {
          "internalType": "address",
          "name": "operator",
          "type": "address"
        },
        {
          "internalType": "bool",
          "name": "approved",
          "type": "bool"
        }
      ],
      "name": "setApprovalForAll",
      "outputs": [],
      "stateMutability": "nonpayable",
      "type": "function"
    },
    {
      "inputs": [
        {
          "internalType": "string",
          "name": "baseURI",
          "type": "string"
        }
      ],
      "name": "setBaseURI",
      "outputs": [],
      "stateMutability": "nonpayable",
      "type": "function"
    },
    {
      "inputs": [
        {
          "internalType": "address",
          "name": "_bridge",
          "type": "address"
        }
      ],
      "name": "setBridgeReceiver",
      "outputs": [],
      "stateMutability": "nonpayable",
      "type": "function"
    },
    {
      "inputs": [
        {
          "internalType": "bytes4",
          "name": "interfaceId",
          "type": "bytes4"
        }
      ],
      "name": "supportsInterface",
      "outputs": [
        {
          "internalType": "bool",
          "name": "",
          "type": "bool"
        }
      ],
      "stateMutability": "view",
      "type": "function"
    },
    {
      "inputs": [],
      "name": "symbol",
      "outputs": [
        {
          "internalType": "string",
          "name": "",
          "type": "string"
        }
      ],
      "stateMutability": "view",
      "type": "function"
    },
    {
      "inputs": [
        {
          "internalType": "uint256",
          "name": "",
          "type": "uint256"
        }
      ],
      "name": "tokenIdToLoanId",
      "outputs": [
        {
          "internalType": "string",
          "name": "",
          "type": "string"
        }
      ],
      "stateMutability": "view",
      "type": "function"
    },
    {
      "inputs": [
        {
          "internalType": "uint256",
          "name": "tokenId",
          "type": "uint256"
        }
      ],
      "name": "tokenURI",
      "outputs": [
        {
          "internalType": "string",
          "name": "",
          "type": "string"
        }
      ],
      "stateMutability": "view",
      "type": "function"
    },
    {
      "inputs": [
        {
          "internalType": "string",
          "name": "",
          "type": "string"
        }
      ],
      "name": "totalMintsPerLoan",
      "outputs": [
        {
          "internalType": "uint256",
          "name": "",
          "type": "uint256"
        }
      ],
      "stateMutability": "view",
      "type": "function"
    },
    {
      "inputs": [
        {
          "internalType": "address",
          "name": "from",
          "type": "address"
        },
        {
          "internalType": "address",
          "name": "to",
          "type": "address"
        },
        {
          "internalType": "uint256",
          "name": "tokenId",
          "type": "uint256"
        }
      ],
      "name": "transferFrom",
      "outputs": [],
      "stateMutability": "nonpayable",
      "type": "function"
    },
    {
      "inputs": [
        {
          "internalType": "address",
          "name": "newOwner",
          "type": "address"
        }
      ],
      "name": "transferOwnership",
      "outputs": [],
      "stateMutability": "nonpayable",
      "type": "function"
    },
    {
      "inputs": [
        {
          "internalType": "uint256",
          "name": "tokenId",
          "type": "uint256"
        },
        {
          "internalType": "uint256",
          "name": "newCurrentBalance",
          "type": "uint256"
        },
        {
          "internalType": "uint256",
          "name": "newNoteRate",
          "type": "uint256"
        },
        {
          "internalType": "uint256",
          "name": "newLenderOwnerPct",
          "type": "uint256"
        },
        {
          "internalType": "string",
          "name": "newStatus",
          "type": "string"
        },
        {
          "internalType": "string",
          "name": "newLocation",
          "type": "string"
        }
      ],
      "name": "updateFullMetadata",
      "outputs": [],
      "stateMutability": "nonpayable",
      "type": "function"
    },
    {
      "inputs": [
        {
          "internalType": "uint256",
          "name": "tokenId",
          "type": "uint256"
        },
        {
          "internalType": "uint256",
          "name": "newBalance",
          "type": "uint256"
        },
        {
          "internalType": "string",
          "name": "newStatus",
          "type": "string"
        }
      ],
      "name": "updateMetadata",
      "outputs": [],
      "stateMutability": "nonpayable",
      "type": "function"
    }
  ],
  "bytecode": "0x608034620003b757601f906001600160401b0390601f199062002efd388190038581018416830185811184821017620003a157839282916040528339602092839181010312620003b757516001600160a01b03948582169491859003620003b7576200006a620003bc565b9260088452672321a4902637b0b760c11b8185015262000089620003bc565b9060078252662321a4a627a0a760c91b81830152845195848711620003a1576000968754966001978881811c9116801562000396575b8582101462000382579081878493116200032f575b508490878311600114620002ce578a92620002c2575b5050600019600383901b1c191690871b1787555b8251948511620002ae5785548681811c91168015620002a3575b838210146200028f5790818587969594931162000236575b5081938511600114620001d15750508592620001c5575b5050600019600383901b1c191690821b1790555b8115620001ad57600680546001600160a01b0319811684179091556040519316907f8be0079c531659141344cd1fd0a4f28419497f9722a3daafe3b4186f6b6457e09080a3612b209081620003dd8239f35b60249060405190631e4fbdf760e01b82526004820152fd5b01519050388062000147565b869593929193168588528388209388905b8282106200021c575050841162000202575b505050811b0190556200015b565b015160001960f88460031b161c19169055388080620001f4565b8484015186558897909501949384019390810190620001e2565b9091929394508688528288208580880160051c82019285891062000285575b9188978a9297969594930160051c01915b8281106200027657505062000130565b8a815588975089910162000266565b9250819262000255565b634e487b7160e01b88526022600452602488fd5b90607f169062000118565b634e487b7160e01b87526041600452602487fd5b015190503880620000ea565b90848a9416918b8052868c20928c5b88828210620003185750508411620002fe575b505050811b018755620000fe565b015160001960f88460031b161c19169055388080620002f0565b8385015186558d97909501949384019301620002dd565b909150898052848a208780850160051c82019287861062000378575b918b91869594930160051c01915b82811062000369575050620000d4565b8c81558594508b910162000359565b925081926200034b565b634e487b7160e01b8a52602260045260248afd5b90607f1690620000bf565b634e487b7160e01b600052604160045260246000fd5b600080fd5b60408051919082016001600160401b03811183821017620003a15760405256fe608080604052600436101561001357600080fd5b60003560e01c90816301ffc9a7146120965750806306fdde0314612006578063081812fc14611fc8578063095ea7b314611ee15780630a20897214611eb85780630ca1c5c914611e9a5780632266f5bb14611d6457806323b872dd14611e8357806342842e0e14611e5557806342966c6814611db25780634b6e9bf314611d645780634f558e7914611d2e57806355f804b314611c0f578063604ed12b14611a4c5780636352211e14611a1c57806365b38df41461161057806370a08231146119c3578063715018a61461197857806377703f0d146119125780638da5cb5b146118e957806394b9df021461189c57806394cf1fb11461170b57806395d89b41146116595780639802b8f014611610578063a22cb4651461156b578063b88d4fde146114fd578063c271224814611497578063c57cca4f14611446578063c87b56dd14611227578063cf5d00a8146111cb578063d044e81f14611147578063e6bf24aa1461105d578063e7754d1114610729578063e985e9c5146106d3578063ee89f3e314610408578063f2fde38b146103925763ff09a1a4146101b657600080fd5b3461038d57606036600319011261038d576001600160401b0360043560243560443583811161038d576101ed903690600401612221565b9060018060a01b0393610205856008541633146123b1565b8360005261022160209560028752604060002054161515612407565b83600052600d855260056040600020836002820155019083519081116103775761024b8254612274565b601f811161033c575b5085601f82116001146102c5579161028982600080516020612a94833981519152979893600a956000916102ba575b50612461565b90555b85600052600d815242600860406000200155526102b56040600020604051938493429285612568565b0390a2005b905087015138610283565b601f1982169083600052876000209160005b818110610325575092600a949260019282600080516020612a948339815191529a9b961061030c575b5050811b01905561028c565b88015160001960f88460031b161c191690553880610300565b91928960018192868b0151815501940192016102d7565b610367908360005287600020601f840160051c81019189851061036d575b601f0160051c019061244a565b38610254565b909150819061035a565b634e487b7160e01b600052604160045260246000fd5b600080fd5b3461038d57602036600319011261038d576103ab612149565b6103b3612685565b6001600160a01b039081169081156103ef57600680546001600160a01b03198116841790915516600080516020612ad4833981519152600080a3005b604051631e4fbdf760e01b815260006004820152602490fd5b3461038d5760c036600319011261038d576001600160401b0360043560243560843583811161038d5761043f903690600401612221565b9060a43584811161038d57610458903690600401612221565b6008546001600160a01b0395919061047390871633146123b1565b8460005261048f60209660028852604060002054161515612407565b84600052600d86526040600020918360028401556044356003840155606435600484015560058301855190828211610377576104cb8154612274565b91601f928a8482116106a4575b50508983821160011461063f5790806104f8926000916106345750612461565b90555b60068401928051928311610377576105138454612274565b8281116105fc575b50889183116001146105815782600a9593600080516020612a94833981519152999a959361055293600092610576575b5050612461565b90555b60084291015585600052526102b56040600020604051938493429285612568565b015190508b8061054b565b90601f1983169184600052896000209260005b8181106105e55750926001928592600a9896600080516020612a948339815191529c9d9896106105cc575b505050811b019055610555565b015160001960f88460031b161c191690558a80806105bf565b92938b600181928786015181550195019301610594565b61062590856000528a6000208480870160051c8201928d881061062b575b0160051c019061244a565b8961051b565b9250819261061a565b90508901518c610283565b601f19821690836000528b6000209160005b8d8c83831061068f575050509083600194939210610676575b5050811b0190556104fb565b8a015160001960f88460031b161c191690558b8061066a565b84015185556001909401939283019201610651565b6106cc918460005285826000209181860160051c830193861061062b570160051c019061244a565b8a8a6104d8565b3461038d57604036600319011261038d576106ec612149565b6106f461215f565b9060018060a01b03809116600052600560205260406000209116600052602052602060ff604060002054166040519015158152f35b3461038d5761010036600319011261038d576004356001600160401b03811161038d5761075a903690600401612221565b61076261215f565b9060c4356001600160401b03811161038d57610782903690600401612221565b9160e4356001600160401b03811161038d576107a2903690600401612221565b916107b860018060a01b036008541633146123b1565b60ff60405160208184516107cf8183858901612101565b8101600b81520301902054166110185760405160208183516107f48183858801612101565b8101600981520301902054610fd3576001600160a01b03821615610f955760643515610f5a57805115610f205761082c600754612543565b928360075560405161083d81612191565b600081526001600160a01b0361085386866125d7565b16610f0757833b610dc9575b508360405160208185516108768183858a01612101565b600990820190815203019020556000848152600a6020526040902082516001600160401b038111610377576108ab8254612274565b601f8111610d97575b506020601f8211600114610d315790806108d592600091610d265750612461565b90555b60405160208184516108ed8183858901612101565b8101600b815203019020600160ff1982541617905560405160208184516109178183858901612101565b8101600c81520301902061092b8154612543565b90556040519461093a86612175565b82865260443560208701526064356040870152608435606087015260a435608087015260a086015260c08501524260e08501524261010085015282600052600d602052604060002090845180519060018060401b0382116103775761099f8454612274565b601f8111610cf4575b50602090601f8311600114610c88576109cb929160009183610bda575050612461565b82555b6020850151600183015560408501516002830155606085015160038301556080850151600483015560a08501518051906001600160401b03821161037757610a196005850154612274565b601f8111610c53575b50602090601f8311600114610be557610a45929160009183610bda575050612461565b60058301555b60c08501518051959092906001600160401b038711610377576020968694610a766006850154612274565b601f8111610ba7575b508890601f8311600114610b1c57600080516020612a748339815191529593610abc84610ae5979560089561010095600092610b11575050612461565b60068501555b60e081015160078501550151910155604051918291608083526080830190612124565b6044358289015260643560408301524260608301526001600160a01b03909516940390a3604051908152f35b015190508e8061054b565b9060068501600052896000209160005b601f1985168110610b8d57509360018460089461010094600080516020612a748339815191529a98610ae59a98601f19811610610b74575b505050811b016006850155610ac2565b015160001960f88460031b161c191690558d8080610b64565b8183015184558a9850600190930192918b01918b01610b2c565b610bd490600686016000528a600020601f850160051c8101918c861061036d57601f0160051c019061244a565b89610a7f565b01519050888061054b565b90601f198316916005860160005260206000209260005b818110610c3b5750908460019594939210610c22575b505050811b016005830155610a4b565b015160001960f88460031b161c19169055878080610c12565b92936020600181928786015181550195019301610bfc565b610c8290600586016000526020600020601f850160051c8101916020861061036d57601f0160051c019061244a565b87610a22565b9190846000526020600020906000935b601f1984168510610cd9576001945083601f19811610610cc0575b505050811b0182556109ce565b015160001960f88460031b161c19169055878080610cb3565b81810151835560209485019460019093019290910190610c98565b610d2090856000526020600020601f850160051c8101916020861061036d57601f0160051c019061244a565b876109a8565b905085015189610283565b908260005260206000206000925b601f1983168410610d7f576001935082601f19811610610d66575b5050811b0190556108d8565b86015160001960f88460031b161c191690558880610d5a565b86810151825560209384019360019092019101610d3f565b610dc390836000526020600020601f840160051c8101916020851061036d57601f0160051c019061244a565b876108b4565b6040959493955160208180610e07630a85bd0160e11b9586835233600484015260006024840152896044840152608060648401526084830190612124565b038160006001600160a01b038c165af160009181610ec2575b50610e8857863d15610e80573d90610e37826121cf565b91610e4560405193846121ac565b82523d6000602084013e5b81519182610e7957604051633250574960e11b81526001600160a01b0383166004820152602490fd5b6020915001fd5b606090610e50565b949593946001600160e01b03191603610ea1578561085f565b604051633250574960e11b81526001600160a01b0384166004820152602490fd5b9091506020813d602011610eff575b81610ede602093836121ac565b8101031261038d57516001600160e01b03198116810361038d579088610e20565b3d9150610ed1565b6040516339e3563760e11b815260006004820152602490fd5b60405162461bcd60e51b8152602060048201526012602482015271131bd85b9259081a5cc81c995c5d5a5c995960721b6044820152606490fd5b60405162461bcd60e51b8152602060048201526013602482015272042616c616e6365206d757374206265203e203606c1b6044820152606490fd5b60405162461bcd60e51b8152602060048201526016602482015275496e76616c6964206c656e646572206164647265737360501b6044820152606490fd5b60405162461bcd60e51b815260206004820152601d60248201527f4c6f616e20616c7265616479206861732061637469766520746f6b656e0000006044820152606490fd5b60405162461bcd60e51b815260206004820152601d60248201527f4c6f616e2063757272656e746c792068617320616374697665204e46540000006044820152606490fd5b3461038d57602036600319011261038d57600435600052600d60205261110760406000206040519061109a8261109381846122ae565b03836121ac565b60018101546111376002830154916111296003850154916004860154604051906110cb826110938160058c016122ae565b604051946110e7866110e08160068d016122ae565b03876121ac565b600860078a0154990154976040519b8c9b8c6101208091528d0190612124565b9460208c015260408b015260608a0152608089015287820360a0890152612124565b9085820360c0870152612124565b9160e08401526101008301520390f35b3461038d57602036600319011261038d57611160612149565b611168612685565b6001600160a01b0316801561118d57600880546001600160a01b031916919091179055005b60405162461bcd60e51b8152602060048201526016602482015275496e76616c696420627269646765206164647265737360501b6044820152606490fd5b3461038d57602036600319011261038d576004356001600160401b03811161038d57611214602061120181933690600401612221565b8160405193828580945193849201612101565b8101600981520301902054604051908152f35b3461038d5760208060031936011261038d5760043590816000526002815261125d60018060a01b03604060002054161515612407565b600e5461126981612274565b156113ee576040519081600061127e83612274565b92838352600190866001821691826000146113ce57505060011461138e575b506112aa925003826121ac565b915b600052600a81526040600020604051836112cf8295518092868086019101612101565b810160009083546112df81612274565b946001918760018216918260001461136d575050600114611329575b505050611311925003601f1981018452836121ac565b611325604051928284938452830190612124565b0390f35b8693506000959291955282600020946000955b838710611354575050611311945001018580806112fb565b805483880186015293909501948794508693810161133c565b925094505061131195915060ff1916838301528015150201018580806112fb565b859150600e60005281600020906000915b8583106113b65750506112aa93508201018661129d565b8054838801850152869450879390920191810161139f565b60ff1916858201526112aa95151560051b850101925088915061129d9050565b50604051606081016001600160401b0381118282101761037757604052602381527f68747470733a2f2f6170692e6663692d6c6f616e732e636f6d2f6d6574616461828201526274612f60e81b6040820152916112ac565b3461038d57602036600319011261038d57600435600052600a60205261132561147c6114836040600020604051928380926122ae565b03826121ac565b604051918291602083526020830190612124565b3461038d57602036600319011261038d576004356001600160401b03811161038d5760206112016114cc923690600401612221565b81016009815203019020546114e2811515612505565b600052600d6020526020600260406000200154604051908152f35b3461038d57608036600319011261038d57611516612149565b61151e61215f565b6064359190604435906001600160401b03841161038d573660238501121561038d576115576115699436906024816004013591016121ea565b92611563838383612344565b336126b1565b005b3461038d57604036600319011261038d57611584612149565b6024359081151580920361038d576001600160a01b03169081156115f757336000526005602052604060002082600052602052604060002060ff1981541660ff83161790556040519081527f17307eab39ab6107e8899845ad3d59bd9653f200f220920489ca2b5937696c3160203392a3005b604051630b61174360e31b815260048101839052602490fd5b3461038d57602036600319011261038d576004356001600160401b03811161038d57611646602061120181933690600401612221565b8101600c81520301902054604051908152f35b3461038d57600036600319011261038d5760405160006001826001549261167f84612274565b92838352602094856001821691826000146116eb5750506001146116ab575b50611311925003836121ac565b849150600160005281600020906000915b8583106116d357505061131193508201018561169e565b805483890185015287945086939092019181016116bc565b60ff19168582015261131195151560051b850101925087915061169e9050565b3461038d5760208060031936011261038d576004356001600160401b03811161038d5761173c903690600401612221565b6008546001600160a01b03919061175690831633146123b1565b6040519281519381818185019661176e81838a612101565b810160098152030190205492831561185757918161181d61184c93600080516020612ab48339815191529587600052600282526117b381604060002054161515612407565b876000526002825260406000205416976000604051838188516117d7818388612101565b810160098152030190205587600052600a82526117f76040600020612474565b87600052600d825261180c60406000206124bd565b604051809381928751928391612101565b8101600b81520301902060ff1981541690556118388561266b565b604051928392604084526040840190612124565b9042908301520390a3005b60405162461bcd60e51b815260048101839052601d60248201527f4e6f2061637469766520746f6b656e20666f722074686973206c6f616e0000006044820152606490fd5b3461038d57602036600319011261038d576004356001600160401b03811161038d5760ff6118d4602061120181943690600401612221565b8101600b815203019020541615604051908152f35b3461038d57600036600319011261038d576006546040516001600160a01b039091168152602090f35b3461038d57602036600319011261038d576004356001600160401b03811161038d576020611201611947923690600401612221565b810160098152030190205461195d811515612505565b600052600d6020526020600160406000200154604051908152f35b3461038d57600036600319011261038d57611991612685565b600680546001600160a01b031981169091556000906001600160a01b0316600080516020612ad48339815191528280a3005b3461038d57602036600319011261038d576001600160a01b036119e4612149565b168015611a035760005260036020526020604060002054604051908152f35b6040516322718ad960e21b815260006004820152602490fd5b3461038d57602036600319011261038d576020611a3a60043561259c565b6040516001600160a01b039091168152f35b3461038d5760208060031936011261038d5760043560405191611a6e83612175565b6060918284528184016000905260408401600090528284016000905260808401600090528260a08501528260c085015260e0840160009052610100809401600090528060005260028252600160a01b60019003604060002054161515611ad390612407565b600052600d815260406000209060405192611aed84612175565b60405180611afb81866122ae565b03611b0690826121ac565b845260018301549482850195865260028401549560408601968752600385015483870190815260048601546080880190815260405190818060058a0190611b4c916122ae565b03611b5790836121ac565b60a089019182526040519283611b708160068c016122ae565b03611b7b90856121ac565b60c08a0193845260078901549860e08b01998a526008015496868b019788526040519b8c9b8a8d52518c6101209b8c9101526101408d01611bbb91612124565b965160408d015251908b01525160808a01525160a089015251601f1992838982030160c08a0152611beb91612124565b9051918782030160e0880152611c0091612124565b93519085015251908301520390f35b3461038d5760208060031936011261038d576001600160401b0360043581811161038d57611c41903690600401612221565b91611c4a612685565b825191821161037757611c5e600e54612274565b601f8111611cfd575b5080601f8311600114611c9957508190611c8993600092611c8e575050612461565b600e55005b01519050838061054b565b90601f19831693600e60005282600020926000905b868210611ce55750508360019510611ccc575b505050811b01600e55005b015160001960f88460031b161c19169055828080611cc1565b80600185968294968601518155019501930190611cae565b611d2890600e60005282600020601f850160051c81019184861061036d57601f0160051c019061244a565b83611c67565b3461038d57602036600319011261038d576004356000526002602052602060018060a01b03604060002054161515604051908152f35b3461038d57602036600319011261038d576004356001600160401b03811161038d5760ff611d9c602061120181943690600401612221565b8101600b81520301902054166040519015158152f35b3461038d5760208060031936011261038d57600435600080516020612ab483398151915261184c61109360018060a01b03611df2816008541633146123b1565b8460005260028652611e0c81604060002054161515612407565b84600052600a8652611e286040600020604051938480926122ae565b8460005260028652604060002054169461181d8160405160008551918381818901946117d7818388612101565b3461038d57611569611e663661223f565b9060405192611e7484612191565b60008452611563838383612344565b3461038d57611569611e943661223f565b91612344565b3461038d57600036600319011261038d576020600754604051908152f35b3461038d57600036600319011261038d576008546040516001600160a01b039091168152602090f35b3461038d57604036600319011261038d57611efa612149565b602435611f068161259c565b33151580611fb5575b80611f88575b611f70576001600160a01b039283169282918491167f8c5be1e5ebec7d5bd14f71427d1e84f3dd0314c0f7b2291e5b200ac8c7c3b925600080a4600090815260046020526040902080546001600160a01b0319169091179055005b60405163a9fbf51f60e01b8152336004820152602490fd5b5060018060a01b038116600052600560205260406000203360005260205260ff6040600020541615611f15565b506001600160a01b038116331415611f0f565b3461038d57602036600319011261038d57600435611fe58161259c565b506000526004602052602060018060a01b0360406000205416604051908152f35b3461038d57600036600319011261038d5760405160008054908261202983612274565b91828252602093600190856001821691826000146116eb5750506001146120575750611311925003836121ac565b8491506000805281600020906000915b85831061207e57505061131193508201018561169e565b80548389018501528794508693909201918101612067565b3461038d57602036600319011261038d576004359063ffffffff60e01b821680920361038d576020916380ac58cd60e01b81149081156120f0575b81156120df575b5015158152f35b6301ffc9a760e01b149050836120d8565b635b5e139f60e01b811491506120d1565b60005b8381106121145750506000910152565b8181015183820152602001612104565b9060209161213d81518092818552858086019101612101565b601f01601f1916010190565b600435906001600160a01b038216820361038d57565b602435906001600160a01b038216820361038d57565b61012081019081106001600160401b0382111761037757604052565b602081019081106001600160401b0382111761037757604052565b601f909101601f19168101906001600160401b0382119082101761037757604052565b6001600160401b03811161037757601f01601f191660200190565b9291926121f6826121cf565b9161220460405193846121ac565b82948184528183011161038d578281602093846000960137010152565b9080601f8301121561038d5781602061223c933591016121ea565b90565b606090600319011261038d576001600160a01b0390600435828116810361038d5791602435908116810361038d579060443590565b90600182811c921680156122a4575b602083101461228e57565b634e487b7160e01b600052602260045260246000fd5b91607f1691612283565b8054600093926122bd82612274565b9182825260209360019160018116908160001461232557506001146122e4575b5050505050565b90939495506000929192528360002092846000945b838610612311575050505001019038808080806122dd565b8054858701830152940193859082016122f9565b60ff19168685015250505090151560051b0101915038808080806122dd565b91906001600160a01b039081811615612398576123648291843391612638565b931692169082820361237557505050565b60649350604051926364283d7b60e01b8452600484015260248301526044820152fd5b604051633250574960e11b815260006004820152602490fd5b156123b857565b60405162461bcd60e51b815260206004820152602160248201527f4f6e6c792042726964676552656365697665722063616e2063616c6c207468696044820152607360f81b6064820152608490fd5b1561240e57565b60405162461bcd60e51b8152602060048201526014602482015273151bdad95b88191bd95cc81b9bdd08195e1a5cdd60621b6044820152606490fd5b818110612455575050565b6000815560010161244a565b8160011b916000199060031b1c19161790565b61247e8154612274565b9081612488575050565b81601f6000931160011461249a575055565b9080839182526124b9601f60208420940160051c84016001850161244a565b5555565b6124c681612474565b60086000918260018201558260028201558260038201558260048201556124ef60058201612474565b6124fb60068201612474565b8260078201550155565b1561250c57565b60405162461bcd60e51b815260206004820152600f60248201526e131bd85b881b9bdd081b5a5b9d1959608a1b6044820152606490fd5b60001981146125525760010190565b634e487b7160e01b600052601160045260246000fd5b94939291606092612584612597936080895260808901906122ae565b9160208801528682036040880152612124565b930152565b6000818152600260205260409020546001600160a01b03169081156125bf575090565b60249060405190637e27328960e01b82526004820152fd5b6000828152600260205260409020549091906001600160a01b0316156126005761223c916127fe565b61223c916127fe565b6000818152600260205260409020546001600160a01b03161561262f5761223c906128a4565b61223c906128a4565b600082815260026020526040902054909291906001600160a01b0316156126625761223c92612925565b61223c92612925565b6001600160a01b0361267c82612609565b16156125bf5750565b6006546001600160a01b0316330361269957565b60405163118cdaa760e01b8152336004820152602490fd5b90939192833b6126c2575050505050565b604051630a85bd0160e11b8082526001600160a01b03938416600483015295831660248201526044810191909152608060648201529492169260209291859061270f906084830190612124565b039483816000978189895af18691816127ba575b50612784575050503d60001461277b573d61273d816121cf565b9061274b60405192836121ac565b81528093823d92013e5b8251928361277657604051633250574960e11b815260048101849052602490fd5b019050fd5b60609250612755565b919450915063ffffffff60e01b16036127a2575038808080806122dd565b60249060405190633250574960e11b82526004820152fd5b9091508481813d83116127f7575b6127d281836121ac565b810103126127f357516001600160e01b0319811681036127f3579038612723565b8680fd5b503d6127c8565b6000828152600260205260408120546001600160a01b0390811693928491600080516020612af48339815191529183612873575b16928361285b575b84815260026020526040812080546001600160a01b0319168517905580a490565b8381526003602052604081206001815401905561283a565b60046020908152604080872080546001600160a01b0319169055858752600390915285208054600019019055612832565b6000818152600260205260408120546001600160a01b03169190826128f4575b81815260026020526040812080546001600160a01b031916905582600080516020612af48339815191528280a490565b60046020908152604080832080546001600160a01b03191690558483526003909152812080546000190190556128c4565b916000928284526020916002835260018060a01b039460408680828420541697889416801515806129d5575b50506002908495600080516020612af4833981519152956129a6575b169586612990575b87845252812080546001600160a01b0319168517905580a490565b8684526003815282842060018154019055612975565b8885526004885283852080546001600160a01b031916905586855260038852838520805460001901905561296d565b9395929450909280612a32575b156129f35791828894929593612951565b8684918915600014612a1657506024915190637e27328960e01b82526004820152fd5b90604492519163177e802f60e01b835260048301526024820152fd5b508088148015612a57575b806129e257508685526004865280838587205416146129e2565b5087855260058652838520818652865260ff8486205416612a3d56fe0a5823a22bd41d00f20d3291468c3e4aa6027b5704e6fd9b950b9dbc853981ad0d2d5acdd26bfdd3bca82de53d50873b481e1c10abf677ad3333adc44aaee98bc16c17890c8dd059530bdb2682e5c027a34b73b70b0af8356b2a389ae7753bd58be0079c531659141344cd1fd0a4f28419497f9722a3daafe3b4186f6b6457e0ddf252ad1be2c89b69c2b068fc378daa952ba7f163c4a11628f55a4df523b3efa164736f6c6343000818000a",
  "linkReferences": {},
  "deployedLinkReferences": {}
}