{
  "_format": "hh-sol-artifact-1",
  "contractName": "LoanNFT",
  "sourceName": "src/avalanche/LoanNFT.sol",
  "abi": [
    {
      "inputs": [
        {
          "internalType": "address",
          "name": "initialOwner",
          "type": "address"
        }
      ],
      "stateMutability": "nonpayable",
      "type": "constructor"
    },
    {
      "inputs": [
        {
          "internalType": "address",
          "name": "sender",
          "type": "address"
        },
        {
          "internalType": "uint256",
          "name": "tokenId",
          "type": "uint256"
        },
        {
          "internalType": "address",
          "name": "owner",
          "type": "address"
        }
      ],
      "name": "ERC721IncorrectOwner",
      "type": "error"
    },
    {
      "inputs": [
        {
          "internalType": "address",
          "name": "operator",
          "type": "address"
        },
        {
          "internalType": "uint256",
          "name": "tokenId",
          "type": "uint256"
        }
      ],
      "name": "ERC721InsufficientApproval",
      "type": "error"
    },
    {
      "inputs": [
        {
          "internalType": "address",
          "name": "approver",
          "type": "address"
        }
      ],
      "name": "ERC721InvalidApprover",
      "type": "error"
    },
    {
      "inputs": [
        {
          "internalType": "address",
          "name": "operator",
          "type": "address"
        }
      ],
      "name": "ERC721InvalidOperator",
      "type": "error"
    },
    {
      "inputs": [
        {
          "internalType": "address",
          "name": "owner",
          "type": "address"
        }
      ],
      "name": "ERC721InvalidOwner",
      "type": "error"
    },
    {
      "inputs": [
        {
          "internalType": "address",
          "name": "receiver",
          "type": "address"
        }
      ],
      "name": "ERC721InvalidReceiver",
      "type": "error"
    },
    {
      "inputs": [
        {
          "internalType": "address",
          "name": "sender",
          "type": "address"
        }
      ],
      "name": "ERC721InvalidSender",
      "type": "error"
    },
    {
      "inputs": [
        {
          "internalType": "uint256",
          "name": "tokenId",
          "type": "uint256"
        }
      ],
      "name": "ERC721NonexistentToken",
      "type": "error"
    },
    {
      "inputs": [
        {
          "internalType": "address",
          "name": "owner",
          "type": "address"
        }
      ],
      "name": "OwnableInvalidOwner",
      "type": "error"
    },
    {
      "inputs": [
        {
          "internalType": "address",
          "name": "account",
          "type": "address"
        }
      ],
      "name": "OwnableUnauthorizedAccount",
      "type": "error"
    },
    {
      "anonymous": false,
      "inputs": [
        {
          "indexed": true,
          "internalType": "address",
          "name": "owner",
          "type": "address"
        },
        {
          "indexed": true,
          "internalType": "address",
          "name": "approved",
          "type": "address"
        },
        {
          "indexed": true,
          "internalType": "uint256",
          "name": "tokenId",
          "type": "uint256"
        }
      ],
      "name": "Approval",
      "type": "event"
    },
    {
      "anonymous": false,
      "inputs": [
        {
          "indexed": true,
          "internalType": "address",
          "name": "owner",
          "type": "address"
        },
        {
          "indexed": true,
          "internalType": "address",
          "name": "operator",
          "type": "address"
        },
        {
          "indexed": false,
          "internalType": "bool",
          "name": "approved",
          "type": "bool"
        }
      ],
      "name": "ApprovalForAll",
      "type": "event"
    },
    {
      "anonymous": false,
      "inputs": [
        {
          "indexed": true,
          "internalType": "uint256",
          "name": "tokenId",
          "type": "uint256"
        },
        {
          "indexed": false,
          "internalType": "string",
          "name": "loanId",
          "type": "string"
        },
        {
          "indexed": true,
          "internalType": "address",
          "name": "owner",
          "type": "address"
        },
        {
          "indexed": false,
          "internalType": "uint256",
          "name": "timestamp",
          "type": "uint256"
        }
      ],
      "name": "LoanNFTBurned",
      "type": "event"
    },
    {
      "anonymous": false,
      "inputs": [
        {
          "indexed": true,
          "internalType": "uint256",
          "name": "tokenId",
          "type": "uint256"
        },
        {
          "indexed": false,
          "internalType": "string",
          "name": "loanId",
          "type": "string"
        },
        {
          "indexed": true,
          "internalType": "address",
          "name": "lender",
          "type": "address"
        },
        {
          "indexed": false,
          "internalType": "uint256",
          "name": "originalBalance",
          "type": "uint256"
        },
        {
          "indexed": false,
          "internalType": "uint256",
          "name": "currentBalance",
          "type": "uint256"
        },
        {
          "indexed": false,
          "internalType": "uint256",
          "name": "timestamp",
          "type": "uint256"
        }
      ],
      "name": "LoanNFTMinted",
      "type": "event"
    },
    {
      "anonymous": false,
      "inputs": [
        {
          "indexed": true,
          "internalType": "uint256",
          "name": "tokenId",
          "type": "uint256"
        },
        {
          "indexed": false,
          "internalType": "string",
          "name": "loanId",
          "type": "string"
        },
        {
          "indexed": false,
          "internalType": "uint256",
          "name": "newBalance",
          "type": "uint256"
        },
        {
          "indexed": false,
          "internalType": "string",
          "name": "newStatus",
          "type": "string"
        },
        {
          "indexed": false,
          "internalType": "uint256",
          "name": "timestamp",
          "type": "uint256"
        }
      ],
      "name": "MetadataUpdated",
      "type": "event"
    },
    {
      "anonymous": false,
      "inputs": [
        {
          "indexed": true,
          "internalType": "address",
          "name": "previousOwner",
          "type": "address"
        },
        {
          "indexed": true,
          "internalType": "address",
          "name": "newOwner",
          "type": "address"
        }
      ],
      "name": "OwnershipTransferred",
      "type": "event"
    },
    {
      "anonymous": false,
      "inputs": [
        {
          "indexed": true,
          "internalType": "address",
          "name": "from",
          "type": "address"
        },
        {
          "indexed": true,
          "internalType": "address",
          "name": "to",
          "type": "address"
        },
        {
          "indexed": true,
          "internalType": "uint256",
          "name": "tokenId",
          "type": "uint256"
        }
      ],
      "name": "Transfer",
      "type": "event"
    },
    {
      "inputs": [
        {
          "internalType": "address",
          "name": "to",
          "type": "address"
        },
        {
          "internalType": "uint256",
          "name": "tokenId",
          "type": "uint256"
        }
      ],
      "name": "approve",
      "outputs": [],
      "stateMutability": "nonpayable",
      "type": "function"
    },
    {
      "inputs": [
        {
          "internalType": "address",
          "name": "owner",
          "type": "address"
        }
      ],
      "name": "balanceOf",
      "outputs": [
        {
          "internalType": "uint256",
          "name": "",
          "type": "uint256"
        }
      ],
      "stateMutability": "view",
      "type": "function"
    },
    {
      "inputs": [],
      "name": "bridgeReceiver",
      "outputs": [
        {
          "internalType": "address",
          "name": "",
          "type": "address"
        }
      ],
      "stateMutability": "view",
      "type": "function"
    },
    {
      "inputs": [
        {
          "internalType": "uint256",
          "name": "tokenId",
          "type": "uint256"
        }
      ],
      "name": "burn",
      "outputs": [],
      "stateMutability": "nonpayable",
      "type": "function"
    },
    {
      "inputs": [
        {
          "internalType": "string",
          "name": "loanId",
          "type": "string"
        }
      ],
      "name": "burnByLoanId",
      "outputs": [],
      "stateMutability": "nonpayable",
      "type": "function"
    },
    {
      "inputs": [
        {
          "internalType": "string",
          "name": "loanId",
          "type": "string"
        }
      ],
      "name": "canMint",
      "outputs": [
        {
          "internalType": "bool",
          "name": "",
          "type": "bool"
        }
      ],
      "stateMutability": "view",
      "type": "function"
    },
    {
      "inputs": [
        {
          "internalType": "uint256",
          "name": "tokenId",
          "type": "uint256"
        }
      ],
      "name": "exists",
      "outputs": [
        {
          "internalType": "bool",
          "name": "",
          "type": "bool"
        }
      ],
      "stateMutability": "view",
      "type": "function"
    },
    {
      "inputs": [
        {
          "internalType": "uint256",
          "name": "tokenId",
          "type": "uint256"
        }
      ],
      "name": "getApproved",
      "outputs": [
        {
          "internalType": "address",
          "name": "",
          "type": "address"
        }
      ],
      "stateMutability": "view",
      "type": "function"
    },
    {
      "inputs": [
        {
          "internalType": "string",
          "name": "loanId",
          "type": "string"
        }
      ],
      "name": "getCurrentBalance",
      "outputs": [
        {
          "internalType": "uint256",
          "name": "",
          "type": "uint256"
        }
      ],
      "stateMutability": "view",
      "type": "function"
    },
    {
      "inputs": [
        {
          "internalType": "uint256",
          "name": "tokenId",
          "type": "uint256"
        }
      ],
      "name": "getLoanMetadata",
      "outputs": [
        {
          "components": [
            {
              "internalType": "string",
              "name": "loanId",
              "type": "string"
            },
            {
              "internalType": "uint256",
              "name": "originalBalance",
              "type": "uint256"
            },
            {
              "internalType": "uint256",
              "name": "currentBalance",
              "type": "uint256"
            },
            {
              "internalType": "uint256",
              "name": "noteRate",
              "type": "uint256"
            },
            {
              "internalType": "uint256",
              "name": "lenderOwnerPct",
              "type": "uint256"
            },
            {
              "internalType": "string",
              "name": "status",
              "type": "string"
            },
            {
              "internalType": "string",
              "name": "location",
              "type": "string"
            },
            {
              "internalType": "uint256",
              "name": "mintedAt",
              "type": "uint256"
            },
            {
              "internalType": "uint256",
              "name": "lastUpdated",
              "type": "uint256"
            }
          ],
          "internalType": "struct LoanNFT.LoanMetadata",
          "name": "",
          "type": "tuple"
        }
      ],
      "stateMutability": "view",
      "type": "function"
    },
    {
      "inputs": [
        {
          "internalType": "string",
          "name": "loanId",
          "type": "string"
        }
      ],
      "name": "getMintCount",
      "outputs": [
        {
          "internalType": "uint256",
          "name": "",
          "type": "uint256"
        }
      ],
      "stateMutability": "view",
      "type": "function"
    },
    {
      "inputs": [
        {
          "internalType": "string",
          "name": "loanId",
          "type": "string"
        }
      ],
      "name": "getOriginalBalance",
      "outputs": [
        {
          "internalType": "uint256",
          "name": "",
          "type": "uint256"
        }
      ],
      "stateMutability": "view",
      "type": "function"
    },
    {
      "inputs": [],
      "name": "getTotalMinted",
      "outputs": [
        {
          "internalType": "uint256",
          "name": "",
          "type": "uint256"
        }
      ],
      "stateMutability": "view",
      "type": "function"
    },
    {
      "inputs": [
        {
          "internalType": "address",
          "name": "owner",
          "type": "address"
        },
        {
          "internalType": "address",
          "name": "operator",
          "type": "address"
        }
      ],
      "name": "isApprovedForAll",
      "outputs": [
        {
          "internalType": "bool",
          "name": "",
          "type": "bool"
        }
      ],
      "stateMutability": "view",
      "type": "function"
    },
    {
      "inputs": [
        {
          "internalType": "string",
          "name": "",
          "type": "string"
        }
      ],
      "name": "isCurrentlyMinted",
      "outputs": [
        {
          "internalType": "bool",
          "name": "",
          "type": "bool"
        }
      ],
      "stateMutability": "view",
      "type": "function"
    },
    {
      "inputs": [
        {
          "internalType": "string",
          "name": "loanId",
          "type": "string"
        }
      ],
      "name": "isLoanMinted",
      "outputs": [
        {
          "internalType": "bool",
          "name": "",
          "type": "bool"
        }
      ],
      "stateMutability": "view",
      "type": "function"
    },
    {
      "inputs": [
        {
          "internalType": "string",
          "name": "",
          "type": "string"
        }
      ],
      "name": "loanIdToTokenId",
      "outputs": [
        {
          "internalType": "uint256",
          "name": "",
          "type": "uint256"
        }
      ],
      "stateMutability": "view",
      "type": "function"
    },
    {
      "inputs": [
        {
          "internalType": "uint256",
          "name": "",
          "type": "uint256"
        }
      ],
      "name": "loanMetadata",
      "outputs": [
        {
          "internalType": "string",
          "name": "loanId",
          "type": "string"
        },
        {
          "internalType": "uint256",
          "name": "originalBalance",
          "type": "uint256"
        },
        {
          "internalType": "uint256",
          "name": "currentBalance",
          "type": "uint256"
        },
        {
          "internalType": "uint256",
          "name": "noteRate",
          "type": "uint256"
        },
        {
          "internalType": "uint256",
          "name": "lenderOwnerPct",
          "type": "uint256"
        },
        {
          "internalType": "string",
          "name": "status",
          "type": "string"
        },
        {
          "internalType": "string",
          "name": "location",
          "type": "string"
        },
        {
          "internalType": "uint256",
          "name": "mintedAt",
          "type": "uint256"
        },
        {
          "internalType": "uint256",
          "name": "lastUpdated",
          "type": "uint256"
        }
      ],
      "stateMutability": "view",
      "type": "function"
    },
    {
      "inputs": [
        {
          "internalType": "string",
          "name": "loanId",
          "type": "string"
        },
        {
          "internalType": "address",
          "name": "lenderAddress",
          "type": "address"
        },
        {
          "internalType": "uint256",
          "name": "originalBalance",
          "type": "uint256"
        },
        {
          "internalType": "uint256",
          "name": "currentBalance",
          "type": "uint256"
        },
        {
          "internalType": "uint256",
          "name": "noteRate",
          "type": "uint256"
        },
        {
          "internalType": "uint256",
          "name": "lenderOwnerPct",
          "type": "uint256"
        },
        {
          "internalType": "string",
          "name": "status",
          "type": "string"
        },
        {
          "internalType": "string",
          "name": "location",
          "type": "string"
        }
      ],
      "name": "mint",
      "outputs": [
        {
          "internalType": "uint256",
          "name": "",
          "type": "uint256"
        }
      ],
      "stateMutability": "nonpayable",
      "type": "function"
    },
    {
      "inputs": [],
      "name": "name",
      "outputs": [
        {
          "internalType": "string",
          "name": "",
          "type": "string"
        }
      ],
      "stateMutability": "view",
      "type": "function"
    },
    {
      "inputs": [],
      "name": "owner",
      "outputs": [
        {
          "internalType": "address",
          "name": "",
          "type": "address"
        }
      ],
      "stateMutability": "view",
      "type": "function"
    },
    {
      "inputs": [
        {
          "internalType": "uint256",
          "name": "tokenId",
          "type": "uint256"
        }
      ],
      "name": "ownerOf",
      "outputs": [
        {
          "internalType": "address",
          "name": "",
          "type": "address"
        }
      ],
      "stateMutability": "view",
      "type": "function"
    },
    {
      "inputs": [],
      "name": "renounceOwnership",
      "outputs": [],
      "stateMutability": "nonpayable",
      "type": "function"
    },
    {
      "inputs": [
        {
          "internalType": "address",
          "name": "from",
          "type": "address"
        },
        {
          "internalType": "address",
          "name": "to",
          "type": "address"
        },
        {
          "internalType": "uint256",
          "name": "tokenId",
          "type": "uint256"
        }
      ],
      "name": "safeTransferFrom",
      "outputs": [],
      "stateMutability": "nonpayable",
      "type": "function"
    },
    {
      "inputs": [
        {
          "internalType": "address",
          "name": "from",
          "type": "address"
        },
        {
          "internalType": "address",
          "name": "to",
          "type": "address"
        },
        {
          "internalType": "uint256",
          "name": "tokenId",
          "type": "uint256"
        },
        {
          "internalType": "bytes",
          "name": "data",
          "type": "bytes"
        }
      ],
      "name": "safeTransferFrom",
      "outputs": [],
      "stateMutability": "nonpayable",
      "type": "function"
    },
    {
      "inputs": [
        {
          "internalType": "address",
          "name": "operator",
          "type": "address"
        },
        {
          "internalType": "bool",
          "name": "approved",
          "type": "bool"
        }
      ],
      "name": "setApprovalForAll",
      "outputs": [],
      "stateMutability": "nonpayable",
      "type": "function"
    },
    {
      "inputs": [
        {
          "internalType": "string",
          "name": "baseURI",
          "type": "string"
        }
      ],
      "name": "setBaseURI",
      "outputs": [],
      "stateMutability": "nonpayable",
      "type": "function"
    },
    {
      "inputs": [
        {
          "internalType": "address",
          "name": "_bridge",
          "type": "address"
        }
      ],
      "name": "setBridgeReceiver",
      "outputs": [],
      "stateMutability": "nonpayable",
      "type": "function"
    },
    {
      "inputs": [
        {
          "internalType": "bytes4",
          "name": "interfaceId",
          "type": "bytes4"
        }
      ],
      "name": "supportsInterface",
      "outputs": [
        {
          "internalType": "bool",
          "name": "",
          "type": "bool"
        }
      ],
      "stateMutability": "view",
      "type": "function"
    },
    {
      "inputs": [],
      "name": "symbol",
      "outputs": [
        {
          "internalType": "string",
          "name": "",
          "type": "string"
        }
      ],
      "stateMutability": "view",
      "type": "function"
    },
    {
      "inputs": [
        {
          "internalType": "uint256",
          "name": "",
          "type": "uint256"
        }
      ],
      "name": "tokenIdToLoanId",
      "outputs": [
        {
          "internalType": "string",
          "name": "",
          "type": "string"
        }
      ],
      "stateMutability": "view",
      "type": "function"
    },
    {
      "inputs": [
        {
          "internalType": "uint256",
          "name": "tokenId",
          "type": "uint256"
        }
      ],
      "name": "tokenURI",
      "outputs": [
        {
          "internalType": "string",
          "name": "",
          "type": "string"
        }
      ],
      "stateMutability": "view",
      "type": "function"
    },
    {
      "inputs": [
        {
          "internalType": "string",
          "name": "",
          "type": "string"
        }
      ],
      "name": "totalMintsPerLoan",
      "outputs": [
        {
          "internalType": "uint256",
          "name": "",
          "type": "uint256"
        }
      ],
      "stateMutability": "view",
      "type": "function"
    },
    {
      "inputs": [
        {
          "internalType": "address",
          "name": "from",
          "type": "address"
        },
        {
          "internalType": "address",
          "name": "to",
          "type": "address"
        },
        {
          "internalType": "uint256",
          "name": "tokenId",
          "type": "uint256"
        }
      ],
      "name": "transferFrom",
      "outputs": [],
      "stateMutability": "nonpayable",
      "type": "function"
    },
    {
      "inputs": [
        {
          "internalType": "address",
          "name": "newOwner",
          "type": "address"
        }
      ],
      "name": "transferOwnership",
      "outputs": [],
      "stateMutability": "nonpayable",
      "type": "function"
    },
    {
      "inputs": [
        {
          "internalType": "uint256",
          "name": "tokenId",
          "type": "uint256"
        },
        {
          "internalType": "uint256",
          "name": "newCurrentBalance",
          "type": "uint256"
        },
        {
          "internalType": "uint256",
          "name": "newNoteRate",
          "type": "uint256"
        },
        {
          "internalType": "uint256",
          "name": "newLenderOwnerPct",
          "type": "uint256"
        },
        {
          "internalType": "string",
          "name": "newStatus",
          "type": "string"
        },
        {
          "internalType": "string",
          "name": "newLocation",
          "type": "string"
        }
      ],
      "name": "updateFullMetadata",
      "outputs": [],
      "stateMutability": "nonpayable",
      "type": "function"
    },
    {
      "inputs": [
        {
          "internalType": "uint256",
          "name": "tokenId",
          "type": "uint256"
        },
        {
          "internalType": "uint256",
          "name": "newBalance",
          "type": "uint256"
        },
        {
          "internalType": "string",
          "name": "newStatus",
          "type": "string"
        }
      ],
      "name": "updateMetadata",
      "outputs": [],
      "stateMutability": "nonpayable",
      "type": "function"
    }
  ],
  "bytecode": "0x608034620003b757601f906001600160401b0390601f199062002f60388190038581018416830185811184821017620003a157839282916040528339602092839181010312620003b757516001600160a01b03948582169491859003620003b7576200006a620003bc565b9260088452672321a4902637b0b760c11b8185015262000089620003bc565b9060078252662321a4a627a0a760c91b81830152845195848711620003a1576000968754966001978881811c9116801562000396575b8582101462000382579081878493116200032f575b508490878311600114620002ce578a92620002c2575b5050600019600383901b1c191690871b1787555b8251948511620002ae5785548681811c91168015620002a3575b838210146200028f5790818587969594931162000236575b5081938511600114620001d15750508592620001c5575b5050600019600383901b1c191690821b1790555b8115620001ad57600680546001600160a01b0319811684179091556040519316907f8be0079c531659141344cd1fd0a4f28419497f9722a3daafe3b4186f6b6457e09080a3612b839081620003dd8239f35b60249060405190631e4fbdf760e01b82526004820152fd5b01519050388062000147565b869593929193168588528388209388905b8282106200021c575050841162000202575b505050811b0190556200015b565b015160001960f88460031b161c19169055388080620001f4565b8484015186558897909501949384019390810190620001e2565b9091929394508688528288208580880160051c82019285891062000285575b9188978a9297969594930160051c01915b8281106200027657505062000130565b8a815588975089910162000266565b9250819262000255565b634e487b7160e01b88526022600452602488fd5b90607f169062000118565b634e487b7160e01b87526041600452602487fd5b015190503880620000ea565b90848a9416918b8052868c20928c5b88828210620003185750508411620002fe575b505050811b018755620000fe565b015160001960f88460031b161c19169055388080620002f0565b8385015186558d97909501949384019301620002dd565b909150898052848a208780850160051c82019287861062000378575b918b91869594930160051c01915b82811062000369575050620000d4565b8c81558594508b910162000359565b925081926200034b565b634e487b7160e01b8a52602260045260248afd5b90607f1690620000bf565b634e487b7160e01b600052604160045260246000fd5b600080fd5b60408051919082016001600160401b03811183821017620003a15760405256fe608080604052600436101561001357600080fd5b60003560e01c90816301ffc9a71461216e5750806306fdde03146120de578063081812fc146120a0578063095ea7b314611fb95780630a20897214611f905780630ca1c5c914611f725780632266f5bb14611e2a57806323b872dd14611f5b57806342842e0e14611f2d57806342966c6814611e785780634b6e9bf314611e2a5780634f558e7914611df457806355f804b314611cc7578063604ed12b14611b045780636352211e14611ad457806365b38df4146116a457806370a0823114611a7b578063715018a614611a1e57806377703f0d146119b85780638da5cb5b1461198f57806394b9df021461194257806394cf1fb11461179f57806395d89b41146116ed5780639802b8f0146116a4578063a22cb465146115ff578063b88d4fde14611592578063c27122481461152c578063c57cca4f146114db578063c87b56dd146112bc578063cf5d00a814611260578063d044e81f146111dc578063e6bf24aa146110f2578063e7754d1114610765578063e985e9c51461070f578063ee89f3e314610428578063f2fde38b146103a05763ff09a1a4146101b657600080fd5b3461039b57606036600319011261039b576001600160401b0360043560243560443583811161039b576101ed9036906004016122f7565b9060018060a01b039361020585600854163314612487565b83600052610221602095600287526040600020541615156124dd565b83600052600d855260056040600020836002820155019083519081116103855761024b825461234a565b601f811161034a575b5085601f82116001146102d3579161029782600080516020612b37833981519152979893600a956000916102c8575b508160011b916000199060031b1c19161790565b90555b85600052600d815242600860406000200155526102c3604060002060405193849342928561262b565b0390a2005b905087015138610283565b601f1982169083600052876000209160005b818110610333575092600a949260019282600080516020612b378339815191529a9b961061031a575b5050811b01905561029a565b88015160001960f88460031b161c19169055388061030e565b91928960018192868b0151815501940192016102e5565b610375908360005287600020601f840160051c81019189851061037b575b601f0160051c0190612520565b38610254565b9091508190610368565b634e487b7160e01b600052604160045260246000fd5b600080fd5b3461039b57602036600319011261039b576103b9612221565b6103c1612748565b6001600160a01b0390811690811561040f57600680546001600160a01b031981168417909155167f8be0079c531659141344cd1fd0a4f28419497f9722a3daafe3b4186f6b6457e0600080a3005b604051631e4fbdf760e01b815260006004820152602490fd5b3461039b5760c036600319011261039b576001600160401b0360043560243560843583811161039b5761045f9036906004016122f7565b9060a43584811161039b576104789036906004016122f7565b6008546001600160a01b039591906104939087163314612487565b846000526104af602096600288526040600020541615156124dd565b84600052600d86526040600020918360028401556044356003840155606435600484015560058301855190828211610385576104eb815461234a565b91601f928a8482116106e0575b50508983821160011461067b5790806105269260009161067057508160011b916000199060031b1c19161790565b90555b6006840192805192831161038557610541845461234a565b828111610638575b50889183116001146105bd5782600a9593600080516020612b37833981519152999a959361058e936000926105b2575b50508160011b916000199060031b1c19161790565b90555b60084291015585600052526102c3604060002060405193849342928561262b565b015190508b80610579565b90601f1983169184600052896000209260005b8181106106215750926001928592600a9896600080516020612b378339815191529c9d989610610608575b505050811b019055610591565b015160001960f88460031b161c191690558a80806105fb565b92938b6001819287860151815501950193016105d0565b61066190856000528a6000208480870160051c8201928d8810610667575b0160051c0190612520565b89610549565b92508192610656565b90508901518c610283565b601f19821690836000528b6000209160005b8d8c8383106106cb5750505090836001949392106106b2575b5050811b019055610529565b8a015160001960f88460031b161c191690558b806106a6565b8401518555600190940193928301920161068d565b610708918460005285826000209181860160051c8301938610610667570160051c0190612520565b8a8a6104f8565b3461039b57604036600319011261039b57610728612221565b610730612237565b9060018060a01b03809116600052600560205260406000209116600052602052602060ff604060002054166040519015158152f35b3461039b5761010036600319011261039b576004356001600160401b03811161039b576107969036906004016122f7565b61079e612237565b9060c4356001600160401b03811161039b576107be9036906004016122f7565b9160e4356001600160401b03811161039b576107de9036906004016122f7565b916107f460018060a01b03600854163314612487565b60ff604051602081845161080b81838589016121d9565b8101600b81520301902054166110ad57604051602081835161083081838588016121d9565b8101600981520301902054611068576001600160a01b0382161561102a5760643515610fef57805115610fb557610868600754612606565b928360075560405161087981612269565b600081526001600160a01b0361088f868661269a565b16610f9c57833b610e5e575b508360405160208185516108b28183858a016121d9565b810160098152030190205583600052600a602052604060002082516001600160401b038111610385576108e5825461234a565b601f8111610e2c575b506020601f8211600114610dc657908061091d92600091610dbb57508160011b916000199060031b1c19161790565b90555b604051602081845161093581838589016121d9565b8101600b815203019020600160ff19825416179055604051602081845161095f81838589016121d9565b8101600c8152030190206109738154612606565b9055604051946109828661224d565b82865260443560208701526064356040870152608435606087015260a435608087015260a086015260c08501524260e08501524261010085015282600052600d60205260406000209084518051906001600160401b038211610385576109e8845461234a565b601f8111610d89575b50602090601f8311600114610d1d57610a22929160009183610c6f5750508160011b916000199060031b1c19161790565b82555b6020850151600183015560408501516002830155606085015160038301556080850151600483015560a08501518051906001600160401b03821161038557610a70600585015461234a565b601f8111610ce8575b50602090601f8311600114610c7a57610aaa929160009183610c6f5750508160011b916000199060031b1c19161790565b60058301555b60c0850151918251956001600160401b038711610385576020968694610ad9600685015461234a565b601f8111610c3c575b508890601f8311600114610b9f577f0a5823a22bd41d00f20d3291468c3e4aa6027b5704e6fd9b950b9dbc853981ad9593610b3f84610b68979560089561010095600092610b945750508160011b916000199060031b1c19161790565b60068501555b60e0810151600785015501519101556040519182916080835260808301906121fc565b6044358289015260643560408301524260608301526001600160a01b03909516940390a3604051908152f35b015190508e80610579565b9060068501600052896000209160005b601f1985168110610c22575093600184600894610100947f0a5823a22bd41d00f20d3291468c3e4aa6027b5704e6fd9b950b9dbc853981ad9a98610b689a98601f19811610610c09575b505050811b016006850155610b45565b015160001960f88460031b161c191690558d8080610bf9565b8183015184558a9850600190930192918b01918b01610baf565b610c6990600686016000528a600020601f850160051c8101918c861061037b57601f0160051c0190612520565b89610ae2565b015190508880610579565b90601f198316916005860160005260206000209260005b818110610cd05750908460019594939210610cb7575b505050811b016005830155610ab0565b015160001960f88460031b161c19169055878080610ca7565b92936020600181928786015181550195019301610c91565b610d1790600586016000526020600020601f850160051c8101916020861061037b57601f0160051c0190612520565b87610a79565b9190846000526020600020906000935b601f1984168510610d6e576001945083601f19811610610d55575b505050811b018255610a25565b015160001960f88460031b161c19169055878080610d48565b81810151835560209485019460019093019290910190610d2d565b610db590856000526020600020601f850160051c8101916020861061037b57601f0160051c0190612520565b876109f1565b905085015189610283565b908260005260206000206000925b601f1983168410610e14576001935082601f19811610610dfb575b5050811b019055610920565b86015160001960f88460031b161c191690558880610def565b86810151825560209384019360019092019101610dd4565b610e5890836000526020600020601f840160051c8101916020851061037b57601f0160051c0190612520565b876108ee565b6040959493955160208180610e9c630a85bd0160e11b95868352336004840152600060248401528960448401526080606484015260848301906121fc565b038160006001600160a01b038c165af160009181610f57575b50610f1d57863d15610f15573d90610ecc826122a5565b91610eda6040519384612284565b82523d6000602084013e5b81519182610f0e57604051633250574960e11b81526001600160a01b0383166004820152602490fd5b6020915001fd5b606090610ee5565b949593946001600160e01b03191603610f36578561089b565b604051633250574960e11b81526001600160a01b0384166004820152602490fd5b9091506020813d602011610f94575b81610f7360209383612284565b8101031261039b57516001600160e01b03198116810361039b579088610eb5565b3d9150610f66565b6040516339e3563760e11b815260006004820152602490fd5b60405162461bcd60e51b8152602060048201526012602482015271131bd85b9259081a5cc81c995c5d5a5c995960721b6044820152606490fd5b60405162461bcd60e51b8152602060048201526013602482015272042616c616e6365206d757374206265203e203606c1b6044820152606490fd5b60405162461bcd60e51b8152602060048201526016602482015275496e76616c6964206c656e646572206164647265737360501b6044820152606490fd5b60405162461bcd60e51b815260206004820152601d60248201527f4c6f616e20616c7265616479206861732061637469766520746f6b656e0000006044820152606490fd5b60405162461bcd60e51b815260206004820152601d60248201527f4c6f616e2063757272656e746c792068617320616374697665204e46540000006044820152606490fd5b3461039b57602036600319011261039b57600435600052600d60205261119c60406000206040519061112f826111288184612384565b0383612284565b60018101546111cc6002830154916111be600385015491600486015460405190611160826111288160058c01612384565b6040519461117c866111758160068d01612384565b0387612284565b600860078a0154990154976040519b8c9b8c6101208091528d01906121fc565b9460208c015260408b015260608a0152608089015287820360a08901526121fc565b9085820360c08701526121fc565b9160e08401526101008301520390f35b3461039b57602036600319011261039b576111f5612221565b6111fd612748565b6001600160a01b0316801561122257600880546001600160a01b031916919091179055005b60405162461bcd60e51b8152602060048201526016602482015275496e76616c696420627269646765206164647265737360501b6044820152606490fd5b3461039b57602036600319011261039b576004356001600160401b03811161039b576112a96020611296819336906004016122f7565b81604051938285809451938492016121d9565b8101600981520301902054604051908152f35b3461039b5760208060031936011261039b576004359081600052600281526112f260018060a01b036040600020541615156124dd565b600e546112fe8161234a565b1561148357604051908160006113138361234a565b9283835260019086600182169182600014611463575050600114611423575b5061133f92500382612284565b915b600052600a815260406000206040518361136482955180928680860191016121d9565b810160009083546113748161234a565b94600191876001821691826000146114025750506001146113be575b5050506113a6925003601f198101845283612284565b6113ba6040519282849384528301906121fc565b0390f35b8693506000959291955282600020946000955b8387106113e95750506113a694500101858080611390565b80548388018601529390950194879450869381016113d1565b92509450506113a695915060ff191683830152801515020101858080611390565b859150600e60005281600020906000915b85831061144b57505061133f935082010186611332565b80548388018501528694508793909201918101611434565b60ff19168582015261133f95151560051b85010192508891506113329050565b50604051606081018181106001600160401b0382111761038557604052602381527f68747470733a2f2f6170692e6663692d6c6f616e732e636f6d2f6d6574616461828201526274612f60e81b604082015291611341565b3461039b57602036600319011261039b57600435600052600a6020526113ba611511611518604060002060405192838092612384565b0382612284565b6040519182916020835260208301906121fc565b3461039b57602036600319011261039b576004356001600160401b03811161039b5760206112966115619236906004016122f7565b81016009815203019020546115778115156125c8565b600052600d6020526020600260406000200154604051908152f35b3461039b57608036600319011261039b576115ab612221565b6115b3612237565b90604435606435926001600160401b03841161039b573660238501121561039b576115eb6115fd9436906024816004013591016122c0565b926115f783838361241a565b33612774565b005b3461039b57604036600319011261039b57611618612221565b6024359081151580920361039b576001600160a01b031690811561168b57336000526005602052604060002082600052602052604060002060ff1981541660ff83161790556040519081527f17307eab39ab6107e8899845ad3d59bd9653f200f220920489ca2b5937696c3160203392a3005b604051630b61174360e31b815260048101839052602490fd5b3461039b57602036600319011261039b576004356001600160401b03811161039b576116da6020611296819336906004016122f7565b8101600c81520301902054604051908152f35b3461039b57600036600319011261039b576040516000600182600154926117138461234a565b928383526020948560018216918260001461177f57505060011461173f575b506113a692500383612284565b849150600160005281600020906000915b8583106117675750506113a6935082010185611732565b80548389018501528794508693909201918101611750565b60ff1916858201526113a695151560051b85010192508791506117329050565b3461039b5760208060031936011261039b576004356001600160401b03811161039b576117d09036906004016122f7565b6008546001600160a01b0391906117ea9083163314612487565b6040519281519381818185019661180281838a6121d9565b81016009815203019020549283156118fd5791816118c36118f2937fc16c17890c8dd059530bdb2682e5c027a34b73b70b0af8356b2a389ae7753bd5958760005260028252611859816040600020541615156124dd565b8760005260028252604060002054169760006040518381885161187d8183886121d9565b810160098152030190205587600052600a825261189d6040600020612537565b87600052600d82526118b26040600020612580565b6040518093819287519283916121d9565b8101600b81520301902060ff1981541690556118de8561272e565b6040519283926040845260408401906121fc565b9042908301520390a3005b60405162461bcd60e51b815260048101839052601d60248201527f4e6f2061637469766520746f6b656e20666f722074686973206c6f616e0000006044820152606490fd5b3461039b57602036600319011261039b576004356001600160401b03811161039b5760ff61197a6020611296819436906004016122f7565b8101600b815203019020541615604051908152f35b3461039b57600036600319011261039b576006546040516001600160a01b039091168152602090f35b3461039b57602036600319011261039b576004356001600160401b03811161039b5760206112966119ed9236906004016122f7565b8101600981520301902054611a038115156125c8565b600052600d6020526020600160406000200154604051908152f35b3461039b57600036600319011261039b57611a37612748565b600680546001600160a01b031981169091556000906001600160a01b03167f8be0079c531659141344cd1fd0a4f28419497f9722a3daafe3b4186f6b6457e08280a3005b3461039b57602036600319011261039b576001600160a01b03611a9c612221565b168015611abb5760005260036020526020604060002054604051908152f35b6040516322718ad960e21b815260006004820152602490fd5b3461039b57602036600319011261039b576020611af260043561265f565b6040516001600160a01b039091168152f35b3461039b5760208060031936011261039b5760043560405191611b268361224d565b6060918284528184016000905260408401600090528284016000905260808401600090528260a08501528260c085015260e0840160009052610100809401600090528060005260028252600160a01b60019003604060002054161515611b8b906124dd565b600052600d815260406000209060405192611ba58461224d565b60405180611bb38186612384565b03611bbe9082612284565b845260018301549482850195865260028401549560408601968752600385015483870190815260048601546080880190815260405190818060058a0190611c0491612384565b03611c0f9083612284565b60a089019182526040519283611c288160068c01612384565b03611c339085612284565b60c08a0193845260078901549860e08b01998a526008015496868b019788526040519b8c9b8a8d52518c6101209b8c9101526101408d01611c73916121fc565b965160408d015251908b01525160808a01525160a089015251601f1992838982030160c08a0152611ca3916121fc565b9051918782030160e0880152611cb8916121fc565b93519085015251908301520390f35b3461039b5760208060031936011261039b576001600160401b0360043581811161039b57611cf99036906004016122f7565b91611d02612748565b825191821161038557611d16600e5461234a565b601f8111611dc3575b5080601f8311600114611d5f57508190611d4f93600092611d545750508160011b916000199060031b1c19161790565b600e55005b015190508380610579565b90601f19831693600e60005282600020926000905b868210611dab5750508360019510611d92575b505050811b01600e55005b015160001960f88460031b161c19169055828080611d87565b80600185968294968601518155019501930190611d74565b611dee90600e60005282600020601f850160051c81019184861061037b57601f0160051c0190612520565b83611d1f565b3461039b57602036600319011261039b576004356000526002602052602060018060a01b03604060002054161515604051908152f35b3461039b57602036600319011261039b576004356001600160401b03811161039b5760ff611e626020611296819436906004016122f7565b8101600b81520301902054166040519015158152f35b3461039b5760208060031936011261039b576004357fc16c17890c8dd059530bdb2682e5c027a34b73b70b0af8356b2a389ae7753bd56118f261112860018060a01b03611eca81600854163314612487565b8460005260028652611ee4816040600020541615156124dd565b84600052600a8652611f00604060002060405193848092612384565b846000526002865260406000205416946118c381604051600085519183818189019461187d8183886121d9565b3461039b576115fd611f3e36612315565b9060405192611f4c84612269565b600084526115f783838361241a565b3461039b576115fd611f6c36612315565b9161241a565b3461039b57600036600319011261039b576020600754604051908152f35b3461039b57600036600319011261039b576008546040516001600160a01b039091168152602090f35b3461039b57604036600319011261039b57611fd2612221565b602435611fde8161265f565b3315158061208d575b80612060575b612048576001600160a01b039283169282918491167f8c5be1e5ebec7d5bd14f71427d1e84f3dd0314c0f7b2291e5b200ac8c7c3b925600080a4600090815260046020526040902080546001600160a01b0319169091179055005b60405163a9fbf51f60e01b8152336004820152602490fd5b5060018060a01b038116600052600560205260406000203360005260205260ff6040600020541615611fed565b506001600160a01b038116331415611fe7565b3461039b57602036600319011261039b576004356120bd8161265f565b506000526004602052602060018060a01b0360406000205416604051908152f35b3461039b57600036600319011261039b576040516000805490826121018361234a565b918282526020936001908560018216918260001461177f57505060011461212f57506113a692500383612284565b8491506000805281600020906000915b8583106121565750506113a6935082010185611732565b8054838901850152879450869390920191810161213f565b3461039b57602036600319011261039b576004359063ffffffff60e01b821680920361039b576020916380ac58cd60e01b81149081156121c8575b81156121b7575b5015158152f35b6301ffc9a760e01b149050836121b0565b635b5e139f60e01b811491506121a9565b60005b8381106121ec5750506000910152565b81810151838201526020016121dc565b90602091612215815180928185528580860191016121d9565b601f01601f1916010190565b600435906001600160a01b038216820361039b57565b602435906001600160a01b038216820361039b57565b61012081019081106001600160401b0382111761038557604052565b602081019081106001600160401b0382111761038557604052565b90601f801991011681019081106001600160401b0382111761038557604052565b6001600160401b03811161038557601f01601f191660200190565b9291926122cc826122a5565b916122da6040519384612284565b82948184528183011161039b578281602093846000960137010152565b9080601f8301121561039b57816020612312933591016122c0565b90565b606090600319011261039b576001600160a01b0390600435828116810361039b5791602435908116810361039b579060443590565b90600182811c9216801561237a575b602083101461236457565b634e487b7160e01b600052602260045260246000fd5b91607f1691612359565b8054600093926123938261234a565b918282526020936001916001811690816000146123fb57506001146123ba575b5050505050565b90939495506000929192528360002092846000945b8386106123e7575050505001019038808080806123b3565b8054858701830152940193859082016123cf565b60ff19168685015250505090151560051b0101915038808080806123b3565b91906001600160a01b03908181161561246e5761243a82918433916126fb565b931692169082820361244b57505050565b60649350604051926364283d7b60e01b8452600484015260248301526044820152fd5b604051633250574960e11b815260006004820152602490fd5b1561248e57565b60405162461bcd60e51b815260206004820152602160248201527f4f6e6c792042726964676552656365697665722063616e2063616c6c207468696044820152607360f81b6064820152608490fd5b156124e457565b60405162461bcd60e51b8152602060048201526014602482015273151bdad95b88191bd95cc81b9bdd08195e1a5cdd60621b6044820152606490fd5b81811061252b575050565b60008155600101612520565b612541815461234a565b908161254b575050565b81601f6000931160011461255d575055565b90808391825261257c601f60208420940160051c840160018501612520565b5555565b61258981612537565b60086000918260018201558260028201558260038201558260048201556125b260058201612537565b6125be60068201612537565b8260078201550155565b156125cf57565b60405162461bcd60e51b815260206004820152600f60248201526e131bd85b881b9bdd081b5a5b9d1959608a1b6044820152606490fd5b60001981146126155760010190565b634e487b7160e01b600052601160045260246000fd5b9493929160609261264761265a93608089526080890190612384565b91602088015286820360408801526121fc565b930152565b6000818152600260205260409020546001600160a01b0316908115612682575090565b60249060405190637e27328960e01b82526004820152fd5b6000828152600260205260409020549091906001600160a01b0316156126c357612312916128c1565b612312916128c1565b6000818152600260205260409020546001600160a01b0316156126f25761231290612967565b61231290612967565b600082815260026020526040902054909291906001600160a01b03161561272557612312926129e8565b612312926129e8565b6001600160a01b0361273f826126cc565b16156126825750565b6006546001600160a01b0316330361275c57565b60405163118cdaa760e01b8152336004820152602490fd5b90939192833b612785575050505050565b604051630a85bd0160e11b8082526001600160a01b0393841660048301529583166024820152604481019190915260806064820152949216926020929185906127d29060848301906121fc565b039483816000978189895af186918161287d575b50612847575050503d60001461283e573d612800816122a5565b9061280e6040519283612284565b81528093823d92013e5b8251928361283957604051633250574960e11b815260048101849052602490fd5b019050fd5b60609250612818565b919450915063ffffffff60e01b1603612865575038808080806123b3565b60249060405190633250574960e11b82526004820152fd5b9091508481813d83116128ba575b6128958183612284565b810103126128b657516001600160e01b0319811681036128b65790386127e6565b8680fd5b503d61288b565b6000828152600260205260408120546001600160a01b0390811693928491600080516020612b578339815191529183612936575b16928361291e575b84815260026020526040812080546001600160a01b0319168517905580a490565b838152600360205260408120600181540190556128fd565b60046020908152604080872080546001600160a01b03191690558587526003909152852080546000190190556128f5565b6000818152600260205260408120546001600160a01b03169190826129b7575b81815260026020526040812080546001600160a01b031916905582600080516020612b578339815191528280a490565b60046020908152604080832080546001600160a01b0319169055848352600390915281208054600019019055612987565b916000928284526020916002835260018060a01b03946040868082842054169788941680151580612a98575b50506002908495600080516020612b5783398151915295612a69575b169586612a53575b87845252812080546001600160a01b0319168517905580a490565b8684526003815282842060018154019055612a38565b8885526004885283852080546001600160a01b0319169055868552600388528385208054600019019055612a30565b9395929450909280612af5575b15612ab65791828894929593612a14565b8684918915600014612ad957506024915190637e27328960e01b82526004820152fd5b90604492519163177e802f60e01b835260048301526024820152fd5b508088148015612b1a575b80612aa55750868552600486528083858720541614612aa5565b5087855260058652838520818652865260ff8486205416612b0056fe0d2d5acdd26bfdd3bca82de53d50873b481e1c10abf677ad3333adc44aaee98bddf252ad1be2c89b69c2b068fc378daa952ba7f163c4a11628f55a4df523b3efa164736f6c6343000818000a",
  "linkReferences": {},
  "deployedLinkReferences": {}
}