{
  "_format": "hh-sol-artifact-1",
  "contractName": "LoanNFT",
  "sourceName": "src/avalanche/LoanNFT.sol",
  "abi": [
    {
      "inputs": [
        {
          "internalType": "address",
          "name": "initialOwner",
          "type": "address"
        }
      ],
      "stateMutability": "nonpayable",
      "type": "constructor"
    },
    {
      "inputs": [
        {
          "internalType": "address",
          "name": "sender",
          "type": "address"
        },
        {
          "internalType": "uint256",
          "name": "tokenId",
          "type": "uint256"
        },
        {
          "internalType": "address",
          "name": "owner",
          "type": "address"
        }
      ],
      "name": "ERC721IncorrectOwner",
      "type": "error"
    },
    {
      "inputs": [
        {
          "internalType": "address",
          "name": "operator",
          "type": "address"
        },
        {
          "internalType": "uint256",
          "name": "tokenId",
          "type": "uint256"
        }
      ],
      "name": "ERC721InsufficientApproval",
      "type": "error"
    },
    {
      "inputs": [
        {
          "internalType": "address",
          "name": "approver",
          "type": "address"
        }
      ],
      "name": "ERC721InvalidApprover",
      "type": "error"
    },
    {
      "inputs": [
        {
          "internalType": "address",
          "name": "operator",
          "type": "address"
        }
      ],
      "name": "ERC721InvalidOperator",
      "type": "error"
    },
    {
      "inputs": [
        {
          "internalType": "address",
          "name": "owner",
          "type": "address"
        }
      ],
      "name": "ERC721InvalidOwner",
      "type": "error"
    },
    {
      "inputs": [
        {
          "internalType": "address",
          "name": "receiver",
          "type": "address"
        }
      ],
      "name": "ERC721InvalidReceiver",
      "type": "error"
    },
    {
      "inputs": [
        {
          "internalType": "address",
          "name": "sender",
          "type": "address"
        }
      ],
      "name": "ERC721InvalidSender",
      "type": "error"
    },
    {
      "inputs": [
        {
          "internalType": "uint256",
          "name": "tokenId",
          "type": "uint256"
        }
      ],
      "name": "ERC721NonexistentToken",
      "type": "error"
    },
    {
      "inputs": [
        {
          "internalType": "address",
          "name": "owner",
          "type": "address"
        }
      ],
      "name": "OwnableInvalidOwner",
      "type": "error"
    },
    {
      "inputs": [
        {
          "internalType": "address",
          "name": "account",
          "type": "address"
        }
      ],
      "name": "OwnableUnauthorizedAccount",
      "type": "error"
    },
    {
      "anonymous": false,
      "inputs": [
        {
          "indexed": true,
          "internalType": "address",
          "name": "owner",
          "type": "address"
        },
        {
          "indexed": true,
          "internalType": "address",
          "name": "approved",
          "type": "address"
        },
        {
          "indexed": true,
          "internalType": "uint256",
          "name": "tokenId",
          "type": "uint256"
        }
      ],
      "name": "Approval",
      "type": "event"
    },
    {
      "anonymous": false,
      "inputs": [
        {
          "indexed": true,
          "internalType": "address",
          "name": "owner",
          "type": "address"
        },
        {
          "indexed": true,
          "internalType": "address",
          "name": "operator",
          "type": "address"
        },
        {
          "indexed": false,
          "internalType": "bool",
          "name": "approved",
          "type": "bool"
        }
      ],
      "name": "ApprovalForAll",
      "type": "event"
    },
    {
      "anonymous": false,
      "inputs": [
        {
          "indexed": true,
          "internalType": "uint256",
          "name": "tokenId",
          "type": "uint256"
        },
        {
          "indexed": false,
          "internalType": "string",
          "name": "loanId",
          "type": "string"
        },
        {
          "indexed": true,
          "internalType": "address",
          "name": "owner",
          "type": "address"
        },
        {
          "indexed": false,
          "internalType": "uint256",
          "name": "timestamp",
          "type": "uint256"
        }
      ],
      "name": "LoanNFTBurned",
      "type": "event"
    },
    {
      "anonymous": false,
      "inputs": [
        {
          "indexed": true,
          "internalType": "uint256",
          "name": "tokenId",
          "type": "uint256"
        },
        {
          "indexed": false,
          "internalType": "string",
          "name": "loanId",
          "type": "string"
        },
        {
          "indexed": true,
          "internalType": "address",
          "name": "lender",
          "type": "address"
        },
        {
          "indexed": false,
          "internalType": "uint256",
          "name": "originalBalance",
          "type": "uint256"
        },
        {
          "indexed": false,
          "internalType": "uint256",
          "name": "currentBalance",
          "type": "uint256"
        },
        {
          "indexed": false,
          "internalType": "uint256",
          "name": "timestamp",
          "type": "uint256"
        }
      ],
      "name": "LoanNFTMinted",
      "type": "event"
    },
    {
      "anonymous": false,
      "inputs": [
        {
          "indexed": true,
          "internalType": "uint256",
          "name": "tokenId",
          "type": "uint256"
        },
        {
          "indexed": false,
          "internalType": "string",
          "name": "loanId",
          "type": "string"
        },
        {
          "indexed": false,
          "internalType": "uint256",
          "name": "newBalance",
          "type": "uint256"
        },
        {
          "indexed": false,
          "internalType": "string",
          "name": "newStatus",
          "type": "string"
        },
        {
          "indexed": false,
          "internalType": "uint256",
          "name": "timestamp",
          "type": "uint256"
        }
      ],
      "name": "MetadataUpdated",
      "type": "event"
    },
    {
      "anonymous": false,
      "inputs": [
        {
          "indexed": true,
          "internalType": "address",
          "name": "previousOwner",
          "type": "address"
        },
        {
          "indexed": true,
          "internalType": "address",
          "name": "newOwner",
          "type": "address"
        }
      ],
      "name": "OwnershipTransferred",
      "type": "event"
    },
    {
      "anonymous": false,
      "inputs": [
        {
          "indexed": true,
          "internalType": "address",
          "name": "from",
          "type": "address"
        },
        {
          "indexed": true,
          "internalType": "address",
          "name": "to",
          "type": "address"
        },
        {
          "indexed": true,
          "internalType": "uint256",
          "name": "tokenId",
          "type": "uint256"
        }
      ],
      "name": "Transfer",
      "type": "event"
    },
    {
      "inputs": [
        {
          "internalType": "address",
          "name": "to",
          "type": "address"
        },
        {
          "internalType": "uint256",
          "name": "tokenId",
          "type": "uint256"
        }
      ],
      "name": "approve",
      "outputs": [],
      "stateMutability": "nonpayable",
      "type": "function"
    },
    {
      "inputs": [
        {
          "internalType": "uint256",
          "name": "tokenId",
          "type": "uint256"
        },
        {
          "internalType": "address",
          "name": "marketplace",
          "type": "address"
        }
      ],
      "name": "approveMarketplace",
      "outputs": [],
      "stateMutability": "nonpayable",
      "type": "function"
    },
    {
      "inputs": [
        {
          "internalType": "address",
          "name": "owner",
          "type": "address"
        }
      ],
      "name": "balanceOf",
      "outputs": [
        {
          "internalType": "uint256",
          "name": "",
          "type": "uint256"
        }
      ],
      "stateMutability": "view",
      "type": "function"
    },
    {
      "inputs": [],
      "name": "bridgeReceiver",
      "outputs": [
        {
          "internalType": "address",
          "name": "",
          "type": "address"
        }
      ],
      "stateMutability": "view",
      "type": "function"
    },
    {
      "inputs": [
        {
          "internalType": "uint256",
          "name": "tokenId",
          "type": "uint256"
        }
      ],
      "name": "burn",
      "outputs": [],
      "stateMutability": "nonpayable",
      "type": "function"
    },
    {
      "inputs": [
        {
          "internalType": "string",
          "name": "loanId",
          "type": "string"
        }
      ],
      "name": "burnByLoanId",
      "outputs": [],
      "stateMutability": "nonpayable",
      "type": "function"
    },
    {
      "inputs": [
        {
          "internalType": "string",
          "name": "loanId",
          "type": "string"
        }
      ],
      "name": "canMint",
      "outputs": [
        {
          "internalType": "bool",
          "name": "",
          "type": "bool"
        }
      ],
      "stateMutability": "view",
      "type": "function"
    },
    {
      "inputs": [
        {
          "internalType": "uint256",
          "name": "tokenId",
          "type": "uint256"
        }
      ],
      "name": "exists",
      "outputs": [
        {
          "internalType": "bool",
          "name": "",
          "type": "bool"
        }
      ],
      "stateMutability": "view",
      "type": "function"
    },
    {
      "inputs": [
        {
          "internalType": "uint256",
          "name": "tokenId",
          "type": "uint256"
        }
      ],
      "name": "getApproved",
      "outputs": [
        {
          "internalType": "address",
          "name": "",
          "type": "address"
        }
      ],
      "stateMutability": "view",
      "type": "function"
    },
    {
      "inputs": [
        {
          "internalType": "string",
          "name": "loanId",
          "type": "string"
        }
      ],
      "name": "getCurrentBalance",
      "outputs": [
        {
          "internalType": "uint256",
          "name": "",
          "type": "uint256"
        }
      ],
      "stateMutability": "view",
      "type": "function"
    },
    {
      "inputs": [
        {
          "internalType": "uint256",
          "name": "tokenId",
          "type": "uint256"
        }
      ],
      "name": "getLoanMetadata",
      "outputs": [
        {
          "components": [
            {
              "internalType": "string",
              "name": "loanId",
              "type": "string"
            },
            {
              "internalType": "uint256",
              "name": "originalBalance",
              "type": "uint256"
            },
            {
              "internalType": "uint256",
              "name": "currentBalance",
              "type": "uint256"
            },
            {
              "internalType": "uint256",
              "name": "noteRate",
              "type": "uint256"
            },
            {
              "internalType": "uint256",
              "name": "lenderOwnerPct",
              "type": "uint256"
            },
            {
              "internalType": "string",
              "name": "status",
              "type": "string"
            },
            {
              "internalType": "string",
              "name": "location",
              "type": "string"
            },
            {
              "internalType": "uint256",
              "name": "mintedAt",
              "type": "uint256"
            },
            {
              "internalType": "uint256",
              "name": "lastUpdated",
              "type": "uint256"
            }
          ],
          "internalType": "struct LoanNFT.LoanMetadata",
          "name": "",
          "type": "tuple"
        }
      ],
      "stateMutability": "view",
      "type": "function"
    },
    {
      "inputs": [
        {
          "internalType": "string",
          "name": "loanId",
          "type": "string"
        }
      ],
      "name": "getMintCount",
      "outputs": [
        {
          "internalType": "uint256",
          "name": "",
          "type": "uint256"
        }
      ],
      "stateMutability": "view",
      "type": "function"
    },
    {
      "inputs": [
        {
          "internalType": "string",
          "name": "loanId",
          "type": "string"
        }
      ],
      "name": "getOriginalBalance",
      "outputs": [
        {
          "internalType": "uint256",
          "name": "",
          "type": "uint256"
        }
      ],
      "stateMutability": "view",
      "type": "function"
    },
    {
      "inputs": [],
      "name": "getTotalMinted",
      "outputs": [
        {
          "internalType": "uint256",
          "name": "",
          "type": "uint256"
        }
      ],
      "stateMutability": "view",
      "type": "function"
    },
    {
      "inputs": [
        {
          "internalType": "address",
          "name": "owner",
          "type": "address"
        },
        {
          "internalType": "address",
          "name": "operator",
          "type": "address"
        }
      ],
      "name": "isApprovedForAll",
      "outputs": [
        {
          "internalType": "bool",
          "name": "",
          "type": "bool"
        }
      ],
      "stateMutability": "view",
      "type": "function"
    },
    {
      "inputs": [
        {
          "internalType": "string",
          "name": "",
          "type": "string"
        }
      ],
      "name": "isCurrentlyMinted",
      "outputs": [
        {
          "internalType": "bool",
          "name": "",
          "type": "bool"
        }
      ],
      "stateMutability": "view",
      "type": "function"
    },
    {
      "inputs": [
        {
          "internalType": "string",
          "name": "loanId",
          "type": "string"
        }
      ],
      "name": "isLoanMinted",
      "outputs": [
        {
          "internalType": "bool",
          "name": "",
          "type": "bool"
        }
      ],
      "stateMutability": "view",
      "type": "function"
    },
    {
      "inputs": [
        {
          "internalType": "string",
          "name": "",
          "type": "string"
        }
      ],
      "name": "loanIdToTokenId",
      "outputs": [
        {
          "internalType": "uint256",
          "name": "",
          "type": "uint256"
        }
      ],
      "stateMutability": "view",
      "type": "function"
    },
    {
      "inputs": [
        {
          "internalType": "uint256",
          "name": "",
          "type": "uint256"
        }
      ],
      "name": "loanMetadata",
      "outputs": [
        {
          "internalType": "string",
          "name": "loanId",
          "type": "string"
        },
        {
          "internalType": "uint256",
          "name": "originalBalance",
          "type": "uint256"
        },
        {
          "internalType": "uint256",
          "name": "currentBalance",
          "type": "uint256"
        },
        {
          "internalType": "uint256",
          "name": "noteRate",
          "type": "uint256"
        },
        {
          "internalType": "uint256",
          "name": "lenderOwnerPct",
          "type": "uint256"
        },
        {
          "internalType": "string",
          "name": "status",
          "type": "string"
        },
        {
          "internalType": "string",
          "name": "location",
          "type": "string"
        },
        {
          "internalType": "uint256",
          "name": "mintedAt",
          "type": "uint256"
        },
        {
          "internalType": "uint256",
          "name": "lastUpdated",
          "type": "uint256"
        }
      ],
      "stateMutability": "view",
      "type": "function"
    },
    {
      "inputs": [
        {
          "internalType": "string",
          "name": "loanId",
          "type": "string"
        },
        {
          "internalType": "address",
          "name": "lenderAddress",
          "type": "address"
        },
        {
          "internalType": "uint256",
          "name": "originalBalance",
          "type": "uint256"
        },
        {
          "internalType": "uint256",
          "name": "currentBalance",
          "type": "uint256"
        },
        {
          "internalType": "uint256",
          "name": "noteRate",
          "type": "uint256"
        },
        {
          "internalType": "uint256",
          "name": "lenderOwnerPct",
          "type": "uint256"
        },
        {
          "internalType": "string",
          "name": "status",
          "type": "string"
        },
        {
          "internalType": "string",
          "name": "location",
          "type": "string"
        }
      ],
      "name": "mint",
      "outputs": [
        {
          "internalType": "uint256",
          "name": "",
          "type": "uint256"
        }
      ],
      "stateMutability": "nonpayable",
      "type": "function"
    },
    {
      "inputs": [],
      "name": "name",
      "outputs": [
        {
          "internalType": "string",
          "name": "",
          "type": "string"
        }
      ],
      "stateMutability": "view",
      "type": "function"
    },
    {
      "inputs": [],
      "name": "owner",
      "outputs": [
        {
          "internalType": "address",
          "name": "",
          "type": "address"
        }
      ],
      "stateMutability": "view",
      "type": "function"
    },
    {
      "inputs": [
        {
          "internalType": "uint256",
          "name": "tokenId",
          "type": "uint256"
        }
      ],
      "name": "ownerOf",
      "outputs": [
        {
          "internalType": "address",
          "name": "",
          "type": "address"
        }
      ],
      "stateMutability": "view",
      "type": "function"
    },
    {
      "inputs": [],
      "name": "renounceOwnership",
      "outputs": [],
      "stateMutability": "nonpayable",
      "type": "function"
    },
    {
      "inputs": [
        {
          "internalType": "address",
          "name": "from",
          "type": "address"
        },
        {
          "internalType": "address",
          "name": "to",
          "type": "address"
        },
        {
          "internalType": "uint256",
          "name": "tokenId",
          "type": "uint256"
        }
      ],
      "name": "safeTransferFrom",
      "outputs": [],
      "stateMutability": "nonpayable",
      "type": "function"
    },
    {
      "inputs": [
        {
          "internalType": "address",
          "name": "from",
          "type": "address"
        },
        {
          "internalType": "address",
          "name": "to",
          "type": "address"
        },
        {
          "internalType": "uint256",
          "name": "tokenId",
          "type": "uint256"
        },
        {
          "internalType": "bytes",
          "name": "data",
          "type": "bytes"
        }
      ],
      "name": "safeTransferFrom",
      "outputs": [],
      "stateMutability": "nonpayable",
      "type": "function"
    },
    {
      "inputs": [
        {
          "internalType": "address",
          "name": "operator",
          "type": "address"
        },
        {
          "internalType": "bool",
          "name": "approved",
          "type": "bool"
        }
      ],
      "name": "setApprovalForAll",
      "outputs": [],
      "stateMutability": "nonpayable",
      "type": "function"
    },
    {
      "inputs": [
        {
          "internalType": "string",
          "name": "baseURI",
          "type": "string"
        }
      ],
      "name": "setBaseURI",
      "outputs": [],
      "stateMutability": "nonpayable",
      "type": "function"
    },
    {
      "inputs": [
        {
          "internalType": "address",
          "name": "_bridge",
          "type": "address"
        }
      ],
      "name": "setBridgeReceiver",
      "outputs": [],
      "stateMutability": "nonpayable",
      "type": "function"
    },
    {
      "inputs": [
        {
          "internalType": "bytes4",
          "name": "interfaceId",
          "type": "bytes4"
        }
      ],
      "name": "supportsInterface",
      "outputs": [
        {
          "internalType": "bool",
          "name": "",
          "type": "bool"
        }
      ],
      "stateMutability": "view",
      "type": "function"
    },
    {
      "inputs": [],
      "name": "symbol",
      "outputs": [
        {
          "internalType": "string",
          "name": "",
          "type": "string"
        }
      ],
      "stateMutability": "view",
      "type": "function"
    },
    {
      "inputs": [
        {
          "internalType": "uint256",
          "name": "",
          "type": "uint256"
        }
      ],
      "name": "tokenIdToLoanId",
      "outputs": [
        {
          "internalType": "string",
          "name": "",
          "type": "string"
        }
      ],
      "stateMutability": "view",
      "type": "function"
    },
    {
      "inputs": [
        {
          "internalType": "uint256",
          "name": "tokenId",
          "type": "uint256"
        }
      ],
      "name": "tokenURI",
      "outputs": [
        {
          "internalType": "string",
          "name": "",
          "type": "string"
        }
      ],
      "stateMutability": "view",
      "type": "function"
    },
    {
      "inputs": [
        {
          "internalType": "string",
          "name": "",
          "type": "string"
        }
      ],
      "name": "totalMintsPerLoan",
      "outputs": [
        {
          "internalType": "uint256",
          "name": "",
          "type": "uint256"
        }
      ],
      "stateMutability": "view",
      "type": "function"
    },
    {
      "inputs": [
        {
          "internalType": "address",
          "name": "from",
          "type": "address"
        },
        {
          "internalType": "address",
          "name": "to",
          "type": "address"
        },
        {
          "internalType": "uint256",
          "name": "tokenId",
          "type": "uint256"
        }
      ],
      "name": "transferFrom",
      "outputs": [],
      "stateMutability": "nonpayable",
      "type": "function"
    },
    {
      "inputs": [
        {
          "internalType": "address",
          "name": "newOwner",
          "type": "address"
        }
      ],
      "name": "transferOwnership",
      "outputs": [],
      "stateMutability": "nonpayable",
      "type": "function"
    },
    {
      "inputs": [
        {
          "internalType": "uint256",
          "name": "tokenId",
          "type": "uint256"
        },
        {
          "internalType": "uint256",
          "name": "newCurrentBalance",
          "type": "uint256"
        },
        {
          "internalType": "uint256",
          "name": "newNoteRate",
          "type": "uint256"
        },
        {
          "internalType": "uint256",
          "name": "newLenderOwnerPct",
          "type": "uint256"
        },
        {
          "internalType": "string",
          "name": "newStatus",
          "type": "string"
        },
        {
          "internalType": "string",
          "name": "newLocation",
          "type": "string"
        }
      ],
      "name": "updateFullMetadata",
      "outputs": [],
      "stateMutability": "nonpayable",
      "type": "function"
    },
    {
      "inputs": [
        {
          "internalType": "uint256",
          "name": "tokenId",
          "type": "uint256"
        },
        {
          "internalType": "uint256",
          "name": "newBalance",
          "type": "uint256"
        },
        {
          "internalType": "string",
          "name": "newStatus",
          "type": "string"
        }
      ],
      "name": "updateMetadata",
      "outputs": [],
      "stateMutability": "nonpayable",
      "type": "function"
    }
  ],
  "bytecode": "0x608034620003b757601f906001600160401b0390601f199062002fba388190038581018416830185811184821017620003a157839282916040528339602092839181010312620003b757516001600160a01b03948582169491859003620003b7576200006a620003bc565b9260088452672321a4902637b0b760c11b8185015262000089620003bc565b9060078252662321a4a627a0a760c91b81830152845195848711620003a1576000968754966001978881811c9116801562000396575b8582101462000382579081878493116200032f575b508490878311600114620002ce578a92620002c2575b5050600019600383901b1c191690871b1787555b8251948511620002ae5785548681811c91168015620002a3575b838210146200028f5790818587969594931162000236575b5081938511600114620001d15750508592620001c5575b5050600019600383901b1c191690821b1790555b8115620001ad57600680546001600160a01b0319811684179091556040519316907f8be0079c531659141344cd1fd0a4f28419497f9722a3daafe3b4186f6b6457e09080a3612bdd9081620003dd8239f35b60249060405190631e4fbdf760e01b82526004820152fd5b01519050388062000147565b869593929193168588528388209388905b8282106200021c575050841162000202575b505050811b0190556200015b565b015160001960f88460031b161c19169055388080620001f4565b8484015186558897909501949384019390810190620001e2565b9091929394508688528288208580880160051c82019285891062000285575b9188978a9297969594930160051c01915b8281106200027657505062000130565b8a815588975089910162000266565b9250819262000255565b634e487b7160e01b88526022600452602488fd5b90607f169062000118565b634e487b7160e01b87526041600452602487fd5b015190503880620000ea565b90848a9416918b8052868c20928c5b88828210620003185750508411620002fe575b505050811b018755620000fe565b015160001960f88460031b161c19169055388080620002f0565b8385015186558d97909501949384019301620002dd565b909150898052848a208780850160051c82019287861062000378575b918b91869594930160051c01915b82811062000369575050620000d4565b8c81558594508b910162000359565b925081926200034b565b634e487b7160e01b8a52602260045260248afd5b90607f1690620000bf565b634e487b7160e01b600052604160045260246000fd5b600080fd5b60408051919082016001600160401b03811183821017620003a15760405256fe608080604052600436101561001357600080fd5b60003560e01c90816301ffc9a71461208f5750806306fdde0314611fff578063081812fc14611fc1578063095ea7b314611f9a5780630a20897214611f715780630ca1c5c914611f535780632266f5bb14611e1d57806323b872dd14611f3c57806342842e0e14611f0e57806342966c6814611e6b5780634b6e9bf314611e1d5780634f558e7914611de757806355f804b314611cc8578063604ed12b14611b055780636352211e14611ad557806365b38df4146116c957806370a0823114611a7c578063715018a614611a3157806377703f0d146119cb5780638da5cb5b146119a257806394b9df021461195557806394cf1fb1146117c457806395d89b41146117125780639802b8f0146116c9578063a22cb46514611624578063b88d4fde146115b8578063c271224814611552578063c57cca4f14611501578063c87b56dd146112e2578063cf5d00a814611286578063d044e81f14611202578063e504528614611152578063e6bf24aa14611068578063e7754d1114610734578063e985e9c5146106de578063ee89f3e314610413578063f2fde38b1461039d5763ff09a1a4146101c157600080fd5b34610398576060366003190112610398576001600160401b03600435602435604435838111610398576101f890369060040161221a565b9060018060a01b0393610210856008541633146123aa565b8360005261022c60209560028752604060002054161515612400565b83600052600d8552600560406000208360028201550190835190811161038257610256825461226d565b601f8111610347575b5085601f82116001146102d0579161029482600080516020612b51833981519152979893600a956000916102c5575b5061245a565b90555b85600052600d815242600860406000200155526102c06040600020604051938493429285612561565b0390a2005b90508701513861028e565b601f1982169083600052876000209160005b818110610330575092600a949260019282600080516020612b518339815191529a9b9610610317575b5050811b019055610297565b88015160001960f88460031b161c19169055388061030b565b91928960018192868b0151815501940192016102e2565b610372908360005287600020601f840160051c810191898510610378575b601f0160051c0190612443565b3861025f565b9091508190610365565b634e487b7160e01b600052604160045260246000fd5b600080fd5b34610398576020366003190112610398576103b6612142565b6103be61267e565b6001600160a01b039081169081156103fa57600680546001600160a01b03198116841790915516600080516020612b91833981519152600080a3005b604051631e4fbdf760e01b815260006004820152602490fd5b346103985760c0366003190112610398576001600160401b036004356024356084358381116103985761044a90369060040161221a565b9060a4358481116103985761046390369060040161221a565b6008546001600160a01b0395919061047e90871633146123aa565b8460005261049a60209660028852604060002054161515612400565b84600052600d86526040600020918360028401556044356003840155606435600484015560058301855190828211610382576104d6815461226d565b91601f928a8482116106af575b50508983821160011461064a5790806105039260009161063f575061245a565b90555b600684019280519283116103825761051e845461226d565b828111610607575b508891831160011461058c5782600a9593600080516020612b51833981519152999a959361055d93600092610581575b505061245a565b90555b60084291015585600052526102c06040600020604051938493429285612561565b015190508b80610556565b90601f1983169184600052896000209260005b8181106105f05750926001928592600a9896600080516020612b518339815191529c9d9896106105d7575b505050811b019055610560565b015160001960f88460031b161c191690558a80806105ca565b92938b60018192878601518155019501930161059f565b61063090856000528a6000208480870160051c8201928d8810610636575b0160051c0190612443565b89610526565b92508192610625565b90508901518c61028e565b601f19821690836000528b6000209160005b8d8c83831061069a575050509083600194939210610681575b5050811b019055610506565b8a015160001960f88460031b161c191690558b80610675565b8401518555600190940193928301920161065c565b6106d7918460005285826000209181860160051c8301938610610636570160051c0190612443565b8a8a6104e3565b34610398576040366003190112610398576106f7612142565b6106ff612158565b9060018060a01b03809116600052600560205260406000209116600052602052602060ff604060002054166040519015158152f35b3461039857610100366003190112610398576004356001600160401b0381116103985761076590369060040161221a565b61076d612158565b9060c4356001600160401b0381116103985761078d90369060040161221a565b9160e4356001600160401b038111610398576107ad90369060040161221a565b916107c360018060a01b036008541633146123aa565b60ff60405160208184516107da81838589016120fa565b8101600b81520301902054166110235760405160208183516107ff81838588016120fa565b8101600981520301902054610fde576001600160a01b03821615610fa05760643515610f6557805115610f2b5761083760075461253c565b92836007556040516108488161218a565b600081526001600160a01b0361085e86866125d0565b16610f1257833b610dd4575b508360405160208185516108818183858a016120fa565b600990820190815203019020556000848152600a6020526040902082516001600160401b038111610382576108b6825461226d565b601f8111610da2575b506020601f8211600114610d3c5790806108e092600091610d31575061245a565b90555b60405160208184516108f881838589016120fa565b8101600b815203019020600160ff19825416179055604051602081845161092281838589016120fa565b8101600c815203019020610936815461253c565b9055604051946109458661216e565b82865260443560208701526064356040870152608435606087015260a435608087015260a086015260c08501524260e08501524261010085015282600052600d602052604060002090845180519060018060401b038211610382576109aa845461226d565b601f8111610cff575b50602090601f8311600114610c93576109d6929160009183610be557505061245a565b82555b6020850151600183015560408501516002830155606085015160038301556080850151600483015560a08501518051906001600160401b03821161038257610a24600585015461226d565b601f8111610c5e575b50602090601f8311600114610bf057610a50929160009183610be557505061245a565b60058301555b60c08501518051959092906001600160401b038711610382576020968694610a81600685015461226d565b601f8111610bb2575b508890601f8311600114610b2757600080516020612b318339815191529593610ac784610af0979560089561010095600092610b1c57505061245a565b60068501555b60e08101516007850155015191015560405191829160808352608083019061211d565b6044358289015260643560408301524260608301526001600160a01b03909516940390a3604051908152f35b015190508e80610556565b9060068501600052896000209160005b601f1985168110610b9857509360018460089461010094600080516020612b318339815191529a98610af09a98601f19811610610b7f575b505050811b016006850155610acd565b015160001960f88460031b161c191690558d8080610b6f565b8183015184558a9850600190930192918b01918b01610b37565b610bdf90600686016000528a600020601f850160051c8101918c861061037857601f0160051c0190612443565b89610a8a565b015190508880610556565b90601f198316916005860160005260206000209260005b818110610c465750908460019594939210610c2d575b505050811b016005830155610a56565b015160001960f88460031b161c19169055878080610c1d565b92936020600181928786015181550195019301610c07565b610c8d90600586016000526020600020601f850160051c8101916020861061037857601f0160051c0190612443565b87610a2d565b9190846000526020600020906000935b601f1984168510610ce4576001945083601f19811610610ccb575b505050811b0182556109d9565b015160001960f88460031b161c19169055878080610cbe565b81810151835560209485019460019093019290910190610ca3565b610d2b90856000526020600020601f850160051c8101916020861061037857601f0160051c0190612443565b876109b3565b90508501518961028e565b908260005260206000206000925b601f1983168410610d8a576001935082601f19811610610d71575b5050811b0190556108e3565b86015160001960f88460031b161c191690558880610d65565b86810151825560209384019360019092019101610d4a565b610dce90836000526020600020601f840160051c8101916020851061037857601f0160051c0190612443565b876108bf565b6040959493955160208180610e12630a85bd0160e11b958683523360048401526000602484015289604484015260806064840152608483019061211d565b038160006001600160a01b038c165af160009181610ecd575b50610e9357863d15610e8b573d90610e42826121c8565b91610e5060405193846121a5565b82523d6000602084013e5b81519182610e8457604051633250574960e11b81526001600160a01b0383166004820152602490fd5b6020915001fd5b606090610e5b565b949593946001600160e01b03191603610eac578561086a565b604051633250574960e11b81526001600160a01b0384166004820152602490fd5b9091506020813d602011610f0a575b81610ee9602093836121a5565b8101031261039857516001600160e01b031981168103610398579088610e2b565b3d9150610edc565b6040516339e3563760e11b815260006004820152602490fd5b60405162461bcd60e51b8152602060048201526012602482015271131bd85b9259081a5cc81c995c5d5a5c995960721b6044820152606490fd5b60405162461bcd60e51b8152602060048201526013602482015272042616c616e6365206d757374206265203e203606c1b6044820152606490fd5b60405162461bcd60e51b8152602060048201526016602482015275496e76616c6964206c656e646572206164647265737360501b6044820152606490fd5b60405162461bcd60e51b815260206004820152601d60248201527f4c6f616e20616c7265616479206861732061637469766520746f6b656e0000006044820152606490fd5b60405162461bcd60e51b815260206004820152601d60248201527f4c6f616e2063757272656e746c792068617320616374697665204e46540000006044820152606490fd5b3461039857602036600319011261039857600435600052600d6020526111126040600020604051906110a58261109e81846122a7565b03836121a5565b60018101546111426002830154916111346003850154916004860154604051906110d68261109e8160058c016122a7565b604051946110f2866110eb8160068d016122a7565b03876121a5565b600860078a0154990154976040519b8c9b8c6101208091528d019061211d565b9460208c015260408b015260608a0152608089015287820360a089015261211d565b9085820360c087015261211d565b9160e08401526101008301520390f35b346103985760403660031901126103985760043561116e612158565b6008546001600160a01b03929061118890841633146123aa565b8060005260026020526111a383604060002054161515612400565b828216156111c7576111c59281600052600260205260406000205416916127f7565b005b60405162461bcd60e51b8152602060048201526013602482015272496e76616c6964206d61726b6574706c61636560681b6044820152606490fd5b346103985760203660031901126103985761121b612142565b61122361267e565b6001600160a01b0316801561124857600880546001600160a01b031916919091179055005b60405162461bcd60e51b8152602060048201526016602482015275496e76616c696420627269646765206164647265737360501b6044820152606490fd5b34610398576020366003190112610398576004356001600160401b038111610398576112cf60206112bc8193369060040161221a565b81604051938285809451938492016120fa565b8101600981520301902054604051908152f35b34610398576020806003193601126103985760043590816000526002815261131860018060a01b03604060002054161515612400565b600e546113248161226d565b156114a957604051908160006113398361226d565b9283835260019086600182169182600014611489575050600114611449575b50611365925003826121a5565b915b600052600a815260406000206040518361138a82955180928680860191016120fa565b8101600090835461139a8161226d565b94600191876001821691826000146114285750506001146113e4575b5050506113cc925003601f1981018452836121a5565b6113e060405192828493845283019061211d565b0390f35b8693506000959291955282600020946000955b83871061140f5750506113cc945001018580806113b6565b80548388018601529390950194879450869381016113f7565b92509450506113cc95915060ff1916838301528015150201018580806113b6565b859150600e60005281600020906000915b858310611471575050611365935082010186611358565b8054838801850152869450879390920191810161145a565b60ff19168582015261136595151560051b85010192508891506113589050565b50604051606081016001600160401b0381118282101761038257604052602381527f68747470733a2f2f6170692e6663692d6c6f616e732e636f6d2f6d6574616461828201526274612f60e81b604082015291611367565b3461039857602036600319011261039857600435600052600a6020526113e061153761153e6040600020604051928380926122a7565b03826121a5565b60405191829160208352602083019061211d565b34610398576020366003190112610398576004356001600160401b0381116103985760206112bc61158792369060040161221a565b810160098152030190205461159d8115156124fe565b600052600d6020526020600260406000200154604051908152f35b34610398576080366003190112610398576115d1612142565b6115d9612158565b6064359190604435906001600160401b0384116103985736602385011215610398576116126111c59436906024816004013591016121e3565b9261161e83838361233d565b336126aa565b346103985760403660031901126103985761163d612142565b60243590811515809203610398576001600160a01b03169081156116b057336000526005602052604060002082600052602052604060002060ff1981541660ff83161790556040519081527f17307eab39ab6107e8899845ad3d59bd9653f200f220920489ca2b5937696c3160203392a3005b604051630b61174360e31b815260048101839052602490fd5b34610398576020366003190112610398576004356001600160401b038111610398576116ff60206112bc8193369060040161221a565b8101600c81520301902054604051908152f35b34610398576000366003190112610398576040516000600182600154926117388461226d565b92838352602094856001821691826000146117a4575050600114611764575b506113cc925003836121a5565b849150600160005281600020906000915b85831061178c5750506113cc935082010185611757565b80548389018501528794508693909201918101611775565b60ff1916858201526113cc95151560051b85010192508791506117579050565b3461039857602080600319360112610398576004356001600160401b038111610398576117f590369060040161221a565b6008546001600160a01b03919061180f90831633146123aa565b6040519281519381818185019661182781838a6120fa565b81016009815203019020549283156119105791816118d661190593600080516020612b7183398151915295876000526002825261186c81604060002054161515612400565b876000526002825260406000205416976000604051838188516118908183886120fa565b810160098152030190205587600052600a82526118b0604060002061246d565b87600052600d82526118c560406000206124b6565b6040518093819287519283916120fa565b8101600b81520301902060ff1981541690556118f185612664565b60405192839260408452604084019061211d565b9042908301520390a3005b60405162461bcd60e51b815260048101839052601d60248201527f4e6f2061637469766520746f6b656e20666f722074686973206c6f616e0000006044820152606490fd5b34610398576020366003190112610398576004356001600160401b0381116103985760ff61198d60206112bc8194369060040161221a565b8101600b815203019020541615604051908152f35b34610398576000366003190112610398576006546040516001600160a01b039091168152602090f35b34610398576020366003190112610398576004356001600160401b0381116103985760206112bc611a0092369060040161221a565b8101600981520301902054611a168115156124fe565b600052600d6020526020600160406000200154604051908152f35b3461039857600036600319011261039857611a4a61267e565b600680546001600160a01b031981169091556000906001600160a01b0316600080516020612b918339815191528280a3005b34610398576020366003190112610398576001600160a01b03611a9d612142565b168015611abc5760005260036020526020604060002054604051908152f35b6040516322718ad960e21b815260006004820152602490fd5b34610398576020366003190112610398576020611af3600435612595565b6040516001600160a01b039091168152f35b34610398576020806003193601126103985760043560405191611b278361216e565b6060918284528184016000905260408401600090528284016000905260808401600090528260a08501528260c085015260e0840160009052610100809401600090528060005260028252600160a01b60019003604060002054161515611b8c90612400565b600052600d815260406000209060405192611ba68461216e565b60405180611bb481866122a7565b03611bbf90826121a5565b845260018301549482850195865260028401549560408601968752600385015483870190815260048601546080880190815260405190818060058a0190611c05916122a7565b03611c1090836121a5565b60a089019182526040519283611c298160068c016122a7565b03611c3490856121a5565b60c08a0193845260078901549860e08b01998a526008015496868b019788526040519b8c9b8a8d52518c6101209b8c9101526101408d01611c749161211d565b965160408d015251908b01525160808a01525160a089015251601f1992838982030160c08a0152611ca49161211d565b9051918782030160e0880152611cb99161211d565b93519085015251908301520390f35b3461039857602080600319360112610398576001600160401b0360043581811161039857611cfa90369060040161221a565b91611d0361267e565b825191821161038257611d17600e5461226d565b601f8111611db6575b5080601f8311600114611d5257508190611d4293600092611d4757505061245a565b600e55005b015190508380610556565b90601f19831693600e60005282600020926000905b868210611d9e5750508360019510611d85575b505050811b01600e55005b015160001960f88460031b161c19169055828080611d7a565b80600185968294968601518155019501930190611d67565b611de190600e60005282600020601f850160051c81019184861061037857601f0160051c0190612443565b83611d20565b34610398576020366003190112610398576004356000526002602052602060018060a01b03604060002054161515604051908152f35b34610398576020366003190112610398576004356001600160401b0381116103985760ff611e5560206112bc8194369060040161221a565b8101600b81520301902054166040519015158152f35b346103985760208060031936011261039857600435600080516020612b7183398151915261190561109e60018060a01b03611eab816008541633146123aa565b8460005260028652611ec581604060002054161515612400565b84600052600a8652611ee16040600020604051938480926122a7565b846000526002865260406000205416946118d68160405160008551918381818901946118908183886120fa565b34610398576111c5611f1f36612238565b9060405192611f2d8461218a565b6000845261161e83838361233d565b34610398576111c5611f4d36612238565b9161233d565b34610398576000366003190112610398576020600754604051908152f35b34610398576000366003190112610398576008546040516001600160a01b039091168152602090f35b34610398576040366003190112610398576111c5611fb6612142565b3390602435906127f7565b3461039857602036600319011261039857600435611fde81612595565b506000526004602052602060018060a01b0360406000205416604051908152f35b34610398576000366003190112610398576040516000805490826120228361226d565b91828252602093600190856001821691826000146117a457505060011461205057506113cc925003836121a5565b8491506000805281600020906000915b8583106120775750506113cc935082010185611757565b80548389018501528794508693909201918101612060565b34610398576020366003190112610398576004359063ffffffff60e01b8216809203610398576020916380ac58cd60e01b81149081156120e9575b81156120d8575b5015158152f35b6301ffc9a760e01b149050836120d1565b635b5e139f60e01b811491506120ca565b60005b83811061210d5750506000910152565b81810151838201526020016120fd565b90602091612136815180928185528580860191016120fa565b601f01601f1916010190565b600435906001600160a01b038216820361039857565b602435906001600160a01b038216820361039857565b61012081019081106001600160401b0382111761038257604052565b602081019081106001600160401b0382111761038257604052565b601f909101601f19168101906001600160401b0382119082101761038257604052565b6001600160401b03811161038257601f01601f191660200190565b9291926121ef826121c8565b916121fd60405193846121a5565b829481845281830111610398578281602093846000960137010152565b9080601f8301121561039857816020612235933591016121e3565b90565b6060906003190112610398576001600160a01b0390600435828116810361039857916024359081168103610398579060443590565b90600182811c9216801561229d575b602083101461228757565b634e487b7160e01b600052602260045260246000fd5b91607f169161227c565b8054600093926122b68261226d565b9182825260209360019160018116908160001461231e57506001146122dd575b5050505050565b90939495506000929192528360002092846000945b83861061230a575050505001019038808080806122d6565b8054858701830152940193859082016122f2565b60ff19168685015250505090151560051b0101915038808080806122d6565b91906001600160a01b0390818116156123915761235d8291843391612631565b931692169082820361236e57505050565b60649350604051926364283d7b60e01b8452600484015260248301526044820152fd5b604051633250574960e11b815260006004820152602490fd5b156123b157565b60405162461bcd60e51b815260206004820152602160248201527f4f6e6c792042726964676552656365697665722063616e2063616c6c207468696044820152607360f81b6064820152608490fd5b1561240757565b60405162461bcd60e51b8152602060048201526014602482015273151bdad95b88191bd95cc81b9bdd08195e1a5cdd60621b6044820152606490fd5b81811061244e575050565b60008155600101612443565b8160011b916000199060031b1c19161790565b612477815461226d565b9081612481575050565b81601f60009311600114612493575055565b9080839182526124b2601f60208420940160051c840160018501612443565b5555565b6124bf8161246d565b60086000918260018201558260028201558260038201558260048201556124e86005820161246d565b6124f46006820161246d565b8260078201550155565b1561250557565b60405162461bcd60e51b815260206004820152600f60248201526e131bd85b881b9bdd081b5a5b9d1959608a1b6044820152606490fd5b600019811461254b5760010190565b634e487b7160e01b600052601160045260246000fd5b9493929160609261257d612590936080895260808901906122a7565b916020880152868203604088015261211d565b930152565b6000818152600260205260409020546001600160a01b03169081156125b8575090565b60249060405190637e27328960e01b82526004820152fd5b6000828152600260205260409020549091906001600160a01b0316156125f957612235916128bb565b612235916128bb565b6000818152600260205260409020546001600160a01b0316156126285761223590612961565b61223590612961565b600082815260026020526040902054909291906001600160a01b03161561265b57612235926129e2565b612235926129e2565b6001600160a01b0361267582612602565b16156125b85750565b6006546001600160a01b0316330361269257565b60405163118cdaa760e01b8152336004820152602490fd5b90939192833b6126bb575050505050565b604051630a85bd0160e11b8082526001600160a01b03938416600483015295831660248201526044810191909152608060648201529492169260209291859061270890608483019061211d565b039483816000978189895af18691816127b3575b5061277d575050503d600014612774573d612736816121c8565b9061274460405192836121a5565b81528093823d92013e5b8251928361276f57604051633250574960e11b815260048101849052602490fd5b019050fd5b6060925061274e565b919450915063ffffffff60e01b160361279b575038808080806122d6565b60249060405190633250574960e11b82526004820152fd5b9091508481813d83116127f0575b6127cb81836121a5565b810103126127ec57516001600160e01b0319811681036127ec57903861271c565b8680fd5b503d6127c1565b61280082612595565b6001600160a01b03939091908416801515806128af575b80612888575b612870575083169282918491167f8c5be1e5ebec7d5bd14f71427d1e84f3dd0314c0f7b2291e5b200ac8c7c3b925600080a4600090815260046020526040902080546001600160a01b0319169091179055565b6024906040519063a9fbf51f60e01b82526004820152fd5b50848316600052600560205260406000208160005260205260ff604060002054161561281d565b50808584161415612817565b6000828152600260205260408120546001600160a01b0390811693928491600080516020612bb18339815191529183612930575b169283612918575b84815260026020526040812080546001600160a01b0319168517905580a490565b838152600360205260408120600181540190556128f7565b60046020908152604080872080546001600160a01b03191690558587526003909152852080546000190190556128ef565b6000818152600260205260408120546001600160a01b03169190826129b1575b81815260026020526040812080546001600160a01b031916905582600080516020612bb18339815191528280a490565b60046020908152604080832080546001600160a01b0319169055848352600390915281208054600019019055612981565b916000928284526020916002835260018060a01b03946040868082842054169788941680151580612a92575b50506002908495600080516020612bb183398151915295612a63575b169586612a4d575b87845252812080546001600160a01b0319168517905580a490565b8684526003815282842060018154019055612a32565b8885526004885283852080546001600160a01b0319169055868552600388528385208054600019019055612a2a565b9395929450909280612aef575b15612ab05791828894929593612a0e565b8684918915600014612ad357506024915190637e27328960e01b82526004820152fd5b90604492519163177e802f60e01b835260048301526024820152fd5b508088148015612b14575b80612a9f5750868552600486528083858720541614612a9f565b5087855260058652838520818652865260ff8486205416612afa56fe0a5823a22bd41d00f20d3291468c3e4aa6027b5704e6fd9b950b9dbc853981ad0d2d5acdd26bfdd3bca82de53d50873b481e1c10abf677ad3333adc44aaee98bc16c17890c8dd059530bdb2682e5c027a34b73b70b0af8356b2a389ae7753bd58be0079c531659141344cd1fd0a4f28419497f9722a3daafe3b4186f6b6457e0ddf252ad1be2c89b69c2b068fc378daa952ba7f163c4a11628f55a4df523b3efa164736f6c6343000818000a",
  "linkReferences": {},
  "deployedLinkReferences": {}
}