{
  "_format": "hh-sol-artifact-1",
  "contractName": "MarketplaceBridge",
  "sourceName": "src/MarketplaceBridge.sol",
  "abi": [
    {
      "inputs": [
        {
          "internalType": "address",
          "name": "initialOwner",
          "type": "address"
        },
        {
          "internalType": "address",
          "name": "_loanRegistry",
          "type": "address"
        }
      ],
      "stateMutability": "nonpayable",
      "type": "constructor"
    },
    {
      "inputs": [
        {
          "internalType": "address",
          "name": "owner",
          "type": "address"
        }
      ],
      "name": "OwnableInvalidOwner",
      "type": "error"
    },
    {
      "inputs": [
        {
          "internalType": "address",
          "name": "account",
          "type": "address"
        }
      ],
      "name": "OwnableUnauthorizedAccount",
      "type": "error"
    },
    {
      "anonymous": false,
      "inputs": [
        {
          "indexed": true,
          "internalType": "string",
          "name": "loanId",
          "type": "string"
        },
        {
          "indexed": false,
          "internalType": "uint256",
          "name": "tokenId",
          "type": "uint256"
        },
        {
          "indexed": false,
          "internalType": "uint256",
          "name": "timestamp",
          "type": "uint256"
        }
      ],
      "name": "AvalancheTokenIdSet",
      "type": "event"
    },
    {
      "anonymous": false,
      "inputs": [
        {
          "indexed": true,
          "internalType": "string",
          "name": "loanId",
          "type": "string"
        },
        {
          "indexed": true,
          "internalType": "uint256",
          "name": "tokenId",
          "type": "uint256"
        },
        {
          "indexed": false,
          "internalType": "uint256",
          "name": "timestamp",
          "type": "uint256"
        }
      ],
      "name": "EmergencyUnlockNeedsSync",
      "type": "event"
    },
    {
      "anonymous": false,
      "inputs": [
        {
          "indexed": true,
          "internalType": "string",
          "name": "loanId",
          "type": "string"
        },
        {
          "indexed": true,
          "internalType": "address",
          "name": "lenderAddress",
          "type": "address"
        },
        {
          "indexed": false,
          "internalType": "uint256",
          "name": "timestamp",
          "type": "uint256"
        }
      ],
      "name": "LoanApprovalCancelled",
      "type": "event"
    },
    {
      "anonymous": false,
      "inputs": [
        {
          "indexed": true,
          "internalType": "string",
          "name": "loanId",
          "type": "string"
        },
        {
          "indexed": true,
          "internalType": "address",
          "name": "lenderAddress",
          "type": "address"
        },
        {
          "indexed": false,
          "internalType": "uint256",
          "name": "askingPrice",
          "type": "uint256"
        },
        {
          "indexed": false,
          "internalType": "uint256",
          "name": "timestamp",
          "type": "uint256"
        }
      ],
      "name": "LoanApprovedForSale",
      "type": "event"
    },
    {
      "anonymous": false,
      "inputs": [
        {
          "indexed": true,
          "internalType": "string",
          "name": "loanId",
          "type": "string"
        },
        {
          "indexed": false,
          "internalType": "uint256",
          "name": "timestamp",
          "type": "uint256"
        }
      ],
      "name": "LoanPaidOff",
      "type": "event"
    },
    {
      "anonymous": false,
      "inputs": [
        {
          "indexed": true,
          "internalType": "string",
          "name": "loanId",
          "type": "string"
        },
        {
          "indexed": true,
          "internalType": "uint256",
          "name": "tokenId",
          "type": "uint256"
        },
        {
          "indexed": false,
          "internalType": "uint256",
          "name": "timestamp",
          "type": "uint256"
        }
      ],
      "name": "NFTBurnConfirmed",
      "type": "event"
    },
    {
      "anonymous": false,
      "inputs": [
        {
          "indexed": true,
          "internalType": "string",
          "name": "loanId",
          "type": "string"
        },
        {
          "indexed": true,
          "internalType": "uint256",
          "name": "tokenId",
          "type": "uint256"
        },
        {
          "indexed": true,
          "internalType": "address",
          "name": "requester",
          "type": "address"
        },
        {
          "indexed": false,
          "internalType": "uint256",
          "name": "timestamp",
          "type": "uint256"
        }
      ],
      "name": "NFTBurnRequired",
      "type": "event"
    },
    {
      "anonymous": false,
      "inputs": [
        {
          "indexed": true,
          "internalType": "address",
          "name": "previousOwner",
          "type": "address"
        },
        {
          "indexed": true,
          "internalType": "address",
          "name": "newOwner",
          "type": "address"
        }
      ],
      "name": "OwnershipTransferred",
      "type": "event"
    },
    {
      "anonymous": false,
      "inputs": [
        {
          "indexed": true,
          "internalType": "string",
          "name": "loanId",
          "type": "string"
        },
        {
          "indexed": true,
          "internalType": "address",
          "name": "newOwner",
          "type": "address"
        },
        {
          "indexed": false,
          "internalType": "uint256",
          "name": "salePrice",
          "type": "uint256"
        },
        {
          "indexed": false,
          "internalType": "uint256",
          "name": "timestamp",
          "type": "uint256"
        }
      ],
      "name": "OwnershipTransferred",
      "type": "event"
    },
    {
      "anonymous": false,
      "inputs": [
        {
          "indexed": true,
          "internalType": "string",
          "name": "loanId",
          "type": "string"
        },
        {
          "indexed": false,
          "internalType": "uint256",
          "name": "amount",
          "type": "uint256"
        },
        {
          "indexed": false,
          "internalType": "uint256",
          "name": "timestamp",
          "type": "uint256"
        }
      ],
      "name": "PaymentRecorded",
      "type": "event"
    },
    {
      "inputs": [
        {
          "internalType": "string",
          "name": "loanId",
          "type": "string"
        },
        {
          "internalType": "uint256",
          "name": "askingPrice",
          "type": "uint256"
        }
      ],
      "name": "approveLoanForSale",
      "outputs": [
        {
          "internalType": "bool",
          "name": "",
          "type": "bool"
        }
      ],
      "stateMutability": "nonpayable",
      "type": "function"
    },
    {
      "inputs": [
        {
          "internalType": "string",
          "name": "loanId",
          "type": "string"
        }
      ],
      "name": "canApproveLoan",
      "outputs": [
        {
          "internalType": "bool",
          "name": "canApprove",
          "type": "bool"
        },
        {
          "internalType": "string",
          "name": "reason",
          "type": "string"
        }
      ],
      "stateMutability": "view",
      "type": "function"
    },
    {
      "inputs": [
        {
          "internalType": "string",
          "name": "loanId",
          "type": "string"
        }
      ],
      "name": "canBeMinted",
      "outputs": [
        {
          "internalType": "bool",
          "name": "",
          "type": "bool"
        }
      ],
      "stateMutability": "view",
      "type": "function"
    },
    {
      "inputs": [
        {
          "internalType": "string",
          "name": "loanId",
          "type": "string"
        }
      ],
      "name": "canCancel",
      "outputs": [
        {
          "internalType": "bool",
          "name": "canCancelNow",
          "type": "bool"
        },
        {
          "internalType": "bool",
          "name": "needsBurn",
          "type": "bool"
        }
      ],
      "stateMutability": "view",
      "type": "function"
    },
    {
      "inputs": [
        {
          "internalType": "string",
          "name": "loanId",
          "type": "string"
        }
      ],
      "name": "cancelSaleListing",
      "outputs": [
        {
          "internalType": "bool",
          "name": "",
          "type": "bool"
        }
      ],
      "stateMutability": "nonpayable",
      "type": "function"
    },
    {
      "inputs": [
        {
          "internalType": "string",
          "name": "loanId",
          "type": "string"
        }
      ],
      "name": "confirmBurnAndCancel",
      "outputs": [
        {
          "internalType": "bool",
          "name": "",
          "type": "bool"
        }
      ],
      "stateMutability": "nonpayable",
      "type": "function"
    },
    {
      "inputs": [
        {
          "internalType": "string",
          "name": "loanId",
          "type": "string"
        }
      ],
      "name": "emergencyUnlock",
      "outputs": [
        {
          "internalType": "bool",
          "name": "",
          "type": "bool"
        }
      ],
      "stateMutability": "nonpayable",
      "type": "function"
    },
    {
      "inputs": [
        {
          "internalType": "string",
          "name": "loanId",
          "type": "string"
        }
      ],
      "name": "forceUnlockPaidOffLoan",
      "outputs": [
        {
          "internalType": "bool",
          "name": "",
          "type": "bool"
        }
      ],
      "stateMutability": "nonpayable",
      "type": "function"
    },
    {
      "inputs": [
        {
          "internalType": "string",
          "name": "loanId",
          "type": "string"
        }
      ],
      "name": "getApprovalData",
      "outputs": [
        {
          "components": [
            {
              "internalType": "bool",
              "name": "isApproved",
              "type": "bool"
            },
            {
              "internalType": "uint256",
              "name": "askingPrice",
              "type": "uint256"
            },
            {
              "internalType": "address",
              "name": "lenderAddress",
              "type": "address"
            },
            {
              "internalType": "uint256",
              "name": "approvalTimestamp",
              "type": "uint256"
            },
            {
              "internalType": "bool",
              "name": "isMinted",
              "type": "bool"
            },
            {
              "internalType": "bool",
              "name": "isCancelled",
              "type": "bool"
            }
          ],
          "internalType": "struct MarketplaceBridge.ApprovalData",
          "name": "",
          "type": "tuple"
        }
      ],
      "stateMutability": "view",
      "type": "function"
    },
    {
      "inputs": [
        {
          "internalType": "bytes32",
          "name": "txHash",
          "type": "bytes32"
        }
      ],
      "name": "getApprovalDataByTxHash",
      "outputs": [
        {
          "components": [
            {
              "internalType": "bool",
              "name": "isApproved",
              "type": "bool"
            },
            {
              "internalType": "uint256",
              "name": "askingPrice",
              "type": "uint256"
            },
            {
              "internalType": "address",
              "name": "lenderAddress",
              "type": "address"
            },
            {
              "internalType": "uint256",
              "name": "approvalTimestamp",
              "type": "uint256"
            },
            {
              "internalType": "bool",
              "name": "isMinted",
              "type": "bool"
            },
            {
              "internalType": "bool",
              "name": "isCancelled",
              "type": "bool"
            }
          ],
          "internalType": "struct MarketplaceBridge.ApprovalData",
          "name": "",
          "type": "tuple"
        },
        {
          "internalType": "string",
          "name": "",
          "type": "string"
        }
      ],
      "stateMutability": "view",
      "type": "function"
    },
    {
      "inputs": [
        {
          "internalType": "string",
          "name": "loanId",
          "type": "string"
        }
      ],
      "name": "getApprovalTxHash",
      "outputs": [
        {
          "internalType": "bytes32",
          "name": "",
          "type": "bytes32"
        }
      ],
      "stateMutability": "view",
      "type": "function"
    },
    {
      "inputs": [
        {
          "internalType": "address",
          "name": "lenderAddress",
          "type": "address"
        }
      ],
      "name": "getApprovedLoansByLender",
      "outputs": [
        {
          "internalType": "string[]",
          "name": "",
          "type": "string[]"
        }
      ],
      "stateMutability": "view",
      "type": "function"
    },
    {
      "inputs": [
        {
          "internalType": "string",
          "name": "loanId",
          "type": "string"
        }
      ],
      "name": "getApprover",
      "outputs": [
        {
          "internalType": "address",
          "name": "",
          "type": "address"
        }
      ],
      "stateMutability": "view",
      "type": "function"
    },
    {
      "inputs": [
        {
          "internalType": "string",
          "name": "loanId",
          "type": "string"
        }
      ],
      "name": "getAvalancheTokenId",
      "outputs": [
        {
          "internalType": "uint256",
          "name": "",
          "type": "uint256"
        }
      ],
      "stateMutability": "view",
      "type": "function"
    },
    {
      "inputs": [
        {
          "internalType": "bytes32",
          "name": "txHash",
          "type": "bytes32"
        }
      ],
      "name": "getLoanIdByTxHash",
      "outputs": [
        {
          "internalType": "string",
          "name": "",
          "type": "string"
        }
      ],
      "stateMutability": "view",
      "type": "function"
    },
    {
      "inputs": [],
      "name": "getTokenizedLoans",
      "outputs": [
        {
          "internalType": "string[]",
          "name": "",
          "type": "string[]"
        }
      ],
      "stateMutability": "view",
      "type": "function"
    },
    {
      "inputs": [
        {
          "internalType": "string",
          "name": "loanId",
          "type": "string"
        }
      ],
      "name": "isLoanApprovedForSale",
      "outputs": [
        {
          "internalType": "bool",
          "name": "",
          "type": "bool"
        }
      ],
      "stateMutability": "view",
      "type": "function"
    },
    {
      "inputs": [
        {
          "internalType": "string",
          "name": "",
          "type": "string"
        }
      ],
      "name": "loanApprovals",
      "outputs": [
        {
          "internalType": "bool",
          "name": "isApproved",
          "type": "bool"
        },
        {
          "internalType": "uint256",
          "name": "askingPrice",
          "type": "uint256"
        },
        {
          "internalType": "address",
          "name": "lenderAddress",
          "type": "address"
        },
        {
          "internalType": "uint256",
          "name": "approvalTimestamp",
          "type": "uint256"
        },
        {
          "internalType": "bool",
          "name": "isMinted",
          "type": "bool"
        },
        {
          "internalType": "bool",
          "name": "isCancelled",
          "type": "bool"
        }
      ],
      "stateMutability": "view",
      "type": "function"
    },
    {
      "inputs": [
        {
          "internalType": "string",
          "name": "",
          "type": "string"
        }
      ],
      "name": "loanIdToTxHash",
      "outputs": [
        {
          "internalType": "bytes32",
          "name": "",
          "type": "bytes32"
        }
      ],
      "stateMutability": "view",
      "type": "function"
    },
    {
      "inputs": [],
      "name": "loanRegistry",
      "outputs": [
        {
          "internalType": "contract LoanRegistry",
          "name": "",
          "type": "address"
        }
      ],
      "stateMutability": "view",
      "type": "function"
    },
    {
      "inputs": [
        {
          "internalType": "string",
          "name": "",
          "type": "string"
        }
      ],
      "name": "loanToAvalancheTokenId",
      "outputs": [
        {
          "internalType": "uint256",
          "name": "",
          "type": "uint256"
        }
      ],
      "stateMutability": "view",
      "type": "function"
    },
    {
      "inputs": [
        {
          "internalType": "string",
          "name": "loanId",
          "type": "string"
        }
      ],
      "name": "markLoanAsPaidOff",
      "outputs": [
        {
          "internalType": "bool",
          "name": "",
          "type": "bool"
        }
      ],
      "stateMutability": "nonpayable",
      "type": "function"
    },
    {
      "inputs": [],
      "name": "owner",
      "outputs": [
        {
          "internalType": "address",
          "name": "",
          "type": "address"
        }
      ],
      "stateMutability": "view",
      "type": "function"
    },
    {
      "inputs": [
        {
          "internalType": "string",
          "name": "loanId",
          "type": "string"
        },
        {
          "internalType": "address",
          "name": "newOwnerAddress",
          "type": "address"
        },
        {
          "internalType": "uint256",
          "name": "salePrice",
          "type": "uint256"
        }
      ],
      "name": "recordOwnershipTransfer",
      "outputs": [
        {
          "internalType": "bool",
          "name": "",
          "type": "bool"
        }
      ],
      "stateMutability": "nonpayable",
      "type": "function"
    },
    {
      "inputs": [
        {
          "internalType": "string",
          "name": "loanId",
          "type": "string"
        },
        {
          "internalType": "uint256",
          "name": "amount",
          "type": "uint256"
        }
      ],
      "name": "recordPayment",
      "outputs": [
        {
          "internalType": "bool",
          "name": "",
          "type": "bool"
        }
      ],
      "stateMutability": "nonpayable",
      "type": "function"
    },
    {
      "inputs": [
        {
          "internalType": "string",
          "name": "loanId",
          "type": "string"
        },
        {
          "internalType": "bytes32",
          "name": "txHash",
          "type": "bytes32"
        }
      ],
      "name": "registerApprovalTxHash",
      "outputs": [
        {
          "internalType": "bool",
          "name": "",
          "type": "bool"
        }
      ],
      "stateMutability": "nonpayable",
      "type": "function"
    },
    {
      "inputs": [],
      "name": "relayerAddress",
      "outputs": [
        {
          "internalType": "address",
          "name": "",
          "type": "address"
        }
      ],
      "stateMutability": "view",
      "type": "function"
    },
    {
      "inputs": [],
      "name": "renounceOwnership",
      "outputs": [],
      "stateMutability": "nonpayable",
      "type": "function"
    },
    {
      "inputs": [
        {
          "internalType": "string",
          "name": "loanId",
          "type": "string"
        }
      ],
      "name": "requestBurnAndCancel",
      "outputs": [
        {
          "internalType": "bool",
          "name": "",
          "type": "bool"
        }
      ],
      "stateMutability": "nonpayable",
      "type": "function"
    },
    {
      "inputs": [
        {
          "internalType": "string",
          "name": "loanId",
          "type": "string"
        },
        {
          "internalType": "uint256",
          "name": "tokenId",
          "type": "uint256"
        }
      ],
      "name": "setAvalancheTokenId",
      "outputs": [
        {
          "internalType": "bool",
          "name": "",
          "type": "bool"
        }
      ],
      "stateMutability": "nonpayable",
      "type": "function"
    },
    {
      "inputs": [
        {
          "internalType": "address",
          "name": "_relayer",
          "type": "address"
        }
      ],
      "name": "setRelayerAddress",
      "outputs": [],
      "stateMutability": "nonpayable",
      "type": "function"
    },
    {
      "inputs": [
        {
          "internalType": "address",
          "name": "newOwner",
          "type": "address"
        }
      ],
      "name": "transferOwnership",
      "outputs": [],
      "stateMutability": "nonpayable",
      "type": "function"
    },
    {
      "inputs": [
        {
          "internalType": "bytes32",
          "name": "",
          "type": "bytes32"
        }
      ],
      "name": "txHashToLoanId",
      "outputs": [
        {
          "internalType": "string",
          "name": "",
          "type": "string"
        }
      ],
      "stateMutability": "view",
      "type": "function"
    },
    {
      "inputs": [
        {
          "internalType": "address",
          "name": "newLoanRegistry",
          "type": "address"
        }
      ],
      "name": "updateLoanRegistry",
      "outputs": [],
      "stateMutability": "nonpayable",
      "type": "function"
    }
  ],
  "bytecode": "0x6080346200012b57601f6200377838819003918201601f19168301916001600160401b03831184841017620001305780849260409485528339810103126200012b576200005a6020620000528362000146565b920162000146565b906001600160a01b0390811690811562000112576000549260018060a01b03199280848616176000558260405195167f8be0079c531659141344cd1fd0a4f28419497f9722a3daafe3b4186f6b6457e0600080a316918215620000d05750600154161760015560405161361c90816200015c8239f35b62461bcd60e51b815260206004820152601460248201527f496e76616c6964204c6f616e52656769737472790000000000000000000000006044820152606490fd5b604051631e4fbdf760e01b815260006004820152602490fd5b600080fd5b634e487b7160e01b600052604160045260246000fd5b51906001600160a01b03821682036200012b5756fe6080604081815260048036101561001557600080fd5b600092833560e01c908163015f51351461245b5750806304bb39391461224f5780630d12481f146120b05780630f762b8914611fa257806310e6c64e14611de857806314df577e14611d305780631501289b14611cd9578063151bb69114611c7157806318a7cca814611c485780631be5f54a146110b95780635209ccf714611bfb57806355cc57ae14611af957806356894c4714611a38578063579c539e14611859578063583ee2cf146117a657806367ff1934146116a5578063715018a61461174c578063716d89151461170257806384f38df4146116a55780638da5cb5b1461167d57806395508d3b146114715780639f71afec14611448578063a77957ea1461141f578063a81f264314611103578063ba25eb74146110b9578063ba99c21314610ed1578063cf29cfe114610d4b578063d133376014610850578063d384a0d714610803578063e641e8861461075e578063ece49dfe14610456578063edfb22c214610262578063f2fde38b146101dc5763fcea79ae1461019957600080fd5b346101d85760203660031901126101d857816101d4936101c192358152600560205220612908565b90519182916020835260208301906126c0565b0390f35b8280fd5b50346101d85760203660031901126101d8576101f661284e565b906101ff6135c3565b6001600160a01b0391821692831561024c57505082546001600160a01b0319811683178455167f8be0079c531659141344cd1fd0a4f28419497f9722a3daafe3b4186f6b6457e08380a380f35b51631e4fbdf760e01b8152908101849052602490fd5b508290346104525760203660031901126104525761027e61284e565b928260018060a01b039280600195838660015416865194858092635c1bf86560e01b82525afa9283156104485790879888969798928695610424575b5088869116925b61039e575b506102d5919293949550612afa565b9584885b6102eb575b8651806101d48a826126e5565b8451811015610399579088828483600261031361030d8b9a9998879d9c612a9e565b516128a8565b0154161480610382575b80610365575b610334575b019091929394956102d9565b9561035f906103438888612a9e565b5161034e828d612a9e565b52610359818c612a9e565b50612ad5565b95610328565b5060ff8561037661030d848a612a9e565b015460081c1615610323565b5060ff61039261030d8389612a9e565b541661031d565b6102de565b8690855181101561041e57838a60026103ba61030d858b612a9e565b0154161480610407575b806103ea575b6103d7575b8101906102c1565b916103e28291612ad5565b9290506103cf565b5060ff856103fb61030d848a612a9e565b015460081c16156103ca565b5060ff61041761030d8389612a9e565b54166103c4565b506102c6565b6104419195503d8088833e6104398183612795565b810190612a09565b938a6102ba565b85513d86823e3d90fd5b5080fd5b50346101d8576104653661281d565b9160018060a01b039461047d86600254163314612b44565b84519583518360209889818189019461049781838861269d565b810160038152030190206104ae60ff825416612b89565b01805460ff8160081c166107225760ff81166106ee5787156106b85783600154168a8a5180926319d1381160e31b8252828a83015281806104f38d60248301906126c0565b03915afa9081156106ae578691610675575b501561063d5760ff191660011790558651855187928a91839161052b908290849061269d565b810187815203019020556001541686865180926376724eff60e11b8252888683015281858161055d604482018b6126c0565b8b602483015203925af19182156106325780926105f7575b5050156105bb5750826105a87fd9af9fe87cb0da3dea36fcb8d50a76961a23460b2422995a935515422b1fb05e92612c95565b9281519081524286820152a25160018152f35b835162461bcd60e51b8152908101859052601660248201527511985a5b1959081d1bc81cd95d081d1bdad95b88125160521b6044820152606490fd5b9091508682813d831161062b575b61060f8183612795565b81010312610628575061062190612ac8565b3880610575565b80fd5b503d610605565b8651903d90823e3d90fd5b885162461bcd60e51b81528087018b90526012602482015271131bd85b881a5cc81b9bdd081b1bd8dad95960721b6044820152606490fd5b90508a81813d83116106a7575b61068c8183612795565b810103126106a35761069d90612ac8565b38610505565b8580fd5b503d610682565b8a513d88823e3d90fd5b885162461bcd60e51b81528087018b9052601060248201526f125b9d985b1a59081d1bdad95b88125160821b6044820152606490fd5b885162461bcd60e51b81528087018b9052600e60248201526d105b1c9958591e481b5a5b9d195960921b6044820152606490fd5b885162461bcd60e51b81528087018b90526016602482015275105c1c1c9bdd985b081dd85cc818d85b98d95b1b195960521b6044820152606490fd5b508234610628576020366003190112610628578135906001600160401b038211610628575060c0926107ac602061079a60ff94369087016127d1565b8184519382858094519384920161269d565b81016003815203019020828154169360018201549260018060a01b036002840154169160038401549301549381519615158752602087015285015260608401528181161515608084015260081c16151560a0820152f35b83346106285760203660031901126106285761081d61284e565b6108256135c3565b6001600160a01b0316610839811515613428565b600280546001600160a01b03191691909117905580f35b509134610628576108603661281d565b600154845163bcb197c960e01b8152602081880181905296929492916001600160a01b039081169160249089818061089a8582018b6126c0565b0381875afa8015610b4c578690610d15575b6108b69150612cb5565b87516319d1381160e31b81528481018a90528981806108d78582018b6126c0565b0381875afa908115610b4c578691610ce0575b50610ca65787519260ff8751948b81818b019761090881838b61269d565b810160038152030190205416610c715760ff858a518c818b5161092c81838c61269d565b81016003815203019020015460081c16610c2f578715610bfd57885163395a413d60e21b81528581018b90528681806109678682018c6126c0565b0381855afa908115610bf3578791610bd1575b5060a081015115610b945761034001518a8151910120610998613093565b8b815191012014610b56578989518092636ec955a560e11b825282888301528189816109c78d898301906126c0565b03925af1908115610b4c578691610b17575b5015610ae0575083928888610aaa979694610a90948a610a58610a38855196610a0188612749565b60018852808801938452868801953387528d60608a0198428a5260808b019e8f5260a08b019d8e525193849283925192839161269d565b8101600381520301902095511515869060ff801983541691151516179055565b5160018501556002840191511660018060a01b03198254161790555160038201550192511515839060ff801983541691151516179055565b51815461ff00191690151560081b61ff0016179055612c95565b825191825242848301527feb30059d3de656b469ef7f6ac10f8844ce4f14a804bbec109abd8d0959281ca8833393a35160018152f35b8360136064928b8b519362461bcd60e51b8552840152820152722330b4b632b2103a37903637b1b5903637b0b760691b6044820152fd5b90508981813d8311610b45575b610b2e8183612795565b810103126106a357610b3f90612ac8565b386109d9565b503d610b24565b89513d88823e3d90fd5b885162461bcd60e51b81528086018b90526019818401527821b0b73737ba1039b2b636103830b4b21037b333103637b0b760391b6044820152606490fd5b895162461bcd60e51b81528087018c90526018818501527704c6f616e2062616c616e6365206d757374206265203e20360441b6044820152606490fd5b610bed91503d8089833e610be58183612795565b810190612d30565b3861097a565b8a513d89823e3d90fd5b885162461bcd60e51b81528086018b9052600d818401526c496e76616c696420707269636560981b6044820152606490fd5b885162461bcd60e51b81528086018b9052601f818401527f5761732063616e63656c6c65642c20757365206e657720617070726f76616c006044820152606490fd5b885162461bcd60e51b81528086018b90526010818401526f105b1c9958591e48185c1c1c9bdd995960821b6044820152606490fd5b8360166064928b8b519362461bcd60e51b855284015282015275131bd85b88185b1c9958591e481d1bdad95b9a5e995960521b6044820152fd5b90508981813d8311610d0e575b610cf78183612795565b810103126106a357610d0890612ac8565b386108ea565b503d610ced565b508981813d8311610d44575b610d2b8183612795565b810103126106a357610d3f6108b691612ac8565b6108ac565b503d610d21565b50346101d85760603660031901126101d85780356001600160401b038111610ecd57610d7a90369083016127d1565b6024356001600160a01b0381811693918490036106a357610da081600254163314612b44565b60015416845195869163bcb197c960e01b8352602097889182868301528180610dcc602482018a6126c0565b03915afa908115610632578091610e94575b50610de99150612cb5565b60ff81855187818651610dff8183858b0161269d565b8101600381520301902001541615610e5c5750610e2690610e21831515613428565b612c95565b7f1c74cd4d51d1c3291f2b5ccd11557f063f9e0a3882c465c0944c3f0e9b93bd8083805160443581524287820152a35160018152f35b835162461bcd60e51b81529081018590526012602482015271139195081b9bdd081b5a5b9d1959081e595d60721b6044820152606490fd5b90508682813d8311610ec6575b610eab8183612795565b810103126106285750610ec0610de991612ac8565b38610dde565b503d610ea1565b8380fd5b50913461062857602092836003193601126104525780356001600160401b0381116101d85783610f058692369085016127d1565b93828060018060a01b0395610f1f87600254163314612b44565b83610fb983610f3d818c8a519b8c9382859351928391019e8f61269d565b81016003815203019020988b6101008b549a610f5b60ff8d16613498565b878d019285845492610f6f60ff8516612cf7565b610f7f60ff8560081c1615612c55565b51809251610f8e81838a61269d565b81018b8152030190205460ff19909c168d5561ffff19161790558c518c51909384928290849061269d565b8101858152030190205586600154168951938492630af1f6af60e41b8452830152818581610fea602482018d6126c0565b03925af19182156110ae578092611066575b50509160029161100f61104995946134d3565b61101886612c95565b7f6a90382fb55315e030a535d1d63ff697c8163b9451f663034c4153b6809464fd898951428152a301541691612c95565b6000805160206135f0833981519152848451428152a35160018152f35b9091508782813d83116110a7575b61107e8183612795565b8101031261062857509160029161100f61109b6110499695612ac8565b92949550819350610ffc565b503d611074565b8751903d90823e3d90fd5b509134610628576020366003190112610628578235906001600160401b0382116106285750602061079a81946110f1933691016127d1565b81016006815203019020549051908152f35b50346101d857602092836003193601126106285781356001600160401b0381116104525761113490369084016127d1565b9160018060a01b039161114c83600254163314612b44565b8260015416855163bcb197c960e01b81528784820152878180611172602482018a6126c0565b0381855afa80156113c55783906113e9575b61118e9150612cb5565b855163395a413d60e21b81528381018890528281806111b0602482018a6126c0565b0381855afa9081156113c5576111e8916103409185916113cf575b5001518881519101206111dc613093565b898151910120146130b7565b85516319d1381160e31b815283810188905287818061120a602482018a6126c0565b0381855afa9081156113c557908392918996959491611387575b506112f9575b505084519060ff85519285818189019561124581838961269d565b81016003815203019020541661125f575b83865160018152f35b6112d9936002926112c692885183818a5161127b81838861269d565b810160038152030190200161010061ff00198254161790558751828189516112a481838761269d565b8101600381520301902060ff198154169055875180938192895192839161269d565b8101600381520301902001541691612c95565b6000805160206135f0833981519152848451428152a33882818080611256565b9091929386518092630af1f6af60e41b82528286830152818581611320602482018c6126c0565b03925af191821561063257908188959493611348575b5050611341906134d3565b388061122a565b915091929382813d8311611380575b6113618183612795565b81010312610628575090611341611379879493612ac8565b9038611336565b503d611357565b8681939495969792503d83116113be575b6113a28183612795565b810103126101d857906113b88895949392612ac8565b38611224565b503d611398565b87513d85823e3d90fd5b6113e391503d8087833e610be58183612795565b386111cb565b508781813d8311611418575b6113ff8183612795565b810103126101d85761141361118e91612ac8565b611184565b503d6113f5565b50503461045257816003193601126104525760015490516001600160a01b039091168152602090f35b50346101d85760203660031901126101d857816101d4936101c192358152600560205220612908565b50913461062857602092836003193601126104525780356001600160401b0381116101d8576114a390369083016127d1565b9183516114f08685516114e0828801916114be81878561269d565b8501600381526002868560018060a01b03988994030190200154163314612bc9565b875180938192895192839161269d565b81016003815203019020805461150860ff8216612c11565b848201805460ff8116611623578061152960ff6101009360081c1615612c55565b61ff00191617905560ff191690556001548551630af1f6af60e41b8152848101889052918791839116818581611562602482018b6126c0565b03925af19182156116185780926115e0575b5050156115a5575061158590612c95565b8151904282526000805160206135f0833981519152843393a35160018152f35b825162461bcd60e51b815290810184905260156024820152742330b4b632b2103a37903ab73637b1b5903637b0b760591b6044820152606490fd5b9091508582813d8311611611575b6115f88183612795565b81010312610628575061160a90612ac8565b3880611574565b503d6115ee565b8551903d90823e3d90fd5b885162461bcd60e51b81528088018b9052602e60248201527f4e465420616c7265616479206d696e7465642c2075736520726571756573744260448201526d75726e416e6443616e63656c282960901b6064820152608490fd5b505034610452578160031936011261045257905490516001600160a01b039091168152602090f35b509134610628576020366003190112610628578235906001600160401b0382116106285750602080936116de6116f193369083016127d1565b908285519483868095519384920161269d565b820190815203019020549051908152f35b508234610628576020366003190112610628578135906001600160401b038211610628575061173c91611737913691016127d1565b613512565b8251911515825215156020820152f35b83346106285780600319360112610628576117656135c3565b80546001600160a01b03198116825581906001600160a01b03167f8be0079c531659141344cd1fd0a4f28419497f9722a3daafe3b4186f6b6457e08280a380f35b5090346101d85760203660031901126101d8578135926001600160401b03841161062857506117de602061079a8195369086016127d1565b810160038152030190209160ff8251916117f783612749565b84548216151580845260018601548785015260028601546001600160a01b031685850152600386015460608501529401548082161515608084015260081c1615801560a09092019190915282611851575b50519015158152f35b915038611848565b50913461062857602092836003193601126104525780356001600160401b0381116101d85761188b90369083016127d1565b906118946135c3565b8351928251938681818601966118ab81838a61269d565b810160038152030190209081546118c460ff8216613498565b83830180549660ff8816611a00576118ea8a610100928b51809381928c5192839161269d565b8101898152030190205461ff001990981617905560ff191682556001548651630af1f6af60e41b81529384018890526001600160a01b039390889082908616818581611939602482018c6126c0565b03925af19182156110ae5780926119c2575b5050906119596002926134d3565b01541661196582612c95565b6000805160206135f0833981519152868651428152a38161198a575b50505160018152f35b61199390612c95565b7f7a703a6c30188b4b647215dd1591e7d1611a16d8902fec752715563378da98ef848451428152a33880611981565b9091508782813d83116119f9575b6119da8183612795565b810103126106285750906119596119f2600293612ac8565b919261194b565b503d6119d0565b885162461bcd60e51b81528087018b9052601260248201527113919508185b1c9958591e481b5a5b9d195960721b6044820152606490fd5b508234610628576020366003190112610628578135906001600160401b038211610628575060c09260ff611a926020611a77611af795369088016127d1565b611a7f613466565b508185519382858094519384920161269d565b8101600381520301902093825194611aa986612749565b80548316151586526001810154602087015260028101546001600160a01b0316848701526003810154606087015201548082161515608086015260081c16151560a084015251918290612864565bf35b5091903461045257602091826003193601126106285781611b2b91611b1c613466565b50853581526005855220612908565b92835115611bc757928160ff611bb6956101d4945186818651611b518183858b0161269d565b81016003815203019020835196611b6788612749565b815484161515885260018201549088015260028101546001600160a01b0316848801526003810154606088015201548082161515608087015260081c16151560a0850152519384938490612864565b60e060c084015260e08301906126c0565b82606492519162461bcd60e51b8352820152601060248201526f151e12185cda081b9bdd08199bdd5b9960821b6044820152fd5b833461062857602036600319011261062857611c1561284e565b611c1d6135c3565b6001600160a01b0316611c31811515613428565b600180546001600160a01b03191691909117905580f35b50503461045257816003193601126104525760025490516001600160a01b039091168152602090f35b509134610628576020366003190112610628578235906001600160401b0382116106285750602092611ca5913691016127d1565b600283611cba8451938481519384920161269d565b82019160038352848160018060a01b0394030190200154169051908152f35b508234610628576020366003190112610628578135906001600160401b0382116106285750611d116101d492611d16923691016127d1565b6130f7565b8392919251938493151584528060208501528301906126c0565b5090346101d85760203660031901126101d8578135926001600160401b0384116106285750611d68602061079a8195369086016127d1565b8101600381520301902091815190611d7f82612749565b60ff84541615159384835260018101548684015260018060a01b036002820154168484015260038101546060840152015460ff80821615918215608085015260081c16159160a0831591015283611de0575b50826118515750519015158152f35b925038611dd1565b50346101d857602092836003193601126106285781356001600160401b03811161045257611e1990369084016127d1565b9160018060a01b03611e3081600254163314612b44565b60015416845163bcb197c960e01b81528683820152868180611e5560248201896126c0565b0381855afa908115611f98579187939185938491611f58575b50611e7890612cb5565b611ea560ff838951878181611e938d8381519384920161269d565b81016003815203019020015416612cf7565b865193849263395a413d60e21b84528301528180611ec660248201896126c0565b03915afa918215611f4d57611f039392610e2192826103409392611f32575b50500151858151910120611ef7613093565b868151910120146130b7565b7f370688c1ce7ba926e3b3644cc0ae6546e4a6ec79ef5fcec5321c74877bf65235838351428152a25160018152f35b611f4692503d8091833e610be58183612795565b3880611ee5565b8451903d90823e3d90fd5b9294809294508391503d8311611f91575b611f738183612795565b81010312610ecd57918391611e78611f8b8995612ac8565b90611e6e565b503d611f69565b86513d86823e3d90fd5b50346101d857611fb13661281d565b9160018060a01b03611fc881600254163314612b44565b60015416845195869163bcb197c960e01b8352602097889182868301528180611ff4602482018a6126c0565b03915afa908115610632578091612077575b506120119150612cb5565b82156120435750826105a87f3c77e296c41583d812e080d710d1f10acaf27dd05c0b9038cf80b7d0fb96243f92612c95565b835162461bcd60e51b8152908101859052600e60248201526d125b9d985b1a5908185b5bdd5b9d60921b6044820152606490fd5b90508682813d83116120a9575b61208e8183612795565b8101031261062857506120a361201191612ac8565b38612006565b503d612084565b50346101d85760209283600319360112610628578135906001600160401b03821161062857506120e390369083016127d1565b825161211b8251916002878501936120fc81848761269d565b82019160038352888160018060a01b0394030190200154163314612bc9565b8284518681855161212d81838861269d565b8101600381520301902061214460ff825416612c11565b015460ff8116156121f8576121749161216460ff889360081c1615612c55565b855180938192865192839161269d565b810185815203019020549182156121c2575061218f90612c95565b908251914283527ff3f98d2e18daf7361b5f24d53d81d1bc8cc92d72ce52cbc9a7aa34abce394b49853394a45160018152f35b835162461bcd60e51b8152908101859052601060248201526f151bdad95b881251081b9bdd081cd95d60821b6044820152606490fd5b845162461bcd60e51b8152808501879052602b60248201527f4e4654206e6f74206d696e746564207965742c207573652063616e63656c536160448201526a6c654c697374696e67282960a81b6064820152608490fd5b509190346104525780600319360112610452576001600160401b039183358381116104525761228190369086016127d1565b906024359161229b60018060a01b03600254163314612b44565b8351958151926122cb60ff6020998a81818801986122ba81838c61269d565b810160038152030190205416612b89565b84156124275784815260058852858120918351978811612414575090879392916122f582546128ce565b601f81116123c0575b508490601f891160011461235c5797809161233f97989991612351575b508160011b916000199060031b1c19161790555b855193849283925192839161269d565b81016006815203019020555160018152f35b90508301513861231b565b90601f198916838352868320925b8181106123a9575091899161233f98999a60019410612390575b5050811b01905561232f565b85015160001960f88460031b161c191690553880612384565b91928760018192868901518155019401920161236a565b909180939495508252888220601f890160051c8101918a8a1061240a575b90601f8b9796959493920160051c01905b8181106123fc57506122fe565b8281558a96506001016123ef565b90915081906123de565b634e487b7160e01b825260419052602490fd5b855162461bcd60e51b8152808301899052600e60248201526d092dcecc2d8d2c840e8f090c2e6d60931b6044820152606490fd5b848484346101d857826003193601126101d85760018054635c1bf86560e01b86529094906001600160a01b03168480838581855afa928315612693579087949392918793612677575b509686959496905b6125a6575b506124c0869796949596612afa565b95809381985b6124d7578651806101d48a826126e5565b83979695975189101561259d576125156124f18a86612a9e565b518751906367e6ec0360e11b825281806020948593848884015260248301906126c0565b0381885afa918215612593578492612552575b50509780998197989961253d575b01986124c6565b9561254c906103438888612a9e565b95612536565b90809250813d831161258c575b6125698183612795565b810103126101d8579780996125808298999a612ac8565b91999897819b50612528565b503d61255f565b88513d86823e3d90fd5b859697506102de565b968251881015612671576125e16125bd8985612a9e565b518651906367e6ec0360e11b825281806020948593848b84015260248301906126c0565b0381875afa918215612667578892612622575b50509680988196979861260f575b81019198509695946124ac565b9161261a8291612ad5565b929050612602565b90809250813d8311612660575b6126398183612795565b8101031261265c5796809861265082979899612ac8565b91989796819a506125f4565b8680fd5b503d61262f565b87513d8a823e3d90fd5b966124b1565b61268c9193503d8089833e6104398183612795565b91886124a4565b85513d88823e3d90fd5b60005b8381106126b05750506000910152565b81810151838201526020016126a0565b906020916126d98151809281855285808601910161269d565b601f01601f1916010190565b6020808201906020835283518092526040830192602060408460051b8301019501936000915b84831061271b5750505050505090565b9091929394958480612739600193603f198682030187528a516126c0565b980193019301919493929061270b565b60c081019081106001600160401b0382111761276457604052565b634e487b7160e01b600052604160045260246000fd5b604081019081106001600160401b0382111761276457604052565b90601f801991011681019081106001600160401b0382111761276457604052565b6001600160401b03811161276457601f01601f191660200190565b81601f82011215612818578035906127e8826127b6565b926127f66040519485612795565b8284526020838301011161281857816000926020809301838601378301015290565b600080fd5b604060031982011261281857600435906001600160401b03821161281857612847916004016127d1565b9060243590565b600435906001600160a01b038216820361281857565b60a0809180511515845260208101516020850152600180831b0360408201511660408501526060810151606085015260808101511515608085015201511515910152565b60206128c191816040519382858094519384920161269d565b8101600381520301902090565b90600182811c921680156128fe575b60208310146128e857565b634e487b7160e01b600052602260045260246000fd5b91607f16916128dd565b9060405191826000825461291b816128ce565b9081845260209460019160018116908160001461298b575060011461294c575b50505061294a92500383612795565b565b600090815285812095935091905b81831061297357505061294a935082010138808061293b565b8554888401850152948501948794509183019161295a565b9250505061294a94925060ff191682840152151560051b82010138808061293b565b6001600160401b0381116127645760051b60200190565b81601f820112156128185780516129da816127b6565b926129e86040519485612795565b8184526020828401011161281857612a06916020808501910161269d565b90565b9060209081838203126128185782516001600160401b0393848211612818570181601f82011215612818578051612a3f816129ad565b94612a4d6040519687612795565b818652848087019260051b8401019380851161281857858401925b858410612a79575050505050505090565b8351838111612818578791612a93848480948a01016129c4565b815201930192612a68565b8051821015612ab25760209160051b010190565b634e487b7160e01b600052603260045260246000fd5b5190811515820361281857565b6000198114612ae45760010190565b634e487b7160e01b600052601160045260246000fd5b90612b04826129ad565b612b116040519182612795565b8281528092612b22601f19916129ad565b019060005b828110612b3357505050565b806060602080938501015201612b27565b15612b4b57565b60405162461bcd60e51b81526020600482015260166024820152752737ba1030baba3437b934bd32b2103932b630bcb2b960511b6044820152606490fd5b15612b9057565b60405162461bcd60e51b8152602060048201526011602482015270131bd85b881b9bdd08185c1c1c9bdd9959607a1b6044820152606490fd5b15612bd057565b60405162461bcd60e51b81526020600482015260196024820152782737ba103a34329037b934b3b4b730b61030b8383937bb32b960391b6044820152606490fd5b15612c1857565b60405162461bcd60e51b81526020600482015260156024820152744e6f7420617070726f76656420666f722073616c6560581b6044820152606490fd5b15612c5c57565b60405162461bcd60e51b8152602060048201526011602482015270105b1c9958591e4818d85b98d95b1b1959607a1b6044820152606490fd5b612cad9060206040519282848094519384920161269d565b810103902090565b15612cbc57565b60405162461bcd60e51b8152602060048201526013602482015272131bd85b88191bd95cc81b9bdd08195e1a5cdd606a1b6044820152606490fd5b15612cfe57565b60405162461bcd60e51b815260206004820152600a602482015269139bdd081b5a5b9d195960b21b6044820152606490fd5b906020828203126128185781516001600160401b039283821161281857019061052092838383031261281857604051938401848110828211176127645760405282518181116128185782612d859185016129c4565b845260208301518181116128185782612d9f9185016129c4565b602085015260408301518181116128185782612dbc9185016129c4565b604085015260608301518181116128185782612dd99185016129c4565b60608501526080830151608085015260a083015160a085015260c083015160c085015260e083015160e085015261010080840151908501526101208084015190850152610140808401518281116128185783612e369186016129c4565b90850152610160808401519085015261018080840151908501526101a080840151908501526101c080840151908501526101e08084015190850152610200808401519085015261022080840151908501526102408084015190850152610260808401518281116128185783612eac9186016129c4565b90850152610280808401518281116128185783612eca9186016129c4565b908501526102a0808401518281116128185783612ee89186016129c4565b908501526102c080840151908501526102e0808401518281116128185783612f119186016129c4565b90850152610300808401518281116128185783612f2f9186016129c4565b90850152610320612f41818501612ac8565b90850152610340808401518281116128185783612f5f9186016129c4565b90850152610360808401518281116128185783612f7d9186016129c4565b90850152610380808401518281116128185783612f9b9186016129c4565b908501526103a0808401518281116128185783612fb99186016129c4565b908501526103c0808401518281116128185783612fd79186016129c4565b908501526103e0808401518281116128185783612ff59186016129c4565b908501526104008084015182811161281857836130139186016129c4565b908501526104209182840151918211612818576130319184016129c4565b908301526104408082015190830152610460808201519083015261048080820151908301526104a0613064818301612ac8565b908301526104c080820151908301526104e0808201519083015261308c610500809201612ac8565b9082015290565b604051906130a08261277a565b60088252672830b4b21027b33360c11b6020830152565b156130be57565b60405162461bcd60e51b81526020600482015260116024820152702637b0b7103737ba103830b4b21037b33360791b6044820152606490fd5b6001546040805163bcb197c960e01b815260206004820181905291949391926001600160a01b03169083818061313060248201876126c0565b0381855afa9081156133b7576000916133f3575b50156133c25784516319d1381160e31b81526004810184905283818061316d60248201876126c0565b0381855afa9081156133b757600091613382575b5061334e5784518360ff84519282818188019561319f81838961269d565b81016003815203019020541661331e576131c860049160ff93895180938192895192839161269d565b81016003815203019020015460081c166132f357613204916000918651808095819463395a413d60e21b835288600484015260248301906126c0565b03915afa9081156132e8576000916132cd575b5060a081015115613298576103400151818151910120613235613093565b82815191012014613263576001928051918201908282106001600160401b0383111761276457526000815290565b7821b0b73737ba1039b2b636103830b4b21037b333103637b0b760391b600093519161328e8361277a565b6019835282015290565b507704c6f616e2062616c616e6365206d757374206265203e20360441b60009351916132c38361277a565b6018835282015290565b6132e291503d806000833e610be58183612795565b38613217565b84513d6000823e3d90fd5b50506c15d85cc818d85b98d95b1b1959609a1b60009351916133148361277a565b600d835282015290565b505050506f105b1c9958591e48185c1c1c9bdd995960821b60009351916133448361277a565b6010835282015290565b505075131bd85b88185b1c9958591e481d1bdad95b9a5e995960521b60009351916133788361277a565b6016835282015290565b90508381813d83116133b0575b6133998183612795565b81010312612818576133aa90612ac8565b38613181565b503d61338f565b86513d6000823e3d90fd5b505072131bd85b88191bd95cc81b9bdd08195e1a5cdd606a1b60009351916133e98361277a565b6013835282015290565b90508381813d8311613421575b61340a8183612795565b810103126128185761341b90612ac8565b38613144565b503d613400565b1561342f57565b60405162461bcd60e51b815260206004820152600f60248201526e496e76616c6964206164647265737360881b6044820152606490fd5b6040519061347382612749565b8160a06000918281528260208201528260408201528260608201528260808201520152565b1561349f57565b60405162461bcd60e51b815260206004820152600c60248201526b139bdd08185c1c1c9bdd995960a21b6044820152606490fd5b156134da57565b60405162461bcd60e51b815260206004820152601060248201526f4661696c656420746f20756e6c6f636b60801b6044820152606490fd5b602061352b91816040519382858094519384920161269d565b810160038152030190206040519061354282612749565b60a060ff82541615600481159384865260018101546020870152600180851b0360028201541660408701526003810154606087015201549360ff80861615958615608084015260081c1615159283910152916135bb575b506135b2576135aa57600190600190565b600190600090565b50600090600090565b905038613599565b6000546001600160a01b031633036135d757565b60405163118cdaa760e01b8152336004820152602490fdfe4629fe65bfcd953cde1235af12b8ecf68db748b97516223e47e42c6a4ec8628da164736f6c6343000818000a",
  "linkReferences": {},
  "deployedLinkReferences": {}
}