{
  "_format": "hh-sol-artifact-1",
  "contractName": "PaymentDistributor",
  "sourceName": "src/avalanche/PaymentDistributor.sol",
  "abi": [
    {
      "inputs": [
        {
          "internalType": "address",
          "name": "initialOwner",
          "type": "address"
        },
        {
          "internalType": "address",
          "name": "_loanNFT",
          "type": "address"
        },
        {
          "internalType": "address",
          "name": "_paymentToken",
          "type": "address"
        }
      ],
      "stateMutability": "nonpayable",
      "type": "constructor"
    },
    {
      "inputs": [
        {
          "internalType": "address",
          "name": "owner",
          "type": "address"
        }
      ],
      "name": "OwnableInvalidOwner",
      "type": "error"
    },
    {
      "inputs": [
        {
          "internalType": "address",
          "name": "account",
          "type": "address"
        }
      ],
      "name": "OwnableUnauthorizedAccount",
      "type": "error"
    },
    {
      "inputs": [],
      "name": "ReentrancyGuardReentrantCall",
      "type": "error"
    },
    {
      "anonymous": false,
      "inputs": [
        {
          "indexed": true,
          "internalType": "address",
          "name": "depositor",
          "type": "address"
        },
        {
          "indexed": false,
          "internalType": "uint256",
          "name": "amount",
          "type": "uint256"
        },
        {
          "indexed": false,
          "internalType": "uint256",
          "name": "timestamp",
          "type": "uint256"
        }
      ],
      "name": "FundsDeposited",
      "type": "event"
    },
    {
      "anonymous": false,
      "inputs": [
        {
          "indexed": true,
          "internalType": "address",
          "name": "previousOwner",
          "type": "address"
        },
        {
          "indexed": true,
          "internalType": "address",
          "name": "newOwner",
          "type": "address"
        }
      ],
      "name": "OwnershipTransferred",
      "type": "event"
    },
    {
      "anonymous": false,
      "inputs": [
        {
          "indexed": true,
          "internalType": "uint256",
          "name": "tokenId",
          "type": "uint256"
        },
        {
          "indexed": true,
          "internalType": "address",
          "name": "claimer",
          "type": "address"
        },
        {
          "indexed": false,
          "internalType": "uint256",
          "name": "amount",
          "type": "uint256"
        },
        {
          "indexed": false,
          "internalType": "uint256",
          "name": "timestamp",
          "type": "uint256"
        }
      ],
      "name": "PaymentClaimed",
      "type": "event"
    },
    {
      "anonymous": false,
      "inputs": [
        {
          "indexed": true,
          "internalType": "uint256",
          "name": "tokenId",
          "type": "uint256"
        },
        {
          "indexed": false,
          "internalType": "uint256",
          "name": "amount",
          "type": "uint256"
        },
        {
          "indexed": true,
          "internalType": "address",
          "name": "currentOwner",
          "type": "address"
        },
        {
          "indexed": false,
          "internalType": "uint256",
          "name": "timestamp",
          "type": "uint256"
        }
      ],
      "name": "PaymentRecorded",
      "type": "event"
    },
    {
      "inputs": [],
      "name": "MAX_BATCH_CLAIM",
      "outputs": [
        {
          "internalType": "uint256",
          "name": "",
          "type": "uint256"
        }
      ],
      "stateMutability": "view",
      "type": "function"
    },
    {
      "inputs": [],
      "name": "bridgeReceiver",
      "outputs": [
        {
          "internalType": "address",
          "name": "",
          "type": "address"
        }
      ],
      "stateMutability": "view",
      "type": "function"
    },
    {
      "inputs": [
        {
          "internalType": "uint256[]",
          "name": "tokenIds",
          "type": "uint256[]"
        }
      ],
      "name": "claimMultiple",
      "outputs": [],
      "stateMutability": "nonpayable",
      "type": "function"
    },
    {
      "inputs": [
        {
          "internalType": "uint256",
          "name": "tokenId",
          "type": "uint256"
        }
      ],
      "name": "claimPendingPayments",
      "outputs": [],
      "stateMutability": "nonpayable",
      "type": "function"
    },
    {
      "inputs": [
        {
          "internalType": "uint256",
          "name": "amount",
          "type": "uint256"
        }
      ],
      "name": "depositFunds",
      "outputs": [],
      "stateMutability": "nonpayable",
      "type": "function"
    },
    {
      "inputs": [],
      "name": "depositsEnabled",
      "outputs": [
        {
          "internalType": "bool",
          "name": "",
          "type": "bool"
        }
      ],
      "stateMutability": "view",
      "type": "function"
    },
    {
      "inputs": [
        {
          "internalType": "uint256",
          "name": "amount",
          "type": "uint256"
        }
      ],
      "name": "emergencyWithdraw",
      "outputs": [],
      "stateMutability": "nonpayable",
      "type": "function"
    },
    {
      "inputs": [],
      "name": "getContractBalance",
      "outputs": [
        {
          "internalType": "uint256",
          "name": "",
          "type": "uint256"
        }
      ],
      "stateMutability": "view",
      "type": "function"
    },
    {
      "inputs": [
        {
          "internalType": "uint256",
          "name": "tokenId",
          "type": "uint256"
        }
      ],
      "name": "getPaymentCount",
      "outputs": [
        {
          "internalType": "uint256",
          "name": "",
          "type": "uint256"
        }
      ],
      "stateMutability": "view",
      "type": "function"
    },
    {
      "inputs": [
        {
          "internalType": "uint256",
          "name": "tokenId",
          "type": "uint256"
        }
      ],
      "name": "getPaymentHistory",
      "outputs": [
        {
          "components": [
            {
              "internalType": "uint256",
              "name": "amount",
              "type": "uint256"
            },
            {
              "internalType": "uint256",
              "name": "timestamp",
              "type": "uint256"
            },
            {
              "internalType": "address",
              "name": "recipient",
              "type": "address"
            },
            {
              "internalType": "bool",
              "name": "claimed",
              "type": "bool"
            }
          ],
          "internalType": "struct PaymentDistributor.Payment[]",
          "name": "",
          "type": "tuple[]"
        }
      ],
      "stateMutability": "view",
      "type": "function"
    },
    {
      "inputs": [
        {
          "internalType": "uint256",
          "name": "tokenId",
          "type": "uint256"
        }
      ],
      "name": "getPendingAmount",
      "outputs": [
        {
          "internalType": "uint256",
          "name": "",
          "type": "uint256"
        }
      ],
      "stateMutability": "view",
      "type": "function"
    },
    {
      "inputs": [
        {
          "internalType": "uint256[]",
          "name": "tokenIds",
          "type": "uint256[]"
        }
      ],
      "name": "getPendingForMultiple",
      "outputs": [
        {
          "internalType": "uint256[]",
          "name": "",
          "type": "uint256[]"
        }
      ],
      "stateMutability": "view",
      "type": "function"
    },
    {
      "inputs": [
        {
          "internalType": "uint256",
          "name": "tokenId",
          "type": "uint256"
        },
        {
          "internalType": "uint256",
          "name": "count",
          "type": "uint256"
        }
      ],
      "name": "getRecentPayments",
      "outputs": [
        {
          "components": [
            {
              "internalType": "uint256",
              "name": "amount",
              "type": "uint256"
            },
            {
              "internalType": "uint256",
              "name": "timestamp",
              "type": "uint256"
            },
            {
              "internalType": "address",
              "name": "recipient",
              "type": "address"
            },
            {
              "internalType": "bool",
              "name": "claimed",
              "type": "bool"
            }
          ],
          "internalType": "struct PaymentDistributor.Payment[]",
          "name": "",
          "type": "tuple[]"
        }
      ],
      "stateMutability": "view",
      "type": "function"
    },
    {
      "inputs": [
        {
          "internalType": "uint256",
          "name": "tokenId",
          "type": "uint256"
        }
      ],
      "name": "getTotalPaymentsForToken",
      "outputs": [
        {
          "internalType": "uint256",
          "name": "total",
          "type": "uint256"
        }
      ],
      "stateMutability": "view",
      "type": "function"
    },
    {
      "inputs": [
        {
          "internalType": "uint256",
          "name": "tokenId",
          "type": "uint256"
        }
      ],
      "name": "getUnclaimedPaymentsForToken",
      "outputs": [
        {
          "internalType": "uint256",
          "name": "unclaimed",
          "type": "uint256"
        }
      ],
      "stateMutability": "view",
      "type": "function"
    },
    {
      "inputs": [],
      "name": "loanNFT",
      "outputs": [
        {
          "internalType": "contract IERC721",
          "name": "",
          "type": "address"
        }
      ],
      "stateMutability": "view",
      "type": "function"
    },
    {
      "inputs": [],
      "name": "owner",
      "outputs": [
        {
          "internalType": "address",
          "name": "",
          "type": "address"
        }
      ],
      "stateMutability": "view",
      "type": "function"
    },
    {
      "inputs": [
        {
          "internalType": "uint256",
          "name": "",
          "type": "uint256"
        },
        {
          "internalType": "uint256",
          "name": "",
          "type": "uint256"
        }
      ],
      "name": "paymentHistory",
      "outputs": [
        {
          "internalType": "uint256",
          "name": "amount",
          "type": "uint256"
        },
        {
          "internalType": "uint256",
          "name": "timestamp",
          "type": "uint256"
        },
        {
          "internalType": "address",
          "name": "recipient",
          "type": "address"
        },
        {
          "internalType": "bool",
          "name": "claimed",
          "type": "bool"
        }
      ],
      "stateMutability": "view",
      "type": "function"
    },
    {
      "inputs": [],
      "name": "paymentToken",
      "outputs": [
        {
          "internalType": "contract IERC20",
          "name": "",
          "type": "address"
        }
      ],
      "stateMutability": "view",
      "type": "function"
    },
    {
      "inputs": [
        {
          "internalType": "uint256",
          "name": "",
          "type": "uint256"
        }
      ],
      "name": "pendingPayments",
      "outputs": [
        {
          "internalType": "uint256",
          "name": "",
          "type": "uint256"
        }
      ],
      "stateMutability": "view",
      "type": "function"
    },
    {
      "inputs": [
        {
          "internalType": "uint256",
          "name": "tokenId",
          "type": "uint256"
        },
        {
          "internalType": "uint256",
          "name": "amount",
          "type": "uint256"
        }
      ],
      "name": "recordPendingPayment",
      "outputs": [],
      "stateMutability": "nonpayable",
      "type": "function"
    },
    {
      "inputs": [],
      "name": "renounceOwnership",
      "outputs": [],
      "stateMutability": "nonpayable",
      "type": "function"
    },
    {
      "inputs": [
        {
          "internalType": "address",
          "name": "_bridge",
          "type": "address"
        }
      ],
      "name": "setBridgeReceiver",
      "outputs": [],
      "stateMutability": "nonpayable",
      "type": "function"
    },
    {
      "inputs": [
        {
          "internalType": "address",
          "name": "_loanNFT",
          "type": "address"
        }
      ],
      "name": "setLoanNFT",
      "outputs": [],
      "stateMutability": "nonpayable",
      "type": "function"
    },
    {
      "inputs": [
        {
          "internalType": "address",
          "name": "_token",
          "type": "address"
        }
      ],
      "name": "setPaymentToken",
      "outputs": [],
      "stateMutability": "nonpayable",
      "type": "function"
    },
    {
      "inputs": [],
      "name": "toggleDeposits",
      "outputs": [],
      "stateMutability": "nonpayable",
      "type": "function"
    },
    {
      "inputs": [],
      "name": "totalAmountDistributed",
      "outputs": [
        {
          "internalType": "uint256",
          "name": "",
          "type": "uint256"
        }
      ],
      "stateMutability": "view",
      "type": "function"
    },
    {
      "inputs": [],
      "name": "totalPaymentsClaimed",
      "outputs": [
        {
          "internalType": "uint256",
          "name": "",
          "type": "uint256"
        }
      ],
      "stateMutability": "view",
      "type": "function"
    },
    {
      "inputs": [],
      "name": "totalPaymentsRecorded",
      "outputs": [
        {
          "internalType": "uint256",
          "name": "",
          "type": "uint256"
        }
      ],
      "stateMutability": "view",
      "type": "function"
    },
    {
      "inputs": [
        {
          "internalType": "address",
          "name": "newOwner",
          "type": "address"
        }
      ],
      "name": "transferOwnership",
      "outputs": [],
      "stateMutability": "nonpayable",
      "type": "function"
    }
  ],
  "bytecode": "0x608034620001a157601f62001af038819003918201601f191683019291906001600160401b03841183851017620001a6578160609284926040968752833981010312620001a1576200005181620001bc565b6200006c836200006460208501620001bc565b9301620001bc565b6001600160a01b03918216919082156200018957816000549460018060a01b031994808688161760005582885197167f8be0079c531659141344cd1fd0a4f28419497f9722a3daafe3b4186f6b6457e0600080a360018055600160ff19600a541617600a551693841562000147575016918215620001035781600254161760025560035416176003555161191e9081620001d28239f35b835162461bcd60e51b815260206004820152601560248201527f496e76616c696420746f6b656e206164647265737300000000000000000000006044820152606490fd5b62461bcd60e51b815260206004820152601360248201527f496e76616c6964204e46542061646472657373000000000000000000000000006044820152606490fd5b8451631e4fbdf760e01b815260006004820152602490fd5b600080fd5b634e487b7160e01b600052604160045260246000fd5b51906001600160a01b0382168203620001a15756fe60806040908082526004908136101561001757600080fd5b600090813560e01c9081630a20897214611479575080631144e79e1461145d5780631fde7805146112495780633013ce291461122057806334a41177146111f757806339b728ac146111d85780633b76594d146110dd57806341f7a418146110be57806346605c2a14610e7e5780634865d48114610d965780634e02503a14610cf45780635312ea8e14610c215780635392fd1c14610bfd5780636a326ab114610bad5780636f9fb98a14610b15578063715018a614610abb5780638da5cb5b14610a935780639051cce91461070557806391cb98af146106445780639e59d9eb146106e65780639f4a714214610696578063ad1a17b41461066d578063afcc502714610644578063b27062db146105dc578063d044e81f14610554578063d907813c14610525578063e4f1da8f146103aa578063f2fde38b1461031c578063f5fc3aab146102475763fd90af9e1461016f57600080fd5b34610244576020806003193601126102405781923582526005815283822091825461019981611772565b936101a687519586611615565b81855282528282208290848087015b8484106101f3575050505050925b82518410156101ec576101e46001916101dc868661178a565b515190611656565b9301926101c3565b8451908152f35b6001916003918b51610204816115e3565b85548152848601548382015260ff8d600288015490878060a01b0382169084015260a01c161515606082015281520192019201919085906101b5565b5080fd5b80fd5b5091346103185761025736611523565b92603284116102e3575061026a836117dc565b92845b8181106102b85750505090815192839260208080860192818752855180945286019401925b8281106102a157505050500390f35b835185528695509381019392810192600101610292565b806102c6600192848661180e565b3587526006602052848720546102dc828861178a565b520161026d565b606490602084519162461bcd60e51b8352820152600f60248201526e517565727920746f6f206c6172676560881b6044820152fd5b8280fd5b509134610318576020366003190112610318576001600160a01b038235818116939192908490036103a65761034f6118e5565b831561039057505082546001600160a01b0319811683178455167f8be0079c531659141344cd1fd0a4f28419497f9722a3daafe3b4186f6b6457e08380a380f35b51631e4fbdf760e01b8152908101849052602490fd5b8480fd5b508234610240576103ba3661149e565b9283918152602093600585528382209182546103d581611772565b936103e287519586611615565b81855282528682208290888087015b8484106104d857505050505082518092116104cf575b61041084611772565b9561041d86519788611615565b848752601f1961042c86611772565b01825b8181106104a357505050805b8481106104535785518061044f89826114b9565b0390f35b848303838111610490579061047361046d82600194611656565b8661178a565b5161047e828a61178a565b52610489818961178a565b500161043b565b634e487b7160e01b835260118952602483fd5b829088516104b0816115e3565b8581528583820152858a82015285606082015282828c0101520161042f565b92508092610407565b6001916003918b516104e9816115e3565b85548152848601548382015260ff8d600288015490878060a01b0382169084015260a01c161515606082015281520192019201919089906103f1565b503461024457806003193601126102445761053e6118e5565b600a5460ff80821615169060ff191617600a5580f35b5091346103185760203660031901126103185781356001600160a01b03811691908290036105d8576105846118e5565b811561059d575081546001600160a01b03191617905580f35b5162461bcd60e51b81526020818401526016602482015275496e76616c696420627269646765206164647265737360501b6044820152606490fd5b8380fd5b508234610240576105ec3661149e565b929081526005602052818120908154841015610244575061061160809360ff92611570565b5080549260026001830154920154918151948552602085015260018060a01b0382169084015260a01c1615156060820152f35b509190346103185760203660031901126103185760209282913581526006845220549051908152f35b509190346103185760203660031901126103185760209282913581526005845220549051908152f35b50903461024057602036600319011261024057356001600160a01b03811690819003610240576106c46118e5565b6106cf81151561179e565b600280546001600160a01b03191691909117905580f35b5082346102405781600319360112610240576020906007549051908152f35b509190346103185761071636611523565b929061072061181e565b8315610a625760328411610a2d578492610739856117dc565b60025490926001600160a01b0391889083165b8882106109355750506107608615156116a0565b816003541693855180956370a0823160e01b8252308683015281602460209889935afa801561092b5788908b906108f6575b8197969594939250906107a69110156116e2565b895b898110610859575050600354865163a9059cbb60e01b81523394810194855260208501969096528493869390849003604001925083918b91165af1928315610850575061080e926108199592610806928892610823575b505061172e565b600854611656565b600855600954611656565b6009556001805580f35b6108429250803d10610849575b61083a8183611615565b810190611688565b38806107ff565b503d610830565b513d87823e3d90fd5b8192939495965061086c8160019361178a565b5161087f575b01908795949392916107a8565b61088a818b8661180e565b358b52600687528a888120556108aa6108a4828c8761180e565b35611841565b6108b5818b8661180e565b356108c0828561178a565b5190895191825242898301527f323b476e3de85384ba6766fa4ddb4422f28bfd874fd0ea4d9b77fde0a6b9f75e8a3393a3610872565b50508581813d8311610924575b61090d8183611615565b8101031261092057876107a69151610792565b8980fd5b503d610903565b87513d8c823e3d90fd5b9096610942888a8561180e565b87516331a9108f60e11b815290358682015260209060249082818381885afa908115610a23578d916109f6575b5086339116036109bb575060019160066109b3928d61098f8d8f8a61180e565b35905252888c20546109a18b8a61178a565b526109ac8a8961178a565b5190611656565b97019061074c565b601787916064938b519362461bcd60e51b8552840152820152764e6f74206f776e6572206f6620616c6c20746f6b656e7360481b6044820152fd5b610a169150833d8511610a1c575b610a0e8183611615565b810190611637565b3861096f565b503d610a04565b8a513d8f823e3d90fd5b815162461bcd60e51b8152602081850152600f60248201526e426174636820746f6f206c6172676560881b6044820152606490fd5b815162461bcd60e51b8152602081850152600b60248201526a456d70747920617272617960a81b6044820152606490fd5b508234610240578160031936011261024057905490516001600160a01b039091168152602090f35b5034610244578060031936011261024457610ad46118e5565b80546001600160a01b03198116825581906001600160a01b03167f8be0079c531659141344cd1fd0a4f28419497f9722a3daafe3b4186f6b6457e08280a380f35b50913461031857826003193601126103185760035481516370a0823160e01b81523093810193909352602090839060249082906001600160a01b03165afa918215610ba3578392610b6b575b6020838351908152f35b9091506020813d602011610b9b575b81610b8760209383611615565b810103126103185760209250519038610b61565b3d9150610b7a565b81513d85823e3d90fd5b50903461024057602036600319011261024057356001600160a01b0381169081900361024057610bdb6118e5565b610be681151561179e565b600380546001600160a01b03191691909117905580f35b50823461024057816003193601126102405760209060ff600a541690519015158152f35b50913461031857602036600319011261031857610c3c6118e5565b6003548354825163a9059cbb60e01b81526001600160a01b039182168582019081528535602082810191909152919391928492169082908890829060400103925af1908115610cea578491610ccb575b5015610c96578280f35b906020606492519162461bcd60e51b8352820152600f60248201526e15da5d1a191c985dc819985a5b1959608a1b6044820152fd5b610ce4915060203d6020116108495761083a8183611615565b38610c8c565b82513d86823e3d90fd5b50903461024057602090816003193601126103185735825260058152828220805491610d1f83611772565b93610d2c86519586611615565b8385529182528082208185015b848410610d4d5786518061044f88826114b9565b6003836001928951610d5e816115e3565b85548152848601548382015260ff6002870154868060a01b0381168d84015260a01c1615156060820152815201920193019290610d39565b50346102445760208060031936011261024057819235825260058152838220918254610dc181611772565b93610dce87519586611615565b81855282528282208290848087015b848410610e315750505050505b8251811015610e29576060610dff828561178a565b51015115610e10575b600101610dea565b92610e216001916101dc868661178a565b939050610e08565b508351838152f35b6001916003918b51610e42816115e3565b85548152848601548382015260ff8d600288015490878060a01b0382169084015260a01c16151560608201528152019201920191908590610ddd565b50913461031857602090816003193601126105d857823591610e9e61181e565b60025482516331a9108f60e11b81528086018590526001600160a01b0395918390829060249082908a165afa9081156110b4578791611097575b50853391160361106457602490848752600683528387205495610efc8715156116a0565b8381600354168651948580926370a0823160e01b825230878301525afa92831561105a5791879185938a9561101e575b50610f3c83610f869610156116e2565b878a52600684528987812055610f5188611841565b600354875163a9059cbb60e01b815233938101938452602084019490945292948593919091169183918b918391604090910190565b03925af1908115611014577f323b476e3de85384ba6766fa4ddb4422f28bfd874fd0ea4d9b77fde0a6b9f75e939291610fc6918891610ff7575b5061172e565b610fd1600854611679565b600855610fe085600954611656565b600955815194855242908501523393a36001805580f35b61100e9150833d85116108495761083a8183611615565b38610fc0565b83513d88823e3d90fd5b92509290935081813d8311611053575b6110388183611615565b8101031261104f5751918391879190610f3c610f2c565b8780fd5b503d61102e565b85513d8a823e3d90fd5b915162461bcd60e51b815291820152600f60248201526e2737ba103a37b5b2b71037bbb732b960891b6044820152606490fd5b6110ae9150833d8511610a1c57610a0e8183611615565b38610ed8565b84513d89823e3d90fd5b5082346102405781600319360112610240576020906008549051908152f35b509134610318576020806003193601126105d8578235926110ff8415156115a2565b60035483516323b872dd60e01b8152338382015230602482015260448101869052908390829060649082908a906001600160a01b03165af19081156111ce5786916111b1575b501561117f5750907fbee4fe3675934fca827426c793623996a3079255089bda3a717019ffc5db276591815193845242908401523392a280f35b915162461bcd60e51b815291820152600e60248201526d11195c1bdcda5d0819985a5b195960921b6044820152606490fd5b6111c89150833d85116108495761083a8183611615565b38611145565b84513d88823e3d90fd5b5082346102405781600319360112610240576020906009549051908152f35b50823461024057816003193601126102405760025490516001600160a01b039091168152602090f35b50823461024057816003193601126102405760035490516001600160a01b039091168152602090f35b508234610240576112593661149e565b84546001600160a01b0393919084163303611410576112798115156115a2565b8360025416825180916331a9108f60e11b8252858983015281602460209485935afa9081156110b45790869188916113f3575b50169485156113b957848752600682528387206112ca848254611656565b9055848752600582528387208451916112e2836115e3565b848352838301924284528681019389855260608201938b8552805490600160401b8210156113a5579061131a91600182018155611570565b929092611393577f8725f2c5dd483495a2c861c070dbfb5bdabfa6e3822b65f51ee924e8c3faae3a999a9b9c5090600292915182555160018201550192511682549160ff60a01b9051151560a01b169160018060a81b03191617179055611382600754611679565b60075582519182524290820152a380f35b634e487b7160e01b8c528b8d5260248cfd5b50634e487b7160e01b8c5260418d5260248cfd5b835162461bcd60e51b81528089018390526014602482015273151bdad95b88191bd95cc81b9bdd08195e1a5cdd60621b6044820152606490fd5b61140a9150833d8511610a1c57610a0e8183611615565b896112ac565b815162461bcd60e51b8152602081880152602160248201527f4f6e6c792042726964676552656365697665722063616e2063616c6c207468696044820152607360f81b6064820152608490fd5b5082346102405781600319360112610240576020905160328152f35b90508234610318578260031936011261031857546001600160a01b0316815260209150f35b60409060031901126114b4576004359060243590565b600080fd5b60208082019080835283518092528060408094019401926000905b8382106114e357505050505090565b8451805187528084015187850152808201516001600160a01b031687830152606090810151151590870152608090950194938201936001909101906114d4565b9060206003198301126114b45760043567ffffffffffffffff928382116114b457806023830112156114b45781600401359384116114b45760248460051b830101116114b4576024019190565b805482101561158c576000526003602060002091020190600090565b634e487b7160e01b600052603260045260246000fd5b156115a957565b60405162461bcd60e51b81526020600482015260126024820152710416d6f756e74206d757374206265203e20360741b6044820152606490fd5b6080810190811067ffffffffffffffff8211176115ff57604052565b634e487b7160e01b600052604160045260246000fd5b90601f8019910116810190811067ffffffffffffffff8211176115ff57604052565b908160209103126114b457516001600160a01b03811681036114b45790565b9190820180921161166357565b634e487b7160e01b600052601160045260246000fd5b60001981146116635760010190565b908160209103126114b4575180151581036114b45790565b156116a757565b60405162461bcd60e51b81526020600482015260136024820152724e6f2070656e64696e67207061796d656e747360681b6044820152606490fd5b156116e957565b60405162461bcd60e51b815260206004820152601d60248201527f496e73756666696369656e7420636f6e74726163742062616c616e63650000006044820152606490fd5b1561173557565b60405162461bcd60e51b815260206004820152601560248201527410db185a5b481d1c985b9cd9995c8819985a5b1959605a1b6044820152606490fd5b67ffffffffffffffff81116115ff5760051b60200190565b805182101561158c5760209160051b010190565b156117a557565b60405162461bcd60e51b815260206004820152600f60248201526e496e76616c6964206164647265737360881b6044820152606490fd5b906117e682611772565b6117f36040519182611615565b8281528092611804601f1991611772565b0190602036910137565b919081101561158c5760051b0190565b60026001541461182f576002600155565b604051633ee5aeb560e01b8152600490fd5b6000908152600560205260408120908154805b61185d57505050565b60001981018181116118d1576118738185611570565b509060ff60028093015460a01c16156000146118ca576118939085611570565b5001805460ff60a01b1916600160a01b17905580156118b6576000190180611854565b634e487b7160e01b82526011600452602482fd5b5050505050565b634e487b7160e01b83526011600452602483fd5b6000546001600160a01b031633036118f957565b60405163118cdaa760e01b8152336004820152602490fdfea164736f6c6343000818000a",
  "linkReferences": {},
  "deployedLinkReferences": {}
}