{
  "_format": "hh-sol-artifact-1",
  "contractName": "PaymentDistributor",
  "sourceName": "src/avalanche/PaymentDistributor.sol",
  "abi": [
    {
      "inputs": [
        {
          "internalType": "address",
          "name": "initialOwner",
          "type": "address"
        },
        {
          "internalType": "address",
          "name": "_loanNFT",
          "type": "address"
        },
        {
          "internalType": "address",
          "name": "_paymentToken",
          "type": "address"
        }
      ],
      "stateMutability": "nonpayable",
      "type": "constructor"
    },
    {
      "inputs": [
        {
          "internalType": "address",
          "name": "owner",
          "type": "address"
        }
      ],
      "name": "OwnableInvalidOwner",
      "type": "error"
    },
    {
      "inputs": [
        {
          "internalType": "address",
          "name": "account",
          "type": "address"
        }
      ],
      "name": "OwnableUnauthorizedAccount",
      "type": "error"
    },
    {
      "inputs": [],
      "name": "ReentrancyGuardReentrantCall",
      "type": "error"
    },
    {
      "anonymous": false,
      "inputs": [
        {
          "indexed": true,
          "internalType": "address",
          "name": "depositor",
          "type": "address"
        },
        {
          "indexed": false,
          "internalType": "uint256",
          "name": "amount",
          "type": "uint256"
        },
        {
          "indexed": false,
          "internalType": "uint256",
          "name": "timestamp",
          "type": "uint256"
        }
      ],
      "name": "FundsDeposited",
      "type": "event"
    },
    {
      "anonymous": false,
      "inputs": [
        {
          "indexed": true,
          "internalType": "address",
          "name": "previousOwner",
          "type": "address"
        },
        {
          "indexed": true,
          "internalType": "address",
          "name": "newOwner",
          "type": "address"
        }
      ],
      "name": "OwnershipTransferred",
      "type": "event"
    },
    {
      "anonymous": false,
      "inputs": [
        {
          "indexed": true,
          "internalType": "uint256",
          "name": "tokenId",
          "type": "uint256"
        },
        {
          "indexed": true,
          "internalType": "address",
          "name": "claimer",
          "type": "address"
        },
        {
          "indexed": false,
          "internalType": "uint256",
          "name": "amount",
          "type": "uint256"
        },
        {
          "indexed": false,
          "internalType": "uint256",
          "name": "timestamp",
          "type": "uint256"
        }
      ],
      "name": "PaymentClaimed",
      "type": "event"
    },
    {
      "anonymous": false,
      "inputs": [
        {
          "indexed": true,
          "internalType": "uint256",
          "name": "tokenId",
          "type": "uint256"
        },
        {
          "indexed": false,
          "internalType": "uint256",
          "name": "amount",
          "type": "uint256"
        },
        {
          "indexed": true,
          "internalType": "address",
          "name": "currentOwner",
          "type": "address"
        },
        {
          "indexed": false,
          "internalType": "uint256",
          "name": "timestamp",
          "type": "uint256"
        }
      ],
      "name": "PaymentRecorded",
      "type": "event"
    },
    {
      "inputs": [],
      "name": "MAX_BATCH_CLAIM",
      "outputs": [
        {
          "internalType": "uint256",
          "name": "",
          "type": "uint256"
        }
      ],
      "stateMutability": "view",
      "type": "function"
    },
    {
      "inputs": [],
      "name": "bridgeReceiver",
      "outputs": [
        {
          "internalType": "address",
          "name": "",
          "type": "address"
        }
      ],
      "stateMutability": "view",
      "type": "function"
    },
    {
      "inputs": [
        {
          "internalType": "uint256[]",
          "name": "tokenIds",
          "type": "uint256[]"
        }
      ],
      "name": "claimMultiple",
      "outputs": [],
      "stateMutability": "nonpayable",
      "type": "function"
    },
    {
      "inputs": [
        {
          "internalType": "uint256",
          "name": "tokenId",
          "type": "uint256"
        }
      ],
      "name": "claimPendingPayments",
      "outputs": [],
      "stateMutability": "nonpayable",
      "type": "function"
    },
    {
      "inputs": [
        {
          "internalType": "uint256",
          "name": "amount",
          "type": "uint256"
        }
      ],
      "name": "depositFunds",
      "outputs": [],
      "stateMutability": "nonpayable",
      "type": "function"
    },
    {
      "inputs": [],
      "name": "depositsEnabled",
      "outputs": [
        {
          "internalType": "bool",
          "name": "",
          "type": "bool"
        }
      ],
      "stateMutability": "view",
      "type": "function"
    },
    {
      "inputs": [
        {
          "internalType": "uint256",
          "name": "amount",
          "type": "uint256"
        }
      ],
      "name": "emergencyWithdraw",
      "outputs": [],
      "stateMutability": "nonpayable",
      "type": "function"
    },
    {
      "inputs": [],
      "name": "getContractBalance",
      "outputs": [
        {
          "internalType": "uint256",
          "name": "",
          "type": "uint256"
        }
      ],
      "stateMutability": "view",
      "type": "function"
    },
    {
      "inputs": [
        {
          "internalType": "uint256",
          "name": "tokenId",
          "type": "uint256"
        }
      ],
      "name": "getPaymentCount",
      "outputs": [
        {
          "internalType": "uint256",
          "name": "",
          "type": "uint256"
        }
      ],
      "stateMutability": "view",
      "type": "function"
    },
    {
      "inputs": [
        {
          "internalType": "uint256",
          "name": "tokenId",
          "type": "uint256"
        }
      ],
      "name": "getPaymentHistory",
      "outputs": [
        {
          "components": [
            {
              "internalType": "uint256",
              "name": "amount",
              "type": "uint256"
            },
            {
              "internalType": "uint256",
              "name": "timestamp",
              "type": "uint256"
            },
            {
              "internalType": "address",
              "name": "recipient",
              "type": "address"
            },
            {
              "internalType": "bool",
              "name": "claimed",
              "type": "bool"
            }
          ],
          "internalType": "struct PaymentDistributor.Payment[]",
          "name": "",
          "type": "tuple[]"
        }
      ],
      "stateMutability": "view",
      "type": "function"
    },
    {
      "inputs": [
        {
          "internalType": "uint256",
          "name": "tokenId",
          "type": "uint256"
        }
      ],
      "name": "getPendingAmount",
      "outputs": [
        {
          "internalType": "uint256",
          "name": "",
          "type": "uint256"
        }
      ],
      "stateMutability": "view",
      "type": "function"
    },
    {
      "inputs": [
        {
          "internalType": "uint256[]",
          "name": "tokenIds",
          "type": "uint256[]"
        }
      ],
      "name": "getPendingForMultiple",
      "outputs": [
        {
          "internalType": "uint256[]",
          "name": "",
          "type": "uint256[]"
        }
      ],
      "stateMutability": "view",
      "type": "function"
    },
    {
      "inputs": [
        {
          "internalType": "uint256",
          "name": "tokenId",
          "type": "uint256"
        },
        {
          "internalType": "uint256",
          "name": "count",
          "type": "uint256"
        }
      ],
      "name": "getRecentPayments",
      "outputs": [
        {
          "components": [
            {
              "internalType": "uint256",
              "name": "amount",
              "type": "uint256"
            },
            {
              "internalType": "uint256",
              "name": "timestamp",
              "type": "uint256"
            },
            {
              "internalType": "address",
              "name": "recipient",
              "type": "address"
            },
            {
              "internalType": "bool",
              "name": "claimed",
              "type": "bool"
            }
          ],
          "internalType": "struct PaymentDistributor.Payment[]",
          "name": "",
          "type": "tuple[]"
        }
      ],
      "stateMutability": "view",
      "type": "function"
    },
    {
      "inputs": [
        {
          "internalType": "uint256",
          "name": "tokenId",
          "type": "uint256"
        }
      ],
      "name": "getTotalPaymentsForToken",
      "outputs": [
        {
          "internalType": "uint256",
          "name": "total",
          "type": "uint256"
        }
      ],
      "stateMutability": "view",
      "type": "function"
    },
    {
      "inputs": [
        {
          "internalType": "uint256",
          "name": "tokenId",
          "type": "uint256"
        }
      ],
      "name": "getUnclaimedPaymentsForToken",
      "outputs": [
        {
          "internalType": "uint256",
          "name": "unclaimed",
          "type": "uint256"
        }
      ],
      "stateMutability": "view",
      "type": "function"
    },
    {
      "inputs": [],
      "name": "loanNFT",
      "outputs": [
        {
          "internalType": "contract IERC721",
          "name": "",
          "type": "address"
        }
      ],
      "stateMutability": "view",
      "type": "function"
    },
    {
      "inputs": [],
      "name": "owner",
      "outputs": [
        {
          "internalType": "address",
          "name": "",
          "type": "address"
        }
      ],
      "stateMutability": "view",
      "type": "function"
    },
    {
      "inputs": [
        {
          "internalType": "uint256",
          "name": "",
          "type": "uint256"
        },
        {
          "internalType": "uint256",
          "name": "",
          "type": "uint256"
        }
      ],
      "name": "paymentHistory",
      "outputs": [
        {
          "internalType": "uint256",
          "name": "amount",
          "type": "uint256"
        },
        {
          "internalType": "uint256",
          "name": "timestamp",
          "type": "uint256"
        },
        {
          "internalType": "address",
          "name": "recipient",
          "type": "address"
        },
        {
          "internalType": "bool",
          "name": "claimed",
          "type": "bool"
        }
      ],
      "stateMutability": "view",
      "type": "function"
    },
    {
      "inputs": [],
      "name": "paymentToken",
      "outputs": [
        {
          "internalType": "contract IERC20",
          "name": "",
          "type": "address"
        }
      ],
      "stateMutability": "view",
      "type": "function"
    },
    {
      "inputs": [
        {
          "internalType": "uint256",
          "name": "",
          "type": "uint256"
        }
      ],
      "name": "pendingPayments",
      "outputs": [
        {
          "internalType": "uint256",
          "name": "",
          "type": "uint256"
        }
      ],
      "stateMutability": "view",
      "type": "function"
    },
    {
      "inputs": [
        {
          "internalType": "uint256",
          "name": "tokenId",
          "type": "uint256"
        },
        {
          "internalType": "uint256",
          "name": "amount",
          "type": "uint256"
        }
      ],
      "name": "recordPendingPayment",
      "outputs": [],
      "stateMutability": "nonpayable",
      "type": "function"
    },
    {
      "inputs": [],
      "name": "renounceOwnership",
      "outputs": [],
      "stateMutability": "nonpayable",
      "type": "function"
    },
    {
      "inputs": [
        {
          "internalType": "address",
          "name": "_bridge",
          "type": "address"
        }
      ],
      "name": "setBridgeReceiver",
      "outputs": [],
      "stateMutability": "nonpayable",
      "type": "function"
    },
    {
      "inputs": [
        {
          "internalType": "address",
          "name": "_loanNFT",
          "type": "address"
        }
      ],
      "name": "setLoanNFT",
      "outputs": [],
      "stateMutability": "nonpayable",
      "type": "function"
    },
    {
      "inputs": [
        {
          "internalType": "address",
          "name": "_token",
          "type": "address"
        }
      ],
      "name": "setPaymentToken",
      "outputs": [],
      "stateMutability": "nonpayable",
      "type": "function"
    },
    {
      "inputs": [],
      "name": "toggleDeposits",
      "outputs": [],
      "stateMutability": "nonpayable",
      "type": "function"
    },
    {
      "inputs": [],
      "name": "totalAmountDistributed",
      "outputs": [
        {
          "internalType": "uint256",
          "name": "",
          "type": "uint256"
        }
      ],
      "stateMutability": "view",
      "type": "function"
    },
    {
      "inputs": [],
      "name": "totalPaymentsClaimed",
      "outputs": [
        {
          "internalType": "uint256",
          "name": "",
          "type": "uint256"
        }
      ],
      "stateMutability": "view",
      "type": "function"
    },
    {
      "inputs": [],
      "name": "totalPaymentsRecorded",
      "outputs": [
        {
          "internalType": "uint256",
          "name": "",
          "type": "uint256"
        }
      ],
      "stateMutability": "view",
      "type": "function"
    },
    {
      "inputs": [
        {
          "internalType": "address",
          "name": "newOwner",
          "type": "address"
        }
      ],
      "name": "transferOwnership",
      "outputs": [],
      "stateMutability": "nonpayable",
      "type": "function"
    }
  ],
  "bytecode": "0x608034620001a157601f62001ae438819003918201601f191683019291906001600160401b03841183851017620001a6578160609284926040968752833981010312620001a1576200005181620001bc565b6200006c836200006460208501620001bc565b9301620001bc565b6001600160a01b03918216919082156200018957816000549460018060a01b031994808688161760005582885197167f8be0079c531659141344cd1fd0a4f28419497f9722a3daafe3b4186f6b6457e0600080a360018055600160ff19600a541617600a55169384156200014757501691821562000103578160025416176002556003541617600355516119129081620001d28239f35b835162461bcd60e51b815260206004820152601560248201527f496e76616c696420746f6b656e206164647265737300000000000000000000006044820152606490fd5b62461bcd60e51b815260206004820152601360248201527f496e76616c6964204e46542061646472657373000000000000000000000000006044820152606490fd5b8451631e4fbdf760e01b815260006004820152602490fd5b600080fd5b634e487b7160e01b600052604160045260246000fd5b51906001600160a01b0382168203620001a15756fe60806040908082526004908136101561001757600080fd5b600090813560e01c9081630a20897214611413575080631144e79e146113f75780631fde7805146111e35780633013ce29146111ba57806334a411771461119157806339b728ac146111725780633b76594d1461107757806341f7a4181461105857806346605c2a14610e3e5780634865d48114610d565780634e02503a14610cb45780635312ea8e14610be65780635392fd1c14610bc25780636a326ab114610b725780636f9fb98a14610ada578063715018a614610a925780638da5cb5b14610a6a5780639051cce9146106f357806391cb98af146106325780639e59d9eb146106d45780639f4a714214610684578063ad1a17b41461065b578063afcc502714610632578063b27062db146105ca578063d044e81f14610542578063d907813c14610513578063e4f1da8f14610398578063f2fde38b1461031c578063f5fc3aab146102475763fd90af9e1461016f57600080fd5b34610244576020806003193601126102405781923582526005815283822091825461019981611727565b936101a6875195866115ae565b81855282528282208290848087015b8484106101f3575050505050925b82518410156101ec576101e46001916101dc868661173e565b5151906115f0565b9301926101c3565b8451908152f35b6001916003918b516102048161157d565b85548152848601548382015260ff8d600288015490878060a01b0382169084015260a01c161515606082015281520192019201919085906101b5565b5080fd5b80fd5b50913461031857610257366114bd565b92603284116102e3575061026a83611790565b92845b8181106102b85750505090815192839260208080860192818752855180945286019401925b8281106102a157505050500390f35b835185528695509381019392810192600101610292565b806102c660019284866117c2565b3587526006602052848720546102dc828861173e565b520161026d565b606490602084519162461bcd60e51b8352820152600f60248201526e517565727920746f6f206c6172676560881b6044820152fd5b8280fd5b509134610318576020366003190112610318576001600160a01b038235818116939192908490036103945761034f611899565b831561037e57505082546001600160a01b0319811683178455166000805160206118e68339815191528380a380f35b51631e4fbdf760e01b8152908101849052602490fd5b8480fd5b508234610240576103a836611438565b9283918152602093600585528382209182546103c381611727565b936103d0875195866115ae565b81855282528682208290888087015b8484106104c657505050505082518092116104bd575b6103fe84611727565b9561040b865197886115ae565b848752601f1961041a86611727565b01825b81811061049157505050805b8481106104415785518061043d8982611453565b0390f35b84830383811161047e579061046161045b826001946115f0565b8661173e565b5161046c828a61173e565b52610477818961173e565b5001610429565b634e487b7160e01b835260118952602483fd5b8290885161049e8161157d565b8581528583820152858a82015285606082015282828c0101520161041d565b925080926103f5565b6001916003918b516104d78161157d565b85548152848601548382015260ff8d600288015490878060a01b0382169084015260a01c161515606082015281520192019201919089906103df565b503461024457806003193601126102445761052c611899565b600a5460ff80821615169060ff191617600a5580f35b5091346103185760203660031901126103185781356001600160a01b03811691908290036105c657610572611899565b811561058b575081546001600160a01b03191617905580f35b5162461bcd60e51b81526020818401526016602482015275496e76616c696420627269646765206164647265737360501b6044820152606490fd5b8380fd5b508234610240576105da36611438565b92908152600560205281812090815484101561024457506105ff60809360ff9261150a565b5080549260026001830154920154918151948552602085015260018060a01b0382169084015260a01c1615156060820152f35b509190346103185760203660031901126103185760209282913581526006845220549051908152f35b509190346103185760203660031901126103185760209282913581526005845220549051908152f35b50903461024057602036600319011261024057356001600160a01b03811690819003610240576106b2611899565b6106bd811515611752565b600280546001600160a01b03191691909117905580f35b5082346102405781600319360112610240576020906007549051908152f35b5091903461031857610704366114bd565b929061070e6117d2565b8315610a395760328411610a0457849261072785611790565b60025490926001600160a01b0391889083165b88821061090c57505061074e86151561163a565b816003541693855180956370a0823160e01b8252308683015281602460209889935afa80156109025788908b906108cd575b81979695949392509061079491101561167c565b895b898110610842575050509282916107c894600354169089875180978195829463a9059cbb60e01b8452339084016116c8565b03925af192831561083957506107f79261080295926107ef92889261080c575b50506116e3565b6008546115f0565b6008556009546115f0565b6009556001805580f35b61082b9250803d10610832575b61082381836115ae565b810190611622565b38806107e8565b503d610819565b513d87823e3d90fd5b819293949596506108558160019361173e565b51610868575b0190879594939291610796565b610873818b866117c2565b358b52600687528a8881205561089361088d828c876117c2565b356117f5565b61089e818b866117c2565b356108a9828561173e565b5190895191825242898301526000805160206118c68339815191528a3393a361085b565b50508581813d83116108fb575b6108e481836115ae565b810103126108f757876107949151610780565b8980fd5b503d6108da565b87513d8c823e3d90fd5b9096610919888a856117c2565b87516331a9108f60e11b815290358682015260209060249082818381885afa9081156109fa578d916109cd575b5086339116036109925750600191600661098a928d6109668d8f8a6117c2565b35905252888c20546109788b8a61173e565b526109838a8961173e565b51906115f0565b97019061073a565b601787916064938b519362461bcd60e51b8552840152820152764e6f74206f776e6572206f6620616c6c20746f6b656e7360481b6044820152fd5b6109ed9150833d85116109f3575b6109e581836115ae565b8101906115d1565b38610946565b503d6109db565b8a513d8f823e3d90fd5b815162461bcd60e51b8152602081850152600f60248201526e426174636820746f6f206c6172676560881b6044820152606490fd5b815162461bcd60e51b8152602081850152600b60248201526a456d70747920617272617960a81b6044820152606490fd5b508234610240578160031936011261024057905490516001600160a01b039091168152602090f35b5034610244578060031936011261024457610aab611899565b80546001600160a01b03198116825581906001600160a01b03166000805160206118e68339815191528280a380f35b50913461031857826003193601126103185760035481516370a0823160e01b81523093810193909352602090839060249082906001600160a01b03165afa918215610b68578392610b30575b6020838351908152f35b9091506020813d602011610b60575b81610b4c602093836115ae565b810103126103185760209250519038610b26565b3d9150610b3f565b81513d85823e3d90fd5b50903461024057602036600319011261024057356001600160a01b0381169081900361024057610ba0611899565b610bab811515611752565b600380546001600160a01b03191691909117905580f35b50823461024057816003193601126102405760209060ff600a541690519015158152f35b50913461031857602036600319011261031857610c01611899565b6003548354825163a9059cbb60e01b81529160209183916001600160a01b0390811691839189918391610c3a918b3591168b84016116c8565b03925af1908115610caa578491610c8b575b5015610c56578280f35b906020606492519162461bcd60e51b8352820152600f60248201526e15da5d1a191c985dc819985a5b1959608a1b6044820152fd5b610ca4915060203d6020116108325761082381836115ae565b38610c4c565b82513d86823e3d90fd5b50903461024057602090816003193601126103185735825260058152828220805491610cdf83611727565b93610cec865195866115ae565b8385529182528082208185015b848410610d0d5786518061043d8882611453565b6003836001928951610d1e8161157d565b85548152848601548382015260ff6002870154868060a01b0381168d84015260a01c1615156060820152815201920193019290610cf9565b50346102445760208060031936011261024057819235825260058152838220918254610d8181611727565b93610d8e875195866115ae565b81855282528282208290848087015b848410610df15750505050505b8251811015610de9576060610dbf828561173e565b51015115610dd0575b600101610daa565b92610de16001916101dc868661173e565b939050610dc8565b508351838152f35b6001916003918b51610e028161157d565b85548152848601548382015260ff8d600288015490878060a01b0382169084015260a01c16151560608201528152019201920191908590610d9d565b50913461031857602090816003193601126105c657823591610e5e6117d2565b60025482516331a9108f60e11b81528086018590526001600160a01b0395918390829060249082908a165afa90811561104e578791611031575b508533911603610ffe57602490848752600683528387205495610ebc87151561163a565b8381600354168651948580926370a0823160e01b825230878301525afa928315610ff45791879185938a95610fb8575b50610efc83610f3296101561167c565b878a52600684528987812055610f11886117f5565b600354169089875180968195829463a9059cbb60e01b8452339084016116c8565b03925af1908115610fae576000805160206118c6833981519152939291610f60918891610f91575b506116e3565b610f6b600854611613565b600855610f7a856009546115f0565b600955815194855242908501523393a36001805580f35b610fa89150833d85116108325761082381836115ae565b38610f5a565b83513d88823e3d90fd5b92509290935081813d8311610fed575b610fd281836115ae565b81010312610fe95751918391879190610efc610eec565b8780fd5b503d610fc8565b85513d8a823e3d90fd5b915162461bcd60e51b815291820152600f60248201526e2737ba103a37b5b2b71037bbb732b960891b6044820152606490fd5b6110489150833d85116109f3576109e581836115ae565b38610e98565b84513d89823e3d90fd5b5082346102405781600319360112610240576020906008549051908152f35b509134610318576020806003193601126105c65782359261109984151561153c565b60035483516323b872dd60e01b8152338382015230602482015260448101869052908390829060649082908a906001600160a01b03165af190811561116857869161114b575b50156111195750907fbee4fe3675934fca827426c793623996a3079255089bda3a717019ffc5db276591815193845242908401523392a280f35b915162461bcd60e51b815291820152600e60248201526d11195c1bdcda5d0819985a5b195960921b6044820152606490fd5b6111629150833d85116108325761082381836115ae565b386110df565b84513d88823e3d90fd5b5082346102405781600319360112610240576020906009549051908152f35b50823461024057816003193601126102405760025490516001600160a01b039091168152602090f35b50823461024057816003193601126102405760035490516001600160a01b039091168152602090f35b508234610240576111f336611438565b84546001600160a01b03939190841633036113aa5761121381151561153c565b8360025416825180916331a9108f60e11b8252858983015281602460209485935afa90811561104e57908691889161138d575b501694851561135357848752600682528387206112648482546115f0565b90558487526005825283872084519161127c8361157d565b848352838301924284528681019389855260608201938b8552805490600160401b82101561133f57906112b49160018201815561150a565b92909261132d577f8725f2c5dd483495a2c861c070dbfb5bdabfa6e3822b65f51ee924e8c3faae3a999a9b9c5090600292915182555160018201550192511682549160ff60a01b9051151560a01b169160018060a81b0319161717905561131c600754611613565b60075582519182524290820152a380f35b634e487b7160e01b8c528b8d5260248cfd5b50634e487b7160e01b8c5260418d5260248cfd5b835162461bcd60e51b81528089018390526014602482015273151bdad95b88191bd95cc81b9bdd08195e1a5cdd60621b6044820152606490fd5b6113a49150833d85116109f3576109e581836115ae565b89611246565b815162461bcd60e51b8152602081880152602160248201527f4f6e6c792042726964676552656365697665722063616e2063616c6c207468696044820152607360f81b6064820152608490fd5b5082346102405781600319360112610240576020905160328152f35b90508234610318578260031936011261031857546001600160a01b0316815260209150f35b604090600319011261144e576004359060243590565b600080fd5b60208082019080835283518092528060408094019401926000905b83821061147d57505050505090565b8451805187528084015187850152808201516001600160a01b0316878301526060908101511515908701526080909501949382019360019091019061146e565b90602060031983011261144e576001600160401b03916004359083821161144e578060238301121561144e57816004013593841161144e5760248460051b8301011161144e576024019190565b8054821015611526576000526003602060002091020190600090565b634e487b7160e01b600052603260045260246000fd5b1561154357565b60405162461bcd60e51b81526020600482015260126024820152710416d6f756e74206d757374206265203e20360741b6044820152606490fd5b608081019081106001600160401b0382111761159857604052565b634e487b7160e01b600052604160045260246000fd5b601f909101601f19168101906001600160401b0382119082101761159857604052565b9081602091031261144e57516001600160a01b038116810361144e5790565b919082018092116115fd57565b634e487b7160e01b600052601160045260246000fd5b60001981146115fd5760010190565b9081602091031261144e5751801515810361144e5790565b1561164157565b60405162461bcd60e51b81526020600482015260136024820152724e6f2070656e64696e67207061796d656e747360681b6044820152606490fd5b1561168357565b60405162461bcd60e51b815260206004820152601d60248201527f496e73756666696369656e7420636f6e74726163742062616c616e63650000006044820152606490fd5b6001600160a01b039091168152602081019190915260400190565b156116ea57565b60405162461bcd60e51b815260206004820152601560248201527410db185a5b481d1c985b9cd9995c8819985a5b1959605a1b6044820152606490fd5b6001600160401b0381116115985760051b60200190565b80518210156115265760209160051b010190565b1561175957565b60405162461bcd60e51b815260206004820152600f60248201526e496e76616c6964206164647265737360881b6044820152606490fd5b9061179a82611727565b6117a760405191826115ae565b82815280926117b8601f1991611727565b0190602036910137565b91908110156115265760051b0190565b6002600154146117e3576002600155565b604051633ee5aeb560e01b8152600490fd5b6000908152600560205260408120908154805b61181157505050565b600019810181811161188557611827818561150a565b509060ff60028093015460a01c161560001461187e57611847908561150a565b5001805460ff60a01b1916600160a01b179055801561186a576000190180611808565b634e487b7160e01b82526011600452602482fd5b5050505050565b634e487b7160e01b83526011600452602483fd5b6000546001600160a01b031633036118ad57565b60405163118cdaa760e01b8152336004820152602490fdfe323b476e3de85384ba6766fa4ddb4422f28bfd874fd0ea4d9b77fde0a6b9f75e8be0079c531659141344cd1fd0a4f28419497f9722a3daafe3b4186f6b6457e0a164736f6c6343000818000a",
  "linkReferences": {},
  "deployedLinkReferences": {}
}