{
  "_format": "hh-sol-artifact-1",
  "contractName": "USFCI_Avalanche",
  "sourceName": "src/avalanche/USFCIAvalanche.sol",
  "abi": [
    {
      "inputs": [],
      "stateMutability": "nonpayable",
      "type": "constructor"
    },
    {
      "inputs": [],
      "name": "AccessControlBadConfirmation",
      "type": "error"
    },
    {
      "inputs": [
        {
          "internalType": "address",
          "name": "account",
          "type": "address"
        },
        {
          "internalType": "bytes32",
          "name": "neededRole",
          "type": "bytes32"
        }
      ],
      "name": "AccessControlUnauthorizedAccount",
      "type": "error"
    },
    {
      "inputs": [
        {
          "internalType": "address",
          "name": "target",
          "type": "address"
        }
      ],
      "name": "AddressEmptyCode",
      "type": "error"
    },
    {
      "inputs": [
        {
          "internalType": "address",
          "name": "implementation",
          "type": "address"
        }
      ],
      "name": "ERC1967InvalidImplementation",
      "type": "error"
    },
    {
      "inputs": [],
      "name": "ERC1967NonPayable",
      "type": "error"
    },
    {
      "inputs": [
        {
          "internalType": "address",
          "name": "spender",
          "type": "address"
        },
        {
          "internalType": "uint256",
          "name": "allowance",
          "type": "uint256"
        },
        {
          "internalType": "uint256",
          "name": "needed",
          "type": "uint256"
        }
      ],
      "name": "ERC20InsufficientAllowance",
      "type": "error"
    },
    {
      "inputs": [
        {
          "internalType": "address",
          "name": "sender",
          "type": "address"
        },
        {
          "internalType": "uint256",
          "name": "balance",
          "type": "uint256"
        },
        {
          "internalType": "uint256",
          "name": "needed",
          "type": "uint256"
        }
      ],
      "name": "ERC20InsufficientBalance",
      "type": "error"
    },
    {
      "inputs": [
        {
          "internalType": "address",
          "name": "approver",
          "type": "address"
        }
      ],
      "name": "ERC20InvalidApprover",
      "type": "error"
    },
    {
      "inputs": [
        {
          "internalType": "address",
          "name": "receiver",
          "type": "address"
        }
      ],
      "name": "ERC20InvalidReceiver",
      "type": "error"
    },
    {
      "inputs": [
        {
          "internalType": "address",
          "name": "sender",
          "type": "address"
        }
      ],
      "name": "ERC20InvalidSender",
      "type": "error"
    },
    {
      "inputs": [
        {
          "internalType": "address",
          "name": "spender",
          "type": "address"
        }
      ],
      "name": "ERC20InvalidSpender",
      "type": "error"
    },
    {
      "inputs": [],
      "name": "EnforcedPause",
      "type": "error"
    },
    {
      "inputs": [],
      "name": "ExpectedPause",
      "type": "error"
    },
    {
      "inputs": [],
      "name": "FailedCall",
      "type": "error"
    },
    {
      "inputs": [],
      "name": "InvalidInitialization",
      "type": "error"
    },
    {
      "inputs": [],
      "name": "NotInitializing",
      "type": "error"
    },
    {
      "inputs": [],
      "name": "ReentrancyGuardReentrantCall",
      "type": "error"
    },
    {
      "inputs": [],
      "name": "UUPSUnauthorizedCallContext",
      "type": "error"
    },
    {
      "inputs": [
        {
          "internalType": "bytes32",
          "name": "slot",
          "type": "bytes32"
        }
      ],
      "name": "UUPSUnsupportedProxiableUUID",
      "type": "error"
    },
    {
      "anonymous": false,
      "inputs": [
        {
          "indexed": true,
          "internalType": "address",
          "name": "owner",
          "type": "address"
        },
        {
          "indexed": true,
          "internalType": "address",
          "name": "spender",
          "type": "address"
        },
        {
          "indexed": false,
          "internalType": "uint256",
          "name": "value",
          "type": "uint256"
        }
      ],
      "name": "Approval",
      "type": "event"
    },
    {
      "anonymous": false,
      "inputs": [
        {
          "indexed": true,
          "internalType": "address",
          "name": "wallet",
          "type": "address"
        },
        {
          "indexed": false,
          "internalType": "uint256",
          "name": "amount",
          "type": "uint256"
        },
        {
          "indexed": false,
          "internalType": "uint256",
          "name": "timestamp",
          "type": "uint256"
        }
      ],
      "name": "BalanceFrozen",
      "type": "event"
    },
    {
      "anonymous": false,
      "inputs": [
        {
          "indexed": true,
          "internalType": "address",
          "name": "wallet",
          "type": "address"
        },
        {
          "indexed": false,
          "internalType": "uint256",
          "name": "amount",
          "type": "uint256"
        },
        {
          "indexed": false,
          "internalType": "uint256",
          "name": "timestamp",
          "type": "uint256"
        }
      ],
      "name": "BalanceUnfrozen",
      "type": "event"
    },
    {
      "anonymous": false,
      "inputs": [
        {
          "indexed": false,
          "internalType": "uint64",
          "name": "version",
          "type": "uint64"
        }
      ],
      "name": "Initialized",
      "type": "event"
    },
    {
      "anonymous": false,
      "inputs": [
        {
          "indexed": false,
          "internalType": "address",
          "name": "account",
          "type": "address"
        }
      ],
      "name": "Paused",
      "type": "event"
    },
    {
      "anonymous": false,
      "inputs": [
        {
          "indexed": true,
          "internalType": "bytes32",
          "name": "role",
          "type": "bytes32"
        },
        {
          "indexed": true,
          "internalType": "bytes32",
          "name": "previousAdminRole",
          "type": "bytes32"
        },
        {
          "indexed": true,
          "internalType": "bytes32",
          "name": "newAdminRole",
          "type": "bytes32"
        }
      ],
      "name": "RoleAdminChanged",
      "type": "event"
    },
    {
      "anonymous": false,
      "inputs": [
        {
          "indexed": true,
          "internalType": "bytes32",
          "name": "role",
          "type": "bytes32"
        },
        {
          "indexed": true,
          "internalType": "address",
          "name": "account",
          "type": "address"
        },
        {
          "indexed": true,
          "internalType": "address",
          "name": "sender",
          "type": "address"
        }
      ],
      "name": "RoleGranted",
      "type": "event"
    },
    {
      "anonymous": false,
      "inputs": [
        {
          "indexed": true,
          "internalType": "bytes32",
          "name": "role",
          "type": "bytes32"
        },
        {
          "indexed": true,
          "internalType": "address",
          "name": "account",
          "type": "address"
        },
        {
          "indexed": true,
          "internalType": "address",
          "name": "sender",
          "type": "address"
        }
      ],
      "name": "RoleRevoked",
      "type": "event"
    },
    {
      "anonymous": false,
      "inputs": [
        {
          "indexed": true,
          "internalType": "address",
          "name": "wallet",
          "type": "address"
        },
        {
          "indexed": false,
          "internalType": "uint256",
          "name": "amount",
          "type": "uint256"
        },
        {
          "indexed": false,
          "internalType": "string",
          "name": "reason",
          "type": "string"
        },
        {
          "indexed": false,
          "internalType": "uint256",
          "name": "timestamp",
          "type": "uint256"
        }
      ],
      "name": "TokensBurned",
      "type": "event"
    },
    {
      "anonymous": false,
      "inputs": [
        {
          "indexed": true,
          "internalType": "address",
          "name": "recipient",
          "type": "address"
        },
        {
          "indexed": false,
          "internalType": "uint256",
          "name": "amount",
          "type": "uint256"
        },
        {
          "indexed": false,
          "internalType": "string",
          "name": "reserveProof",
          "type": "string"
        },
        {
          "indexed": false,
          "internalType": "uint256",
          "name": "timestamp",
          "type": "uint256"
        }
      ],
      "name": "TokensMinted",
      "type": "event"
    },
    {
      "anonymous": false,
      "inputs": [
        {
          "indexed": true,
          "internalType": "address",
          "name": "from",
          "type": "address"
        },
        {
          "indexed": true,
          "internalType": "address",
          "name": "to",
          "type": "address"
        },
        {
          "indexed": false,
          "internalType": "uint256",
          "name": "value",
          "type": "uint256"
        }
      ],
      "name": "Transfer",
      "type": "event"
    },
    {
      "anonymous": false,
      "inputs": [
        {
          "indexed": false,
          "internalType": "address",
          "name": "account",
          "type": "address"
        }
      ],
      "name": "Unpaused",
      "type": "event"
    },
    {
      "anonymous": false,
      "inputs": [
        {
          "indexed": true,
          "internalType": "address",
          "name": "implementation",
          "type": "address"
        }
      ],
      "name": "Upgraded",
      "type": "event"
    },
    {
      "inputs": [],
      "name": "BURNER_ROLE",
      "outputs": [
        {
          "internalType": "bytes32",
          "name": "",
          "type": "bytes32"
        }
      ],
      "stateMutability": "view",
      "type": "function"
    },
    {
      "inputs": [],
      "name": "COMPLIANCE_ROLE",
      "outputs": [
        {
          "internalType": "bytes32",
          "name": "",
          "type": "bytes32"
        }
      ],
      "stateMutability": "view",
      "type": "function"
    },
    {
      "inputs": [],
      "name": "DEFAULT_ADMIN_ROLE",
      "outputs": [
        {
          "internalType": "bytes32",
          "name": "",
          "type": "bytes32"
        }
      ],
      "stateMutability": "view",
      "type": "function"
    },
    {
      "inputs": [],
      "name": "MINTER_ROLE",
      "outputs": [
        {
          "internalType": "bytes32",
          "name": "",
          "type": "bytes32"
        }
      ],
      "stateMutability": "view",
      "type": "function"
    },
    {
      "inputs": [],
      "name": "UPGRADE_INTERFACE_VERSION",
      "outputs": [
        {
          "internalType": "string",
          "name": "",
          "type": "string"
        }
      ],
      "stateMutability": "view",
      "type": "function"
    },
    {
      "inputs": [
        {
          "internalType": "address",
          "name": "owner",
          "type": "address"
        },
        {
          "internalType": "address",
          "name": "spender",
          "type": "address"
        }
      ],
      "name": "allowance",
      "outputs": [
        {
          "internalType": "uint256",
          "name": "",
          "type": "uint256"
        }
      ],
      "stateMutability": "view",
      "type": "function"
    },
    {
      "inputs": [
        {
          "internalType": "address",
          "name": "spender",
          "type": "address"
        },
        {
          "internalType": "uint256",
          "name": "value",
          "type": "uint256"
        }
      ],
      "name": "approve",
      "outputs": [
        {
          "internalType": "bool",
          "name": "",
          "type": "bool"
        }
      ],
      "stateMutability": "nonpayable",
      "type": "function"
    },
    {
      "inputs": [
        {
          "internalType": "address",
          "name": "wallet",
          "type": "address"
        }
      ],
      "name": "availableBalance",
      "outputs": [
        {
          "internalType": "uint256",
          "name": "",
          "type": "uint256"
        }
      ],
      "stateMutability": "view",
      "type": "function"
    },
    {
      "inputs": [
        {
          "internalType": "address",
          "name": "account",
          "type": "address"
        }
      ],
      "name": "balanceOf",
      "outputs": [
        {
          "internalType": "uint256",
          "name": "",
          "type": "uint256"
        }
      ],
      "stateMutability": "view",
      "type": "function"
    },
    {
      "inputs": [
        {
          "internalType": "address",
          "name": "wallet",
          "type": "address"
        },
        {
          "internalType": "uint256",
          "name": "amount",
          "type": "uint256"
        },
        {
          "internalType": "string",
          "name": "reason",
          "type": "string"
        }
      ],
      "name": "burnTokens",
      "outputs": [
        {
          "internalType": "bool",
          "name": "",
          "type": "bool"
        }
      ],
      "stateMutability": "nonpayable",
      "type": "function"
    },
    {
      "inputs": [],
      "name": "decimals",
      "outputs": [
        {
          "internalType": "uint8",
          "name": "",
          "type": "uint8"
        }
      ],
      "stateMutability": "view",
      "type": "function"
    },
    {
      "inputs": [
        {
          "internalType": "address",
          "name": "wallet",
          "type": "address"
        },
        {
          "internalType": "uint256",
          "name": "amount",
          "type": "uint256"
        }
      ],
      "name": "freezeBalance",
      "outputs": [],
      "stateMutability": "nonpayable",
      "type": "function"
    },
    {
      "inputs": [
        {
          "internalType": "address",
          "name": "",
          "type": "address"
        }
      ],
      "name": "frozenBalance",
      "outputs": [
        {
          "internalType": "uint256",
          "name": "",
          "type": "uint256"
        }
      ],
      "stateMutability": "view",
      "type": "function"
    },
    {
      "inputs": [],
      "name": "getAllBurnRecords",
      "outputs": [
        {
          "components": [
            {
              "internalType": "address",
              "name": "wallet",
              "type": "address"
            },
            {
              "internalType": "uint256",
              "name": "amount",
              "type": "uint256"
            },
            {
              "internalType": "string",
              "name": "reason",
              "type": "string"
            },
            {
              "internalType": "uint256",
              "name": "timestamp",
              "type": "uint256"
            }
          ],
          "internalType": "struct USFCI_Avalanche.BurnRecord[]",
          "name": "",
          "type": "tuple[]"
        }
      ],
      "stateMutability": "view",
      "type": "function"
    },
    {
      "inputs": [],
      "name": "getAllMintRecords",
      "outputs": [
        {
          "components": [
            {
              "internalType": "address",
              "name": "recipient",
              "type": "address"
            },
            {
              "internalType": "uint256",
              "name": "amount",
              "type": "uint256"
            },
            {
              "internalType": "string",
              "name": "reserveProof",
              "type": "string"
            },
            {
              "internalType": "uint256",
              "name": "timestamp",
              "type": "uint256"
            },
            {
              "internalType": "address",
              "name": "minter",
              "type": "address"
            }
          ],
          "internalType": "struct USFCI_Avalanche.MintRecord[]",
          "name": "",
          "type": "tuple[]"
        }
      ],
      "stateMutability": "view",
      "type": "function"
    },
    {
      "inputs": [
        {
          "internalType": "address",
          "name": "wallet",
          "type": "address"
        }
      ],
      "name": "getMintHistory",
      "outputs": [
        {
          "components": [
            {
              "internalType": "address",
              "name": "recipient",
              "type": "address"
            },
            {
              "internalType": "uint256",
              "name": "amount",
              "type": "uint256"
            },
            {
              "internalType": "string",
              "name": "reserveProof",
              "type": "string"
            },
            {
              "internalType": "uint256",
              "name": "timestamp",
              "type": "uint256"
            },
            {
              "internalType": "address",
              "name": "minter",
              "type": "address"
            }
          ],
          "internalType": "struct USFCI_Avalanche.MintRecord[]",
          "name": "",
          "type": "tuple[]"
        }
      ],
      "stateMutability": "view",
      "type": "function"
    },
    {
      "inputs": [
        {
          "internalType": "bytes32",
          "name": "role",
          "type": "bytes32"
        }
      ],
      "name": "getRoleAdmin",
      "outputs": [
        {
          "internalType": "bytes32",
          "name": "",
          "type": "bytes32"
        }
      ],
      "stateMutability": "view",
      "type": "function"
    },
    {
      "inputs": [],
      "name": "getStatistics",
      "outputs": [
        {
          "internalType": "uint256",
          "name": "totalMints",
          "type": "uint256"
        },
        {
          "internalType": "uint256",
          "name": "totalBurns",
          "type": "uint256"
        },
        {
          "internalType": "uint256",
          "name": "currentSupply",
          "type": "uint256"
        }
      ],
      "stateMutability": "view",
      "type": "function"
    },
    {
      "inputs": [
        {
          "internalType": "bytes32",
          "name": "role",
          "type": "bytes32"
        },
        {
          "internalType": "address",
          "name": "account",
          "type": "address"
        }
      ],
      "name": "grantRole",
      "outputs": [],
      "stateMutability": "nonpayable",
      "type": "function"
    },
    {
      "inputs": [
        {
          "internalType": "bytes32",
          "name": "role",
          "type": "bytes32"
        },
        {
          "internalType": "address",
          "name": "account",
          "type": "address"
        }
      ],
      "name": "hasRole",
      "outputs": [
        {
          "internalType": "bool",
          "name": "",
          "type": "bool"
        }
      ],
      "stateMutability": "view",
      "type": "function"
    },
    {
      "inputs": [
        {
          "internalType": "address",
          "name": "initialOwner",
          "type": "address"
        },
        {
          "internalType": "string",
          "name": "_reserveBank",
          "type": "string"
        }
      ],
      "name": "initialize",
      "outputs": [],
      "stateMutability": "nonpayable",
      "type": "function"
    },
    {
      "inputs": [
        {
          "internalType": "address",
          "name": "recipient",
          "type": "address"
        },
        {
          "internalType": "uint256",
          "name": "amount",
          "type": "uint256"
        },
        {
          "internalType": "string",
          "name": "reserveProof",
          "type": "string"
        }
      ],
      "name": "mintTokens",
      "outputs": [
        {
          "internalType": "bool",
          "name": "",
          "type": "bool"
        }
      ],
      "stateMutability": "nonpayable",
      "type": "function"
    },
    {
      "inputs": [],
      "name": "name",
      "outputs": [
        {
          "internalType": "string",
          "name": "",
          "type": "string"
        }
      ],
      "stateMutability": "view",
      "type": "function"
    },
    {
      "inputs": [],
      "name": "pause",
      "outputs": [],
      "stateMutability": "nonpayable",
      "type": "function"
    },
    {
      "inputs": [],
      "name": "paused",
      "outputs": [
        {
          "internalType": "bool",
          "name": "",
          "type": "bool"
        }
      ],
      "stateMutability": "view",
      "type": "function"
    },
    {
      "inputs": [],
      "name": "proxiableUUID",
      "outputs": [
        {
          "internalType": "bytes32",
          "name": "",
          "type": "bytes32"
        }
      ],
      "stateMutability": "view",
      "type": "function"
    },
    {
      "inputs": [
        {
          "internalType": "bytes32",
          "name": "role",
          "type": "bytes32"
        },
        {
          "internalType": "address",
          "name": "callerConfirmation",
          "type": "address"
        }
      ],
      "name": "renounceRole",
      "outputs": [],
      "stateMutability": "nonpayable",
      "type": "function"
    },
    {
      "inputs": [],
      "name": "reserveBank",
      "outputs": [
        {
          "internalType": "string",
          "name": "",
          "type": "string"
        }
      ],
      "stateMutability": "view",
      "type": "function"
    },
    {
      "inputs": [
        {
          "internalType": "bytes32",
          "name": "role",
          "type": "bytes32"
        },
        {
          "internalType": "address",
          "name": "account",
          "type": "address"
        }
      ],
      "name": "revokeRole",
      "outputs": [],
      "stateMutability": "nonpayable",
      "type": "function"
    },
    {
      "inputs": [
        {
          "internalType": "string",
          "name": "_reserveBank",
          "type": "string"
        }
      ],
      "name": "setReserveBank",
      "outputs": [],
      "stateMutability": "nonpayable",
      "type": "function"
    },
    {
      "inputs": [
        {
          "internalType": "bytes4",
          "name": "interfaceId",
          "type": "bytes4"
        }
      ],
      "name": "supportsInterface",
      "outputs": [
        {
          "internalType": "bool",
          "name": "",
          "type": "bool"
        }
      ],
      "stateMutability": "view",
      "type": "function"
    },
    {
      "inputs": [],
      "name": "symbol",
      "outputs": [
        {
          "internalType": "string",
          "name": "",
          "type": "string"
        }
      ],
      "stateMutability": "view",
      "type": "function"
    },
    {
      "inputs": [],
      "name": "totalSupply",
      "outputs": [
        {
          "internalType": "uint256",
          "name": "",
          "type": "uint256"
        }
      ],
      "stateMutability": "view",
      "type": "function"
    },
    {
      "inputs": [
        {
          "internalType": "address",
          "name": "to",
          "type": "address"
        },
        {
          "internalType": "uint256",
          "name": "amount",
          "type": "uint256"
        }
      ],
      "name": "transfer",
      "outputs": [
        {
          "internalType": "bool",
          "name": "",
          "type": "bool"
        }
      ],
      "stateMutability": "nonpayable",
      "type": "function"
    },
    {
      "inputs": [
        {
          "internalType": "address",
          "name": "from",
          "type": "address"
        },
        {
          "internalType": "address",
          "name": "to",
          "type": "address"
        },
        {
          "internalType": "uint256",
          "name": "amount",
          "type": "uint256"
        }
      ],
      "name": "transferFrom",
      "outputs": [
        {
          "internalType": "bool",
          "name": "",
          "type": "bool"
        }
      ],
      "stateMutability": "nonpayable",
      "type": "function"
    },
    {
      "inputs": [
        {
          "internalType": "address",
          "name": "wallet",
          "type": "address"
        },
        {
          "internalType": "uint256",
          "name": "amount",
          "type": "uint256"
        }
      ],
      "name": "unfreezeBalance",
      "outputs": [],
      "stateMutability": "nonpayable",
      "type": "function"
    },
    {
      "inputs": [],
      "name": "unpause",
      "outputs": [],
      "stateMutability": "nonpayable",
      "type": "function"
    },
    {
      "inputs": [
        {
          "internalType": "address",
          "name": "newImplementation",
          "type": "address"
        },
        {
          "internalType": "bytes",
          "name": "data",
          "type": "bytes"
        }
      ],
      "name": "upgradeToAndCall",
      "outputs": [],
      "stateMutability": "payable",
      "type": "function"
    },
    {
      "inputs": [],
      "name": "version",
      "outputs": [
        {
          "internalType": "string",
          "name": "",
          "type": "string"
        }
      ],
      "stateMutability": "pure",
      "type": "function"
    }
  ],
  "bytecode": "0x60a080604052346100cd57306080527ff0c57e16840df040f15088dc2f81fe391c3923bec73e23a9662efc9c229c6a009081549060ff8260401c166100be57506001600160401b036002600160401b031982821601610079575b604051612e689081620000d3823960805181818161153c01526115e30152f35b6001600160401b031990911681179091556040519081527fc7f505b2f371ae2175ee4913f4499e1f2633a7b5936321eed1cdaeb6115181d290602090a1388080610059565b63f92ee8a960e01b8152600490fd5b600080fdfe608080604052600436101561001357600080fd5b60003560e01c90816301ffc9a714611f99575080630294680414611ee7578063062d3bd714611ebe57806306fdde0314611e1f578063095ea7b314611d9e5780630ed4600414611c7457806318160ddd14611c495780631f69626b14611b6157806323b872dd14611a63578063248a9ca314611a27578063266565a9146119ed578063282c51f3146119c45780632f2ff15d14611978578063313ce5671461195c57806336568abe14611915578063372d6b27146118d95780633f4ba83a1461186257806344e3784f1461179e5780634f1ef2861461159457806352d1902d1461152957806354fd4d50146114d95780635c975abb146114a957806370a08231146114625780638456cb59146113fb57806388fc23c2146112b957806391d148541461125f57806395d89b4114611189578063a0821be314611117578063a217fddf146110fb578063a9059cbb146110a4578063ab3bfac414610fc3578063ad3cb1cc14610f7d578063bf5aa69514610c31578063d539139314610c08578063d547741f14610bba578063dd62ed3e14610b71578063e67524a3146107f3578063f399e22e146102635763f5453402146101cc57600080fd5b3461025e57600036600319011261025e57600180546101ea8161234b565b906101f86040519283612077565b8082526001600090815260207fb10e2d527612073b26eecdfd717e6a320cf44b4afac2b0732d9fcbe2b7fa0cf68185015b848410610242576040518061023e8882612263565b0390f35b6005838892610250856124d2565b815201920193019290610229565b600080fd5b3461025e57604036600319011261025e5761027c61217f565b6024356001600160401b03811161025e573660238201121561025e576102ac90369060248160040135910161222c565b600080516020612e1c833981519152546001600160401b038116801590816107e3575b60011490816107d9575b1590816107d0575b506107be576001600160401b03198116600117600080516020612e1c83398151915255604081901c60ff1615610795575b61031a6125ad565b926103236125ad565b9361032c612b49565b610334612b49565b8051906001600160401b0382116105865761035d600080516020612c3c83398151915254611fec565b601f8111610723575b50602090601f83116001146106a05761038a92916000918361059c575b505061240e565b600080516020612c3c833981519152555b83516001600160401b038111610586576103c3600080516020612c7c83398151915254611fec565b601f811161062e575b506020601f82116001146105a75790806103f49261046295969760009261059c57505061240e565b600080516020612c7c833981519152555b61040d612b49565b610415612b49565b61041d612b49565b610425612b49565b6001600080516020612dfc8339815191525561043f612b49565b61044881612727565b50610452816127a3565b5061045c8161282f565b506128b5565b508151916001600160401b0383116105865761048883610483600354611fec565b612362565b602090601f841160011461051b5792806104ad9260ff9560009261051057505061240e565b6003555b60401c16156104bc57005b60ff60401b19600080516020612e1c8339815191525416600080516020612e1c833981519152557fc7f505b2f371ae2175ee4913f4499e1f2633a7b5936321eed1cdaeb6115181d2602060405160018152a1005b015190508580610383565b90601f198416916003600052816000209260005b81811061056e575091600193918660ff979410610555575b505050811b016003556104b1565b015160001960f88460031b161c19169055848080610547565b9293602060018192878601518155019501930161052f565b634e487b7160e01b600052604160045260246000fd5b015190508780610383565b601f19821695600080516020612c7c833981519152600052816000209660005b818110610616575091610462959697918460019594106105fd575b505050811b01600080516020612c7c83398151915255610405565b015160001960f88460031b161c191690558680806105e2565b838301518955600190980197602093840193016105c7565b600080516020612c7c8339815191526000527f46a2803e59a4de4e7a4c574b1243f25977ac4c77d5a1a4a609b5394cebb4a2aa601f830160051c81019160208410610696575b601f0160051c01905b81811061068a57506103cc565b6000815560010161067d565b9091508190610674565b90601f19831691600080516020612c3c833981519152600052816000209260005b81811061070b57509084600195949392106106f2575b505050811b01600080516020612c3c8339815191525561039b565b015160001960f88460031b161c191690558680806106d7565b929360206001819287860151815501950193016106c1565b600080516020612c3c8339815191526000527f2ae08a8e29253f69ac5d979a101956ab8f8d9d7ded63fa7a83b16fc47648eab0601f840160051c8101916020851061078b575b601f0160051c01905b81811061077f5750610366565b60008155600101610772565b9091508190610769565b6001600160481b031981166001600160401b0117600080516020612e1c83398151915255610312565b60405163f92ee8a960e01b8152600490fd5b905015846102e1565b303b1591506102d9565b604083901c60ff161591506102cf565b3461025e5761080136612305565b336000908152600080516020612d3c833981519152602052604090205492939192909190600080516020612d5c8339815191529060ff1615610b535750610846612661565b61084e612a33565b6001600160a01b03811615610b0f5761086884151561252d565b8115610aca57600080516020612c9c833981519152610888858254612520565b90556001600160a01b0381166000818152600080516020612c5c8339815191526020908152604080832080548901905551878152600080516020612d7c8339815191529190a3604051936108db85612041565b6001600160a01b038216855260208501818152946108fa36858761222c565b60408201908152426060830152336080830152600154600160401b8110156105865780600161092c9201600155612490565b979097610ab457825188546001600160a01b0319166001600160a01b03919091161788555160018801555180519096906001600160401b038111610586576109848161097b6002850154611fec565b600285016123b8565b6020601f8211600114610a2d57916109be82600493610a02979695600080516020612e3c8339815191529b9c600092610a2257505061240e565b60028201555b60608301516003820155608090920151910180546001600160a01b0319166001600160a01b0392831617905560405193169592938493429285612579565b0390a26001600080516020612dfc83398151915255602060405160018152f35b015190508c80610383565b6002830160005260206000209860005b601f1984168110610a9c575082600080516020612e3c833981519152999a610a0297969593600193600496601f19811610610a83575b505050811b0160028201556109c4565b015160001960f88460031b161c191690558b8080610a73565b828201518b556001909a019960209283019201610a3d565b634e487b7160e01b600052600060045260246000fd5b60405162461bcd60e51b815260206004820152601d60248201527f55534643493a20726573657276652070726f6f662072657175697265640000006044820152606490fd5b606460405162461bcd60e51b815260206004820152602060248201527f55534643493a20726563697069656e74206973207a65726f20616464726573736044820152fd5b6044906040519063e2517d3f60e01b82523360048301526024820152fd5b3461025e57604036600319011261025e57610b8a61217f565b610b9b610b95612195565b916121d8565b9060018060a01b03166000526020526020604060002054604051908152f35b3461025e57604036600319011261025e57610c06600435610bd9612195565b9080600052600080516020612d9c833981519152602052610c0160016040600020015461262e565b6129b0565b005b3461025e57600036600319011261025e576020604051600080516020612d5c8339815191528152f35b3461025e57610c3f36612305565b336000908152600080516020612cbc833981519152602090815260409091205490949290600080516020612c1c8339815191529060ff1615610b535750610c84612661565b610c8c612a33565b6001600160a01b0393838516938415610f3857610caa82151561252d565b84600052600080516020612c5c8339815191528088528260406000205410610ef5578560005280885260406000205491838310610ed2575090829186600052885203604060002055600080516020612c9c833981519152818154039055600084600080516020612d7c83398151915288604051858152a3604051610d2d81612026565b848152868101828152610d4136868661222c565b60408301908152606083019142835260025498600160401b8a1015610586576001998a810180600255811015610ebc5760026000528b6000209060021b0194511660018060a01b0319855416178455518884015560028301905180519060018060401b03821161058657610dbf82610db98554611fec565b856123b8565b8a90601f8311600114610e375792610dfb83600394600080516020612dbc8339815191529b9a999794610e109997600092610e2c57505061240e565b90555b51910155604051938493429285612579565b0390a280600080516020612dfc83398151915255604051908152f35b015190508f80610383565b8a92918c91601f1984168660005283600020936000905b828210610ea357505092600395928592600080516020612dbc8339815191529d9c9b9996610e109b999610610e8b575b505050811b019055610dfe565b015160001983881b60f8161c191690558e8080610e7e565b8484015186558f97909501949384019390810190610e4e565b634e487b7160e01b600052603260045260246000fd5b9050610ef18360405193849363391434e360e21b855260048501612a63565b0390fd5b60405162461bcd60e51b815260048101899052601b60248201527a55534643493a20696e73756666696369656e742062616c616e636560281b6044820152606490fd5b60405162461bcd60e51b815260048101889052601d60248201527f55534643493a2077616c6c6574206973207a65726f20616464726573730000006044820152606490fd5b3461025e57600036600319011261025e5761023e604051610f9d8161205c565b60058152640352e302e360dc1b602082015260405191829160208352602083019061213f565b3461025e57604036600319011261025e57610fdc61217f565b60243590610fe86125f6565b60018060a01b03169081600052600080516020612c5c833981519152602052806040600020541061105f5760407fadb9fde4a94f08032b3ce791b7f5c6ff7e66b5c266f36cd3b569fe21d4a58811918360005260006020528160002061104f828254612520565b90558151908152426020820152a2005b60405162461bcd60e51b815260206004820152601d60248201527f55534643493a20667265657a6520657863656564732062616c616e63650000006044820152606490fd5b3461025e57604036600319011261025e576110f06110c061217f565b602435906110cc612661565b6110e06001600160a01b0382161515612421565b6110ea823361268c565b33612a81565b602060405160018152f35b3461025e57600036600319011261025e57602060405160008152f35b3461025e57602036600319011261025e576001600160a01b0361113861217f565b16600052600080516020612c5c83398151915260205260406000205460006020526040600020549081811160001461117e576020916111769161246d565b604051908152f35b505060206000611176565b3461025e57600036600319011261025e57604051600080516020612c7c83398151915280548260006111ba83611fec565b928383526020946001918660018216918260001461123d5750506001146111fe575b50506111ea92500383612077565b61023e60405192828493845283019061213f565b85925060005281600020906000915b8583106112255750506111ea935082010185806111dc565b8054838901850152879450869390920191810161120d565b92509350506111ea94915060ff191682840152151560051b82010185806111dc565b3461025e57604036600319011261025e57611278612195565b600435600052600080516020612d9c83398151915260205260406000209060018060a01b0316600052602052602060ff604060002054166040519015158152f35b3461025e5760208060031936011261025e576112d361217f565b6001805490926000926001600160a01b03919082169085855b8581106113cf5750506112fe8561234b565b9461130c6040519687612077565b80865261131b601f199161234b565b0160005b8181106113975750505060009160005b848110611344576040518061023e8882612263565b8083836113518a94612490565b50541614611360575b0161132f565b61139161136c82612490565b509561138061137a826124af565b976124d2565b61138a828b6124be565b52886124be565b5061135a565b82906040516113a581612041565b60008152600083820152600060608060408401528201526000608082015282828a0101520161131f565b83856113da83612490565b505416146113eb575b0186906112ec565b956113f5906124af565b956113e3565b3461025e57600036600319011261025e576114146125ce565b61141c612661565b600080516020612ddc833981519152600160ff198254161790557f62e78cea01bee320cd4e420270b5ea74000d11b0c9f74754ebdbfc544b05a2586020604051338152a1005b3461025e57602036600319011261025e576001600160a01b0361148361217f565b16600052600080516020612c5c8339815191526020526020604060002054604051908152f35b3461025e57600036600319011261025e57602060ff600080516020612ddc83398151915254166040519015158152f35b3461025e57600036600319011261025e5761023e6040516114f98161205c565b600f81526e312e302e302d6176616c616e63686560881b602082015260405191829160208352602083019061213f565b3461025e57600036600319011261025e577f00000000000000000000000000000000000000000000000000000000000000006001600160a01b03163003611582576020604051600080516020612cfc8339815191528152f35b60405163703e46dd60e11b8152600490fd5b604036600319011261025e576115a861217f565b6024356001600160401b03811161025e573660238201121561025e576115d890369060248160040135910161222c565b906001600160a01b037f00000000000000000000000000000000000000000000000000000000000000008116308114908115611782575b506115825761161c6125ce565b6040516352d1902d60e01b8152908216916020918281600481875afa60009181611753575b5061165f57604051634c9c8ce360e01b815260048101859052602490fd5b928493600080516020612cfc8339815191529081810361173b5750823b156117225780546001600160a01b03191682179055604051907fbc7cd75a20ee27fd9adebab32041f755214dbc6bffa90cc0225b39da2e5c2d3b600080a283511561170857506000808484610c0696519101845af4903d156116ff573d6116e281612211565b906116f06040519283612077565b8152600081943d92013e612b78565b60609250612b78565b925050503461171357005b63b398979f60e01b8152600490fd5b604051634c9c8ce360e01b815260048101839052602490fd5b60249060405190632a87526960e21b82526004820152fd5b9091508381813d831161177b575b61176b8183612077565b8101031261025e57519086611641565b503d611761565b905081600080516020612cfc833981519152541614158461160f565b3461025e57604036600319011261025e576117b761217f565b602435906117c36125f6565b60018060a01b031690816000526000602052806040600020541061181d5760407f78615a360955c9df98012f1e41a067799c572d5a19f5548d45a2c79cf42a2b1d918360005260006020528160002061104f82825461246d565b60405162461bcd60e51b815260206004820152601e60248201527f55534643493a20756e667265657a6520657863656564732066726f7a656e00006044820152606490fd5b3461025e57600036600319011261025e5761187b6125ce565b600080516020612ddc833981519152805460ff8116156118c75760ff191690557f5db9ee0a495bf2e6ff9c91a7834c1ba4fdd244a5e8aa4e537bd38aeae4b073aa6020604051338152a1005b604051638dfc202b60e01b8152600490fd5b3461025e57600036600319011261025e576060600154600254600080516020612c9c833981519152549060405192835260208301526040820152f35b3461025e57604036600319011261025e5761192e612195565b336001600160a01b0382160361194a57610c06906004356129b0565b60405163334bd91960e11b8152600490fd5b3461025e57600036600319011261025e57602060405160128152f35b3461025e57604036600319011261025e57610c06600435611997612195565b9080600052600080516020612d9c8339815191526020526119bf60016040600020015461262e565b61293b565b3461025e57600036600319011261025e576020604051600080516020612c1c8339815191528152f35b3461025e57602036600319011261025e576001600160a01b03611a0e61217f565b1660005260006020526020604060002054604051908152f35b3461025e57602036600319011261025e57600435600052600080516020612d9c8339815191526020526020600160406000200154604051908152f35b3461025e57606036600319011261025e57611a7c61217f565b611a84612195565b60443590611a90612661565b6001600160a01b0392611aa68285161515612421565b611ab0838261268c565b611ab9816121d8565b33600052602052604060002054936000198510611adc575b506110f09350612a81565b838510611b4457811615611b2b573315611b1257826110f094611afe836121d8565b336000526020520360406000205584611ad1565b604051634a1406b160e11b815260006004820152602490fd5b60405163e602df0560e01b815260006004820152602490fd5b604051637dc7a0d960e11b815280610ef186883360048501612a63565b3461025e5760208060031936011261025e576001600160401b0360043581811161025e57611b939036906004016121ab565b91611b9c6125ce565b821161058657611bb182610483600354611fec565b600092601f8311600114611be35750611bd39260009183611bd857505061240e565b600355005b013590508380610383565b90601f1983169360036000526020600020926000905b868210611c315750508360019510611c17575b505050811b01600355005b0135600019600384901b60f8161c19169055828080611c0c565b80600184968294958701358155019501920190611bf9565b3461025e57600036600319011261025e576020600080516020612c9c83398151915254604051908152f35b3461025e57600036600319011261025e5760028054611c928161234b565b91611ca06040519384612077565b8183526020918284018092600260005284600020906000925b848410611d4b57604080518881528951818a01819052600092600582901b83018101918a918c9085015b828710611cf05785850386f35b909192938280600192603f19898203018552875190611d316080868060a01b038451168352848401518584015260408401519080604085015283019061213f565b916060809101519101529601920196019592919092611ce3565b60048760019260409a999a51611d6081612026565b848060a01b0387541681528487015483820152611d7e86880161209a565b604082015260038701546060820152815201930193019291969596611cb9565b3461025e57604036600319011261025e57611db761217f565b602435903315611b2b576001600160a01b0316908115611b1257611dda336121d8565b82600052602052806040600020556040519081527f8c5be1e5ebec7d5bd14f71427d1e84f3dd0314c0f7b2291e5b200ac8c7c3b92560203392a3602060405160018152f35b3461025e57600036600319011261025e57604051600080516020612c3c8339815191528054826000611e5083611fec565b928383526020946001918660018216918260001461123d575050600114611e7f5750506111ea92500383612077565b85925060005281600020906000915b858310611ea65750506111ea935082010185806111dc565b80548389018501528794508693909201918101611e8e565b3461025e57600036600319011261025e576020604051600080516020612d1c8339815191528152f35b3461025e57600036600319011261025e57604051600354600082611f0a83611fec565b9182825260209360019085600182169182600014611f79575050600114611f39575b506111ea92500383612077565b849150600360005281600020906000915b858310611f615750506111ea935082010185611f2c565b80548389018501528794508693909201918101611f4a565b60ff1916858201526111ea95151560051b8501019250879150611f2c9050565b3461025e57602036600319011261025e576004359063ffffffff60e01b821680920361025e57602091637965db0b60e01b8114908115611fdb575b5015158152f35b6301ffc9a760e01b14905083611fd4565b90600182811c9216801561201c575b602083101461200657565b634e487b7160e01b600052602260045260246000fd5b91607f1691611ffb565b608081019081106001600160401b0382111761058657604052565b60a081019081106001600160401b0382111761058657604052565b604081019081106001600160401b0382111761058657604052565b601f909101601f19168101906001600160401b0382119082101761058657604052565b906040519182600082546120ad81611fec565b9081845260209460019160018116908160001461211d57506001146120de575b5050506120dc92500383612077565b565b600090815285812095935091905b8183106121055750506120dc93508201013880806120cd565b855488840185015294850194879450918301916120ec565b925050506120dc94925060ff191682840152151560051b8201013880806120cd565b919082519283825260005b84811061216b575050826000602080949584010152601f8019910116010190565b60208183018101518483018201520161214a565b600435906001600160a01b038216820361025e57565b602435906001600160a01b038216820361025e57565b9181601f8401121561025e578235916001600160401b03831161025e576020838186019501011161025e57565b6001600160a01b031660009081527f52c63247e1f47db19d5ce0460030c497f067ca4cebf71ba98eeadabe20bace016020526040902090565b6001600160401b03811161058657601f01601f191660200190565b92919261223882612211565b916122466040519384612077565b82948184528183011161025e578281602093846000960137010152565b6020808201908083528351809252604092604081018260408560051b8401019601946000925b85841061229a575050505050505090565b909192939495968580600192603f198582030187528a519060a0916122df868060a01b039384835116845285830151868501528983015190808b86015284019061213f565b926060808301519084015260808092015116910152990194019401929594939190612289565b606060031982011261025e576004356001600160a01b038116810361025e579160243591604435906001600160401b03821161025e57612347916004016121ab565b9091565b6001600160401b0381116105865760051b60200190565b601f811161236e575050565b60009060036000526020600020906020601f850160051c830194106123ae575b601f0160051c01915b8281106123a357505050565b818155600101612397565b909250829061238e565b90601f81116123c657505050565b6000916000526020600020906020601f850160051c83019410612404575b601f0160051c01915b8281106123f957505050565b8181556001016123ed565b90925082906123e4565b8160011b916000199060031b1c19161790565b1561242857565b60405162461bcd60e51b815260206004820152601f60248201527f55534643493a207472616e7366657220746f207a65726f2061646472657373006044820152606490fd5b9190820391821161247a57565b634e487b7160e01b600052601160045260246000fd5b600154811015610ebc5760016000526005602060002091020190600090565b600019811461247a5760010190565b8051821015610ebc5760209160051b010190565b906040516124df81612041565b60808193600460018060a01b0391828154168552600181015460208601526125096002820161209a565b604086015260038101546060860152015416910152565b9190820180921161247a57565b1561253457565b60405162461bcd60e51b815260206004820152601e60248201527f55534643493a20616d6f756e74206d75737420626520706f73697469766500006044820152606490fd5b94939280604093608093885260606020890152816060890152838801376000828288010152601f8019910116850101930152565b604051906125ba8261205c565b6005825264555346434960d81b6020830152565b336000908152600080516020612cdc833981519152602052604081205460ff1615610b535750565b336000908152600080516020612bfc8339815191526020526040902054600080516020612d1c8339815191529060ff1615610b535750565b80600052600080516020612d9c83398151915260205260406000203360005260205260ff6040600020541615610b535750565b60ff600080516020612ddc833981519152541661267a57565b60405163d93c066560e01b8152600490fd5b60018060a01b0316600052600080516020612c5c8339815191526020526126c360406000205460006020526040600020549061246d565b106126ca57565b60405162461bcd60e51b815260206004820152602f60248201527f55534643493a207472616e7366657220616d6f756e742065786365656473207560448201526e6e66726f7a656e2062616c616e636560881b6064820152608490fd5b6001600160a01b03166000818152600080516020612cdc8339815191526020526040812054909190600080516020612d9c8339815191529060ff1661279e578280526020526040822081835260205260408220600160ff198254161790553391600080516020612bdc8339815191528180a4600190565b505090565b6001600160a01b03166000818152600080516020612d3c8339815191526020526040812054909190600080516020612d5c83398151915290600080516020612d9c8339815191529060ff16612829578184526020526040832082845260205260408320600160ff19825416179055600080516020612bdc833981519152339380a4600190565b50505090565b6001600160a01b03166000818152600080516020612cbc8339815191526020526040812054909190600080516020612c1c83398151915290600080516020612d9c8339815191529060ff16612829578184526020526040832082845260205260408320600160ff19825416179055600080516020612bdc833981519152339380a4600190565b6001600160a01b03166000818152600080516020612bfc8339815191526020526040812054909190600080516020612d1c83398151915290600080516020612d9c8339815191529060ff16612829578184526020526040832082845260205260408320600160ff19825416179055600080516020612bdc833981519152339380a4600190565b90600091808352600080516020612d9c83398151915280602052604084209260018060a01b03169283855260205260ff60408520541615600014612829578184526020526040832082845260205260408320600160ff19825416179055600080516020612bdc833981519152339380a4600190565b90600091808352600080516020612d9c83398151915280602052604084209260018060a01b03169283855260205260ff60408520541660001461282957818452602052604083208284526020526040832060ff1981541690557ff6391f5c32d9c69d2a47ea670b442974b53935d1edc7fd64eb21e047a839171b339380a4600190565b600080516020612dfc8339815191526002815414612a515760029055565b604051633ee5aeb560e01b8152600490fd5b604091949392606082019560018060a01b0316825260208201520152565b916001600160a01b03808416928315612b305716928315612b1757600090838252600080516020612c5c83398151915280602052604083205491848310612af857508284600080516020612d7c833981519152959360409388602097528652038282205586815220818154019055604051908152a3565b9050610ef18460405193849363391434e360e21b855260048501612a63565b60405163ec442f0560e01b815260006004820152602490fd5b604051634b637e8f60e11b815260006004820152602490fd5b60ff600080516020612e1c8339815191525460401c1615612b6657565b604051631afcd79f60e31b8152600490fd5b90612b9f5750805115612b8d57602081519101fd5b60405163d6bda27560e01b8152600490fd5b81511580612bd2575b612bb0575090565b604051639996b31560e01b81526001600160a01b039091166004820152602490fd5b50803b15612ba856fe2f8788117e7eff1d82e926ec794901d17c78024a50270940304540a733656f0dbdde6251a28104e743161105ef187767c6823ff1a991a55a764e1895d36c8a693c11d16cbaffd01df69ce1c404f6340ee057498f5f00246190ea54220576a84852c63247e1f47db19d5ce0460030c497f067ca4cebf71ba98eeadabe20bace0352c63247e1f47db19d5ce0460030c497f067ca4cebf71ba98eeadabe20bace0052c63247e1f47db19d5ce0460030c497f067ca4cebf71ba98eeadabe20bace0452c63247e1f47db19d5ce0460030c497f067ca4cebf71ba98eeadabe20bace02fcf1b2032b1187d9f2a29150c4a608b3b6f0bdf8dd007801f86a276af50cad92b7db2dd08fcb62d0c9e08c51941cae53c267786a0b75803fb7960902fc8ef97d360894a13ba1a3210667c828492db98dca3e2076cc3735a920a3ca505d382bbc442a94f1a1fac79af32856af2a64f63648cfa2ef3b98610a5bb7cbec4cee6985549fe2656c81d2947b3b913f0a53b9ea86c71e049f3a1b8aa23c09a8a05cb8d49f2df0fed2c77648de5860a4cc508cd0818c85b8b8a1ab4ceeef8d981c8956a6ddf252ad1be2c89b69c2b068fc378daa952ba7f163c4a11628f55a4df523b3ef02dd7bc7dec4dceedda775e58dd541e08a116c6c53815c0bd028192f7b626800cdf267c1a9455e99c6cdd3aa34d4984f5128adb3662b30465d26f68340633998cd5ed15c6e187e77e9aee88184c21f4f2182ab5827cb3b7e07fbedcd63f033009b779b17422d0df92223018b32b4d1fa46e071723d6817e2486d003becc55f00f0c57e16840df040f15088dc2f81fe391c3923bec73e23a9662efc9c229c6a0004133ee4cb027e1c5fce5e3481289278a93bd16a65a3b65b428a6d239e706bfba164736f6c6343000818000a",
  "linkReferences": {},
  "deployedLinkReferences": {}
}