{
  "_format": "hh-sol-artifact-1",
  "contractName": "MarketplaceBridge",
  "sourceName": "src/MarketplaceBridge.sol",
  "abi": [
    {
      "inputs": [],
      "stateMutability": "nonpayable",
      "type": "constructor"
    },
    {
      "inputs": [
        {
          "internalType": "address",
          "name": "target",
          "type": "address"
        }
      ],
      "name": "AddressEmptyCode",
      "type": "error"
    },
    {
      "inputs": [
        {
          "internalType": "address",
          "name": "implementation",
          "type": "address"
        }
      ],
      "name": "ERC1967InvalidImplementation",
      "type": "error"
    },
    {
      "inputs": [],
      "name": "ERC1967NonPayable",
      "type": "error"
    },
    {
      "inputs": [],
      "name": "FailedCall",
      "type": "error"
    },
    {
      "inputs": [],
      "name": "InvalidInitialization",
      "type": "error"
    },
    {
      "inputs": [],
      "name": "NotInitializing",
      "type": "error"
    },
    {
      "inputs": [
        {
          "internalType": "address",
          "name": "owner",
          "type": "address"
        }
      ],
      "name": "OwnableInvalidOwner",
      "type": "error"
    },
    {
      "inputs": [
        {
          "internalType": "address",
          "name": "account",
          "type": "address"
        }
      ],
      "name": "OwnableUnauthorizedAccount",
      "type": "error"
    },
    {
      "inputs": [],
      "name": "UUPSUnauthorizedCallContext",
      "type": "error"
    },
    {
      "inputs": [
        {
          "internalType": "bytes32",
          "name": "slot",
          "type": "bytes32"
        }
      ],
      "name": "UUPSUnsupportedProxiableUUID",
      "type": "error"
    },
    {
      "anonymous": false,
      "inputs": [
        {
          "indexed": true,
          "internalType": "string",
          "name": "loanId",
          "type": "string"
        },
        {
          "indexed": false,
          "internalType": "uint256",
          "name": "tokenId",
          "type": "uint256"
        },
        {
          "indexed": false,
          "internalType": "uint256",
          "name": "timestamp",
          "type": "uint256"
        }
      ],
      "name": "AvalancheTokenIdSet",
      "type": "event"
    },
    {
      "anonymous": false,
      "inputs": [
        {
          "indexed": true,
          "internalType": "string",
          "name": "loanId",
          "type": "string"
        },
        {
          "indexed": true,
          "internalType": "uint256",
          "name": "tokenId",
          "type": "uint256"
        },
        {
          "indexed": false,
          "internalType": "uint256",
          "name": "timestamp",
          "type": "uint256"
        }
      ],
      "name": "EmergencyUnlockNeedsSync",
      "type": "event"
    },
    {
      "anonymous": false,
      "inputs": [
        {
          "indexed": false,
          "internalType": "uint64",
          "name": "version",
          "type": "uint64"
        }
      ],
      "name": "Initialized",
      "type": "event"
    },
    {
      "anonymous": false,
      "inputs": [
        {
          "indexed": true,
          "internalType": "string",
          "name": "loanId",
          "type": "string"
        },
        {
          "indexed": true,
          "internalType": "address",
          "name": "lenderAddress",
          "type": "address"
        },
        {
          "indexed": false,
          "internalType": "uint256",
          "name": "timestamp",
          "type": "uint256"
        }
      ],
      "name": "LoanApprovalCancelled",
      "type": "event"
    },
    {
      "anonymous": false,
      "inputs": [
        {
          "indexed": true,
          "internalType": "string",
          "name": "loanId",
          "type": "string"
        },
        {
          "indexed": true,
          "internalType": "address",
          "name": "lenderAddress",
          "type": "address"
        },
        {
          "indexed": false,
          "internalType": "uint256",
          "name": "askingPrice",
          "type": "uint256"
        },
        {
          "indexed": false,
          "internalType": "uint256",
          "name": "timestamp",
          "type": "uint256"
        }
      ],
      "name": "LoanApprovedForSale",
      "type": "event"
    },
    {
      "anonymous": false,
      "inputs": [
        {
          "indexed": true,
          "internalType": "string",
          "name": "loanId",
          "type": "string"
        },
        {
          "indexed": false,
          "internalType": "uint256",
          "name": "timestamp",
          "type": "uint256"
        }
      ],
      "name": "LoanPaidOff",
      "type": "event"
    },
    {
      "anonymous": false,
      "inputs": [
        {
          "indexed": true,
          "internalType": "string",
          "name": "loanId",
          "type": "string"
        },
        {
          "indexed": true,
          "internalType": "uint256",
          "name": "tokenId",
          "type": "uint256"
        },
        {
          "indexed": false,
          "internalType": "uint256",
          "name": "timestamp",
          "type": "uint256"
        }
      ],
      "name": "NFTBurnConfirmed",
      "type": "event"
    },
    {
      "anonymous": false,
      "inputs": [
        {
          "indexed": true,
          "internalType": "string",
          "name": "loanId",
          "type": "string"
        },
        {
          "indexed": true,
          "internalType": "uint256",
          "name": "tokenId",
          "type": "uint256"
        },
        {
          "indexed": true,
          "internalType": "address",
          "name": "requester",
          "type": "address"
        },
        {
          "indexed": false,
          "internalType": "uint256",
          "name": "timestamp",
          "type": "uint256"
        }
      ],
      "name": "NFTBurnRequired",
      "type": "event"
    },
    {
      "anonymous": false,
      "inputs": [
        {
          "indexed": true,
          "internalType": "address",
          "name": "previousOwner",
          "type": "address"
        },
        {
          "indexed": true,
          "internalType": "address",
          "name": "newOwner",
          "type": "address"
        }
      ],
      "name": "OwnershipTransferred",
      "type": "event"
    },
    {
      "anonymous": false,
      "inputs": [
        {
          "indexed": true,
          "internalType": "string",
          "name": "loanId",
          "type": "string"
        },
        {
          "indexed": true,
          "internalType": "address",
          "name": "newOwner",
          "type": "address"
        },
        {
          "indexed": false,
          "internalType": "uint256",
          "name": "salePrice",
          "type": "uint256"
        },
        {
          "indexed": false,
          "internalType": "uint256",
          "name": "timestamp",
          "type": "uint256"
        }
      ],
      "name": "OwnershipTransferred",
      "type": "event"
    },
    {
      "anonymous": false,
      "inputs": [
        {
          "indexed": true,
          "internalType": "string",
          "name": "loanId",
          "type": "string"
        },
        {
          "indexed": false,
          "internalType": "uint256",
          "name": "amount",
          "type": "uint256"
        },
        {
          "indexed": false,
          "internalType": "uint256",
          "name": "timestamp",
          "type": "uint256"
        }
      ],
      "name": "PaymentRecorded",
      "type": "event"
    },
    {
      "anonymous": false,
      "inputs": [
        {
          "indexed": true,
          "internalType": "address",
          "name": "implementation",
          "type": "address"
        }
      ],
      "name": "Upgraded",
      "type": "event"
    },
    {
      "inputs": [],
      "name": "UPGRADE_INTERFACE_VERSION",
      "outputs": [
        {
          "internalType": "string",
          "name": "",
          "type": "string"
        }
      ],
      "stateMutability": "view",
      "type": "function"
    },
    {
      "inputs": [
        {
          "internalType": "string",
          "name": "loanId",
          "type": "string"
        },
        {
          "internalType": "uint256",
          "name": "askingPrice",
          "type": "uint256"
        }
      ],
      "name": "approveLoanForSale",
      "outputs": [
        {
          "internalType": "bool",
          "name": "",
          "type": "bool"
        }
      ],
      "stateMutability": "nonpayable",
      "type": "function"
    },
    {
      "inputs": [
        {
          "internalType": "string",
          "name": "loanId",
          "type": "string"
        }
      ],
      "name": "canApproveLoan",
      "outputs": [
        {
          "internalType": "bool",
          "name": "canApprove",
          "type": "bool"
        },
        {
          "internalType": "string",
          "name": "reason",
          "type": "string"
        }
      ],
      "stateMutability": "view",
      "type": "function"
    },
    {
      "inputs": [
        {
          "internalType": "string",
          "name": "loanId",
          "type": "string"
        }
      ],
      "name": "canBeMinted",
      "outputs": [
        {
          "internalType": "bool",
          "name": "",
          "type": "bool"
        }
      ],
      "stateMutability": "view",
      "type": "function"
    },
    {
      "inputs": [
        {
          "internalType": "string",
          "name": "loanId",
          "type": "string"
        }
      ],
      "name": "canCancel",
      "outputs": [
        {
          "internalType": "bool",
          "name": "canCancelNow",
          "type": "bool"
        },
        {
          "internalType": "bool",
          "name": "needsBurn",
          "type": "bool"
        }
      ],
      "stateMutability": "view",
      "type": "function"
    },
    {
      "inputs": [
        {
          "internalType": "string",
          "name": "loanId",
          "type": "string"
        }
      ],
      "name": "cancelSaleListing",
      "outputs": [
        {
          "internalType": "bool",
          "name": "",
          "type": "bool"
        }
      ],
      "stateMutability": "nonpayable",
      "type": "function"
    },
    {
      "inputs": [
        {
          "internalType": "string",
          "name": "loanId",
          "type": "string"
        }
      ],
      "name": "confirmBurnAndCancel",
      "outputs": [
        {
          "internalType": "bool",
          "name": "",
          "type": "bool"
        }
      ],
      "stateMutability": "nonpayable",
      "type": "function"
    },
    {
      "inputs": [
        {
          "internalType": "string",
          "name": "loanId",
          "type": "string"
        }
      ],
      "name": "emergencyUnlock",
      "outputs": [
        {
          "internalType": "bool",
          "name": "",
          "type": "bool"
        }
      ],
      "stateMutability": "nonpayable",
      "type": "function"
    },
    {
      "inputs": [
        {
          "internalType": "string",
          "name": "loanId",
          "type": "string"
        }
      ],
      "name": "forceUnlockPaidOffLoan",
      "outputs": [
        {
          "internalType": "bool",
          "name": "",
          "type": "bool"
        }
      ],
      "stateMutability": "nonpayable",
      "type": "function"
    },
    {
      "inputs": [
        {
          "internalType": "string",
          "name": "loanId",
          "type": "string"
        }
      ],
      "name": "getApprovalData",
      "outputs": [
        {
          "components": [
            {
              "internalType": "bool",
              "name": "isApproved",
              "type": "bool"
            },
            {
              "internalType": "uint256",
              "name": "askingPrice",
              "type": "uint256"
            },
            {
              "internalType": "address",
              "name": "lenderAddress",
              "type": "address"
            },
            {
              "internalType": "uint256",
              "name": "approvalTimestamp",
              "type": "uint256"
            },
            {
              "internalType": "bool",
              "name": "isMinted",
              "type": "bool"
            },
            {
              "internalType": "bool",
              "name": "isCancelled",
              "type": "bool"
            }
          ],
          "internalType": "struct MarketplaceBridge.ApprovalData",
          "name": "",
          "type": "tuple"
        }
      ],
      "stateMutability": "view",
      "type": "function"
    },
    {
      "inputs": [
        {
          "internalType": "bytes32",
          "name": "txHash",
          "type": "bytes32"
        }
      ],
      "name": "getApprovalDataByTxHash",
      "outputs": [
        {
          "components": [
            {
              "internalType": "bool",
              "name": "isApproved",
              "type": "bool"
            },
            {
              "internalType": "uint256",
              "name": "askingPrice",
              "type": "uint256"
            },
            {
              "internalType": "address",
              "name": "lenderAddress",
              "type": "address"
            },
            {
              "internalType": "uint256",
              "name": "approvalTimestamp",
              "type": "uint256"
            },
            {
              "internalType": "bool",
              "name": "isMinted",
              "type": "bool"
            },
            {
              "internalType": "bool",
              "name": "isCancelled",
              "type": "bool"
            }
          ],
          "internalType": "struct MarketplaceBridge.ApprovalData",
          "name": "",
          "type": "tuple"
        },
        {
          "internalType": "string",
          "name": "",
          "type": "string"
        }
      ],
      "stateMutability": "view",
      "type": "function"
    },
    {
      "inputs": [
        {
          "internalType": "string",
          "name": "loanId",
          "type": "string"
        }
      ],
      "name": "getApprovalTxHash",
      "outputs": [
        {
          "internalType": "bytes32",
          "name": "",
          "type": "bytes32"
        }
      ],
      "stateMutability": "view",
      "type": "function"
    },
    {
      "inputs": [
        {
          "internalType": "address",
          "name": "lenderAddress",
          "type": "address"
        }
      ],
      "name": "getApprovedLoansByLender",
      "outputs": [
        {
          "internalType": "string[]",
          "name": "",
          "type": "string[]"
        }
      ],
      "stateMutability": "view",
      "type": "function"
    },
    {
      "inputs": [
        {
          "internalType": "string",
          "name": "loanId",
          "type": "string"
        }
      ],
      "name": "getApprover",
      "outputs": [
        {
          "internalType": "address",
          "name": "",
          "type": "address"
        }
      ],
      "stateMutability": "view",
      "type": "function"
    },
    {
      "inputs": [
        {
          "internalType": "string",
          "name": "loanId",
          "type": "string"
        }
      ],
      "name": "getAvalancheTokenId",
      "outputs": [
        {
          "internalType": "uint256",
          "name": "",
          "type": "uint256"
        }
      ],
      "stateMutability": "view",
      "type": "function"
    },
    {
      "inputs": [
        {
          "internalType": "bytes32",
          "name": "txHash",
          "type": "bytes32"
        }
      ],
      "name": "getLoanIdByTxHash",
      "outputs": [
        {
          "internalType": "string",
          "name": "",
          "type": "string"
        }
      ],
      "stateMutability": "view",
      "type": "function"
    },
    {
      "inputs": [],
      "name": "getTokenizedLoans",
      "outputs": [
        {
          "internalType": "string[]",
          "name": "",
          "type": "string[]"
        }
      ],
      "stateMutability": "view",
      "type": "function"
    },
    {
      "inputs": [
        {
          "internalType": "address",
          "name": "initialOwner",
          "type": "address"
        },
        {
          "internalType": "address",
          "name": "_loanRegistry",
          "type": "address"
        }
      ],
      "name": "initialize",
      "outputs": [],
      "stateMutability": "nonpayable",
      "type": "function"
    },
    {
      "inputs": [
        {
          "internalType": "string",
          "name": "loanId",
          "type": "string"
        }
      ],
      "name": "isLoanApprovedForSale",
      "outputs": [
        {
          "internalType": "bool",
          "name": "",
          "type": "bool"
        }
      ],
      "stateMutability": "view",
      "type": "function"
    },
    {
      "inputs": [
        {
          "internalType": "string",
          "name": "",
          "type": "string"
        }
      ],
      "name": "loanApprovals",
      "outputs": [
        {
          "internalType": "bool",
          "name": "isApproved",
          "type": "bool"
        },
        {
          "internalType": "uint256",
          "name": "askingPrice",
          "type": "uint256"
        },
        {
          "internalType": "address",
          "name": "lenderAddress",
          "type": "address"
        },
        {
          "internalType": "uint256",
          "name": "approvalTimestamp",
          "type": "uint256"
        },
        {
          "internalType": "bool",
          "name": "isMinted",
          "type": "bool"
        },
        {
          "internalType": "bool",
          "name": "isCancelled",
          "type": "bool"
        }
      ],
      "stateMutability": "view",
      "type": "function"
    },
    {
      "inputs": [
        {
          "internalType": "string",
          "name": "",
          "type": "string"
        }
      ],
      "name": "loanIdToTxHash",
      "outputs": [
        {
          "internalType": "bytes32",
          "name": "",
          "type": "bytes32"
        }
      ],
      "stateMutability": "view",
      "type": "function"
    },
    {
      "inputs": [],
      "name": "loanRegistry",
      "outputs": [
        {
          "internalType": "contract LoanRegistry",
          "name": "",
          "type": "address"
        }
      ],
      "stateMutability": "view",
      "type": "function"
    },
    {
      "inputs": [
        {
          "internalType": "string",
          "name": "",
          "type": "string"
        }
      ],
      "name": "loanToAvalancheTokenId",
      "outputs": [
        {
          "internalType": "uint256",
          "name": "",
          "type": "uint256"
        }
      ],
      "stateMutability": "view",
      "type": "function"
    },
    {
      "inputs": [
        {
          "internalType": "string",
          "name": "loanId",
          "type": "string"
        }
      ],
      "name": "markLoanAsPaidOff",
      "outputs": [
        {
          "internalType": "bool",
          "name": "",
          "type": "bool"
        }
      ],
      "stateMutability": "nonpayable",
      "type": "function"
    },
    {
      "inputs": [],
      "name": "owner",
      "outputs": [
        {
          "internalType": "address",
          "name": "",
          "type": "address"
        }
      ],
      "stateMutability": "view",
      "type": "function"
    },
    {
      "inputs": [],
      "name": "proxiableUUID",
      "outputs": [
        {
          "internalType": "bytes32",
          "name": "",
          "type": "bytes32"
        }
      ],
      "stateMutability": "view",
      "type": "function"
    },
    {
      "inputs": [
        {
          "internalType": "string",
          "name": "loanId",
          "type": "string"
        },
        {
          "internalType": "address",
          "name": "newOwnerAddress",
          "type": "address"
        },
        {
          "internalType": "uint256",
          "name": "salePrice",
          "type": "uint256"
        }
      ],
      "name": "recordOwnershipTransfer",
      "outputs": [
        {
          "internalType": "bool",
          "name": "",
          "type": "bool"
        }
      ],
      "stateMutability": "nonpayable",
      "type": "function"
    },
    {
      "inputs": [
        {
          "internalType": "string",
          "name": "loanId",
          "type": "string"
        },
        {
          "internalType": "uint256",
          "name": "amount",
          "type": "uint256"
        }
      ],
      "name": "recordPayment",
      "outputs": [
        {
          "internalType": "bool",
          "name": "",
          "type": "bool"
        }
      ],
      "stateMutability": "nonpayable",
      "type": "function"
    },
    {
      "inputs": [
        {
          "internalType": "string",
          "name": "loanId",
          "type": "string"
        },
        {
          "internalType": "bytes32",
          "name": "txHash",
          "type": "bytes32"
        }
      ],
      "name": "registerApprovalTxHash",
      "outputs": [
        {
          "internalType": "bool",
          "name": "",
          "type": "bool"
        }
      ],
      "stateMutability": "nonpayable",
      "type": "function"
    },
    {
      "inputs": [],
      "name": "relayerAddress",
      "outputs": [
        {
          "internalType": "address",
          "name": "",
          "type": "address"
        }
      ],
      "stateMutability": "view",
      "type": "function"
    },
    {
      "inputs": [],
      "name": "renounceOwnership",
      "outputs": [],
      "stateMutability": "nonpayable",
      "type": "function"
    },
    {
      "inputs": [
        {
          "internalType": "string",
          "name": "loanId",
          "type": "string"
        }
      ],
      "name": "requestBurnAndCancel",
      "outputs": [
        {
          "internalType": "bool",
          "name": "",
          "type": "bool"
        }
      ],
      "stateMutability": "nonpayable",
      "type": "function"
    },
    {
      "inputs": [
        {
          "internalType": "string",
          "name": "loanId",
          "type": "string"
        },
        {
          "internalType": "uint256",
          "name": "tokenId",
          "type": "uint256"
        }
      ],
      "name": "setAvalancheTokenId",
      "outputs": [
        {
          "internalType": "bool",
          "name": "",
          "type": "bool"
        }
      ],
      "stateMutability": "nonpayable",
      "type": "function"
    },
    {
      "inputs": [
        {
          "internalType": "address",
          "name": "_relayer",
          "type": "address"
        }
      ],
      "name": "setRelayerAddress",
      "outputs": [],
      "stateMutability": "nonpayable",
      "type": "function"
    },
    {
      "inputs": [
        {
          "internalType": "address",
          "name": "newOwner",
          "type": "address"
        }
      ],
      "name": "transferOwnership",
      "outputs": [],
      "stateMutability": "nonpayable",
      "type": "function"
    },
    {
      "inputs": [
        {
          "internalType": "bytes32",
          "name": "",
          "type": "bytes32"
        }
      ],
      "name": "txHashToLoanId",
      "outputs": [
        {
          "internalType": "string",
          "name": "",
          "type": "string"
        }
      ],
      "stateMutability": "view",
      "type": "function"
    },
    {
      "inputs": [
        {
          "internalType": "address",
          "name": "newLoanRegistry",
          "type": "address"
        }
      ],
      "name": "updateLoanRegistry",
      "outputs": [],
      "stateMutability": "nonpayable",
      "type": "function"
    },
    {
      "inputs": [
        {
          "internalType": "address",
          "name": "newImplementation",
          "type": "address"
        },
        {
          "internalType": "bytes",
          "name": "data",
          "type": "bytes"
        }
      ],
      "name": "upgradeToAndCall",
      "outputs": [],
      "stateMutability": "payable",
      "type": "function"
    },
    {
      "inputs": [],
      "name": "version",
      "outputs": [
        {
          "internalType": "string",
          "name": "",
          "type": "string"
        }
      ],
      "stateMutability": "pure",
      "type": "function"
    }
  ],
  "bytecode": "0x60a08060405234620000d157306080527ff0c57e16840df040f15088dc2f81fe391c3923bec73e23a9662efc9c229c6a009081549060ff8260401c16620000c257506001600160401b036002600160401b0319828216016200007c575b604051613ba19081620000d78239608051818181611c3c0152611d250152f35b6001600160401b031990911681179091556040519081527fc7f505b2f371ae2175ee4913f4499e1f2633a7b5936321eed1cdaeb6115181d290602090a13880806200005c565b63f92ee8a960e01b8152600490fd5b600080fdfe6080604081815260048036101561001557600080fd5b600092833560e01c908163015f5135146128895750806304bb39391461267e5780630d12481f146124de5780630f762b89146123d157806310e6c64e1461221857806314df577e146121605780631501289b14612109578063151bb691146120a057806318a7cca8146120775780631be5f54a14611068578063485cc95514611ef65780634f1ef28614611cd65780635209ccf714611c8e57806352d1902d14611c2757806354fd4d5014611be257806355cc57ae14611ae157806356894c4714611a20578063579c539e1461183f578063583ee2cf1461178c57806367ff1934146116a0578063715018a614611734578063716d8915146116ea57806384f38df4146116a05780638da5cb5b1461166a57806395508d3b1461145f5780639f71afec14611437578063a77957ea1461140f578063a81f2643146110f7578063ad3cb1cc146110b2578063ba25eb7414611068578063ba99c21314610e87578063cf29cfe114610cf7578063d1333760146107fd578063d384a0d7146107b0578063e641e8861461070b578063ece49dfe14610407578063edfb22c214610242578063f2fde38b146102125763fcea79ae146101d057600080fd5b3461020e57602036600319011261020e578161020a93826101f79335825260205220612d07565b9051918291602083526020830190612a99565b0390f35b8280fd5b833461023f57602036600319011261023f5761023c61022f612c37565b610237613a29565b6139c7565b80f35b80fd5b50823461023f57602036600319011261023f5761025d612c37565b91808260018060a01b03958187815416825195868092635c1bf86560e01b82525afa9384156103fc5782946103d8575b5086829616915b845181101561031957828860026102b46102ae858a612e9a565b51612ca7565b0154161480610302575b806102e5575b6102d1575b600101610294565b946102dd600191612ed1565b9590506102c9565b5060ff846102f66102ae8489612e9a565b015460081c16156102c4565b5060ff6103126102ae8388612e9a565b54166102be565b50949291959361032890612ef6565b93835b83518110156103cb57828260026103456102ae8589612e9a565b01541614806103b4575b80610397575b610362575b60010161032b565b9361038f6001916103738787612e9a565b5161037e828a612e9a565b526103898189612e9a565b50612ed1565b94905061035a565b5060ff886103a86102ae8488612e9a565b015460081c1615610355565b5060ff6103c46102ae8387612e9a565b541661034f565b86518061020a8882612abe565b6103f59194503d8084833e6103ed8183612b6e565b810190612e05565b928761028d565b5051903d90823e3d90fd5b503461020e5761041636612c06565b9160018060a01b039461042e86600154163314612f40565b845195835183602098898181890194610448818388612a76565b8101600281520301902061045f60ff825416612f85565b01805460ff8160081c166106cf5760ff811661069b57871561066557838554168a8a5180926319d1381160e31b8252828a83015281806104a38d6024830190612a99565b03915afa90811561065b578691610622575b50156105ea5760ff191660011790558651855187928a9183916104db9082908490612a76565b810160038152030190205581541686865180926376724eff60e11b8252888683015281858161050d604482018b612a99565b8b602483015203925af19182156105df5780926105a7575b50501561056b5750826105587fd9af9fe87cb0da3dea36fcb8d50a76961a23460b2422995a935515422b1fb05e92613091565b9281519081524286820152a25160018152f35b835162461bcd60e51b8152908101859052601660248201527511985a5b1959081d1bc81cd95d081d1bdad95b88125160521b6044820152606490fd5b9091508682813d83116105d8575b6105bf8183612b6e565b8101031261023f57506105d190612ec4565b3880610525565b503d6105b5565b8651903d90823e3d90fd5b885162461bcd60e51b81528087018b90526012602482015271131bd85b881a5cc81b9bdd081b1bd8dad95960721b6044820152606490fd5b90508a81813d8311610654575b6106398183612b6e565b810103126106505761064a90612ec4565b386104b5565b8580fd5b503d61062f565b8a513d88823e3d90fd5b885162461bcd60e51b81528087018b9052601060248201526f125b9d985b1a59081d1bdad95b88125160821b6044820152606490fd5b885162461bcd60e51b81528087018b9052600e60248201526d105b1c9958591e481b5a5b9d195960921b6044820152606490fd5b885162461bcd60e51b81528087018b90526016602482015275105c1c1c9bdd985b081dd85cc818d85b98d95b1b195960521b6044820152606490fd5b50823461023f57602036600319011261023f578135906001600160401b03821161023f575060c092610759602061074760ff9436908701612be8565b81845193828580945193849201612a76565b81016002815203019020828154169360018201549260018060a01b036002840154169160038401549301549381519615158752602087015285015260608401528181161515608084015260081c16151560a0820152f35b833461023f57602036600319011261023f576107ca612c37565b6107d2613a29565b6001600160a01b03166107e681151561382c565b600180546001600160a01b03191691909117905580f35b50913461023f5761080d36612c06565b8254845163bcb197c960e01b8152602081880181905296929492916001600160a01b03908116916024908981806108468582018b612a99565b0381875afa8015610af8578690610cc1575b61086291506130b1565b87516319d1381160e31b81528481018a90528981806108838582018b612a99565b0381875afa908115610af8578691610c8c575b50610c525787519260ff8751948b81818b01976108b481838b612a76565b810160028152030190205416610c1d5760ff858a518c818b516108d881838c612a76565b81016002815203019020015460081c16610bdb578715610ba957885163395a413d60e21b81528581018b90528681806109138682018c612a99565b0381855afa908115610b9f578791610b7d575b5060a081015115610b405761034001518a815191012061094461348f565b8b815191012014610b02578989518092636ec955a560e11b825282888301528189816109738d89830190612a99565b03925af1908115610af8578691610ac3575b5015610a8c575083928888610a56979694610a3c948a610a046109e48551966109ad88612b22565b60018852808801938452868801953387528d60608a0198428a5260808b019e8f5260a08b019d8e5251938492839251928391612a76565b8101600281520301902095511515869060ff801983541691151516179055565b5160018501556002840191511660018060a01b03198254161790555160038201550192511515839060ff801983541691151516179055565b51815461ff00191690151560081b61ff0016179055613091565b825191825242848301527feb30059d3de656b469ef7f6ac10f8844ce4f14a804bbec109abd8d0959281ca8833393a35160018152f35b8360136064928b8b519362461bcd60e51b8552840152820152722330b4b632b2103a37903637b1b5903637b0b760691b6044820152fd5b90508981813d8311610af1575b610ada8183612b6e565b8101031261065057610aeb90612ec4565b38610985565b503d610ad0565b89513d88823e3d90fd5b885162461bcd60e51b81528086018b90526019818401527821b0b73737ba1039b2b636103830b4b21037b333103637b0b760391b6044820152606490fd5b895162461bcd60e51b81528087018c90526018818501527704c6f616e2062616c616e6365206d757374206265203e20360441b6044820152606490fd5b610b9991503d8089833e610b918183612b6e565b81019061312c565b38610926565b8a513d89823e3d90fd5b885162461bcd60e51b81528086018b9052600d818401526c496e76616c696420707269636560981b6044820152606490fd5b885162461bcd60e51b81528086018b9052601f818401527f5761732063616e63656c6c65642c20757365206e657720617070726f76616c006044820152606490fd5b885162461bcd60e51b81528086018b90526010818401526f105b1c9958591e48185c1c1c9bdd995960821b6044820152606490fd5b8360166064928b8b519362461bcd60e51b855284015282015275131bd85b88185b1c9958591e481d1bdad95b9a5e995960521b6044820152fd5b90508981813d8311610cba575b610ca38183612b6e565b8101031261065057610cb490612ec4565b38610896565b503d610c99565b508981813d8311610cf0575b610cd78183612b6e565b8101031261065057610ceb61086291612ec4565b610858565b503d610ccd565b503461020e57606036600319011261020e5780356001600160401b038111610e8357610d269036908301612be8565b90610d2f612c4d565b6001546001600160a01b039290610d499084163314612f40565b82865416855196879163bcb197c960e01b8352602098899182868301528180610d75602482018c612a99565b03915afa908115610e78578091610e3f575b50610d9291506130b1565b60ff81865188818851610da88183858d01612a76565b8101600281520301902001541615610e0757501690610dd190610dcc83151561382c565b613091565b7f1c74cd4d51d1c3291f2b5ccd11557f063f9e0a3882c465c0944c3f0e9b93bd8083805160443581524287820152a35160018152f35b845162461bcd60e51b81529081018690526012602482015271139195081b9bdd081b5a5b9d1959081e595d60721b6044820152606490fd5b90508782813d8311610e71575b610e568183612b6e565b8101031261023f5750610e6b610d9291612ec4565b38610d87565b503d610e4c565b8751903d90823e3d90fd5b8380fd5b50913461023f57602092836003193601126110645780356001600160401b03811161020e5783610ebb869236908501612be8565b93828060018060a01b0395610ed587600154163314612f40565b83610f6f83610ef3818c8a519b8c9382859351928391019e8f612a76565b81016002815203019020988b6101008b549a610f1160ff8d1661389c565b878d019285845492610f2560ff85166130f3565b610f3560ff8560081c1615613051565b51809251610f4481838a612a76565b81016003815203019020549b60ff19168d5561ffff19161790558b8d51938492839251928391612a76565b8101600381520301902055868454168951938492630af1f6af60e41b8452830152818581610fa0602482018d612a99565b03925af1918215610e7857809261101c575b505091600291610fc5610fff95946138d7565b610fce86613091565b7f6a90382fb55315e030a535d1d63ff697c8163b9451f663034c4153b6809464fd898951428152a301541691613091565b600080516020613b35833981519152848451428152a35160018152f35b9091508782813d831161105d575b6110348183612b6e565b8101031261023f575091600291610fc5611051610fff9695612ec4565b92949550819350610fb2565b503d61102a565b5080fd5b50913461023f57602036600319011261023f578235906001600160401b03821161023f5750602061074781946110a093369101612be8565b81016005815203019020549051908152f35b505034611064578160031936011261106457805161020a916110d382612b53565b60058252640352e302e360dc1b602083015251918291602083526020830190612a99565b503461020e576020928360031936011261023f5781356001600160401b038111611064576111289036908401612be8565b9160018060a01b039161114083600154163314612f40565b82815416855163bcb197c960e01b81528784820152878180611165602482018a612a99565b0381855afa80156113b55783906113d9575b61118191506130b1565b855163395a413d60e21b81528381018890528281806111a3602482018a612a99565b0381855afa9081156113b5576111db916103409185916113bf575b5001518881519101206111cf61348f565b898151910120146134b3565b85516319d1381160e31b81528381018890528781806111fd602482018a612a99565b0381855afa9081156113b557908392918996959491611377575b506112e9575b505084519060ff855192858181890195611238818389612a76565b810160028152030190205416611252575b83865160018152f35b6112c9936002926112b792885183818a5161126e818388612a76565b8101888152030190200161010061ff0019825416179055875182818951611296818387612a76565b81018781520301902060ff1981541690558751809381928951928391612a76565b81018481520301902001541691613091565b600080516020613b35833981519152848451428152a33882818080611249565b9091929386518092630af1f6af60e41b82528286830152818581611310602482018c612a99565b03925af19182156105df57908188959493611338575b5050611331906138d7565b388061121d565b915091929382813d8311611370575b6113518183612b6e565b8101031261023f575090611331611369879493612ec4565b9038611326565b503d611347565b8681939495969792503d83116113ae575b6113928183612b6e565b8101031261020e57906113a88895949392612ec4565b38611217565b503d611388565b87513d85823e3d90fd5b6113d391503d8087833e610b918183612b6e565b386111be565b508781813d8311611408575b6113ef8183612b6e565b8101031261020e5761140361118191612ec4565b611177565b503d6113e5565b505034611064578160031936011261106457905490516001600160a01b039091168152602090f35b503461020e57602036600319011261020e578161020a93826101f79335825260205220612d07565b50913461023f57602092836003193601126110645780356001600160401b03811161020e576114919036908301612be8565b9183516114de8685516114ce828801916114ac818785612a76565b8501600281526002868560018060a01b03988994030190200154163314612fc5565b8751809381928951928391612a76565b8101600281520301902080546114f660ff821661300d565b848201805460ff8116611610578061151760ff6101009360081c1615613051565b61ff00191617905560ff1916905581548551630af1f6af60e41b815284810188905291879183911681858161154f602482018b612a99565b03925af19182156116055780926115cd575b505015611592575061157290613091565b815190428252600080516020613b35833981519152843393a35160018152f35b825162461bcd60e51b815290810184905260156024820152742330b4b632b2103a37903ab73637b1b5903637b0b760591b6044820152606490fd5b9091508582813d83116115fe575b6115e58183612b6e565b8101031261023f57506115f790612ec4565b3880611561565b503d6115db565b8551903d90823e3d90fd5b885162461bcd60e51b81528088018b9052602e60248201527f4e465420616c7265616479206d696e7465642c2075736520726571756573744260448201526d75726e416e6443616e63656c282960901b6064820152608490fd5b505034611064578160031936011261106457600080516020613af58339815191525490516001600160a01b039091168152602090f35b50913461023f57602036600319011261023f578235906001600160401b03821161023f5750602061074781946116d893369101612be8565b81016003815203019020549051908152f35b50823461023f57602036600319011261023f578135906001600160401b03821161023f57506117249161171f91369101612be8565b613916565b8251911515825215156020820152f35b833461023f578060031936011261023f5761174d613a29565b600080516020613af583398151915280546001600160a01b0319811690915581906001600160a01b0316600080516020613b558339815191528280a380f35b50903461020e57602036600319011261020e578135926001600160401b03841161023f57506117c46020610747819536908601612be8565b810160028152030190209160ff8251916117dd83612b22565b84548216151580845260018601548785015260028601546001600160a01b031685850152600386015460608501529401548082161515608084015260081c1615801560a09092019190915282611837575b50519015158152f35b91503861182e565b50913461023f57602092836003193601126110645780356001600160401b03811161020e576118719036908301612be8565b9061187a613a29565b83519282519386818186019661189181838a612a76565b810160028152030190209081546118aa60ff821661389c565b83830180549660ff88166119e8576118d08a610100928b51809381928c51928391612a76565b6003908201908152030190205461ff001990981617905560ff1916825580548651630af1f6af60e41b81529384018890526001600160a01b039390889082908616818581611921602482018c612a99565b03925af1918215610e785780926119aa575b5050906119416002926138d7565b01541661194d82613091565b600080516020613b35833981519152868651428152a381611972575b50505160018152f35b61197b90613091565b7f7a703a6c30188b4b647215dd1591e7d1611a16d8902fec752715563378da98ef848451428152a33880611969565b9091508782813d83116119e1575b6119c28183612b6e565b8101031261023f5750906119416119da600293612ec4565b9192611933565b503d6119b8565b885162461bcd60e51b81528087018b9052601260248201527113919508185b1c9958591e481b5a5b9d195960721b6044820152606490fd5b50823461023f57602036600319011261023f578135906001600160401b03821161023f575060c09260ff611a7a6020611a5f611adf9536908801612be8565b611a6761386a565b5081855193828580945193849201612a76565b8101600281520301902093825194611a9186612b22565b80548316151586526001810154602087015260028101546001600160a01b0316848701526003810154606087015201548082161515608086015260081c16151560a084015251918290612c63565bf35b50919034611064576020918260031936011261023f5781611b1291611b0461386a565b508535815285855220612d07565b92835115611bae57928160ff611b9d9561020a945186818651611b388183858b01612a76565b81016002815203019020835196611b4e88612b22565b815484161515885260018201549088015260028101546001600160a01b0316848801526003810154606088015201548082161515608087015260081c16151560a0850152519384938490612c63565b60e060c084015260e0830190612a99565b82606492519162461bcd60e51b8352820152601060248201526f151e12185cda081b9bdd08199bdd5b9960821b6044820152fd5b505034611064578160031936011261106457805161020a91611c0382612b53565b60058252640312e302e360dc1b602083015251918291602083526020830190612a99565b50913461023f578060031936011261023f57507f00000000000000000000000000000000000000000000000000000000000000006001600160a01b03163003611c815760209051600080516020613b158339815191528152f35b5163703e46dd60e11b8152fd5b833461023f57602036600319011261023f57611ca8612c37565b611cb0613a29565b6001600160a01b0316611cc481151561382c565b81546001600160a01b03191617815580f35b50908060031936011261020e57611ceb612c37565b906024356001600160401b038111611ef25736602382011215611ef257611d1b9036906024818701359101612bac565b6001600160a01b037f00000000000000000000000000000000000000000000000000000000000000008116308114908115611ed6575b50611ec657611d5e613a29565b82516352d1902d60e01b81529084169360209182818881895afa889181611e93575b50611d9c578451634c9c8ce360e01b8152808801879052602490fd5b600080516020613b1583398151915296929591939690818103611e7d5750833b15611e665780546001600160a01b0319168217905583518792917fbc7cd75a20ee27fd9adebab32041f755214dbc6bffa90cc0225b39da2e5c2d3b8480a2865115611e49575050808585611e3b97519101845af4913d15611e3f573d611e2d611e2482612b91565b92519283612b6e565b81528581943d92013e613a91565b5080f35b5060609250613a91565b9450945050505034611e5a57505080f35b63b398979f60e01b8152fd5b8451634c9c8ce360e01b8152808401839052602490fd5b83602491875191632a87526960e21b8352820152fd5b9091508381813d8311611ebf575b611eab8183612b6e565b81010312611ebb57519038611d80565b8880fd5b503d611ea1565b825163703e46dd60e11b81528590fd5b905081600080516020613b158339815191525416141538611d51565b8480fd5b503461020e578160031936011261020e57611f0f612c37565b90611f18612c4d565b600080516020613b758339815191528054909381861c60ff1615939290916001600160401b0381168015908161206f575b6001149081612065575b15908161205c575b5061204c576001600160401b03198116600117865584612031575b506001600160a01b0316918215611ff75750611f9c90611f94613a62565b610237613a62565b611fa4613a62565b84546001600160a01b031916178455611fbb578280f35b805460ff60401b1916905551600181527fc7f505b2f371ae2175ee4913f4499e1f2633a7b5936321eed1cdaeb6115181d290602090a138808280f35b606490602087519162461bcd60e51b83528201526014602482015273496e76616c6964204c6f616e526567697374727960601b6044820152fd5b6001600160481b0319166001600160401b0117855538611f76565b865163f92ee8a960e01b81528490fd5b90501538611f5b565b303b159150611f53565b869150611f49565b50503461106457816003193601126110645760015490516001600160a01b039091168152602090f35b50913461023f57602036600319011261023f578235906001600160401b03821161023f57506020926120d491369101612be8565b6002836120e984519384815193849201612a76565b82018181528290038401909120015490516001600160a01b039091168152f35b50823461023f57602036600319011261023f578135906001600160401b03821161023f575061214161020a9261214692369101612be8565b6134f3565b839291925193849315158452806020850152830190612a99565b50903461020e57602036600319011261020e578135926001600160401b03841161023f57506121986020610747819536908601612be8565b81016002815203019020918151906121af82612b22565b60ff84541615159384835260018101548684015260018060a01b036002820154168484015260038101546060840152015460ff80821615918215608085015260081c16159160a0831591015283612210575b50826118375750519015158152f35b925038612201565b503461020e576020928360031936011261023f5781356001600160401b038111611064576122499036908401612be8565b9160018060a01b0361226081600154163314612f40565b825416845163bcb197c960e01b815286838201528681806122846024820189612a99565b0381855afa9081156123c7579187939185938491612387575b506122a7906130b1565b6122d460ff8389518781816122c28d83815193849201612a76565b810160028152030190200154166130f3565b865193849263395a413d60e21b845283015281806122f56024820189612a99565b03915afa91821561237c576123329392610dcc92826103409392612361575b5050015185815191012061232661348f565b868151910120146134b3565b7f370688c1ce7ba926e3b3644cc0ae6546e4a6ec79ef5fcec5321c74877bf65235838351428152a25160018152f35b61237592503d8091833e610b918183612b6e565b3880612314565b8451903d90823e3d90fd5b9294809294508391503d83116123c0575b6123a28183612b6e565b81010312610e83579183916122a76123ba8995612ec4565b9061229d565b503d612398565b86513d86823e3d90fd5b503461020e576123e036612c06565b9160018060a01b036123f781600154163314612f40565b855416845195869163bcb197c960e01b8352602097889182868301528180612422602482018a612a99565b03915afa9081156105df5780916124a5575b5061243f91506130b1565b82156124715750826105587f3c77e296c41583d812e080d710d1f10acaf27dd05c0b9038cf80b7d0fb96243f92613091565b835162461bcd60e51b8152908101859052600e60248201526d125b9d985b1a5908185b5bdd5b9d60921b6044820152606490fd5b90508682813d83116124d7575b6124bc8183612b6e565b8101031261023f57506124d161243f91612ec4565b38612434565b503d6124b2565b503461020e576020928360031936011261023f578135906001600160401b03821161023f57506125119036908301612be8565b825161254982519160028785019361252a818487612a76565b8201818152829003880190912001546001600160a01b03163314612fc5565b8284518681855161255b818388612a76565b8101600281520301902061257260ff82541661300d565b015460ff811615612627576125a29161259260ff889360081c1615613051565b8551809381928651928391612a76565b81016003815203019020549182156125f157506125be90613091565b908251914283527ff3f98d2e18daf7361b5f24d53d81d1bc8cc92d72ce52cbc9a7aa34abce394b49853394a45160018152f35b835162461bcd60e51b8152908101859052601060248201526f151bdad95b881251081b9bdd081cd95d60821b6044820152606490fd5b845162461bcd60e51b8152808501879052602b60248201527f4e4654206e6f74206d696e746564207965742c207573652063616e63656c536160448201526a6c654c697374696e67282960a81b6064820152608490fd5b50913461023f578160031936011261023f576001600160401b0391833583811161020e576126af9036908601612be8565b91602435906001936126cb60018060a01b038654163314612f40565b8351968151926126fb60ff60209a8b81818801986126ea81838c612a76565b810160028152030190205416612f85565b841561285557848152818952858120918351988911612842575090889392916127248254612ccd565b601f81116127ec575b508490601f8a1160011461278a5798809161276e9798999a9161277f575b50600019600383901b1c191690891b1790555b8551938492839251928391612a76565b810160058152030190205551908152f35b90508301513861274b565b90601f198a16838352868320925b8181106127d75750918a918a9b61276e999a9b94106127be575b5050811b01905561275e565b85015160001960f88460031b161c1916905538806127b2565b858301518455928a0192918701918701612798565b909180939495508252898220601f8a0160051c8101918b8b10612838575b8b969594939291601f8b920160051c01915b82811061282a57505061272d565b8381558c97508a910161281c565b909150819061280a565b634e487b7160e01b825260419052602490fd5b855162461bcd60e51b81528083018a9052600e60248201526d092dcecc2d8d2c840e8f090c2e6d60931b6044820152606490fd5b90508383346110645781600319360112611064578154635c1bf86560e01b84526001600160a01b031693829081858281895afa948515612a6c578295612a50575b50815b855181101561297d576129076128e38288612e9a565b518551906367e6ec0360e11b82528180602094859384898401526024830190612a99565b03818c5afa91821561297357859261293d575b5050612929575b6001016128cd565b93612935600191612ed1565b949050612921565b90809250813d831161296c575b6129548183612b6e565b81010312610e835761296590612ec4565b888061291a565b503d61294a565b86513d87823e3d90fd5b50929361298b869395612ef6565b9282805b8351811015612a43576129a28185612e9a565b5188516367e6ec0360e11b81528881806129c86020958680958401526024830190612a99565b0381885afa918215612a39578492612a03575b50506129ea575b60010161298f565b936129fb6001916103738787612e9a565b9490506129e2565b90809250813d8311612a32575b612a1a8183612b6e565b8101031261020e57612a2b90612ec4565b89806129db565b503d612a10565b8a513d86823e3d90fd5b87518061020a8882612abe565b612a659195503d8084833e6103ed8183612b6e565b93866128ca565b83513d84823e3d90fd5b60005b838110612a895750506000910152565b8181015183820152602001612a79565b90602091612ab281518092818552858086019101612a76565b601f01601f1916010190565b6020808201906020835283518092526040830192602060408460051b8301019501936000915b848310612af45750505050505090565b9091929394958480612b12600193603f198682030187528a51612a99565b9801930193019194939290612ae4565b60c081019081106001600160401b03821117612b3d57604052565b634e487b7160e01b600052604160045260246000fd5b604081019081106001600160401b03821117612b3d57604052565b601f909101601f19168101906001600160401b03821190821017612b3d57604052565b6001600160401b038111612b3d57601f01601f191660200190565b929192612bb882612b91565b91612bc66040519384612b6e565b829481845281830111612be3578281602093846000960137010152565b600080fd5b9080601f83011215612be357816020612c0393359101612bac565b90565b6040600319820112612be357600435906001600160401b038211612be357612c3091600401612be8565b9060243590565b600435906001600160a01b0382168203612be357565b602435906001600160a01b0382168203612be357565b60a0809180511515845260208101516020850152600180831b0360408201511660408501526060810151606085015260808101511515608085015201511515910152565b6020612cc0918160405193828580945193849201612a76565b8101600281520301902090565b90600182811c92168015612cfd575b6020831014612ce757565b634e487b7160e01b600052602260045260246000fd5b91607f1691612cdc565b90604051918260008254612d1a81612ccd565b90818452602094600191600181169081600014612d8a5750600114612d4b575b505050612d4992500383612b6e565b565b600090815285812095935091905b818310612d72575050612d499350820101388080612d3a565b85548884018501529485019487945091830191612d59565b92505050612d4994925060ff191682840152151560051b820101388080612d3a565b6001600160401b038111612b3d5760051b60200190565b81601f82011215612be3578051612dd981612b91565b92612de76040519485612b6e565b81845260208284010111612be357612c039160208085019101612a76565b906020908183820312612be35782516001600160401b0393848211612be3570181601f82011215612be3578051612e3b81612dac565b94612e496040519687612b6e565b818652848087019260051b84010193808511612be357858401925b858410612e75575050505050505090565b8351838111612be3578791612e8f848480948a0101612dc3565b815201930192612e64565b8051821015612eae5760209160051b010190565b634e487b7160e01b600052603260045260246000fd5b51908115158203612be357565b6000198114612ee05760010190565b634e487b7160e01b600052601160045260246000fd5b90612f0082612dac565b612f0d6040519182612b6e565b8281528092612f1e601f1991612dac565b019060005b828110612f2f57505050565b806060602080938501015201612f23565b15612f4757565b60405162461bcd60e51b81526020600482015260166024820152752737ba1030baba3437b934bd32b2103932b630bcb2b960511b6044820152606490fd5b15612f8c57565b60405162461bcd60e51b8152602060048201526011602482015270131bd85b881b9bdd08185c1c1c9bdd9959607a1b6044820152606490fd5b15612fcc57565b60405162461bcd60e51b81526020600482015260196024820152782737ba103a34329037b934b3b4b730b61030b8383937bb32b960391b6044820152606490fd5b1561301457565b60405162461bcd60e51b81526020600482015260156024820152744e6f7420617070726f76656420666f722073616c6560581b6044820152606490fd5b1561305857565b60405162461bcd60e51b8152602060048201526011602482015270105b1c9958591e4818d85b98d95b1b1959607a1b6044820152606490fd5b6130a990602060405192828480945193849201612a76565b810103902090565b156130b857565b60405162461bcd60e51b8152602060048201526013602482015272131bd85b88191bd95cc81b9bdd08195e1a5cdd606a1b6044820152606490fd5b156130fa57565b60405162461bcd60e51b815260206004820152600a602482015269139bdd081b5a5b9d195960b21b6044820152606490fd5b90602082820312612be35781516001600160401b0392838211612be3570190610520928383830312612be35760405193840184811082821117612b3d576040528251818111612be35782613181918501612dc3565b84526020830151818111612be3578261319b918501612dc3565b60208501526040830151818111612be357826131b8918501612dc3565b60408501526060830151818111612be357826131d5918501612dc3565b60608501526080830151608085015260a083015160a085015260c083015160c085015260e083015160e08501526101008084015190850152610120808401519085015261014080840151828111612be35783613232918601612dc3565b90850152610160808401519085015261018080840151908501526101a080840151908501526101c080840151908501526101e0808401519085015261020080840151908501526102208084015190850152610240808401519085015261026080840151828111612be357836132a8918601612dc3565b9085015261028080840151828111612be357836132c6918601612dc3565b908501526102a080840151828111612be357836132e4918601612dc3565b908501526102c080840151908501526102e080840151828111612be3578361330d918601612dc3565b9085015261030080840151828111612be3578361332b918601612dc3565b9085015261032061333d818501612ec4565b9085015261034080840151828111612be3578361335b918601612dc3565b9085015261036080840151828111612be35783613379918601612dc3565b9085015261038080840151828111612be35783613397918601612dc3565b908501526103a080840151828111612be357836133b5918601612dc3565b908501526103c080840151828111612be357836133d3918601612dc3565b908501526103e080840151828111612be357836133f1918601612dc3565b9085015261040080840151828111612be3578361340f918601612dc3565b908501526104209182840151918211612be35761342d918401612dc3565b908301526104408082015190830152610460808201519083015261048080820151908301526104a0613460818301612ec4565b908301526104c080820151908301526104e08082015190830152613488610500809201612ec4565b9082015290565b6040519061349c82612b53565b60088252672830b4b21027b33360c11b6020830152565b156134ba57565b60405162461bcd60e51b81526020600482015260116024820152702637b0b7103737ba103830b4b21037b33360791b6044820152606490fd5b600080546040805163bcb197c960e01b81526020600482018190529195949193926001600160a01b03169084818061352e6024820187612a99565b0381855afa9081156137bd5784916137f7575b50156137c75785516319d1381160e31b81526004810185905284818061356a6024820187612a99565b0381855afa9081156137bd578491613788575b506137555783865160ff84519183818188019461359b818388612a76565b810160028152030190205416613726576135c460ff926004928a51809381928951928391612a76565b81016002815203019020015460081c166136fc576135ff9183918751808095819463395a413d60e21b83528960048401526024830190612a99565b03915afa9081156136f25782916136d8575b5060a0810151156136a457610340015182815191012061362f61348f565b8381519101201461367057835160019490928301906001600160401b0382118483101761365c5752815290565b634e487b7160e01b83526041600452602483fd5b7821b0b73737ba1039b2b636103830b4b21037b333103637b0b760391b9093519161369a83612b53565b6019835282015290565b507704c6f616e2062616c616e6365206d757374206265203e20360441b909351916136ce83612b53565b6018835282015290565b6136ec91503d8084833e610b918183612b6e565b38613611565b85513d84823e3d90fd5b50506c15d85cc818d85b98d95b1b1959609a1b9093519161371c83612b53565b600d835282015290565b505050506f105b1c9958591e48185c1c1c9bdd995960821b9093519161374b83612b53565b6010835282015290565b505075131bd85b88185b1c9958591e481d1bdad95b9a5e995960521b9093519161377e83612b53565b6016835282015290565b90508481813d83116137b6575b61379f8183612b6e565b81010312610e83576137b090612ec4565b3861357d565b503d613795565b87513d86823e3d90fd5b505072131bd85b88191bd95cc81b9bdd08195e1a5cdd606a1b909351916137ed83612b53565b6013835282015290565b90508481813d8311613825575b61380e8183612b6e565b81010312610e835761381f90612ec4565b38613541565b503d613804565b1561383357565b60405162461bcd60e51b815260206004820152600f60248201526e496e76616c6964206164647265737360881b6044820152606490fd5b6040519061387782612b22565b8160a06000918281528260208201528260408201528260608201528260808201520152565b156138a357565b60405162461bcd60e51b815260206004820152600c60248201526b139bdd08185c1c1c9bdd995960a21b6044820152606490fd5b156138de57565b60405162461bcd60e51b815260206004820152601060248201526f4661696c656420746f20756e6c6f636b60801b6044820152606490fd5b602061392f918160405193828580945193849201612a76565b810160028152030190206040519061394682612b22565b60a060ff82541615600481159384865260018101546020870152600180851b0360028201541660408701526003810154606087015201549360ff80861615958615608084015260081c1615159283910152916139bf575b506139b6576139ae57600190600190565b600190600090565b50600090600090565b90503861399d565b6001600160a01b03908116908115613a1057600080516020613af583398151915280546001600160a01b03198116841790915516600080516020613b55833981519152600080a3565b604051631e4fbdf760e01b815260006004820152602490fd5b600080516020613af5833981519152546001600160a01b03163303613a4a57565b60405163118cdaa760e01b8152336004820152602490fd5b60ff600080516020613b758339815191525460401c1615613a7f57565b604051631afcd79f60e31b8152600490fd5b90613ab85750805115613aa657602081519101fd5b60405163d6bda27560e01b8152600490fd5b81511580613aeb575b613ac9575090565b604051639996b31560e01b81526001600160a01b039091166004820152602490fd5b50803b15613ac156fe9016d09d72d40fdae2fd8ceac6b6234c7706214fd39c1cd1e609a0528c199300360894a13ba1a3210667c828492db98dca3e2076cc3735a920a3ca505d382bbc4629fe65bfcd953cde1235af12b8ecf68db748b97516223e47e42c6a4ec8628d8be0079c531659141344cd1fd0a4f28419497f9722a3daafe3b4186f6b6457e0f0c57e16840df040f15088dc2f81fe391c3923bec73e23a9662efc9c229c6a00a164736f6c6343000818000a",
  "linkReferences": {},
  "deployedLinkReferences": {}
}