{
  "_format": "hh-sol-artifact-1",
  "contractName": "MarketplaceBridge",
  "sourceName": "src/MarketplaceBridge.sol",
  "abi": [
    {
      "inputs": [
        {
          "internalType": "address",
          "name": "initialOwner",
          "type": "address"
        },
        {
          "internalType": "address",
          "name": "_loanRegistry",
          "type": "address"
        },
        {
          "internalType": "address",
          "name": "_userRegistry",
          "type": "address"
        }
      ],
      "stateMutability": "nonpayable",
      "type": "constructor"
    },
    {
      "inputs": [
        {
          "internalType": "address",
          "name": "owner",
          "type": "address"
        }
      ],
      "name": "OwnableInvalidOwner",
      "type": "error"
    },
    {
      "inputs": [
        {
          "internalType": "address",
          "name": "account",
          "type": "address"
        }
      ],
      "name": "OwnableUnauthorizedAccount",
      "type": "error"
    },
    {
      "anonymous": false,
      "inputs": [
        {
          "indexed": true,
          "internalType": "string",
          "name": "loanId",
          "type": "string"
        },
        {
          "indexed": false,
          "internalType": "uint256",
          "name": "tokenId",
          "type": "uint256"
        },
        {
          "indexed": false,
          "internalType": "uint256",
          "name": "timestamp",
          "type": "uint256"
        }
      ],
      "name": "AvalancheTokenIdSet",
      "type": "event"
    },
    {
      "anonymous": false,
      "inputs": [
        {
          "indexed": true,
          "internalType": "string",
          "name": "loanId",
          "type": "string"
        },
        {
          "indexed": true,
          "internalType": "uint256",
          "name": "tokenId",
          "type": "uint256"
        },
        {
          "indexed": false,
          "internalType": "uint256",
          "name": "timestamp",
          "type": "uint256"
        }
      ],
      "name": "EmergencyUnlockNeedsSync",
      "type": "event"
    },
    {
      "anonymous": false,
      "inputs": [
        {
          "indexed": true,
          "internalType": "string",
          "name": "loanId",
          "type": "string"
        },
        {
          "indexed": true,
          "internalType": "address",
          "name": "lenderAddress",
          "type": "address"
        },
        {
          "indexed": false,
          "internalType": "uint256",
          "name": "timestamp",
          "type": "uint256"
        }
      ],
      "name": "LoanApprovalCancelled",
      "type": "event"
    },
    {
      "anonymous": false,
      "inputs": [
        {
          "indexed": true,
          "internalType": "string",
          "name": "loanId",
          "type": "string"
        },
        {
          "indexed": true,
          "internalType": "address",
          "name": "lenderAddress",
          "type": "address"
        },
        {
          "indexed": false,
          "internalType": "uint256",
          "name": "askingPrice",
          "type": "uint256"
        },
        {
          "indexed": false,
          "internalType": "uint256",
          "name": "modifiedInterestRate",
          "type": "uint256"
        },
        {
          "indexed": false,
          "internalType": "uint256",
          "name": "timestamp",
          "type": "uint256"
        }
      ],
      "name": "LoanApprovedForSale",
      "type": "event"
    },
    {
      "anonymous": false,
      "inputs": [
        {
          "indexed": true,
          "internalType": "string",
          "name": "loanId",
          "type": "string"
        },
        {
          "indexed": false,
          "internalType": "uint256",
          "name": "timestamp",
          "type": "uint256"
        }
      ],
      "name": "LoanPaidOff",
      "type": "event"
    },
    {
      "anonymous": false,
      "inputs": [
        {
          "indexed": true,
          "internalType": "address",
          "name": "previousOwner",
          "type": "address"
        },
        {
          "indexed": true,
          "internalType": "address",
          "name": "newOwner",
          "type": "address"
        }
      ],
      "name": "OwnershipTransferred",
      "type": "event"
    },
    {
      "anonymous": false,
      "inputs": [
        {
          "indexed": true,
          "internalType": "string",
          "name": "loanId",
          "type": "string"
        },
        {
          "indexed": true,
          "internalType": "address",
          "name": "newOwner",
          "type": "address"
        },
        {
          "indexed": false,
          "internalType": "uint256",
          "name": "salePrice",
          "type": "uint256"
        },
        {
          "indexed": false,
          "internalType": "uint256",
          "name": "timestamp",
          "type": "uint256"
        }
      ],
      "name": "OwnershipTransferred",
      "type": "event"
    },
    {
      "anonymous": false,
      "inputs": [
        {
          "indexed": true,
          "internalType": "string",
          "name": "loanId",
          "type": "string"
        },
        {
          "indexed": false,
          "internalType": "uint256",
          "name": "amount",
          "type": "uint256"
        },
        {
          "indexed": false,
          "internalType": "uint256",
          "name": "timestamp",
          "type": "uint256"
        }
      ],
      "name": "PaymentRecorded",
      "type": "event"
    },
    {
      "inputs": [
        {
          "internalType": "string",
          "name": "loanId",
          "type": "string"
        },
        {
          "internalType": "uint256",
          "name": "askingPrice",
          "type": "uint256"
        },
        {
          "internalType": "uint256",
          "name": "modifiedInterestRate",
          "type": "uint256"
        }
      ],
      "name": "approveLoanForSale",
      "outputs": [
        {
          "internalType": "bool",
          "name": "",
          "type": "bool"
        }
      ],
      "stateMutability": "nonpayable",
      "type": "function"
    },
    {
      "inputs": [
        {
          "internalType": "string",
          "name": "loanId",
          "type": "string"
        }
      ],
      "name": "canBeMinted",
      "outputs": [
        {
          "internalType": "bool",
          "name": "",
          "type": "bool"
        }
      ],
      "stateMutability": "view",
      "type": "function"
    },
    {
      "inputs": [
        {
          "internalType": "string",
          "name": "loanId",
          "type": "string"
        },
        {
          "internalType": "address",
          "name": "lenderAddress",
          "type": "address"
        }
      ],
      "name": "canLenderApproveLoan",
      "outputs": [
        {
          "internalType": "bool",
          "name": "canApprove",
          "type": "bool"
        },
        {
          "internalType": "string",
          "name": "reason",
          "type": "string"
        }
      ],
      "stateMutability": "view",
      "type": "function"
    },
    {
      "inputs": [
        {
          "internalType": "string",
          "name": "loanId",
          "type": "string"
        }
      ],
      "name": "cancelSaleListing",
      "outputs": [
        {
          "internalType": "bool",
          "name": "",
          "type": "bool"
        }
      ],
      "stateMutability": "nonpayable",
      "type": "function"
    },
    {
      "inputs": [
        {
          "internalType": "string",
          "name": "loanId",
          "type": "string"
        }
      ],
      "name": "emergencyUnlock",
      "outputs": [
        {
          "internalType": "bool",
          "name": "",
          "type": "bool"
        }
      ],
      "stateMutability": "nonpayable",
      "type": "function"
    },
    {
      "inputs": [
        {
          "internalType": "string",
          "name": "loanId",
          "type": "string"
        }
      ],
      "name": "forceUnlockPaidOffLoan",
      "outputs": [
        {
          "internalType": "bool",
          "name": "",
          "type": "bool"
        }
      ],
      "stateMutability": "nonpayable",
      "type": "function"
    },
    {
      "inputs": [
        {
          "internalType": "string",
          "name": "loanId",
          "type": "string"
        }
      ],
      "name": "getApprovalData",
      "outputs": [
        {
          "components": [
            {
              "internalType": "bool",
              "name": "isApproved",
              "type": "bool"
            },
            {
              "internalType": "uint256",
              "name": "askingPrice",
              "type": "uint256"
            },
            {
              "internalType": "uint256",
              "name": "modifiedInterestRate",
              "type": "uint256"
            },
            {
              "internalType": "address",
              "name": "lenderAddress",
              "type": "address"
            },
            {
              "internalType": "uint256",
              "name": "approvalTimestamp",
              "type": "uint256"
            },
            {
              "internalType": "bool",
              "name": "isMinted",
              "type": "bool"
            },
            {
              "internalType": "bool",
              "name": "isCancelled",
              "type": "bool"
            }
          ],
          "internalType": "struct MarketplaceBridge.ApprovalData",
          "name": "",
          "type": "tuple"
        }
      ],
      "stateMutability": "view",
      "type": "function"
    },
    {
      "inputs": [
        {
          "internalType": "bytes32",
          "name": "txHash",
          "type": "bytes32"
        }
      ],
      "name": "getApprovalDataByTxHash",
      "outputs": [
        {
          "components": [
            {
              "internalType": "bool",
              "name": "isApproved",
              "type": "bool"
            },
            {
              "internalType": "uint256",
              "name": "askingPrice",
              "type": "uint256"
            },
            {
              "internalType": "uint256",
              "name": "modifiedInterestRate",
              "type": "uint256"
            },
            {
              "internalType": "address",
              "name": "lenderAddress",
              "type": "address"
            },
            {
              "internalType": "uint256",
              "name": "approvalTimestamp",
              "type": "uint256"
            },
            {
              "internalType": "bool",
              "name": "isMinted",
              "type": "bool"
            },
            {
              "internalType": "bool",
              "name": "isCancelled",
              "type": "bool"
            }
          ],
          "internalType": "struct MarketplaceBridge.ApprovalData",
          "name": "",
          "type": "tuple"
        },
        {
          "internalType": "string",
          "name": "",
          "type": "string"
        }
      ],
      "stateMutability": "view",
      "type": "function"
    },
    {
      "inputs": [
        {
          "internalType": "address",
          "name": "lenderAddress",
          "type": "address"
        }
      ],
      "name": "getApprovedLoansByLender",
      "outputs": [
        {
          "internalType": "string[]",
          "name": "",
          "type": "string[]"
        }
      ],
      "stateMutability": "view",
      "type": "function"
    },
    {
      "inputs": [
        {
          "internalType": "string",
          "name": "loanId",
          "type": "string"
        }
      ],
      "name": "getAvalancheTokenId",
      "outputs": [
        {
          "internalType": "uint256",
          "name": "",
          "type": "uint256"
        }
      ],
      "stateMutability": "view",
      "type": "function"
    },
    {
      "inputs": [
        {
          "internalType": "bytes32",
          "name": "txHash",
          "type": "bytes32"
        }
      ],
      "name": "getLoanIdByTxHash",
      "outputs": [
        {
          "internalType": "string",
          "name": "",
          "type": "string"
        }
      ],
      "stateMutability": "view",
      "type": "function"
    },
    {
      "inputs": [],
      "name": "getTokenizedLoans",
      "outputs": [
        {
          "internalType": "string[]",
          "name": "",
          "type": "string[]"
        }
      ],
      "stateMutability": "view",
      "type": "function"
    },
    {
      "inputs": [
        {
          "internalType": "string",
          "name": "loanId",
          "type": "string"
        }
      ],
      "name": "isLoanApprovedForSale",
      "outputs": [
        {
          "internalType": "bool",
          "name": "",
          "type": "bool"
        }
      ],
      "stateMutability": "view",
      "type": "function"
    },
    {
      "inputs": [
        {
          "internalType": "string",
          "name": "",
          "type": "string"
        }
      ],
      "name": "loanApprovals",
      "outputs": [
        {
          "internalType": "bool",
          "name": "isApproved",
          "type": "bool"
        },
        {
          "internalType": "uint256",
          "name": "askingPrice",
          "type": "uint256"
        },
        {
          "internalType": "uint256",
          "name": "modifiedInterestRate",
          "type": "uint256"
        },
        {
          "internalType": "address",
          "name": "lenderAddress",
          "type": "address"
        },
        {
          "internalType": "uint256",
          "name": "approvalTimestamp",
          "type": "uint256"
        },
        {
          "internalType": "bool",
          "name": "isMinted",
          "type": "bool"
        },
        {
          "internalType": "bool",
          "name": "isCancelled",
          "type": "bool"
        }
      ],
      "stateMutability": "view",
      "type": "function"
    },
    {
      "inputs": [],
      "name": "loanRegistry",
      "outputs": [
        {
          "internalType": "contract LoanRegistry",
          "name": "",
          "type": "address"
        }
      ],
      "stateMutability": "view",
      "type": "function"
    },
    {
      "inputs": [
        {
          "internalType": "string",
          "name": "",
          "type": "string"
        }
      ],
      "name": "loanToAvalancheTokenId",
      "outputs": [
        {
          "internalType": "uint256",
          "name": "",
          "type": "uint256"
        }
      ],
      "stateMutability": "view",
      "type": "function"
    },
    {
      "inputs": [
        {
          "internalType": "string",
          "name": "loanId",
          "type": "string"
        }
      ],
      "name": "markLoanAsPaidOff",
      "outputs": [
        {
          "internalType": "bool",
          "name": "",
          "type": "bool"
        }
      ],
      "stateMutability": "nonpayable",
      "type": "function"
    },
    {
      "inputs": [],
      "name": "owner",
      "outputs": [
        {
          "internalType": "address",
          "name": "",
          "type": "address"
        }
      ],
      "stateMutability": "view",
      "type": "function"
    },
    {
      "inputs": [
        {
          "internalType": "string",
          "name": "loanId",
          "type": "string"
        },
        {
          "internalType": "address",
          "name": "newOwnerAddress",
          "type": "address"
        },
        {
          "internalType": "uint256",
          "name": "salePrice",
          "type": "uint256"
        }
      ],
      "name": "recordOwnershipTransfer",
      "outputs": [
        {
          "internalType": "bool",
          "name": "",
          "type": "bool"
        }
      ],
      "stateMutability": "nonpayable",
      "type": "function"
    },
    {
      "inputs": [
        {
          "internalType": "string",
          "name": "loanId",
          "type": "string"
        },
        {
          "internalType": "uint256",
          "name": "amount",
          "type": "uint256"
        }
      ],
      "name": "recordPayment",
      "outputs": [
        {
          "internalType": "bool",
          "name": "",
          "type": "bool"
        }
      ],
      "stateMutability": "nonpayable",
      "type": "function"
    },
    {
      "inputs": [
        {
          "internalType": "string",
          "name": "loanId",
          "type": "string"
        },
        {
          "internalType": "bytes32",
          "name": "txHash",
          "type": "bytes32"
        }
      ],
      "name": "registerApprovalTxHash",
      "outputs": [
        {
          "internalType": "bool",
          "name": "",
          "type": "bool"
        }
      ],
      "stateMutability": "nonpayable",
      "type": "function"
    },
    {
      "inputs": [],
      "name": "relayerAddress",
      "outputs": [
        {
          "internalType": "address",
          "name": "",
          "type": "address"
        }
      ],
      "stateMutability": "view",
      "type": "function"
    },
    {
      "inputs": [],
      "name": "renounceOwnership",
      "outputs": [],
      "stateMutability": "nonpayable",
      "type": "function"
    },
    {
      "inputs": [
        {
          "internalType": "string",
          "name": "loanId",
          "type": "string"
        },
        {
          "internalType": "uint256",
          "name": "tokenId",
          "type": "uint256"
        }
      ],
      "name": "setAvalancheTokenId",
      "outputs": [
        {
          "internalType": "bool",
          "name": "",
          "type": "bool"
        }
      ],
      "stateMutability": "nonpayable",
      "type": "function"
    },
    {
      "inputs": [
        {
          "internalType": "address",
          "name": "_relayer",
          "type": "address"
        }
      ],
      "name": "setRelayerAddress",
      "outputs": [],
      "stateMutability": "nonpayable",
      "type": "function"
    },
    {
      "inputs": [
        {
          "internalType": "address",
          "name": "newOwner",
          "type": "address"
        }
      ],
      "name": "transferOwnership",
      "outputs": [],
      "stateMutability": "nonpayable",
      "type": "function"
    },
    {
      "inputs": [
        {
          "internalType": "bytes32",
          "name": "",
          "type": "bytes32"
        }
      ],
      "name": "txHashToLoanId",
      "outputs": [
        {
          "internalType": "string",
          "name": "",
          "type": "string"
        }
      ],
      "stateMutability": "view",
      "type": "function"
    },
    {
      "inputs": [
        {
          "internalType": "address",
          "name": "newLoanRegistry",
          "type": "address"
        }
      ],
      "name": "updateLoanRegistry",
      "outputs": [],
      "stateMutability": "nonpayable",
      "type": "function"
    },
    {
      "inputs": [
        {
          "internalType": "address",
          "name": "newUserRegistry",
          "type": "address"
        }
      ],
      "name": "updateUserRegistry",
      "outputs": [],
      "stateMutability": "nonpayable",
      "type": "function"
    },
    {
      "inputs": [],
      "name": "userRegistry",
      "outputs": [
        {
          "internalType": "contract UserRegistry",
          "name": "",
          "type": "address"
        }
      ],
      "stateMutability": "view",
      "type": "function"
    }
  ],
  "bytecode": "0x6080346200019057601f6200364238819003918201601f191683019291906001600160401b038411838510176200019557816060928492604096875283398101031262000190576200005181620001ab565b6200006c836200006460208501620001ab565b9301620001ab565b6001600160a01b03918216919082156200017857816000549460018060a01b031994808688161760005582885197167f8be0079c531659141344cd1fd0a4f28419497f9722a3daafe3b4186f6b6457e0600080a31693841562000136575016918215620000f2578160015416176001556002541617600255516134819081620001c18239f35b835162461bcd60e51b815260206004820152601460248201527f496e76616c6964205573657252656769737472790000000000000000000000006044820152606490fd5b62461bcd60e51b815260206004820152601460248201527f496e76616c6964204c6f616e52656769737472790000000000000000000000006044820152606490fd5b8451631e4fbdf760e01b815260006004820152602490fd5b600080fd5b634e487b7160e01b600052604160045260246000fd5b51906001600160a01b0382168203620001905756fe6080604081815260048036101561001557600080fd5b600092833560e01c908163015f51351461222c5750806304bb3939146120585780630f762b8914611f4a57806310e6c64e14611d7257806314df577e14611cb257806318a7cca814611c895780632e37d82614611c3c5780635209ccf714611bef57806355cc57ae14611ae057806356894c4714611a17578063579c539e14611806578063583ee2cf1461174b5780635c7460d61461172257806367ff19341461161f578063715018a6146116c857806373999c881461166957806384f38df41461161f5780638da5cb5b146115f757806395508d3b1461134e5780639f71afec14611325578063a323b66d14610d09578063a77957ea14610ce0578063a81f2643146109ba578063cf29cfe114610829578063d384a0d7146107dc578063e641e8861461072d578063ece49dfe14610424578063edfb22c214610236578063f2fde38b146101b05763fcea79ae1461016d57600080fd5b346101ac5760203660031901126101ac57816101a89361019592358152600660205220612703565b905191829160208352602083019061249a565b0390f35b8280fd5b50346101ac5760203660031901126101ac576101ca612628565b906101d3613428565b6001600160a01b0391821692831561022057505082546001600160a01b0319811683178455167f8be0079c531659141344cd1fd0a4f28419497f9722a3daafe3b4186f6b6457e08380a380f35b51631e4fbdf760e01b8152908101849052602490fd5b5090346101ac5760203660031901126101ac57610251612628565b92809260018060a01b0393600195838660015416865194858092635c1bf86560e01b82525afa92831561041a57918794939291859285946103f6575b5087859116925b61036f575b506102a791929394506128f5565b9483875b6102bd575b8551806101a889826124bf565b835181101561036a57908782848360036102e46102de8a9998879c9b612899565b516126a3565b0154161480610353575b80610335575b610304575b0190919293946102ab565b9461032f906103138787612899565b5161031e828c612899565b52610329818b612899565b506128d0565b946102f9565b5060ff60056103476102de8489612899565b015460081c16156102f4565b5060ff6103636102de8388612899565b54166102ee565b6102b0565b859084518110156103f0578389600361038b6102de858a612899565b01541614806103d9575b806103bb575b6103a8575b810190610294565b916103b382916128d0565b9290506103a0565b5060ff60056103cd6102de8489612899565b015460081c161561039b565b5060ff6103e96102de8388612899565b5416610395565b50610299565b6104139194503d8087833e61040b818361256f565b810190612804565b923861028d565b85513d86823e3d90fd5b50346101ac57610433366125f7565b9160018060a01b039461044b8660035416331461293f565b84519583516005602098898181890194610466818388612477565b81018881520301902061047c60ff825416612984565b01805460ff8160081c166106f15760ff81166106bd5787156106875783600154168a8a5180926319d1381160e31b8252828a83015281806104c18d602483019061249a565b03915afa90811561067d578691610644575b501561060c5760ff191660011790558651855187928a9183916104f99082908490612477565b81016005815203019020556001541686865180926376724eff60e11b8252888683015281858161052c604482018b61249a565b8b602483015203925af19182156106015780926105c6575b50501561058a5750826105777fd9af9fe87cb0da3dea36fcb8d50a76961a23460b2422995a935515422b1fb05e92612a06565b9281519081524286820152a25160018152f35b835162461bcd60e51b8152908101859052601660248201527511985a5b1959081d1bc81cd95d081d1bdad95b88125160521b6044820152606490fd5b9091508682813d83116105fa575b6105de818361256f565b810103126105f757506105f0906128c3565b3880610544565b80fd5b503d6105d4565b8651903d90823e3d90fd5b885162461bcd60e51b81528087018b90526012602482015271131bd85b881a5cc81b9bdd081b1bd8dad95960721b6044820152606490fd5b90508a81813d8311610676575b61065b818361256f565b810103126106725761066c906128c3565b386104d3565b8580fd5b503d610651565b8a513d88823e3d90fd5b885162461bcd60e51b81528087018b9052601060248201526f125b9d985b1a59081d1bdad95b88125160821b6044820152606490fd5b885162461bcd60e51b81528087018b9052600e60248201526d105b1c9958591e481b5a5b9d195960921b6044820152606490fd5b885162461bcd60e51b81528087018b90526016602482015275105c1c1c9bdd985b081dd85cc818d85b98d95b1b195960521b6044820152606490fd5b5082346105f75760203660031901126105f7578135906001600160401b0382116105f7575060e09261077b602061076960ff94369087016125ab565b81845193828580945193849201612477565b8101868152030190208281541693600182015492600283015490600560018060a01b03600386015416938501549401549481519715158852602088015286015260608501526080840152818116151560a084015260081c16151560c0820152f35b83346105f75760203660031901126105f7576107f6612628565b6107fe613428565b6001600160a01b0316610812811515612ded565b600380546001600160a01b03191691909117905580f35b50346101ac5760603660031901126101ac5780356001600160401b0381116109b65761085890369083016125ab565b9061086161263e565b6003546001600160a01b03929061087b908416331461293f565b8260015416855196879163bcb197c960e01b83526020988991828683015281806108a8602482018c61249a565b03915afa9081156109ab578091610972575b506108c591506129c4565b60ff60058651888188516108dc8183858d01612477565b8101868152030190200154161561093a57501690610904906108ff831515612ded565b612a06565b7f1c74cd4d51d1c3291f2b5ccd11557f063f9e0a3882c465c0944c3f0e9b93bd8083805160443581524287820152a35160018152f35b845162461bcd60e51b81529081018690526012602482015271139195081b9bdd081b5a5b9d1959081e595d60721b6044820152606490fd5b90508782813d83116109a4575b610989818361256f565b810103126105f7575061099e6108c5916128c3565b386108ba565b503d61097f565b8751903d90823e3d90fd5b8380fd5b50346101ac57602092836003193601126105f75781356001600160401b038111610cdc576109eb90369084016125ab565b9160018060a01b0391610a038360035416331461293f565b8260015416855163bcb197c960e01b81528784820152878180610a29602482018a61249a565b0381855afa8015610c7a578390610ca6575b610a4591506129c4565b855163395a413d60e21b8152838101889052828180610a67602482018a61249a565b0381855afa908115610c7a57610a9f91610340918591610c84575b500151888151910120610a93612d89565b89815191012014612dad565b85516319d1381160e31b8152838101889052878180610ac1602482018a61249a565b0381855afa908115610c7a57908392918996959491610c3c575b50610bae575b505084519060ff855192858181890195610afc818389612477565b8101858152030190205416610b15575b83865160018152f35b610b8e93600392610b7c926005895184818b51610b33818389612477565b8101858152030190200161010061ff0019825416179055885183818a51610b5b818388612477565b81018481520301902060ff1981541690558851809481938a51928391612477565b82019081520301902001541691612a06565b600080516020613455833981519152848451428152a33882818080610b0c565b9091929386518092630af1f6af60e41b82528286830152818581610bd5602482018c61249a565b03925af191821561060157908188959493610bfd575b5050610bf690612e63565b3880610ae1565b915091929382813d8311610c35575b610c16818361256f565b810103126105f7575090610bf6610c2e8794936128c3565b9038610beb565b503d610c0c565b8681939495969792503d8311610c73575b610c57818361256f565b810103126101ac5790610c6d88959493926128c3565b38610adb565b503d610c4d565b87513d85823e3d90fd5b610ca091503d8087833e610c98818361256f565b810190612a26565b38610a82565b508781813d8311610cd5575b610cbc818361256f565b810103126101ac57610cd0610a45916128c3565b610a3b565b503d610cb2565b5080fd5b505034610cdc5781600319360112610cdc5760015490516001600160a01b039091168152602090f35b5091346105f75760603660031901126105f75782356001600160401b038111610cdc57610d3990369085016125ab565b600154835163395a413d60e21b808252602082880181905296602480359660448035979691956001600160a01b039591939286169190878180610d7e8188018d61249a565b0381865afa90811561117d57908491899161130b575b50888d8960025416905193848092636f77926b60e01b8252338c8301525afa91821561130157610df3928f919260c0938c926112db575b5081926060610dea9351828151910120920151908151910120146133a8565b015115156133ea565b8a5163bcb197c960e01b81528581018d90528c8180610e148782018d61249a565b0381865afa801561117d5788906112a5575b610e3091506129c4565b8a516319d1381160e31b81528581018d90528c8180610e518782018d61249a565b0381865afa90811561117d57889161126c575b5061123057908b93929160ff8c518a519681818d0198610e8581838c612477565b81018a81520301902054166111fb5760ff60058e8e5190818d51610eaa81838d612477565b81018b815203019020015460081c166111b9578a15611187578b519081528c86820152878180610edc8682018d61249a565b0381855afa90811561117d578891611163575b5060a0810151156111265761034001518c8151910120610f0d612d89565b8d8151910120146110e9578a51636ec955a560e11b81528581018d9052908c908290818a81610f3e8882018f61249a565b03925af19081156110df5787916110a6575b5015611070575050908888949392855193610f6a85612523565b600185528285018a8152878601908a8252606087019333855260808801954287528b60a08a019b8b8d5260c08b019b8c525180938192518092610fac92612477565b81018981520301902096511515610fcf90889060ff801983541691151516179055565b51600187015551600286015560038501915116600160a01b600190031982541617905551908201556005019151151561101490839060ff801983541691151516179055565b51151581549060081b61ff00169061ff00191617905561103390612a06565b908351928352848301524283830152339160607fb4517b74eb0c604852f14621fac1d526aeefa2b7fc41bfc622242c1a0e8a5d7991a35160018152f35b722330b4b632b2103a37903637b1b5903637b0b760691b606492601386938e8e519562461bcd60e51b8752860152840152820152fd5b90508b81813d83116110d8575b6110bd818361256f565b810103126110d4576110ce906128c3565b38610f50565b8680fd5b503d6110b3565b8b513d89823e3d90fd5b507821b0b73737ba1039b2b636103830b4b21037b333103637b0b760391b606492601986938e8e519562461bcd60e51b8752860152840152820152fd5b50507704c6f616e2062616c616e6365206d757374206265203e20360441b606492601886938e8e519562461bcd60e51b8752860152840152820152fd5b61117791503d808a833e610c98818361256f565b38610eef565b8c513d8a823e3d90fd5b50506c496e76616c696420707269636560981b606492600d86938e8e519562461bcd60e51b8752860152840152820152fd5b50507f5761732063616e63656c6c65642c20757365206e657720617070726f76616c00606492601f86938e8e519562461bcd60e51b8752860152840152820152fd5b50506f105b1c9958591e48185c1c1c9bdd995960821b606492601086938e8e519562461bcd60e51b8752860152840152820152fd5b5050885162461bcd60e51b81529283018a905260169083015275131bd85b88185b1c9958591e481d1bdad95b9a5e995960521b90820152606490fd5b90508c81813d831161129e575b611283818361256f565b8101031261129a57611294906128c3565b38610e64565b8780fd5b503d611279565b508c81813d83116112d4575b6112bb818361256f565b8101031261129a576112cf610e30916128c3565b610e26565b503d6112b1565b610dea92506112fb903d808f833e6112f3818361256f565b810190612ea2565b91610dcb565b8d513d8b823e3d90fd5b61131f91503d808b833e610c98818361256f565b38610d94565b50346101ac5760203660031901126101ac57816101a89361019592358152600660205220612703565b5091346105f75760209283600319360112610cdc5780356001600160401b0381116101ac5761138090369083016125ab565b9160018060a01b0390816001541691855163395a413d60e21b815282816024958a8883015281806113b38982018c61249a565b03915afa908115610c7a5790849184916115dd575b50838360025416895193848092636f77926b60e01b8252338b8301525afa9182156115d3579160c09161141a9386926115b3575b50610dea90606083518d81519101209101518c8151910120146133a8565b85518781875161142d8183858c01612477565b810187815203019020805460ff8116156115795760058201805460ff8160081c166115435761ff00191661010017905560ff191690556001548651630af1f6af60e41b815285810189905291889183911681858161148d8982018c61249a565b03925af191821561060157809261150b575b5050156114d15750506114b190612a06565b815190428252600080516020613455833981519152843393a35160018152f35b835162461bcd60e51b8152918201859052601590820152742330b4b632b2103a37903ab73637b1b5903637b0b760591b6044820152606490fd5b9091508682813d831161153c575b611523818361256f565b810103126105f75750611535906128c3565b388061149f565b503d611519565b895162461bcd60e51b81528089018c905260118189015270105b1c9958591e4818d85b98d95b1b1959607a1b6044820152606490fd5b875162461bcd60e51b81528087018a9052601581870152744e6f7420617070726f76656420666f722073616c6560581b6044820152606490fd5b610dea9192506115cc903d8089833e6112f3818361256f565b91906113fc565b88513d86823e3d90fd5b6115f191503d8086833e610c98818361256f565b386113c8565b505034610cdc5781600319360112610cdc57905490516001600160a01b039091168152602090f35b5091346105f75760203660031901126105f7578235906001600160401b0382116105f7575060206107698194611657933691016125ab565b81016005815203019020549051908152f35b5082346105f757826003193601126105f7578135906001600160401b0382116105f757506116a06101a8926116ae923691016125ab565b6116a861263e565b90612f7d565b83929192519384931515845280602085015283019061249a565b83346105f757806003193601126105f7576116e1613428565b80546001600160a01b03198116825581906001600160a01b03167f8be0079c531659141344cd1fd0a4f28419497f9722a3daafe3b4186f6b6457e08280a380f35b505034610cdc5781600319360112610cdc5760025490516001600160a01b039091168152602090f35b5090346101ac5760203660031901126101ac578135926001600160401b0384116105f7575061178360206107698195369086016125ab565b81018581520301902060ff600583519261179c84612523565b80548316151580855260018201548886015260028201548686015260038201546001600160a01b031660608601529581015460808501520154808216151560a084015260081c1615801560c090920191909152826117fe575b50519015158152f35b9150386117f5565b5091346105f75760209283600319360112610cdc5780356001600160401b0381116101ac5761183890369083016125ab565b90611841613428565b83519282519386818186019661185881838a612477565b81018581520301902090815460ff8116156119e5576005830180549660ff88166119ad576118948a610100928b51809381928c51928391612477565b6005908201908152030190205461ff001990981617905560ff191682556001548651630af1f6af60e41b81529384018890526001600160a01b0393908890829086168185816118e6602482018c61249a565b03925af19182156109ab57809261196f575b505090611906600392612e63565b01541661191282612a06565b600080516020613455833981519152868651428152a381611937575b50505160018152f35b61194090612a06565b7f7a703a6c30188b4b647215dd1591e7d1611a16d8902fec752715563378da98ef848451428152a3388061192e565b9091508782813d83116119a6575b611987818361256f565b810103126105f757509061190661199f6003936128c3565b91926118f8565b503d61197d565b885162461bcd60e51b81528087018b9052601260248201527113919508185b1c9958591e481b5a5b9d195960721b6044820152606490fd5b865162461bcd60e51b8152808501899052600c60248201526b139bdd08185c1c1c9bdd995960a21b6044820152606490fd5b5082346105f75760203660031901126105f7578135906001600160401b0382116105f7575060e09260ff6005611a736020611a58611ade96369089016125ab565b611a60612e2b565b5081865193828580945193849201612477565b810188815203019020835195611a8887612523565b81548416151587526001820154602088015260028201548588015260038201546001600160a01b0316606088015281015460808701520154808216151560a086015260081c16151560c084015251918290612654565bf35b50919034610cdc57602091826003193601126105f75781611b1291611b03612e2b565b50853581526006855220612703565b92835115611bbb579060ff60056101a8938351868181611b388b83815193849201612477565b81018481520301902090845196611b4e88612523565b825485161515885260018301549088015260028201548588015260038201546001600160a01b0316606088015281015460808701520154808216151560a086015260081c16151560c08401525192839261010090611bad908590612654565b8060e085015283019061249a565b82606492519162461bcd60e51b8352820152601060248201526f151e12185cda081b9bdd08199bdd5b9960821b6044820152fd5b83346105f75760203660031901126105f757611c09612628565b611c11613428565b6001600160a01b0316611c25811515612ded565b600180546001600160a01b03191691909117905580f35b83346105f75760203660031901126105f757611c56612628565b611c5e613428565b6001600160a01b0316611c72811515612ded565b600280546001600160a01b03191691909117905580f35b505034610cdc5781600319360112610cdc5760035490516001600160a01b039091168152602090f35b5090346101ac5760203660031901126101ac578135926001600160401b0384116105f75750611cea60206107698195369086016125ab565b8101858152030190206005825191611d0183612523565b60ff81541615159485845260018201548785015260028201548585015260018060a01b0360038301541660608501528101546080840152015460ff8082161591821560a085015260081c16159160c0831591015283611d6a575b50826117fe5750519015158152f35b925038611d5b565b50346101ac57602092836003193601126105f75781356001600160401b038111610cdc57611da390369084016125ab565b9160018060a01b03611dba8160035416331461293f565b60015416845163bcb197c960e01b81528683820152868180611ddf602482018961249a565b0381855afa8015611f40578490611f0a575b611dfb91506129c4565b60ff6005865188818851611e128183858d01612477565b81018781520301902001541615611eda57845163395a413d60e21b8152918201869052829082908180611e48602482018961249a565b03915afa918215611ecf57611e8593926108ff92826103409392611eb4575b50500151858151910120611e79612d89565b86815191012014612dad565b7f370688c1ce7ba926e3b3644cc0ae6546e4a6ec79ef5fcec5321c74877bf65235838351428152a25160018152f35b611ec892503d8091833e610c98818361256f565b3880611e67565b8451903d90823e3d90fd5b845162461bcd60e51b8152808301879052600a602482015269139bdd081b5a5b9d195960b21b6044820152606490fd5b508681813d8311611f39575b611f20818361256f565b810103126109b657611f34611dfb916128c3565b611df1565b503d611f16565b86513d86823e3d90fd5b50346101ac57611f59366125f7565b9160018060a01b03611f708160035416331461293f565b60015416845195869163bcb197c960e01b8352602097889182868301528180611f9c602482018a61249a565b03915afa90811561060157809161201f575b50611fb991506129c4565b8215611feb5750826105777f3c77e296c41583d812e080d710d1f10acaf27dd05c0b9038cf80b7d0fb96243f92612a06565b835162461bcd60e51b8152908101859052600e60248201526d125b9d985b1a5908185b5bdd5b9d60921b6044820152606490fd5b90508682813d8311612051575b612036818361256f565b810103126105f7575061204b611fb9916128c3565b38611fae565b503d61202c565b5090346101ac57806003193601126101ac576001600160401b039180358381116122285761208990369083016125ab565b92602435946120a360018060a01b0360035416331461293f565b8351956120d060ff88888181516120c08160209e8f809601612477565b8101898152030190205416612984565b80156121f4578152600686528381209285519283116121e157506120f483546126c9565b601f811161219e575b508590601f831160011461213d57948293949592612132575b50508160011b916000199060031b1c19161790555b5160018152f35b015190503880612116565b90601f19831695848352878320925b888882106121885750508360019596971061216f575b505050811b01905561212b565b015160001960f88460031b161c19169055388080612162565b600184958293958501518155019401920161214c565b838252868220601f840160051c8101918885106121d7575b601f0160051c01905b8181106121cc57506120fd565b8281556001016121bf565b90915081906121b6565b634e487b7160e01b825260419052602490fd5b845162461bcd60e51b8152808501889052600e60248201526d092dcecc2d8d2c840e8f090c2e6d60931b6044820152606490fd5b8480fd5b848484346101ac57826003193601126101ac5760018054635c1bf86560e01b86529094906001600160a01b03168480838581855afa92831561246d579087949392918793612451575b509686959496905b612384575b506122918697969495966128f5565b95809381985b6122a9575b8651806101a88a826124bf565b83979695975189101561237b576122e76122c38a86612899565b518751906367e6ec0360e11b8252818060209485938488840152602483019061249a565b0381885afa9182156115d357849261233a575b50509780998197989961230f575b0198612297565b956123349061231e8888612899565b51612329828d612899565b52610329818c612899565b95612308565b90809250813d8311612374575b612351818361256f565b810103126101ac579780996123688298999a6128c3565b91999897819b506122fa565b503d612347565b8596975061229c565b96825188101561244b576123bf61239b8985612899565b518651906367e6ec0360e11b825281806020948593848b840152602483019061249a565b0381875afa918215612441578892612400575b5050968098819697986123ed575b810191985096959461227d565b916123f882916128d0565b9290506123e0565b90809250813d831161243a575b612417818361256f565b810103126110d45796809861242e829798996128c3565b91989796819a506123d2565b503d61240d565b87513d8a823e3d90fd5b96612282565b6124669193503d8089833e61040b818361256f565b9188612275565b85513d88823e3d90fd5b60005b83811061248a5750506000910152565b818101518382015260200161247a565b906020916124b381518092818552858086019101612477565b601f01601f1916010190565b6020808201906020835283518092526040830192602060408460051b8301019501936000915b8483106124f55750505050505090565b9091929394958480612513600193603f198682030187528a5161249a565b98019301930191949392906124e5565b60e081019081106001600160401b0382111761253e57604052565b634e487b7160e01b600052604160045260246000fd5b604081019081106001600160401b0382111761253e57604052565b90601f801991011681019081106001600160401b0382111761253e57604052565b6001600160401b03811161253e57601f01601f191660200190565b81601f820112156125f2578035906125c282612590565b926125d0604051948561256f565b828452602083830101116125f257816000926020809301838601378301015290565b600080fd5b60406003198201126125f257600435906001600160401b0382116125f257612621916004016125ab565b9060243590565b600435906001600160a01b03821682036125f257565b602435906001600160a01b03821682036125f257565b60c08091805115158452602081015160208501526040810151604085015260018060a01b0360608201511660608501526080810151608085015260a0810151151560a085015201511515910152565b60206126bc918160405193828580945193849201612477565b8101600481520301902090565b90600182811c921680156126f9575b60208310146126e357565b634e487b7160e01b600052602260045260246000fd5b91607f16916126d8565b90604051918260008254612716816126c9565b908184526020946001916001811690816000146127865750600114612747575b5050506127459250038361256f565b565b600090815285812095935091905b81831061276e5750506127459350820101388080612736565b85548884018501529485019487945091830191612755565b9250505061274594925060ff191682840152151560051b820101388080612736565b6001600160401b03811161253e5760051b60200190565b81601f820112156125f25780516127d581612590565b926127e3604051948561256f565b818452602082840101116125f2576128019160208085019101612477565b90565b9060209081838203126125f25782516001600160401b03938482116125f2570181601f820112156125f257805161283a816127a8565b94612848604051968761256f565b818652848087019260051b840101938085116125f257858401925b858410612874575050505050505090565b83518381116125f257879161288e848480948a01016127bf565b815201930192612863565b80518210156128ad5760209160051b010190565b634e487b7160e01b600052603260045260246000fd5b519081151582036125f257565b60001981146128df5760010190565b634e487b7160e01b600052601160045260246000fd5b906128ff826127a8565b61290c604051918261256f565b828152809261291d601f19916127a8565b019060005b82811061292e57505050565b806060602080938501015201612922565b1561294657565b60405162461bcd60e51b81526020600482015260166024820152752737ba1030baba3437b934bd32b2103932b630bcb2b960511b6044820152606490fd5b1561298b57565b60405162461bcd60e51b8152602060048201526011602482015270131bd85b881b9bdd08185c1c1c9bdd9959607a1b6044820152606490fd5b156129cb57565b60405162461bcd60e51b8152602060048201526013602482015272131bd85b88191bd95cc81b9bdd08195e1a5cdd606a1b6044820152606490fd5b612a1e90602060405192828480945193849201612477565b810103902090565b906020828203126125f25781516001600160401b03928382116125f25701906105209283838303126125f2576040519384018481108282111761253e5760405282518181116125f25782612a7b9185016127bf565b845260208301518181116125f25782612a959185016127bf565b602085015260408301518181116125f25782612ab29185016127bf565b604085015260608301518181116125f25782612acf9185016127bf565b60608501526080830151608085015260a083015160a085015260c083015160c085015260e083015160e085015261010080840151908501526101208084015190850152610140808401518281116125f25783612b2c9186016127bf565b90850152610160808401519085015261018080840151908501526101a080840151908501526101c080840151908501526101e08084015190850152610200808401519085015261022080840151908501526102408084015190850152610260808401518281116125f25783612ba29186016127bf565b90850152610280808401518281116125f25783612bc09186016127bf565b908501526102a0808401518281116125f25783612bde9186016127bf565b908501526102c080840151908501526102e0808401518281116125f25783612c079186016127bf565b90850152610300808401518281116125f25783612c259186016127bf565b90850152610320612c378185016128c3565b90850152610340808401518281116125f25783612c559186016127bf565b90850152610360808401518281116125f25783612c739186016127bf565b90850152610380808401518281116125f25783612c919186016127bf565b908501526103a0808401518281116125f25783612caf9186016127bf565b908501526103c0808401518281116125f25783612ccd9186016127bf565b908501526103e0808401518281116125f25783612ceb9186016127bf565b90850152610400808401518281116125f25783612d099186016127bf565b9085015261042091828401519182116125f257612d279184016127bf565b908301526104408082015190830152610460808201519083015261048080820151908301526104a0612d5a8183016128c3565b908301526104c080820151908301526104e08082015190830152612d826105008092016128c3565b9082015290565b60405190612d9682612554565b60088252672830b4b21027b33360c11b6020830152565b15612db457565b60405162461bcd60e51b81526020600482015260116024820152702637b0b7103737ba103830b4b21037b33360791b6044820152606490fd5b15612df457565b60405162461bcd60e51b815260206004820152600f60248201526e496e76616c6964206164647265737360881b6044820152606490fd5b60405190612e3882612523565b8160c06000918281528260208201528260408201528260608201528260808201528260a08201520152565b15612e6a57565b60405162461bcd60e51b815260206004820152601060248201526f4661696c656420746f20756e6c6f636b60801b6044820152606490fd5b6020818303126125f25780516001600160401b03918282116125f257019060e0828403126125f25760405192612ed784612523565b82518281116125f25781612eec9185016127bf565b845260208301518281116125f25781612f069185016127bf565b602085015260408301518281116125f25781612f239185016127bf565b604085015260608301519182116125f257612f3f9183016127bf565b606083015260808101516001600160a01b03811681036125f257612f759160c091608085015260a081015160a0850152016128c3565b60c082015290565b6001546040805163bcb197c960e01b8152602060048083018290529296959094929390916001600160a01b0391821690868180612fbd602482018961249a565b0381855afa90811561333e57600091613373575b50156133495787516319d1381160e31b8152858101879052868180612ff9602482018961249a565b0381855afa90811561333e57600091613309575b506132d25787518660ff8651928281818a019561302b818389612477565b81018b815203019020541661329f5761305360059160ff938c51809381928b51928391612477565b81018a815203019020015460081c166132715761308d936000918951808097819463395a413d60e21b83528b8b840152602483019061249a565b03915afa92831561326657600093613247575b506002548751636f77926b60e01b81529282168584015260009183916024918391165afa90811561323c57600091613221575b5060c0810151156131f357518381519101206060820151848151910120036131c25760a08101511561318c576103400151828151910120613112612d89565b83815191012014613156576001938051928301918383106001600160401b038411176131415750526000815290565b604190634e487b7160e01b6000525260246000fd5b507821b0b73737ba1039b2b636103830b4b21037b333103637b0b760391b600093519161318283612554565b6019835282015290565b50507704c6f616e2062616c616e6365206d757374206265203e20360441b60009351916131b883612554565b6018835282015290565b5050722737ba103a3432903637b0b7103632b73232b960691b60009351916131e983612554565b6013835282015290565b5050506e55736572206e6f742061637469766560881b600093519161321783612554565b600f835282015290565b61323691503d806000833e6112f3818361256f565b386130d3565b86513d6000823e3d90fd5b600091935061325f903d8084833e610c98818361256f565b92906130a0565b87513d6000823e3d90fd5b50505050506c15d85cc818d85b98d95b1b1959609a1b600093519161329583612554565b600d835282015290565b505050505050506f105b1c9958591e48185c1c1c9bdd995960821b60009351916132c883612554565b6010835282015290565b505050505075131bd85b88185b1c9958591e481d1bdad95b9a5e995960521b60009351916132ff83612554565b6016835282015290565b90508681813d8311613337575b613320818361256f565b810103126125f257613331906128c3565b3861300d565b503d613316565b89513d6000823e3d90fd5b505050505072131bd85b88191bd95cc81b9bdd08195e1a5cdd606a1b60009351916131e983612554565b90508681813d83116133a1575b61338a818361256f565b810103126125f25761339b906128c3565b38612fd1565b503d613380565b156133af57565b60405162461bcd60e51b81526020600482015260136024820152722737ba103a3432903637b0b7103632b73232b960691b6044820152606490fd5b156133f157565b60405162461bcd60e51b815260206004820152600f60248201526e55736572206e6f742061637469766560881b6044820152606490fd5b6000546001600160a01b0316330361343c57565b60405163118cdaa760e01b8152336004820152602490fdfe4629fe65bfcd953cde1235af12b8ecf68db748b97516223e47e42c6a4ec8628da164736f6c6343000818000a",
  "linkReferences": {},
  "deployedLinkReferences": {}
}