{
  "_format": "hh-sol-artifact-1",
  "contractName": "Portfolio",
  "sourceName": "src/Portfolio.sol",
  "abi": [
    {
      "inputs": [],
      "stateMutability": "nonpayable",
      "type": "constructor"
    },
    {
      "inputs": [
        {
          "internalType": "address",
          "name": "target",
          "type": "address"
        }
      ],
      "name": "AddressEmptyCode",
      "type": "error"
    },
    {
      "inputs": [
        {
          "internalType": "address",
          "name": "implementation",
          "type": "address"
        }
      ],
      "name": "ERC1967InvalidImplementation",
      "type": "error"
    },
    {
      "inputs": [],
      "name": "ERC1967NonPayable",
      "type": "error"
    },
    {
      "inputs": [],
      "name": "FailedCall",
      "type": "error"
    },
    {
      "inputs": [],
      "name": "InvalidInitialization",
      "type": "error"
    },
    {
      "inputs": [],
      "name": "NotInitializing",
      "type": "error"
    },
    {
      "inputs": [
        {
          "internalType": "address",
          "name": "owner",
          "type": "address"
        }
      ],
      "name": "OwnableInvalidOwner",
      "type": "error"
    },
    {
      "inputs": [
        {
          "internalType": "address",
          "name": "account",
          "type": "address"
        }
      ],
      "name": "OwnableUnauthorizedAccount",
      "type": "error"
    },
    {
      "inputs": [],
      "name": "UUPSUnauthorizedCallContext",
      "type": "error"
    },
    {
      "inputs": [
        {
          "internalType": "bytes32",
          "name": "slot",
          "type": "bytes32"
        }
      ],
      "name": "UUPSUnsupportedProxiableUUID",
      "type": "error"
    },
    {
      "anonymous": false,
      "inputs": [
        {
          "indexed": true,
          "internalType": "string",
          "name": "userId",
          "type": "string"
        },
        {
          "indexed": true,
          "internalType": "address",
          "name": "userAddress",
          "type": "address"
        },
        {
          "indexed": false,
          "internalType": "uint256",
          "name": "loansCount",
          "type": "uint256"
        },
        {
          "indexed": false,
          "internalType": "uint256",
          "name": "totalPrincipal",
          "type": "uint256"
        },
        {
          "indexed": false,
          "internalType": "uint256",
          "name": "timestamp",
          "type": "uint256"
        }
      ],
      "name": "CertificateCreated",
      "type": "event"
    },
    {
      "anonymous": false,
      "inputs": [
        {
          "indexed": true,
          "internalType": "string",
          "name": "userId",
          "type": "string"
        },
        {
          "indexed": true,
          "internalType": "address",
          "name": "userAddress",
          "type": "address"
        },
        {
          "indexed": false,
          "internalType": "uint256",
          "name": "loansCount",
          "type": "uint256"
        },
        {
          "indexed": false,
          "internalType": "uint256",
          "name": "totalPrincipal",
          "type": "uint256"
        },
        {
          "indexed": false,
          "internalType": "uint256",
          "name": "version",
          "type": "uint256"
        },
        {
          "indexed": false,
          "internalType": "uint256",
          "name": "timestamp",
          "type": "uint256"
        }
      ],
      "name": "CertificateUpdated",
      "type": "event"
    },
    {
      "anonymous": false,
      "inputs": [
        {
          "indexed": false,
          "internalType": "uint64",
          "name": "version",
          "type": "uint64"
        }
      ],
      "name": "Initialized",
      "type": "event"
    },
    {
      "anonymous": false,
      "inputs": [
        {
          "indexed": true,
          "internalType": "address",
          "name": "previousOwner",
          "type": "address"
        },
        {
          "indexed": true,
          "internalType": "address",
          "name": "newOwner",
          "type": "address"
        }
      ],
      "name": "OwnershipTransferred",
      "type": "event"
    },
    {
      "anonymous": false,
      "inputs": [
        {
          "indexed": true,
          "internalType": "address",
          "name": "implementation",
          "type": "address"
        }
      ],
      "name": "Upgraded",
      "type": "event"
    },
    {
      "inputs": [],
      "name": "UPGRADE_INTERFACE_VERSION",
      "outputs": [
        {
          "internalType": "string",
          "name": "",
          "type": "string"
        }
      ],
      "stateMutability": "view",
      "type": "function"
    },
    {
      "inputs": [
        {
          "internalType": "string",
          "name": "userId",
          "type": "string"
        },
        {
          "internalType": "address",
          "name": "userAddress",
          "type": "address"
        },
        {
          "internalType": "string[]",
          "name": "loanIds",
          "type": "string[]"
        },
        {
          "internalType": "uint256",
          "name": "totalPrincipal",
          "type": "uint256"
        }
      ],
      "name": "createPortfolioCertificate",
      "outputs": [
        {
          "internalType": "bool",
          "name": "",
          "type": "bool"
        }
      ],
      "stateMutability": "nonpayable",
      "type": "function"
    },
    {
      "inputs": [],
      "name": "getAllCertificates",
      "outputs": [
        {
          "components": [
            {
              "internalType": "string",
              "name": "id",
              "type": "string"
            },
            {
              "internalType": "string",
              "name": "userId",
              "type": "string"
            },
            {
              "internalType": "address",
              "name": "userAddress",
              "type": "address"
            },
            {
              "internalType": "string",
              "name": "txId",
              "type": "string"
            },
            {
              "internalType": "string[]",
              "name": "loanIds",
              "type": "string[]"
            },
            {
              "internalType": "uint256",
              "name": "loansCount",
              "type": "uint256"
            },
            {
              "internalType": "uint256",
              "name": "totalPrincipal",
              "type": "uint256"
            },
            {
              "internalType": "uint256",
              "name": "createdAt",
              "type": "uint256"
            },
            {
              "internalType": "uint256",
              "name": "lastUpdatedAt",
              "type": "uint256"
            },
            {
              "internalType": "uint256",
              "name": "version",
              "type": "uint256"
            },
            {
              "internalType": "bool",
              "name": "exists",
              "type": "bool"
            }
          ],
          "internalType": "struct Portfolio.PortfolioCertificate[]",
          "name": "",
          "type": "tuple[]"
        }
      ],
      "stateMutability": "view",
      "type": "function"
    },
    {
      "inputs": [
        {
          "internalType": "string",
          "name": "userId",
          "type": "string"
        }
      ],
      "name": "getCertificateStats",
      "outputs": [
        {
          "internalType": "uint256",
          "name": "loansCount",
          "type": "uint256"
        },
        {
          "internalType": "uint256",
          "name": "totalPrincipal",
          "type": "uint256"
        },
        {
          "internalType": "uint256",
          "name": "version_",
          "type": "uint256"
        },
        {
          "internalType": "uint256",
          "name": "lastUpdated",
          "type": "uint256"
        }
      ],
      "stateMutability": "view",
      "type": "function"
    },
    {
      "inputs": [
        {
          "internalType": "string",
          "name": "userId",
          "type": "string"
        }
      ],
      "name": "getPortfolioCertificate",
      "outputs": [
        {
          "components": [
            {
              "internalType": "string",
              "name": "id",
              "type": "string"
            },
            {
              "internalType": "string",
              "name": "userId",
              "type": "string"
            },
            {
              "internalType": "address",
              "name": "userAddress",
              "type": "address"
            },
            {
              "internalType": "string",
              "name": "txId",
              "type": "string"
            },
            {
              "internalType": "string[]",
              "name": "loanIds",
              "type": "string[]"
            },
            {
              "internalType": "uint256",
              "name": "loansCount",
              "type": "uint256"
            },
            {
              "internalType": "uint256",
              "name": "totalPrincipal",
              "type": "uint256"
            },
            {
              "internalType": "uint256",
              "name": "createdAt",
              "type": "uint256"
            },
            {
              "internalType": "uint256",
              "name": "lastUpdatedAt",
              "type": "uint256"
            },
            {
              "internalType": "uint256",
              "name": "version",
              "type": "uint256"
            },
            {
              "internalType": "bool",
              "name": "exists",
              "type": "bool"
            }
          ],
          "internalType": "struct Portfolio.PortfolioCertificate",
          "name": "",
          "type": "tuple"
        }
      ],
      "stateMutability": "view",
      "type": "function"
    },
    {
      "inputs": [
        {
          "internalType": "address",
          "name": "userAddress",
          "type": "address"
        }
      ],
      "name": "getPortfolioCertificateByAddress",
      "outputs": [
        {
          "components": [
            {
              "internalType": "string",
              "name": "id",
              "type": "string"
            },
            {
              "internalType": "string",
              "name": "userId",
              "type": "string"
            },
            {
              "internalType": "address",
              "name": "userAddress",
              "type": "address"
            },
            {
              "internalType": "string",
              "name": "txId",
              "type": "string"
            },
            {
              "internalType": "string[]",
              "name": "loanIds",
              "type": "string[]"
            },
            {
              "internalType": "uint256",
              "name": "loansCount",
              "type": "uint256"
            },
            {
              "internalType": "uint256",
              "name": "totalPrincipal",
              "type": "uint256"
            },
            {
              "internalType": "uint256",
              "name": "createdAt",
              "type": "uint256"
            },
            {
              "internalType": "uint256",
              "name": "lastUpdatedAt",
              "type": "uint256"
            },
            {
              "internalType": "uint256",
              "name": "version",
              "type": "uint256"
            },
            {
              "internalType": "bool",
              "name": "exists",
              "type": "bool"
            }
          ],
          "internalType": "struct Portfolio.PortfolioCertificate",
          "name": "",
          "type": "tuple"
        }
      ],
      "stateMutability": "view",
      "type": "function"
    },
    {
      "inputs": [
        {
          "internalType": "string",
          "name": "userId",
          "type": "string"
        }
      ],
      "name": "getPortfolioCertificateTxId",
      "outputs": [
        {
          "internalType": "string",
          "name": "",
          "type": "string"
        }
      ],
      "stateMutability": "view",
      "type": "function"
    },
    {
      "inputs": [
        {
          "internalType": "address",
          "name": "initialOwner",
          "type": "address"
        }
      ],
      "name": "initialize",
      "outputs": [],
      "stateMutability": "nonpayable",
      "type": "function"
    },
    {
      "inputs": [],
      "name": "owner",
      "outputs": [
        {
          "internalType": "address",
          "name": "",
          "type": "address"
        }
      ],
      "stateMutability": "view",
      "type": "function"
    },
    {
      "inputs": [
        {
          "internalType": "string",
          "name": "userId",
          "type": "string"
        }
      ],
      "name": "portfolioCertificateExists",
      "outputs": [
        {
          "internalType": "bool",
          "name": "",
          "type": "bool"
        }
      ],
      "stateMutability": "view",
      "type": "function"
    },
    {
      "inputs": [],
      "name": "proxiableUUID",
      "outputs": [
        {
          "internalType": "bytes32",
          "name": "",
          "type": "bytes32"
        }
      ],
      "stateMutability": "view",
      "type": "function"
    },
    {
      "inputs": [],
      "name": "renounceOwnership",
      "outputs": [],
      "stateMutability": "nonpayable",
      "type": "function"
    },
    {
      "inputs": [
        {
          "internalType": "address",
          "name": "newOwner",
          "type": "address"
        }
      ],
      "name": "transferOwnership",
      "outputs": [],
      "stateMutability": "nonpayable",
      "type": "function"
    },
    {
      "inputs": [
        {
          "internalType": "string",
          "name": "userId",
          "type": "string"
        },
        {
          "internalType": "string[]",
          "name": "loanIds",
          "type": "string[]"
        },
        {
          "internalType": "uint256",
          "name": "totalPrincipal",
          "type": "uint256"
        }
      ],
      "name": "updatePortfolioCertificate",
      "outputs": [
        {
          "internalType": "bool",
          "name": "",
          "type": "bool"
        }
      ],
      "stateMutability": "nonpayable",
      "type": "function"
    },
    {
      "inputs": [
        {
          "internalType": "address",
          "name": "newImplementation",
          "type": "address"
        },
        {
          "internalType": "bytes",
          "name": "data",
          "type": "bytes"
        }
      ],
      "name": "upgradeToAndCall",
      "outputs": [],
      "stateMutability": "payable",
      "type": "function"
    },
    {
      "inputs": [],
      "name": "version",
      "outputs": [
        {
          "internalType": "string",
          "name": "",
          "type": "string"
        }
      ],
      "stateMutability": "pure",
      "type": "function"
    }
  ],
  "bytecode": "0x60a080604052346100cc57306080527ff0c57e16840df040f15088dc2f81fe391c3923bec73e23a9662efc9c229c6a009081549060ff8260401c166100bd57506001600160401b036002600160401b031982821601610078575b604051611d7790816100d282396080518181816108d101526109780152f35b6001600160401b031990911681179091556040519081527fc7f505b2f371ae2175ee4913f4499e1f2633a7b5936321eed1cdaeb6115181d290602090a1388080610059565b63f92ee8a960e01b8152600490fd5b600080fdfe6080604052600436101561001257600080fd5b60e060003560e01c90816313fcfe80146112e6575080631fd83796146112855780633d583c2c14610dd65780634019341514610c9757806348244c8714610b335780634f1ef2861461092957806352d1902d146108be57806354fd4d5014610878578063715018a6146108205780638ab12f2b146107a45780638da5cb5b1461076e578063ad3cb1cc14610728578063afea16a914610563578063c4d66de814610447578063d9fb2809146101005763f2fde38b146100d057600080fd5b346100fb5760203660031901126100fb576100f96100ec611774565b6100f4611c0e565b611bac565b005b600080fd5b346100fb5760603660031901126100fb576001600160401b036004358181116100fb57610131903690600401611756565b60249081359283116100fb5761014d60ff9336906004016117a1565b906044359261015a611c0e565b610166825115156119a0565b610172835115156119de565b6101b560405183516101a4602098838a8095818a019561019381838961154e565b810160028152030190205416611b63565b60405180938192875192839161154e565b810160008152030190209333946040516101ce816116c6565b602a8152878101604036823781511561043257603080915381519760019889101561041d57607860218401536029905b89821161038b575050506102159060038301611a3e565b845160048201600160401b82116103765780548282558083106102ff575b50600090815288812088888b015b8b8585106102e45750505050505084516005820155816006820155426008820155600981018054938785018095116102d057506102b68493927fd185641b72b69ff1658c12211348a980a24790c4171c0732f949de9db4f13614956102c59355600260018060a01b0391015416965195611b43565b94604051938493429285611820565b0390a3604051908152f35b634e487b7160e01b60009081526011600452fd5b816102f184935186611a3e565b019201920191908990610241565b8160005288838b60002092830192015b82811061031d575050610233565b61032781546118ad565b80610336575b5001899061030f565b601f908d82821160011461035257505050600081555b8c61032d565b60009261036d918585528420920160051c8201858301611a27565b8183555561034c565b84634e487b7160e01b60005260416004526000fd5b600f8116600a8110156103fb5783018084116103e6575b60f81b6001600160f81b03191660001a6103bc8386611c47565b5360041c9080156103d15760001901906101fe565b86634e487b7160e01b60005260116004526000fd5b87634e487b7160e01b60005260116004526000fd5b6057908101809111156103a25787634e487b7160e01b60005260116004526000fd5b85634e487b7160e01b60005260326004526000fd5b84634e487b7160e01b60005260326004526000fd5b346100fb5760203660031901126100fb57610460611774565b600080516020611d4b83398151915280549091604082901c60ff161591906001600160401b0382168015908161055b575b6001149081610551575b159081610548575b50610536576001600160401b0319821660011784556104d3918361051b575b506104cb611c58565b6100f4611c58565b6104db611c58565b6104e157005b805460ff60401b19169055604051600181527fc7f505b2f371ae2175ee4913f4499e1f2633a7b5936321eed1cdaeb6115181d290602090a1005b6001600160481b0319166001600160401b01178455846104c2565b60405163f92ee8a960e01b8152600490fd5b905015856104a3565b303b15915061049b565b849150610491565b346100fb576020806003193601126100fb5761057d611774565b9061058661183c565b5060018060a01b0380921660005260018082526105a660406000206118fb565b8051156106e357826105e091604051906105cf60ff82519385818186019661019381838a61154e565b60405193849283925192839161154e565b8101600081520301902090604051936105f88561168f565b610601836118fb565b855261060f600184016118fb565b84860152600283015416604085015261062a600383016118fb565b60608501526004820190815461063f8161178a565b9261064d60405194856116e1565b8184526000908152858120868086015b8484106106c65760808a01879052600588015460a08b0152600688015460c08b0152600788015460e08b015260088801546101008b015260098801546101208b0152600a88015460ff1615156101408b0152604051828152806106c28185018d611596565b0390f35b859182916106d3856118fb565b815201920192019190879061065d565b60405162461bcd60e51b815260048101849052601f60248201527f4e6f20636572746966696361746520666f7220746869732061646472657373006044820152606490fd5b346100fb5760003660031901126100fb576106c2604051610748816116ab565b60058152640352e302e360dc1b6020820152604051918291602083526020830190611571565b346100fb5760003660031901126100fb57600080516020611ceb833981519152546040516001600160a01b039091168152602090f35b346100fb576020806003193601126100fb576004356001600160401b0381116100fb5760036107fb836107de61080b943690600401611756565b604051906105cf60ff82519385818186019661019381838a61154e565b81016000815203019020016118fb565b906106c2604051928284938452830190611571565b346100fb5760003660031901126100fb57610839611c0e565b600080516020611ceb83398151915280546001600160a01b031981169091556000906001600160a01b0316600080516020611d2b8339815191528280a3005b346100fb5760003660031901126100fb576106c2604051610898816116ab565b60058152640312e302e360dc1b6020820152604051918291602083526020830190611571565b346100fb5760003660031901126100fb577f00000000000000000000000000000000000000000000000000000000000000006001600160a01b03163003610917576020604051600080516020611d0b8339815191528152f35b60405163703e46dd60e11b8152600490fd5b60403660031901126100fb5761093d611774565b6024356001600160401b0381116100fb57366023820112156100fb5761096d90369060248160040135910161171f565b906001600160a01b037f00000000000000000000000000000000000000000000000000000000000000008116308114908115610b17575b50610917576109b1611c0e565b6040516352d1902d60e01b8152908216916020918281600481875afa60009181610ae8575b506109f457604051634c9c8ce360e01b815260048101859052602490fd5b928493600080516020611d0b83398151915290818103610ad05750823b15610ab75780546001600160a01b03191682179055604051907fbc7cd75a20ee27fd9adebab32041f755214dbc6bffa90cc0225b39da2e5c2d3b600080a2835115610a9d575060008084846100f996519101845af4903d15610a94573d610a7781611704565b90610a8560405192836116e1565b8152600081943d92013e611c87565b60609250611c87565b9250505034610aa857005b63b398979f60e01b8152600490fd5b604051634c9c8ce360e01b815260048101839052602490fd5b60249060405190632a87526960e21b82526004820152fd5b9091508381813d8311610b10575b610b0081836116e1565b810103126100fb575190866109d6565b503d610af6565b905081600080516020611d0b83398151915254161415846109a4565b346100fb576020806003193601126100fb576004356001600160401b0381116100fb5781610b68610b8e923690600401611756565b610b7061183c565b50604051906105cf60ff82519385818186019661019381838a61154e565b810160008152030190209060405191610ba68361168f565b610baf816118fb565b83526001610bbf600183016118fb565b8484015260028201546001600160a01b03166040850152610be2600383016118fb565b606085015260048201908154610bf78161178a565b92610c0560405194856116e1565b8184526000908152858120868086015b848410610c7a5760808a01879052600588015460a08b0152600688015460c08b0152600788015460e08b015260088801546101008b015260098801546101208b0152600a88015460ff1615156101408b0152604051828152806106c28185018d611596565b85918291610c87856118fb565b8152019201920191908790610c15565b346100fb576020806003193601126100fb576004356001600160401b0381116100fb57816107de610ccc923690600401611756565b810160008152030190209060405190610ce48261168f565b610ced836118fb565b82526001610cfd600185016118fb565b8383015260028401546001600160a01b03166040840152610d20600385016118fb565b606084015260048401805490610d358261178a565b93610d4360405195866116e1565b82855260009182528082208186015b848410610dbb5788888860808201526106c26005830154918260a08201526006840154938460c0830152600781015460e08301526008810154918261010082015261014060ff600a60098501549485610120860152015416151591015260405194859485611820565b85838192610dc8856118fb565b815201920193019290610d52565b346100fb5760803660031901126100fb576001600160401b036004358181116100fb57610e07903690600401611756565b90602435906001600160a01b03821682036100fb576044359081116100fb57610e349036906004016117a1565b610e3c611c0e565b610e48835115156119a0565b6001600160a01b0382161561124757610e63815115156119de565b60ff6040516020818651610e7a8183858b0161154e565b8101600281520301902054166112055760405164636572742d60d81b6020820152610ec36025828651610eb38184840160208b0161154e565b81010360058101845201826116e1565b610eec6040516020818751610edb8183858c0161154e565b810160008152030190209182611a3e565b610ef98460018301611a3e565b6002810180546001600160a01b0319166001600160a01b03851617905560405133610f23826116c6565b602a8252602082019060403683378251156111ef5760308092538251600110156111ef57607860218401536029905b6001821161117057505050610f6a9060038301611a3e565b8151600160401b81116110c45760048201548160048401558082106110f7575b50602083016004830160005260206000206000915b8383106110da5750505050600a90825160058201556064356006820155426007820155426008820155600160098201550160ff199060018282541617905560016040516020818751610ff48183858c0161154e565b810160028152030190209182541617905560018060a01b0382166000526001602052611024836040600020611a3e565b600354600160401b8110156110c4578060016110439201600355611892565b9190916110ae5761108260609161107b867fe7b836a5dd7679319ccf7fdf9d8aa87a0ecfec428483e45c406d19cc195b3b3595611a3e565b5194611b43565b60408051958652606435602087015242908601526001600160a01b0390931693a3602060405160018152f35b634e487b7160e01b600052600060045260246000fd5b634e487b7160e01b600052604160045260246000fd5b60016020826110eb83945186611a3e565b01920192019190610f9f565b600483016000526020600020908282015b8183018110611118575050610f8a565b80611125600192546118ad565b80611132575b5001611108565b601f90818111841461114b575050600081555b8961112b565b61116760009284845260208420920160051c8201858301611a27565b81835555611145565b600f8116600a8110156111cc5783018084116111b6575b60f81b6001600160f81b03191660001a6111a18386611c47565b5360041c9080156111b6576000190190610f52565b634e487b7160e01b600052601160045260246000fd5b60579081018091111561118757634e487b7160e01b600052601160045260246000fd5b634e487b7160e01b600052603260045260246000fd5b60405162461bcd60e51b815260206004820152601a602482015279436572746966696361746520616c72656164792065786973747360301b6044820152606490fd5b60405162461bcd60e51b815260206004820152601660248201527515985b1a59081859191c995cdcc81c995c5d5a5c995960521b6044820152606490fd5b346100fb5760203660031901126100fb576004356001600160401b0381116100fb5760ff6112d060206112bd81943690600401611756565b816040519382858094519384920161154e565b8101600281520301902054166040519015158152f35b346100fb5760003660031901126100fb57600380546113048161178a565b9161131260405193846116e1565b81835261131e8261178a565b60209490601f19018560005b8281106115385750505060005b83811061139c57604080518781528651818901819052600092600582901b8301810191898b01918b9085015b8287106113705785850386f35b90919293828061138c600193603f198a82030186528851611596565b9601920196019592919092611363565b6113a581611892565b50604051878160008454946113b9866118ad565b90600196878116908160001461152157506001146114e8575b50506000815203019020604051916113e98361168f565b6113f2826118fb565b83526113ff8183016118fb565b838a015260028201546001600160a01b031660408401526114218683016118fb565b6060840152600482019081546114368161178a565b9261144460405194856116e1565b81845260009081528b8120908c8086015b8483106114cb57505050505050600a839260ff926080600197960152600581015460a0850152600681015460c08501526007810154878501526008810154610100850152600981015461012085015201541615156101408201526114b982886118e7565b526114c481876118e7565b5001611337565b859182916114d8866118fb565b8152019301910190918d90611455565b90915060005282600020856000915b83831061150a5750505081018b806113d2565b8054878401528d95879550909201918791016114f7565b60ff19168552505080151502820190508b806113d2565b61154061183c565b82828901015201869061132a565b60005b8381106115615750506000910152565b8181015183820152602001611551565b9060209161158a8151809281855285808601910161154e565b601f01601f1916010190565b906115ab610160835190808452830190611571565b916115e96115c56020948584015185820387870152611571565b60018060a01b03604084015116604085015260608301518482036060860152611571565b60808201519383820360808501528451908183528083019281808460051b8301019701936000915b8483106116615750505050505060a081015160a083015260c081015160c083015260e081015160e08301526101008082015190830152610120808201519083015261014080910151151591015290565b909192939497848061167f600193601f198682030187528c51611571565b9a01930193019194939290611611565b61016081019081106001600160401b038211176110c457604052565b604081019081106001600160401b038211176110c457604052565b606081019081106001600160401b038211176110c457604052565b601f909101601f19168101906001600160401b038211908210176110c457604052565b6001600160401b0381116110c457601f01601f191660200190565b92919261172b82611704565b9161173960405193846116e1565b8294818452818301116100fb578281602093846000960137010152565b9080601f830112156100fb578160206117719335910161171f565b90565b600435906001600160a01b03821682036100fb57565b6001600160401b0381116110c45760051b60200190565b81601f820112156100fb578035916020916117bb8461178a565b936117c960405195866116e1565b808552838086019160051b830101928084116100fb57848301915b8483106117f45750505050505090565b82356001600160401b0381116100fb57869161181584848094890101611756565b8152019201916117e4565b9094939260609260808301968352602083015260408201520152565b604051906118498261168f565b816060815260606020820152610140600091826040820152606080820152606060808201528260a08201528260c08201528260e082015282610100820152826101208201520152565b6003548110156111ef57600360005260206000200190600090565b90600182811c921680156118dd575b60208310146118c757565b634e487b7160e01b600052602260045260246000fd5b91607f16916118bc565b80518210156111ef5760209160051b010190565b9060405191826000825461190e816118ad565b9081845260209460019160018116908160001461197e575060011461193f575b50505061193d925003836116e1565b565b600090815285812095935091905b81831061196657505061193d935082010138808061192e565b8554888401850152948501948794509183019161194d565b9250505061193d94925060ff191682840152151560051b82010138808061192e565b156119a757565b60405162461bcd60e51b815260206004820152600f60248201526e155cd95c9259081c995c5d5a5c9959608a1b6044820152606490fd5b156119e557565b60405162461bcd60e51b815260206004820152601a602482015279105d081b19585cdd081bdb99481b1bd85b881c995c5d5a5c995960321b6044820152606490fd5b818110611a32575050565b60008155600101611a27565b81519192916001600160401b0381116110c457611a5b82546118ad565b601f8111611b06575b50602080601f8311600114611aa1575081929394600092611a96575b50508160011b916000199060031b1c1916179055565b015190503880611a80565b90601f19831695846000526020600020926000905b888210611aee57505083600195969710611ad5575b505050811b019055565b015160001960f88460031b161c19169055388080611acb565b80600185968294968601518155019501930190611ab6565b611b3390836000526020600020601f840160051c81019160208510611b39575b601f0160051c0190611a27565b38611a64565b9091508190611b26565b611b5b9060206040519282848094519384920161154e565b810103902090565b15611b6a57565b60405162461bcd60e51b815260206004820152601a60248201527910d95c9d1a599a58d85d1948191bd95cc81b9bdd08195e1a5cdd60321b6044820152606490fd5b6001600160a01b03908116908115611bf557600080516020611ceb83398151915280546001600160a01b03198116841790915516600080516020611d2b833981519152600080a3565b604051631e4fbdf760e01b815260006004820152602490fd5b600080516020611ceb833981519152546001600160a01b03163303611c2f57565b60405163118cdaa760e01b8152336004820152602490fd5b9081518110156111ef570160200190565b60ff600080516020611d4b8339815191525460401c1615611c7557565b604051631afcd79f60e31b8152600490fd5b90611cae5750805115611c9c57602081519101fd5b60405163d6bda27560e01b8152600490fd5b81511580611ce1575b611cbf575090565b604051639996b31560e01b81526001600160a01b039091166004820152602490fd5b50803b15611cb756fe9016d09d72d40fdae2fd8ceac6b6234c7706214fd39c1cd1e609a0528c199300360894a13ba1a3210667c828492db98dca3e2076cc3735a920a3ca505d382bbc8be0079c531659141344cd1fd0a4f28419497f9722a3daafe3b4186f6b6457e0f0c57e16840df040f15088dc2f81fe391c3923bec73e23a9662efc9c229c6a00a164736f6c6343000818000a",
  "linkReferences": {},
  "deployedLinkReferences": {}
}