{
  "_format": "hh-sol-artifact-1",
  "contractName": "Portfolio",
  "sourceName": "src/Portfolio.sol",
  "abi": [
    {
      "inputs": [
        {
          "internalType": "address",
          "name": "initialOwner",
          "type": "address"
        }
      ],
      "stateMutability": "nonpayable",
      "type": "constructor"
    },
    {
      "inputs": [
        {
          "internalType": "address",
          "name": "owner",
          "type": "address"
        }
      ],
      "name": "OwnableInvalidOwner",
      "type": "error"
    },
    {
      "inputs": [
        {
          "internalType": "address",
          "name": "account",
          "type": "address"
        }
      ],
      "name": "OwnableUnauthorizedAccount",
      "type": "error"
    },
    {
      "anonymous": false,
      "inputs": [
        {
          "indexed": true,
          "internalType": "string",
          "name": "userId",
          "type": "string"
        },
        {
          "indexed": true,
          "internalType": "address",
          "name": "userAddress",
          "type": "address"
        },
        {
          "indexed": false,
          "internalType": "uint256",
          "name": "loansCount",
          "type": "uint256"
        },
        {
          "indexed": false,
          "internalType": "uint256",
          "name": "totalPrincipal",
          "type": "uint256"
        },
        {
          "indexed": false,
          "internalType": "uint256",
          "name": "timestamp",
          "type": "uint256"
        }
      ],
      "name": "CertificateCreated",
      "type": "event"
    },
    {
      "anonymous": false,
      "inputs": [
        {
          "indexed": true,
          "internalType": "string",
          "name": "userId",
          "type": "string"
        },
        {
          "indexed": true,
          "internalType": "address",
          "name": "userAddress",
          "type": "address"
        },
        {
          "indexed": false,
          "internalType": "uint256",
          "name": "loansCount",
          "type": "uint256"
        },
        {
          "indexed": false,
          "internalType": "uint256",
          "name": "totalPrincipal",
          "type": "uint256"
        },
        {
          "indexed": false,
          "internalType": "uint256",
          "name": "version",
          "type": "uint256"
        },
        {
          "indexed": false,
          "internalType": "uint256",
          "name": "timestamp",
          "type": "uint256"
        }
      ],
      "name": "CertificateUpdated",
      "type": "event"
    },
    {
      "anonymous": false,
      "inputs": [
        {
          "indexed": true,
          "internalType": "address",
          "name": "previousOwner",
          "type": "address"
        },
        {
          "indexed": true,
          "internalType": "address",
          "name": "newOwner",
          "type": "address"
        }
      ],
      "name": "OwnershipTransferred",
      "type": "event"
    },
    {
      "inputs": [
        {
          "internalType": "string",
          "name": "userId",
          "type": "string"
        },
        {
          "internalType": "address",
          "name": "userAddress",
          "type": "address"
        },
        {
          "internalType": "string[]",
          "name": "loanIds",
          "type": "string[]"
        },
        {
          "internalType": "uint256",
          "name": "totalPrincipal",
          "type": "uint256"
        }
      ],
      "name": "createPortfolioCertificate",
      "outputs": [
        {
          "internalType": "bool",
          "name": "",
          "type": "bool"
        }
      ],
      "stateMutability": "nonpayable",
      "type": "function"
    },
    {
      "inputs": [],
      "name": "getAllCertificates",
      "outputs": [
        {
          "components": [
            {
              "internalType": "string",
              "name": "id",
              "type": "string"
            },
            {
              "internalType": "string",
              "name": "userId",
              "type": "string"
            },
            {
              "internalType": "address",
              "name": "userAddress",
              "type": "address"
            },
            {
              "internalType": "string",
              "name": "txId",
              "type": "string"
            },
            {
              "internalType": "string[]",
              "name": "loanIds",
              "type": "string[]"
            },
            {
              "internalType": "uint256",
              "name": "loansCount",
              "type": "uint256"
            },
            {
              "internalType": "uint256",
              "name": "totalPrincipal",
              "type": "uint256"
            },
            {
              "internalType": "uint256",
              "name": "createdAt",
              "type": "uint256"
            },
            {
              "internalType": "uint256",
              "name": "lastUpdatedAt",
              "type": "uint256"
            },
            {
              "internalType": "uint256",
              "name": "version",
              "type": "uint256"
            },
            {
              "internalType": "bool",
              "name": "exists",
              "type": "bool"
            }
          ],
          "internalType": "struct Portfolio.PortfolioCertificate[]",
          "name": "",
          "type": "tuple[]"
        }
      ],
      "stateMutability": "view",
      "type": "function"
    },
    {
      "inputs": [
        {
          "internalType": "string",
          "name": "userId",
          "type": "string"
        }
      ],
      "name": "getCertificateStats",
      "outputs": [
        {
          "internalType": "uint256",
          "name": "loansCount",
          "type": "uint256"
        },
        {
          "internalType": "uint256",
          "name": "totalPrincipal",
          "type": "uint256"
        },
        {
          "internalType": "uint256",
          "name": "version",
          "type": "uint256"
        },
        {
          "internalType": "uint256",
          "name": "lastUpdated",
          "type": "uint256"
        }
      ],
      "stateMutability": "view",
      "type": "function"
    },
    {
      "inputs": [
        {
          "internalType": "string",
          "name": "userId",
          "type": "string"
        }
      ],
      "name": "getPortfolioCertificate",
      "outputs": [
        {
          "components": [
            {
              "internalType": "string",
              "name": "id",
              "type": "string"
            },
            {
              "internalType": "string",
              "name": "userId",
              "type": "string"
            },
            {
              "internalType": "address",
              "name": "userAddress",
              "type": "address"
            },
            {
              "internalType": "string",
              "name": "txId",
              "type": "string"
            },
            {
              "internalType": "string[]",
              "name": "loanIds",
              "type": "string[]"
            },
            {
              "internalType": "uint256",
              "name": "loansCount",
              "type": "uint256"
            },
            {
              "internalType": "uint256",
              "name": "totalPrincipal",
              "type": "uint256"
            },
            {
              "internalType": "uint256",
              "name": "createdAt",
              "type": "uint256"
            },
            {
              "internalType": "uint256",
              "name": "lastUpdatedAt",
              "type": "uint256"
            },
            {
              "internalType": "uint256",
              "name": "version",
              "type": "uint256"
            },
            {
              "internalType": "bool",
              "name": "exists",
              "type": "bool"
            }
          ],
          "internalType": "struct Portfolio.PortfolioCertificate",
          "name": "",
          "type": "tuple"
        }
      ],
      "stateMutability": "view",
      "type": "function"
    },
    {
      "inputs": [
        {
          "internalType": "address",
          "name": "userAddress",
          "type": "address"
        }
      ],
      "name": "getPortfolioCertificateByAddress",
      "outputs": [
        {
          "components": [
            {
              "internalType": "string",
              "name": "id",
              "type": "string"
            },
            {
              "internalType": "string",
              "name": "userId",
              "type": "string"
            },
            {
              "internalType": "address",
              "name": "userAddress",
              "type": "address"
            },
            {
              "internalType": "string",
              "name": "txId",
              "type": "string"
            },
            {
              "internalType": "string[]",
              "name": "loanIds",
              "type": "string[]"
            },
            {
              "internalType": "uint256",
              "name": "loansCount",
              "type": "uint256"
            },
            {
              "internalType": "uint256",
              "name": "totalPrincipal",
              "type": "uint256"
            },
            {
              "internalType": "uint256",
              "name": "createdAt",
              "type": "uint256"
            },
            {
              "internalType": "uint256",
              "name": "lastUpdatedAt",
              "type": "uint256"
            },
            {
              "internalType": "uint256",
              "name": "version",
              "type": "uint256"
            },
            {
              "internalType": "bool",
              "name": "exists",
              "type": "bool"
            }
          ],
          "internalType": "struct Portfolio.PortfolioCertificate",
          "name": "",
          "type": "tuple"
        }
      ],
      "stateMutability": "view",
      "type": "function"
    },
    {
      "inputs": [
        {
          "internalType": "string",
          "name": "userId",
          "type": "string"
        }
      ],
      "name": "getPortfolioCertificateTxId",
      "outputs": [
        {
          "internalType": "string",
          "name": "",
          "type": "string"
        }
      ],
      "stateMutability": "view",
      "type": "function"
    },
    {
      "inputs": [],
      "name": "owner",
      "outputs": [
        {
          "internalType": "address",
          "name": "",
          "type": "address"
        }
      ],
      "stateMutability": "view",
      "type": "function"
    },
    {
      "inputs": [
        {
          "internalType": "string",
          "name": "userId",
          "type": "string"
        }
      ],
      "name": "portfolioCertificateExists",
      "outputs": [
        {
          "internalType": "bool",
          "name": "",
          "type": "bool"
        }
      ],
      "stateMutability": "view",
      "type": "function"
    },
    {
      "inputs": [],
      "name": "renounceOwnership",
      "outputs": [],
      "stateMutability": "nonpayable",
      "type": "function"
    },
    {
      "inputs": [
        {
          "internalType": "address",
          "name": "newOwner",
          "type": "address"
        }
      ],
      "name": "transferOwnership",
      "outputs": [],
      "stateMutability": "nonpayable",
      "type": "function"
    },
    {
      "inputs": [
        {
          "internalType": "string",
          "name": "userId",
          "type": "string"
        },
        {
          "internalType": "string[]",
          "name": "loanIds",
          "type": "string[]"
        },
        {
          "internalType": "uint256",
          "name": "totalPrincipal",
          "type": "uint256"
        }
      ],
      "name": "updatePortfolioCertificate",
      "outputs": [
        {
          "internalType": "bool",
          "name": "",
          "type": "bool"
        }
      ],
      "stateMutability": "nonpayable",
      "type": "function"
    }
  ],
  "bytecode": "0x6080346100bb57601f6117fb38819003918201601f19168301916001600160401b038311848410176100c0578084926020946040528339810103126100bb57516001600160a01b0390818116908190036100bb5780156100a257600080546001600160a01b03198116831782556040519316907f8be0079c531659141344cd1fd0a4f28419497f9722a3daafe3b4186f6b6457e09080a361172490816100d78239f35b604051631e4fbdf760e01b815260006004820152602490fd5b600080fd5b634e487b7160e01b600052604160045260246000fdfe6080604052600436101561001257600080fd5b60e060003560e01c90816313fcfe8014610d8a575080631fd8379614610d295780633d583c2c1461096a57806340193415146107e557806348244c871461066f578063715018a6146106165780638ab12f2b146105795780638da5cb5b14610550578063afea16a914610387578063d9fb2809146101245763f2fde38b1461009957600080fd5b3461011f57602036600319011261011f576100b26111c9565b6100ba611601565b6001600160a01b03908116908115610106576000548260018060a01b0319821617600055167f8be0079c531659141344cd1fd0a4f28419497f9722a3daafe3b4186f6b6457e0600080a3005b604051631e4fbdf760e01b815260006004820152602490fd5b600080fd5b3461011f57606036600319011261011f576001600160401b0360043581811161011f57610155903690600401611173565b9060243590811161011f576101716101d59136906004016111f6565b6044359261017d611601565b610189815115156113ef565b6101958251151561142d565b6040519381516101c560ff6020978881818801956101b4818389610ff5565b8101600381520301902054166115b5565b6040519485918451928391610ff5565b8401938581600196878152030190206101f96101f03361162d565b60038301611490565b835160048201600160401b82116103715780548282558083106102fa575b50600090815287812087878a015b8a8585106102df575050505050508351600582015581600682015542600882015560098101918254918683018093116102c9576102986102be91847fd185641b72b69ff1658c12211348a980a24790c4171c0732f949de9db4f136149655600260018060a01b0391015416965195611595565b946040519384934292859094939260609260808301968352602083015260408201520152565b0390a3604051908152f35b634e487b7160e01b600052601160045260246000fd5b816102ec84935186611490565b019201920191908890610225565b8160005287838a60002092830192015b828110610318575050610217565b61032281546112fc565b80610331575b5001889061030a565b601f908c82821160011461034d57505050600081555b8b610328565b600092610368918585528420920160051c8201858301611479565b81835555610347565b634e487b7160e01b600052604160045260246000fd5b3461011f5760208060031936011261011f576103a16111c9565b906103aa611275565b506001600160a01b03918216600090815260028252604090206103cc9061134a565b80511561050b57604051906103f060ff8251938581818601966101b481838a610ff5565b61040260405192839251928391610ff5565b81019082816001936001815203019020906040519361042085611136565b6104298361134a565b85526104376001840161134a565b8486015260028301541660408501526104526003830161134a565b606085015260048201908154610467816111df565b926104756040519485611152565b8184526000908152858120868086015b8484106104ee5760808a01879052600588015460a08b0152600688015460c08b0152600788015460e08b015260088801546101008b015260098801546101208b0152600a88015460ff1615156101408b0152604051828152806104ea8185018d61103d565b0390f35b859182916104fb8561134a565b8152019201920191908790610485565b60405162461bcd60e51b815260048101839052601f60248201527f4e6f20636572746966696361746520666f7220746869732061646472657373006044820152606490fd5b3461011f57600036600319011261011f576000546040516001600160a01b039091168152602090f35b3461011f5760208060031936011261011f576004356001600160401b03811161011f5760036105f1836105b3610601943690600401611173565b604051906105e060ff8251938581818601966105d081838a610ff5565b81018a81520301902054166115b5565b604051938492839251928391610ff5565b810160018152030190200161134a565b906104ea604051928284938452830190611018565b3461011f57600036600319011261011f5761062f611601565b600080546001600160a01b0319811682556001600160a01b03167f8be0079c531659141344cd1fd0a4f28419497f9722a3daafe3b4186f6b6457e08280a3005b3461011f5760208060031936011261011f576004356001600160401b03811161011f576106a0903690600401611173565b906106a9611275565b50604051916106c760ff8251948481818601976101b481838b610ff5565b6106d960405193849251928391610ff5565b82019181816001946001815203019020604051926106f684611136565b6106ff8261134a565b845261070d6001830161134a565b8484015260028201546001600160a01b031660408501526107306003830161134a565b606085015260048201908154610745816111df565b926107536040519485611152565b8184526000908152858120868086015b8484106107c85760808a01879052600588015460a08b0152600688015460c08b0152600788015460e08b015260088801546101008b015260098801546101208b0152600a88015460ff1615156101408b0152604051828152806104ea8185018d61103d565b859182916107d58561134a565b8152019201920191908790610763565b3461011f5760208060031936011261011f576004356001600160401b03811161011f57610816903690600401611173565b6040519061083360ff8251938581818601966101b481838a610ff5565b61084560405192839251928391610ff5565b81019082816001936001815203019020916040519161086383611136565b61086c8461134a565b835261087a6001850161134a565b8383015260028401546001600160a01b0316604084015261089d6003850161134a565b6060840152600484018054906108b2826111df565b936108c06040519586611152565b82855260009182528082208186015b84841061094f5788888860808201526104ea6005830154918260a08201526006840154938460c0830152600781015460e08301526008810154918261010082015261014060ff600a600985015494856101208601520154161515910152604051948594859094939260609260808301968352602083015260408201520152565b8583819261095c8561134a565b8152019201930192906108cf565b3461011f57608036600319011261011f576001600160401b0360043581811161011f5761099b903690600401611173565b90602435906001600160a01b038216820361011f5760443590811161011f576109c89036906004016111f6565b6109d0611601565b6109dc835115156113ef565b6001600160a01b03821615610ceb576109f78151151561142d565b60ff6040516020818651610a0e8183858b01610ff5565b810160038152030190205416610ca65760405164636572742d60d81b6020820152610a576025828651610a478184840160208b01610ff5565b8101036005810184520182611152565b610a806040516020818751610a6f8183858c01610ff5565b810160018152030190209182611490565b610a8d8460018301611490565b6002810180546001600160a01b0319166001600160a01b038516179055610ab66101f03361162d565b8151600160401b8111610371576004820154816004840155808210610c2d575b50602083016004830160005260206000206000915b838310610c105750505050600a90825160058201556064356006820155426007820155426008820155600160098201550160ff199060018282541617905560016040516020818751610b408183858c01610ff5565b810160038152030190209182541617905560018060a01b0382166000526002602052610b70836040600020611490565b600454600160401b81101561037157806001610b8f92016004556112cb565b919091610bfa57610bce606091610bc7867fe7b836a5dd7679319ccf7fdf9d8aa87a0ecfec428483e45c406d19cc195b3b3595611490565b5194611595565b60408051958652606435602087015242908601526001600160a01b0390931693a3602060405160018152f35b634e487b7160e01b600052600060045260246000fd5b6001602082610c2183945186611490565b01920192019190610aeb565b600483016000526020600020908282015b8183018110610c4e575050610ad6565b80610c5b600192546112fc565b80610c68575b5001610c3e565b601f908181118414610c81575050600081555b89610c61565b610c9d60009284845260208420920160051c8201858301611479565b81835555610c7b565b60405162461bcd60e51b815260206004820152601a60248201527f436572746966696361746520616c7265616479206578697374730000000000006044820152606490fd5b60405162461bcd60e51b815260206004820152601660248201527515985b1a59081859191c995cdcc81c995c5d5a5c995960521b6044820152606490fd5b3461011f57602036600319011261011f576004356001600160401b03811161011f5760ff610d746020610d6181943690600401611173565b8160405193828580945193849201610ff5565b8101600381520301902054166040519015158152f35b3461011f57600036600319011261011f57600454610da7816111df565b90610db56040519283611152565b808252610dc1816111df565b60209390601f19018460005b828110610fdf5750505060005b828110610e43575050506040519082820192808352815180945260408301938160408260051b8601019301916000955b828710610e175785850386f35b909192938280610e33600193603f198a8203018652885161103d565b9601920196019592919092610e0a565b610e4c816112cb565b5060405186816000845494610e60866112fc565b906001968781169081600014610fc85750600114610f8f575b50508481520301902060405191610e8f83611136565b610e988261134a565b8352610ea581830161134a565b8389015260028201546001600160a01b03166040840152610ec86003830161134a565b606084015260048201908154610edd816111df565b92610eeb6040519485611152565b81845260009081528a8120908b8086015b848310610f7257505050505050600a839260ff926080600197960152600581015460a0850152600681015460c0850152600781015487850152600881015461010085015260098101546101208501520154161515610140820152610f608287611336565b52610f6b8186611336565b5001610dda565b85918291610f7f8661134a565b8152019301910190918c90610efc565b90915060005282600020856000915b838310610fb15750505081018a80610e79565b8054878401528c9587955090920191879101610f9e565b60ff19168552505080151502820190508a80610e79565b610fe7611275565b828288010152018590610dcd565b60005b8381106110085750506000910152565b8181015183820152602001610ff8565b9060209161103181518092818552858086019101610ff5565b601f01601f1916010190565b90611052610160835190808452830190611018565b9161109061106c6020948584015185820387870152611018565b60018060a01b03604084015116604085015260608301518482036060860152611018565b60808201519383820360808501528451908183528083019281808460051b8301019701936000915b8483106111085750505050505060a081015160a083015260c081015160c083015260e081015160e08301526101008082015190830152610120808201519083015261014080910151151591015290565b9091929394978480611126600193601f198682030187528c51611018565b9a019301930191949392906110b8565b61016081019081106001600160401b0382111761037157604052565b90601f801991011681019081106001600160401b0382111761037157604052565b81601f8201121561011f578035906001600160401b03821161037157604051926111a7601f8401601f191660200185611152565b8284526020838301011161011f57816000926020809301838601378301015290565b600435906001600160a01b038216820361011f57565b6001600160401b0381116103715760051b60200190565b81601f8201121561011f57803591602091611210846111df565b9361121e6040519586611152565b808552838086019160051b8301019280841161011f57848301915b8483106112495750505050505090565b82356001600160401b03811161011f57869161126a84848094890101611173565b815201920191611239565b6040519061128282611136565b816060815260606020820152610140600091826040820152606080820152606060808201528260a08201528260c08201528260e082015282610100820152826101208201520152565b6004548110156112e657600460005260206000200190600090565b634e487b7160e01b600052603260045260246000fd5b90600182811c9216801561132c575b602083101461131657565b634e487b7160e01b600052602260045260246000fd5b91607f169161130b565b80518210156112e65760209160051b010190565b9060405191826000825461135d816112fc565b908184526020946001916001811690816000146113cd575060011461138e575b50505061138c92500383611152565b565b600090815285812095935091905b8183106113b557505061138c935082010138808061137d565b8554888401850152948501948794509183019161139c565b9250505061138c94925060ff191682840152151560051b82010138808061137d565b156113f657565b60405162461bcd60e51b815260206004820152600f60248201526e155cd95c9259081c995c5d5a5c9959608a1b6044820152606490fd5b1561143457565b60405162461bcd60e51b815260206004820152601a60248201527f4174206c65617374206f6e65206c6f616e2072657175697265640000000000006044820152606490fd5b818110611484575050565b60008155600101611479565b91909182516001600160401b038111610371576114ad82546112fc565b601f8111611558575b50602080601f83116001146114f35750819293946000926114e8575b50508160011b916000199060031b1c1916179055565b0151905038806114d2565b90601f19831695846000526020600020926000905b88821061154057505083600195969710611527575b505050811b019055565b015160001960f88460031b161c1916905538808061151d565b80600185968294968601518155019501930190611508565b61158590836000526020600020601f840160051c8101916020851061158b575b601f0160051c0190611479565b386114b6565b9091508190611578565b6115ad90602060405192828480945193849201610ff5565b810103902090565b156115bc57565b60405162461bcd60e51b815260206004820152601a60248201527f436572746966696361746520646f6573206e6f742065786973740000000000006044820152606490fd5b6000546001600160a01b0316330361161557565b60405163118cdaa760e01b8152336004820152602490fd5b60405190606082018281106001600160401b0382111761037157604052602a8252602090602083019160403684378351156112e6576030809353835192600193600110156112e657607860218601536029925b84841161168f57505050505090565b600f81166000600a8210156116f1575082018083116102c9575b86518510156112e65760f81b6001600160f81b03191660001a86850184015360041c9280156116dc576000190192611680565b60246000634e487b7160e01b81526011600452fd5b605791820180921161170357506116a9565b634e487b7160e01b81526011600452602490fdfea164736f6c6343000818000a",
  "linkReferences": {},
  "deployedLinkReferences": {}
}