{
  "_format": "hh-sol-artifact-1",
  "contractName": "ShareLoans",
  "sourceName": "src/ShareLoans.sol",
  "abi": [
    {
      "inputs": [
        {
          "internalType": "address",
          "name": "initialOwner",
          "type": "address"
        }
      ],
      "stateMutability": "nonpayable",
      "type": "constructor"
    },
    {
      "inputs": [
        {
          "internalType": "address",
          "name": "owner",
          "type": "address"
        }
      ],
      "name": "OwnableInvalidOwner",
      "type": "error"
    },
    {
      "inputs": [
        {
          "internalType": "address",
          "name": "account",
          "type": "address"
        }
      ],
      "name": "OwnableUnauthorizedAccount",
      "type": "error"
    },
    {
      "anonymous": false,
      "inputs": [
        {
          "indexed": true,
          "internalType": "string",
          "name": "key",
          "type": "string"
        },
        {
          "indexed": true,
          "internalType": "address",
          "name": "grantedTo",
          "type": "address"
        },
        {
          "indexed": false,
          "internalType": "string",
          "name": "grantedToUserId",
          "type": "string"
        },
        {
          "indexed": false,
          "internalType": "uint256",
          "name": "timestamp",
          "type": "uint256"
        }
      ],
      "name": "AccessGranted",
      "type": "event"
    },
    {
      "anonymous": false,
      "inputs": [
        {
          "indexed": true,
          "internalType": "string",
          "name": "key",
          "type": "string"
        },
        {
          "indexed": true,
          "internalType": "address",
          "name": "revokedFrom",
          "type": "address"
        },
        {
          "indexed": false,
          "internalType": "uint256",
          "name": "timestamp",
          "type": "uint256"
        }
      ],
      "name": "AccessRevoked",
      "type": "event"
    },
    {
      "anonymous": false,
      "inputs": [
        {
          "indexed": true,
          "internalType": "address",
          "name": "previousOwner",
          "type": "address"
        },
        {
          "indexed": true,
          "internalType": "address",
          "name": "newOwner",
          "type": "address"
        }
      ],
      "name": "OwnershipTransferred",
      "type": "event"
    },
    {
      "anonymous": false,
      "inputs": [
        {
          "indexed": true,
          "internalType": "string",
          "name": "key",
          "type": "string"
        },
        {
          "indexed": true,
          "internalType": "address",
          "name": "owner",
          "type": "address"
        },
        {
          "indexed": false,
          "internalType": "uint256",
          "name": "accountsLength",
          "type": "uint256"
        },
        {
          "indexed": false,
          "internalType": "uint256",
          "name": "timestamp",
          "type": "uint256"
        }
      ],
      "name": "ShareCreated",
      "type": "event"
    },
    {
      "anonymous": false,
      "inputs": [
        {
          "indexed": true,
          "internalType": "string",
          "name": "key",
          "type": "string"
        },
        {
          "indexed": true,
          "internalType": "address",
          "name": "owner",
          "type": "address"
        },
        {
          "indexed": false,
          "internalType": "uint256",
          "name": "timestamp",
          "type": "uint256"
        }
      ],
      "name": "ShareDisabled",
      "type": "event"
    },
    {
      "anonymous": false,
      "inputs": [
        {
          "indexed": true,
          "internalType": "string",
          "name": "key",
          "type": "string"
        },
        {
          "indexed": true,
          "internalType": "address",
          "name": "owner",
          "type": "address"
        },
        {
          "indexed": false,
          "internalType": "uint256",
          "name": "timestamp",
          "type": "uint256"
        }
      ],
      "name": "ShareEnabled",
      "type": "event"
    },
    {
      "anonymous": false,
      "inputs": [
        {
          "indexed": true,
          "internalType": "string",
          "name": "key",
          "type": "string"
        },
        {
          "indexed": true,
          "internalType": "address",
          "name": "owner",
          "type": "address"
        },
        {
          "indexed": false,
          "internalType": "uint256",
          "name": "sharedWithCount",
          "type": "uint256"
        },
        {
          "indexed": false,
          "internalType": "uint256",
          "name": "timestamp",
          "type": "uint256"
        }
      ],
      "name": "ShareUpdated",
      "type": "event"
    },
    {
      "inputs": [
        {
          "internalType": "string",
          "name": "key",
          "type": "string"
        },
        {
          "internalType": "address",
          "name": "userAddress",
          "type": "address"
        }
      ],
      "name": "checkUserAccess",
      "outputs": [
        {
          "internalType": "bool",
          "name": "hasAccessValue",
          "type": "bool"
        },
        {
          "internalType": "string",
          "name": "reason",
          "type": "string"
        }
      ],
      "stateMutability": "view",
      "type": "function"
    },
    {
      "inputs": [
        {
          "internalType": "string",
          "name": "key",
          "type": "string"
        },
        {
          "internalType": "string",
          "name": "ownerUserId",
          "type": "string"
        },
        {
          "internalType": "string[]",
          "name": "accounts",
          "type": "string[]"
        },
        {
          "internalType": "string",
          "name": "name",
          "type": "string"
        },
        {
          "internalType": "address[]",
          "name": "sharedWithAddresses",
          "type": "address[]"
        },
        {
          "internalType": "string[]",
          "name": "sharedWithUserIds",
          "type": "string[]"
        }
      ],
      "name": "createShareAsset",
      "outputs": [
        {
          "internalType": "bool",
          "name": "",
          "type": "bool"
        }
      ],
      "stateMutability": "nonpayable",
      "type": "function"
    },
    {
      "inputs": [
        {
          "internalType": "string",
          "name": "key",
          "type": "string"
        }
      ],
      "name": "disableShareAsset",
      "outputs": [
        {
          "internalType": "bool",
          "name": "",
          "type": "bool"
        }
      ],
      "stateMutability": "nonpayable",
      "type": "function"
    },
    {
      "inputs": [
        {
          "internalType": "string",
          "name": "key",
          "type": "string"
        }
      ],
      "name": "enableShareAsset",
      "outputs": [
        {
          "internalType": "bool",
          "name": "",
          "type": "bool"
        }
      ],
      "stateMutability": "nonpayable",
      "type": "function"
    },
    {
      "inputs": [],
      "name": "owner",
      "outputs": [
        {
          "internalType": "address",
          "name": "",
          "type": "address"
        }
      ],
      "stateMutability": "view",
      "type": "function"
    },
    {
      "inputs": [],
      "name": "queryAllShareAssets",
      "outputs": [
        {
          "components": [
            {
              "internalType": "string",
              "name": "key",
              "type": "string"
            },
            {
              "internalType": "address",
              "name": "ownerAddress",
              "type": "address"
            },
            {
              "internalType": "string",
              "name": "ownerUserId",
              "type": "string"
            },
            {
              "internalType": "string[]",
              "name": "accounts",
              "type": "string[]"
            },
            {
              "internalType": "string",
              "name": "name",
              "type": "string"
            },
            {
              "internalType": "address[]",
              "name": "sharedWith",
              "type": "address[]"
            },
            {
              "internalType": "string[]",
              "name": "sharedWithUserIds",
              "type": "string[]"
            },
            {
              "internalType": "bool",
              "name": "isActive",
              "type": "bool"
            },
            {
              "internalType": "uint256",
              "name": "createdAt",
              "type": "uint256"
            },
            {
              "internalType": "uint256",
              "name": "updatedAt",
              "type": "uint256"
            }
          ],
          "internalType": "struct ShareLoans.ShareAsset[]",
          "name": "",
          "type": "tuple[]"
        }
      ],
      "stateMutability": "view",
      "type": "function"
    },
    {
      "inputs": [
        {
          "internalType": "address",
          "name": "userAddress",
          "type": "address"
        }
      ],
      "name": "querySharedByUser",
      "outputs": [
        {
          "components": [
            {
              "internalType": "string",
              "name": "key",
              "type": "string"
            },
            {
              "internalType": "address",
              "name": "ownerAddress",
              "type": "address"
            },
            {
              "internalType": "string",
              "name": "ownerUserId",
              "type": "string"
            },
            {
              "internalType": "string[]",
              "name": "accounts",
              "type": "string[]"
            },
            {
              "internalType": "string",
              "name": "name",
              "type": "string"
            },
            {
              "internalType": "address[]",
              "name": "sharedWith",
              "type": "address[]"
            },
            {
              "internalType": "string[]",
              "name": "sharedWithUserIds",
              "type": "string[]"
            },
            {
              "internalType": "bool",
              "name": "isActive",
              "type": "bool"
            },
            {
              "internalType": "uint256",
              "name": "createdAt",
              "type": "uint256"
            },
            {
              "internalType": "uint256",
              "name": "updatedAt",
              "type": "uint256"
            }
          ],
          "internalType": "struct ShareLoans.ShareAsset[]",
          "name": "",
          "type": "tuple[]"
        }
      ],
      "stateMutability": "view",
      "type": "function"
    },
    {
      "inputs": [
        {
          "internalType": "address",
          "name": "userAddress",
          "type": "address"
        }
      ],
      "name": "querySharedWithMe",
      "outputs": [
        {
          "components": [
            {
              "internalType": "string",
              "name": "key",
              "type": "string"
            },
            {
              "internalType": "address",
              "name": "ownerAddress",
              "type": "address"
            },
            {
              "internalType": "string",
              "name": "ownerUserId",
              "type": "string"
            },
            {
              "internalType": "string[]",
              "name": "accounts",
              "type": "string[]"
            },
            {
              "internalType": "string",
              "name": "name",
              "type": "string"
            },
            {
              "internalType": "address[]",
              "name": "sharedWith",
              "type": "address[]"
            },
            {
              "internalType": "string[]",
              "name": "sharedWithUserIds",
              "type": "string[]"
            },
            {
              "internalType": "bool",
              "name": "isActive",
              "type": "bool"
            },
            {
              "internalType": "uint256",
              "name": "createdAt",
              "type": "uint256"
            },
            {
              "internalType": "uint256",
              "name": "updatedAt",
              "type": "uint256"
            }
          ],
          "internalType": "struct ShareLoans.ShareAsset[]",
          "name": "",
          "type": "tuple[]"
        }
      ],
      "stateMutability": "view",
      "type": "function"
    },
    {
      "inputs": [
        {
          "internalType": "string",
          "name": "key",
          "type": "string"
        }
      ],
      "name": "readShareAsset",
      "outputs": [
        {
          "components": [
            {
              "internalType": "string",
              "name": "key",
              "type": "string"
            },
            {
              "internalType": "address",
              "name": "ownerAddress",
              "type": "address"
            },
            {
              "internalType": "string",
              "name": "ownerUserId",
              "type": "string"
            },
            {
              "internalType": "string[]",
              "name": "accounts",
              "type": "string[]"
            },
            {
              "internalType": "string",
              "name": "name",
              "type": "string"
            },
            {
              "internalType": "address[]",
              "name": "sharedWith",
              "type": "address[]"
            },
            {
              "internalType": "string[]",
              "name": "sharedWithUserIds",
              "type": "string[]"
            },
            {
              "internalType": "bool",
              "name": "isActive",
              "type": "bool"
            },
            {
              "internalType": "uint256",
              "name": "createdAt",
              "type": "uint256"
            },
            {
              "internalType": "uint256",
              "name": "updatedAt",
              "type": "uint256"
            }
          ],
          "internalType": "struct ShareLoans.ShareAsset",
          "name": "",
          "type": "tuple"
        }
      ],
      "stateMutability": "view",
      "type": "function"
    },
    {
      "inputs": [],
      "name": "renounceOwnership",
      "outputs": [],
      "stateMutability": "nonpayable",
      "type": "function"
    },
    {
      "inputs": [
        {
          "internalType": "string",
          "name": "key",
          "type": "string"
        }
      ],
      "name": "shareAssetExists",
      "outputs": [
        {
          "internalType": "bool",
          "name": "",
          "type": "bool"
        }
      ],
      "stateMutability": "view",
      "type": "function"
    },
    {
      "inputs": [
        {
          "internalType": "address",
          "name": "newOwner",
          "type": "address"
        }
      ],
      "name": "transferOwnership",
      "outputs": [],
      "stateMutability": "nonpayable",
      "type": "function"
    },
    {
      "inputs": [
        {
          "internalType": "string",
          "name": "key",
          "type": "string"
        },
        {
          "internalType": "address[]",
          "name": "newSharedWithAddresses",
          "type": "address[]"
        },
        {
          "internalType": "string[]",
          "name": "newSharedWithUserIds",
          "type": "string[]"
        }
      ],
      "name": "updateShareAssetAccounts",
      "outputs": [
        {
          "internalType": "bool",
          "name": "",
          "type": "bool"
        }
      ],
      "stateMutability": "nonpayable",
      "type": "function"
    }
  ],
  "bytecode": "0x6080346100bb57601f6123fd38819003918201601f19168301916001600160401b038311848410176100c0578084926020946040528339810103126100bb57516001600160a01b0390818116908190036100bb5780156100a257600080546001600160a01b03198116831782556040519316907f8be0079c531659141344cd1fd0a4f28419497f9722a3daafe3b4186f6b6457e09080a361232690816100d78239f35b604051631e4fbdf760e01b815260006004820152602490fd5b600080fd5b634e487b7160e01b600052604160045260246000fdfe6080604052600436101561001257600080fd5b60e060003560e01c9081631d26f37c1461123d5781633cb34ea91461109d5781633d9d6481146110475781634d5623e514610a675781635411bcad146108e057816365bcc678146107ad5781636988f8d5146105b8578163715018a61461055f5781638caad8a3146103dc5781638da5cb5b146103b3578163e2272c97146101a957508063e9ec20ee1461013a5763f2fde38b146100af57600080fd5b34610135576020366003190112610135576100c8611870565b6100d06122ed565b6001600160a01b0390811690811561011c576000548260018060a01b0319821617600055167f8be0079c531659141344cd1fd0a4f28419497f9722a3daafe3b4186f6b6457e0600080a3005b604051631e4fbdf760e01b815260006004820152602490fd5b600080fd5b34610135576040366003190112610135576004356001600160401b0381116101355761016a903690600401611803565b6024356001600160a01b0381168103610135576101869161205f565b906101a560405192839215158352604060208401526040830190611998565b0390f35b3461013557602080600319360112610135576001600160a01b0390816101cd611870565b16600052600381526101e26040600020611f83565b9260009160005b855181101561022d5760ff6007610209610203848a611e4b565b51611b65565b015416610219575b6001016101e9565b9261022560019161203a565b939050610211565b50909261023a8593611fea565b9060009260005b85518110156103a557600760ff808261025d610203868c611e4b565b01541661026f575b5050600101610241565b61027f610203848a999599611e4b565b906040519261028d846117ab565b6040516102a58161029e8187611eed565b03826117e2565b84526001878185015416878601526040516102c78161029e8160028901611eed565b60408601526102d860038501611f83565b60608601526040516102f18161029e8160048901611eed565b608086015260058401604051918289835491828152019260005289600020916000915b80831061038e575050505092600992826103386001999794610386999703826117e2565b60a086015261034960068401611f83565b60c08601528201541615158c840152600881015461010084015201546101208201526103758288611e4b565b526103808187611e4b565b5061203a565b949088610265565b83548d168552938b01939281019291810191610314565b604051806101a58682611b01565b34610135576000366003190112610135576000546040516001600160a01b039091168152602090f35b3461013557602080600319360112610135576004356001600160401b0381116101355761040d903690600401611803565b60405190805161044461043d85840192610428818786611975565b85019486816001978881520301902054611b8b565b1515611bc5565b610477604051848451610458818487611975565b8201818152829003870190912001546001600160a01b03163314611c08565b60ff60076040518681865161048d818389611975565b81018881520301902001541661052857906104df60096104f4936007604051888187516104bb818388611975565b81018a815203019020018660ff198254161790556040519283918551928391611975565b82019185835286814294030190200155611cb6565b604051904282527fdb1d5ebd9ac7bc153be14b453aad2f6604e09809e546c70935c57c38ccc98e0a843393a3604051908152f35b60405162461bcd60e51b815260048101859052600f60248201526e105b1c9958591e48195b98589b1959608a1b6044820152606490fd5b34610135576000366003190112610135576105786122ed565b600080546001600160a01b0319811682556001600160a01b03167f8be0079c531659141344cd1fd0a4f28419497f9722a3daafe3b4186f6b6457e08280a3005b34610135576000366003190112610135576105d16122ed565b600590600554906105e182611fea565b9260005b8381106105fa57604051806101a58782611b01565b816000526020818160002001906040518181600085549561061a87611b8b565b906001978881169081600014610796575060011461075d575b50508581520301902060405192909161064b846117ab565b60405161065c8161029e8187611eed565b8452828201546001600160a01b03908116828601526040516106858161029e8160028901611eed565b604086015261069660038501611f83565b60608601526040516106af8161029e8160048901611eed565b608086015286840191604051938482855491828152019460005282600020936000935b8285106107465750505050505091816106f3600993600197969503826117e2565b60a084015261070460068201611f83565b60c084015260ff600782015416151587840152600881015461010084015201546101208201526107348288611e4b565b5261073f8187611e4b565b50016105e5565b8554821687529586019594830194938301936106d2565b90915060005282600020866000915b83831061077f5750505081018b80610633565b80548784015287958795509092019188910161076c565b60ff19168552505080151502820190508b80610633565b3461013557602080600319360112610135576004356001600160401b038111610135576107de903690600401611803565b6040519080516107f961043d85840192610428818786611975565b61080d604051848451610458818487611975565b60ff600760405186818651610823818389611975565b810188815203019020015416156108a857906104df600961087493600760405188818751610852818388611975565b81018a8152030190200160ff1981541690556040519283918551928391611975565b604051904282527f55ed3226f7f7593ff84dc369e28ee10a77d2e3c05f914164ea18f993a24a9f39843393a3604051908152f35b60405162461bcd60e51b815260048101859052601060248201526f105b1c9958591e48191a5cd8589b195960821b6044820152606490fd5b346101355760209081600319360112610135576001600160a01b0380610904611870565b166000526002906002845261091c6040600020611f83565b926109278451611fea565b9460005b8551811015610a59576109416102038288611e4b565b6040519061094e826117ab565b60405161095f8161029e8185611eed565b82526001868183015416858401526040516109808161029e818c8701611eed565b604084015261099160038301611f83565b60608401526040516109aa8161029e8160048701611eed565b608084015260058201604051918287835491828152019260005287600020916000915b898c828510610a435750505050505091816109f0600993600197969503826117e2565b60a0840152610a0160068201611f83565b60c084015260ff60078201541615158784015260088101546101008401520154610120820152610a31828a611e4b565b52610a3c8189611e4b565b500161092b565b85541686529094019392810192918101916109cd565b604051806101a58982611b01565b346101355760c0366003190112610135576004356001600160401b03811161013557610a97903690600401611803565b6024356001600160401b03811161013557610ab6903690600401611803565b6044356001600160401b03811161013557610ad59036906004016118f6565b906064356001600160401b03811161013557610af5903690600401611803565b906084356001600160401b03811161013557610b15903690600401611886565b60a4356001600160401b03811161013557610b349036906004016118f6565b9285511561101357825115610fd657845115610f9d57610b7460405160208181610b648b83815193849201611975565b8101600181520301902054611b8b565b610f5d57610b858251855114611c44565b610bd160405160208181610b9f8b83815193849201611975565b8101600181520301902093610bb48886611d7c565b6001850180546001600160a01b0319163317905560028501611d7c565b8451600160401b8111610e6c576003840154816003860155808210610f2a575b50602086016003850160005260206000206000915b838310610f0d5750505050610c1e9060048401611d7c565b8051600583016001600160401b038211610e6c57600160401b8211610e6c578054828255808310610eef575b506020830190600052602060002060005b838110610ed25750508451915050600160401b8111610e6c576006830154816006850155808210610e9f575b50602084016006840160005260206000206000915b838310610e825750505050600782019160ff1992600184825416179055426008820155600942910155336000526002602052610cdc856040600020611e5f565b600554600160401b811015610e6c576001810180600555811015610e56576005600052610d2c9086907f036b6384b5eca791c62761152d0c79bb0604c104a5fb6f4eb0703f3154bb3db001611d7c565b60005b8151811015610e0e5760019060405160208181610d528b83815193849201611975565b81016004815203019020828060a01b039081610d6e8487611e4b565b51166000526020526040600020838682541617905580610d8e8386611e4b565b51166000526003602052610da6886040600020611e5f565b610db08285611e4b565b5116610dbc8287611e4b565b517f2d6d2927a16230c9a06ad763967e3804b007adfa5762d1135ac1ba69d24d82b8610dff610dea8b611cb6565b92604051918291604083526040830190611998565b4260208301520390a301610d2f565b8451610e1987611cb6565b6040519182524260208301527ff7320c9036c114c330182e8a0c8b3e3394b66c4e0b97b1e2a83238f34fa0d7b460403393a3602060405160018152f35b634e487b7160e01b600052603260045260246000fd5b634e487b7160e01b600052604160045260246000fd5b6001602082610e9383945186611d7c565b01920192019190610c9c565b600684016000526020600020908282015b8183018110610ec0575050610c87565b80610ecc600192611ced565b01610eb0565b82516001600160a01b031681830155602090920191600101610c5b565b610f0790826000528360206000209182019101611cd6565b87610c4a565b6001602082610f1e83945186611d7c565b01920192019190610c06565b600385016000526020600020908282015b8183018110610f4b575050610bf1565b80610f57600192611ced565b01610f3b565b60405162461bcd60e51b81526020600482015260186024820152775368617265206b657920616c72656164792065786973747360401b6044820152606490fd5b60405162461bcd60e51b81526020600482015260116024820152701058d8dbdd5b9d1cc81c995c5d5a5c9959607a1b6044820152606490fd5b60405162461bcd60e51b815260206004820152601560248201527413dddb995c88155cd95c9251081c995c5d5a5c9959605a1b6044820152606490fd5b60405162461bcd60e51b815260206004820152600c60248201526b12d95e481c995c5d5a5c995960a21b6044820152606490fd5b34610135576020366003190112610135576004356001600160401b03811161013557611093610b64602061108081943690600401611803565b8160405193828580945193849201611975565b1515604051908152f35b3461013557602080600319360112610135576004356001600160401b038111610135576110ce903690600401611803565b906110d7611ea2565b5061111f816040519380519061110e61043d848301936110f8818a87611975565b880197858160019a600181520301902054611b8b565b604051938492839251928391611975565b810160018152030190209060405191611137836117ab565b6040516111488161029e8185611eed565b835260018101546001600160a01b03908116838501526040516111728161029e8160028701611eed565b604085015261118360038301611f83565b606085015260405161119c8161029e8160048701611eed565b60808501526005820194604051918285885491828152019760005285600020916000905b82821061122657508787600988886111da818f03826117e2565b60a08501526111eb60068201611f83565b60c085015260ff600782015416151560e0850152600881015461010085015201546101208301526101a5604051928284938452830190611a1a565b835481168a529887019892840192908401906111c0565b34610135576060366003190112610135576004356001600160401b0381116101355761126d903690600401611803565b602480356001600160401b0381116101355761128d903690600401611886565b916044356001600160401b03811161013557836112af849236906004016118f6565b926112cb61043d6040516020818551610b648183858a01611975565b611301604051600183516112e3818460208801611975565b820191818352602081838060a01b0394030190200154163314611c08565b61130e8251855114611c44565b60405160208183516113238183858801611975565b81016001815203019020936000925b60058601548410156115485760405160208185516113538183858a01611975565b8101600481520301902061136a8560058901611c9e565b905460018060a01b039160031b1c16600052602052604060002060ff1981541690556113998460058801611c9e565b60018060a01b0391549060031b1c16600052600360205260406000209160005b83548082101561153b5761029e6113e06113d38488611c9e565b5060405192838092611eed565b6020815191012086516020880120146113fc57506001016113b9565b919592939160001991908281019081116115265761141d6114259185611c9e565b509184611c9e565b6114fc57906114339161220f565b815480156115115761144782820184611c9e565b6114fc57908161145c60019695949354611b8b565b90816114bf575b50500190555b6114768160058901611c9e565b838060a01b0391549060031b1c1661148d85611cb6565b7ff7eb47ecbc62e098414c8565b83461841e3ae69f64ad0da8609abefecaec86ad6020604051428152a3019290611332565b600091601f80821189146114d8575050555b8a80611463565b916114f584929382845260208420940160051c84018a8501611cd6565b55556114d1565b88634e487b7160e01b60005260006004526000fd5b87634e487b7160e01b60005260316004526000fd5b88634e487b7160e01b60005260116004526000fd5b5050936001919250611469565b9085858351906001600160401b03821161174457600160401b91828111611796576005840154816005860155808210611775575b506020860160058501600052602060002060005b83811061175857505050506006830190845192831161174457508054828255808310611715575b50602084019060005260206000206000915b8383106116f8575050505060094291015560005b82518110156116b05760019060405160208187516115fe8183858c01611975565b81016004815203019020828060a01b036116188387611e4b565b511660005260205260406000208260ff19825416179055818060a01b0361163f8286611e4b565b51166000526003602052611657856040600020611e5f565b818060a01b036116678286611e4b565b51166116738285611e4b565b517f2d6d2927a16230c9a06ad763967e3804b007adfa5762d1135ac1ba69d24d82b86116a1610dea89611cb6565b4260208301520390a3016115dd565b82516116bb85611cb6565b6040519182524260208301527f1de5075f65ce6d39622a83a245cf7566e418a0d7f17c39aa952cab9f58ec131260403393a3602060405160018152f35b600160208261170983945186611d7c565b019201920191906115c9565b8160005282602060002091820191015b81811061173257506115b7565b8061173e600192611ced565b01611725565b634e487b7160e01b60009081526041600452fd5b82516001600160a01b031681830155602090920191600101611590565b61179090600586016000528260206000209182019101611cd6565b8761157c565b50634e487b7160e01b60009081526041600452fd5b61014081019081106001600160401b03821117610e6c57604052565b604081019081106001600160401b03821117610e6c57604052565b90601f801991011681019081106001600160401b03821117610e6c57604052565b81601f82011215610135578035906001600160401b038211610e6c5760405192611837601f8401601f1916602001856117e2565b8284526020838301011161013557816000926020809301838601378301015290565b6001600160401b038111610e6c5760051b60200190565b600435906001600160a01b038216820361013557565b9080601f830112156101355760209082356118a081611859565b936118ae60405195866117e2565b81855260208086019260051b82010192831161013557602001905b8282106118d7575050505090565b81356001600160a01b03811681036101355781529083019083016118c9565b81601f820112156101355780359160209161191084611859565b9361191e60405195866117e2565b808552838086019160051b8301019280841161013557848301915b8483106119495750505050505090565b82356001600160401b03811161013557869161196a84848094890101611803565b815201920191611939565b60005b8381106119885750506000910152565b8181015183820152602001611978565b906020916119b181518092818552858086019101611975565b601f01601f1916010190565b90808251908181526020809101926020808460051b8301019501936000915b8483106119ec5750505050505090565b9091929394958480611a0a600193601f198682030187528a51611998565b98019301930191949392906119dc565b90611a2f610140835190808452830190611998565b6020611a83611a71611a5f838701519460018060a01b038096168588015260408801518782036040890152611998565b606087015186820360608801526119bd565b60808601518582036080870152611998565b60a08501519184820360a08601528080845193848152019301936000905b838210611ae85750505050611ac3915060c084015183820360c08501526119bd565b9160e0810151151560e083015261010080820151908301526101208091015191015290565b8551811685529482019493820193600190910190611aa1565b6020808201906020835283518092526040830192602060408460051b8301019501936000915b848310611b375750505050505090565b9091929394958480611b55600193603f198682030187528a51611a1a565b9801930193019194939290611b27565b6020611b7e918160405193828580945193849201611975565b8101600181520301902090565b90600182811c92168015611bbb575b6020831014611ba557565b634e487b7160e01b600052602260045260246000fd5b91607f1691611b9a565b15611bcc57565b60405162461bcd60e51b815260206004820152601460248201527314da185c9948191bd95cc81b9bdd08195e1a5cdd60621b6044820152606490fd5b15611c0f57565b60405162461bcd60e51b815260206004820152600d60248201526c2737ba103a34329037bbb732b960991b6044820152606490fd5b15611c4b57565b60405162461bcd60e51b815260206004820152602560248201527f41646472657373657320616e642055736572494473206c656e677468206d69736044820152640dac2e8c6d60db1b6064820152608490fd5b8054821015610e565760005260206000200190600090565b611cce90602060405192828480945193849201611975565b810103902090565b818110611ce1575050565b60008155600101611cd6565b611cf78154611b8b565b9081611d01575050565b81601f60009311600114611d145750555b565b908083918252611d33601f60208420940160051c840160018501611cd6565b5555565b9190601f8111611d4657505050565b611d12926000526020600020906020601f840160051c83019310611d72575b601f0160051c0190611cd6565b9091508190611d65565b91909182516001600160401b038111610e6c57611da381611d9d8454611b8b565b84611d37565b602080601f8311600114611de657508190611dd7939495600092611ddb575b50508160011b916000199060031b1c19161790565b9055565b015190503880611dc2565b90601f19831695846000526020600020926000905b888210611e3357505083600195969710611e1a575b505050811b019055565b015160001960f88460031b161c19169055388080611e10565b80600185968294968601518155019501930190611dfb565b8051821015610e565760209160051b010190565b8054600160401b811015610e6c57611e7c91600182018155611c9e565b919091611e8c57611d1291611d7c565b634e487b7160e01b600052600060045260246000fd5b60405190611eaf826117ab565b600061012083606080825283602083015280604083015280808301528060808301528060a083015260c08201528260e0820152826101008201520152565b805460009392611efc82611b8b565b91828252602093600191600181169081600014611f645750600114611f23575b5050505050565b90939495506000929192528360002092846000945b838610611f5057505050500101903880808080611f1c565b805485870183015294019385908201611f38565b60ff19168685015250505090151560051b010191503880808080611f1c565b908154611f8f81611859565b92604093611fa060405191826117e2565b82815280946020809201926000526020600020906000935b858510611fc757505050505050565b60018481928451611fdc8161029e818a611eed565b815201930194019391611fb8565b90611ff482611859565b61200160405191826117e2565b8281528092612012601f1991611859565b019060005b82811061202357505050565b60209061202e611ea2565b82828501015201612017565b60001981146120495760010190565b634e487b7160e01b600052601160045260246000fd5b919091604092835190825192602093816120978680940192612082818886611975565b86019584816001988981520301902054611b8b565b156121da5760ff60078951858185516120b181838a611975565b81018a815203019020015416156121a857875181516120d1818386611975565b8101868152819003840190208501546001600160a01b0394851694168414612174579061210992918851938492839251928391611975565b8101600481520301902090600052825260ff84600020541661214b5750684e6f2061636365737360b81b6000935191612141836117c7565b6009835282015290565b6d1058d8d95cdcc819dc985b9d195960921b9093519161216a836117c7565b600e835282015290565b50505050744f776e6572206861732066756c6c2061636365737360581b9093519161219e836117c7565b6015835282015290565b50505050507014da185c99481a5cc8191a5cd8589b1959607a1b60009351916121d0836117c7565b6011835282015290565b50505050507314da185c9948191bd95cc81b9bdd08195e1a5cdd60621b6000935191612205836117c7565b6014835282015290565b908082146122e9576122218154611b8b565b906001600160401b038211610e6c576122448261223e8554611b8b565b85611d37565b600090601f831160011461227f57611dd79291600091836122745750508160011b916000199060031b1c19161790565b015490503880611dc2565b815260208082208483528183209291601f1985169083905b8282106122d05750509084600195949392106122b757505050811b019055565b015460001960f88460031b161c19169055388080611e10565b8495819295850154815560018091019601940190612297565b5050565b6000546001600160a01b0316330361230157565b60405163118cdaa760e01b8152336004820152602490fdfea164736f6c6343000818000a",
  "linkReferences": {},
  "deployedLinkReferences": {}
}