{
  "_format": "hh-sol-artifact-1",
  "contractName": "ShareLoans",
  "sourceName": "src/ShareLoans.sol",
  "abi": [
    {
      "inputs": [],
      "stateMutability": "nonpayable",
      "type": "constructor"
    },
    {
      "inputs": [
        {
          "internalType": "address",
          "name": "target",
          "type": "address"
        }
      ],
      "name": "AddressEmptyCode",
      "type": "error"
    },
    {
      "inputs": [
        {
          "internalType": "address",
          "name": "implementation",
          "type": "address"
        }
      ],
      "name": "ERC1967InvalidImplementation",
      "type": "error"
    },
    {
      "inputs": [],
      "name": "ERC1967NonPayable",
      "type": "error"
    },
    {
      "inputs": [],
      "name": "FailedCall",
      "type": "error"
    },
    {
      "inputs": [],
      "name": "InvalidInitialization",
      "type": "error"
    },
    {
      "inputs": [],
      "name": "NotInitializing",
      "type": "error"
    },
    {
      "inputs": [
        {
          "internalType": "address",
          "name": "owner",
          "type": "address"
        }
      ],
      "name": "OwnableInvalidOwner",
      "type": "error"
    },
    {
      "inputs": [
        {
          "internalType": "address",
          "name": "account",
          "type": "address"
        }
      ],
      "name": "OwnableUnauthorizedAccount",
      "type": "error"
    },
    {
      "inputs": [],
      "name": "UUPSUnauthorizedCallContext",
      "type": "error"
    },
    {
      "inputs": [
        {
          "internalType": "bytes32",
          "name": "slot",
          "type": "bytes32"
        }
      ],
      "name": "UUPSUnsupportedProxiableUUID",
      "type": "error"
    },
    {
      "anonymous": false,
      "inputs": [
        {
          "indexed": true,
          "internalType": "string",
          "name": "key",
          "type": "string"
        },
        {
          "indexed": true,
          "internalType": "address",
          "name": "grantedTo",
          "type": "address"
        },
        {
          "indexed": false,
          "internalType": "string",
          "name": "grantedToUserId",
          "type": "string"
        },
        {
          "indexed": false,
          "internalType": "uint256",
          "name": "timestamp",
          "type": "uint256"
        }
      ],
      "name": "AccessGranted",
      "type": "event"
    },
    {
      "anonymous": false,
      "inputs": [
        {
          "indexed": true,
          "internalType": "string",
          "name": "key",
          "type": "string"
        },
        {
          "indexed": true,
          "internalType": "address",
          "name": "revokedFrom",
          "type": "address"
        },
        {
          "indexed": false,
          "internalType": "uint256",
          "name": "timestamp",
          "type": "uint256"
        }
      ],
      "name": "AccessRevoked",
      "type": "event"
    },
    {
      "anonymous": false,
      "inputs": [
        {
          "indexed": false,
          "internalType": "uint64",
          "name": "version",
          "type": "uint64"
        }
      ],
      "name": "Initialized",
      "type": "event"
    },
    {
      "anonymous": false,
      "inputs": [
        {
          "indexed": true,
          "internalType": "address",
          "name": "previousOwner",
          "type": "address"
        },
        {
          "indexed": true,
          "internalType": "address",
          "name": "newOwner",
          "type": "address"
        }
      ],
      "name": "OwnershipTransferred",
      "type": "event"
    },
    {
      "anonymous": false,
      "inputs": [
        {
          "indexed": true,
          "internalType": "string",
          "name": "key",
          "type": "string"
        },
        {
          "indexed": true,
          "internalType": "address",
          "name": "owner",
          "type": "address"
        },
        {
          "indexed": false,
          "internalType": "uint256",
          "name": "accountsLength",
          "type": "uint256"
        },
        {
          "indexed": false,
          "internalType": "uint256",
          "name": "timestamp",
          "type": "uint256"
        }
      ],
      "name": "ShareCreated",
      "type": "event"
    },
    {
      "anonymous": false,
      "inputs": [
        {
          "indexed": true,
          "internalType": "string",
          "name": "key",
          "type": "string"
        },
        {
          "indexed": true,
          "internalType": "address",
          "name": "owner",
          "type": "address"
        },
        {
          "indexed": false,
          "internalType": "uint256",
          "name": "timestamp",
          "type": "uint256"
        }
      ],
      "name": "ShareDisabled",
      "type": "event"
    },
    {
      "anonymous": false,
      "inputs": [
        {
          "indexed": true,
          "internalType": "string",
          "name": "key",
          "type": "string"
        },
        {
          "indexed": true,
          "internalType": "address",
          "name": "owner",
          "type": "address"
        },
        {
          "indexed": false,
          "internalType": "uint256",
          "name": "timestamp",
          "type": "uint256"
        }
      ],
      "name": "ShareEnabled",
      "type": "event"
    },
    {
      "anonymous": false,
      "inputs": [
        {
          "indexed": true,
          "internalType": "string",
          "name": "key",
          "type": "string"
        },
        {
          "indexed": true,
          "internalType": "address",
          "name": "owner",
          "type": "address"
        },
        {
          "indexed": false,
          "internalType": "uint256",
          "name": "sharedWithCount",
          "type": "uint256"
        },
        {
          "indexed": false,
          "internalType": "uint256",
          "name": "timestamp",
          "type": "uint256"
        }
      ],
      "name": "ShareUpdated",
      "type": "event"
    },
    {
      "anonymous": false,
      "inputs": [
        {
          "indexed": true,
          "internalType": "address",
          "name": "implementation",
          "type": "address"
        }
      ],
      "name": "Upgraded",
      "type": "event"
    },
    {
      "inputs": [],
      "name": "UPGRADE_INTERFACE_VERSION",
      "outputs": [
        {
          "internalType": "string",
          "name": "",
          "type": "string"
        }
      ],
      "stateMutability": "view",
      "type": "function"
    },
    {
      "inputs": [
        {
          "internalType": "string",
          "name": "key",
          "type": "string"
        },
        {
          "internalType": "address",
          "name": "userAddress",
          "type": "address"
        }
      ],
      "name": "checkUserAccess",
      "outputs": [
        {
          "internalType": "bool",
          "name": "hasAccessValue",
          "type": "bool"
        },
        {
          "internalType": "string",
          "name": "reason",
          "type": "string"
        }
      ],
      "stateMutability": "view",
      "type": "function"
    },
    {
      "inputs": [
        {
          "internalType": "string",
          "name": "key",
          "type": "string"
        },
        {
          "internalType": "string",
          "name": "ownerUserId",
          "type": "string"
        },
        {
          "internalType": "string[]",
          "name": "accounts",
          "type": "string[]"
        },
        {
          "internalType": "string",
          "name": "name",
          "type": "string"
        },
        {
          "internalType": "address[]",
          "name": "sharedWithAddresses",
          "type": "address[]"
        },
        {
          "internalType": "string[]",
          "name": "sharedWithUserIds",
          "type": "string[]"
        }
      ],
      "name": "createShareAsset",
      "outputs": [
        {
          "internalType": "bool",
          "name": "",
          "type": "bool"
        }
      ],
      "stateMutability": "nonpayable",
      "type": "function"
    },
    {
      "inputs": [
        {
          "internalType": "string",
          "name": "key",
          "type": "string"
        }
      ],
      "name": "disableShareAsset",
      "outputs": [
        {
          "internalType": "bool",
          "name": "",
          "type": "bool"
        }
      ],
      "stateMutability": "nonpayable",
      "type": "function"
    },
    {
      "inputs": [
        {
          "internalType": "string",
          "name": "key",
          "type": "string"
        }
      ],
      "name": "enableShareAsset",
      "outputs": [
        {
          "internalType": "bool",
          "name": "",
          "type": "bool"
        }
      ],
      "stateMutability": "nonpayable",
      "type": "function"
    },
    {
      "inputs": [
        {
          "internalType": "address",
          "name": "initialOwner",
          "type": "address"
        }
      ],
      "name": "initialize",
      "outputs": [],
      "stateMutability": "nonpayable",
      "type": "function"
    },
    {
      "inputs": [],
      "name": "owner",
      "outputs": [
        {
          "internalType": "address",
          "name": "",
          "type": "address"
        }
      ],
      "stateMutability": "view",
      "type": "function"
    },
    {
      "inputs": [],
      "name": "proxiableUUID",
      "outputs": [
        {
          "internalType": "bytes32",
          "name": "",
          "type": "bytes32"
        }
      ],
      "stateMutability": "view",
      "type": "function"
    },
    {
      "inputs": [],
      "name": "queryAllShareAssets",
      "outputs": [
        {
          "components": [
            {
              "internalType": "string",
              "name": "key",
              "type": "string"
            },
            {
              "internalType": "address",
              "name": "ownerAddress",
              "type": "address"
            },
            {
              "internalType": "string",
              "name": "ownerUserId",
              "type": "string"
            },
            {
              "internalType": "string[]",
              "name": "accounts",
              "type": "string[]"
            },
            {
              "internalType": "string",
              "name": "name",
              "type": "string"
            },
            {
              "internalType": "address[]",
              "name": "sharedWith",
              "type": "address[]"
            },
            {
              "internalType": "string[]",
              "name": "sharedWithUserIds",
              "type": "string[]"
            },
            {
              "internalType": "bool",
              "name": "isActive",
              "type": "bool"
            },
            {
              "internalType": "uint256",
              "name": "createdAt",
              "type": "uint256"
            },
            {
              "internalType": "uint256",
              "name": "updatedAt",
              "type": "uint256"
            }
          ],
          "internalType": "struct ShareLoans.ShareAsset[]",
          "name": "",
          "type": "tuple[]"
        }
      ],
      "stateMutability": "view",
      "type": "function"
    },
    {
      "inputs": [
        {
          "internalType": "address",
          "name": "userAddress",
          "type": "address"
        }
      ],
      "name": "querySharedByUser",
      "outputs": [
        {
          "components": [
            {
              "internalType": "string",
              "name": "key",
              "type": "string"
            },
            {
              "internalType": "address",
              "name": "ownerAddress",
              "type": "address"
            },
            {
              "internalType": "string",
              "name": "ownerUserId",
              "type": "string"
            },
            {
              "internalType": "string[]",
              "name": "accounts",
              "type": "string[]"
            },
            {
              "internalType": "string",
              "name": "name",
              "type": "string"
            },
            {
              "internalType": "address[]",
              "name": "sharedWith",
              "type": "address[]"
            },
            {
              "internalType": "string[]",
              "name": "sharedWithUserIds",
              "type": "string[]"
            },
            {
              "internalType": "bool",
              "name": "isActive",
              "type": "bool"
            },
            {
              "internalType": "uint256",
              "name": "createdAt",
              "type": "uint256"
            },
            {
              "internalType": "uint256",
              "name": "updatedAt",
              "type": "uint256"
            }
          ],
          "internalType": "struct ShareLoans.ShareAsset[]",
          "name": "",
          "type": "tuple[]"
        }
      ],
      "stateMutability": "view",
      "type": "function"
    },
    {
      "inputs": [
        {
          "internalType": "address",
          "name": "userAddress",
          "type": "address"
        }
      ],
      "name": "querySharedWithMe",
      "outputs": [
        {
          "components": [
            {
              "internalType": "string",
              "name": "key",
              "type": "string"
            },
            {
              "internalType": "address",
              "name": "ownerAddress",
              "type": "address"
            },
            {
              "internalType": "string",
              "name": "ownerUserId",
              "type": "string"
            },
            {
              "internalType": "string[]",
              "name": "accounts",
              "type": "string[]"
            },
            {
              "internalType": "string",
              "name": "name",
              "type": "string"
            },
            {
              "internalType": "address[]",
              "name": "sharedWith",
              "type": "address[]"
            },
            {
              "internalType": "string[]",
              "name": "sharedWithUserIds",
              "type": "string[]"
            },
            {
              "internalType": "bool",
              "name": "isActive",
              "type": "bool"
            },
            {
              "internalType": "uint256",
              "name": "createdAt",
              "type": "uint256"
            },
            {
              "internalType": "uint256",
              "name": "updatedAt",
              "type": "uint256"
            }
          ],
          "internalType": "struct ShareLoans.ShareAsset[]",
          "name": "",
          "type": "tuple[]"
        }
      ],
      "stateMutability": "view",
      "type": "function"
    },
    {
      "inputs": [
        {
          "internalType": "string",
          "name": "key",
          "type": "string"
        }
      ],
      "name": "readShareAsset",
      "outputs": [
        {
          "components": [
            {
              "internalType": "string",
              "name": "key",
              "type": "string"
            },
            {
              "internalType": "address",
              "name": "ownerAddress",
              "type": "address"
            },
            {
              "internalType": "string",
              "name": "ownerUserId",
              "type": "string"
            },
            {
              "internalType": "string[]",
              "name": "accounts",
              "type": "string[]"
            },
            {
              "internalType": "string",
              "name": "name",
              "type": "string"
            },
            {
              "internalType": "address[]",
              "name": "sharedWith",
              "type": "address[]"
            },
            {
              "internalType": "string[]",
              "name": "sharedWithUserIds",
              "type": "string[]"
            },
            {
              "internalType": "bool",
              "name": "isActive",
              "type": "bool"
            },
            {
              "internalType": "uint256",
              "name": "createdAt",
              "type": "uint256"
            },
            {
              "internalType": "uint256",
              "name": "updatedAt",
              "type": "uint256"
            }
          ],
          "internalType": "struct ShareLoans.ShareAsset",
          "name": "",
          "type": "tuple"
        }
      ],
      "stateMutability": "view",
      "type": "function"
    },
    {
      "inputs": [],
      "name": "renounceOwnership",
      "outputs": [],
      "stateMutability": "nonpayable",
      "type": "function"
    },
    {
      "inputs": [
        {
          "internalType": "string",
          "name": "key",
          "type": "string"
        }
      ],
      "name": "shareAssetExists",
      "outputs": [
        {
          "internalType": "bool",
          "name": "",
          "type": "bool"
        }
      ],
      "stateMutability": "view",
      "type": "function"
    },
    {
      "inputs": [
        {
          "internalType": "address",
          "name": "newOwner",
          "type": "address"
        }
      ],
      "name": "transferOwnership",
      "outputs": [],
      "stateMutability": "nonpayable",
      "type": "function"
    },
    {
      "inputs": [
        {
          "internalType": "string",
          "name": "key",
          "type": "string"
        },
        {
          "internalType": "address[]",
          "name": "newSharedWithAddresses",
          "type": "address[]"
        },
        {
          "internalType": "string[]",
          "name": "newSharedWithUserIds",
          "type": "string[]"
        }
      ],
      "name": "updateShareAssetAccounts",
      "outputs": [
        {
          "internalType": "bool",
          "name": "",
          "type": "bool"
        }
      ],
      "stateMutability": "nonpayable",
      "type": "function"
    },
    {
      "inputs": [
        {
          "internalType": "address",
          "name": "newImplementation",
          "type": "address"
        },
        {
          "internalType": "bytes",
          "name": "data",
          "type": "bytes"
        }
      ],
      "name": "upgradeToAndCall",
      "outputs": [],
      "stateMutability": "payable",
      "type": "function"
    },
    {
      "inputs": [],
      "name": "version",
      "outputs": [
        {
          "internalType": "string",
          "name": "",
          "type": "string"
        }
      ],
      "stateMutability": "pure",
      "type": "function"
    }
  ],
  "bytecode": "0x60a080604052346100cc57306080527ff0c57e16840df040f15088dc2f81fe391c3923bec73e23a9662efc9c229c6a009081549060ff8260401c166100bd57506001600160401b036002600160401b031982821601610078575b6040516128bd90816100d28239608051818181610c230152610cca0152f35b6001600160401b031990911681179091556040519081527fc7f505b2f371ae2175ee4913f4499e1f2633a7b5936321eed1cdaeb6115181d290602090a1388080610059565b63f92ee8a960e01b8152600490fd5b600080fdfe6080604052600436101561001257600080fd5b60003560e01c80631d26f37c1461164f5780633cb34ea9146114c05780633d9d64811461146a5780634d5623e514610e855780634f1ef28614610c7b57806352d1902d14610c105780635411bcad14610a7c57806354fd4d5014610a3657806365bcc678146108fd5780636988f8d514610708578063715018a6146106b05780638caad8a31461052b5780638da5cb5b146104f5578063ad3cb1cc146104af578063c4d66de814610393578063e2272c9714610181578063e9ec20ee146101125763f2fde38b146100e257600080fd5b3461010d57602036600319011261010d5761010b6100fe611c83565b610106612745565b612605565b005b600080fd5b3461010d57604036600319011261010d576004356001600160401b03811161010d57610142903690600401611c4e565b6024356001600160a01b038116810361010d5761015e9161245c565b9061017d60405192839215158352604060208401526040830190611dab565b0390f35b3461010d57602036600319011261010d576001600160a01b036101a2611c83565b1660005260026020526101b86040600020612396565b6000805b82518110156102005760ff60076101dc6101d68487612274565b51611f78565b0154166101ec575b6001016101bc565b906101f860019161244d565b9190506101e4565b5061020a906123fd565b906000805b825182101561038557600760ff808261022b6101d68789612274565b01541661023f575b5050906001019061020f565b61024c6101d68587612274565b906040519261025a84611ba2565b6040516102728161026b8187612300565b0382611bd9565b845260018301546001600160a01b0316602085015260405161029b8161026b8160028801612300565b60408501526102ac60038401612396565b60608501526040516102c58161026b8160048801612300565b6080850152600583016040519081602082549182815201916000526020600020906000905b80821061036357505050926009928261030d600199979461035c99970382611bd9565b60a086015261031e60068401612396565b60c086015282015416151560e08401526008810154610100840152015461012082015261034b8288612274565b526103568187612274565b5061244d565b9085610233565b82546001600160a01b03168452602090930192600192830192909101906102ea565b6040518061017d8682611f14565b3461010d57602036600319011261010d576103ac611c83565b60008051602061289183398151915280549091604082901c60ff161591906001600160401b038216801590816104a7575b600114908161049d575b159081610494575b50610482576001600160401b03198216600117845561041f9183610467575b5061041761277e565b61010661277e565b61042761277e565b61042d57005b805460ff60401b19169055604051600181527fc7f505b2f371ae2175ee4913f4499e1f2633a7b5936321eed1cdaeb6115181d290602090a1005b6001600160481b0319166001600160401b011784558461040e565b60405163f92ee8a960e01b8152600490fd5b905015856103ef565b303b1591506103e7565b8491506103dd565b3461010d57600036600319011261010d5761017d6040516104cf81611bbe565b60058152640352e302e360dc1b6020820152604051918291602083526020830190611dab565b3461010d57600036600319011261010d57600080516020612811833981519152546040516001600160a01b039091168152602090f35b3461010d5760208060031936011261010d576004356001600160401b03811161010d5761055c903690600401611c4e565b604051610590610589835192858181870195610579818389611d88565b8101600081520301902054611f9e565b1515611fd8565b6105c3604051600184516105a5818487611d88565b820191600083528681838060a01b039403019020015416331461201b565b60ff6007604051858186516105d9818389611d88565b81016000815203019020015416610679579061062e600961064493600760405187818751610608818388611d88565b8101600081520301902001600160ff198254161790556040519283918551928391611d88565b82019160008352858142940301902001556120df565b604051904282527fdb1d5ebd9ac7bc153be14b453aad2f6604e09809e546c70935c57c38ccc98e0a833393a360405160018152f35b60405162461bcd60e51b815260048101849052600f60248201526e105b1c9958591e48195b98589b1959608a1b6044820152606490fd5b3461010d57600036600319011261010d576106c9612745565b60008051602061281183398151915280546001600160a01b031981169091556000906001600160a01b03166000805160206128718339815191528280a3005b3461010d57600036600319011261010d57610721612745565b60045461072d816123fd565b906000905b808210610747576040518061017d8582611f14565b60046000526020918083600020016040518481600084549461076886611f9e565b9060019687811690816000146108e657506001146108ad575b50506000815203019020604051919461079983611ba2565b6040516107aa8161026b8186612300565b8352818601546001600160a01b03908116828501526040516107d38161026b8160028801612300565b60408501526107e460038401612396565b60608501526040516107fd8161026b8160048801612300565b60808501526005830191604051978882855491828152019460005282600020936000935b828510610896575050505050509085610841600196976009940382611bd9565b60a084015261085260068201612396565b60c084015260ff600782015416151560e0840152600881015461010084015201546101208201526108838286612274565b5261088e8185612274565b500190610732565b855482168752958601959483019493830193610821565b90915060005282600020856000915b8383106108cf5750505081018980610781565b8054878401528a95879550909201918791016108bc565b60ff19168552505080151502820190508980610781565b3461010d5760208060031936011261010d576004356001600160401b03811161010d5761092e903690600401611c4e565b60405161094b610589835192858181870195610579818389611d88565b610960604051600184516105a5818487611d88565b60ff600760405185818651610976818389611d88565b81016000815203019020015416156109fe579061062e60096109c9936007604051878187516109a6818388611d88565b810160008152030190200160ff1981541690556040519283918551928391611d88565b604051904282527f55ed3226f7f7593ff84dc369e28ee10a77d2e3c05f914164ea18f993a24a9f39833393a360405160018152f35b60405162461bcd60e51b815260048101849052601060248201526f105b1c9958591e48191a5cd8589b195960821b6044820152606490fd5b3461010d57600036600319011261010d5761017d604051610a5681611bbe565b60058152640312e302e360dc1b6020820152604051918291602083526020830190611dab565b3461010d5760208060031936011261010d576001600160a01b039081610aa0611c83565b16600052600191828252610ab76040600020612396565b91610ac283516123fd565b926000855b610ada575b6040518061017d8782611f14565b8151811015610c0b57908582610af66101d68397969585612274565b60405190610b0382611ba2565b604051610b148161026b8185612300565b825286848201541686830152604051610b348161026b8160028601612300565b6040830152610b4560038201612396565b6060830152604051610b5e8161026b8160048601612300565b608083015260405160058201805480835260009182528882208984019290915b8a818310610bf2575050505090610b9a81600994930382611bd9565b60a0840152610bab60068201612396565b60c084015260ff600782015416151560e084015260088101546101008401520154610120820152610bdc8289612274565b52610be78188612274565b500190919293610ac7565b83548d1685528d99940193928301929190910190610b7e565b610acc565b3461010d57600036600319011261010d577f00000000000000000000000000000000000000000000000000000000000000006001600160a01b03163003610c695760206040516000805160206128318339815191528152f35b60405163703e46dd60e11b8152600490fd5b604036600319011261010d57610c8f611c83565b6024356001600160401b03811161010d573660238201121561010d57610cbf903690602481600401359101611c17565b906001600160a01b037f00000000000000000000000000000000000000000000000000000000000000008116308114908115610e69575b50610c6957610d03612745565b6040516352d1902d60e01b8152908216916020918281600481875afa60009181610e3a575b50610d4657604051634c9c8ce360e01b815260048101859052602490fd5b92849360008051602061283183398151915290818103610e225750823b15610e095780546001600160a01b03191682179055604051907fbc7cd75a20ee27fd9adebab32041f755214dbc6bffa90cc0225b39da2e5c2d3b600080a2835115610def5750600080848461010b96519101845af4903d15610de6573d610dc981611bfc565b90610dd76040519283611bd9565b8152600081943d92013e6127ad565b606092506127ad565b9250505034610dfa57005b63b398979f60e01b8152600490fd5b604051634c9c8ce360e01b815260048101839052602490fd5b60249060405190632a87526960e21b82526004820152fd5b9091508381813d8311610e62575b610e528183611bd9565b8101031261010d57519086610d28565b503d610e48565b9050816000805160206128318339815191525416141584610cf6565b3461010d5760c036600319011261010d576004356001600160401b03811161010d57610eb5903690600401611c4e565b602480356001600160401b03811161010d57610ed5903690600401611c4e565b906044356001600160401b03811161010d57610ef5903690600401611d09565b916064356001600160401b03811161010d57610f15903690600401611c4e565b916084356001600160401b03811161010d57610f35903690600401611c99565b9060a4356001600160401b03811161010d57610f55903690600401611d09565b93865115611437578351156113fb578551156113c357610f85604051602081816105798c83815193849201611d88565b61138457610f968351865114612057565b610fe260405160208181610fb08c83815193849201611d88565b8101600081520301902094610fc589876121a5565b6001860180546001600160a01b03191633179055600286016121a5565b8551600160401b811161131f576003850154816003870155808210611351575b50602087016003860160005260206000206000915b838310611334575050505061102f90600485016121a5565b8151600584016001600160401b03821161131f57600160401b821161131f578054828255808310611301575b506020840190600052602060002060005b8381106112e45750508551915050600160401b81116112cf57600684015481600686015580821061129c575b50602085016006850160005260206000206000915b83831061127f5750505050600783019260ff19936001858254161790554260088201556009429101553360005260016020526110ed866040600020612288565b60045490600160401b82101561126b5760018201806004558210156112575750600460005261113f9086907f8a35acfbc15ff81a39ae7d344fd709f28e8600b4aa8c65c6b64bfe7fe36bd19b016121a5565b60005b815181101561120f57600190604051602081816111658b83815193849201611d88565b81016003815203019020828060a01b0390816111818487612274565b511660005260205260406000208386825416179055806111a18386612274565b511660005260026020526111b9886040600020612288565b6111c38285612274565b51166111cf8287612274565b516000805160206128518339815191526112006111eb8b6120df565b92604051918291604083526040830190611dab565b4260208301520390a301611142565b845161121a876120df565b6040519182524260208301527ff7320c9036c114c330182e8a0c8b3e3394b66c4e0b97b1e2a83238f34fa0d7b460403393a3602060405160018152f35b634e487b7160e01b60009081526032600452fd5b634e487b7160e01b60009081526041600452fd5b6001602082611290839451866121a5565b019201920191906110ad565b600685016000526020600020908282015b81830181106112bd575050611098565b806112c9600192612116565b016112ad565b50634e487b7160e01b60009081526041600452fd5b82516001600160a01b03168183015560209092019160010161106c565b611319908260005283602060002091820191016120ff565b8861105b565b82634e487b7160e01b60005260416004526000fd5b6001602082611345839451866121a5565b01920192019190611017565b600386016000526020600020908282015b8183018110611372575050611002565b8061137e600192612116565b01611362565b60405162461bcd60e51b815260206004820152601881840152775368617265206b657920616c72656164792065786973747360401b6044820152606490fd5b60405162461bcd60e51b815260206004820152601181840152701058d8dbdd5b9d1cc81c995c5d5a5c9959607a1b6044820152606490fd5b60405162461bcd60e51b8152602060048201526015818401527413dddb995c88155cd95c9251081c995c5d5a5c9959605a1b6044820152606490fd5b60405162461bcd60e51b815260206004820152600c818401526b12d95e481c995c5d5a5c995960a21b6044820152606490fd5b3461010d57602036600319011261010d576004356001600160401b03811161010d576114b661057960206114a381943690600401611c4e565b8160405193828580945193849201611d88565b1515604051908152f35b3461010d5760208060031936011261010d576004356001600160401b03811161010d57816114f561152d923690600401611c4e565b6114fd6122b5565b506040519061151c61058982519385818186019661057981838a611d88565b604051938492839251928391611d88565b81016000815203019020906040519061154582611ba2565b6040516115568161026b8187612300565b82526001838101546001600160a01b03908116838501526040519194916115848161026b8160028701612300565b604085015261159560038301612396565b60608501526040516115ae8161026b8160048701612300565b60808501526005820194604051918285885491828152019760005285600020916000905b82821061163857508787600988886115ec818f0382611bd9565b60a08501526115fd60068201612396565b60c085015260ff600782015416151560e08501526008810154610100850152015461012083015261017d604051928284938452830190611e2d565b835481168a529887019892840192908401906115d2565b3461010d57606036600319011261010d576004356001600160401b03811161010d5761167f903690600401611c4e565b6024356001600160401b03811161010d5761169e903690600401611c99565b906044356001600160401b03811161010d576116bf83913690600401611d09565b906116db61058960405160208187516105798183858c01611d88565b61171460405160018551916116f4838260208a01611d88565b600083820152602081838060a01b0394810103019020015416331461201b565b6117218151835114612057565b60405160208185516117368183858a01611d88565b81016000815203019020926000915b60058501548310156119635760405160208184516117668183858901611d88565b8101600381520301902061177d84600588016120b1565b60018060a01b0391549060031b1c16600052602052604060002060ff1981541690556117ac83600587016120b1565b60018060a01b0391549060031b1c16600052600260205260406000209360005b8554808210156119555761026b6117f36117e6848a6120b1565b5060405192838092612300565b60208151910120855160208701201461180f57506001016117cc565b929395906000959295199384810190811161193f5761183161183991846120b1565b5091836120b1565b9190916119135761184991612667565b80549283156119295761185e818501836120b1565b949094611913578461187260019654611f9e565b90816118d6575b50500190555b61188c81600588016120b1565b838060a01b0391549060031b1c166118a3866120df565b7ff7eb47ecbc62e098414c8565b83461841e3ae69f64ad0da8609abefecaec86ad6020604051428152a301919290611745565b600091601f80821189146118ef575050555b8980611879565b9161190c84929382845260208420940160051c84018a85016120ff565b55556118e8565b634e487b7160e01b600052600060045260246000fd5b634e487b7160e01b600052603160045260246000fd5b634e487b7160e01b600052601160045260246000fd5b50509260019192945061187f565b8051849086906001600160401b038111611b4e57600160401b8111611b4e576005820154816005840155808210611b81575b506020840160058301600052602060002060005b838110611b64575050835191505060068201600160401b8211611b4e578054828255808310611b1f575b50602084019060005260206000206000915b838310611b02575050505060094291015560005b8251811015611aba576001906040516020818751611a1a8183858c01611d88565b81016003815203019020828060a01b03611a348387612274565b511660005260205260406000208260ff19825416179055818060a01b03611a5b8286612274565b51166000526002602052611a73856040600020612288565b818060a01b03611a838286612274565b5116611a8f8285612274565b51600080516020612851833981519152611aab6111eb896120df565b4260208301520390a3016119f9565b8251611ac5856120df565b6040519182524260208301527f1de5075f65ce6d39622a83a245cf7566e418a0d7f17c39aa952cab9f58ec131260403393a3602060405160018152f35b6001602082611b13839451866121a5565b019201920191906119e5565b8160005282602060002091820191015b818110611b3c57506119d3565b80611b48600192612116565b01611b2f565b634e487b7160e01b600052604160045260246000fd5b82516001600160a01b0316818301556020909201916001016119a9565b611b9c906005840160005282602060002091820191016120ff565b85611995565b61014081019081106001600160401b03821117611b4e57604052565b604081019081106001600160401b03821117611b4e57604052565b601f909101601f19168101906001600160401b03821190821017611b4e57604052565b6001600160401b038111611b4e57601f01601f191660200190565b929192611c2382611bfc565b91611c316040519384611bd9565b82948184528183011161010d578281602093846000960137010152565b9080601f8301121561010d57816020611c6993359101611c17565b90565b6001600160401b038111611b4e5760051b60200190565b600435906001600160a01b038216820361010d57565b9080601f8301121561010d576020908235611cb381611c6c565b93611cc16040519586611bd9565b81855260208086019260051b82010192831161010d57602001905b828210611cea575050505090565b81356001600160a01b038116810361010d578152908301908301611cdc565b81601f8201121561010d57803591602091611d2384611c6c565b93611d316040519586611bd9565b808552838086019160051b8301019280841161010d57848301915b848310611d5c5750505050505090565b82356001600160401b03811161010d578691611d7d84848094890101611c4e565b815201920191611d4c565b60005b838110611d9b5750506000910152565b8181015183820152602001611d8b565b90602091611dc481518092818552858086019101611d88565b601f01601f1916010190565b90808251908181526020809101926020808460051b8301019501936000915b848310611dff5750505050505090565b9091929394958480611e1d600193601f198682030187528a51611dab565b9801930193019194939290611def565b90611e42610140835190808452830190611dab565b6020611e96611e84611e72838701519460018060a01b038096168588015260408801518782036040890152611dab565b60608701518682036060880152611dd0565b60808601518582036080870152611dab565b60a08501519184820360a08601528080845193848152019301936000905b838210611efb5750505050611ed6915060c084015183820360c0850152611dd0565b9160e0810151151560e083015261010080820151908301526101208091015191015290565b8551811685529482019493820193600190910190611eb4565b6020808201906020835283518092526040830192602060408460051b8301019501936000915b848310611f4a5750505050505090565b9091929394958480611f68600193603f198682030187528a51611e2d565b9801930193019194939290611f3a565b6020611f91918160405193828580945193849201611d88565b8101600081520301902090565b90600182811c92168015611fce575b6020831014611fb857565b634e487b7160e01b600052602260045260246000fd5b91607f1691611fad565b15611fdf57565b60405162461bcd60e51b815260206004820152601460248201527314da185c9948191bd95cc81b9bdd08195e1a5cdd60621b6044820152606490fd5b1561202257565b60405162461bcd60e51b815260206004820152600d60248201526c2737ba103a34329037bbb732b960991b6044820152606490fd5b1561205e57565b60405162461bcd60e51b815260206004820152602560248201527f41646472657373657320616e642055736572494473206c656e677468206d69736044820152640dac2e8c6d60db1b6064820152608490fd5b80548210156120c95760005260206000200190600090565b634e487b7160e01b600052603260045260246000fd5b6120f790602060405192828480945193849201611d88565b810103902090565b81811061210a575050565b600081556001016120ff565b6121208154611f9e565b908161212a575050565b81601f6000931160011461213d5750555b565b90808391825261215c601f60208420940160051c8401600185016120ff565b5555565b9190601f811161216f57505050565b61213b926000526020600020906020601f840160051c8301931061219b575b601f0160051c01906120ff565b909150819061218e565b81519192916001600160401b038111611b4e576121cc816121c68454611f9e565b84612160565b602080601f831160011461220f57508190612200939495600092612204575b50508160011b916000199060031b1c19161790565b9055565b0151905038806121eb565b90601f19831695846000526020600020926000905b88821061225c57505083600195969710612243575b505050811b019055565b015160001960f88460031b161c19169055388080612239565b80600185968294968601518155019501930190612224565b80518210156120c95760209160051b010190565b8054600160401b811015611b4e576122a5916001820181556120b1565b9190916119135761213b916121a5565b604051906122c282611ba2565b600061012083606080825283602083015280604083015280808301528060808301528060a083015260c08201528260e0820152826101008201520152565b80546000939261230f82611f9e565b918282526020936001916001811690816000146123775750600114612336575b5050505050565b90939495506000929192528360002092846000945b8386106123635750505050010190388080808061232f565b80548587018301529401938590820161234b565b60ff19168685015250505090151560051b01019150388080808061232f565b9081546123a281611c6c565b926040936123b36040519182611bd9565b82815280946020809201926000526020600020906000935b8585106123da57505050505050565b600184819284516123ef8161026b818a612300565b8152019301940193916123cb565b9061240782611c6c565b6124146040519182611bd9565b8281528092612425601f1991611c6c565b019060005b82811061243657505050565b6020906124416122b5565b8282850101520161242a565b600019811461193f5760010190565b919091604092835190825192602080946124938284019161247e818885611d88565b86019583816000988981520301902054611f9e565b156125d25760ff60078951848187516124ad818389611d88565b81018a815203019020015416156125a257875183516124cd818385611d88565b810186815281900383019020600101546001600160a01b039485169416841461256c578751925183916125039082908490611d88565b81016003815203019020908252825260ff848220541661254157684e6f2061636365737360b81b9093519161253783611bbe565b6009835282015290565b506d1058d8d95cdcc819dc985b9d195960921b600193519161256283611bbe565b600e835282015290565b5050505050744f776e6572206861732066756c6c2061636365737360581b600193519161259883611bbe565b6015835282015290565b505050507014da185c99481a5cc8191a5cd8589b1959607a1b909351916125c883611bbe565b6011835282015290565b505050507314da185c9948191bd95cc81b9bdd08195e1a5cdd60621b909351916125fb83611bbe565b6014835282015290565b6001600160a01b0390811690811561264e5760008051602061281183398151915280546001600160a01b03198116841790915516600080516020612871833981519152600080a3565b604051631e4fbdf760e01b815260006004820152602490fd5b90808214612741576126798154611f9e565b906001600160401b038211611b4e5761269c826126968554611f9e565b85612160565b600090601f83116001146126d7576122009291600091836126cc5750508160011b916000199060031b1c19161790565b0154905038806121eb565b815260208082208483528183209291601f1985169083905b82821061272857505090846001959493921061270f57505050811b019055565b015460001960f88460031b161c19169055388080612239565b84958192958501548155600180910196019401906126ef565b5050565b600080516020612811833981519152546001600160a01b0316330361276657565b60405163118cdaa760e01b8152336004820152602490fd5b60ff6000805160206128918339815191525460401c161561279b57565b604051631afcd79f60e31b8152600490fd5b906127d457508051156127c257602081519101fd5b60405163d6bda27560e01b8152600490fd5b81511580612807575b6127e5575090565b604051639996b31560e01b81526001600160a01b039091166004820152602490fd5b50803b156127dd56fe9016d09d72d40fdae2fd8ceac6b6234c7706214fd39c1cd1e609a0528c199300360894a13ba1a3210667c828492db98dca3e2076cc3735a920a3ca505d382bbc2d6d2927a16230c9a06ad763967e3804b007adfa5762d1135ac1ba69d24d82b88be0079c531659141344cd1fd0a4f28419497f9722a3daafe3b4186f6b6457e0f0c57e16840df040f15088dc2f81fe391c3923bec73e23a9662efc9c229c6a00a164736f6c6343000818000a",
  "linkReferences": {},
  "deployedLinkReferences": {}
}