{
  "_format": "hh-sol-artifact-1",
  "contractName": "UserRegistry",
  "sourceName": "src/UserRegistry.sol",
  "abi": [
    {
      "inputs": [
        {
          "internalType": "address",
          "name": "initialOwner",
          "type": "address"
        }
      ],
      "stateMutability": "nonpayable",
      "type": "constructor"
    },
    {
      "inputs": [
        {
          "internalType": "address",
          "name": "owner",
          "type": "address"
        }
      ],
      "name": "OwnableInvalidOwner",
      "type": "error"
    },
    {
      "inputs": [
        {
          "internalType": "address",
          "name": "account",
          "type": "address"
        }
      ],
      "name": "OwnableUnauthorizedAccount",
      "type": "error"
    },
    {
      "anonymous": false,
      "inputs": [
        {
          "indexed": true,
          "internalType": "address",
          "name": "previousOwner",
          "type": "address"
        },
        {
          "indexed": true,
          "internalType": "address",
          "name": "newOwner",
          "type": "address"
        }
      ],
      "name": "OwnershipTransferred",
      "type": "event"
    },
    {
      "anonymous": false,
      "inputs": [
        {
          "indexed": true,
          "internalType": "address",
          "name": "walletAddress",
          "type": "address"
        },
        {
          "indexed": false,
          "internalType": "string",
          "name": "userId",
          "type": "string"
        },
        {
          "indexed": false,
          "internalType": "uint256",
          "name": "timestamp",
          "type": "uint256"
        }
      ],
      "name": "UserDeactivated",
      "type": "event"
    },
    {
      "anonymous": false,
      "inputs": [
        {
          "indexed": true,
          "internalType": "address",
          "name": "walletAddress",
          "type": "address"
        },
        {
          "indexed": false,
          "internalType": "string",
          "name": "userId",
          "type": "string"
        },
        {
          "indexed": false,
          "internalType": "uint256",
          "name": "timestamp",
          "type": "uint256"
        }
      ],
      "name": "UserReactivated",
      "type": "event"
    },
    {
      "anonymous": false,
      "inputs": [
        {
          "indexed": true,
          "internalType": "address",
          "name": "walletAddress",
          "type": "address"
        },
        {
          "indexed": false,
          "internalType": "string",
          "name": "userId",
          "type": "string"
        },
        {
          "indexed": false,
          "internalType": "string",
          "name": "name",
          "type": "string"
        },
        {
          "indexed": false,
          "internalType": "string",
          "name": "organization",
          "type": "string"
        },
        {
          "indexed": false,
          "internalType": "uint256",
          "name": "timestamp",
          "type": "uint256"
        }
      ],
      "name": "UserRegistered",
      "type": "event"
    },
    {
      "anonymous": false,
      "inputs": [
        {
          "indexed": true,
          "internalType": "address",
          "name": "walletAddress",
          "type": "address"
        },
        {
          "indexed": false,
          "internalType": "string",
          "name": "userId",
          "type": "string"
        },
        {
          "indexed": false,
          "internalType": "uint256",
          "name": "timestamp",
          "type": "uint256"
        }
      ],
      "name": "UserUpdated",
      "type": "event"
    },
    {
      "inputs": [],
      "name": "activeUsersCount",
      "outputs": [
        {
          "internalType": "uint256",
          "name": "",
          "type": "uint256"
        }
      ],
      "stateMutability": "view",
      "type": "function"
    },
    {
      "inputs": [
        {
          "internalType": "uint256",
          "name": "",
          "type": "uint256"
        }
      ],
      "name": "allUsers",
      "outputs": [
        {
          "internalType": "address",
          "name": "",
          "type": "address"
        }
      ],
      "stateMutability": "view",
      "type": "function"
    },
    {
      "inputs": [
        {
          "internalType": "address",
          "name": "walletAddress",
          "type": "address"
        }
      ],
      "name": "deactivateUser",
      "outputs": [
        {
          "internalType": "bool",
          "name": "",
          "type": "bool"
        }
      ],
      "stateMutability": "nonpayable",
      "type": "function"
    },
    {
      "inputs": [],
      "name": "getActiveUsersCount",
      "outputs": [
        {
          "internalType": "uint256",
          "name": "",
          "type": "uint256"
        }
      ],
      "stateMutability": "view",
      "type": "function"
    },
    {
      "inputs": [],
      "name": "getTotalUsers",
      "outputs": [
        {
          "internalType": "uint256",
          "name": "",
          "type": "uint256"
        }
      ],
      "stateMutability": "view",
      "type": "function"
    },
    {
      "inputs": [
        {
          "internalType": "address",
          "name": "walletAddress",
          "type": "address"
        }
      ],
      "name": "getUser",
      "outputs": [
        {
          "components": [
            {
              "internalType": "string",
              "name": "userId",
              "type": "string"
            },
            {
              "internalType": "string",
              "name": "name",
              "type": "string"
            },
            {
              "internalType": "string",
              "name": "organization",
              "type": "string"
            },
            {
              "internalType": "string",
              "name": "role",
              "type": "string"
            },
            {
              "internalType": "address",
              "name": "walletAddress",
              "type": "address"
            },
            {
              "internalType": "uint256",
              "name": "registeredAt",
              "type": "uint256"
            },
            {
              "internalType": "bool",
              "name": "isActive",
              "type": "bool"
            }
          ],
          "internalType": "struct UserRegistry.User",
          "name": "",
          "type": "tuple"
        }
      ],
      "stateMutability": "view",
      "type": "function"
    },
    {
      "inputs": [
        {
          "internalType": "string",
          "name": "userId",
          "type": "string"
        }
      ],
      "name": "getUserByUserId",
      "outputs": [
        {
          "components": [
            {
              "internalType": "string",
              "name": "userId",
              "type": "string"
            },
            {
              "internalType": "string",
              "name": "name",
              "type": "string"
            },
            {
              "internalType": "string",
              "name": "organization",
              "type": "string"
            },
            {
              "internalType": "string",
              "name": "role",
              "type": "string"
            },
            {
              "internalType": "address",
              "name": "walletAddress",
              "type": "address"
            },
            {
              "internalType": "uint256",
              "name": "registeredAt",
              "type": "uint256"
            },
            {
              "internalType": "bool",
              "name": "isActive",
              "type": "bool"
            }
          ],
          "internalType": "struct UserRegistry.User",
          "name": "",
          "type": "tuple"
        }
      ],
      "stateMutability": "view",
      "type": "function"
    },
    {
      "inputs": [
        {
          "internalType": "string",
          "name": "organization",
          "type": "string"
        },
        {
          "internalType": "uint256",
          "name": "start",
          "type": "uint256"
        },
        {
          "internalType": "uint256",
          "name": "limit",
          "type": "uint256"
        }
      ],
      "name": "getUsersByOrganization",
      "outputs": [
        {
          "components": [
            {
              "internalType": "string",
              "name": "userId",
              "type": "string"
            },
            {
              "internalType": "string",
              "name": "name",
              "type": "string"
            },
            {
              "internalType": "string",
              "name": "organization",
              "type": "string"
            },
            {
              "internalType": "string",
              "name": "role",
              "type": "string"
            },
            {
              "internalType": "address",
              "name": "walletAddress",
              "type": "address"
            },
            {
              "internalType": "uint256",
              "name": "registeredAt",
              "type": "uint256"
            },
            {
              "internalType": "bool",
              "name": "isActive",
              "type": "bool"
            }
          ],
          "internalType": "struct UserRegistry.User[]",
          "name": "",
          "type": "tuple[]"
        }
      ],
      "stateMutability": "view",
      "type": "function"
    },
    {
      "inputs": [
        {
          "internalType": "address",
          "name": "walletAddress",
          "type": "address"
        }
      ],
      "name": "isUserActive",
      "outputs": [
        {
          "internalType": "bool",
          "name": "",
          "type": "bool"
        }
      ],
      "stateMutability": "view",
      "type": "function"
    },
    {
      "inputs": [],
      "name": "owner",
      "outputs": [
        {
          "internalType": "address",
          "name": "",
          "type": "address"
        }
      ],
      "stateMutability": "view",
      "type": "function"
    },
    {
      "inputs": [
        {
          "internalType": "address",
          "name": "walletAddress",
          "type": "address"
        }
      ],
      "name": "reactivateUser",
      "outputs": [
        {
          "internalType": "bool",
          "name": "",
          "type": "bool"
        }
      ],
      "stateMutability": "nonpayable",
      "type": "function"
    },
    {
      "inputs": [
        {
          "internalType": "address",
          "name": "walletAddress",
          "type": "address"
        },
        {
          "internalType": "string",
          "name": "userId",
          "type": "string"
        },
        {
          "internalType": "string",
          "name": "name",
          "type": "string"
        },
        {
          "internalType": "string",
          "name": "organization",
          "type": "string"
        },
        {
          "internalType": "string",
          "name": "role",
          "type": "string"
        }
      ],
      "name": "registerUser",
      "outputs": [
        {
          "internalType": "bool",
          "name": "",
          "type": "bool"
        }
      ],
      "stateMutability": "nonpayable",
      "type": "function"
    },
    {
      "inputs": [],
      "name": "renounceOwnership",
      "outputs": [],
      "stateMutability": "nonpayable",
      "type": "function"
    },
    {
      "inputs": [
        {
          "internalType": "address",
          "name": "newOwner",
          "type": "address"
        }
      ],
      "name": "transferOwnership",
      "outputs": [],
      "stateMutability": "nonpayable",
      "type": "function"
    },
    {
      "inputs": [
        {
          "internalType": "address",
          "name": "walletAddress",
          "type": "address"
        },
        {
          "internalType": "string",
          "name": "name",
          "type": "string"
        },
        {
          "internalType": "string",
          "name": "role",
          "type": "string"
        }
      ],
      "name": "updateUser",
      "outputs": [
        {
          "internalType": "bool",
          "name": "",
          "type": "bool"
        }
      ],
      "stateMutability": "nonpayable",
      "type": "function"
    },
    {
      "inputs": [
        {
          "internalType": "string",
          "name": "",
          "type": "string"
        }
      ],
      "name": "userIdToAddress",
      "outputs": [
        {
          "internalType": "address",
          "name": "",
          "type": "address"
        }
      ],
      "stateMutability": "view",
      "type": "function"
    },
    {
      "inputs": [
        {
          "internalType": "address",
          "name": "walletAddress",
          "type": "address"
        }
      ],
      "name": "userRegistered",
      "outputs": [
        {
          "internalType": "bool",
          "name": "",
          "type": "bool"
        }
      ],
      "stateMutability": "view",
      "type": "function"
    },
    {
      "inputs": [
        {
          "internalType": "address",
          "name": "",
          "type": "address"
        }
      ],
      "name": "users",
      "outputs": [
        {
          "internalType": "string",
          "name": "userId",
          "type": "string"
        },
        {
          "internalType": "string",
          "name": "name",
          "type": "string"
        },
        {
          "internalType": "string",
          "name": "organization",
          "type": "string"
        },
        {
          "internalType": "string",
          "name": "role",
          "type": "string"
        },
        {
          "internalType": "address",
          "name": "walletAddress",
          "type": "address"
        },
        {
          "internalType": "uint256",
          "name": "registeredAt",
          "type": "uint256"
        },
        {
          "internalType": "bool",
          "name": "isActive",
          "type": "bool"
        }
      ],
      "stateMutability": "view",
      "type": "function"
    }
  ],
  "bytecode": "0x6080346100bb57601f611c6d38819003918201601f19168301916001600160401b038311848410176100c0578084926020946040528339810103126100bb57516001600160a01b0390818116908190036100bb5780156100a257600080546001600160a01b03198116831782556040519316907f8be0079c531659141344cd1fd0a4f28419497f9722a3daafe3b4186f6b6457e09080a3611b9690816100d78239f35b604051631e4fbdf760e01b815260006004820152602490fd5b600080fd5b634e487b7160e01b600052604160045260246000fdfe6080604052600436101561001257600080fd5b60003560e01c806310e8b22d1461116e5780631a47767b1461106a57806322b457271461104c5780636d7642981461104c5780636f77926b14610fd7578063715018a614610f7e5780637e3956f414610eda57806381a2945714610ddd57806386fb3ee814610d1d5780638da5cb5b14610cf4578063999eab2b146103e05780639be572f6146103c25780639ee20b1514610380578063a2bdedf414610325578063a87430ba14610219578063bccbc36c146101d5578063c21be6ae1461016d5763f2fde38b146100e257600080fd5b34610168576020366003190112610168576100fb6114d9565b610103611b5d565b6001600160a01b0390811690811561014f576000548260018060a01b0319821617600055167f8be0079c531659141344cd1fd0a4f28419497f9722a3daafe3b4186f6b6457e0600080a3005b604051631e4fbdf760e01b815260006004820152602490fd5b600080fd5b34610168576020366003190112610168576004356001600160401b0381116101685761019f602091369060040161152b565b816101b36040519283815193849201611581565b600290820190815281900382019020546040516001600160a01b039091168152f35b34610168576020366003190112610168576001600160a01b036101f66114d9565b166000526001602052602061020f604060002054611647565b1515604051908152f35b34610168576020366003190112610168576102e56001600160a01b038061023e6114d9565b166000526001602052604060002090604051916102668361025f8184611681565b038461150a565b604051906102828261027b8160018501611681565b038361150a565b61030f604051936102a18561029a8160028701611681565b038661150a565b610301604051916102b98361025f8160038901611681565b600485015416956102f360ff6006600588015497015416966040519a8b9a60e08c5260e08c01906115a4565b908a820360208c01526115a4565b9088820360408a01526115a4565b9086820360608801526115a4565b92608085015260a0840152151560c08301520390f35b34610168576020366003190112610168576004356004548110156101685760046000527f8a35acfbc15ff81a39ae7d344fd709f28e8600b4aa8c65c6b64bfe7fe36bd19b01546040516001600160a01b039091168152602090f35b34610168576020366003190112610168576001600160a01b036103a16114d9565b166000526001602052602060ff600660406000200154166040519015158152f35b34610168576000366003190112610168576020600454604051908152f35b346101685760a0366003190112610168576103f96114d9565b6024356001600160401b0381116101685761041890369060040161152b565b6044356001600160401b0381116101685761043790369060040161152b565b60649182356001600160401b0381116101685761045890369060040161152b565b926084356001600160401b0381116101685761047890369060040161152b565b90610481611b5d565b6001600160a01b0386166000908152600160205260409020546104a390611647565b610cb65760405183516104ba818360208801611581565b60029082019081528190036020019020546001600160a01b0316610c7c578251818115159182610c71575b505015610c36576105038451828115159182610c2b575b5050611717565b80855111610be9575061051a603282511115611759565b60405190610527826114ef565b828252836020830152846040830152606082015260018060a01b03851660808201524260a0820152600160c082015260018060a01b038516600052600160205260406000209080518051906001600160401b03821161089c57819061058c8554611647565b601f8111610b99575b50602090601f8311600114610b2d57600092610b22575b50508160011b916000199060031b1c19161782555b60208101518051906001600160401b03821161089c5781906105e66001860154611647565b601f8111610acf575b50602090601f8311600114610a5d57600092610a52575b50508160011b916000199060031b1c19161760018301555b60408101518051906001600160401b03821161089c5781906106436002860154611647565b601f81116109ff575b50602090601f831160011461098d57600092610982575b50508160011b916000199060031b1c19161760028301555b60608101518051906001600160401b03821161089c5781906106a06003860154611647565b601f811161092f575b50602090601f83116001146108bd576000926108b2575b50508160011b916000199060031b1c19161760038301555b60c06006600484019360018060a01b036080850151169460018060a01b0319958682541617905560a0840151600582015501910151151560ff8019835416911617905560405160208184516107308183858901611581565b8101600281520301902060018060a01b03861682825416179055604051602081865161075f8183858b01611581565b81016003815203019020938454600160401b958682101561089c57600182018082558210156108865760009081526020902001805483166001600160a01b0388161790556004549485101561089c5760018501806004558510156108865760046000527f8a35acfbc15ff81a39ae7d344fd709f28e8600b4aa8c65c6b64bfe7fe36bd19b90940180549091166001600160a01b0386161790556005547feb909d03a1826538126783a14a06a590245c9e5085337d88971cca5ada6b80999361084a93610866926108589190610833906118c4565b6005556040519586956080875260808701906115a4565b9085820360208701526115a4565b9083820360408501526115a4565b4260608301526001600160a01b03909416930390a2602060405160018152f35b634e487b7160e01b600052603260045260246000fd5b634e487b7160e01b600052604160045260246000fd5b0151905088806106c0565b9250600385016000526020600020906000935b601f1984168510610914576001945083601f198116106108fb575b505050811b0160038301556106d8565b015160001960f88460031b161c191690558880806108eb565b818101518355602094850194600190930192909101906108d0565b909150600385016000526020600020601f840160051c81016020851061097b575b90849392915b601f830160051c8201811061096c5750506106a9565b60008155859450600101610956565b5080610950565b015190508880610663565b9250600285016000526020600020906000935b601f19841685106109e4576001945083601f198116106109cb575b505050811b01600283015561067b565b015160001960f88460031b161c191690558880806109bb565b818101518355602094850194600190930192909101906109a0565b909150600285016000526020600020601f840160051c810160208510610a4b575b90849392915b601f830160051c82018110610a3c57505061064c565b60008155859450600101610a26565b5080610a20565b015190508880610606565b9250600185016000526020600020906000935b601f1984168510610ab4576001945083601f19811610610a9b575b505050811b01600183015561061e565b015160001960f88460031b161c19169055888080610a8b565b81810151835560209485019460019093019290910190610a70565b909150600185016000526020600020601f840160051c810160208510610b1b575b90849392915b601f830160051c82018110610b0c5750506105ef565b60008155859450600101610af6565b5080610af0565b0151905088806105ac565b9250846000526020600020906000935b601f1984168510610b7e576001945083601f19811610610b65575b505050811b0182556105c1565b015160001960f88460031b161c19169055888080610b58565b81810151835560209485019460019093019290910190610b3d565b909150846000526020600020601f840160051c810160208510610be2575b90849392915b601f830160051c82018110610bd3575050610595565b60008155859450600101610bbd565b5080610bb7565b60405162461bcd60e51b815260206004820152601b60248201527f4f7267616e697a6174696f6e20696e76616c6964206c656e67746800000000006044820152fd5b1115905082896104fc565b60405162461bcd60e51b81526020600482015260166024820152750aae6cae440928840d2dcecc2d8d2c840d8cadccee8d60531b6044820152fd5b1115905081886104e5565b60405162461bcd60e51b81526020600482015260156024820152742ab9b2b91024a21030b63932b0b23c903a30b5b2b760591b6044820152fd5b60405162461bcd60e51b815260206004820152601960248201527815d85b1b195d08185b1c9958591e481c9959da5cdd195c9959603a1b6044820152fd5b34610168576000366003190112610168576000546040516001600160a01b039091168152602090f35b3461016857602080600319360112610168576004356001600160401b03811161016857610d4e90369060040161152b565b610d5661179b565b5081610d6b6040519283815193849201611581565b600290820190815281900382019020546001600160a01b031680151580610dc3575b610d96906117d5565b60005260018152610daa6040600020611812565b90610dbf6040519282849384528301906115c9565b0390f35b50600081815260018352604090206006015460ff16610d8d565b346101685760208060031936011261016857610df76114d9565b610dff611b5d565b6001600160a01b0316600081815260018352604090206006015460ff16610e9f5780600052600182526006604060002001600160ff19825416179055610e466005546118c4565b60055580600052600182527f73c60c7b7f8decec3b2483c6a073e0236ea890f63d2c1f2e5c9adfd5a26b45c5610e8e6040600020604051918291604083526040830190611681565b42868301520390a260405160018152f35b60405162461bcd60e51b81526004810183905260136024820152725573657220616c72656164792061637469766560681b6044820152606490fd5b34610168576060366003190112610168576004356001600160401b03811161016857610f0d610f1a91369060040161152b565b60443590602435906118f7565b60405160209160208201926020835281518094526040830193602060408260051b8601019301916000955b828710610f525785850386f35b909192938280610f6e600193603f198a820301865288516115c9565b9601920196019592919092610f45565b3461016857600036600319011261016857610f97611b5d565b600080546001600160a01b0319811682556001600160a01b03167f8be0079c531659141344cd1fd0a4f28419497f9722a3daafe3b4186f6b6457e08280a3005b3461016857602036600319011261016857610ff06114d9565b610ff861179b565b506001600160a01b03166000818152600160205260409020600601546110209060ff166117d5565b6000526001602052610dbf6110386040600020611812565b6040519182916020835260208301906115c9565b34610168576000366003190112610168576020600554604051908152f35b3461016857602080600319360112610168576110846114d9565b61108c611b5d565b6001600160a01b0316600081815260018352604090206006015460ff1615611131578060005260018252600660406000200160ff198154169055600554801561111b576000190160055580600052600182527fe659a6ecb0c26f4007b258207c9e78d185a1a402594c97d6bbe3d0648aebef88610e8e6040600020604051918291604083526040830190611681565b634e487b7160e01b600052601160045260246000fd5b60405162461bcd60e51b81526004810183905260156024820152745573657220616c726561647920696e61637469766560581b6044820152606490fd5b34610168576060366003190112610168576111876114d9565b6001600160401b03602435818111610168576111a790369060040161152b565b604435828111610168576111bf90369060040161152b565b926111c8611b5d565b60018060a01b0316908160005260019260209484865260ff600660406000200154161561149e5761120483518015159081611492575b50611717565b611212603282511115611759565b8360005284865284604060002001835183811161089c57806112348354611647565b95601f96878111611441575b5089908783116001146113de576000926113d3575b5050600019600383901b1c191690871b1790555b83600052848652600360406000200192815192831161089c57829161128e8554611647565b828111611380575b508791831160011461131d57600092611312575b5050600019600383901b1c191690841b1790555b806000528183527f429ad3a7ede99d93a72d6f0ba190681a2763d681f984e2f299af21ca35caebdb6113026040600020604051918291604083526040830190611681565b42878301520390a2604051908152f35b0151905086806112aa565b90869350601f1983169185600052886000209260005b8a82821061136a5750508411611351575b505050811b0190556112be565b015160001960f88460031b161c19169055868080611344565b8385015186558a97909501949384019301611333565b9091925084600052876000208380860160051c8201928a87106113ca575b9186958a929594930160051c01915b8281106113bb575050611296565b600081558695508991016113ad565b9250819261139e565b015190508980611255565b90899350601f19831691856000528b6000209260005b8d82821061142b5750508411611412575b505050811b019055611269565b015160001960f88460031b161c19169055898080611405565b8385015186558d979095019493840193016113f4565b90915083600052896000208780850160051c8201928c8610611489575b918b91869594930160051c01915b82811061147a575050611240565b600081558594508b910161146c565b9250819261145e565b606491501115886111fe565b60405162461bcd60e51b8152600481018790526013602482015272155cd95c88191bd95cc81b9bdd08195e1a5cdd606a1b6044820152606490fd5b600435906001600160a01b038216820361016857565b60e081019081106001600160401b0382111761089c57604052565b90601f801991011681019081106001600160401b0382111761089c57604052565b81601f82011215610168578035906001600160401b03821161089c576040519261155f601f8401601f19166020018561150a565b8284526020838301011161016857816000926020809301838601378301015290565b60005b8381106115945750506000910152565b8181015183820152602001611584565b906020916115bd81518092818552858086019101611581565b601f01601f1916010190565b9060c08061161f61160d6115fb6115e9875160e0885260e08801906115a4565b602088015187820360208901526115a4565b604087015186820360408801526115a4565b606086015185820360608701526115a4565b6080808601516001600160a01b03169085015260a08086015190850152930151151591015290565b90600182811c92168015611677575b602083101461166157565b634e487b7160e01b600052602260045260246000fd5b91607f1691611656565b80546000939261169082611647565b918282526020936001916001811690816000146116f857506001146116b7575b5050505050565b90939495506000929192528360002092846000945b8386106116e4575050505001019038808080806116b0565b8054858701830152940193859082016116cc565b60ff19168685015250505090151560051b0101915038808080806116b0565b1561171e57565b60405162461bcd60e51b815260206004820152601360248201527209cc2daca40d2dcecc2d8d2c840d8cadccee8d606b1b6044820152606490fd5b1561176057565b60405162461bcd60e51b81526020600482015260136024820152720a4ded8ca40d2dcecc2d8d2c840d8cadccee8d606b1b6044820152606490fd5b604051906117a8826114ef565b600060c0836060815260606020820152606060408201526060808201528260808201528260a08201520152565b156117dc57565b60405162461bcd60e51b815260206004820152600e60248201526d155cd95c881b9bdd08199bdd5b9960921b6044820152606490fd5b9060409160c060ff6006855193611828856114ef565b849680516118418161183a8186611681565b038261150a565b865280516118568161183a8160018701611681565b6020870152805161186e8161183a8160028701611681565b81870152516118848161183a8160038601611681565b606086015260048101546001600160a01b03166080860152600581015460a08601520154161515910152565b80518210156108865760209160051b010190565b600019811461111b5760010190565b6001600160401b03811161089c5760051b60200190565b9190820391821161111b57565b604090815181818093516119118160209687809601611581565b8101600381520301902094825190818284895492838152016000998a52858a20928a5b87828210611b3e5750505061194b9250038361150a565b8694875b835181101561199d576001600160a01b0361196a82866118b0565b511689526001855260ff6006878b20015416611989575b60010161194f565b956119956001916118c4565b969050611981565b509390969495840195868511611b2a57808711611b22575b841015611aec576119c684876118ea565b936119d0856118d3565b946119dd8351968761150a565b8086526119ec601f19916118d3565b0184875b828110611ad65750505085948693875b8151811080611acd575b15611ac0576001600160a01b0380611a2283856118b0565b51168a5260019081895260ff6006888d20015416611a4b575b5050611a46906118c4565b611a00565b858a939a1015611a6c575b5050611a64611a46916118c4565b979038611a3b565b611a469297611a6492611ab992611a838d886118b0565b51168d528a52611ab3888d20611aa2611a9c8a856118ea565b91611812565b611aac828a6118b0565b52876118b0565b506118c4565b9691611a56565b5050965050505050505090565b50898610611a0a565b611ade61179b565b82828a0101520185906119f0565b805195509185019250506001600160401b03821184831017611b0e5752815290565b634e487b7160e01b83526041600452602483fd5b9550856119b5565b634e487b7160e01b86526011600452602486fd5b85546001600160a01b0316845260019586019588955093019201611934565b6000546001600160a01b03163303611b7157565b60405163118cdaa760e01b8152336004820152602490fdfea164736f6c6343000818000a",
  "linkReferences": {},
  "deployedLinkReferences": {}
}