{
  "_format": "hh-sol-artifact-1",
  "contractName": "UserRegistry",
  "sourceName": "src/UserRegistry.sol",
  "abi": [
    {
      "inputs": [],
      "stateMutability": "nonpayable",
      "type": "constructor"
    },
    {
      "inputs": [
        {
          "internalType": "address",
          "name": "target",
          "type": "address"
        }
      ],
      "name": "AddressEmptyCode",
      "type": "error"
    },
    {
      "inputs": [
        {
          "internalType": "address",
          "name": "implementation",
          "type": "address"
        }
      ],
      "name": "ERC1967InvalidImplementation",
      "type": "error"
    },
    {
      "inputs": [],
      "name": "ERC1967NonPayable",
      "type": "error"
    },
    {
      "inputs": [],
      "name": "FailedCall",
      "type": "error"
    },
    {
      "inputs": [],
      "name": "InvalidInitialization",
      "type": "error"
    },
    {
      "inputs": [],
      "name": "NotInitializing",
      "type": "error"
    },
    {
      "inputs": [
        {
          "internalType": "address",
          "name": "owner",
          "type": "address"
        }
      ],
      "name": "OwnableInvalidOwner",
      "type": "error"
    },
    {
      "inputs": [
        {
          "internalType": "address",
          "name": "account",
          "type": "address"
        }
      ],
      "name": "OwnableUnauthorizedAccount",
      "type": "error"
    },
    {
      "inputs": [],
      "name": "UUPSUnauthorizedCallContext",
      "type": "error"
    },
    {
      "inputs": [
        {
          "internalType": "bytes32",
          "name": "slot",
          "type": "bytes32"
        }
      ],
      "name": "UUPSUnsupportedProxiableUUID",
      "type": "error"
    },
    {
      "anonymous": false,
      "inputs": [
        {
          "indexed": false,
          "internalType": "uint64",
          "name": "version",
          "type": "uint64"
        }
      ],
      "name": "Initialized",
      "type": "event"
    },
    {
      "anonymous": false,
      "inputs": [
        {
          "indexed": true,
          "internalType": "address",
          "name": "previousOwner",
          "type": "address"
        },
        {
          "indexed": true,
          "internalType": "address",
          "name": "newOwner",
          "type": "address"
        }
      ],
      "name": "OwnershipTransferred",
      "type": "event"
    },
    {
      "anonymous": false,
      "inputs": [
        {
          "indexed": true,
          "internalType": "address",
          "name": "implementation",
          "type": "address"
        }
      ],
      "name": "Upgraded",
      "type": "event"
    },
    {
      "anonymous": false,
      "inputs": [
        {
          "indexed": true,
          "internalType": "address",
          "name": "walletAddress",
          "type": "address"
        },
        {
          "indexed": false,
          "internalType": "string",
          "name": "userId",
          "type": "string"
        },
        {
          "indexed": false,
          "internalType": "uint256",
          "name": "timestamp",
          "type": "uint256"
        }
      ],
      "name": "UserDeactivated",
      "type": "event"
    },
    {
      "anonymous": false,
      "inputs": [
        {
          "indexed": true,
          "internalType": "address",
          "name": "walletAddress",
          "type": "address"
        },
        {
          "indexed": false,
          "internalType": "string",
          "name": "userId",
          "type": "string"
        },
        {
          "indexed": false,
          "internalType": "uint256",
          "name": "timestamp",
          "type": "uint256"
        }
      ],
      "name": "UserReactivated",
      "type": "event"
    },
    {
      "anonymous": false,
      "inputs": [
        {
          "indexed": true,
          "internalType": "address",
          "name": "walletAddress",
          "type": "address"
        },
        {
          "indexed": false,
          "internalType": "string",
          "name": "userId",
          "type": "string"
        },
        {
          "indexed": false,
          "internalType": "string",
          "name": "name",
          "type": "string"
        },
        {
          "indexed": false,
          "internalType": "string",
          "name": "organization",
          "type": "string"
        },
        {
          "indexed": false,
          "internalType": "uint256",
          "name": "timestamp",
          "type": "uint256"
        }
      ],
      "name": "UserRegistered",
      "type": "event"
    },
    {
      "anonymous": false,
      "inputs": [
        {
          "indexed": true,
          "internalType": "address",
          "name": "walletAddress",
          "type": "address"
        },
        {
          "indexed": false,
          "internalType": "string",
          "name": "userId",
          "type": "string"
        },
        {
          "indexed": false,
          "internalType": "uint256",
          "name": "timestamp",
          "type": "uint256"
        }
      ],
      "name": "UserUpdated",
      "type": "event"
    },
    {
      "inputs": [],
      "name": "UPGRADE_INTERFACE_VERSION",
      "outputs": [
        {
          "internalType": "string",
          "name": "",
          "type": "string"
        }
      ],
      "stateMutability": "view",
      "type": "function"
    },
    {
      "inputs": [],
      "name": "activeUsersCount",
      "outputs": [
        {
          "internalType": "uint256",
          "name": "",
          "type": "uint256"
        }
      ],
      "stateMutability": "view",
      "type": "function"
    },
    {
      "inputs": [
        {
          "internalType": "uint256",
          "name": "",
          "type": "uint256"
        }
      ],
      "name": "allUsers",
      "outputs": [
        {
          "internalType": "address",
          "name": "",
          "type": "address"
        }
      ],
      "stateMutability": "view",
      "type": "function"
    },
    {
      "inputs": [
        {
          "internalType": "address",
          "name": "walletAddress",
          "type": "address"
        }
      ],
      "name": "deactivateUser",
      "outputs": [
        {
          "internalType": "bool",
          "name": "",
          "type": "bool"
        }
      ],
      "stateMutability": "nonpayable",
      "type": "function"
    },
    {
      "inputs": [],
      "name": "getActiveUsersCount",
      "outputs": [
        {
          "internalType": "uint256",
          "name": "",
          "type": "uint256"
        }
      ],
      "stateMutability": "view",
      "type": "function"
    },
    {
      "inputs": [],
      "name": "getTotalUsers",
      "outputs": [
        {
          "internalType": "uint256",
          "name": "",
          "type": "uint256"
        }
      ],
      "stateMutability": "view",
      "type": "function"
    },
    {
      "inputs": [
        {
          "internalType": "address",
          "name": "walletAddress",
          "type": "address"
        }
      ],
      "name": "getUser",
      "outputs": [
        {
          "components": [
            {
              "internalType": "string",
              "name": "userId",
              "type": "string"
            },
            {
              "internalType": "string",
              "name": "name",
              "type": "string"
            },
            {
              "internalType": "string",
              "name": "organization",
              "type": "string"
            },
            {
              "internalType": "string",
              "name": "role",
              "type": "string"
            },
            {
              "internalType": "address",
              "name": "walletAddress",
              "type": "address"
            },
            {
              "internalType": "uint256",
              "name": "registeredAt",
              "type": "uint256"
            },
            {
              "internalType": "bool",
              "name": "isActive",
              "type": "bool"
            }
          ],
          "internalType": "struct UserRegistry.User",
          "name": "",
          "type": "tuple"
        }
      ],
      "stateMutability": "view",
      "type": "function"
    },
    {
      "inputs": [
        {
          "internalType": "string",
          "name": "userId",
          "type": "string"
        }
      ],
      "name": "getUserByUserId",
      "outputs": [
        {
          "components": [
            {
              "internalType": "string",
              "name": "userId",
              "type": "string"
            },
            {
              "internalType": "string",
              "name": "name",
              "type": "string"
            },
            {
              "internalType": "string",
              "name": "organization",
              "type": "string"
            },
            {
              "internalType": "string",
              "name": "role",
              "type": "string"
            },
            {
              "internalType": "address",
              "name": "walletAddress",
              "type": "address"
            },
            {
              "internalType": "uint256",
              "name": "registeredAt",
              "type": "uint256"
            },
            {
              "internalType": "bool",
              "name": "isActive",
              "type": "bool"
            }
          ],
          "internalType": "struct UserRegistry.User",
          "name": "",
          "type": "tuple"
        }
      ],
      "stateMutability": "view",
      "type": "function"
    },
    {
      "inputs": [
        {
          "internalType": "string",
          "name": "organization",
          "type": "string"
        },
        {
          "internalType": "uint256",
          "name": "start",
          "type": "uint256"
        },
        {
          "internalType": "uint256",
          "name": "limit",
          "type": "uint256"
        }
      ],
      "name": "getUsersByOrganization",
      "outputs": [
        {
          "components": [
            {
              "internalType": "string",
              "name": "userId",
              "type": "string"
            },
            {
              "internalType": "string",
              "name": "name",
              "type": "string"
            },
            {
              "internalType": "string",
              "name": "organization",
              "type": "string"
            },
            {
              "internalType": "string",
              "name": "role",
              "type": "string"
            },
            {
              "internalType": "address",
              "name": "walletAddress",
              "type": "address"
            },
            {
              "internalType": "uint256",
              "name": "registeredAt",
              "type": "uint256"
            },
            {
              "internalType": "bool",
              "name": "isActive",
              "type": "bool"
            }
          ],
          "internalType": "struct UserRegistry.User[]",
          "name": "",
          "type": "tuple[]"
        }
      ],
      "stateMutability": "view",
      "type": "function"
    },
    {
      "inputs": [
        {
          "internalType": "address",
          "name": "initialOwner",
          "type": "address"
        }
      ],
      "name": "initialize",
      "outputs": [],
      "stateMutability": "nonpayable",
      "type": "function"
    },
    {
      "inputs": [
        {
          "internalType": "address",
          "name": "walletAddress",
          "type": "address"
        }
      ],
      "name": "isUserActive",
      "outputs": [
        {
          "internalType": "bool",
          "name": "",
          "type": "bool"
        }
      ],
      "stateMutability": "view",
      "type": "function"
    },
    {
      "inputs": [],
      "name": "owner",
      "outputs": [
        {
          "internalType": "address",
          "name": "",
          "type": "address"
        }
      ],
      "stateMutability": "view",
      "type": "function"
    },
    {
      "inputs": [],
      "name": "proxiableUUID",
      "outputs": [
        {
          "internalType": "bytes32",
          "name": "",
          "type": "bytes32"
        }
      ],
      "stateMutability": "view",
      "type": "function"
    },
    {
      "inputs": [
        {
          "internalType": "address",
          "name": "walletAddress",
          "type": "address"
        }
      ],
      "name": "reactivateUser",
      "outputs": [
        {
          "internalType": "bool",
          "name": "",
          "type": "bool"
        }
      ],
      "stateMutability": "nonpayable",
      "type": "function"
    },
    {
      "inputs": [
        {
          "internalType": "address",
          "name": "walletAddress",
          "type": "address"
        },
        {
          "internalType": "string",
          "name": "userId",
          "type": "string"
        },
        {
          "internalType": "string",
          "name": "name",
          "type": "string"
        },
        {
          "internalType": "string",
          "name": "organization",
          "type": "string"
        },
        {
          "internalType": "string",
          "name": "role",
          "type": "string"
        }
      ],
      "name": "registerUser",
      "outputs": [
        {
          "internalType": "bool",
          "name": "",
          "type": "bool"
        }
      ],
      "stateMutability": "nonpayable",
      "type": "function"
    },
    {
      "inputs": [],
      "name": "renounceOwnership",
      "outputs": [],
      "stateMutability": "nonpayable",
      "type": "function"
    },
    {
      "inputs": [
        {
          "internalType": "address",
          "name": "newOwner",
          "type": "address"
        }
      ],
      "name": "transferOwnership",
      "outputs": [],
      "stateMutability": "nonpayable",
      "type": "function"
    },
    {
      "inputs": [
        {
          "internalType": "address",
          "name": "walletAddress",
          "type": "address"
        },
        {
          "internalType": "string",
          "name": "name",
          "type": "string"
        },
        {
          "internalType": "string",
          "name": "role",
          "type": "string"
        }
      ],
      "name": "updateUser",
      "outputs": [
        {
          "internalType": "bool",
          "name": "",
          "type": "bool"
        }
      ],
      "stateMutability": "nonpayable",
      "type": "function"
    },
    {
      "inputs": [
        {
          "internalType": "address",
          "name": "newImplementation",
          "type": "address"
        },
        {
          "internalType": "bytes",
          "name": "data",
          "type": "bytes"
        }
      ],
      "name": "upgradeToAndCall",
      "outputs": [],
      "stateMutability": "payable",
      "type": "function"
    },
    {
      "inputs": [
        {
          "internalType": "string",
          "name": "",
          "type": "string"
        }
      ],
      "name": "userIdToAddress",
      "outputs": [
        {
          "internalType": "address",
          "name": "",
          "type": "address"
        }
      ],
      "stateMutability": "view",
      "type": "function"
    },
    {
      "inputs": [
        {
          "internalType": "address",
          "name": "walletAddress",
          "type": "address"
        }
      ],
      "name": "userRegistered",
      "outputs": [
        {
          "internalType": "bool",
          "name": "",
          "type": "bool"
        }
      ],
      "stateMutability": "view",
      "type": "function"
    },
    {
      "inputs": [
        {
          "internalType": "address",
          "name": "",
          "type": "address"
        }
      ],
      "name": "users",
      "outputs": [
        {
          "internalType": "string",
          "name": "userId",
          "type": "string"
        },
        {
          "internalType": "string",
          "name": "name",
          "type": "string"
        },
        {
          "internalType": "string",
          "name": "organization",
          "type": "string"
        },
        {
          "internalType": "string",
          "name": "role",
          "type": "string"
        },
        {
          "internalType": "address",
          "name": "walletAddress",
          "type": "address"
        },
        {
          "internalType": "uint256",
          "name": "registeredAt",
          "type": "uint256"
        },
        {
          "internalType": "bool",
          "name": "isActive",
          "type": "bool"
        }
      ],
      "stateMutability": "view",
      "type": "function"
    }
  ],
  "bytecode": "0x60a080604052346100cc57306080527ff0c57e16840df040f15088dc2f81fe391c3923bec73e23a9662efc9c229c6a009081549060ff8260401c166100bd57506001600160401b036002600160401b031982821601610078575b6040516120ea90816100d282396080518181816111ac01526112530152f35b6001600160401b031990911681179091556040519081527fc7f505b2f371ae2175ee4913f4499e1f2633a7b5936321eed1cdaeb6115181d290602090a1388080610059565b63f92ee8a960e01b8152600490fd5b600080fdfe6080604052600436101561001257600080fd5b60003560e01c806310e8b22d146115115780631a47767b1461140e57806322b457271461117b5780634f1ef2861461120457806352d1902d146111995780636d7642981461117b5780636f77926b14611106578063715018a6146110ae5780637e3956f41461100a57806381a2945714610f0e57806386fb3ee814610e535780638da5cb5b14610e1d578063999eab2b1461052d5780639be572f61461050f5780639ee20b15146104cd578063a2bdedf414610484578063a87430ba14610378578063ad3cb1cc14610306578063bccbc36c146102c2578063c21be6ae1461025a578063c4d66de81461013e5763f2fde38b1461010e57600080fd5b346101395760203660031901126101395761013761012a611874565b610132611f72565b611f10565b005b600080fd5b3461013957602036600319011261013957610157611874565b6000805160206120be83398151915280549091604082901c60ff161591906001600160401b03821680159081610252575b6001149081610248575b15908161023f575b5061022d576001600160401b0319821660011784556101ca9183610212575b506101c2611fab565b610132611fab565b6101d2611fab565b6101d857005b805460ff60401b19169055604051600181527fc7f505b2f371ae2175ee4913f4499e1f2633a7b5936321eed1cdaeb6115181d290602090a1005b6001600160481b0319166001600160401b01178455846101b9565b60405163f92ee8a960e01b8152600490fd5b9050158561019a565b303b159150610192565b849150610188565b34610139576020366003190112610139576004356001600160401b0381116101395761028c602091369060040161191a565b816102a06040519283815193849201611938565b600190820190815281900382019020546040516001600160a01b039091168152f35b34610139576020366003190112610139576001600160a01b036102e3611874565b16600052600060205260206102fc6040600020546119fe565b1515604051908152f35b346101395760003660031901126101395760408051908101906001600160401b038211818310176103625761035e9160405260058152640352e302e360dc1b602082015260405191829160208352602083019061195b565b0390f35b634e487b7160e01b600052604160045260246000fd5b34610139576020366003190112610139576104446001600160a01b038061039d611874565b166000526000602052604060002090604051916103c5836103be8184611a38565b03846118a5565b604051906103e1826103da8160018501611a38565b03836118a5565b61046e60405193610400856103f98160028701611a38565b03866118a5565b61046060405191610418836103be8160038901611a38565b6004850154169561045260ff6006600588015497015416966040519a8b9a60e08c5260e08c019061195b565b908a820360208c015261195b565b9088820360408a015261195b565b90868203606088015261195b565b92608085015260a0840152151560c08301520390f35b346101395760203660031901126101395760043560035481101561013957600360005260008051602061203e83398151915201546040516001600160a01b039091168152602090f35b34610139576020366003190112610139576001600160a01b036104ee611874565b166000526000602052602060ff600660406000200154166040519015158152f35b34610139576000366003190112610139576020600354604051908152f35b346101395760a036600319011261013957610546611874565b6024356001600160401b0381116101395761056590369060040161191a565b6044356001600160401b0381116101395761058490369060040161191a565b6064356001600160401b038111610139576105a390369060040161191a565b916084356001600160401b038111610139576105c390369060040161191a565b6105cb611f72565b60018060a01b03851660005260006020526105ea6040600020546119fe565b610ddc57604051825190610602828260208701611938565b6001918101918252908190036020019020546001600160a01b0316610d9f5781518015159081610d93575b5015610d555761064883518015159081610d49575b50611ace565b6064845111610d065761065f603282511115611b10565b6040519061066c8261188a565b8282526020808301859052604080840187905260608401929092526001600160a01b038716608084018190524260a0850152600160c08501526000908152908190522081518051919291906001600160401b0382116103625781906106d185546119fe565b601f8111610cb6575b50602090601f8311600114610c4a57600092610c3f575b50508160011b916000199060031b1c19161782555b60208101518051906001600160401b03821161036257819061072b60018601546119fe565b601f8111610bec575b50602090601f8311600114610b7a57600092610b6f575b50508160011b916000199060031b1c19161760018301555b60408101518051906001600160401b03821161036257819061078860028601546119fe565b601f8111610b1c575b50602090601f8311600114610aaa57600092610a9f575b50508160011b916000199060031b1c19161760028301555b60608101518051906001600160401b0382116103625781906107e560038601546119fe565b601f8111610a4c575b50602090601f83116001146109da576000926109cf575b50508160011b916000199060031b1c19161760038301555b60c06006600484019360018060a01b036080850151169460018060a01b0319958682541617905560a0840151600582015501910151151560ff8019835416911617905560405160208184516108758183858901611938565b8101600181520301902060018060a01b0386168282541617905560405160208186516108a48183858b01611938565b81016002815203019020938454600160401b958682101561036257600182018082558210156109b95760009081526020902001805483166001600160a01b038816179055600354948510156103625760018501806003558510156109b957600360005260008051602061203e83398151915290940180549091166001600160a01b0386161790556004547feb909d03a1826538126783a14a06a590245c9e5085337d88971cca5ada6b80999361097d936109999261098b919061096690611c7b565b60045560405195869560808752608087019061195b565b90858203602087015261195b565b90838203604085015261195b565b4260608301526001600160a01b03909416930390a2602060405160018152f35b634e487b7160e01b600052603260045260246000fd5b015190508880610805565b9250600385016000526020600020906000935b601f1984168510610a31576001945083601f19811610610a18575b505050811b01600383015561081d565b015160001960f88460031b161c19169055888080610a08565b818101518355602094850194600190930192909101906109ed565b909150600385016000526020600020601f840160051c810160208510610a98575b90849392915b601f830160051c82018110610a895750506107ee565b60008155859450600101610a73565b5080610a6d565b0151905088806107a8565b9250600285016000526020600020906000935b601f1984168510610b01576001945083601f19811610610ae8575b505050811b0160028301556107c0565b015160001960f88460031b161c19169055888080610ad8565b81810151835560209485019460019093019290910190610abd565b909150600285016000526020600020601f840160051c810160208510610b68575b90849392915b601f830160051c82018110610b59575050610791565b60008155859450600101610b43565b5080610b3d565b01519050888061074b565b9250600185016000526020600020906000935b601f1984168510610bd1576001945083601f19811610610bb8575b505050811b016001830155610763565b015160001960f88460031b161c19169055888080610ba8565b81810151835560209485019460019093019290910190610b8d565b909150600185016000526020600020601f840160051c810160208510610c38575b90849392915b601f830160051c82018110610c29575050610734565b60008155859450600101610c13565b5080610c0d565b0151905088806106f1565b9250846000526020600020906000935b601f1984168510610c9b576001945083601f19811610610c82575b505050811b018255610706565b015160001960f88460031b161c19169055888080610c75565b81810151835560209485019460019093019290910190610c5a565b909150846000526020600020601f840160051c810160208510610cff575b90849392915b601f830160051c82018110610cf05750506106da565b60008155859450600101610cda565b5080610cd4565b60405162461bcd60e51b815260206004820152601b60248201527a09ee4cec2dcd2f4c2e8d2dedc40d2dcecc2d8d2c840d8cadccee8d602b1b6044820152606490fd5b60649150111587610642565b60405162461bcd60e51b81526020600482015260166024820152750aae6cae440928840d2dcecc2d8d2c840d8cadccee8d60531b6044820152606490fd5b6064915011158661062d565b60405162461bcd60e51b81526020600482015260156024820152742ab9b2b91024a21030b63932b0b23c903a30b5b2b760591b6044820152606490fd5b60405162461bcd60e51b815260206004820152601960248201527815d85b1b195d08185b1c9958591e481c9959da5cdd195c9959603a1b6044820152606490fd5b346101395760003660031901126101395760008051602061205e833981519152546040516001600160a01b039091168152602090f35b3461013957602080600319360112610139576004356001600160401b03811161013957610e8490369060040161191a565b610e8c611b52565b5081610ea16040519283815193849201611938565b600190820190815281900382019020546001600160a01b031680151580610ef5575b610ecc90611b8c565b60005260008152610ee06040600020611bc9565b9061035e604051928284938452830190611980565b506000818152808352604090206006015460ff16610ec3565b346101395760208060031936011261013957610f28611874565b610f30611f72565b6001600160a01b03166000818152808352604090206006015460ff16610fcf5780600052600082526006604060002001600160ff19825416179055610f76600454611c7b565b60045580600052600082527f73c60c7b7f8decec3b2483c6a073e0236ea890f63d2c1f2e5c9adfd5a26b45c5610fbe6040600020604051918291604083526040830190611a38565b42868301520390a260405160018152f35b60405162461bcd60e51b81526004810183905260136024820152725573657220616c72656164792061637469766560681b6044820152606490fd5b34610139576060366003190112610139576004356001600160401b0381116101395761103d61104a91369060040161191a565b6044359060243590611cae565b60405160209160208201926020835281518094526040830193602060408260051b8601019301916000955b8287106110825785850386f35b90919293828061109e600193603f198a82030186528851611980565b9601920196019592919092611075565b34610139576000366003190112610139576110c7611f72565b60008051602061205e83398151915280546001600160a01b031981169091556000906001600160a01b031660008051602061209e8339815191528280a3005b346101395760203660031901126101395761111f611874565b611127611b52565b506001600160a01b031660008181526020819052604090206006015461114f9060ff16611b8c565b600052600060205261035e6111676040600020611bc9565b604051918291602083526020830190611980565b34610139576000366003190112610139576020600454604051908152f35b34610139576000366003190112610139577f00000000000000000000000000000000000000000000000000000000000000006001600160a01b031630036111f257602060405160008051602061207e8339815191528152f35b60405163703e46dd60e11b8152600490fd5b604036600319011261013957611218611874565b6024356001600160401b0381116101395736602382011215610139576112489036906024816004013591016118e3565b906001600160a01b037f000000000000000000000000000000000000000000000000000000000000000081163081149081156113f2575b506111f25761128c611f72565b6040516352d1902d60e01b8152908216916020918281600481875afa600091816113c3575b506112cf57604051634c9c8ce360e01b815260048101859052602490fd5b92849360008051602061207e833981519152908181036113ab5750823b156113925780546001600160a01b03191682179055604051907fbc7cd75a20ee27fd9adebab32041f755214dbc6bffa90cc0225b39da2e5c2d3b600080a28351156113785750600080848461013796519101845af4903d1561136f573d611352816118c8565b9061136060405192836118a5565b8152600081943d92013e611fda565b60609250611fda565b925050503461138357005b63b398979f60e01b8152600490fd5b604051634c9c8ce360e01b815260048101839052602490fd5b60249060405190632a87526960e21b82526004820152fd5b9091508381813d83116113eb575b6113db81836118a5565b81010312610139575190866112b1565b503d6113d1565b90508160008051602061207e833981519152541614158461127f565b346101395760208060031936011261013957611428611874565b611430611f72565b6001600160a01b03166000818152808352604090206006015460ff16156114d4578060005260008252600660406000200160ff19815416905560045480156114be576000190160045580600052600082527fe659a6ecb0c26f4007b258207c9e78d185a1a402594c97d6bbe3d0648aebef88610fbe6040600020604051918291604083526040830190611a38565b634e487b7160e01b600052601160045260246000fd5b60405162461bcd60e51b81526004810183905260156024820152745573657220616c726561647920696e61637469766560581b6044820152606490fd5b346101395760603660031901126101395761152a611874565b6001600160401b03906024358281116101395761154b90369060040161191a565b6044358381116101395761156390369060040161191a565b9161156c611f72565b60018060a01b031690816000526020936000855260ff6006604060002001541615611839576115a582518015159081610d495750611ace565b6115b3603285511115611b10565b826000526000855260019384604060002001835183811161036257806115d983546119fe565b95601f968781116117e8575b5089908783116001146117855760009261177a575b5050600019600383901b1c191690871b1790555b8360005260008652600360406000200192815192831161036257829161163485546119fe565b828111611727575b50879183116001146116c4576000926116b9575b5050600019600383901b1c191690841b1790555b80600052600083527f429ad3a7ede99d93a72d6f0ba190681a2763d681f984e2f299af21ca35caebdb6116a96040600020604051918291604083526040830190611a38565b42878301520390a2604051908152f35b015190508680611650565b90869350601f1983169185600052886000209260005b8a82821061171157505084116116f8575b505050811b019055611664565b015160001960f88460031b161c191690558680806116eb565b8385015186558a979095019493840193016116da565b9091925084600052876000208380860160051c8201928a8710611771575b9186958a929594930160051c01915b82811061176257505061163c565b60008155869550899101611754565b92508192611745565b0151905089806115fa565b90899350601f19831691856000528b6000209260005b8d8282106117d257505084116117b9575b505050811b01905561160e565b015160001960f88460031b161c191690558980806117ac565b8385015186558d9790950194938401930161179b565b90915083600052896000208780850160051c8201928c8610611830575b918b91869594930160051c01915b8281106118215750506115e5565b600081558594508b9101611813565b92508192611805565b60405162461bcd60e51b8152600481018690526013602482015272155cd95c88191bd95cc81b9bdd08195e1a5cdd606a1b6044820152606490fd5b600435906001600160a01b038216820361013957565b60e081019081106001600160401b0382111761036257604052565b601f909101601f19168101906001600160401b0382119082101761036257604052565b6001600160401b03811161036257601f01601f191660200190565b9291926118ef826118c8565b916118fd60405193846118a5565b829481845281830111610139578281602093846000960137010152565b9080601f8301121561013957816020611935933591016118e3565b90565b60005b83811061194b5750506000910152565b818101518382015260200161193b565b9060209161197481518092818552858086019101611938565b601f01601f1916010190565b9060c0806119d66119c46119b26119a0875160e0885260e088019061195b565b6020880151878203602089015261195b565b6040870151868203604088015261195b565b6060860151858203606087015261195b565b6080808601516001600160a01b03169085015260a08086015190850152930151151591015290565b90600182811c92168015611a2e575b6020831014611a1857565b634e487b7160e01b600052602260045260246000fd5b91607f1691611a0d565b805460009392611a47826119fe565b91828252602093600191600181169081600014611aaf5750600114611a6e575b5050505050565b90939495506000929192528360002092846000945b838610611a9b57505050500101903880808080611a67565b805485870183015294019385908201611a83565b60ff19168685015250505090151560051b010191503880808080611a67565b15611ad557565b60405162461bcd60e51b815260206004820152601360248201527209cc2daca40d2dcecc2d8d2c840d8cadccee8d606b1b6044820152606490fd5b15611b1757565b60405162461bcd60e51b81526020600482015260136024820152720a4ded8ca40d2dcecc2d8d2c840d8cadccee8d606b1b6044820152606490fd5b60405190611b5f8261188a565b600060c0836060815260606020820152606060408201526060808201528260808201528260a08201520152565b15611b9357565b60405162461bcd60e51b815260206004820152600e60248201526d155cd95c881b9bdd08199bdd5b9960921b6044820152606490fd5b9060409160c060ff6006855193611bdf8561188a565b84968051611bf881611bf18186611a38565b03826118a5565b86528051611c0d81611bf18160018701611a38565b60208701528051611c2581611bf18160028701611a38565b8187015251611c3b81611bf18160038601611a38565b606086015260048101546001600160a01b03166080860152600581015460a08601520154161515910152565b80518210156109b95760209160051b010190565b60001981146114be5760010190565b6001600160401b0381116103625760051b60200190565b919082039182116114be57565b60409081518181809351611cc88160209687809601611938565b8101600281520301902094825190818284895492838152016000998a52858a20928a5b87828210611ef157505050611d02925003836118a5565b8694875b8351811015611d53576001600160a01b03611d218286611c67565b5116895288855260ff6006878b20015416611d3f575b600101611d06565b95611d4b600191611c7b565b969050611d37565b50919390969495820195868311611edd57808711611ed5575b821015611e9f57611d7d8287611ca1565b90611d8782611c8a565b91611d94825193846118a5565b808352611da3601f1991611c8a565b0184875b828110611e895750505085948698875b8251811080611e80575b15611e72576001600160a01b0380611dd98386611c67565b51168a5289885260ff6006868c20015416611dfe575b50611df990611c7b565b611db7565b868992991015611e1d575b50611e16611df991611c7b565b9790611def565b611e6a611df9929c611e1692611e338c88611c67565b51168c528b8a52611e64878d20611e53611e4d8c85611ca1565b91611bc9565b611e5d828c611c67565b5289611c67565b50611c7b565b9b9150611e09565b509850505094505050505090565b50898b10611dc1565b611e91611b52565b828287010152018590611da7565b805195509185019250506001600160401b03821184831017611ec15752815290565b634e487b7160e01b83526041600452602483fd5b955085611d6c565b634e487b7160e01b86526011600452602486fd5b85546001600160a01b0316845260019586019588955093019201611ceb565b6001600160a01b03908116908115611f595760008051602061205e83398151915280546001600160a01b0319811684179091551660008051602061209e833981519152600080a3565b604051631e4fbdf760e01b815260006004820152602490fd5b60008051602061205e833981519152546001600160a01b03163303611f9357565b60405163118cdaa760e01b8152336004820152602490fd5b60ff6000805160206120be8339815191525460401c1615611fc857565b604051631afcd79f60e31b8152600490fd5b906120015750805115611fef57602081519101fd5b60405163d6bda27560e01b8152600490fd5b81511580612034575b612012575090565b604051639996b31560e01b81526001600160a01b039091166004820152602490fd5b50803b1561200a56fec2575a0e9e593c00f959f8c92f12db2869c3395a3b0502d05e2516446f71f85b9016d09d72d40fdae2fd8ceac6b6234c7706214fd39c1cd1e609a0528c199300360894a13ba1a3210667c828492db98dca3e2076cc3735a920a3ca505d382bbc8be0079c531659141344cd1fd0a4f28419497f9722a3daafe3b4186f6b6457e0f0c57e16840df040f15088dc2f81fe391c3923bec73e23a9662efc9c229c6a00a164736f6c6343000818000a",
  "linkReferences": {},
  "deployedLinkReferences": {}
}