{
  "_format": "hh-sol-artifact-1",
  "contractName": "USFCI",
  "sourceName": "src/USFCI.sol",
  "abi": [
    {
      "inputs": [],
      "stateMutability": "nonpayable",
      "type": "constructor"
    },
    {
      "inputs": [],
      "name": "AccessControlBadConfirmation",
      "type": "error"
    },
    {
      "inputs": [
        {
          "internalType": "address",
          "name": "account",
          "type": "address"
        },
        {
          "internalType": "bytes32",
          "name": "neededRole",
          "type": "bytes32"
        }
      ],
      "name": "AccessControlUnauthorizedAccount",
      "type": "error"
    },
    {
      "inputs": [
        {
          "internalType": "address",
          "name": "target",
          "type": "address"
        }
      ],
      "name": "AddressEmptyCode",
      "type": "error"
    },
    {
      "inputs": [
        {
          "internalType": "address",
          "name": "implementation",
          "type": "address"
        }
      ],
      "name": "ERC1967InvalidImplementation",
      "type": "error"
    },
    {
      "inputs": [],
      "name": "ERC1967NonPayable",
      "type": "error"
    },
    {
      "inputs": [
        {
          "internalType": "address",
          "name": "spender",
          "type": "address"
        },
        {
          "internalType": "uint256",
          "name": "allowance",
          "type": "uint256"
        },
        {
          "internalType": "uint256",
          "name": "needed",
          "type": "uint256"
        }
      ],
      "name": "ERC20InsufficientAllowance",
      "type": "error"
    },
    {
      "inputs": [
        {
          "internalType": "address",
          "name": "sender",
          "type": "address"
        },
        {
          "internalType": "uint256",
          "name": "balance",
          "type": "uint256"
        },
        {
          "internalType": "uint256",
          "name": "needed",
          "type": "uint256"
        }
      ],
      "name": "ERC20InsufficientBalance",
      "type": "error"
    },
    {
      "inputs": [
        {
          "internalType": "address",
          "name": "approver",
          "type": "address"
        }
      ],
      "name": "ERC20InvalidApprover",
      "type": "error"
    },
    {
      "inputs": [
        {
          "internalType": "address",
          "name": "receiver",
          "type": "address"
        }
      ],
      "name": "ERC20InvalidReceiver",
      "type": "error"
    },
    {
      "inputs": [
        {
          "internalType": "address",
          "name": "sender",
          "type": "address"
        }
      ],
      "name": "ERC20InvalidSender",
      "type": "error"
    },
    {
      "inputs": [
        {
          "internalType": "address",
          "name": "spender",
          "type": "address"
        }
      ],
      "name": "ERC20InvalidSpender",
      "type": "error"
    },
    {
      "inputs": [],
      "name": "EnforcedPause",
      "type": "error"
    },
    {
      "inputs": [],
      "name": "ExpectedPause",
      "type": "error"
    },
    {
      "inputs": [],
      "name": "FailedCall",
      "type": "error"
    },
    {
      "inputs": [],
      "name": "InvalidInitialization",
      "type": "error"
    },
    {
      "inputs": [],
      "name": "NotInitializing",
      "type": "error"
    },
    {
      "inputs": [],
      "name": "ReentrancyGuardReentrantCall",
      "type": "error"
    },
    {
      "inputs": [],
      "name": "UUPSUnauthorizedCallContext",
      "type": "error"
    },
    {
      "inputs": [
        {
          "internalType": "bytes32",
          "name": "slot",
          "type": "bytes32"
        }
      ],
      "name": "UUPSUnsupportedProxiableUUID",
      "type": "error"
    },
    {
      "anonymous": false,
      "inputs": [
        {
          "indexed": true,
          "internalType": "address",
          "name": "owner",
          "type": "address"
        },
        {
          "indexed": true,
          "internalType": "address",
          "name": "spender",
          "type": "address"
        },
        {
          "indexed": false,
          "internalType": "uint256",
          "name": "value",
          "type": "uint256"
        }
      ],
      "name": "Approval",
      "type": "event"
    },
    {
      "anonymous": false,
      "inputs": [
        {
          "indexed": true,
          "internalType": "address",
          "name": "walletAddress",
          "type": "address"
        },
        {
          "indexed": false,
          "internalType": "string",
          "name": "kycStatus",
          "type": "string"
        },
        {
          "indexed": false,
          "internalType": "string",
          "name": "riskScore",
          "type": "string"
        },
        {
          "indexed": false,
          "internalType": "uint256",
          "name": "timestamp",
          "type": "uint256"
        }
      ],
      "name": "ComplianceUpdated",
      "type": "event"
    },
    {
      "anonymous": false,
      "inputs": [
        {
          "indexed": false,
          "internalType": "uint64",
          "name": "version",
          "type": "uint64"
        }
      ],
      "name": "Initialized",
      "type": "event"
    },
    {
      "anonymous": false,
      "inputs": [
        {
          "indexed": false,
          "internalType": "address",
          "name": "account",
          "type": "address"
        }
      ],
      "name": "Paused",
      "type": "event"
    },
    {
      "anonymous": false,
      "inputs": [
        {
          "indexed": true,
          "internalType": "bytes32",
          "name": "role",
          "type": "bytes32"
        },
        {
          "indexed": true,
          "internalType": "bytes32",
          "name": "previousAdminRole",
          "type": "bytes32"
        },
        {
          "indexed": true,
          "internalType": "bytes32",
          "name": "newAdminRole",
          "type": "bytes32"
        }
      ],
      "name": "RoleAdminChanged",
      "type": "event"
    },
    {
      "anonymous": false,
      "inputs": [
        {
          "indexed": true,
          "internalType": "bytes32",
          "name": "role",
          "type": "bytes32"
        },
        {
          "indexed": true,
          "internalType": "address",
          "name": "account",
          "type": "address"
        },
        {
          "indexed": true,
          "internalType": "address",
          "name": "sender",
          "type": "address"
        }
      ],
      "name": "RoleGranted",
      "type": "event"
    },
    {
      "anonymous": false,
      "inputs": [
        {
          "indexed": true,
          "internalType": "bytes32",
          "name": "role",
          "type": "bytes32"
        },
        {
          "indexed": true,
          "internalType": "address",
          "name": "account",
          "type": "address"
        },
        {
          "indexed": true,
          "internalType": "address",
          "name": "sender",
          "type": "address"
        }
      ],
      "name": "RoleRevoked",
      "type": "event"
    },
    {
      "anonymous": false,
      "inputs": [
        {
          "indexed": true,
          "internalType": "address",
          "name": "burner",
          "type": "address"
        },
        {
          "indexed": false,
          "internalType": "uint256",
          "name": "amount",
          "type": "uint256"
        },
        {
          "indexed": false,
          "internalType": "string",
          "name": "reason",
          "type": "string"
        },
        {
          "indexed": false,
          "internalType": "uint256",
          "name": "timestamp",
          "type": "uint256"
        }
      ],
      "name": "TokensBurned",
      "type": "event"
    },
    {
      "anonymous": false,
      "inputs": [
        {
          "indexed": true,
          "internalType": "address",
          "name": "recipient",
          "type": "address"
        },
        {
          "indexed": false,
          "internalType": "uint256",
          "name": "amount",
          "type": "uint256"
        },
        {
          "indexed": false,
          "internalType": "string",
          "name": "reserveProof",
          "type": "string"
        },
        {
          "indexed": false,
          "internalType": "uint256",
          "name": "timestamp",
          "type": "uint256"
        }
      ],
      "name": "TokensMinted",
      "type": "event"
    },
    {
      "anonymous": false,
      "inputs": [
        {
          "indexed": true,
          "internalType": "address",
          "name": "sender",
          "type": "address"
        },
        {
          "indexed": true,
          "internalType": "address",
          "name": "recipient",
          "type": "address"
        },
        {
          "indexed": false,
          "internalType": "uint256",
          "name": "amount",
          "type": "uint256"
        },
        {
          "indexed": false,
          "internalType": "string",
          "name": "metadata",
          "type": "string"
        },
        {
          "indexed": false,
          "internalType": "uint256",
          "name": "timestamp",
          "type": "uint256"
        }
      ],
      "name": "TokensTransferred",
      "type": "event"
    },
    {
      "anonymous": false,
      "inputs": [
        {
          "indexed": true,
          "internalType": "address",
          "name": "from",
          "type": "address"
        },
        {
          "indexed": true,
          "internalType": "address",
          "name": "to",
          "type": "address"
        },
        {
          "indexed": false,
          "internalType": "uint256",
          "name": "value",
          "type": "uint256"
        }
      ],
      "name": "Transfer",
      "type": "event"
    },
    {
      "anonymous": false,
      "inputs": [
        {
          "indexed": false,
          "internalType": "address",
          "name": "account",
          "type": "address"
        }
      ],
      "name": "Unpaused",
      "type": "event"
    },
    {
      "anonymous": false,
      "inputs": [
        {
          "indexed": true,
          "internalType": "address",
          "name": "implementation",
          "type": "address"
        }
      ],
      "name": "Upgraded",
      "type": "event"
    },
    {
      "anonymous": false,
      "inputs": [
        {
          "indexed": true,
          "internalType": "address",
          "name": "walletAddress",
          "type": "address"
        },
        {
          "indexed": false,
          "internalType": "string",
          "name": "mspId",
          "type": "string"
        },
        {
          "indexed": false,
          "internalType": "string",
          "name": "userId",
          "type": "string"
        },
        {
          "indexed": false,
          "internalType": "uint256",
          "name": "timestamp",
          "type": "uint256"
        }
      ],
      "name": "WalletRegistered",
      "type": "event"
    },
    {
      "inputs": [],
      "name": "BURNER_ROLE",
      "outputs": [
        {
          "internalType": "bytes32",
          "name": "",
          "type": "bytes32"
        }
      ],
      "stateMutability": "view",
      "type": "function"
    },
    {
      "inputs": [],
      "name": "COMPLIANCE_ROLE",
      "outputs": [
        {
          "internalType": "bytes32",
          "name": "",
          "type": "bytes32"
        }
      ],
      "stateMutability": "view",
      "type": "function"
    },
    {
      "inputs": [],
      "name": "DEFAULT_ADMIN_ROLE",
      "outputs": [
        {
          "internalType": "bytes32",
          "name": "",
          "type": "bytes32"
        }
      ],
      "stateMutability": "view",
      "type": "function"
    },
    {
      "inputs": [],
      "name": "MINTER_ROLE",
      "outputs": [
        {
          "internalType": "bytes32",
          "name": "",
          "type": "bytes32"
        }
      ],
      "stateMutability": "view",
      "type": "function"
    },
    {
      "inputs": [],
      "name": "UPGRADE_INTERFACE_VERSION",
      "outputs": [
        {
          "internalType": "string",
          "name": "",
          "type": "string"
        }
      ],
      "stateMutability": "view",
      "type": "function"
    },
    {
      "inputs": [
        {
          "internalType": "address",
          "name": "",
          "type": "address"
        }
      ],
      "name": "accounts",
      "outputs": [
        {
          "internalType": "string",
          "name": "mspId",
          "type": "string"
        },
        {
          "internalType": "string",
          "name": "userId",
          "type": "string"
        },
        {
          "internalType": "uint256",
          "name": "frozenBalance",
          "type": "uint256"
        },
        {
          "internalType": "uint256",
          "name": "lastActivity",
          "type": "uint256"
        },
        {
          "internalType": "string",
          "name": "kycStatus",
          "type": "string"
        },
        {
          "internalType": "string",
          "name": "riskScore",
          "type": "string"
        },
        {
          "internalType": "string",
          "name": "accountType",
          "type": "string"
        },
        {
          "internalType": "uint256",
          "name": "createdAt",
          "type": "uint256"
        },
        {
          "internalType": "bool",
          "name": "exists",
          "type": "bool"
        }
      ],
      "stateMutability": "view",
      "type": "function"
    },
    {
      "inputs": [
        {
          "internalType": "address",
          "name": "owner",
          "type": "address"
        },
        {
          "internalType": "address",
          "name": "spender",
          "type": "address"
        }
      ],
      "name": "allowance",
      "outputs": [
        {
          "internalType": "uint256",
          "name": "",
          "type": "uint256"
        }
      ],
      "stateMutability": "view",
      "type": "function"
    },
    {
      "inputs": [
        {
          "internalType": "address",
          "name": "spender",
          "type": "address"
        },
        {
          "internalType": "uint256",
          "name": "value",
          "type": "uint256"
        }
      ],
      "name": "approve",
      "outputs": [
        {
          "internalType": "bool",
          "name": "",
          "type": "bool"
        }
      ],
      "stateMutability": "nonpayable",
      "type": "function"
    },
    {
      "inputs": [
        {
          "internalType": "address",
          "name": "account",
          "type": "address"
        }
      ],
      "name": "balanceOf",
      "outputs": [
        {
          "internalType": "uint256",
          "name": "",
          "type": "uint256"
        }
      ],
      "stateMutability": "view",
      "type": "function"
    },
    {
      "inputs": [
        {
          "internalType": "address",
          "name": "walletAddress",
          "type": "address"
        },
        {
          "internalType": "uint256",
          "name": "amount",
          "type": "uint256"
        },
        {
          "internalType": "string",
          "name": "reason",
          "type": "string"
        }
      ],
      "name": "burnTokens",
      "outputs": [
        {
          "internalType": "bool",
          "name": "",
          "type": "bool"
        }
      ],
      "stateMutability": "nonpayable",
      "type": "function"
    },
    {
      "inputs": [],
      "name": "decimals",
      "outputs": [
        {
          "internalType": "uint8",
          "name": "",
          "type": "uint8"
        }
      ],
      "stateMutability": "view",
      "type": "function"
    },
    {
      "inputs": [
        {
          "internalType": "address",
          "name": "walletAddress",
          "type": "address"
        }
      ],
      "name": "getAccountDetails",
      "outputs": [
        {
          "components": [
            {
              "internalType": "string",
              "name": "mspId",
              "type": "string"
            },
            {
              "internalType": "string",
              "name": "userId",
              "type": "string"
            },
            {
              "internalType": "uint256",
              "name": "frozenBalance",
              "type": "uint256"
            },
            {
              "internalType": "uint256",
              "name": "lastActivity",
              "type": "uint256"
            },
            {
              "internalType": "string",
              "name": "kycStatus",
              "type": "string"
            },
            {
              "internalType": "string",
              "name": "riskScore",
              "type": "string"
            },
            {
              "internalType": "string",
              "name": "accountType",
              "type": "string"
            },
            {
              "internalType": "uint256",
              "name": "createdAt",
              "type": "uint256"
            },
            {
              "internalType": "bool",
              "name": "exists",
              "type": "bool"
            }
          ],
          "internalType": "struct USFCI.Account",
          "name": "",
          "type": "tuple"
        }
      ],
      "stateMutability": "view",
      "type": "function"
    },
    {
      "inputs": [],
      "name": "getAllBurnRecords",
      "outputs": [
        {
          "components": [
            {
              "internalType": "address",
              "name": "burnerAddress",
              "type": "address"
            },
            {
              "internalType": "string",
              "name": "burnerMspId",
              "type": "string"
            },
            {
              "internalType": "uint256",
              "name": "amount",
              "type": "uint256"
            },
            {
              "internalType": "string",
              "name": "reason",
              "type": "string"
            },
            {
              "internalType": "uint256",
              "name": "timestamp",
              "type": "uint256"
            }
          ],
          "internalType": "struct USFCI.BurnRecord[]",
          "name": "",
          "type": "tuple[]"
        }
      ],
      "stateMutability": "view",
      "type": "function"
    },
    {
      "inputs": [],
      "name": "getAllMintRecords",
      "outputs": [
        {
          "components": [
            {
              "internalType": "address",
              "name": "recipientAddress",
              "type": "address"
            },
            {
              "internalType": "string",
              "name": "recipientMspId",
              "type": "string"
            },
            {
              "internalType": "uint256",
              "name": "amount",
              "type": "uint256"
            },
            {
              "internalType": "string",
              "name": "reserveProof",
              "type": "string"
            },
            {
              "internalType": "uint256",
              "name": "timestamp",
              "type": "uint256"
            },
            {
              "internalType": "address",
              "name": "minter",
              "type": "address"
            }
          ],
          "internalType": "struct USFCI.MintRecord[]",
          "name": "",
          "type": "tuple[]"
        }
      ],
      "stateMutability": "view",
      "type": "function"
    },
    {
      "inputs": [],
      "name": "getAllTransferRecords",
      "outputs": [
        {
          "components": [
            {
              "internalType": "address",
              "name": "senderAddress",
              "type": "address"
            },
            {
              "internalType": "string",
              "name": "senderMspId",
              "type": "string"
            },
            {
              "internalType": "address",
              "name": "recipientAddress",
              "type": "address"
            },
            {
              "internalType": "string",
              "name": "recipientMspId",
              "type": "string"
            },
            {
              "internalType": "uint256",
              "name": "amount",
              "type": "uint256"
            },
            {
              "internalType": "string",
              "name": "metadata",
              "type": "string"
            },
            {
              "internalType": "uint256",
              "name": "timestamp",
              "type": "uint256"
            },
            {
              "internalType": "string",
              "name": "settlementType",
              "type": "string"
            }
          ],
          "internalType": "struct USFCI.TransferRecord[]",
          "name": "",
          "type": "tuple[]"
        }
      ],
      "stateMutability": "view",
      "type": "function"
    },
    {
      "inputs": [
        {
          "internalType": "address",
          "name": "walletAddress",
          "type": "address"
        }
      ],
      "name": "getBalance",
      "outputs": [
        {
          "internalType": "uint256",
          "name": "",
          "type": "uint256"
        }
      ],
      "stateMutability": "view",
      "type": "function"
    },
    {
      "inputs": [
        {
          "internalType": "address",
          "name": "walletAddress",
          "type": "address"
        }
      ],
      "name": "getBurnHistory",
      "outputs": [
        {
          "components": [
            {
              "internalType": "address",
              "name": "burnerAddress",
              "type": "address"
            },
            {
              "internalType": "string",
              "name": "burnerMspId",
              "type": "string"
            },
            {
              "internalType": "uint256",
              "name": "amount",
              "type": "uint256"
            },
            {
              "internalType": "string",
              "name": "reason",
              "type": "string"
            },
            {
              "internalType": "uint256",
              "name": "timestamp",
              "type": "uint256"
            }
          ],
          "internalType": "struct USFCI.BurnRecord[]",
          "name": "",
          "type": "tuple[]"
        }
      ],
      "stateMutability": "view",
      "type": "function"
    },
    {
      "inputs": [
        {
          "internalType": "address",
          "name": "walletAddress",
          "type": "address"
        }
      ],
      "name": "getMintHistory",
      "outputs": [
        {
          "components": [
            {
              "internalType": "address",
              "name": "recipientAddress",
              "type": "address"
            },
            {
              "internalType": "string",
              "name": "recipientMspId",
              "type": "string"
            },
            {
              "internalType": "uint256",
              "name": "amount",
              "type": "uint256"
            },
            {
              "internalType": "string",
              "name": "reserveProof",
              "type": "string"
            },
            {
              "internalType": "uint256",
              "name": "timestamp",
              "type": "uint256"
            },
            {
              "internalType": "address",
              "name": "minter",
              "type": "address"
            }
          ],
          "internalType": "struct USFCI.MintRecord[]",
          "name": "",
          "type": "tuple[]"
        }
      ],
      "stateMutability": "view",
      "type": "function"
    },
    {
      "inputs": [
        {
          "internalType": "address",
          "name": "walletAddress",
          "type": "address"
        }
      ],
      "name": "getReceivedTransactions",
      "outputs": [
        {
          "components": [
            {
              "internalType": "address",
              "name": "senderAddress",
              "type": "address"
            },
            {
              "internalType": "string",
              "name": "senderMspId",
              "type": "string"
            },
            {
              "internalType": "address",
              "name": "recipientAddress",
              "type": "address"
            },
            {
              "internalType": "string",
              "name": "recipientMspId",
              "type": "string"
            },
            {
              "internalType": "uint256",
              "name": "amount",
              "type": "uint256"
            },
            {
              "internalType": "string",
              "name": "metadata",
              "type": "string"
            },
            {
              "internalType": "uint256",
              "name": "timestamp",
              "type": "uint256"
            },
            {
              "internalType": "string",
              "name": "settlementType",
              "type": "string"
            }
          ],
          "internalType": "struct USFCI.TransferRecord[]",
          "name": "",
          "type": "tuple[]"
        }
      ],
      "stateMutability": "view",
      "type": "function"
    },
    {
      "inputs": [
        {
          "internalType": "bytes32",
          "name": "role",
          "type": "bytes32"
        }
      ],
      "name": "getRoleAdmin",
      "outputs": [
        {
          "internalType": "bytes32",
          "name": "",
          "type": "bytes32"
        }
      ],
      "stateMutability": "view",
      "type": "function"
    },
    {
      "inputs": [
        {
          "internalType": "address",
          "name": "walletAddress",
          "type": "address"
        }
      ],
      "name": "getSentTransactions",
      "outputs": [
        {
          "components": [
            {
              "internalType": "address",
              "name": "senderAddress",
              "type": "address"
            },
            {
              "internalType": "string",
              "name": "senderMspId",
              "type": "string"
            },
            {
              "internalType": "address",
              "name": "recipientAddress",
              "type": "address"
            },
            {
              "internalType": "string",
              "name": "recipientMspId",
              "type": "string"
            },
            {
              "internalType": "uint256",
              "name": "amount",
              "type": "uint256"
            },
            {
              "internalType": "string",
              "name": "metadata",
              "type": "string"
            },
            {
              "internalType": "uint256",
              "name": "timestamp",
              "type": "uint256"
            },
            {
              "internalType": "string",
              "name": "settlementType",
              "type": "string"
            }
          ],
          "internalType": "struct USFCI.TransferRecord[]",
          "name": "",
          "type": "tuple[]"
        }
      ],
      "stateMutability": "view",
      "type": "function"
    },
    {
      "inputs": [],
      "name": "getStatistics",
      "outputs": [
        {
          "internalType": "uint256",
          "name": "totalMints",
          "type": "uint256"
        },
        {
          "internalType": "uint256",
          "name": "totalBurns",
          "type": "uint256"
        },
        {
          "internalType": "uint256",
          "name": "totalTransfers",
          "type": "uint256"
        },
        {
          "internalType": "uint256",
          "name": "totalSupply_",
          "type": "uint256"
        }
      ],
      "stateMutability": "view",
      "type": "function"
    },
    {
      "inputs": [
        {
          "internalType": "address",
          "name": "walletAddress",
          "type": "address"
        }
      ],
      "name": "getTransactionHistory",
      "outputs": [
        {
          "components": [
            {
              "internalType": "address",
              "name": "senderAddress",
              "type": "address"
            },
            {
              "internalType": "string",
              "name": "senderMspId",
              "type": "string"
            },
            {
              "internalType": "address",
              "name": "recipientAddress",
              "type": "address"
            },
            {
              "internalType": "string",
              "name": "recipientMspId",
              "type": "string"
            },
            {
              "internalType": "uint256",
              "name": "amount",
              "type": "uint256"
            },
            {
              "internalType": "string",
              "name": "metadata",
              "type": "string"
            },
            {
              "internalType": "uint256",
              "name": "timestamp",
              "type": "uint256"
            },
            {
              "internalType": "string",
              "name": "settlementType",
              "type": "string"
            }
          ],
          "internalType": "struct USFCI.TransferRecord[]",
          "name": "",
          "type": "tuple[]"
        }
      ],
      "stateMutability": "view",
      "type": "function"
    },
    {
      "inputs": [
        {
          "internalType": "bytes32",
          "name": "role",
          "type": "bytes32"
        },
        {
          "internalType": "address",
          "name": "account",
          "type": "address"
        }
      ],
      "name": "grantRole",
      "outputs": [],
      "stateMutability": "nonpayable",
      "type": "function"
    },
    {
      "inputs": [
        {
          "internalType": "bytes32",
          "name": "role",
          "type": "bytes32"
        },
        {
          "internalType": "address",
          "name": "account",
          "type": "address"
        }
      ],
      "name": "hasRole",
      "outputs": [
        {
          "internalType": "bool",
          "name": "",
          "type": "bool"
        }
      ],
      "stateMutability": "view",
      "type": "function"
    },
    {
      "inputs": [],
      "name": "initLedger",
      "outputs": [],
      "stateMutability": "nonpayable",
      "type": "function"
    },
    {
      "inputs": [
        {
          "internalType": "address",
          "name": "initialOwner",
          "type": "address"
        }
      ],
      "name": "initialize",
      "outputs": [],
      "stateMutability": "nonpayable",
      "type": "function"
    },
    {
      "inputs": [
        {
          "internalType": "address",
          "name": "walletAddress",
          "type": "address"
        },
        {
          "internalType": "uint256",
          "name": "amount",
          "type": "uint256"
        },
        {
          "internalType": "string",
          "name": "reserveProof",
          "type": "string"
        }
      ],
      "name": "mintTokens",
      "outputs": [
        {
          "internalType": "bool",
          "name": "",
          "type": "bool"
        }
      ],
      "stateMutability": "nonpayable",
      "type": "function"
    },
    {
      "inputs": [
        {
          "internalType": "string",
          "name": "",
          "type": "string"
        }
      ],
      "name": "mspToWallet",
      "outputs": [
        {
          "internalType": "address",
          "name": "",
          "type": "address"
        }
      ],
      "stateMutability": "view",
      "type": "function"
    },
    {
      "inputs": [],
      "name": "name",
      "outputs": [
        {
          "internalType": "string",
          "name": "",
          "type": "string"
        }
      ],
      "stateMutability": "view",
      "type": "function"
    },
    {
      "inputs": [],
      "name": "paused",
      "outputs": [
        {
          "internalType": "bool",
          "name": "",
          "type": "bool"
        }
      ],
      "stateMutability": "view",
      "type": "function"
    },
    {
      "inputs": [],
      "name": "proxiableUUID",
      "outputs": [
        {
          "internalType": "bytes32",
          "name": "",
          "type": "bytes32"
        }
      ],
      "stateMutability": "view",
      "type": "function"
    },
    {
      "inputs": [
        {
          "internalType": "string",
          "name": "mspId",
          "type": "string"
        },
        {
          "internalType": "string",
          "name": "userId",
          "type": "string"
        },
        {
          "internalType": "string",
          "name": "accountType",
          "type": "string"
        }
      ],
      "name": "registerWallet",
      "outputs": [
        {
          "internalType": "address",
          "name": "",
          "type": "address"
        }
      ],
      "stateMutability": "nonpayable",
      "type": "function"
    },
    {
      "inputs": [
        {
          "internalType": "bytes32",
          "name": "role",
          "type": "bytes32"
        },
        {
          "internalType": "address",
          "name": "callerConfirmation",
          "type": "address"
        }
      ],
      "name": "renounceRole",
      "outputs": [],
      "stateMutability": "nonpayable",
      "type": "function"
    },
    {
      "inputs": [
        {
          "internalType": "bytes32",
          "name": "role",
          "type": "bytes32"
        },
        {
          "internalType": "address",
          "name": "account",
          "type": "address"
        }
      ],
      "name": "revokeRole",
      "outputs": [],
      "stateMutability": "nonpayable",
      "type": "function"
    },
    {
      "inputs": [
        {
          "internalType": "bytes4",
          "name": "interfaceId",
          "type": "bytes4"
        }
      ],
      "name": "supportsInterface",
      "outputs": [
        {
          "internalType": "bool",
          "name": "",
          "type": "bool"
        }
      ],
      "stateMutability": "view",
      "type": "function"
    },
    {
      "inputs": [],
      "name": "symbol",
      "outputs": [
        {
          "internalType": "string",
          "name": "",
          "type": "string"
        }
      ],
      "stateMutability": "view",
      "type": "function"
    },
    {
      "inputs": [],
      "name": "systemConfig",
      "outputs": [
        {
          "internalType": "string",
          "name": "tokenName",
          "type": "string"
        },
        {
          "internalType": "string",
          "name": "tokenSymbol",
          "type": "string"
        },
        {
          "internalType": "uint256",
          "name": "maxTransactionAmount",
          "type": "uint256"
        },
        {
          "internalType": "uint256",
          "name": "maxDailyTransactionAmount",
          "type": "uint256"
        },
        {
          "internalType": "bool",
          "name": "dailyReserveReportRequired",
          "type": "bool"
        },
        {
          "internalType": "string",
          "name": "reserveBank",
          "type": "string"
        },
        {
          "internalType": "bool",
          "name": "complianceEnabled",
          "type": "bool"
        }
      ],
      "stateMutability": "view",
      "type": "function"
    },
    {
      "inputs": [],
      "name": "totalSupply",
      "outputs": [
        {
          "internalType": "uint256",
          "name": "",
          "type": "uint256"
        }
      ],
      "stateMutability": "view",
      "type": "function"
    },
    {
      "inputs": [
        {
          "internalType": "address",
          "name": "recipient",
          "type": "address"
        },
        {
          "internalType": "uint256",
          "name": "amount",
          "type": "uint256"
        }
      ],
      "name": "transfer",
      "outputs": [
        {
          "internalType": "bool",
          "name": "",
          "type": "bool"
        }
      ],
      "stateMutability": "nonpayable",
      "type": "function"
    },
    {
      "inputs": [
        {
          "internalType": "address",
          "name": "from",
          "type": "address"
        },
        {
          "internalType": "address",
          "name": "to",
          "type": "address"
        },
        {
          "internalType": "uint256",
          "name": "value",
          "type": "uint256"
        }
      ],
      "name": "transferFrom",
      "outputs": [
        {
          "internalType": "bool",
          "name": "",
          "type": "bool"
        }
      ],
      "stateMutability": "nonpayable",
      "type": "function"
    },
    {
      "inputs": [
        {
          "internalType": "address",
          "name": "walletAddress",
          "type": "address"
        },
        {
          "internalType": "string",
          "name": "kycStatus",
          "type": "string"
        },
        {
          "internalType": "string",
          "name": "riskScore",
          "type": "string"
        }
      ],
      "name": "updateComplianceStatus",
      "outputs": [
        {
          "internalType": "bool",
          "name": "",
          "type": "bool"
        }
      ],
      "stateMutability": "nonpayable",
      "type": "function"
    },
    {
      "inputs": [
        {
          "internalType": "address",
          "name": "newImplementation",
          "type": "address"
        },
        {
          "internalType": "bytes",
          "name": "data",
          "type": "bytes"
        }
      ],
      "name": "upgradeToAndCall",
      "outputs": [],
      "stateMutability": "payable",
      "type": "function"
    },
    {
      "inputs": [],
      "name": "version",
      "outputs": [
        {
          "internalType": "string",
          "name": "",
          "type": "string"
        }
      ],
      "stateMutability": "pure",
      "type": "function"
    }
  ],
  "bytecode": "0x60a08060405234620000d157306080527ff0c57e16840df040f15088dc2f81fe391c3923bec73e23a9662efc9c229c6a009081549060ff8260401c16620000c257506001600160401b036002600160401b0319828216016200007c575b6040516159159081620000d782396080518181816133a3015261344a0152f35b6001600160401b031990911681179091556040519081527fc7f505b2f371ae2175ee4913f4499e1f2633a7b5936321eed1cdaeb6115181d290602090a13880806200005c565b63f92ee8a960e01b8152600490fd5b600080fdfe608080604052600436101561001357600080fd5b60003560e01c90816301ffc9a714613fde57508063062d3bd714613fb557806306fdde0314613f16578063095ea7b314613e955780630ed4600414613e0657806318160ddd14613ddb5780631cccfe0214613d155780631ecfee0f14613cad57806323b872dd14613bc6578063248a9ca314613b8a578063282c51f314613b615780632aceb534146139435780632f2ff15d146138f7578063313ce567146138db57806333d7e2bd1461369057806336568abe14613649578063372d6b27146136055780634f1ef286146133fb57806352d1902d1461339057806354fd4d501461334a5780635c975abb1461331a5780635e5c06e2146131e557806362970f9b146130b957806370a08231146102ed578063778b467114612d9e5780637b4e545814612d2757806388fc23c214612bf457806391d1485414612b9a57806395d89b4114612ac4578063a217fddf14612aa8578063a9059cbb1461218a578063ad3cb1cc14612144578063bf5aa69514611c87578063c2e7fa6c1461144d578063c4d66de814610b5e578063d20cf0e814610a61578063d539139314610a38578063d547741f146109ea578063dd62ed3e146109a1578063e401c9aa14610912578063e67524a3146103ca578063f54534021461033b578063f8b2cb4f146102ed5763fc70c4771461020357600080fd5b346102e85760203660031901126102e85761021c614079565b600c546001600160a01b03918216916000805b8381106102b857506102409061460f565b9260009160005b848110610260576040518061025c888261414f565b0390f35b828261026b836145cb565b5054161461027c575b600101610247565b926102b060019161029561028f876145cb565b506146aa565b61029f828a614696565b526102aa8189614696565b50614600565b939050610274565b84836102c3836145cb565b505416146102d4575b60010161022f565b906102e0600191614600565b9190506102cc565b600080fd5b346102e85760203660031901126102e857602061033361030b614079565b6001600160a01b03166000908152600080516020615689833981519152602052604090205490565b604051908152f35b346102e85760003660031901126102e857600a5461035881614552565b61036560405191826142bc565b818152600a60009081527fc65a7bb8d6351c1cf70c95a316cc6a92839c986682d98bc35f958f4883f9d2a8929060208084015b8383106103ad576040518061025c8782614458565b6006826001926103bc89614829565b815201960192019194610398565b346102e8576103d836614510565b33600090815260008051602061576983398151915260205260409020549091906000805160206157a98339815191529060ff16156108f4575061041961553b565b610421615566565b61042c811515614897565b8151156108b65760018060a01b038316600052600060205261045860ff60086040600020015416614901565b6001600160a01b0383161561089d576000805160206156c9833981519152928354828101809111610887579093556001600160a01b03831660008181526000805160206156898339815191526020908152604080832080548601905551848152610515969392916000805160206157e983398151915291a360018060a01b0381166000526000602052604060002042600382015561051c604051916104fc8361426a565b6001600160a01b03841683526040519687918290614389565b03866142bc565b602081019485528260408201528360608201524260808201523360a0820152600a54600160401b81101561078b5780600161055a9201600a5561480a565b95909561087157815186546001600160a01b0319166001600160a01b0391909116178655518051906001600160401b03821161078b57819061059f600189015461434f565b601f811161081e575b50602090601f83116001146107ac576000926107a1575b50508160011b916000199060031b1c19161760018601555b60408101516002860155606081015180519095906001600160401b03811161078b57610606600383015461434f565b601f8111610744575b506020601f82116001146106c2579080600593926000805160206158c983398151915298996000926106b7575b50508160011b916000199060031b1c19161760038201555b6080830151600482015560a090920151910180546001600160a01b0319166001600160a01b03928316179055604051911693909182916106979142919084614945565b0390a2600160008051602061588983398151915255602060405160018152f35b01519050898061063c565b6003830160005260206000209760005b601f198416811061072c5750916000805160206158c983398151915297986001926005959483601f19811610610713575b505050811b016003820155610654565b015160001960f88460031b161c19169055898080610703565b828201518a55600190990198602092830192016106d2565b600383016000526020600020601f830160051c810160208410610784575b601f830160051c8201811061077857505061060f565b60008155600101610762565b5080610762565b634e487b7160e01b600052604160045260246000fd5b0151905087806105bf565b9250600188016000526020600020906000935b601f1984168510610803576001945083601f198116106107ea575b505050811b0160018601556105d7565b015160001960f88460031b161c191690558780806107da565b818101518355602094850194600190930192909101906107bf565b909150600188016000526020600020601f840160051c81016020851061086a575b90849392915b601f830160051c8201811061085b5750506105a8565b60008155859450600101610845565b508061083f565b634e487b7160e01b600052600060045260246000fd5b634e487b7160e01b600052601160045260246000fd5b60405163ec442f0560e01b815260006004820152602490fd5b60405162461bcd60e51b815260206004820152601660248201527514995cd95c9d99481c1c9bdbd9881c995c5d5a5c995960521b6044820152606490fd5b6044906040519063e2517d3f60e01b82523360048301526024820152fd5b346102e85760003660031901126102e857600c5461092f81614552565b61093c60405191826142bc565b818152600c60009081527fdf6966c971051c3d54ec59162606531493a51404a002842f56009d7e5cf4a8c7929060208084015b838310610984576040518061025c878261414f565b600882600192610993896146aa565b81520196019201919461096f565b346102e85760403660031901126102e8576109ba614079565b6109cb6109c561408f565b9161441f565b9060018060a01b03166000526020526020604060002054604051908152f35b346102e85760403660031901126102e857610a36600435610a0961408f565b9080600052600080516020615809833981519152602052610a31600160406000200154614aa5565b614d73565b005b346102e85760003660031901126102e85760206040516000805160206157a98339815191528152f35b346102e85760203660031901126102e857610a7a614079565b600c546001600160a01b039182166000805b838110610b0f5750610a9d9061460f565b9260009160005b848110610ab9576040518061025c888261414f565b8183610ac4836145cb565b505416148015610af7575b610adc575b600101610aa4565b92610aef60019161029561028f876145cb565b939050610ad4565b5081836002610b05846145cb565b5001541614610acf565b8285610b1a836145cb565b505416148015610b46575b610b32575b600101610a8c565b90610b3e600191614600565b919050610b2a565b5082856002610b54846145cb565b5001541614610b25565b346102e85760203660031901126102e857610b77614079565b6000805160206158a9833981519152546001600160401b0381168015908161143d575b6001149081611433575b15908161142a575b50611418576001600160401b031981166001176000805160206158a983398151915255604081901c60ff16156113ef575b610be56149a8565b91610bee6149a8565b610bf6615596565b610bfe615596565b83516001600160401b03811161078b57610c266000805160206156698339815191525461434f565b601f8111611381575b506020601f82116001146112fc5781929394956000926112f1575b50508160011b916000199060031b1c191617600080516020615669833981519152555b8051906001600160401b03821161078b57610c966000805160206156a98339815191525461434f565b601f8111611291575b50602090601f83116001146111fe57610d3d939291600091836111f3575b50508160011b916000199060031b1c1916176000805160206156a9833981519152555b610ce8615596565b610cf0615596565b610cf8615596565b610d00615596565b600160008051602061588983398151915255610d1a615596565b610d2381614ad8565b50610d2d81614b54565b50610d3781614be0565b50614c66565b506040519060e082016001600160401b0381118382101761078b57604052610d636149a8565b8252610d6d6149a8565b60208301526904ee2d6d415b85acef8160201b806040840152606083015260016080830152604051610d9e816142a1565b600c81526b53756e776573742042616e6b60a01b602082015260a0830152600160c0830152815180519092906001600160401b03811161078b57610de360035461434f565b601f8111611192575b506020601f8211600114611128578192939460009261111d575b50508160011b916000199060031b1c1916176003555b602081015180519092906001600160401b03811161078b57610e3f60045461434f565b601f81116110bc575b506020601f82116001146110525781929394600092611047575b50508160011b916000199060031b1c1916176004555b604082015160055560608201516006556080820151151560ff199060ff826007541691161760075560a083015192835160018060401b03811161078b57610ec060085461434f565b601f8111610ff4575b50602094601f8211600114610f7957918160c09260ff978895600092610f6e575b50508160011b916000199060031b1c1916176008555b01511515916009541691161760095560401c1615610f1a57005b60ff60401b196000805160206158a983398151915254166000805160206158a9833981519152557fc7f505b2f371ae2175ee4913f4499e1f2633a7b5936321eed1cdaeb6115181d2602060405160018152a1005b015190508880610eea565b600860009081526000805160206157c9833981519152969190601f198416905b818110610fdc57509260ff978895936001938360c09710610fc3575b505050811b01600855610f00565b015160001960f88460031b161c19169055888080610fb5565b83830151895560019098019760209384019301610f99565b60086000526000805160206157c9833981519152601f830160051c8101916020841061103d575b601f0160051c01905b8181106110315750610ec9565b60008155600101611024565b909150819061101b565b015190508480610e62565b600460005260206000209060005b601f19841681106110a45750600193949583601f1981161061108b575b505050811b01600455610e78565b015160001960f88460031b161c1916905584808061107d565b9091602060018192858a015181550193019101611060565b60046000527f8a35acfbc15ff81a39ae7d344fd709f28e8600b4aa8c65c6b64bfe7fe36bd19b601f830160051c810160208410611116575b601f830160051c8201811061110a575050610e48565b600081556001016110f4565b50806110f4565b015190508480610e06565b600360005260206000209060005b601f198416811061117a5750600193949583601f19811610611161575b505050811b01600355610e1c565b015160001960f88460031b161c19169055848080611153565b9091602060018192858a015181550193019101611136565b60036000527fc2575a0e9e593c00f959f8c92f12db2869c3395a3b0502d05e2516446f71f85b601f830160051c8101602084106111ec575b601f830160051c820181106111e0575050610dec565b600081556001016111ca565b50806111ca565b015190508580610cbd565b6000805160206156a98339815191526000908152600080516020615869833981519152929190601f198516905b8181106112795750916001939185610d3d97969410611260575b505050811b016000805160206156a983398151915255610ce0565b015160001960f88460031b161c19169055858080611245565b9293602060018192878601518155019501930161122b565b6000805160206156a9833981519152600052600080516020615869833981519152601f840160051c810191602085106112e7575b601f0160051c01905b8181106112db5750610c9f565b600081556001016112ce565b90915081906112c5565b015190508580610c4a565b60008051602061566983398151915260005260206000209060005b601f1984168110611369575060019394959683601f19811610611350575b505050811b0160008051602061566983398151915255610c6d565b015160001960f88460031b161c19169055858080611335565b9091602060018192858b015181550193019101611317565b6000805160206156698339815191526000527f2ae08a8e29253f69ac5d979a101956ab8f8d9d7ded63fa7a83b16fc47648eab0601f830160051c8101602084106113e8575b601f830160051c820181106113dc575050610c2f565b600081556001016113c6565b50806113c6565b6001600160481b031981166001600160401b01176000805160206158a983398151915255610bdd565b60405163f92ee8a960e01b8152600490fd5b90501583610bac565b303b159150610ba4565b604083901c60ff16159150610b9a565b346102e85760603660031901126102e8576004356001600160401b0381116102e85761147d903690600401614331565b6024356001600160401b0381116102e85761149c903690600401614331565b906044356001600160401b0381116102e8576114bc903690600401614331565b33600052600060205260ff60086040600020015416611c4657815115611c1057825115611bd957604051906114f082614233565b82825283602083015260006040830152426060830152604051611512816142a1565b600781526670656e64696e6760c81b60208201526080830152604051611537816142a1565b60068152656d656469756d60d01b602082015260a083015260c08201524260e08201526001610100820152336000526000602052604060002090805180519060018060401b03821161078b57819061158f855461434f565b601f8111611b89575b50602090601f8311600114611b1d57600092611b12575b50508160011b916000199060031b1c19161782555b60208101518051906001600160401b03821161078b5781906115e9600186015461434f565b601f8111611abf575b50602090601f8311600114611a4d57600092611a42575b50508160011b916000199060031b1c19161760018301555b604081015160028301556060810151600383015560808101518051906001600160401b03821161078b57819061165a600486015461434f565b601f81116119ef575b50602090601f831160011461198257600092611977575b50508160011b916000199060031b1c19161760048301555b60a08101518051906001600160401b03821161078b5781906116b7600586015461434f565b601f8111611924575b50602090601f83116001146118b7576000926118ac575b50508160011b916000199060031b1c19161760058301555b60c0810151805160068401916001600160401b03821161078b57611713835461434f565b601f8111611864575b50602090601f83116001146117de576000805160206158e9833981519152969461178b94846117c69895600895610100956000926117d3575b50508160011b916000199060031b1c19161790555b60e081015160078501550151151591019060ff801983541691151516179055565b6117b660405182516117a1818360208701614031565b81019060028252602081339303019020614962565b60405191829133954291846147b3565b0390a26020604051338152f35b015190508c80611755565b90601f198316918460005260206000209260005b81811061184c575094600185600895610100956000805160206158e98339815191529c9a956117c69c9961178b9b10611833575b505050811b01905561176a565b015160001960f88460031b161c191690558c8080611826565b929360206001819287860151815501950193016117f2565b836000526020600020601f840160051c810191602085106118a2575b601f0160051c01905b818110611896575061171c565b60008155600101611889565b9091508190611880565b0151905086806116d7565b600586016000908152602081209350601f198516905b81811061190c57509084600195949392106118f3575b505050811b0160058301556116ef565b015160001960f88460031b161c191690558680806118e3565b929360206001819287860151815501950193016118cd565b909150600585016000526020600020601f840160051c810160208510611970575b90849392915b601f830160051c820181106119615750506116c0565b6000815585945060010161194b565b5080611945565b01519050868061167a565b600486016000908152602081209350601f198516905b8181106119d757509084600195949392106119be575b505050811b016004830155611692565b015160001960f88460031b161c191690558680806119ae565b92936020600181928786015181550195019301611998565b909150600485016000526020600020601f840160051c810160208510611a3b575b90849392915b601f830160051c82018110611a2c575050611663565b60008155859450600101611a16565b5080611a10565b015190508680611609565b9250600185016000526020600020906000935b601f1984168510611aa4576001945083601f19811610611a8b575b505050811b016001830155611621565b015160001960f88460031b161c19169055868080611a7b565b81810151835560209485019460019093019290910190611a60565b909150600185016000526020600020601f840160051c810160208510611b0b575b90849392915b601f830160051c82018110611afc5750506115f2565b60008155859450600101611ae6565b5080611ae0565b0151905086806115af565b9250846000526020600020906000935b601f1984168510611b6e576001945083601f19811610611b55575b505050811b0182556115c4565b015160001960f88460031b161c19169055868080611b48565b81810151835560209485019460019093019290910190611b2d565b909150846000526020600020601f840160051c810160208510611bd2575b90849392915b601f830160051c82018110611bc3575050611598565b60008155859450600101611bad565b5080611ba7565b60405162461bcd60e51b815260206004820152600f60248201526e155cd95c9259081c995c5d5a5c9959608a1b6044820152606490fd5b60405162461bcd60e51b815260206004820152600e60248201526d135cdc1259081c995c5d5a5c995960921b6044820152606490fd5b60405162461bcd60e51b815260206004820152601960248201527815d85b1b195d08185b1c9958591e481c9959da5cdd195c9959603a1b6044820152606490fd5b346102e857611c9536614510565b3360009081526000805160206156e98339815191526020526040902054919290916000805160206156498339815191529060ff16156108f45750611cd761553b565b611cdf615566565b611cea831515614897565b60018060a01b03908181166000526000602052611d1160ff60086040600020015416614901565b81811660005260008051602061568983398151915280602052846040600020541061210857828216156120ef5782821660005280602052604060002054908582106120cc57908591848416600052602052036040600020556000805160206156c983398151915284815403905560006040518581526000805160206157e9833981519152602085851692a38181166000526000602052604060002093426003860155611dd7611dde60405196611dc68861424f565b858516885260405192838092614389565b03826142bc565b60208601908152816040870152846060870152426080870152600b54600160401b81101561078b57806001611e169201600b55614794565b91909161087157865182546001600160a01b031916908616178255518051906001600160401b03821161078b578190611e52600185015461434f565b601f8111612079575b50602090601f831160011461200757600092611ffc575b50508160011b916000199060031b1c19161760018201555b60408601516002820155606086015180519096906001600160401b03811161078b57611eb9600384015461434f565b601f8111611fb5575b506020601f8211600114611f2e57610697949392826004936080936000805160206158298339815191529b9c600092611f23575b50508160011b916000199060031b1c19161760038501555b01519101556040519384931695429184614945565b015190508c80611ef6565b601f198216986003850160005260206000209960005b818110611f9d5750836000805160206158298339815191529a9b6080946106979998979460049760019510611f84575b505050811b016003850155611f0e565b015160001960f88460031b161c191690558c8080611f74565b838301518c556001909b019a60209384019301611f44565b600384016000526020600020601f830160051c810160208410611ff5575b601f830160051c82018110611fe9575050611ec2565b60008155600101611fd3565b5080611fd3565b015190508880611e72565b9250600184016000526020600020906000935b601f198416851061205e576001945083601f19811610612045575b505050811b016001820155611e8a565b015160001960f88460031b161c19169055888080612035565b8181015183556020948501946001909301929091019061201a565b909150600184016000526020600020601f840160051c8101602085106120c5575b90849392915b601f830160051c820181106120b6575050611e5b565b600081558594506001016120a0565b508061209a565b50906120eb8560405193849363391434e360e21b8552600485016149c9565b0390fd5b604051634b637e8f60e11b815260006004820152602490fd5b60405162461bcd60e51b8152602060048201526014602482015273496e73756666696369656e742062616c616e636560601b6044820152606490fd5b346102e85760003660031901126102e85761025c604051612164816142a1565b60058152640352e302e360dc1b6020820152604051918291602083526020830190614054565b346102e85760403660031901126102e8576121a3614079565b6121ab61553b565b6121b3615566565b6121c06024351515614897565b6001600160a01b0381163314612a655733600052600060205260ff6008604060002001541615612a28576001600160a01b03811660009081526020819052604090206008015460ff16156129e857336000526000805160206156898339815191526020526040600020546000602052600260406000200154810390811161088757602435116129a35760ff6009541661289e575b61226160243582336149e7565b336000908152602081905260408082204260038083018290556001600160a01b03861685529383902093840155905191611dd7916122d7919083906122b8906122a987614285565b33875260405192838092614389565b602085015260018060a01b038516604085015260405192838092614389565b606082015260243560808201526040516001600160401b03602082019081119082111761078b57602081016040526000815260a08201524260c0820152604051612320816142a1565b60078152661a5b9cdd185b9d60ca1b602082015260e0820152600c54600160401b81101561078b578060016123589201600c556145cb565b91909161087157805182546001600160a01b0319166001600160a01b0391909116178255602081015180519093906001600160401b03811161078b576123a1600185015461434f565b601f8111612857575b506020601f82116001146127e85781929394956000926127dd575b50508160011b916000199060031b1c19161760018401555b60408201516002840180546001600160a01b0319166001600160a01b0392909216919091179055606082015180519093906001600160401b03811161078b57612429600383015461434f565b601f8111612796575b506020601f821160011461272757819293949560009261271c575b50508160011b916000199060031b1c19161760038201555b6080830151600482015560a08301518051906001600160401b03821161078b57612492600584015461434f565b601f81116126d5575b50602090601f831160011461266057918060e09492600794600092612655575b50508160011b916000199060031b1c19161760058201555b60c085015160068201550192015191825160018060401b03811161078b576124fb825461434f565b601f811161260d575b506020601f82116001146125a7578192939460009261259c575b50508160011b916000199060031b1c19161790555b604051906024358252606060208301526000606083015242604083015260018060a01b0316907f7cb24ad5253d1c44678f7c5fe51284b627a23cf84e58e1dbc560c11ff305b8dc60803392a3600160008051602061588983398151915255602060405160018152f35b01519050848061251e565b601f198216908360005260206000209160005b8181106125f5575095836001959697106125dc575b505050811b019055612533565b015160001960f88460031b161c191690558480806125cf565b9192602060018192868b0151815501940192016125ba565b826000526020600020601f830160051c8101916020841061264b575b601f0160051c01905b81811061263f5750612504565b60008155600101612632565b9091508190612629565b0151905087806124bb565b906005840160005260206000209160005b601f19851681106126bd57509260e0949260019260079583601f198116106126a4575b505050811b0160058201556124d3565b015160001960f88460031b161c19169055878080612694565b91926020600181928685015181550194019201612671565b600584016000526020600020601f840160051c810160208510612715575b601f830160051c8201811061270957505061249b565b600081556001016126f3565b50806126f3565b01519050858061244d565b6003830160005260206000209060005b601f198416811061277e575060019394959683601f19811610612765575b505050811b016003820155612465565b015160001960f88460031b161c19169055858080612755565b9091602060018192858b015181550193019101612737565b600383016000526020600020601f830160051c8101602084106127d6575b601f830160051c820181106127ca575050612432565b600081556001016127b4565b50806127b4565b0151905085806123c5565b6001850160005260206000209060005b601f198416811061283f575060019394959683601f19811610612826575b505050811b0160018401556123dd565b015160001960f88460031b161c19169055858080612816565b9091602060018192858b0151815501930191016127f8565b600185016000526020600020601f830160051c810160208410612897575b601f830160051c8201811061288b5750506123aa565b60008155600101612875565b5080612875565b336000526000602052611dd76128c1600460406000200160405192838092614389565b602081519101206128d06148dd565b60208151910120036129645760018060a01b0381166000526000602052611dd7612907600460406000200160405192838092614389565b602081519101206129166148dd565b60208151910120146122545760405162461bcd60e51b815260206004820152601a602482015279149958da5c1a595b9d0812d650c81b9bdd08185c1c1c9bdd995960321b6044820152606490fd5b60405162461bcd60e51b815260206004820152601760248201527614d95b99195c8812d650c81b9bdd08185c1c1c9bdd9959604a1b6044820152606490fd5b60405162461bcd60e51b815260206004820152601d60248201527f496e73756666696369656e7420756e66726f7a656e2062616c616e63650000006044820152606490fd5b60405162461bcd60e51b8152602060048201526018602482015277149958da5c1a595b9d081b9bdd081c9959da5cdd195c995960421b6044820152606490fd5b60405162461bcd60e51b815260206004820152601560248201527414d95b99195c881b9bdd081c9959da5cdd195c9959605a1b6044820152606490fd5b60405162461bcd60e51b815260206004820152601b60248201527a21b0b73737ba103a3930b739b332b9103a37903cb7bab939b2b63360291b6044820152606490fd5b346102e85760003660031901126102e857602060405160008152f35b346102e85760003660031901126102e8576040516000805160206156a98339815191528054826000612af58361434f565b9283835260209460019186600182169182600014612b78575050600114612b39575b5050612b25925003836142bc565b61025c604051928284938452830190614054565b85925060005281600020906000915b858310612b60575050612b2593508201018580612b17565b80548389018501528794508693909201918101612b48565b9250935050612b2594915060ff191682840152151560051b8201018580612b17565b346102e85760403660031901126102e857612bb361408f565b60043560005260008051602061580983398151915260205260406000209060018060a01b0316600052602052602060ff604060002054166040519015158152f35b346102e8576020806003193601126102e857612c0e614079565b600a5460009290916001600160a01b039190821690845b848110612cf75750612c3685614552565b94612c4460405196876142bc565b808652612c53601f1991614552565b0160005b818110612cb95750505060009160005b848110612c7c576040518061025c8882614458565b8282612c878361480a565b50541614612c98575b600101612c67565b92612cb1600191610295612cab8761480a565b50614829565b939050612c90565b8290604051612cc78161426a565b6000815260608084830152600060408301528082015260006080820152600060a082015282828a01015201612c57565b8284612d028361480a565b50541614612d13575b600101612c25565b94612d1f600191614600565b959050612d0b565b346102e85760003660031901126102e857612d40614a7d565b612d74604051612d4f816142a1565b600a815269053756e776573744d53560b41b6020820152612d6e6147e1565b90614df6565b610a36604051612d83816142a1565b600681526504643494d53560d41b6020820152612d6e6147e1565b346102e85760603660031901126102e857612db7614079565b6001600160401b036024358181116102e857612dd7903690600401614331565b6044358281116102e857612def903690600401614331565b9060008051602061574983398151915293846000526020946000805160206158098339815191528652604060002033600052865260ff60406000205416156108f4575060018060a01b0316918260005260008552612e5760ff6008604060002001541661474f565b8260005260008552600460406000200182519085821161078b57612e7b815461434f565b91601f92838111613076575b50808884821160011461301357600091613008575b508160011b916000199060031b1c19161790555b8360005260008652600560406000200190825195861161078b57612ed4825461434f565b818111612fc5575b5086908611600114612f515794806000805160206157898339815191529596600091612f46575b508160011b916000199060031b1c19161790555b836000526000855242600360406000200155612f3a6040519283924291846147b3565b0390a260405160018152f35b905083015188612f03565b601f1986169082600052876000209160005b89828210612faf575050918791600080516020615789833981519152979860019410612f96575b5050811b019055612f17565b85015160001960f88460031b161c191690558880612f8a565b6001849582939589015181550194019201612f63565b82600052876000208280890160051c8201928a8a10612fff575b0160051c01905b818110612ff35750612edc565b60008155600101612fe6565b92508192612fdf565b905085015189612e9c565b60008481528a81209250601f198416905b8b8282106130605750509083600194939210613047575b5050811b019055612eb0565b87015160001960f88460031b161c19169055898061303b565b600184958293958c015181550194019201613024565b82600052886000208480840160051c8201928b85106130b0575b0160051c01905b8181106130a45750612e87565b60008155600101613097565b92508192613090565b346102e8576020806003193601126102e8576130d3614079565b600b5460009290916001600160a01b039190821690845b8481106131b557506130fb85614552565b9461310960405196876142bc565b808652613118601f1991614552565b0160005b81811061317e5750505060009160005b848110613141576040518061025c88826140a5565b828261314c83614794565b5054161461315d575b60010161312c565b9261317660019161029561317087614794565b50614569565b939050613155565b829060405161318c8161424f565b600081526060808483015260006040830152808201526000608082015282828a0101520161311c565b82846131c083614794565b505416146131d1575b6001016130ea565b946131dd600191614600565b9590506131c9565b346102e85760203660031901126102e8576001600160a01b03613206614079565b1660005260006020526132c6604060002060405190613230826132298184614389565b03836142bc565b60405161324481611dd78160018601614389565b61330860066132fa60056132ec6002870154600460038901546132718a6132296040518095819301614389565b6132858a6105156040518098819301614389565b6132a08a613299604051809a819301614389565b03886142bc565b6132d460ff600860078d01549c015416996040519d8e9d8e610120908181520190614054565b8d810360208f015290614054565b9260408c015260608b015289820360808b0152614054565b9087820360a0890152614054565b9085820360c0870152614054565b9160e084015215156101008301520390f35b346102e85760003660031901126102e857602060ff60008051602061584983398151915254166040519015158152f35b346102e85760003660031901126102e85761025c60405161336a816142a1565b60058152640312e302e360dc1b6020820152604051918291602083526020830190614054565b346102e85760003660031901126102e8577f00000000000000000000000000000000000000000000000000000000000000006001600160a01b031630036133e95760206040516000805160206157298339815191528152f35b60405163703e46dd60e11b8152600490fd5b60403660031901126102e85761340f614079565b6024356001600160401b0381116102e857366023820112156102e85761343f9036906024816004013591016142fa565b906001600160a01b037f000000000000000000000000000000000000000000000000000000000000000081163081149081156135e9575b506133e957613483614a7d565b6040516352d1902d60e01b8152908216916020918281600481875afa600091816135ba575b506134c657604051634c9c8ce360e01b815260048101859052602490fd5b928493600080516020615729833981519152908181036135a25750823b156135895780546001600160a01b03191682179055604051907fbc7cd75a20ee27fd9adebab32041f755214dbc6bffa90cc0225b39da2e5c2d3b600080a283511561356f57506000808484610a3696519101845af4903d15613566573d613549816142df565b9061355760405192836142bc565b8152600081943d92013e6155c5565b606092506155c5565b925050503461357a57005b63b398979f60e01b8152600490fd5b604051634c9c8ce360e01b815260048101839052602490fd5b60249060405190632a87526960e21b82526004820152fd5b9091508381813d83116135e2575b6135d281836142bc565b810103126102e8575190866134a8565b503d6135c8565b9050816000805160206157298339815191525416141584613476565b346102e85760003660031901126102e8576080600a54600b54600c546000805160206156c98339815191525491604051938452602084015260408301526060820152f35b346102e85760403660031901126102e85761366261408f565b336001600160a01b0382160361367e57610a3690600435614d73565b60405163334bd91960e11b8152600490fd5b346102e85760003660031901126102e8576040516000906003546136b38161434f565b80835282602094859260019485811690816000146138bd575060011461387c575b506136e1925003836142bc565b60405190838260006004546136f58161434f565b8084529085811690811561385e575060011461381d575b50613719925003836142bc565b6005549060065460ff6007541690604051926000906008549061373b8261434f565b808752918181169081156137fd57506001146137c1575b5050906137966137899861376e866137b59897969503866142bc565b60ff60095416976040519a8b9a60e08c5260e08c0190614054565b918a8303908b0152614054565b93604088015260608701521515608086015284820360a0860152614054565b90151560c08301520390f35b9150600860005288600020916000925b8284106137ea5750505083018701613796613789613752565b80548785018c0152928a019281016137d1565b60ff19168b8801525050151560051b840188019050613796613789613752565b905060046000528260002090846000925b828410613847575050509161371992820101869261370c565b80548885018701528794509285019286910161382e565b60ff19168486015250879390151560051b830101905061371961370c565b905060036000528260002090846000925b8284106138a657505050916136e19282010185926136d4565b80548885018701528794509285019286910161388d565b60ff19168486015250869390151560051b83010190506136e16136d4565b346102e85760003660031901126102e857602060405160128152f35b346102e85760403660031901126102e857610a3660043561391661408f565b908060005260008051602061580983398151915260205261393e600160406000200154614aa5565b614cfe565b346102e8576020806003193601126102e85761395d614079565b906040519061396b82614233565b60609283835283828401526040830160009052838301600090528360808401528360a08401528360c084015260e083016000905261010080930160009052600160a01b6001900316806000526000825260406000206008015460ff166139d09061474f565b60005260008152604060002090604051926139ea84614233565b604051806139f88186614389565b03613a0390826142bc565b84526040519081613a178160018701614389565b03613a2290836142bc565b848301918252600284015460408087019182526003860154888801908152905190939181613a538160048a01614389565b03613a5e90836142bc565b608088019182526040519081613a778160058b01614389565b03613a8290836142bc565b60a089019182526040519283613a9b8160068c01614389565b03613aa690856142bc565b60c08a0193845260078901549860e08b01998a526008015460ff1696868b0197151588526040519b8c9b8a8d52518c6101209b8c9101526101408d01613aeb91614054565b9651601f198d8903810160408f015297613b0491614054565b9351908c01525160808b01525190848a82030160a08b0152613b2591614054565b905190838982030160c08a0152613b3b91614054565b9051918782030160e0880152613b5091614054565b935190850152511515908301520390f35b346102e85760003660031901126102e85760206040516000805160206156498339815191528152f35b346102e85760203660031901126102e8576004356000526000805160206158098339815191526020526020600160406000200154604051908152f35b346102e85760603660031901126102e857613bdf614079565b613be761408f565b60443590613bf48361441f565b33600052602052604060002054926000198410613c21575b613c1693506149e7565b602060405160018152f35b828410613c90576001600160a01b03811615613c77573315613c5e5782613c1694613c4b8361441f565b3360005260205203604060002055613c0c565b604051634a1406b160e11b815260006004820152602490fd5b60405163e602df0560e01b815260006004820152602490fd5b604051637dc7a0d960e11b8152806120eb858733600485016149c9565b346102e85760203660031901126102e8576004356001600160401b0381116102e857613cdf6020913690600401614331565b81613cf36040519283815193849201614031565b600190820190815281900382019020546040516001600160a01b039091168152f35b346102e85760203660031901126102e857613d2e614079565b600c546001600160a01b03918216916000805b838110613da85750613d529061460f565b9260009160005b848110613d6e576040518061025c888261414f565b82826002613d7b846145cb565b5001541614613d8d575b600101613d59565b92613da060019161029561028f876145cb565b939050613d85565b84836002613db5846145cb565b5001541614613dc7575b600101613d41565b90613dd3600191614600565b919050613dbf565b346102e85760003660031901126102e85760206000805160206156c983398151915254604051908152f35b346102e85760003660031901126102e857600b54613e2381614552565b613e3060405191826142bc565b818152600b60009081527f0175b7a638427703f0dbe7bb9bbf987a2551717b34e79f33b5b1008d1fa01db9929060208084015b838310613e78576040518061025c87826140a5565b600582600192613e8789614569565b815201960192019194613e63565b346102e85760403660031901126102e857613eae614079565b602435903315613c77576001600160a01b0316908115613c5e57613ed13361441f565b82600052602052806040600020556040519081527f8c5be1e5ebec7d5bd14f71427d1e84f3dd0314c0f7b2291e5b200ac8c7c3b92560203392a3602060405160018152f35b346102e85760003660031901126102e8576040516000805160206156698339815191528054826000613f478361434f565b9283835260209460019186600182169182600014612b78575050600114613f76575050612b25925003836142bc565b85925060005281600020906000915b858310613f9d575050612b2593508201018580612b17565b80548389018501528794508693909201918101613f85565b346102e85760003660031901126102e85760206040516000805160206157498339815191528152f35b346102e85760203660031901126102e8576004359063ffffffff60e01b82168092036102e857602091637965db0b60e01b8114908115614020575b5015158152f35b6301ffc9a760e01b14905083614019565b60005b8381106140445750506000910152565b8181015183820152602001614034565b9060209161406d81518092818552858086019101614031565b601f01601f1916010190565b600435906001600160a01b03821682036102e857565b602435906001600160a01b03821682036102e857565b6020808201908083528351809252604092604081018260408560051b8401019601946000925b8584106140dc575050505050505090565b909192939495968580600192603f198582030187528a519061413461411960a0878060a01b03855116845285850151908087860152840190614054565b88840151898401526060808501519084830390850152614054565b916080809101519101529901940194019295949391906140cb565b6020808201908083528351809252604092604081018260408560051b8401019601946000925b858410614186575050505050505090565b909192939495968580614222600193603f198682030188528b516142056141e86101006141cb898060a01b03918286511687528886015190808a890152870190614054565b908b850151168b8601526060808501519086830390870152614054565b6080808401519085015260a0808401519085830390860152614054565b9160c0808301519082015260e08092015191818403910152614054565b990194019401929594939190614175565b61012081019081106001600160401b0382111761078b57604052565b60a081019081106001600160401b0382111761078b57604052565b60c081019081106001600160401b0382111761078b57604052565b61010081019081106001600160401b0382111761078b57604052565b604081019081106001600160401b0382111761078b57604052565b601f909101601f19168101906001600160401b0382119082101761078b57604052565b6001600160401b03811161078b57601f01601f191660200190565b929192614306826142df565b9161431460405193846142bc565b8294818452818301116102e8578281602093846000960137010152565b9080601f830112156102e85781602061434c933591016142fa565b90565b90600182811c9216801561437f575b602083101461436957565b634e487b7160e01b600052602260045260246000fd5b91607f169161435e565b8054600093926143988261434f565b9182825260209360019160018116908160001461440057506001146143bf575b5050505050565b90939495506000929192528360002092846000945b8386106143ec575050505001019038808080806143b8565b8054858701830152940193859082016143d4565b60ff19168685015250505090151560051b0101915038808080806143b8565b6001600160a01b031660009081527f52c63247e1f47db19d5ce0460030c497f067ca4cebf71ba98eeadabe20bace016020526040902090565b6020808201908083528351809252604092604081018260408560051b8401019601946000925b85841061448f575050505050505090565b909192939495968580600192603f198582030187528a519060c0916144ea6144cf878060a01b039485845116855286840151908088870152850190614054565b898301518a8501526060808401519085830390860152614054565b926080808301519084015260a0809201511691015299019401940192959493919061447e565b60606003198201126102e8576004356001600160a01b03811681036102e8579160243591604435906001600160401b0382116102e85761434c91600401614331565b6001600160401b03811161078b5760051b60200190565b906040516145768161424f565b60806004829460018060a01b03815416845260405161459c81611dd78160018601614389565b6020850152600281015460408501526040516145bf81611dd78160038601614389565b60608501520154910152565b600c548110156145ea57600c60005260206000209060031b0190600090565b634e487b7160e01b600052603260045260246000fd5b60001981146108875760010190565b9061461982614552565b60409061462960405191826142bc565b838152809361463a601f1991614552565b019160005b83811061464c5750505050565b602090825161465a81614285565b600081526060839080828401526000868401528080840152600060808401528060a0840152600060c084015260e083015282860101520161463f565b80518210156145ea5760209160051b010190565b90600760e060409361474b8551916146c183614285565b614744839760018060a01b0380845416865281516146e681611dd78160018901614389565b602087015260028401541681860152805161470881611dd78160038801614389565b606086015260048301546080860152805161472a81611dd78160058801614389565b60a0860152600683015460c0860152518096819301614389565b03846142bc565b0152565b1561475657565b60405162461bcd60e51b81526020600482015260166024820152751058d8dbdd5b9d08191bd95cc81b9bdd08195e1a5cdd60521b6044820152606490fd5b600b548110156145ea57600b6000526005602060002091020190600090565b9392916147dc906147ce604093606088526060880190614054565b908682036020880152614054565b930152565b604051906147ee826142a1565b600d82526c1a5b9cdd1a5d1d5d1a5bdb985b609a1b6020830152565b600a548110156145ea57600a6000526006602060002091020190600090565b906040516148368161426a565b60a081936005600180841b039182815416855260405161485d81611dd78160018601614389565b60208601526002810154604086015260405161488081611dd78160038601614389565b606086015260048101546080860152015416910152565b1561489e57565b60405162461bcd60e51b8152602060048201526017602482015276416d6f756e74206d75737420626520706f73697469766560481b6044820152606490fd5b604051906148ea826142a1565b6008825267185c1c1c9bdd995960c21b6020830152565b1561490857565b60405162461bcd60e51b815260206004820152601560248201527415d85b1b195d081b9bdd081c9959da5cdd195c9959605a1b6044820152606490fd5b9392916147dc906040928652606060208701526060860190614054565b805490600160401b82101561078b57600182018082558210156145ea576000908152602090200180546001600160a01b0319166001600160a01b03909216919091179055565b604051906149b5826142a1565b6005825264555346434960d81b6020830152565b604091949392606082019560018060a01b0316825260208201520152565b916001600160a01b038084169283156120ef571692831561089d5760009083825260008051602061568983398151915280602052604083205491848310614a5e575082846000805160206157e9833981519152959360409388602097528652038282205586815220818154019055604051908152a3565b90506120eb8460405193849363391434e360e21b8552600485016149c9565b336000908152600080516020615709833981519152602052604081205460ff16156108f45750565b8060005260008051602061580983398151915260205260406000203360005260205260ff60406000205416156108f45750565b6001600160a01b0316600081815260008051602061570983398151915260205260408120549091906000805160206158098339815191529060ff16614b4f578280526020526040822081835260205260408220600160ff1982541617905533916000805160206156298339815191528180a4600190565b505090565b6001600160a01b0316600081815260008051602061576983398151915260205260408120549091906000805160206157a9833981519152906000805160206158098339815191529060ff16614bda578184526020526040832082845260205260408320600160ff19825416179055600080516020615629833981519152339380a4600190565b50505090565b6001600160a01b031660008181526000805160206156e98339815191526020526040812054909190600080516020615649833981519152906000805160206158098339815191529060ff16614bda578184526020526040832082845260205260408320600160ff19825416179055600080516020615629833981519152339380a4600190565b6001600160a01b031660008181527fbdde6251a28104e743161105ef187767c6823ff1a991a55a764e1895d36c8a696020526040812054909190600080516020615749833981519152906000805160206158098339815191529060ff16614bda578184526020526040832082845260205260408320600160ff19825416179055600080516020615629833981519152339380a4600190565b9060009180835260008051602061580983398151915280602052604084209260018060a01b03169283855260205260ff60408520541615600014614bda578184526020526040832082845260205260408320600160ff19825416179055600080516020615629833981519152339380a4600190565b9060009180835260008051602061580983398151915280602052604084209260018060a01b03169283855260205260ff604085205416600014614bda57818452602052604083208284526020526040832060ff1981541690557ff6391f5c32d9c69d2a47ea670b442974b53935d1edc7fd64eb21e047a839171b339380a4600190565b60405160208101614e1f6020838551614e128186858a01614031565b81010380855201836142bc565b905190206040516001600160a01b0390911692614e3b82614233565b82825282602083015260006040830152426060830152614e596148dd565b6080830152604051614e6a816142a1565b60038152626c6f7760e81b602082015260a083015260c08201524260e08201526001610100820152826000526000602052604060002090805180519060018060401b03821161078b578190614ebf855461434f565b601f81116154eb575b50602090601f831160011461547f57600092615474575b50508160011b916000199060031b1c19161782555b60208101518051906001600160401b03821161078b578190614f19600186015461434f565b601f8111615421575b50602090601f83116001146153af576000926153a4575b50508160011b916000199060031b1c19161760018301555b604081015160028301556060810151600383015560808101518051906001600160401b03821161078b578190614f8a600486015461434f565b601f8111615351575b50602090601f83116001146152df576000926152d4575b50508160011b916000199060031b1c19161760048301555b60a08101518051906001600160401b03821161078b578190614fe7600586015461434f565b601f8111615281575b50602090601f831160011461520f57600092615204575b50508160011b916000199060031b1c19161760058301555b60c08101518051906001600160401b03821161078b57615042600685015461434f565b601f81116151bd575b50602090601f8311600114615130576101006000805160206158e98339815191529694846150bb956151209895600895600092615125575b50508160011b916000199060031b1c191617600685015560e081015160078501550151151591019060ff801983541691151516179055565b60405160208183516150d08183858801614031565b810160018152030190208460018060a01b03198254161790556151118460405160208185516151028183858a01614031565b81016002815203019020614962565b604051918291429080846147b3565b0390a2565b015190503880615083565b906006850160005260206000209160005b601f19851681106151a557506000805160206158e983398151915296946001856151209895600895610100956150bb99601f1981161061518c575b505050811b01600685015561176a565b015160001960f88460031b161c1916905538808061517c565b91926020600181928685015181550194019201615141565b600685016000526020600020601f840160051c8101602085106151fd575b601f830160051c820181106151f157505061504b565b600081556001016151db565b50806151db565b015190503880615007565b9250600585016000526020600020906000935b601f1984168510615266576001945083601f1981161061524d575b505050811b01600583015561501f565b015160001960f88460031b161c1916905538808061523d565b81810151835560209485019460019093019290910190615222565b909150600585016000526020600020601f840160051c8101602085106152cd575b90849392915b601f830160051c820181106152be575050614ff0565b600081558594506001016152a8565b50806152a2565b015190503880614faa565b9250600485016000526020600020906000935b601f1984168510615336576001945083601f1981161061531d575b505050811b016004830155614fc2565b015160001960f88460031b161c1916905538808061530d565b818101518355602094850194600190930192909101906152f2565b909150600485016000526020600020601f840160051c81016020851061539d575b90849392915b601f830160051c8201811061538e575050614f93565b60008155859450600101615378565b5080615372565b015190503880614f39565b9250600185016000526020600020906000935b601f1984168510615406576001945083601f198116106153ed575b505050811b016001830155614f51565b015160001960f88460031b161c191690553880806153dd565b818101518355602094850194600190930192909101906153c2565b909150600185016000526020600020601f840160051c81016020851061546d575b90849392915b601f830160051c8201811061545e575050614f22565b60008155859450600101615448565b5080615442565b015190503880614edf565b9250846000526020600020906000935b601f19841685106154d0576001945083601f198116106154b7575b505050811b018255614ef4565b015160001960f88460031b161c191690553880806154aa565b8181015183556020948501946001909301929091019061548f565b909150846000526020600020601f840160051c810160208510615534575b90849392915b601f830160051c82018110615525575050614ec8565b6000815585945060010161550f565b5080615509565b60ff600080516020615849833981519152541661555457565b60405163d93c066560e01b8152600490fd5b60008051602061588983398151915260028154146155845760029055565b604051633ee5aeb560e01b8152600490fd5b60ff6000805160206158a98339815191525460401c16156155b357565b604051631afcd79f60e31b8152600490fd5b906155ec57508051156155da57602081519101fd5b60405163d6bda27560e01b8152600490fd5b8151158061561f575b6155fd575090565b604051639996b31560e01b81526001600160a01b039091166004820152602490fd5b50803b156155f556fe2f8788117e7eff1d82e926ec794901d17c78024a50270940304540a733656f0d3c11d16cbaffd01df69ce1c404f6340ee057498f5f00246190ea54220576a84852c63247e1f47db19d5ce0460030c497f067ca4cebf71ba98eeadabe20bace0352c63247e1f47db19d5ce0460030c497f067ca4cebf71ba98eeadabe20bace0052c63247e1f47db19d5ce0460030c497f067ca4cebf71ba98eeadabe20bace0452c63247e1f47db19d5ce0460030c497f067ca4cebf71ba98eeadabe20bace02fcf1b2032b1187d9f2a29150c4a608b3b6f0bdf8dd007801f86a276af50cad92b7db2dd08fcb62d0c9e08c51941cae53c267786a0b75803fb7960902fc8ef97d360894a13ba1a3210667c828492db98dca3e2076cc3735a920a3ca505d382bbc442a94f1a1fac79af32856af2a64f63648cfa2ef3b98610a5bb7cbec4cee6985549fe2656c81d2947b3b913f0a53b9ea86c71e049f3a1b8aa23c09a8a05cb8d47adf7c11246ea2d9ffd628fe62199493e5b802955d4ab15cef216ff1f2d4678e9f2df0fed2c77648de5860a4cc508cd0818c85b8b8a1ab4ceeef8d981c8956a6f3f7a9fe364faab93b216da50a3214154f22a0a2b415b23a84c8169e8b636ee3ddf252ad1be2c89b69c2b068fc378daa952ba7f163c4a11628f55a4df523b3ef02dd7bc7dec4dceedda775e58dd541e08a116c6c53815c0bd028192f7b626800cdf267c1a9455e99c6cdd3aa34d4984f5128adb3662b30465d26f68340633998cd5ed15c6e187e77e9aee88184c21f4f2182ab5827cb3b7e07fbedcd63f0330046a2803e59a4de4e7a4c574b1243f25977ac4c77d5a1a4a609b5394cebb4a2aa9b779b17422d0df92223018b32b4d1fa46e071723d6817e2486d003becc55f00f0c57e16840df040f15088dc2f81fe391c3923bec73e23a9662efc9c229c6a0004133ee4cb027e1c5fce5e3481289278a93bd16a65a3b65b428a6d239e706bfb1b0798bd58b2133b10fd6f3ff5c87c85e0d538641ced1ae7abd256c82625811da164736f6c6343000818000a",
  "linkReferences": {},
  "deployedLinkReferences": {}
}